{"abi":[{"type":"constructor","inputs":[{"name":"_recoveryAddress","type":"address","internalType":"address"}],"stateMutability":"nonpayable"},{"type":"function","name":"AR_TREE_ID","inputs":[],"outputs":[{"name":"","type":"string","internalType":"string"}],"stateMutability":"view"},{"type":"function","name":"RECOVERY_DELAY","inputs":[],"outputs":[{"name":"","type":"uint256","internalType":"uint256"}],"stateMutability":"view"},{"type":"function","name":"RECOVERY_LOCKOUT","inputs":[],"outputs":[{"name":"","type":"uint256","internalType":"uint256"}],"stateMutability":"view"},{"type":"function","name":"addEntityOperator","inputs":[{"name":"op","type":"address","internalType":"address"}],"outputs":[],"stateMutability":"nonpayable"},{"type":"function","name":"addLegalOperator","inputs":[{"name":"op","type":"address","internalType":"address"}],"outputs":[],"stateMutability":"nonpayable"},{"type":"function","name":"addOperator","inputs":[{"name":"op","type":"address","internalType":"address"}],"outputs":[],"stateMutability":"nonpayable"},{"type":"function","name":"addProofOperator","inputs":[{"name":"op","type":"address","internalType":"address"}],"outputs":[],"stateMutability":"nonpayable"},{"type":"function","name":"affirmedAnchors","inputs":[{"name":"","type":"string","internalType":"string"}],"outputs":[{"name":"base","type":"tuple","internalType":"struct AnchorRegistry.AnchorBase","components":[{"name":"artifactType","type":"uint8","internalType":"enum AnchorRegistry.ArtifactType"},{"name":"manifestHash","type":"string","internalType":"string"},{"name":"parentHash","type":"string","internalType":"string"},{"name":"descriptor","type":"string","internalType":"string"},{"name":"title","type":"string","internalType":"string"},{"name":"author","type":"string","internalType":"string"},{"name":"treeId","type":"string","internalType":"string"}]},{"name":"targetArId","type":"string","internalType":"string"},{"name":"affirmedBy","type":"string","internalType":"string"},{"name":"findingUrl","type":"string","internalType":"string"}],"stateMutability":"view"},{"type":"function","name":"agentAnchors","inputs":[{"name":"","type":"string","internalType":"string"}],"outputs":[{"name":"base","type":"tuple","internalType":"struct AnchorRegistry.AnchorBase","components":[{"name":"artifactType","type":"uint8","internalType":"enum AnchorRegistry.ArtifactType"},{"name":"manifestHash","type":"string","internalType":"string"},{"name":"parentHash","type":"string","internalType":"string"},{"name":"descriptor","type":"string","internalType":"string"},{"name":"title","type":"string","internalType":"string"},{"name":"author","type":"string","internalType":"string"},{"name":"treeId","type":"string","internalType":"string"}]},{"name":"agentVersion","type":"string","internalType":"string"},{"name":"runtime","type":"string","internalType":"string"},{"name":"capabilities","type":"string","internalType":"string"},{"name":"url","type":"string","internalType":"string"}],"stateMutability":"view"},{"type":"function","name":"cancelRecovery","inputs":[],"outputs":[],"stateMutability":"nonpayable"},{"type":"function","name":"codeAnchors","inputs":[{"name":"","type":"string","internalType":"string"}],"outputs":[{"name":"base","type":"tuple","internalType":"struct AnchorRegistry.AnchorBase","components":[{"name":"artifactType","type":"uint8","internalType":"enum AnchorRegistry.ArtifactType"},{"name":"manifestHash","type":"string","internalType":"string"},{"name":"parentHash","type":"string","internalType":"string"},{"name":"descriptor","type":"string","internalType":"string"},{"name":"title","type":"string","internalType":"string"},{"name":"author","type":"string","internalType":"string"},{"name":"treeId","type":"string","internalType":"string"}]},{"name":"gitHash","type":"string","internalType":"string"},{"name":"license","type":"string","internalType":"string"},{"name":"language","type":"string","internalType":"string"},{"name":"version","type":"string","internalType":"string"},{"name":"url","type":"string","internalType":"string"}],"stateMutability":"view"},{"type":"function","name":"dataAnchors","inputs":[{"name":"","type":"string","internalType":"string"}],"outputs":[{"name":"base","type":"tuple","internalType":"struct AnchorRegistry.AnchorBase","components":[{"name":"artifactType","type":"uint8","internalType":"enum AnchorRegistry.ArtifactType"},{"name":"manifestHash","type":"string","internalType":"string"},{"name":"parentHash","type":"string","internalType":"string"},{"name":"descriptor","type":"string","internalType":"string"},{"name":"title","type":"string","internalType":"string"},{"name":"author","type":"string","internalType":"string"},{"name":"treeId","type":"string","internalType":"string"}]},{"name":"dataVersion","type":"string","internalType":"string"},{"name":"format","type":"string","internalType":"string"},{"name":"rowCount","type":"string","internalType":"string"},{"name":"schemaUrl","type":"string","internalType":"string"},{"name":"url","type":"string","internalType":"string"}],"stateMutability":"view"},{"type":"function","name":"entityAnchors","inputs":[{"name":"","type":"string","internalType":"string"}],"outputs":[{"name":"base","type":"tuple","internalType":"struct AnchorRegistry.AnchorBase","components":[{"name":"artifactType","type":"uint8","internalType":"enum AnchorRegistry.ArtifactType"},{"name":"manifestHash","type":"string","internalType":"string"},{"name":"parentHash","type":"string","internalType":"string"},{"name":"descriptor","type":"string","internalType":"string"},{"name":"title","type":"string","internalType":"string"},{"name":"author","type":"string","internalType":"string"},{"name":"treeId","type":"string","internalType":"string"}]},{"name":"entityType","type":"string","internalType":"string"},{"name":"entityDomain","type":"string","internalType":"string"},{"name":"verificationMethod","type":"string","internalType":"string"},{"name":"verificationProof","type":"string","internalType":"string"},{"name":"canonicalUrl","type":"string","internalType":"string"},{"name":"documentHash","type":"string","internalType":"string"}],"stateMutability":"view"},{"type":"function","name":"entityOperators","inputs":[{"name":"","type":"address","internalType":"address"}],"outputs":[{"name":"","type":"bool","internalType":"bool"}],"stateMutability":"view"},{"type":"function","name":"eventAnchors","inputs":[{"name":"","type":"string","internalType":"string"}],"outputs":[{"name":"base","type":"tuple","internalType":"struct AnchorRegistry.AnchorBase","components":[{"name":"artifactType","type":"uint8","internalType":"enum AnchorRegistry.ArtifactType"},{"name":"manifestHash","type":"string","internalType":"string"},{"name":"parentHash","type":"string","internalType":"string"},{"name":"descriptor","type":"string","internalType":"string"},{"name":"title","type":"string","internalType":"string"},{"name":"author","type":"string","internalType":"string"},{"name":"treeId","type":"string","internalType":"string"}]},{"name":"executor","type":"string","internalType":"string"},{"name":"eventType","type":"string","internalType":"string"},{"name":"eventDate","type":"string","internalType":"string"},{"name":"location","type":"string","internalType":"string"},{"name":"orchestrator","type":"string","internalType":"string"},{"name":"url","type":"string","internalType":"string"}],"stateMutability":"view"},{"type":"function","name":"executeRecovery","inputs":[],"outputs":[],"stateMutability":"nonpayable"},{"type":"function","name":"initiateRecovery","inputs":[{"name":"_pendingOwner","type":"address","internalType":"address"}],"outputs":[],"stateMutability":"nonpayable"},{"type":"function","name":"legalAnchors","inputs":[{"name":"","type":"string","internalType":"string"}],"outputs":[{"name":"base","type":"tuple","internalType":"struct AnchorRegistry.AnchorBase","components":[{"name":"artifactType","type":"uint8","internalType":"enum AnchorRegistry.ArtifactType"},{"name":"manifestHash","type":"string","internalType":"string"},{"name":"parentHash","type":"string","internalType":"string"},{"name":"descriptor","type":"string","internalType":"string"},{"name":"title","type":"string","internalType":"string"},{"name":"author","type":"string","internalType":"string"},{"name":"treeId","type":"string","internalType":"string"}]},{"name":"docType","type":"string","internalType":"string"},{"name":"jurisdiction","type":"string","internalType":"string"},{"name":"parties","type":"string","internalType":"string"},{"name":"effectiveDate","type":"string","internalType":"string"},{"name":"url","type":"string","internalType":"string"}],"stateMutability":"view"},{"type":"function","name":"legalOperators","inputs":[{"name":"","type":"address","internalType":"address"}],"outputs":[{"name":"","type":"bool","internalType":"bool"}],"stateMutability":"view"},{"type":"function","name":"mediaAnchors","inputs":[{"name":"","type":"string","internalType":"string"}],"outputs":[{"name":"base","type":"tuple","internalType":"struct AnchorRegistry.AnchorBase","components":[{"name":"artifactType","type":"uint8","internalType":"enum AnchorRegistry.ArtifactType"},{"name":"manifestHash","type":"string","internalType":"string"},{"name":"parentHash","type":"string","internalType":"string"},{"name":"descriptor","type":"string","internalType":"string"},{"name":"title","type":"string","internalType":"string"},{"name":"author","type":"string","internalType":"string"},{"name":"treeId","type":"string","internalType":"string"}]},{"name":"mediaType","type":"string","internalType":"string"},{"name":"format","type":"string","internalType":"string"},{"name":"duration","type":"string","internalType":"string"},{"name":"isrc","type":"string","internalType":"string"},{"name":"url","type":"string","internalType":"string"}],"stateMutability":"view"},{"type":"function","name":"modelAnchors","inputs":[{"name":"","type":"string","internalType":"string"}],"outputs":[{"name":"base","type":"tuple","internalType":"struct AnchorRegistry.AnchorBase","components":[{"name":"artifactType","type":"uint8","internalType":"enum AnchorRegistry.ArtifactType"},{"name":"manifestHash","type":"string","internalType":"string"},{"name":"parentHash","type":"string","internalType":"string"},{"name":"descriptor","type":"string","internalType":"string"},{"name":"title","type":"string","internalType":"string"},{"name":"author","type":"string","internalType":"string"},{"name":"treeId","type":"string","internalType":"string"}]},{"name":"modelVersion","type":"string","internalType":"string"},{"name":"architecture","type":"string","internalType":"string"},{"name":"parameters","type":"string","internalType":"string"},{"name":"trainingDataset","type":"string","internalType":"string"},{"name":"url","type":"string","internalType":"string"}],"stateMutability":"view"},{"type":"function","name":"noteAnchors","inputs":[{"name":"","type":"string","internalType":"string"}],"outputs":[{"name":"base","type":"tuple","internalType":"struct AnchorRegistry.AnchorBase","components":[{"name":"artifactType","type":"uint8","internalType":"enum AnchorRegistry.ArtifactType"},{"name":"manifestHash","type":"string","internalType":"string"},{"name":"parentHash","type":"string","internalType":"string"},{"name":"descriptor","type":"string","internalType":"string"},{"name":"title","type":"string","internalType":"string"},{"name":"author","type":"string","internalType":"string"},{"name":"treeId","type":"string","internalType":"string"}]},{"name":"noteType","type":"string","internalType":"string"},{"name":"date","type":"string","internalType":"string"},{"name":"participants","type":"string","internalType":"string"},{"name":"url","type":"string","internalType":"string"}],"stateMutability":"view"},{"type":"function","name":"onChainAnchors","inputs":[{"name":"","type":"string","internalType":"string"}],"outputs":[{"name":"base","type":"tuple","internalType":"struct AnchorRegistry.AnchorBase","components":[{"name":"artifactType","type":"uint8","internalType":"enum AnchorRegistry.ArtifactType"},{"name":"manifestHash","type":"string","internalType":"string"},{"name":"parentHash","type":"string","internalType":"string"},{"name":"descriptor","type":"string","internalType":"string"},{"name":"title","type":"string","internalType":"string"},{"name":"author","type":"string","internalType":"string"},{"name":"treeId","type":"string","internalType":"string"}]},{"name":"chainId","type":"string","internalType":"string"},{"name":"assetType","type":"string","internalType":"string"},{"name":"contractAddress","type":"string","internalType":"string"},{"name":"txHash","type":"string","internalType":"string"},{"name":"tokenId","type":"string","internalType":"string"},{"name":"blockNumber","type":"string","internalType":"string"},{"name":"url","type":"string","internalType":"string"}],"stateMutability":"view"},{"type":"function","name":"operators","inputs":[{"name":"","type":"address","internalType":"address"}],"outputs":[{"name":"","type":"bool","internalType":"bool"}],"stateMutability":"view"},{"type":"function","name":"otherAnchors","inputs":[{"name":"","type":"string","internalType":"string"}],"outputs":[{"name":"base","type":"tuple","internalType":"struct AnchorRegistry.AnchorBase","components":[{"name":"artifactType","type":"uint8","internalType":"enum AnchorRegistry.ArtifactType"},{"name":"manifestHash","type":"string","internalType":"string"},{"name":"parentHash","type":"string","internalType":"string"},{"name":"descriptor","type":"string","internalType":"string"},{"name":"title","type":"string","internalType":"string"},{"name":"author","type":"string","internalType":"string"},{"name":"treeId","type":"string","internalType":"string"}]},{"name":"kind","type":"string","internalType":"string"},{"name":"platform","type":"string","internalType":"string"},{"name":"url","type":"string","internalType":"string"},{"name":"value","type":"string","internalType":"string"}],"stateMutability":"view"},{"type":"function","name":"owner","inputs":[],"outputs":[{"name":"","type":"address","internalType":"address"}],"stateMutability":"view"},{"type":"function","name":"pendingOwner","inputs":[],"outputs":[{"name":"","type":"address","internalType":"address"}],"stateMutability":"view"},{"type":"function","name":"postAnchors","inputs":[{"name":"","type":"string","internalType":"string"}],"outputs":[{"name":"base","type":"tuple","internalType":"struct AnchorRegistry.AnchorBase","components":[{"name":"artifactType","type":"uint8","internalType":"enum AnchorRegistry.ArtifactType"},{"name":"manifestHash","type":"string","internalType":"string"},{"name":"parentHash","type":"string","internalType":"string"},{"name":"descriptor","type":"string","internalType":"string"},{"name":"title","type":"string","internalType":"string"},{"name":"author","type":"string","internalType":"string"},{"name":"treeId","type":"string","internalType":"string"}]},{"name":"platform","type":"string","internalType":"string"},{"name":"postId","type":"string","internalType":"string"},{"name":"postDate","type":"string","internalType":"string"},{"name":"url","type":"string","internalType":"string"}],"stateMutability":"view"},{"type":"function","name":"proofAnchors","inputs":[{"name":"","type":"string","internalType":"string"}],"outputs":[{"name":"base","type":"tuple","internalType":"struct AnchorRegistry.AnchorBase","components":[{"name":"artifactType","type":"uint8","internalType":"enum AnchorRegistry.ArtifactType"},{"name":"manifestHash","type":"string","internalType":"string"},{"name":"parentHash","type":"string","internalType":"string"},{"name":"descriptor","type":"string","internalType":"string"},{"name":"title","type":"string","internalType":"string"},{"name":"author","type":"string","internalType":"string"},{"name":"treeId","type":"string","internalType":"string"}]},{"name":"proofType","type":"string","internalType":"string"},{"name":"proofSystem","type":"string","internalType":"string"},{"name":"circuitId","type":"string","internalType":"string"},{"name":"vkeyHash","type":"string","internalType":"string"},{"name":"auditFirm","type":"string","internalType":"string"},{"name":"auditScope","type":"string","internalType":"string"},{"name":"verifierUrl","type":"string","internalType":"string"},{"name":"reportUrl","type":"string","internalType":"string"},{"name":"proofHash","type":"string","internalType":"string"}],"stateMutability":"view"},{"type":"function","name":"proofOperators","inputs":[{"name":"","type":"address","internalType":"address"}],"outputs":[{"name":"","type":"bool","internalType":"bool"}],"stateMutability":"view"},{"type":"function","name":"receiptAnchors","inputs":[{"name":"","type":"string","internalType":"string"}],"outputs":[{"name":"base","type":"tuple","internalType":"struct AnchorRegistry.AnchorBase","components":[{"name":"artifactType","type":"uint8","internalType":"enum AnchorRegistry.ArtifactType"},{"name":"manifestHash","type":"string","internalType":"string"},{"name":"parentHash","type":"string","internalType":"string"},{"name":"descriptor","type":"string","internalType":"string"},{"name":"title","type":"string","internalType":"string"},{"name":"author","type":"string","internalType":"string"},{"name":"treeId","type":"string","internalType":"string"}]},{"name":"receiptType","type":"string","internalType":"string"},{"name":"merchant","type":"string","internalType":"string"},{"name":"amount","type":"string","internalType":"string"},{"name":"currency","type":"string","internalType":"string"},{"name":"orderId","type":"string","internalType":"string"},{"name":"platform","type":"string","internalType":"string"},{"name":"url","type":"string","internalType":"string"}],"stateMutability":"view"},{"type":"function","name":"recoveryAddress","inputs":[],"outputs":[{"name":"","type":"address","internalType":"address"}],"stateMutability":"view"},{"type":"function","name":"recoveryInitiatedAt","inputs":[],"outputs":[{"name":"","type":"uint256","internalType":"uint256"}],"stateMutability":"view"},{"type":"function","name":"recoveryLockoutUntil","inputs":[],"outputs":[{"name":"","type":"uint256","internalType":"uint256"}],"stateMutability":"view"},{"type":"function","name":"registerAffirmed","inputs":[{"name":"arId","type":"string","internalType":"string"},{"name":"base","type":"tuple","internalType":"struct AnchorRegistry.AnchorBase","components":[{"name":"artifactType","type":"uint8","internalType":"enum AnchorRegistry.ArtifactType"},{"name":"manifestHash","type":"string","internalType":"string"},{"name":"parentHash","type":"string","internalType":"string"},{"name":"descriptor","type":"string","internalType":"string"},{"name":"title","type":"string","internalType":"string"},{"name":"author","type":"string","internalType":"string"},{"name":"treeId","type":"string","internalType":"string"}]},{"name":"targetArId","type":"string","internalType":"string"},{"name":"affirmedBy","type":"string","internalType":"string"},{"name":"findingUrl","type":"string","internalType":"string"}],"outputs":[],"stateMutability":"nonpayable"},{"type":"function","name":"registerAgent","inputs":[{"name":"arId","type":"string","internalType":"string"},{"name":"base","type":"tuple","internalType":"struct AnchorRegistry.AnchorBase","components":[{"name":"artifactType","type":"uint8","internalType":"enum AnchorRegistry.ArtifactType"},{"name":"manifestHash","type":"string","internalType":"string"},{"name":"parentHash","type":"string","internalType":"string"},{"name":"descriptor","type":"string","internalType":"string"},{"name":"title","type":"string","internalType":"string"},{"name":"author","type":"string","internalType":"string"},{"name":"treeId","type":"string","internalType":"string"}]},{"name":"agentVersion","type":"string","internalType":"string"},{"name":"runtime","type":"string","internalType":"string"},{"name":"capabilities","type":"string","internalType":"string"},{"name":"url","type":"string","internalType":"string"}],"outputs":[],"stateMutability":"nonpayable"},{"type":"function","name":"registerCode","inputs":[{"name":"arId","type":"string","internalType":"string"},{"name":"base","type":"tuple","internalType":"struct AnchorRegistry.AnchorBase","components":[{"name":"artifactType","type":"uint8","internalType":"enum AnchorRegistry.ArtifactType"},{"name":"manifestHash","type":"string","internalType":"string"},{"name":"parentHash","type":"string","internalType":"string"},{"name":"descriptor","type":"string","internalType":"string"},{"name":"title","type":"string","internalType":"string"},{"name":"author","type":"string","internalType":"string"},{"name":"treeId","type":"string","internalType":"string"}]},{"name":"gitHash","type":"string","internalType":"string"},{"name":"license","type":"string","internalType":"string"},{"name":"language","type":"string","internalType":"string"},{"name":"version","type":"string","internalType":"string"},{"name":"url","type":"string","internalType":"string"}],"outputs":[],"stateMutability":"nonpayable"},{"type":"function","name":"registerData","inputs":[{"name":"arId","type":"string","internalType":"string"},{"name":"base","type":"tuple","internalType":"struct AnchorRegistry.AnchorBase","components":[{"name":"artifactType","type":"uint8","internalType":"enum AnchorRegistry.ArtifactType"},{"name":"manifestHash","type":"string","internalType":"string"},{"name":"parentHash","type":"string","internalType":"string"},{"name":"descriptor","type":"string","internalType":"string"},{"name":"title","type":"string","internalType":"string"},{"name":"author","type":"string","internalType":"string"},{"name":"treeId","type":"string","internalType":"string"}]},{"name":"dataVersion","type":"string","internalType":"string"},{"name":"format","type":"string","internalType":"string"},{"name":"rowCount","type":"string","internalType":"string"},{"name":"schemaUrl","type":"string","internalType":"string"},{"name":"url","type":"string","internalType":"string"}],"outputs":[],"stateMutability":"nonpayable"},{"type":"function","name":"registerEntity","inputs":[{"name":"arId","type":"string","internalType":"string"},{"name":"base","type":"tuple","internalType":"struct AnchorRegistry.AnchorBase","components":[{"name":"artifactType","type":"uint8","internalType":"enum AnchorRegistry.ArtifactType"},{"name":"manifestHash","type":"string","internalType":"string"},{"name":"parentHash","type":"string","internalType":"string"},{"name":"descriptor","type":"string","internalType":"string"},{"name":"title","type":"string","internalType":"string"},{"name":"author","type":"string","internalType":"string"},{"name":"treeId","type":"string","internalType":"string"}]},{"name":"entityType","type":"string","internalType":"string"},{"name":"entityDomain","type":"string","internalType":"string"},{"name":"verificationMethod","type":"string","internalType":"string"},{"name":"verificationProof","type":"string","internalType":"string"},{"name":"canonicalUrl","type":"string","internalType":"string"},{"name":"documentHash","type":"string","internalType":"string"}],"outputs":[],"stateMutability":"nonpayable"},{"type":"function","name":"registerEvent","inputs":[{"name":"arId","type":"string","internalType":"string"},{"name":"base","type":"tuple","internalType":"struct AnchorRegistry.AnchorBase","components":[{"name":"artifactType","type":"uint8","internalType":"enum AnchorRegistry.ArtifactType"},{"name":"manifestHash","type":"string","internalType":"string"},{"name":"parentHash","type":"string","internalType":"string"},{"name":"descriptor","type":"string","internalType":"string"},{"name":"title","type":"string","internalType":"string"},{"name":"author","type":"string","internalType":"string"},{"name":"treeId","type":"string","internalType":"string"}]},{"name":"executor","type":"string","internalType":"string"},{"name":"eventType","type":"string","internalType":"string"},{"name":"eventDate","type":"string","internalType":"string"},{"name":"location","type":"string","internalType":"string"},{"name":"orchestrator","type":"string","internalType":"string"},{"name":"url","type":"string","internalType":"string"}],"outputs":[],"stateMutability":"nonpayable"},{"type":"function","name":"registerLegal","inputs":[{"name":"arId","type":"string","internalType":"string"},{"name":"base","type":"tuple","internalType":"struct AnchorRegistry.AnchorBase","components":[{"name":"artifactType","type":"uint8","internalType":"enum AnchorRegistry.ArtifactType"},{"name":"manifestHash","type":"string","internalType":"string"},{"name":"parentHash","type":"string","internalType":"string"},{"name":"descriptor","type":"string","internalType":"string"},{"name":"title","type":"string","internalType":"string"},{"name":"author","type":"string","internalType":"string"},{"name":"treeId","type":"string","internalType":"string"}]},{"name":"docType","type":"string","internalType":"string"},{"name":"jurisdiction","type":"string","internalType":"string"},{"name":"parties","type":"string","internalType":"string"},{"name":"effectiveDate","type":"string","internalType":"string"},{"name":"url","type":"string","internalType":"string"}],"outputs":[],"stateMutability":"nonpayable"},{"type":"function","name":"registerMedia","inputs":[{"name":"arId","type":"string","internalType":"string"},{"name":"base","type":"tuple","internalType":"struct AnchorRegistry.AnchorBase","components":[{"name":"artifactType","type":"uint8","internalType":"enum AnchorRegistry.ArtifactType"},{"name":"manifestHash","type":"string","internalType":"string"},{"name":"parentHash","type":"string","internalType":"string"},{"name":"descriptor","type":"string","internalType":"string"},{"name":"title","type":"string","internalType":"string"},{"name":"author","type":"string","internalType":"string"},{"name":"treeId","type":"string","internalType":"string"}]},{"name":"mediaType","type":"string","internalType":"string"},{"name":"format","type":"string","internalType":"string"},{"name":"duration","type":"string","internalType":"string"},{"name":"isrc","type":"string","internalType":"string"},{"name":"url","type":"string","internalType":"string"}],"outputs":[],"stateMutability":"nonpayable"},{"type":"function","name":"registerModel","inputs":[{"name":"arId","type":"string","internalType":"string"},{"name":"base","type":"tuple","internalType":"struct AnchorRegistry.AnchorBase","components":[{"name":"artifactType","type":"uint8","internalType":"enum AnchorRegistry.ArtifactType"},{"name":"manifestHash","type":"string","internalType":"string"},{"name":"parentHash","type":"string","internalType":"string"},{"name":"descriptor","type":"string","internalType":"string"},{"name":"title","type":"string","internalType":"string"},{"name":"author","type":"string","internalType":"string"},{"name":"treeId","type":"string","internalType":"string"}]},{"name":"modelVersion","type":"string","internalType":"string"},{"name":"architecture","type":"string","internalType":"string"},{"name":"parameters","type":"string","internalType":"string"},{"name":"trainingDataset","type":"string","internalType":"string"},{"name":"url","type":"string","internalType":"string"}],"outputs":[],"stateMutability":"nonpayable"},{"type":"function","name":"registerNote","inputs":[{"name":"arId","type":"string","internalType":"string"},{"name":"base","type":"tuple","internalType":"struct AnchorRegistry.AnchorBase","components":[{"name":"artifactType","type":"uint8","internalType":"enum AnchorRegistry.ArtifactType"},{"name":"manifestHash","type":"string","internalType":"string"},{"name":"parentHash","type":"string","internalType":"string"},{"name":"descriptor","type":"string","internalType":"string"},{"name":"title","type":"string","internalType":"string"},{"name":"author","type":"string","internalType":"string"},{"name":"treeId","type":"string","internalType":"string"}]},{"name":"noteType","type":"string","internalType":"string"},{"name":"date","type":"string","internalType":"string"},{"name":"participants","type":"string","internalType":"string"},{"name":"url","type":"string","internalType":"string"}],"outputs":[],"stateMutability":"nonpayable"},{"type":"function","name":"registerOnChain","inputs":[{"name":"arId","type":"string","internalType":"string"},{"name":"base","type":"tuple","internalType":"struct AnchorRegistry.AnchorBase","components":[{"name":"artifactType","type":"uint8","internalType":"enum AnchorRegistry.ArtifactType"},{"name":"manifestHash","type":"string","internalType":"string"},{"name":"parentHash","type":"string","internalType":"string"},{"name":"descriptor","type":"string","internalType":"string"},{"name":"title","type":"string","internalType":"string"},{"name":"author","type":"string","internalType":"string"},{"name":"treeId","type":"string","internalType":"string"}]},{"name":"chainId","type":"string","internalType":"string"},{"name":"assetType","type":"string","internalType":"string"},{"name":"contractAddress","type":"string","internalType":"string"},{"name":"txHash","type":"string","internalType":"string"},{"name":"tokenId","type":"string","internalType":"string"},{"name":"blockNumber","type":"string","internalType":"string"},{"name":"url","type":"string","internalType":"string"}],"outputs":[],"stateMutability":"nonpayable"},{"type":"function","name":"registerOther","inputs":[{"name":"arId","type":"string","internalType":"string"},{"name":"base","type":"tuple","internalType":"struct AnchorRegistry.AnchorBase","components":[{"name":"artifactType","type":"uint8","internalType":"enum AnchorRegistry.ArtifactType"},{"name":"manifestHash","type":"string","internalType":"string"},{"name":"parentHash","type":"string","internalType":"string"},{"name":"descriptor","type":"string","internalType":"string"},{"name":"title","type":"string","internalType":"string"},{"name":"author","type":"string","internalType":"string"},{"name":"treeId","type":"string","internalType":"string"}]},{"name":"kind","type":"string","internalType":"string"},{"name":"platform","type":"string","internalType":"string"},{"name":"url","type":"string","internalType":"string"},{"name":"value","type":"string","internalType":"string"}],"outputs":[],"stateMutability":"nonpayable"},{"type":"function","name":"registerPost","inputs":[{"name":"arId","type":"string","internalType":"string"},{"name":"base","type":"tuple","internalType":"struct AnchorRegistry.AnchorBase","components":[{"name":"artifactType","type":"uint8","internalType":"enum AnchorRegistry.ArtifactType"},{"name":"manifestHash","type":"string","internalType":"string"},{"name":"parentHash","type":"string","internalType":"string"},{"name":"descriptor","type":"string","internalType":"string"},{"name":"title","type":"string","internalType":"string"},{"name":"author","type":"string","internalType":"string"},{"name":"treeId","type":"string","internalType":"string"}]},{"name":"platform","type":"string","internalType":"string"},{"name":"postId","type":"string","internalType":"string"},{"name":"postDate","type":"string","internalType":"string"},{"name":"url","type":"string","internalType":"string"}],"outputs":[],"stateMutability":"nonpayable"},{"type":"function","name":"registerProof","inputs":[{"name":"arId","type":"string","internalType":"string"},{"name":"base","type":"tuple","internalType":"struct AnchorRegistry.AnchorBase","components":[{"name":"artifactType","type":"uint8","internalType":"enum AnchorRegistry.ArtifactType"},{"name":"manifestHash","type":"string","internalType":"string"},{"name":"parentHash","type":"string","internalType":"string"},{"name":"descriptor","type":"string","internalType":"string"},{"name":"title","type":"string","internalType":"string"},{"name":"author","type":"string","internalType":"string"},{"name":"treeId","type":"string","internalType":"string"}]},{"name":"proofType","type":"string","internalType":"string"},{"name":"proofSystem","type":"string","internalType":"string"},{"name":"circuitId","type":"string","internalType":"string"},{"name":"vkeyHash","type":"string","internalType":"string"},{"name":"auditFirm","type":"string","internalType":"string"},{"name":"auditScope","type":"string","internalType":"string"},{"name":"verifierUrl","type":"string","internalType":"string"},{"name":"reportUrl","type":"string","internalType":"string"},{"name":"proofHash","type":"string","internalType":"string"}],"outputs":[],"stateMutability":"nonpayable"},{"type":"function","name":"registerReceipt","inputs":[{"name":"arId","type":"string","internalType":"string"},{"name":"base","type":"tuple","internalType":"struct AnchorRegistry.AnchorBase","components":[{"name":"artifactType","type":"uint8","internalType":"enum AnchorRegistry.ArtifactType"},{"name":"manifestHash","type":"string","internalType":"string"},{"name":"parentHash","type":"string","internalType":"string"},{"name":"descriptor","type":"string","internalType":"string"},{"name":"title","type":"string","internalType":"string"},{"name":"author","type":"string","internalType":"string"},{"name":"treeId","type":"string","internalType":"string"}]},{"name":"receiptType","type":"string","internalType":"string"},{"name":"merchant","type":"string","internalType":"string"},{"name":"amount","type":"string","internalType":"string"},{"name":"currency","type":"string","internalType":"string"},{"name":"orderId","type":"string","internalType":"string"},{"name":"platform","type":"string","internalType":"string"},{"name":"url","type":"string","internalType":"string"}],"outputs":[],"stateMutability":"nonpayable"},{"type":"function","name":"registerReport","inputs":[{"name":"arId","type":"string","internalType":"string"},{"name":"base","type":"tuple","internalType":"struct AnchorRegistry.AnchorBase","components":[{"name":"artifactType","type":"uint8","internalType":"enum AnchorRegistry.ArtifactType"},{"name":"manifestHash","type":"string","internalType":"string"},{"name":"parentHash","type":"string","internalType":"string"},{"name":"descriptor","type":"string","internalType":"string"},{"name":"title","type":"string","internalType":"string"},{"name":"author","type":"string","internalType":"string"},{"name":"treeId","type":"string","internalType":"string"}]},{"name":"reportType","type":"string","internalType":"string"},{"name":"client","type":"string","internalType":"string"},{"name":"engagement","type":"string","internalType":"string"},{"name":"version","type":"string","internalType":"string"},{"name":"authors","type":"string","internalType":"string"},{"name":"institution","type":"string","internalType":"string"},{"name":"url","type":"string","internalType":"string"}],"outputs":[],"stateMutability":"nonpayable"},{"type":"function","name":"registerResearch","inputs":[{"name":"arId","type":"string","internalType":"string"},{"name":"base","type":"tuple","internalType":"struct AnchorRegistry.AnchorBase","components":[{"name":"artifactType","type":"uint8","internalType":"enum AnchorRegistry.ArtifactType"},{"name":"manifestHash","type":"string","internalType":"string"},{"name":"parentHash","type":"string","internalType":"string"},{"name":"descriptor","type":"string","internalType":"string"},{"name":"title","type":"string","internalType":"string"},{"name":"author","type":"string","internalType":"string"},{"name":"treeId","type":"string","internalType":"string"}]},{"name":"doi","type":"string","internalType":"string"},{"name":"institution","type":"string","internalType":"string"},{"name":"coAuthors","type":"string","internalType":"string"},{"name":"url","type":"string","internalType":"string"}],"outputs":[],"stateMutability":"nonpayable"},{"type":"function","name":"registerRetraction","inputs":[{"name":"arId","type":"string","internalType":"string"},{"name":"base","type":"tuple","internalType":"struct AnchorRegistry.AnchorBase","components":[{"name":"artifactType","type":"uint8","internalType":"enum AnchorRegistry.ArtifactType"},{"name":"manifestHash","type":"string","internalType":"string"},{"name":"parentHash","type":"string","internalType":"string"},{"name":"descriptor","type":"string","internalType":"string"},{"name":"title","type":"string","internalType":"string"},{"name":"author","type":"string","internalType":"string"},{"name":"treeId","type":"string","internalType":"string"}]},{"name":"targetArId","type":"string","internalType":"string"},{"name":"reason","type":"string","internalType":"string"},{"name":"replacedBy","type":"string","internalType":"string"}],"outputs":[],"stateMutability":"nonpayable"},{"type":"function","name":"registerReview","inputs":[{"name":"arId","type":"string","internalType":"string"},{"name":"base","type":"tuple","internalType":"struct AnchorRegistry.AnchorBase","components":[{"name":"artifactType","type":"uint8","internalType":"enum AnchorRegistry.ArtifactType"},{"name":"manifestHash","type":"string","internalType":"string"},{"name":"parentHash","type":"string","internalType":"string"},{"name":"descriptor","type":"string","internalType":"string"},{"name":"title","type":"string","internalType":"string"},{"name":"author","type":"string","internalType":"string"},{"name":"treeId","type":"string","internalType":"string"}]},{"name":"targetArId","type":"string","internalType":"string"},{"name":"reviewType","type":"string","internalType":"string"},{"name":"evidenceUrl","type":"string","internalType":"string"}],"outputs":[],"stateMutability":"nonpayable"},{"type":"function","name":"registerText","inputs":[{"name":"arId","type":"string","internalType":"string"},{"name":"base","type":"tuple","internalType":"struct AnchorRegistry.AnchorBase","components":[{"name":"artifactType","type":"uint8","internalType":"enum AnchorRegistry.ArtifactType"},{"name":"manifestHash","type":"string","internalType":"string"},{"name":"parentHash","type":"string","internalType":"string"},{"name":"descriptor","type":"string","internalType":"string"},{"name":"title","type":"string","internalType":"string"},{"name":"author","type":"string","internalType":"string"},{"name":"treeId","type":"string","internalType":"string"}]},{"name":"isbn","type":"string","internalType":"string"},{"name":"publisher","type":"string","internalType":"string"},{"name":"language","type":"string","internalType":"string"},{"name":"url","type":"string","internalType":"string"}],"outputs":[],"stateMutability":"nonpayable"},{"type":"function","name":"registerVoid","inputs":[{"name":"arId","type":"string","internalType":"string"},{"name":"base","type":"tuple","internalType":"struct AnchorRegistry.AnchorBase","components":[{"name":"artifactType","type":"uint8","internalType":"enum AnchorRegistry.ArtifactType"},{"name":"manifestHash","type":"string","internalType":"string"},{"name":"parentHash","type":"string","internalType":"string"},{"name":"descriptor","type":"string","internalType":"string"},{"name":"title","type":"string","internalType":"string"},{"name":"author","type":"string","internalType":"string"},{"name":"treeId","type":"string","internalType":"string"}]},{"name":"targetArId","type":"string","internalType":"string"},{"name":"reviewArId","type":"string","internalType":"string"},{"name":"findingUrl","type":"string","internalType":"string"},{"name":"evidence","type":"string","internalType":"string"}],"outputs":[],"stateMutability":"nonpayable"},{"type":"function","name":"registered","inputs":[{"name":"","type":"string","internalType":"string"}],"outputs":[{"name":"","type":"bool","internalType":"bool"}],"stateMutability":"view"},{"type":"function","name":"removeEntityOperator","inputs":[{"name":"op","type":"address","internalType":"address"}],"outputs":[],"stateMutability":"nonpayable"},{"type":"function","name":"removeLegalOperator","inputs":[{"name":"op","type":"address","internalType":"address"}],"outputs":[],"stateMutability":"nonpayable"},{"type":"function","name":"removeOperator","inputs":[{"name":"op","type":"address","internalType":"address"}],"outputs":[],"stateMutability":"nonpayable"},{"type":"function","name":"removeProofOperator","inputs":[{"name":"op","type":"address","internalType":"address"}],"outputs":[],"stateMutability":"nonpayable"},{"type":"function","name":"reportAnchors","inputs":[{"name":"","type":"string","internalType":"string"}],"outputs":[{"name":"base","type":"tuple","internalType":"struct AnchorRegistry.AnchorBase","components":[{"name":"artifactType","type":"uint8","internalType":"enum AnchorRegistry.ArtifactType"},{"name":"manifestHash","type":"string","internalType":"string"},{"name":"parentHash","type":"string","internalType":"string"},{"name":"descriptor","type":"string","internalType":"string"},{"name":"title","type":"string","internalType":"string"},{"name":"author","type":"string","internalType":"string"},{"name":"treeId","type":"string","internalType":"string"}]},{"name":"reportType","type":"string","internalType":"string"},{"name":"client","type":"string","internalType":"string"},{"name":"engagement","type":"string","internalType":"string"},{"name":"version","type":"string","internalType":"string"},{"name":"authors","type":"string","internalType":"string"},{"name":"institution","type":"string","internalType":"string"},{"name":"url","type":"string","internalType":"string"}],"stateMutability":"view"},{"type":"function","name":"researchAnchors","inputs":[{"name":"","type":"string","internalType":"string"}],"outputs":[{"name":"base","type":"tuple","internalType":"struct AnchorRegistry.AnchorBase","components":[{"name":"artifactType","type":"uint8","internalType":"enum AnchorRegistry.ArtifactType"},{"name":"manifestHash","type":"string","internalType":"string"},{"name":"parentHash","type":"string","internalType":"string"},{"name":"descriptor","type":"string","internalType":"string"},{"name":"title","type":"string","internalType":"string"},{"name":"author","type":"string","internalType":"string"},{"name":"treeId","type":"string","internalType":"string"}]},{"name":"doi","type":"string","internalType":"string"},{"name":"institution","type":"string","internalType":"string"},{"name":"coAuthors","type":"string","internalType":"string"},{"name":"url","type":"string","internalType":"string"}],"stateMutability":"view"},{"type":"function","name":"retractionAnchors","inputs":[{"name":"","type":"string","internalType":"string"}],"outputs":[{"name":"base","type":"tuple","internalType":"struct AnchorRegistry.AnchorBase","components":[{"name":"artifactType","type":"uint8","internalType":"enum AnchorRegistry.ArtifactType"},{"name":"manifestHash","type":"string","internalType":"string"},{"name":"parentHash","type":"string","internalType":"string"},{"name":"descriptor","type":"string","internalType":"string"},{"name":"title","type":"string","internalType":"string"},{"name":"author","type":"string","internalType":"string"},{"name":"treeId","type":"string","internalType":"string"}]},{"name":"targetArId","type":"string","internalType":"string"},{"name":"reason","type":"string","internalType":"string"},{"name":"replacedBy","type":"string","internalType":"string"}],"stateMutability":"view"},{"type":"function","name":"reviewAnchors","inputs":[{"name":"","type":"string","internalType":"string"}],"outputs":[{"name":"base","type":"tuple","internalType":"struct AnchorRegistry.AnchorBase","components":[{"name":"artifactType","type":"uint8","internalType":"enum AnchorRegistry.ArtifactType"},{"name":"manifestHash","type":"string","internalType":"string"},{"name":"parentHash","type":"string","internalType":"string"},{"name":"descriptor","type":"string","internalType":"string"},{"name":"title","type":"string","internalType":"string"},{"name":"author","type":"string","internalType":"string"},{"name":"treeId","type":"string","internalType":"string"}]},{"name":"targetArId","type":"string","internalType":"string"},{"name":"reviewType","type":"string","internalType":"string"},{"name":"evidenceUrl","type":"string","internalType":"string"}],"stateMutability":"view"},{"type":"function","name":"setRecoveryAddress","inputs":[{"name":"_newRecovery","type":"address","internalType":"address"}],"outputs":[],"stateMutability":"nonpayable"},{"type":"function","name":"textAnchors","inputs":[{"name":"","type":"string","internalType":"string"}],"outputs":[{"name":"base","type":"tuple","internalType":"struct AnchorRegistry.AnchorBase","components":[{"name":"artifactType","type":"uint8","internalType":"enum AnchorRegistry.ArtifactType"},{"name":"manifestHash","type":"string","internalType":"string"},{"name":"parentHash","type":"string","internalType":"string"},{"name":"descriptor","type":"string","internalType":"string"},{"name":"title","type":"string","internalType":"string"},{"name":"author","type":"string","internalType":"string"},{"name":"treeId","type":"string","internalType":"string"}]},{"name":"isbn","type":"string","internalType":"string"},{"name":"publisher","type":"string","internalType":"string"},{"name":"language","type":"string","internalType":"string"},{"name":"url","type":"string","internalType":"string"}],"stateMutability":"view"},{"type":"function","name":"transferOwnership","inputs":[{"name":"newOwner","type":"address","internalType":"address"}],"outputs":[],"stateMutability":"nonpayable"},{"type":"function","name":"voidAnchors","inputs":[{"name":"","type":"string","internalType":"string"}],"outputs":[{"name":"base","type":"tuple","internalType":"struct AnchorRegistry.AnchorBase","components":[{"name":"artifactType","type":"uint8","internalType":"enum AnchorRegistry.ArtifactType"},{"name":"manifestHash","type":"string","internalType":"string"},{"name":"parentHash","type":"string","internalType":"string"},{"name":"descriptor","type":"string","internalType":"string"},{"name":"title","type":"string","internalType":"string"},{"name":"author","type":"string","internalType":"string"},{"name":"treeId","type":"string","internalType":"string"}]},{"name":"targetArId","type":"string","internalType":"string"},{"name":"reviewArId","type":"string","internalType":"string"},{"name":"findingUrl","type":"string","internalType":"string"},{"name":"evidence","type":"string","internalType":"string"}],"stateMutability":"view"},{"type":"event","name":"Affirmed","inputs":[{"name":"arId","type":"string","indexed":true,"internalType":"string"},{"name":"targetArId","type":"string","indexed":true,"internalType":"string"},{"name":"affirmedBy","type":"string","indexed":false,"internalType":"string"}],"anonymous":false},{"type":"event","name":"Anchored","inputs":[{"name":"arId","type":"string","indexed":true,"internalType":"string"},{"name":"registrant","type":"address","indexed":true,"internalType":"address"},{"name":"artifactType","type":"uint8","indexed":false,"internalType":"enum AnchorRegistry.ArtifactType"},{"name":"descriptor","type":"string","indexed":false,"internalType":"string"},{"name":"title","type":"string","indexed":false,"internalType":"string"},{"name":"author","type":"string","indexed":false,"internalType":"string"},{"name":"manifestHash","type":"string","indexed":false,"internalType":"string"},{"name":"parentHash","type":"string","indexed":false,"internalType":"string"},{"name":"treeId","type":"string","indexed":false,"internalType":"string"}],"anonymous":false},{"type":"event","name":"EntityOperatorAdded","inputs":[{"name":"operator","type":"address","indexed":true,"internalType":"address"}],"anonymous":false},{"type":"event","name":"EntityOperatorRemoved","inputs":[{"name":"operator","type":"address","indexed":true,"internalType":"address"}],"anonymous":false},{"type":"event","name":"LegalOperatorAdded","inputs":[{"name":"operator","type":"address","indexed":true,"internalType":"address"}],"anonymous":false},{"type":"event","name":"LegalOperatorRemoved","inputs":[{"name":"operator","type":"address","indexed":true,"internalType":"address"}],"anonymous":false},{"type":"event","name":"OperatorAdded","inputs":[{"name":"operator","type":"address","indexed":true,"internalType":"address"}],"anonymous":false},{"type":"event","name":"OperatorRemoved","inputs":[{"name":"operator","type":"address","indexed":true,"internalType":"address"}],"anonymous":false},{"type":"event","name":"OwnershipTransferred","inputs":[{"name":"previousOwner","type":"address","indexed":true,"internalType":"address"},{"name":"newOwner","type":"address","indexed":true,"internalType":"address"}],"anonymous":false},{"type":"event","name":"ProofOperatorAdded","inputs":[{"name":"operator","type":"address","indexed":true,"internalType":"address"}],"anonymous":false},{"type":"event","name":"ProofOperatorRemoved","inputs":[{"name":"operator","type":"address","indexed":true,"internalType":"address"}],"anonymous":false},{"type":"event","name":"RecoveryAddressUpdated","inputs":[{"name":"newRecoveryAddress","type":"address","indexed":true,"internalType":"address"}],"anonymous":false},{"type":"event","name":"RecoveryCancelled","inputs":[],"anonymous":false},{"type":"event","name":"RecoveryExecuted","inputs":[{"name":"newOwner","type":"address","indexed":true,"internalType":"address"}],"anonymous":false},{"type":"event","name":"RecoveryInitiated","inputs":[{"name":"recoveryAddress","type":"address","indexed":true,"internalType":"address"},{"name":"pendingOwner","type":"address","indexed":true,"internalType":"address"}],"anonymous":false},{"type":"event","name":"Retracted","inputs":[{"name":"arId","type":"string","indexed":true,"internalType":"string"},{"name":"targetArId","type":"string","indexed":true,"internalType":"string"},{"name":"replacedBy","type":"string","indexed":false,"internalType":"string"}],"anonymous":false},{"type":"event","name":"Reviewed","inputs":[{"name":"arId","type":"string","indexed":true,"internalType":"string"},{"name":"targetArId","type":"string","indexed":true,"internalType":"string"},{"name":"reviewType","type":"string","indexed":false,"internalType":"string"},{"name":"evidenceUrl","type":"string","indexed":false,"internalType":"string"}],"anonymous":false},{"type":"event","name":"Voided","inputs":[{"name":"arId","type":"string","indexed":true,"internalType":"string"},{"name":"targetArId","type":"string","indexed":true,"internalType":"string"},{"name":"reviewArId","type":"string","indexed":true,"internalType":"string"},{"name":"evidence","type":"string","indexed":false,"internalType":"string"}],"anonymous":false},{"type":"error","name":"AlreadyRegistered","inputs":[{"name":"arId","type":"string","internalType":"string"}]},{"type":"error","name":"EmptyArId","inputs":[]},{"type":"error","name":"EmptyManifestHash","inputs":[]},{"type":"error","name":"EmptyTargetArId","inputs":[]},{"type":"error","name":"InvalidParent","inputs":[{"name":"parentHash","type":"string","internalType":"string"}]},{"type":"error","name":"InvalidTarget","inputs":[{"name":"targetArId","type":"string","internalType":"string"}]},{"type":"error","name":"NotEntityOperator","inputs":[]},{"type":"error","name":"NotLegalOperator","inputs":[]},{"type":"error","name":"NotOperator","inputs":[]},{"type":"error","name":"NotOwner","inputs":[]},{"type":"error","name":"NotProofOperator","inputs":[]},{"type":"error","name":"NotRecoveryAddress","inputs":[]},{"type":"error","name":"RecoveryDelayNotMet","inputs":[]},{"type":"error","name":"RecoveryLockedOut","inputs":[]},{"type":"error","name":"RecoveryNotInitiated","inputs":[]},{"type":"error","name":"ZeroAddress","inputs":[]}],"bytecode":{"object":"0x608034620000bd57601f620080d238819003918201601f19168301916001600160401b03831184841017620000c157808492602094604052833981010312620000bd57516001600160a01b03811690819003620000bd578015620000ab5760018060a01b031933815f5416175f556001541617600155604051335f7f8be0079c531659141344cd1fd0a4f28419497f9722a3daafe3b4186f6b6457e08180a3617ffc9081620000d68239f35b60405163d92e233d60e01b8152600490fd5b5f80fd5b634e487b7160e01b5f52604160045260245ffdfe6102c0806040526004361015610013575f80fd5b5f3560e01c90816304fabff9146137a7575080630ba234d61461373b578063132171b0146135bb57806313e7c9d81461357a578063144888ff14613532578063165d33fe146134ea57806316aca546146134a25780631cb655e71461345a5780631dcc43651461341257806320727381146133f557806320c5a3e11461331e578063397c9a3a146132ab578063402cef1b1461326a57806345f65cfa146131f757806346de8daa1461312057806347b4565214612ecf57806347be22fa1461310357806347deec0d146130bb57806349efe5ae1461304d578063517f4dcf1461300557806353ddf3e214612ed4578063561ea99c14612ecf578063573701f714612e875780635bd47e1014612e3f5780635d064b3a14612df75780635d2d5c3714612da957806361ee8fea14612ce757806362c772cc14612c2557806364bea33414612bae5780636ae0dd9c14612b6d5780636b6797c914612afa5780636ba60e7114612a90578063710eb26c14612a68578063717d1a8514612a20578063762d408d146129d85780637d15e15d146129625780638a0d436f1461291a5780638da5cb5b146128f35780638e9d6ab71461287c57806396ad272d146128345780639786e9a3146127605780639870d7fe146126ed5780639b1595d0146126405780639bcc0074146125f85780639e565f4d14612536578063a00c78ab146124bf578063a0d1c38414612448578063ac8a584a146123de578063af7f08e5146122ad578063b643fcb314612243578063b6e3a9dc146121e3578063b91ef084146121a2578063bcb145f8146120e0578063bdd5a58214612031578063c47e3d4714611ef5578063d58b91e014611e03578063d5ce9aad14611d62578063ddf841a914611cf8578063e0ac87b914611c6e578063e22aebdf14611bf7578063e30c397814611bcf578063e600a0a014611b2c578063ecc8d0fc14611a7f578063f2fde38b14611a00578063f5de2afb146118cf578063fb07c543146117be578063fe264355146103db5763fe746eb214610309575f80fd5b346103d757610317366140c9565b919996959092989798335f52600260205260ff60405f205416156103c5576103c39a61038761036b9761039f9761037b6103be9b8f978f8f9961036181610372936103939d617d02565b6040519e8f613a0b565b3690614287565b8d523691613a49565b60208b01523691613a49565b60408801523691613a49565b60608501523691613a49565b6080820152604051848482376020818681016010815203019020617277565b617e62565b005b604051631f0853c160e21b8152600490fd5b5f80fd5b346103d757600319610160368201126103d7576004356001600160401b0381116103d75761040d9036906004016138d8565b61016052610180526024356101408190526001600160401b03106103d75760e09061014051360301126103d7576044356001600160401b0381116103d7576104599036906004016138d8565b906064356001600160401b0381116103d7576104799036906004016138d8565b6084356001600160401b0381116103d7576104989036906004016138d8565b610120919091529160a4356001600160401b0381116103d7576104bf9036906004016138d8565b60e091909152936001600160401b0360c435116103d7576104e53660c4356004016138d8565b9260e4356001600160401b0381116103d7576105059036906004016138d8565b90929091906001600160401b0361010435116103d75761052b36610104356004016138d8565b9097909690610124356001600160401b0381116103d7576105509036906004016138d8565b6080919091529a610144356001600160401b0381116103d7576105779036906004016138d8565b6101005260c052335f52600560205260ff60405f205416156117ac576105aa610140516004016101605161018051617d02565b60405160a08190526001600160401b036101408201908111911117610d0c5761062c6106669b61061a6106779f9761063d9561060c6106589d61064b9b61014060a051016040526106013661014051600401614287565b60a051523691613a49565b602060a05101523691613a49565b604060a0510152369061012051613a49565b606060a0510152369060e051613a49565b608060a05101523691613a49565b60a0805101523691613a49565b60c060a05101523691613a49565b60e060a05101523690608051613a49565b61010060a051015261068f366101005160c051613a49565b61012060a051015260405161016051610180518237602081610160518101601881520301902060a05151805160158110156117985760ff80198454169116178255602081015191825160018060401b038111610d0c576106f26001830154613acd565b601f8111611754575b506020601f82116001146116ea57819293945f926116df575b50508160011b915f199060031b1c19161760018201555b604082015180519092906001600160401b038111610d0c576107506002840154613acd565b601f811161169b575b506020601f821160011461163157819293945f92611626575b50508160011b915f199060031b1c19161760028301555b606081015180519092906001600160401b038111610d0c576107ae6003830154613acd565b601f81116115e2575b506020601f821160011461157857819293945f9261156d575b50508160011b915f199060031b1c19161760038201555b608082015180519092906001600160401b038111610d0c5761080c6004840154613acd565b601f8111611529575b506020601f82116001146114bf57819293945f926114b4575b50508160011b915f199060031b1c19161760048301555b60a08101518051906001600160401b038211610d0c576108686005850154613acd565b601f8111611470575b50602090601f83116001146114015760c09392915f91836113f6575b50508160011b915f199060031b1c19161760058401555b01518051906001600160401b038211610d0c5781906108c66006850154613acd565b601f81116113a6575b50602090601f8311600114611338575f9261132d575b50508160011b915f199060031b1c19161760068201555b60a051602001518051906001600160401b038211610d0c5781906109236007850154613acd565b601f81116112dd575b50602090601f831160011461126f575f92611264575b50508160011b915f199060031b1c19161760078201555b60a051604001518051906001600160401b038211610d0c5781906109806008850154613acd565b601f8111611214575b50602090601f83116001146111a6575f9261119b575b50508160011b915f199060031b1c19161760088201555b60a051606001518051906001600160401b038211610d0c5781906109dd6009850154613acd565b601f811161114b575b50602090601f83116001146110dd575f926110d2575b50508160011b915f199060031b1c19161760098201555b60a051608001518051906001600160401b038211610d0c578190610a3a600a850154613acd565b601f811161107f575b50602090601f8311600114611011575f92611006575b50508160011b915f199060031b1c191617600a8201555b60a0805101518051906001600160401b038211610d0c578190610a96600b850154613acd565b601f8111610fb3575b50602090601f8311600114610f45575f92610f3a575b50508160011b915f199060031b1c191617600b8201555b60a05160c001518051909190600c8201906001600160401b038111610d0c57610af58254613acd565b601f8111610ef5575b506020601f8211600114610e9357819293945f92610e88575b50508160011b915f199060031b1c19161790555b60a05160e001518051909190600d8201906001600160401b038111610d0c57610b548254613acd565b601f8111610e43575b506020601f8211600114610de157819293945f92610dd6575b50508160011b915f199060031b1c19161790555b60a051610100015180519190600e8201906001600160401b038411610d0c57610bb38254613acd565b601f8111610d91575b50602090601f8511600114610d2b57600f94915f9183610d20575b50508160011b915f199060031b1c19161790555b0161012060a051015190815160018060401b038111610d0c57610c0e8254613acd565b601f8111610cc7575b50602092601f8211600114610c6757928192935f92610c5c575b50508160011b915f199060031b1c19161790555b6103c3610140516004016101605161018051617e62565b015190508380610c31565b601f19821693835f5260205f20915f5b868110610caf5750836001959610610c97575b505050811b019055610c45565b01515f1960f88460031b161c19169055838080610c8a565b91926020600181928685015181550194019201610c77565b825f5260205f20601f830160051c81019160208410610d02575b601f0160051c01905b818110610cf75750610c17565b5f8155600101610cea565b9091508190610ce1565b634e487b7160e01b5f52604160045260245ffd5b015190508580610bd7565b90601f19851691835f5260205f20925f5b818110610d795750916001939187600f989410610d61575b505050811b019055610beb565b01515f1960f88460031b161c19169055858080610d54565b92936020600181928786015181550195019301610d3c565b825f5260205f20601f860160051c81019160208710610dcc575b601f0160051c01905b818110610dc15750610bbc565b5f8155600101610db4565b9091508190610dab565b015190508480610b76565b601f19821690835f5260205f20915f5b818110610e2b57509583600195969710610e13575b505050811b019055610b8a565b01515f1960f88460031b161c19169055848080610e06565b9192602060018192868b015181550194019201610df1565b825f5260205f20601f830160051c81019160208410610e7e575b601f0160051c01905b818110610e735750610b5d565b5f8155600101610e66565b9091508190610e5d565b015190508480610b17565b601f19821690835f5260205f20915f5b818110610edd57509583600195969710610ec5575b505050811b019055610b2b565b01515f1960f88460031b161c19169055848080610eb8565b9192602060018192868b015181550194019201610ea3565b825f5260205f20601f830160051c81019160208410610f30575b601f0160051c01905b818110610f255750610afe565b5f8155600101610f18565b9091508190610f0f565b015190508380610ab5565b9250600b84015f5260205f20905f935b601f1984168510610f98576001945083601f19811610610f80575b505050811b01600b820155610acc565b01515f1960f88460031b161c19169055838080610f70565b81810151835560209485019460019093019290910190610f55565b909150600b84015f5260205f20601f840160051c81019160208510610ffc575b90601f859493920160051c01905b818110610fee5750610a9f565b5f8155849350600101610fe1565b9091508190610fd3565b015190508380610a59565b9250600a84015f5260205f20905f935b601f1984168510611064576001945083601f1981161061104c575b505050811b01600a820155610a70565b01515f1960f88460031b161c1916905583808061103c565b81810151835560209485019460019093019290910190611021565b909150600a84015f5260205f20601f840160051c810191602085106110c8575b90601f859493920160051c01905b8181106110ba5750610a43565b5f81558493506001016110ad565b909150819061109f565b0151905083806109fc565b9250600984015f5260205f20905f935b601f1984168510611130576001945083601f19811610611118575b505050811b016009820155610a13565b01515f1960f88460031b161c19169055838080611108565b818101518355602094850194600190930192909101906110ed565b909150600984015f5260205f20601f840160051c810160208510611194575b90849392915b601f830160051c820181106111865750506109e6565b5f8155859450600101611170565b508061116a565b01519050838061099f565b9250600884015f5260205f20905f935b601f19841685106111f9576001945083601f198116106111e1575b505050811b0160088201556109b6565b01515f1960f88460031b161c191690558380806111d1565b818101518355602094850194600190930192909101906111b6565b909150600884015f5260205f20601f840160051c81016020851061125d575b90849392915b601f830160051c8201811061124f575050610989565b5f8155859450600101611239565b5080611233565b015190508380610942565b9250600784015f5260205f20905f935b601f19841685106112c2576001945083601f198116106112aa575b505050811b016007820155610959565b01515f1960f88460031b161c1916905583808061129a565b8181015183556020948501946001909301929091019061127f565b909150600784015f5260205f20601f840160051c810160208510611326575b90849392915b601f830160051c8201811061131857505061092c565b5f8155859450600101611302565b50806112fc565b0151905083806108e5565b9250600684015f5260205f20905f935b601f198416851061138b576001945083601f19811610611373575b505050811b0160068201556108fc565b01515f1960f88460031b161c19169055838080611363565b81810151835560209485019460019093019290910190611348565b909150600684015f5260205f20601f840160051c8101602085106113ef575b90849392915b601f830160051c820181106113e15750506108cf565b5f81558594506001016113cb565b50806113c5565b01519050858061088d565b90600585015f5260205f20915f5b601f1985168110611458575091839160019360c09695601f19811610611440575b505050811b0160058401556108a4565b01515f1960f88460031b161c19169055858080611430565b9192602060018192868501518155019401920161140f565b600585015f5260205f20601f840160051c8101602085106114ad575b601f830160051c820181106114a2575050610871565b5f815560010161148c565b508061148c565b01519050848061082e565b600484015f5260205f20905f5b601f19841681106115115750600193949583601f198116106114f9575b505050811b016004830155610845565b01515f1960f88460031b161c191690558480806114e9565b9091602060018192858a0151815501930191016114cc565b600484015f5260205f20601f830160051c810160208410611566575b601f830160051c8201811061155b575050610815565b5f8155600101611545565b5080611545565b0151905084806107d0565b600383015f5260205f20905f5b601f19841681106115ca5750600193949583601f198116106115b2575b505050811b0160038201556107e7565b01515f1960f88460031b161c191690558480806115a2565b9091602060018192858a015181550193019101611585565b600383015f5260205f20601f830160051c81016020841061161f575b601f830160051c820181106116145750506107b7565b5f81556001016115fe565b50806115fe565b015190508480610772565b600284015f5260205f20905f5b601f19841681106116835750600193949583601f1981161061166b575b505050811b016002830155610789565b01515f1960f88460031b161c1916905584808061165b565b9091602060018192858a01518155019301910161163e565b600284015f5260205f20601f830160051c8101602084106116d8575b601f830160051c820181106116cd575050610759565b5f81556001016116b7565b50806116b7565b015190508480610714565b600183015f5260205f20905f5b601f198416811061173c5750600193949583601f19811610611724575b505050811b01600182015561072b565b01515f1960f88460031b161c19169055848080611714565b9091602060018192858a0151815501930191016116f7565b600183015f5260205f20601f830160051c810160208410611791575b601f830160051c820181106117865750506106fb565b5f8155600101611770565b5080611770565b634e487b7160e01b5f52602160045260245ffd5b60405163b601a68d60e01b8152600490fd5b346103d7576117cc36613905565b97919094969295335f52600260205260ff60405f205416156103c55761188861188f926118597faf0c98c5c4879ef897a044cdac758c7bd233c9d4ac8cdbb360f44280e7b0047d9961181f858989617d02565b611829898d617e03565b604051926118368461399e565b6118403687614287565b845261184d368b8f613a49565b60208501523691613a49565b6040820152611869368c8a613a49565b6060820152604051868682376020818881016019815203019020614362565b8383617e62565b81604051928392833781015f81520390209381604051928392833781015f8152039020936118ca604051928392602084526020840191614d10565b0390a3005b346103d7576118dd36613f01565b929b9499969798959a939c9f919e909d6101c0526101a0526101e0529a9b98999697949592939091335f52600260205260ff60405f205416156103c5576101c0516101a051906101e0519161193192617d02565b6040519d8e91611940836139d4565b366101c0519061194f91614287565b8352369061195c92613a49565b9060200152369061196c92613a49565b60408c0152369061197c92613a49565b60608a0152369061198c92613a49565b6080880152369061199c92613a49565b60a086015236906119ac92613a49565b60c084015236906119bc92613a49565b60e08201526040516101a0516101e0518237806101a051810160128152036020019020906119e99161599d565b6101c0516101a051906101e051916103c392617e62565b346103d75760203660031901126103d7576004356001600160a01b03818116918290036103d7575f54908116803303611a6d578215611a5b5782905f80516020617fa78339815191525f80a36001600160a01b031916175f55005b60405163d92e233d60e01b8152600490fd5b6040516330cd747160e01b8152600490fd5b346103d75760203660031901126103d7576004356001600160401b0381116103d7576020611ab4611ac7923690600401613a8e565b8160405193828580945193849201613aac565b81016016815203019020611ada81613ba7565b611b28611ae960078401613b05565b92611af660088201613b05565b90611b0360098201613b05565b611b1b600b611b14600a8501613b05565b9301613b05565b9260405196879687613d4c565b0390f35b346103d75760203660031901126103d7576004356001600160401b0381116103d7576020611ab4611b61923690600401613a8e565b81016017815203019020611b7481613ba7565b611b28611b8360078401613b05565b92611b9060088201613b05565b90611b9d60098201613b05565b611ba9600a8301613b05565b90611bc2600c611bbb600b8601613b05565b9401613b05565b9360405197889788614177565b346103d7575f3660031901126103d7576008546040516001600160a01b039091168152602090f35b346103d757611c05366140c9565b919996959092989798335f52600260205260ff60405f205416156103c5576103c39a61038761036b97611c4f9761037b6103be9b8f978f8f9961036181610372936103939d617d02565b608082015260405184848237602081868101601d815203019020617277565b346103d75760203660031901126103d7576004356001600160401b0381116103d7576020611ab4611ca3923690600401613a8e565b8101601b815203019020611cb681613ba7565b611b28611cc560078401613b05565b92611cd260088201613b05565b90611ceb600a611ce460098401613b05565b9201613b05565b9160405195869586613cf1565b346103d75760203660031901126103d7576004356001600160a01b03818116918290036103d7575f54163303611a6d57805f52600460205260405f2060ff1981541690557fb3995d3ad0a4cb17193137b6b470c2eda6bbf6d63f3d135f197fc4cdeedc27905f80a2005b346103d75760203660031901126103d7576004356001600160a01b03818116918290036103d75760015416803303611df1578115611a5b576007544210611ddf57600880546001600160a01b03191683179055426006557fe7eb1bf44bc7e6084d5d89f19e76a2b46fed60ff3eb9e650f3db79a386391c615f80a3005b6040516333ca6ceb60e21b8152600490fd5b6040516320a6214d60e21b8152600490fd5b346103d757611e1136613db9565b989196939495929790999a9c9b9c335f52600460205260ff60405f20541615611ee3578d9b8f8d8f611e4292617d02565b6040519c611e4f8e6139b9565b36611e5991614287565b8d523690611e6692613a49565b60208c01523690611e7692613a49565b60408a01523690611e8692613a49565b60608801523690611e9692613a49565b60808601523690611ea692613a49565b60a08401523690611eb692613a49565b60c082015260405182858237808381016017815203602001902090611eda91614d30565b6103c392617e62565b60405163ebee8ba760e01b8152600490fd5b346103d757611f03366140c9565b9991969798929095939498335f52600260205260ff60405f205416156103c55761188889611fb0611fdf947f07c9fc4ac9266376cb17afdcee0f23f0f5abaf32dab736c7d891c595d39725bd9b611fa48f611f5f888c8c617d02565b611f698c87617e03565b611f738d82617e03565b611f9760405196611f8388613a0b565b611f8d368b614287565b88528d3691613a49565b60208701528c3691613a49565b60408501523691613a49565b6060820152611fc0368e8b613a49565b608082015260405186868237602081888101601b815203019020617277565b81604051928392833781015f81520390209481604051928392833781015f81520390209481604051928392833781015f81520390209461202c604051928392602084526020840191614d10565b0390a4005b346103d75760203660031901126103d7576004356001600160401b0381116103d7576020611ab4612066923690600401613a8e565b8101601581520301902061207981613ba7565b611b2861208860078401613b05565b9261209560088201613b05565b906120a260098201613b05565b6120ae600a8301613b05565b6120ba600b8401613b05565b916120d3600d6120cc600c8701613b05565b9501613b05565b94604051988998896141f5565b346103d7576120ee36614000565b9691949392959097989a999a335f52600260205260ff60405f205416156103c55761211a8c8c8f617d02565b604051996121278b6139f0565b612131368e614287565b8b52369061213e92613a49565b60208a0152369061214e92613a49565b6040880152369061215e92613a49565b6060860152369061216e92613a49565b6080840152369061217e92613a49565b60a08201526040518285823780838101600c815203602001902090611eda91616714565b346103d75760203660031901126103d7576004356001600160a01b038116908190036103d7575f526003602052602060ff60405f2054166040519015158152f35b346103d7575f3660031901126103d75760408051908101906001600160401b03821181831017610d0c57611b2891604052600e81526d61722d6f70657261746f722d763160901b6020820152604051918291602083526020830190613c3d565b346103d75760203660031901126103d7576004356001600160a01b03818116918290036103d7575f54163303611a6d57805f52600560205260405f2060ff1981541690557fc28840c72026297551adaf2f67ff2d6aca1b2c4ed12cf5023d94ba7076e75a095f80a2005b346103d7576122bb36613f01565b929b9499969798959a939c9f919e909d6102205261020052610240529a9b98999697949592939091335f52600260205260ff60405f205416156103c557610220516102005190610240519161230f92617d02565b6040519d8e9161231e836139d4565b36610220519061232d91614287565b8352369061233a92613a49565b9060200152369061234a92613a49565b60408c0152369061235a92613a49565b60608a0152369061236a92613a49565b6080880152369061237a92613a49565b60a0860152369061238a92613a49565b60c0840152369061239a92613a49565b60e0820152604051610200516102405182378061020051810160158152036020019020906123c79161599d565b61022051610200519061024051916103c392617e62565b346103d75760203660031901126103d7576004356001600160a01b03818116918290036103d7575f54163303611a6d57805f52600260205260405f2060ff1981541690557f80c0b871b97b595b16a7741c1b06fed0c6f6f558639f18ccbce50724325dc40d5f80a2005b346103d757612456366140c9565b919996959092989798335f52600260205260ff60405f205416156103c5576103c39a61038761036b976124a09761037b6103be9b8f978f8f9961036181610372936103939d617d02565b6080820152604051848482376020818681016013815203019020617277565b346103d7576124cd366140c9565b919996959092989798335f52600260205260ff60405f205416156103c5576103c39a61038761036b976125179761037b6103be9b8f978f8f9961036181610372936103939d617d02565b608082015260405184848237602081868101600d815203019020617277565b346103d75761254436614000565b9691949392959097989a999a335f52600260205260ff60405f205416156103c5576125708c8c8f617d02565b6040519961257d8b6139f0565b612587368e614287565b8b52369061259492613a49565b60208a015236906125a492613a49565b604088015236906125b492613a49565b606086015236906125c492613a49565b608084015236906125d492613a49565b60a08201526040518285823780838101600e815203602001902090611eda91616714565b346103d75760203660031901126103d7576004356001600160401b0381116103d7576020611ab461262d923690600401613a8e565b8101601281520301902061207981613ba7565b346103d75761264e36613905565b9597919796929496335f52600260205260ff60405f205416156103c557611888886126ce61188f947fa62ae18c8132954544e02a502215888bdc7d7df53e52873d79a81f91544f2dba9a611fa48e6126a7888c8c617d02565b6126b18c87617e03565b6126c160405196611f838861399e565b602087015236908d613a49565b606082015260405186868237602081888101601c815203019020614362565b346103d75760203660031901126103d7576004356001600160a01b03818116918290036103d7575f54163303611a6d578015611a5b57805f52600260205260405f20600160ff198254161790557fac6fa858e9350a46cec16539926e0fde25b7629f84b5a72bffaae4df888ae86d5f80a2005b346103d75761276e36614000565b9691949392959097989a999a335f52600360205260ff60405f205416156128225761279a8c8c8f617d02565b604051996127a78b6139f0565b6127b1368e614287565b8b5236906127be92613a49565b60208a015236906127ce92613a49565b604088015236906127de92613a49565b606086015236906127ee92613a49565b608084015236906127fe92613a49565b60a082015260405182858237808381016016815203602001902090611eda91616714565b604051633b4d583360e21b8152600490fd5b346103d75760203660031901126103d7576004356001600160401b0381116103d7576020611ab4612869923690600401613a8e565b8101601181520301902061207981613ba7565b346103d75761288a366140c9565b919996959092989798335f52600260205260ff60405f205416156103c5576103c39a61038761036b976128d49761037b6103be9b8f978f8f9961036181610372936103939d617d02565b608082015260405184848237602081868101600a815203019020617277565b346103d7575f3660031901126103d7575f546040516001600160a01b039091168152602090f35b346103d75760203660031901126103d7576004356001600160401b0381116103d7576020611ab461294f923690600401613a8e565b81016014815203019020611b7481613ba7565b346103d75760203660031901126103d7576004356001600160401b0381116103d7576020611ab4612997923690600401613a8e565b810160198152030190206129aa81613ba7565b611b286129b960078401613b05565b926129cb6009611ce460088401613b05565b9060405194859485613eb9565b346103d75760203660031901126103d7576004356001600160401b0381116103d7576020611ab4612a0d923690600401613a8e565b8101600e815203019020611ada81613ba7565b346103d75760203660031901126103d7576004356001600160401b0381116103d7576020611ab4612a55923690600401613a8e565b8101600b815203019020611ada81613ba7565b346103d7575f3660031901126103d7576001546040516001600160a01b039091168152602090f35b346103d75760203660031901126103d7576004356001600160a01b03818116918290036103d7575f54163303611a6d57805f52600360205260405f2060ff1981541690557f6b66d1bba82a11aca959b4321a690cd67c826fb136617127d12973beb6957b335f80a2005b346103d75760203660031901126103d7576004356001600160a01b03818116918290036103d7575f54163303611a6d578015611a5b57805f52600560205260405f20600160ff198254161790557f5bfe4ffbe756ad2df32059678eca22cadff8ecb3440f958eae6ff7b2d436e1ba5f80a2005b346103d75760203660031901126103d7576004356001600160a01b038116908190036103d7575f526004602052602060ff60405f2054166040519015158152f35b346103d757612bbc366140c9565b919996959092989798335f52600260205260ff60405f205416156103c5576103c39a61038761036b97612c069761037b6103be9b8f978f8f9961036181610372936103939d617d02565b608082015260405184848237602081868101600f815203019020617277565b346103d757612c3336614000565b9691949392959097989a999a335f52600260205260ff60405f205416156103c557612c5f8c8c8f617d02565b60405199612c6c8b6139f0565b612c76368e614287565b8b523690612c8392613a49565b60208a01523690612c9392613a49565b60408801523690612ca392613a49565b60608601523690612cb392613a49565b60808401523690612cc392613a49565b60a08201526040518285823780838101600b815203602001902090611eda91616714565b346103d757612cf536614000565b9691949392959097989a999a335f52600260205260ff60405f205416156103c557612d218c8c8f617d02565b60405199612d2e8b6139f0565b612d38368e614287565b8b523690612d4592613a49565b60208a01523690612d5592613a49565b60408801523690612d6592613a49565b60608601523690612d7592613a49565b60808401523690612d8592613a49565b60a082015260405182858237808381016009815203602001902090611eda91616714565b346103d75760203660031901126103d7576004356001600160401b0381116103d75760ff612de16020611ab481943690600401613a8e565b8101601e81520301902054166040519015158152f35b346103d75760203660031901126103d7576004356001600160401b0381116103d7576020611ab4612e2c923690600401613a8e565b8101601a8152030190206129aa81613ba7565b346103d75760203660031901126103d7576004356001600160401b0381116103d7576020611ab4612e74923690600401613a8e565b8101601d815203019020611cb681613ba7565b346103d75760203660031901126103d7576004356001600160401b0381116103d7576020611ab4612ebc923690600401613a8e565b81016009815203019020611ada81613ba7565b613e9c565b346103d757612ee236613f01565b929b9499969798959a939c9f919e909d61028052610260526102a0529a9b98999697949592939091335f52600260205260ff60405f205416156103c5576102805161026051906102a05191612f3692617d02565b6040519d8e91612f45836139d4565b366102805190612f5491614287565b83523690612f6192613a49565b90602001523690612f7192613a49565b60408c01523690612f8192613a49565b60608a01523690612f9192613a49565b60808801523690612fa192613a49565b60a08601523690612fb192613a49565b60c08401523690612fc192613a49565b60e0820152604051610260516102a0518237806102605181016011815203602001902090612fee9161599d565b6102805161026051906102a051916103c392617e62565b346103d75760203660031901126103d7576004356001600160401b0381116103d7576020611ab461303a923690600401613a8e565b8101600f815203019020611cb681613ba7565b346103d75760203660031901126103d7576004356001600160a01b03818116918290036103d7576001549081163303611df1578115611a5b576001600160a01b03191681176001557f83c14e1947c5a639434d6195a6e9d85ab3471a5049c66e0aa46b71e2c0a06dde5f80a2005b346103d75760203660031901126103d7576004356001600160401b0381116103d7576020611ab46130f0923690600401613a8e565b8101601c8152030190206129aa81613ba7565b346103d7575f3660031901126103d7576020600754604051908152f35b346103d75761312e36613db9565b989196939495929790999a9c9b9c335f52600260205260ff60405f205416156103c5578d9b8f8d8f61315f92617d02565b6040519c61316c8e6139b9565b3661317691614287565b8d52369061318392613a49565b60208c0152369061319392613a49565b60408a015236906131a392613a49565b606088015236906131b392613a49565b608086015236906131c392613a49565b60a084015236906131d392613a49565b60c082015260405182858237808381016014815203602001902090611eda91614d30565b346103d75760203660031901126103d7576004356001600160a01b03818116918290036103d7575f54163303611a6d578015611a5b57805f52600360205260405f20600160ff198254161790557f6d52a43c5decf356b1093e9f3b6beb1eb8f9f3f333a8f13171e1d89c143c45755f80a2005b346103d75760203660031901126103d7576004356001600160a01b038116908190036103d7575f526005602052602060ff60405f2054166040519015158152f35b346103d75760203660031901126103d7576004356001600160a01b03818116918290036103d7575f54163303611a6d578015611a5b57805f52600460205260405f20600160ff198254161790557f65e52bd3fb1902d00941506c0a765dfad293c8c4d5851c7a4dc55ad5d60ff5e35f80a2005b346103d7575f3660031901126103d7576001546001600160a01b039081163303611df15760065480156133e35762093a8081018091116133cf5742106133bd575f54600854828116809383165f80516020617fa78339815191525f80a36001600160a01b031991821683175f908155911660085560068190557ffcd2de31341801b7fd80895c780aae50c1505fd674ff1b9b9764c56c633434d69080a2005b604051634b362d4f60e01b8152600490fd5b634e487b7160e01b5f52601160045260245ffd5b60405163078591a760e11b8152600490fd5b346103d7575f3660031901126103d7576020600654604051908152f35b346103d75760203660031901126103d7576004356001600160401b0381116103d7576020611ab4613447923690600401613a8e565b81016013815203019020611cb681613ba7565b346103d75760203660031901126103d7576004356001600160401b0381116103d7576020611ab461348f923690600401613a8e565b81016010815203019020611cb681613ba7565b346103d75760203660031901126103d7576004356001600160401b0381116103d7576020611ab46134d7923690600401613a8e565b8101600c815203019020611ada81613ba7565b346103d75760203660031901126103d7576004356001600160401b0381116103d7576020611ab461351f923690600401613a8e565b8101600a815203019020611cb681613ba7565b346103d75760203660031901126103d7576004356001600160401b0381116103d7576020611ab4613567923690600401613a8e565b8101600d815203019020611cb681613ba7565b346103d75760203660031901126103d7576004356001600160a01b038116908190036103d7575f526002602052602060ff60405f2054166040519015158152f35b346103d75760203660031901126103d7576004356001600160401b0381116103d7576135eb903690600401613a8e565b604051818180935160208193019161360292613aac565b81016018815203602001902061361781613ba7565b61362360078301613b05565b9161363060088201613b05565b9061363d60098201613b05565b613649600a8301613b05565b613655600b8401613b05565b613661600c8501613b05565b9161366e600d8601613b05565b9361367b600e8701613b05565b95600f0161368890613b05565b96604051998a99610140808c528b016136a091613c62565b8a810360208c01526136b191613c3d565b89810360408b01526136c291613c3d565b88810360608a01526136d391613c3d565b87810360808901526136e491613c3d565b86810360a08801526136f591613c3d565b85810360c087015261370691613c3d565b84810360e086015261371791613c3d565b83810361010085015261372991613c3d565b828103610120840152611b2891613c3d565b346103d7575f3660031901126103d7575f546001600160a01b03163303611a6d57600880546001600160a01b03191690555f6006554262093a8081019081106133cf576007557fedd770ee01b7c0ef4f503125eafdc2725536cbf32342dffcaa300d95a7cafce35f80a1005b346103d7576137b536613905565b98979195909497969296335f52600260205260ff60405f205416156138c957509181613880846118888b6138618e6138167f4c008f49c3178c1ce0fb3c86aed7d2e80aca376ed1476947ca5a220f45e9a5089e9d9c9a896118ca9d9b617d02565b6138208984617e03565b613844604051936138308561399e565b61383a3688614287565b85528a3691613a49565b6020840152613854368d8f613a49565b604084015236908a613a49565b606082015260405186868237602081888101601a815203019020614362565b81604051928392833781015f81520390209681604051928392833781015f8152039020966138bb604051958695604087526040870191614d10565b918483036020860152614d10565b631f0853c160e21b8152600490fd5b9181601f840112156103d7578235916001600160401b0383116103d757602083818601950101116103d757565b906003199060a0828401126103d7576001600160401b0390600480358381116103d757856139349183016138d8565b95909594602435908582116103d75760e09082840301126103d7578201936044358181116103d757826139689185016138d8565b949094936064358381116103d757846139829183016138d8565b949094936084359081116103d75761399a92016138d8565b9091565b608081019081106001600160401b03821117610d0c57604052565b60e081019081106001600160401b03821117610d0c57604052565b61010081019081106001600160401b03821117610d0c57604052565b60c081019081106001600160401b03821117610d0c57604052565b60a081019081106001600160401b03821117610d0c57604052565b601f909101601f19168101906001600160401b03821190821017610d0c57604052565b9192916001600160401b038211610d0c5760405191613a72601f8201601f191660200184613a26565b8294818452818301116103d7578281602093845f960137010152565b9080601f830112156103d757816020613aa993359101613a49565b90565b5f5b838110613abd5750505f910152565b8181015183820152602001613aae565b90600182811c92168015613afb575b6020831014613ae757565b634e487b7160e01b5f52602260045260245ffd5b91607f1691613adc565b9060405191825f8254613b1781613acd565b908184526020946001916001811690815f14613b855750600114613b47575b505050613b4592500383613a26565b565b5f90815285812095935091905b818310613b6d575050613b4593508201015f8080613b36565b85548884018501529485019487945091830191613b54565b92505050613b4594925060ff191682840152151560051b8201015f8080613b36565b90604051613bb4816139b9565b809260ff815416906015821015611798576006613c2b9160c0938552613bdc60018201613b05565b6020860152613bed60028201613b05565b6040860152613bfe60038201613b05565b6060860152613c0f60048201613b05565b6080860152613c2060058201613b05565b60a086015201613b05565b910152565b9060158210156117985752565b90602091613c5681518092818552858086019101613aac565b601f01601f1916010190565b613aa991613c71818351613c30565b60c0613ce0613cce613cbc613caa613c98602088015160e0602089015260e0880190613c3d565b60408801518782036040890152613c3d565b60608701518682036060880152613c3d565b60808601518582036080870152613c3d565b60a085015184820360a0860152613c3d565b9201519060c0818403910152613c3d565b9390613aa99593613d22613d3e94613d14613d309460a08a5260a08a0190613c62565b9088820360208a0152613c3d565b908682036040880152613c3d565b908482036060860152613c3d565b916080818403910152613c3d565b949193613d8f613dab94613d81613aa99997613d73613d9d9660c08c5260c08c0190613c62565b908a820360208c0152613c3d565b9088820360408a0152613c3d565b908682036060880152613c3d565b908482036080860152613c3d565b9160a0818403910152613c3d565b60031990610100818301126103d7576004906001600160401b0382358181116103d75782613de89185016138d8565b95909594602435908382116103d75760e09082860301126103d7578401936044358381116103d75784613e1c9183016138d8565b949094936064358181116103d75782613e369185016138d8565b949094936084358381116103d75784613e509183016138d8565b9490949360a4358181116103d75782613e6a9185016138d8565b9490949360c4358381116103d75784613e849183016138d8565b9490949360e4359081116103d75761399a92016138d8565b346103d7575f3660031901126103d757602060405162093a808152f35b92613ee5613aa99593613ed7613ef394608088526080880190613c62565b908682036020880152613c3d565b908482036040860152613c3d565b916060818403910152613c3d565b9060031990610120828401126103d7576001600160401b0390600480358381116103d75785613f319183016138d8565b95909594602435908582116103d75760e09082840301126103d7578201936044358181116103d75782613f659185016138d8565b949094936064358381116103d75784613f7f9183016138d8565b949094936084358181116103d75782613f999185016138d8565b9490949360a4358381116103d75784613fb39183016138d8565b9490949360c4358181116103d75782613fcd9185016138d8565b9490949360e4358381116103d75784613fe79183016138d8565b94909493610104359081116103d75761399a92016138d8565b906003199060e0828401126103d7576001600160401b0390600480358381116103d7578561402f9183016138d8565b95909594602435908582116103d75760e09082840301126103d7578201936044358181116103d757826140639185016138d8565b949094936064358381116103d7578461407d9183016138d8565b949094936084358181116103d757826140979185016138d8565b9490949360a4358381116103d757846140b19183016138d8565b9490949360c4359081116103d75761399a92016138d8565b6003199060c0818301126103d7576004906001600160401b0382358181116103d757826140f79185016138d8565b95909594602435908382116103d75760e09082860301126103d7578401936044358381116103d7578461412b9183016138d8565b949094936064358181116103d757826141459185016138d8565b949094936084358381116103d7578461415f9183016138d8565b9490949360a4359081116103d75761399a92016138d8565b95926141e7946141bd6141cb926141af6141d9966141a1613aa99d9b9760e08e8181520190613c62565b8c810360208e015290613c3d565b908a820360408c0152613c3d565b9088820360608a0152613c3d565b908682036080880152613c3d565b9084820360a0860152613c3d565b9160c0818403910152613c3d565b96939461424f6142799661424161426b966142338c613aa99e9c9861422561425d99610100808552840190613c62565b916020818403910152613c3d565b8c810360408e015290613c3d565b908a820360608c0152613c3d565b9088820360808a0152613c3d565b9086820360a0880152613c3d565b9084820360c0860152613c3d565b9160e0818403910152613c3d565b919060e0838203126103d757604051906142a0826139b9565b8193803560158110156103d75783526001600160401b039160208201358381116103d757816142d0918401613a8e565b602085015260408201358381116103d757816142ed918401613a8e565b604085015260608201358381116103d7578161430a918401613a8e565b606085015260808201358381116103d75781614327918401613a8e565b608085015260a08201358381116103d75781614344918401613a8e565b60a085015260c08201359283116103d75760c092613c2b9201613a8e565b815190815160158110156117985760ff8019835416911617815560019182820191602090818301519182519460018060401b0395868111610d0c57806143a88354613acd565b95601f96878111614cc2575b508490878311600114614c63575f92614c58575b50505f19600383901b1c191690881b1790555b600282016040850151805190878211610d0c5781906143fa8454613acd565b878111614c0a575b508490878311600114614bab575f92614ba0575b50505f19600383901b1c191690881b1790555b6003938483016060820151805190888211610d0c57819061444a8454613acd565b888111614b52575b508590888311600114614af4575f92614ae9575b50505f1982891b1c191690891b1790555b60049283810160808301518051908982116147c95781906144988454613acd565b898111614a9b575b508690898311600114614a34575f92614a29575b50505f19828a1b1c1916908a1b1790555b60059182820160a08201518051908a8211614a165781906144e68454613acd565b8a81116149ca575b5087908a8311600114614963575f92614958575b50505f19828b1b1c1916908b1b1790555b60c00151805160068301918982116147c95781906145318454613acd565b89811161490c575b5086908983116001146148a5575f9261489a575b50505f19828a1b1c1916908a1b1790555b60078101838a01518051908982116147c957819061457c8454613acd565b89811161484e575b5086908983116001146147e7575f926147dc575b50505f19828a1b1c1916908a1b1790555b6008810160408a01518051908982116147c9576145c68354613acd565b888111614788575b50859088831160011461471657918060099492606096945f9261470b575b50505f19828c1b1c1916908c1b1790555b019801519283519687116146f857506146168854613acd565b908482116146b7575b50508092851160011461465557509383949184925f9561464a575b50501b925f19911b1c1916179055565b015193505f8061463a565b92919084601f198116885f52855f20955f905b8983831061469d5750505010614684575b50505050811b019055565b01519060f8845f19921b161c191690555f808080614679565b858701518955909701969485019488935090810190614668565b885f52825f209085808901821c830193858a106146ef575b01901c019087905b8281106146e4575061461f565b5f81550187906146d7565b935082936146cf565b604190634e487b7160e01b5f525260245ffd5b015190505f806145ec565b8b9291601f19831691855f52885f20925f5b8a8282106147695750509160609795939185600998969410614752575b505050811b0190556145fd565b01515f19838e1b60f8161c191690555f8080614745565b91929395968291958786015181550195019301908e9594939291614728565b835f52865f2089808501881c8201928986106147c0575b01871c01908c905b8281106147b55750506145ce565b5f8155018c906147a7565b9250819261479f565b604187634e487b7160e01b5f525260245ffd5b015190505f80614598565b908c9350601f19831691855f52885f20925f5b8a82821061482f5750508411614818575b505050811b0190556145a9565b01515f19838c1b60f8161c191690555f808061480b565b91929395968291958786015181550195019301908e95949392916147fa565b909150835f52865f2089808501881c820192898610614891575b918e918695949301891c01915b828110614883575050614584565b5f81558594508e9101614875565b92508192614868565b015190505f8061454d565b908c9350601f19831691855f52885f20925f5b8a8282106148ed57505084116148d6575b505050811b01905561455e565b01515f19838c1b60f8161c191690555f80806148c9565b91929395968291958786015181550195019301908e95949392916148b8565b909150835f52865f2089808501881c82019289861061494f575b918e918695949301891c01915b828110614941575050614539565b5f81558594508e9101614933565b92508192614926565b015190505f80614502565b908d9350601f19831691855f52895f20925f5b8b8282106149ab5750508411614994575b505050811b019055614513565b01515f19838d1b60f8161c191690555f8080614987565b91929395968291958786015181550195019301908f9594939291614976565b909150835f52875f208a808501891c8201928a8610614a0d575b918f9186959493018a1c01915b8281106149ff5750506144ee565b5f81558594508f91016149f1565b925081926149e4565b604188634e487b7160e01b5f525260245ffd5b015190505f806144b4565b908c9350601f19831691855f52885f20925f5b8a828210614a7c5750508411614a65575b505050811b0190556144c5565b01515f19838c1b60f8161c191690555f8080614a58565b91929395968291958786015181550195019301908e9594939291614a47565b909150835f52865f208980850160051c820192898610614ae0575b918e91869594930160051c01915b828110614ad25750506144a0565b5f81558594508e9101614ac4565b92508192614ab6565b015190505f80614466565b908b9350601f19831691855f52875f20925f5b89828210614b3c5750508411614b25575b505050811b019055614477565b01515f19838b1b60f8161c191690555f8080614b18565b8385015186558f97909501949384019301614b07565b909150835f52855f208880850160051c820192888610614b97575b918d91869594930160051c01915b828110614b89575050614452565b5f81558594508d9101614b7b565b92508192614b6d565b015190505f80614416565b908a9350601f19831691855f52865f20925f5b88828210614bf45750508411614bdc575b505050811b019055614429565b01515f1960f88460031b161c191690555f8080614bcf565b8385015186558e97909501949384019301614bbe565b909150835f52845f208780850160051c820192878610614c4f575b918c91869594930160051c01915b828110614c41575050614402565b5f81558594508c9101614c33565b92508192614c25565b015190505f806143c8565b908a9350601f19831691855f52865f20925f5b88828210614cac5750508411614c94575b505050811b0190556143db565b01515f1960f88460031b161c191690555f8080614c87565b8385015186558e97909501949384019301614c76565b909150835f52845f208780850160051c820192878610614d07575b918c91869594930160051c01915b828110614cf95750506143b4565b5f81558594508c9101614ceb565b92508192614cdd565b908060209392818452848401375f828201840152601f01601f1916010190565b815190815160158110156117985760ff8019835416911617815560019182820191602090818301519182519460018060401b0395868111610d0c5780614d768354613acd565b95601f9687811161594f575b5084908783116001146158f0575f926158e5575b50505f19600383901b1c191690881b1790555b600282016040850151805190878211610d0c578190614dc88454613acd565b878111615897575b508490878311600114615838575f9261582d575b50505f19600383901b1c191690881b1790555b6003938483016060820151805190888211610d0c578190614e188454613acd565b8881116157df575b508590888311600114615781575f92615776575b50505f1982891b1c191690891b1790555b60049283810160808301518051908982116147c9578190614e668454613acd565b898111615728575b5086908983116001146156c1575f926156b6575b50505f19828a1b1c1916908a1b1790555b60059182820160a08201518051908a8211614a16578190614eb48454613acd565b8a811161566a575b5087908a8311600114615603575f926155f8575b50505f19828b1b1c1916908b1b1790555b60c00151805160068301918982116147c9578190614eff8454613acd565b8981116155ac575b508690898311600114615545575f9261553a575b50505f19828a1b1c1916908a1b1790555b60078101838a01518051908982116147c9578190614f4a8454613acd565b8981116154ee575b508690898311600114615487575f9261547c575b50505f19828a1b1c1916908a1b1790555b6008810160408a01518051908982116147c9578190614f968454613acd565b898111615430575b5086908983116001146153c9575f926153be575b50505f19828a1b1c1916908a1b1790555b6009810160608a01518051908982116147c9578190614fe28454613acd565b898111615372575b50869089831160011461530b575f92615300575b50505f19828a1b1c1916908a1b1790555b600a810160808a01518051908982116147c957819061502e8454613acd565b8981116152b4575b50869089831160011461524d575f92615242575b50505f19828a1b1c1916908a1b1790555b600b810160a08a01518051908982116147c9576150788354613acd565b888111615201575b50859088831160011461518f579180600c949260c096945f92615184575b50505f19828c1b1c1916908c1b1790555b019801519283519687116146f857506150c88854613acd565b90848211615143575b5050809285116001146150fb57509383949184925f9561464a5750501b925f19911b1c1916179055565b92919084601f198116885f52855f20955f905b8983831061512957505050106146845750505050811b019055565b85870151895590970196948501948893509081019061510e565b885f52825f209085808901821c830193858a1061517b575b01901c019087905b82811061517057506150d1565b5f8155018790615163565b9350829361515b565b015190505f8061509e565b8b9291601f19831691855f52885f20925f5b8a8282106151e25750509160c09795939185600c989694106151cb575b505050811b0190556150af565b01515f19838e1b60f8161c191690555f80806151be565b91929395968291958786015181550195019301908e95949392916151a1565b835f52865f2089808501881c820192898610615239575b01871c01908c905b82811061522e575050615080565b5f8155018c90615220565b92508192615218565b015190505f8061504a565b908c9350601f19831691855f52885f20925f5b8a828210615295575050841161527e575b505050811b01905561505b565b01515f19838c1b60f8161c191690555f8080615271565b91929395968291958786015181550195019301908e9594939291615260565b909150835f52865f2089808501881c8201928986106152f7575b918e918695949301891c01915b8281106152e9575050615036565b5f81558594508e91016152db565b925081926152ce565b015190505f80614ffe565b908c9350601f19831691855f52885f20925f5b8a828210615353575050841161533c575b505050811b01905561500f565b01515f19838c1b60f8161c191690555f808061532f565b91929395968291958786015181550195019301908e959493929161531e565b909150835f52865f2089808501881c8201928986106153b5575b918e918695949301891c01915b8281106153a7575050614fea565b5f81558594508e9101615399565b9250819261538c565b015190505f80614fb2565b908c9350601f19831691855f52885f20925f5b8a82821061541157505084116153fa575b505050811b019055614fc3565b01515f19838c1b60f8161c191690555f80806153ed565b91929395968291958786015181550195019301908e95949392916153dc565b909150835f52865f2089808501881c820192898610615473575b918e918695949301891c01915b828110615465575050614f9e565b5f81558594508e9101615457565b9250819261544a565b015190505f80614f66565b908c9350601f19831691855f52885f20925f5b8a8282106154cf57505084116154b8575b505050811b019055614f77565b01515f19838c1b60f8161c191690555f80806154ab565b91929395968291958786015181550195019301908e959493929161549a565b909150835f52865f2089808501881c820192898610615531575b918e918695949301891c01915b828110615523575050614f52565b5f81558594508e9101615515565b92508192615508565b015190505f80614f1b565b908c9350601f19831691855f52885f20925f5b8a82821061558d5750508411615576575b505050811b019055614f2c565b01515f19838c1b60f8161c191690555f8080615569565b91929395968291958786015181550195019301908e9594939291615558565b909150835f52865f2089808501881c8201928986106155ef575b918e918695949301891c01915b8281106155e1575050614f07565b5f81558594508e91016155d3565b925081926155c6565b015190505f80614ed0565b908d9350601f19831691855f52895f20925f5b8b82821061564b5750508411615634575b505050811b019055614ee1565b01515f19838d1b60f8161c191690555f8080615627565b91929395968291958786015181550195019301908f9594939291615616565b909150835f52875f208a808501891c8201928a86106156ad575b918f9186959493018a1c01915b82811061569f575050614ebc565b5f81558594508f9101615691565b92508192615684565b015190505f80614e82565b908c9350601f19831691855f52885f20925f5b8a82821061570957505084116156f2575b505050811b019055614e93565b01515f19838c1b60f8161c191690555f80806156e5565b91929395968291958786015181550195019301908e95949392916156d4565b909150835f52865f208980850160051c82019289861061576d575b918e91869594930160051c01915b82811061575f575050614e6e565b5f81558594508e9101615751565b92508192615743565b015190505f80614e34565b908b9350601f19831691855f52875f20925f5b898282106157c957505084116157b2575b505050811b019055614e45565b01515f19838b1b60f8161c191690555f80806157a5565b8385015186558f97909501949384019301615794565b909150835f52855f208880850160051c820192888610615824575b918d91869594930160051c01915b828110615816575050614e20565b5f81558594508d9101615808565b925081926157fa565b015190505f80614de4565b908a9350601f19831691855f52865f20925f5b888282106158815750508411615869575b505050811b019055614df7565b01515f1960f88460031b161c191690555f808061585c565b8385015186558e9790950194938401930161584b565b909150835f52845f208780850160051c8201928786106158dc575b918c91869594930160051c01915b8281106158ce575050614dd0565b5f81558594508c91016158c0565b925081926158b2565b015190505f80614d96565b908a9350601f19831691855f52865f20925f5b888282106159395750508411615921575b505050811b019055614da9565b01515f1960f88460031b161c191690555f8080615914565b8385015186558e97909501949384019301615903565b909150835f52845f208780850160051c820192878610615994575b918c91869594930160051c01915b828110615986575050614d82565b5f81558594508c9101615978565b9250819261596a565b815190815160158110156117985760ff8019835416911617815560019182820191602090818301519182519460018060401b0395868111610d0c57806159e38354613acd565b95601f968781116166c6575b508490878311600114616667575f9261665c575b50505f19600383901b1c191690881b1790555b600282016040850151805190878211610d0c578190615a358454613acd565b87811161660e575b5084908783116001146165af575f926165a4575b50505f19600383901b1c191690881b1790555b6003938483016060820151805190888211610d0c578190615a858454613acd565b888111616556575b5085908883116001146164f8575f926164ed575b50505f1982891b1c191690891b1790555b60049283810160808301518051908982116147c9578190615ad38454613acd565b89811161649f575b508690898311600114616438575f9261642d575b50505f19828a1b1c1916908a1b1790555b60059182820160a08201518051908a8211614a16578190615b218454613acd565b8a81116163e1575b5087908a831160011461637a575f9261636f575b50505f19828b1b1c1916908b1b1790555b60c00151805160068301918982116147c9578190615b6c8454613acd565b898111616323575b5086908983116001146162bc575f926162b1575b50505f19828a1b1c1916908a1b1790555b60078101838a01518051908982116147c9578190615bb78454613acd565b898111616265575b5086908983116001146161fe575f926161f3575b50505f19828a1b1c1916908a1b1790555b6008810160408a01518051908982116147c9578190615c038454613acd565b8981116161a7575b508690898311600114616140575f92616135575b50505f19828a1b1c1916908a1b1790555b6009810160608a01518051908982116147c9578190615c4f8454613acd565b8981116160e9575b508690898311600114616082575f92616077575b50505f19828a1b1c1916908a1b1790555b600a810160808a01518051908982116147c9578190615c9b8454613acd565b89811161602b575b508690898311600114615fc4575f92615fb9575b50505f19828a1b1c1916908a1b1790555b600b810160a08a01518051908982116147c9578190615ce78454613acd565b898111615f6d575b508690898311600114615f06575f92615efb575b50505f19828a1b1c1916908a1b1790555b600c810160c08a01518051908982116147c957615d318354613acd565b888111615eba575b508590888311600114615e48579180600d949260e096945f92615e3d575b50505f19828c1b1c1916908c1b1790555b019801519283519687116146f85750615d818854613acd565b90848211615dfc575b505080928511600114615db457509383949184925f9561464a5750501b925f19911b1c1916179055565b92919084601f198116885f52855f20955f905b89838310615de257505050106146845750505050811b019055565b858701518955909701969485019488935090810190615dc7565b885f52825f209085808901821c830193858a10615e34575b01901c019087905b828110615e295750615d8a565b5f8155018790615e1c565b93508293615e14565b015190505f80615d57565b8b9291601f19831691855f52885f20925f5b8a828210615e9b5750509160e09795939185600d98969410615e84575b505050811b019055615d68565b01515f19838e1b60f8161c191690555f8080615e77565b91929395968291958786015181550195019301908e9594939291615e5a565b835f52865f2089808501881c820192898610615ef2575b01871c01908c905b828110615ee7575050615d39565b5f8155018c90615ed9565b92508192615ed1565b015190505f80615d03565b908c9350601f19831691855f52885f20925f5b8a828210615f4e5750508411615f37575b505050811b019055615d14565b01515f19838c1b60f8161c191690555f8080615f2a565b91929395968291958786015181550195019301908e9594939291615f19565b909150835f52865f2089808501881c820192898610615fb0575b918e918695949301891c01915b828110615fa2575050615cef565b5f81558594508e9101615f94565b92508192615f87565b015190505f80615cb7565b908c9350601f19831691855f52885f20925f5b8a82821061600c5750508411615ff5575b505050811b019055615cc8565b01515f19838c1b60f8161c191690555f8080615fe8565b91929395968291958786015181550195019301908e9594939291615fd7565b909150835f52865f2089808501881c82019289861061606e575b918e918695949301891c01915b828110616060575050615ca3565b5f81558594508e9101616052565b92508192616045565b015190505f80615c6b565b908c9350601f19831691855f52885f20925f5b8a8282106160ca57505084116160b3575b505050811b019055615c7c565b01515f19838c1b60f8161c191690555f80806160a6565b91929395968291958786015181550195019301908e9594939291616095565b909150835f52865f2089808501881c82019289861061612c575b918e918695949301891c01915b82811061611e575050615c57565b5f81558594508e9101616110565b92508192616103565b015190505f80615c1f565b908c9350601f19831691855f52885f20925f5b8a8282106161885750508411616171575b505050811b019055615c30565b01515f19838c1b60f8161c191690555f8080616164565b91929395968291958786015181550195019301908e9594939291616153565b909150835f52865f2089808501881c8201928986106161ea575b918e918695949301891c01915b8281106161dc575050615c0b565b5f81558594508e91016161ce565b925081926161c1565b015190505f80615bd3565b908c9350601f19831691855f52885f20925f5b8a828210616246575050841161622f575b505050811b019055615be4565b01515f19838c1b60f8161c191690555f8080616222565b91929395968291958786015181550195019301908e9594939291616211565b909150835f52865f2089808501881c8201928986106162a8575b918e918695949301891c01915b82811061629a575050615bbf565b5f81558594508e910161628c565b9250819261627f565b015190505f80615b88565b908c9350601f19831691855f52885f20925f5b8a82821061630457505084116162ed575b505050811b019055615b99565b01515f19838c1b60f8161c191690555f80806162e0565b91929395968291958786015181550195019301908e95949392916162cf565b909150835f52865f2089808501881c820192898610616366575b918e918695949301891c01915b828110616358575050615b74565b5f81558594508e910161634a565b9250819261633d565b015190505f80615b3d565b908d9350601f19831691855f52895f20925f5b8b8282106163c257505084116163ab575b505050811b019055615b4e565b01515f19838d1b60f8161c191690555f808061639e565b91929395968291958786015181550195019301908f959493929161638d565b909150835f52875f208a808501891c8201928a8610616424575b918f9186959493018a1c01915b828110616416575050615b29565b5f81558594508f9101616408565b925081926163fb565b015190505f80615aef565b908c9350601f19831691855f52885f20925f5b8a8282106164805750508411616469575b505050811b019055615b00565b01515f19838c1b60f8161c191690555f808061645c565b91929395968291958786015181550195019301908e959493929161644b565b909150835f52865f208980850160051c8201928986106164e4575b918e91869594930160051c01915b8281106164d6575050615adb565b5f81558594508e91016164c8565b925081926164ba565b015190505f80615aa1565b908b9350601f19831691855f52875f20925f5b898282106165405750508411616529575b505050811b019055615ab2565b01515f19838b1b60f8161c191690555f808061651c565b8385015186558f9790950194938401930161650b565b909150835f52855f208880850160051c82019288861061659b575b918d91869594930160051c01915b82811061658d575050615a8d565b5f81558594508d910161657f565b92508192616571565b015190505f80615a51565b908a9350601f19831691855f52865f20925f5b888282106165f857505084116165e0575b505050811b019055615a64565b01515f1960f88460031b161c191690555f80806165d3565b8385015186558e979095019493840193016165c2565b909150835f52845f208780850160051c820192878610616653575b918c91869594930160051c01915b828110616645575050615a3d565b5f81558594508c9101616637565b92508192616629565b015190505f80615a03565b908a9350601f19831691855f52865f20925f5b888282106166b05750508411616698575b505050811b019055615a16565b01515f1960f88460031b161c191690555f808061668b565b8385015186558e9790950194938401930161667a565b909150835f52845f208780850160051c82019287861061670b575b918c91869594930160051c01915b8281106166fd5750506159ef565b5f81558594508c91016166ef565b925081926166e1565b815190815160158110156117985760ff8019835416911617815560019182820191602090818301519182519460018060401b0395868111610d0c578061675a8354613acd565b95601f96878111617229575b5084908783116001146171ca575f926171bf575b50505f19600383901b1c191690881b1790555b600282016040850151805190878211610d0c5781906167ac8454613acd565b878111617171575b508490878311600114617112575f92617107575b50505f19600383901b1c191690881b1790555b6003938483016060820151805190888211610d0c5781906167fc8454613acd565b8881116170b9575b50859088831160011461705b575f92617050575b50505f1982891b1c191690891b1790555b60049283810160808301518051908982116147c957819061684a8454613acd565b898111617002575b508690898311600114616f9b575f92616f90575b50505f19828a1b1c1916908a1b1790555b60059182820160a08201518051908a8211614a165781906168988454613acd565b8a8111616f44575b5087908a8311600114616edd575f92616ed2575b50505f19828b1b1c1916908b1b1790555b60c00151805160068301918982116147c95781906168e38454613acd565b898111616e86575b508690898311600114616e1f575f92616e14575b50505f19828a1b1c1916908a1b1790555b60078101838a01518051908982116147c957819061692e8454613acd565b898111616dc8575b508690898311600114616d61575f92616d56575b50505f19828a1b1c1916908a1b1790555b6008810160408a01518051908982116147c957819061697a8454613acd565b898111616d0a575b508690898311600114616ca3575f92616c98575b50505f19828a1b1c1916908a1b1790555b6009810160608a01518051908982116147c95781906169c68454613acd565b898111616c4c575b508690898311600114616be5575f92616bda575b50505f19828a1b1c1916908a1b1790555b600a810160808a01518051908982116147c957616a108354613acd565b888111616b99575b508590888311600114616b27579180600b949260a096945f92616b1c575b50505f19828c1b1c1916908c1b1790555b019801519283519687116146f85750616a608854613acd565b90848211616adb575b505080928511600114616a9357509383949184925f9561464a5750501b925f19911b1c1916179055565b92919084601f198116885f52855f20955f905b89838310616ac157505050106146845750505050811b019055565b858701518955909701969485019488935090810190616aa6565b885f52825f209085808901821c830193858a10616b13575b01901c019087905b828110616b085750616a69565b5f8155018790616afb565b93508293616af3565b015190505f80616a36565b8b9291601f19831691855f52885f20925f5b8a828210616b7a5750509160a09795939185600b98969410616b63575b505050811b019055616a47565b01515f19838e1b60f8161c191690555f8080616b56565b91929395968291958786015181550195019301908e9594939291616b39565b835f52865f2089808501881c820192898610616bd1575b01871c01908c905b828110616bc6575050616a18565b5f8155018c90616bb8565b92508192616bb0565b015190505f806169e2565b908c9350601f19831691855f52885f20925f5b8a828210616c2d5750508411616c16575b505050811b0190556169f3565b01515f19838c1b60f8161c191690555f8080616c09565b91929395968291958786015181550195019301908e9594939291616bf8565b909150835f52865f2089808501881c820192898610616c8f575b918e918695949301891c01915b828110616c815750506169ce565b5f81558594508e9101616c73565b92508192616c66565b015190505f80616996565b908c9350601f19831691855f52885f20925f5b8a828210616ceb5750508411616cd4575b505050811b0190556169a7565b01515f19838c1b60f8161c191690555f8080616cc7565b91929395968291958786015181550195019301908e9594939291616cb6565b909150835f52865f2089808501881c820192898610616d4d575b918e918695949301891c01915b828110616d3f575050616982565b5f81558594508e9101616d31565b92508192616d24565b015190505f8061694a565b908c9350601f19831691855f52885f20925f5b8a828210616da95750508411616d92575b505050811b01905561695b565b01515f19838c1b60f8161c191690555f8080616d85565b91929395968291958786015181550195019301908e9594939291616d74565b909150835f52865f2089808501881c820192898610616e0b575b918e918695949301891c01915b828110616dfd575050616936565b5f81558594508e9101616def565b92508192616de2565b015190505f806168ff565b908c9350601f19831691855f52885f20925f5b8a828210616e675750508411616e50575b505050811b019055616910565b01515f19838c1b60f8161c191690555f8080616e43565b91929395968291958786015181550195019301908e9594939291616e32565b909150835f52865f2089808501881c820192898610616ec9575b918e918695949301891c01915b828110616ebb5750506168eb565b5f81558594508e9101616ead565b92508192616ea0565b015190505f806168b4565b908d9350601f19831691855f52895f20925f5b8b828210616f255750508411616f0e575b505050811b0190556168c5565b01515f19838d1b60f8161c191690555f8080616f01565b91929395968291958786015181550195019301908f9594939291616ef0565b909150835f52875f208a808501891c8201928a8610616f87575b918f9186959493018a1c01915b828110616f795750506168a0565b5f81558594508f9101616f6b565b92508192616f5e565b015190505f80616866565b908c9350601f19831691855f52885f20925f5b8a828210616fe35750508411616fcc575b505050811b019055616877565b01515f19838c1b60f8161c191690555f8080616fbf565b91929395968291958786015181550195019301908e9594939291616fae565b909150835f52865f208980850160051c820192898610617047575b918e91869594930160051c01915b828110617039575050616852565b5f81558594508e910161702b565b9250819261701d565b015190505f80616818565b908b9350601f19831691855f52875f20925f5b898282106170a3575050841161708c575b505050811b019055616829565b01515f19838b1b60f8161c191690555f808061707f565b8385015186558f9790950194938401930161706e565b909150835f52855f208880850160051c8201928886106170fe575b918d91869594930160051c01915b8281106170f0575050616804565b5f81558594508d91016170e2565b925081926170d4565b015190505f806167c8565b908a9350601f19831691855f52865f20925f5b8882821061715b5750508411617143575b505050811b0190556167db565b01515f1960f88460031b161c191690555f8080617136565b8385015186558e97909501949384019301617125565b909150835f52845f208780850160051c8201928786106171b6575b918c91869594930160051c01915b8281106171a85750506167b4565b5f81558594508c910161719a565b9250819261718c565b015190505f8061677a565b908a9350601f19831691855f52865f20925f5b8882821061721357505084116171fb575b505050811b01905561678d565b01515f1960f88460031b161c191690555f80806171ee565b8385015186558e979095019493840193016171dd565b909150835f52845f208780850160051c82019287861061726e575b918c91869594930160051c01915b828110617260575050616766565b5f81558594508c9101617252565b92508192617244565b815190815160158110156117985760ff8019835416911617815560019182820191602090818301519182519460018060401b0395868111610d0c57806172bd8354613acd565b95601f96878111617c82575b508490878311600114617c23575f92617c18575b50505f19600383901b1c191690881b1790555b600282016040850151805190878211610d0c57819061730f8454613acd565b878111617bca575b508490878311600114617b6b575f92617b60575b50505f19600383901b1c191690881b1790555b6003938483016060820151805190888211610d0c57819061735f8454613acd565b888111617b12575b508590888311600114617ab4575f92617aa9575b50505f1982891b1c191690891b1790555b60049283810160808301518051908982116147c95781906173ad8454613acd565b898111617a5b575b5086908983116001146179f4575f926179e9575b50505f19828a1b1c1916908a1b1790555b60059182820160a08201518051908a8211614a165781906173fb8454613acd565b8a811161799d575b5087908a8311600114617936575f9261792b575b50505f19828b1b1c1916908b1b1790555b60c00151805160068301918982116147c95781906174468454613acd565b8981116178df575b508690898311600114617878575f9261786d575b50505f19828a1b1c1916908a1b1790555b60078101838a01518051908982116147c95781906174918454613acd565b898111617821575b5086908983116001146177ba575f926177af575b50505f19828a1b1c1916908a1b1790555b6008810160408a01518051908982116147c95781906174dd8454613acd565b898111617763575b5086908983116001146176fc575f926176f1575b50505f19828a1b1c1916908a1b1790555b6009810160608a01518051908982116147c9576175278354613acd565b8881116176b0575b50859088831160011461763e579180600a9492608096945f92617633575b50505f19828c1b1c1916908c1b1790555b019801519283519687116146f857506175778854613acd565b908482116175f2575b5050809285116001146175aa57509383949184925f9561464a5750501b925f19911b1c1916179055565b92919084601f198116885f52855f20955f905b898383106175d857505050106146845750505050811b019055565b8587015189559097019694850194889350908101906175bd565b885f52825f209085808901821c830193858a1061762a575b01901c019087905b82811061761f5750617580565b5f8155018790617612565b9350829361760a565b015190505f8061754d565b8b9291601f19831691855f52885f20925f5b8a8282106176915750509160809795939185600a9896941061767a575b505050811b01905561755e565b01515f19838e1b60f8161c191690555f808061766d565b91929395968291958786015181550195019301908e9594939291617650565b835f52865f2089808501881c8201928986106176e8575b01871c01908c905b8281106176dd57505061752f565b5f8155018c906176cf565b925081926176c7565b015190505f806174f9565b908c9350601f19831691855f52885f20925f5b8a828210617744575050841161772d575b505050811b01905561750a565b01515f19838c1b60f8161c191690555f8080617720565b91929395968291958786015181550195019301908e959493929161770f565b909150835f52865f2089808501881c8201928986106177a6575b918e918695949301891c01915b8281106177985750506174e5565b5f81558594508e910161778a565b9250819261777d565b015190505f806174ad565b908c9350601f19831691855f52885f20925f5b8a82821061780257505084116177eb575b505050811b0190556174be565b01515f19838c1b60f8161c191690555f80806177de565b91929395968291958786015181550195019301908e95949392916177cd565b909150835f52865f2089808501881c820192898610617864575b918e918695949301891c01915b828110617856575050617499565b5f81558594508e9101617848565b9250819261783b565b015190505f80617462565b908c9350601f19831691855f52885f20925f5b8a8282106178c057505084116178a9575b505050811b019055617473565b01515f19838c1b60f8161c191690555f808061789c565b91929395968291958786015181550195019301908e959493929161788b565b909150835f52865f2089808501881c820192898610617922575b918e918695949301891c01915b82811061791457505061744e565b5f81558594508e9101617906565b925081926178f9565b015190505f80617417565b908d9350601f19831691855f52895f20925f5b8b82821061797e5750508411617967575b505050811b019055617428565b01515f19838d1b60f8161c191690555f808061795a565b91929395968291958786015181550195019301908f9594939291617949565b909150835f52875f208a808501891c8201928a86106179e0575b918f9186959493018a1c01915b8281106179d2575050617403565b5f81558594508f91016179c4565b925081926179b7565b015190505f806173c9565b908c9350601f19831691855f52885f20925f5b8a828210617a3c5750508411617a25575b505050811b0190556173da565b01515f19838c1b60f8161c191690555f8080617a18565b91929395968291958786015181550195019301908e9594939291617a07565b909150835f52865f208980850160051c820192898610617aa0575b918e91869594930160051c01915b828110617a925750506173b5565b5f81558594508e9101617a84565b92508192617a76565b015190505f8061737b565b908b9350601f19831691855f52875f20925f5b89828210617afc5750508411617ae5575b505050811b01905561738c565b01515f19838b1b60f8161c191690555f8080617ad8565b8385015186558f97909501949384019301617ac7565b909150835f52855f208880850160051c820192888610617b57575b918d91869594930160051c01915b828110617b49575050617367565b5f81558594508d9101617b3b565b92508192617b2d565b015190505f8061732b565b908a9350601f19831691855f52865f20925f5b88828210617bb45750508411617b9c575b505050811b01905561733e565b01515f1960f88460031b161c191690555f8080617b8f565b8385015186558e97909501949384019301617b7e565b909150835f52845f208780850160051c820192878610617c0f575b918c91869594930160051c01915b828110617c01575050617317565b5f81558594508c9101617bf3565b92508192617be5565b015190505f806172dd565b908a9350601f19831691855f52865f20925f5b88828210617c6c5750508411617c54575b505050811b0190556172f0565b01515f1960f88460031b161c191690555f8080617c47565b8385015186558e97909501949384019301617c36565b909150835f52845f208780850160051c820192878610617cc7575b918c91869594930160051c01915b828110617cb95750506172c9565b5f81558594508c9101617cab565b92508192617c9d565b903590601e19813603018212156103d757018035906001600160401b0382116103d7576020019181360383136103d757565b908015617df157617d166020840184617cd0565b905015617ddf5760ff60405182848237602081848101601e8152030190205416617dbb5750506040810190617d4b8282617cd0565b9050151580617d8f575b617d5d575050565b617d679250617cd0565b617d8b60405192839263805de86960e01b8452602060048501526024840191614d10565b0390fd5b5060ff6020617d9e8484617cd0565b91908260405193849283378101601e815203019020541615617d55565b617d8b60405192839263029e8f5f60e21b8452602060048501526024840191614d10565b6040516346829b8560e01b8152600490fd5b604051630dd088e760e01b8152600490fd5b908015617e505760ff60405182848237602081848101601e815203019020541615617e2c575050565b617d8b60405192839263e3d1895f60e01b8452602060048501526024840191614d10565b604051631a2f07d160e01b8152600490fd5b91909160405183828237602081858101601e815203019020600160ff19825416179055813560158110156103d757617e9d6060840184617cd0565b92909360808101617eae9082617cd0565b90617ebc60a0840184617cd0565b90617eca6020860186617cd0565b92909360408701617edb9088617cd0565b96909760c08101617eeb91617cd0565b9d909981604051928392833781015f81520390209b6040519b617f0f8d809d613c30565b60208c0160e0905260e08c0190617f2592614d10565b908a820360408c0152617f3792614d10565b9088820360608a0152617f4992614d10565b908682036080880152617f5b92614d10565b9084820360a0860152617f6d92614d10565b82810360c08401523395617f8092614d10565b037fb079e6ef5692cd4a65d77914ef3b91d011cbcd311ab2f185cb7681009e148add91a356fe8be0079c531659141344cd1fd0a4f28419497f9722a3daafe3b4186f6b6457e0a26469706673582212204ad453b2980d15f0e0fafdca4e2634aa8140dfa2d391153726f077a7c49149cb64736f6c63430008180033","linkReferences":{}},"methodIdentifiers":{"AR_TREE_ID()":"b6e3a9dc","RECOVERY_DELAY()":"47b45652","RECOVERY_LOCKOUT()":"561ea99c","addEntityOperator(address)":"397c9a3a","addLegalOperator(address)":"45f65cfa","addOperator(address)":"9870d7fe","addProofOperator(address)":"6b6797c9","affirmedAnchors(string)":"47deec0d","agentAnchors(string)":"144888ff","cancelRecovery()":"0ba234d6","codeAnchors(string)":"573701f7","dataAnchors(string)":"717d1a85","entityAnchors(string)":"e600a0a0","entityOperators(address)":"6ae0dd9c","eventAnchors(string)":"8a0d436f","executeRecovery()":"20c5a3e1","initiateRecovery(address)":"d5ce9aad","legalAnchors(string)":"ecc8d0fc","legalOperators(address)":"b91ef084","mediaAnchors(string)":"762d408d","modelAnchors(string)":"16aca546","noteAnchors(string)":"1dcc4365","onChainAnchors(string)":"96ad272d","operators(address)":"13e7c9d8","otherAnchors(string)":"5bd47e10","owner()":"8da5cb5b","pendingOwner()":"e30c3978","postAnchors(string)":"1cb655e7","proofAnchors(string)":"132171b0","proofOperators(address)":"402cef1b","receiptAnchors(string)":"bdd5a582","recoveryAddress()":"710eb26c","recoveryInitiatedAt()":"20727381","recoveryLockoutUntil()":"47be22fa","registerAffirmed(string,(uint8,string,string,string,string,string,string),string,string,string)":"9b1595d0","registerAgent(string,(uint8,string,string,string,string,string,string),string,string,string,string)":"a00c78ab","registerCode(string,(uint8,string,string,string,string,string,string),string,string,string,string,string)":"61ee8fea","registerData(string,(uint8,string,string,string,string,string,string),string,string,string,string,string)":"62c772cc","registerEntity(string,(uint8,string,string,string,string,string,string),string,string,string,string,string,string)":"d58b91e0","registerEvent(string,(uint8,string,string,string,string,string,string),string,string,string,string,string,string)":"46de8daa","registerLegal(string,(uint8,string,string,string,string,string,string),string,string,string,string,string)":"9786e9a3","registerMedia(string,(uint8,string,string,string,string,string,string),string,string,string,string,string)":"9e565f4d","registerModel(string,(uint8,string,string,string,string,string,string),string,string,string,string,string)":"bcb145f8","registerNote(string,(uint8,string,string,string,string,string,string),string,string,string,string)":"a0d1c384","registerOnChain(string,(uint8,string,string,string,string,string,string),string,string,string,string,string,string,string)":"53ddf3e2","registerOther(string,(uint8,string,string,string,string,string,string),string,string,string,string)":"e22aebdf","registerPost(string,(uint8,string,string,string,string,string,string),string,string,string,string)":"fe746eb2","registerProof(string,(uint8,string,string,string,string,string,string),string,string,string,string,string,string,string,string,string)":"fe264355","registerReceipt(string,(uint8,string,string,string,string,string,string),string,string,string,string,string,string,string)":"af7f08e5","registerReport(string,(uint8,string,string,string,string,string,string),string,string,string,string,string,string,string)":"f5de2afb","registerResearch(string,(uint8,string,string,string,string,string,string),string,string,string,string)":"8e9d6ab7","registerRetraction(string,(uint8,string,string,string,string,string,string),string,string,string)":"fb07c543","registerReview(string,(uint8,string,string,string,string,string,string),string,string,string)":"04fabff9","registerText(string,(uint8,string,string,string,string,string,string),string,string,string,string)":"64bea334","registerVoid(string,(uint8,string,string,string,string,string,string),string,string,string,string)":"c47e3d47","registered(string)":"5d2d5c37","removeEntityOperator(address)":"ddf841a9","removeLegalOperator(address)":"6ba60e71","removeOperator(address)":"ac8a584a","removeProofOperator(address)":"b643fcb3","reportAnchors(string)":"9bcc0074","researchAnchors(string)":"165d33fe","retractionAnchors(string)":"7d15e15d","reviewAnchors(string)":"5d064b3a","setRecoveryAddress(address)":"49efe5ae","textAnchors(string)":"517f4dcf","transferOwnership(address)":"f2fde38b","voidAnchors(string)":"e0ac87b9"},"id":19}