{"abi":[{"type":"constructor","inputs":[{"name":"_recoveryAddress","type":"address","internalType":"address"}],"stateMutability":"nonpayable"},{"type":"function","name":"AR_TREE_ID","inputs":[],"outputs":[{"name":"","type":"string","internalType":"string"}],"stateMutability":"view"},{"type":"function","name":"RECOVERY_DELAY","inputs":[],"outputs":[{"name":"","type":"uint256","internalType":"uint256"}],"stateMutability":"view"},{"type":"function","name":"RECOVERY_LOCKOUT","inputs":[],"outputs":[{"name":"","type":"uint256","internalType":"uint256"}],"stateMutability":"view"},{"type":"function","name":"addEntityOperator","inputs":[{"name":"op","type":"address","internalType":"address"}],"outputs":[],"stateMutability":"nonpayable"},{"type":"function","name":"addLegalOperator","inputs":[{"name":"op","type":"address","internalType":"address"}],"outputs":[],"stateMutability":"nonpayable"},{"type":"function","name":"addOperator","inputs":[{"name":"op","type":"address","internalType":"address"}],"outputs":[],"stateMutability":"nonpayable"},{"type":"function","name":"addProofOperator","inputs":[{"name":"op","type":"address","internalType":"address"}],"outputs":[],"stateMutability":"nonpayable"},{"type":"function","name":"anchorTypes","inputs":[{"name":"","type":"string","internalType":"string"}],"outputs":[{"name":"","type":"uint8","internalType":"enum ArtifactType"}],"stateMutability":"view"},{"type":"function","name":"cancelRecovery","inputs":[],"outputs":[],"stateMutability":"nonpayable"},{"type":"function","name":"entityOperators","inputs":[{"name":"","type":"address","internalType":"address"}],"outputs":[{"name":"","type":"bool","internalType":"bool"}],"stateMutability":"view"},{"type":"function","name":"executeRecovery","inputs":[],"outputs":[],"stateMutability":"nonpayable"},{"type":"function","name":"getAnchorData","inputs":[{"name":"arId","type":"string","internalType":"string"}],"outputs":[{"name":"","type":"bytes","internalType":"bytes"}],"stateMutability":"view"},{"type":"function","name":"initiateRecovery","inputs":[{"name":"_pendingOwner","type":"address","internalType":"address"}],"outputs":[],"stateMutability":"nonpayable"},{"type":"function","name":"legalOperators","inputs":[{"name":"","type":"address","internalType":"address"}],"outputs":[{"name":"","type":"bool","internalType":"bool"}],"stateMutability":"view"},{"type":"function","name":"operators","inputs":[{"name":"","type":"address","internalType":"address"}],"outputs":[{"name":"","type":"bool","internalType":"bool"}],"stateMutability":"view"},{"type":"function","name":"owner","inputs":[],"outputs":[{"name":"","type":"address","internalType":"address"}],"stateMutability":"view"},{"type":"function","name":"pendingOwner","inputs":[],"outputs":[{"name":"","type":"address","internalType":"address"}],"stateMutability":"view"},{"type":"function","name":"proofOperators","inputs":[{"name":"","type":"address","internalType":"address"}],"outputs":[{"name":"","type":"bool","internalType":"bool"}],"stateMutability":"view"},{"type":"function","name":"recoveryAddress","inputs":[],"outputs":[{"name":"","type":"address","internalType":"address"}],"stateMutability":"view"},{"type":"function","name":"recoveryInitiatedAt","inputs":[],"outputs":[{"name":"","type":"uint256","internalType":"uint256"}],"stateMutability":"view"},{"type":"function","name":"recoveryLockoutUntil","inputs":[],"outputs":[{"name":"","type":"uint256","internalType":"uint256"}],"stateMutability":"view"},{"type":"function","name":"registerContent","inputs":[{"name":"arId","type":"string","internalType":"string"},{"name":"base","type":"tuple","internalType":"struct AnchorBase","components":[{"name":"artifactType","type":"uint8","internalType":"enum ArtifactType"},{"name":"manifestHash","type":"string","internalType":"string"},{"name":"parentArId","type":"string","internalType":"string"},{"name":"descriptor","type":"string","internalType":"string"},{"name":"title","type":"string","internalType":"string"},{"name":"author","type":"string","internalType":"string"},{"name":"treeId","type":"string","internalType":"string"}]},{"name":"extra","type":"bytes","internalType":"bytes"}],"outputs":[],"stateMutability":"nonpayable"},{"type":"function","name":"registerGated","inputs":[{"name":"arId","type":"string","internalType":"string"},{"name":"base","type":"tuple","internalType":"struct AnchorBase","components":[{"name":"artifactType","type":"uint8","internalType":"enum ArtifactType"},{"name":"manifestHash","type":"string","internalType":"string"},{"name":"parentArId","type":"string","internalType":"string"},{"name":"descriptor","type":"string","internalType":"string"},{"name":"title","type":"string","internalType":"string"},{"name":"author","type":"string","internalType":"string"},{"name":"treeId","type":"string","internalType":"string"}]},{"name":"extra","type":"bytes","internalType":"bytes"}],"outputs":[],"stateMutability":"nonpayable"},{"type":"function","name":"registerTargeted","inputs":[{"name":"arId","type":"string","internalType":"string"},{"name":"base","type":"tuple","internalType":"struct AnchorBase","components":[{"name":"artifactType","type":"uint8","internalType":"enum ArtifactType"},{"name":"manifestHash","type":"string","internalType":"string"},{"name":"parentArId","type":"string","internalType":"string"},{"name":"descriptor","type":"string","internalType":"string"},{"name":"title","type":"string","internalType":"string"},{"name":"author","type":"string","internalType":"string"},{"name":"treeId","type":"string","internalType":"string"}]},{"name":"targetArId","type":"string","internalType":"string"},{"name":"extra","type":"bytes","internalType":"bytes"}],"outputs":[],"stateMutability":"nonpayable"},{"type":"function","name":"registered","inputs":[{"name":"","type":"string","internalType":"string"}],"outputs":[{"name":"","type":"bool","internalType":"bool"}],"stateMutability":"view"},{"type":"function","name":"removeEntityOperator","inputs":[{"name":"op","type":"address","internalType":"address"}],"outputs":[],"stateMutability":"nonpayable"},{"type":"function","name":"removeLegalOperator","inputs":[{"name":"op","type":"address","internalType":"address"}],"outputs":[],"stateMutability":"nonpayable"},{"type":"function","name":"removeOperator","inputs":[{"name":"op","type":"address","internalType":"address"}],"outputs":[],"stateMutability":"nonpayable"},{"type":"function","name":"removeProofOperator","inputs":[{"name":"op","type":"address","internalType":"address"}],"outputs":[],"stateMutability":"nonpayable"},{"type":"function","name":"setRecoveryAddress","inputs":[{"name":"_newRecovery","type":"address","internalType":"address"}],"outputs":[],"stateMutability":"nonpayable"},{"type":"function","name":"transferOwnership","inputs":[{"name":"newOwner","type":"address","internalType":"address"}],"outputs":[],"stateMutability":"nonpayable"},{"type":"event","name":"Affirmed","inputs":[{"name":"arId","type":"string","indexed":true,"internalType":"string"},{"name":"targetArId","type":"string","indexed":true,"internalType":"string"},{"name":"affirmedBy","type":"string","indexed":false,"internalType":"string"}],"anonymous":false},{"type":"event","name":"Anchored","inputs":[{"name":"arId","type":"string","indexed":true,"internalType":"string"},{"name":"registrant","type":"address","indexed":true,"internalType":"address"},{"name":"artifactType","type":"uint8","indexed":false,"internalType":"enum ArtifactType"},{"name":"arIdPlain","type":"string","indexed":false,"internalType":"string"},{"name":"descriptor","type":"string","indexed":false,"internalType":"string"},{"name":"title","type":"string","indexed":false,"internalType":"string"},{"name":"author","type":"string","indexed":false,"internalType":"string"},{"name":"manifestHash","type":"string","indexed":false,"internalType":"string"},{"name":"parentArId","type":"string","indexed":false,"internalType":"string"},{"name":"treeId","type":"string","indexed":false,"internalType":"string"}],"anonymous":false},{"type":"event","name":"EntityOperatorAdded","inputs":[{"name":"operator","type":"address","indexed":true,"internalType":"address"}],"anonymous":false},{"type":"event","name":"EntityOperatorRemoved","inputs":[{"name":"operator","type":"address","indexed":true,"internalType":"address"}],"anonymous":false},{"type":"event","name":"LegalOperatorAdded","inputs":[{"name":"operator","type":"address","indexed":true,"internalType":"address"}],"anonymous":false},{"type":"event","name":"LegalOperatorRemoved","inputs":[{"name":"operator","type":"address","indexed":true,"internalType":"address"}],"anonymous":false},{"type":"event","name":"OperatorAdded","inputs":[{"name":"operator","type":"address","indexed":true,"internalType":"address"}],"anonymous":false},{"type":"event","name":"OperatorRemoved","inputs":[{"name":"operator","type":"address","indexed":true,"internalType":"address"}],"anonymous":false},{"type":"event","name":"OwnershipTransferred","inputs":[{"name":"previousOwner","type":"address","indexed":true,"internalType":"address"},{"name":"newOwner","type":"address","indexed":true,"internalType":"address"}],"anonymous":false},{"type":"event","name":"ProofOperatorAdded","inputs":[{"name":"operator","type":"address","indexed":true,"internalType":"address"}],"anonymous":false},{"type":"event","name":"ProofOperatorRemoved","inputs":[{"name":"operator","type":"address","indexed":true,"internalType":"address"}],"anonymous":false},{"type":"event","name":"RecoveryAddressUpdated","inputs":[{"name":"newRecoveryAddress","type":"address","indexed":true,"internalType":"address"}],"anonymous":false},{"type":"event","name":"RecoveryCancelled","inputs":[],"anonymous":false},{"type":"event","name":"RecoveryExecuted","inputs":[{"name":"newOwner","type":"address","indexed":true,"internalType":"address"}],"anonymous":false},{"type":"event","name":"RecoveryInitiated","inputs":[{"name":"recoveryAddress","type":"address","indexed":true,"internalType":"address"},{"name":"pendingOwner","type":"address","indexed":true,"internalType":"address"}],"anonymous":false},{"type":"event","name":"Retracted","inputs":[{"name":"arId","type":"string","indexed":true,"internalType":"string"},{"name":"targetArId","type":"string","indexed":true,"internalType":"string"},{"name":"replacedBy","type":"string","indexed":false,"internalType":"string"}],"anonymous":false},{"type":"event","name":"Reviewed","inputs":[{"name":"arId","type":"string","indexed":true,"internalType":"string"},{"name":"targetArId","type":"string","indexed":true,"internalType":"string"},{"name":"reviewType","type":"string","indexed":false,"internalType":"string"},{"name":"evidenceUrl","type":"string","indexed":false,"internalType":"string"}],"anonymous":false},{"type":"event","name":"Voided","inputs":[{"name":"arId","type":"string","indexed":true,"internalType":"string"},{"name":"targetArId","type":"string","indexed":true,"internalType":"string"},{"name":"reviewArId","type":"string","indexed":true,"internalType":"string"},{"name":"evidence","type":"string","indexed":false,"internalType":"string"}],"anonymous":false},{"type":"error","name":"AlreadyRegistered","inputs":[{"name":"arId","type":"string","internalType":"string"}]},{"type":"error","name":"EmptyArId","inputs":[]},{"type":"error","name":"EmptyManifestHash","inputs":[]},{"type":"error","name":"EmptyTargetArId","inputs":[]},{"type":"error","name":"InsufficientCapacity","inputs":[]},{"type":"error","name":"InvalidArtifactType","inputs":[]},{"type":"error","name":"InvalidParent","inputs":[{"name":"parentArId","type":"string","internalType":"string"}]},{"type":"error","name":"InvalidTarget","inputs":[{"name":"targetArId","type":"string","internalType":"string"}]},{"type":"error","name":"NotEntityOperator","inputs":[]},{"type":"error","name":"NotLegalOperator","inputs":[]},{"type":"error","name":"NotOperator","inputs":[]},{"type":"error","name":"NotOwner","inputs":[]},{"type":"error","name":"NotProofOperator","inputs":[]},{"type":"error","name":"NotRecoveryAddress","inputs":[]},{"type":"error","name":"RecoveryDelayNotMet","inputs":[]},{"type":"error","name":"RecoveryLockedOut","inputs":[]},{"type":"error","name":"RecoveryNotInitiated","inputs":[]},{"type":"error","name":"ZeroAddress","inputs":[]}],"bytecode":{"object":"0x6080346100b657601f611e8038819003918201601f19168301916001600160401b038311848410176100ba578084926020946040528339810103126100b657516001600160a01b038116908190036100b65780156100a45760018060a01b031933815f5416175f556001541617600155604051335f7f8be0079c531659141344cd1fd0a4f28419497f9722a3daafe3b4186f6b6457e08180a3611db190816100cf8239f35b60405163d92e233d60e01b8152600490fd5b5f80fd5b634e487b7160e01b5f52604160045260245ffdfe608060409080825260049081361015610016575f80fd5b5f3560e01c9081630ba234d61461175d5750806313e7c9d81461171e578063207273811461170057806320c5a3e114611630578063397c9a3a146115bf578063402cef1b1461158057806345f65cfa1461150c57806347b456521461145a57806347be22fa146114ee57806349efe5ae1461145f578063561ea99c1461145a5780635d2d5c37146113fa5780635f2f89e1146112fb5780635fe11a9b146112975780636ae0dd9c146112585780636b6797c9146111e45780636ba60e7114611179578063710eb26c1461115157806383d16dca1461093e5780638da5cb5b146109175780639555824c1461072f5780639870d7fe146106ad578063ac8a584a14610642578063b643fcb3146105d7578063b6e3a9dc14610562578063b91ef08414610523578063be708ef41461032d578063d5ce9aad14610291578063ddf841a91461021b578063e30c3978146101f35763f2fde38b14610175575f80fd5b346101ef5760203660031901126101ef576001600160a01b038135818116939192908490036101ef575f54928316918233036101e25784156101d557505082905f80516020611d3c8339815191525f80a36001600160a01b031916175f55005b5163d92e233d60e01b8152fd5b516330cd747160e01b8152fd5b5f80fd5b82346101ef575f3660031901126101ef5760085490516001600160a01b039091168152602090f35b5090346101ef5760203660031901126101ef5781356001600160a01b0381811693918490036101ef575f5416330361028357825f526020525f2060ff1981541690557fb3995d3ad0a4cb17193137b6b470c2eda6bbf6d63f3d135f197fc4cdeedc27905f80a2005b90516330cd747160e01b8152fd5b5090346101ef5760203660031901126101ef5781356001600160a01b0381811693918490036101ef5760015416918233036103205783156101d5576007544210610313575050600880546001600160a01b03191683179055426006557fe7eb1bf44bc7e6084d5d89f19e76a2b46fed60ff3eb9e650f3db79a386391c615f80a3005b516333ca6ceb60e21b8152fd5b516320a6214d60e21b8152fd5b5090346101ef5761033d3661192a565b959194859493943560178110156101ef57600e81036104c15750335f52600360205260ff815f205416156104b2575b610377868686611a60565b51908484833760098583019081528290036020908101909220926001600160401b03881161049f57506103aa8354611991565b601f811161045c575b505f91601f88116001146103f457506103e796915f91836103e9575b50508160011b915f199060031b1c1916179055611b5d565b005b013590505f806103cf565b91601f198816845f52835f20935f905b8282106104445750509160019391896103e79a941061042b575b505050811b019055611b5d565b01355f19600384901b60f8161c191690555f808061041e565b80600185978294968801358155019601930190610404565b835f52825f20601f890160051c810191848a10610495575b601f0160051c01905b81811061048a57506103b3565b5f815560010161047d565b9091508190610474565b604190634e487b7160e01b5f525260245ffd5b51633b4d583360e21b81529050fd5b600f81036104eb5750335f528260205260ff815f20541661036c575163ebee8ba760e01b81529050fd5b60100361051457335f52600560205260ff815f20541661036c575163b601a68d60e01b81529050fd5b5163cd18e00760e01b81529050fd5b50346101ef5760203660031901126101ef57356001600160a01b03811691908290036101ef576020915f526003825260ff815f20541690519015158152f35b5090346101ef575f3660031901126101ef578051908181016001600160401b038111838210176105c4576105c093508152600e82526d61722d6f70657261746f722d763160901b6020830152519182916020835260208301906118e4565b0390f35b604184634e487b7160e01b5f525260245ffd5b5090346101ef5760203660031901126101ef5781356001600160a01b0381811693918490036101ef575f541633036102835750815f5260056020525f2060ff1981541690557fc28840c72026297551adaf2f67ff2d6aca1b2c4ed12cf5023d94ba7076e75a095f80a2005b5090346101ef5760203660031901126101ef5781356001600160a01b0381811693918490036101ef575f541633036102835750815f5260026020525f2060ff1981541690557f80c0b871b97b595b16a7741c1b06fed0c6f6f558639f18ccbce50724325dc40d5f80a2005b5090346101ef5760203660031901126101ef5781356001600160a01b0381811693918490036101ef575f541633036102835782156107215750815f5260026020525f20600160ff198254161790557fac6fa858e9350a46cec16539926e0fde25b7629f84b5a72bffaae4df888ae86d5f80a2005b905163d92e233d60e01b8152fd5b5090346101ef5761073f3661192a565b95919490939293335f526020916002835260ff815f2054161561090857863560178110156101ef575f600d8211806108fb575b81816108d7575b506108c7576108b457601514610890575b610795878787611a60565b5185858237600986820190815281900383019020926001600160401b03881161049f57506107c38354611991565b601f811161084d575b505f91601f88116001146107ff57506103e796915f91836103e95750508160011b915f199060031b1c1916179055611b5d565b91601f198816845f52835f20935f905b8282106108355750509160019391896103e79a941061042b57505050811b019055611b5d565b8060018597829496880135815501960193019061080f565b835f52825f20601f890160051c810191848a10610886575b601f0160051c01905b81811061087b57506107cc565b5f815560010161086e565b9091508190610865565b828289810103126101ef57600a8235101561078a5751632e77ac1d60e11b81528390fd5b602185634e487b7160e01b5f525260245ffd5b825163cd18e00760e01b81528690fd5b90506108e857601682141581610779565b602186634e487b7160e01b5f525260245ffd5b50505f6015821415610772565b51631f0853c160e21b81528390fd5b82346101ef575f3660031901126101ef575f5490516001600160a01b039091168152602090f35b5090346101ef576003196080368201126101ef576001600160401b039280358481116101ef5761097190369083016118b7565b906024918235948786116101ef5760e09086860196360301126101ef576044358781116101ef576109a590369086016118b7565b9290956064358981116101ef576109bf90369088016118b7565b999099335f526020966002885260ff8b5f2054161561114157833560178110156101ef575f601182108015611135575b611125576109fe868989611a60565b88156111155760ff8c8a8f519182378b818c8101600b8152030190205416156110f1576110de5760118103610bcc5750610a3a828d018d6119c9565b9990508b518787823789818981016009815203019020938311610bbb575050610a638254611991565b601f8111610b78575b505f601f8211600114610afb579181610aeb9796959492610aba945f80516020611d5c8339815191529c9d9e5f92610af0575b50508160011b915f199060031b1c19161790555b8383611b5d565b818951928392833781015f815203902095818851928392833781015f815203902095519282849384528301906118e4565b0390a3005b013590505f80610a9f565b601f19821690835f52885f20915f5b818110610b61575092610aba94925f80516020611d5c8339815191529c9d9e60019383610aeb9c9b9a999710610b48575b505050811b019055610ab3565b01355f19600384901b60f8161c191690555f8080610b3b565b8e8301358455600190930192918a01918a01610b0a565b825f52875f20601f830160051c810191898410610bb1575b601f0160051c01905b818110610ba65750610a6c565b5f8155600101610b99565b9091508190610b90565b604190634e487b7160e01b5f52525ffd5b979b909a9760128103610d545750610be6828201826119c9565b9b90998d8a519089898337818a81016009815203019020948411610bbb5750508b610c118454611991565b601f8111610d0f575b50505f90601f8311600114610cab579282610c69935f80516020611cfc8339815191529c9d9e989693610aeb9a98965f92610af05750508160011b915f199060031b1c19161790558383611b5d565b818651928392833781015f815203902096818551928392833781015f815203902096610c9e84519585879687528601906118e4565b91848303908501526118e4565b601f19831691845f528d5f20925f5b818110610cf85750935f80516020611cfc8339815191529c9d9e989693610aeb9a98969360019383610c699810610b4857505050811b019055610ab3565b91938f600181928787013581550195019201610cba565b845f52815f2090601f850160051c8201928510610d4a575b601f0160051c01905b818110610d3f578d9150610c1a565b5f8155600101610d30565b9091508190610d27565b6013909c979695949392919a999c9b989b145f14610fa557808a01996060818c03126101ef5780358381116101ef578b610d8f918301611841565b9a888201358481116101ef5781610da7918401611841565b508c820135908482116101ef57610dbf918301611841565b988b5115610f95578c9d8c8a809c9d9e9f5182818094519e8f92019e8f91610de692611896565b8101600b8152030190205460ff1615610f70578e51888882378b818a81016009815203019020948411610bbb575050610e1f8354611991565b601f8111610f2d575b505f90601f8311600114610ec55793610eab9693835f80516020611d1c8339815191529c9b9a9794610e7994610ec09b985f92610af05750508160011b915f199060031b1c19161790558383611b5d565b818c51928392833781015f815203902097818b51928392833781015f8152039020978951928392839251928391611896565b810103902096519282849384528301906118e4565b0390a4005b601f19831691845f528a5f20925f5b818110610f16575084610e7994610ec09b98945f80516020611d1c8339815191529f9e9d9a9794610eab9c999560019510610b4857505050811b019055610ab3565b91938c600181928787013581550195019201610ed4565b835f52895f20601f840160051c8101918b8510610f66575b601f0160051c01905b818110610f5b5750610e28565b5f8155600101610f4e565b9091508190610f45565b8e5163e3d1895f60e01b81529081018b9052908190610f919082018f6118e4565b0390fd5b8c51631a2f07d160e01b81528e90fd5b90919293949596610fbb828b9d9a9b018d6119c9565b50988b518787823789818981016009815203019020938311610bbb575050610fe38254611991565b601f811161109b575b505f601f8211600114611038579181610aeb9796959492610aba945f80516020611cdc8339815191529c9d9e5f92610af05750508160011b915f199060031b1c19161790558383611b5d565b601f19821690835f52885f20915f5b818110611084575092610aba94925f80516020611cdc8339815191529c9d9e60019383610aeb9c9b9a999710610b4857505050811b019055610ab3565b8e8301358455600190930192918a01918a01611047565b825f52875f20601f830160051c8101918984106110d4575b601f0160051c01905b8181106110c95750610fec565b5f81556001016110bc565b90915081906110b3565b50634e487b7160e01b5f90815260218a52fd5b50508a5163e3d1895f60e01b8152808a01899052908190610f91908201898d611a40565b8c51631a2f07d160e01b81528b90fd5b8c5163cd18e00760e01b81528b90fd5b50505f601482116109ef565b8a51631f0853c160e21b81528990fd5b82346101ef575f3660031901126101ef5760015490516001600160a01b039091168152602090f35b5090346101ef5760203660031901126101ef5781356001600160a01b0381811693918490036101ef575f541633036102835750815f5260036020525f2060ff1981541690557f6b66d1bba82a11aca959b4321a690cd67c826fb136617127d12973beb6957b335f80a2005b5090346101ef5760203660031901126101ef5781356001600160a01b0381811693918490036101ef575f541633036102835782156107215750815f5260056020525f20600160ff198254161790557f5bfe4ffbe756ad2df32059678eca22cadff8ecb3440f958eae6ff7b2d436e1ba5f80a2005b5090346101ef5760203660031901126101ef5781356001600160a01b03811692908390036101ef576020925f52825260ff815f20541690519015158152f35b5090346101ef5760203660031901126101ef5781356001600160401b0381116101ef5760ff6112e460206112d281966112f995369101611841565b81865193828580945193849201611896565b8101600a815203019020541691518092611909565bf35b50346101ef57602090816003193601126101ef5780356001600160401b0381116101ef57829161132d913691016118b7565b919082855193849283378101600981520301902091805180935f90805461135381611991565b91828552600191876001821691825f146113d3575050600114611393575b5050506105c0929161138491038561180a565b519282849384528301906118e4565b8693505f92919252825f20915f925b8284106113bb57505050820101816113846105c0611371565b8054848a0186015288955087949093019281016113a2565b60ff19168782015293151560051b8601909301935084925061138491506105c09050611371565b5090346101ef5760203660031901126101ef578135916001600160401b0383116101ef57611445602061143360ff938296369101611841565b81855193828580945193849201611896565b8101600b815203019020541690519015158152f35b6117ed565b5090346101ef5760203660031901126101ef576001600160a01b03823581811692908390036101ef5760015491821633036114df5782156114d057506001600160a01b03191681176001557f83c14e1947c5a639434d6195a6e9d85ab3471a5049c66e0aa46b71e2c0a06dde5f80a2005b5163d92e233d60e01b81528390fd5b516320a6214d60e21b81528390fd5b82346101ef575f3660031901126101ef576020906007549051908152f35b5090346101ef5760203660031901126101ef5781356001600160a01b0381811693918490036101ef575f541633036102835782156107215750815f5260036020525f20600160ff198254161790557f6d52a43c5decf356b1093e9f3b6beb1eb8f9f3f333a8f13171e1d89c143c45755f80a2005b50346101ef5760203660031901126101ef57356001600160a01b03811691908290036101ef576020915f526005825260ff815f20541690519015158152f35b5090346101ef5760203660031901126101ef5781356001600160a01b0381811693918490036101ef575f5416330361028357821561072157825f526020525f20600160ff198254161790557f65e52bd3fb1902d00941506c0a765dfad293c8c4d5851c7a4dc55ad5d60ff5e35f80a2005b50346101ef575f3660031901126101ef576001546001600160a01b039290831633036103205760065480156116f25762093a8081018091116116df5742106116d257825f54600854828116809383165f80516020611d3c8339815191525f80a36001600160a01b031991821683175f908155911660085560068190557ffcd2de31341801b7fd80895c780aae50c1505fd674ff1b9b9764c56c633434d69080a2005b51634b362d4f60e01b8152fd5b601183634e487b7160e01b5f525260245ffd5b505163078591a760e11b8152fd5b82346101ef575f3660031901126101ef576020906006549051908152f35b50346101ef5760203660031901126101ef57356001600160a01b03811691908290036101ef576020915f526002825260ff815f20541690519015158152f35b9050346101ef575f3660031901126101ef575f546001600160a01b031633036117e15750600880546001600160a01b03191690555f6006554262093a808101919082106117ce57506007557fedd770ee01b7c0ef4f503125eafdc2725536cbf32342dffcaa300d95a7cafce35f80a1005b601190634e487b7160e01b5f525260245ffd5b6330cd747160e01b8152fd5b346101ef575f3660031901126101ef57602060405162093a808152f35b601f909101601f19168101906001600160401b0382119082101761182d57604052565b634e487b7160e01b5f52604160045260245ffd5b81601f820112156101ef578035906001600160401b03821161182d5760405192611875601f8401601f19166020018561180a565b828452602083830101116101ef57815f926020809301838601378301015290565b5f5b8381106118a75750505f910152565b8181015183820152602001611898565b9181601f840112156101ef578235916001600160401b0383116101ef57602083818601950101116101ef57565b906020916118fd81518092818552858086019101611896565b601f01601f1916010190565b9060178210156119165752565b634e487b7160e01b5f52602160045260245ffd5b600319906060818301126101ef576001600160401b03926004358481116101ef5782611958916004016118b7565b94909493602435908282116101ef5760e09082860301126101ef57600401926044359182116101ef5761198d916004016118b7565b9091565b90600182811c921680156119bf575b60208310146119ab57565b634e487b7160e01b5f52602260045260245ffd5b91607f16916119a0565b9190916040818403126101ef576001600160401b039281358481116101ef57816119f4918401611841565b9360208301359081116101ef57611a0b9201611841565b90565b903590601e19813603018212156101ef57018035906001600160401b0382116101ef576020019181360383136101ef57565b908060209392818452848401375f828201840152601f01601f1916010190565b908015611b4b57611a746020840184611a0e565b905015611b395760ff60405182848237602081848101600b8152030190205416611b155750506040810190611aa98282611a0e565b9050151580611ae9575b611abb575050565b611ac59250611a0e565b610f9160405192839263805de86960e01b8452602060048501526024840191611a40565b5060ff6020611af88484611a0e565b91908260405193849283378101600b815203019020541615611ab3565b610f9160405192839263029e8f5f60e21b8452602060048501526024840191611a40565b6040516346829b8560e01b8152600490fd5b604051630dd088e760e01b8152600490fd5b909160405183838237602081858101600b81520301902060ff199060018282541617905581359060178210156101ef57849284916040518584823780868101600a81520360200190209081541660ff851617905560608101611bbf9082611a0e565b90611bcd6080840184611a0e565b90611bdb60a0860186611a0e565b9091611bea6020880188611a0e565b94909560408901611bfb908a611a0e565b98909960c08101611c0b91611a0e565b9f909b81604051928392833781015f81520390209d6040519d8e809e819061010092611c3691611909565b8160208201520190611c4792611a40565b908c8083039060400152611c5a92611a40565b908a820360608c0152611c6c92611a40565b9088820360808a0152611c7e92611a40565b9086820360a0880152611c9092611a40565b9084820360c0860152611ca292611a40565b82810360e08401523395611cb592611a40565b037f6425ba460ad4eeed7b9429a92916324281ddeca07590245e131b03374f7a05e491a356fea62ae18c8132954544e02a502215888bdc7d7df53e52873d79a81f91544f2dba4c008f49c3178c1ce0fb3c86aed7d2e80aca376ed1476947ca5a220f45e9a50807c9fc4ac9266376cb17afdcee0f23f0f5abaf32dab736c7d891c595d39725bd8be0079c531659141344cd1fd0a4f28419497f9722a3daafe3b4186f6b6457e0af0c98c5c4879ef897a044cdac758c7bd233c9d4ac8cdbb360f44280e7b0047da264697066735822122007f3c64906ecfbf525a117b3b6a4bcf484e55c9ddfa87d8489c9e591413e46fb64736f6c63430008180033","linkReferences":{}},"methodIdentifiers":{"AR_TREE_ID()":"b6e3a9dc","RECOVERY_DELAY()":"47b45652","RECOVERY_LOCKOUT()":"561ea99c","addEntityOperator(address)":"397c9a3a","addLegalOperator(address)":"45f65cfa","addOperator(address)":"9870d7fe","addProofOperator(address)":"6b6797c9","anchorTypes(string)":"5fe11a9b","cancelRecovery()":"0ba234d6","entityOperators(address)":"6ae0dd9c","executeRecovery()":"20c5a3e1","getAnchorData(string)":"5f2f89e1","initiateRecovery(address)":"d5ce9aad","legalOperators(address)":"b91ef084","operators(address)":"13e7c9d8","owner()":"8da5cb5b","pendingOwner()":"e30c3978","proofOperators(address)":"402cef1b","recoveryAddress()":"710eb26c","recoveryInitiatedAt()":"20727381","recoveryLockoutUntil()":"47be22fa","registerContent(string,(uint8,string,string,string,string,string,string),bytes)":"9555824c","registerGated(string,(uint8,string,string,string,string,string,string),bytes)":"be708ef4","registerTargeted(string,(uint8,string,string,string,string,string,string),string,bytes)":"83d16dca","registered(string)":"5d2d5c37","removeEntityOperator(address)":"ddf841a9","removeLegalOperator(address)":"6ba60e71","removeOperator(address)":"ac8a584a","removeProofOperator(address)":"b643fcb3","setRecoveryAddress(address)":"49efe5ae","transferOwnership(address)":"f2fde38b"},"id":19}