{"abi":[{"type":"constructor","inputs":[{"name":"_recoveryAddress","type":"address","internalType":"address"}],"stateMutability":"nonpayable"},{"type":"function","name":"RECOVERY_DELAY","inputs":[],"outputs":[{"name":"","type":"uint256","internalType":"uint256"}],"stateMutability":"view"},{"type":"function","name":"RECOVERY_LOCKOUT","inputs":[],"outputs":[{"name":"","type":"uint256","internalType":"uint256"}],"stateMutability":"view"},{"type":"function","name":"addEntityOperator","inputs":[{"name":"op","type":"address","internalType":"address"}],"outputs":[],"stateMutability":"nonpayable"},{"type":"function","name":"addLegalOperator","inputs":[{"name":"op","type":"address","internalType":"address"}],"outputs":[],"stateMutability":"nonpayable"},{"type":"function","name":"addOperator","inputs":[{"name":"op","type":"address","internalType":"address"}],"outputs":[],"stateMutability":"nonpayable"},{"type":"function","name":"addProofOperator","inputs":[{"name":"op","type":"address","internalType":"address"}],"outputs":[],"stateMutability":"nonpayable"},{"type":"function","name":"affirmedAnchors","inputs":[{"name":"","type":"string","internalType":"string"}],"outputs":[{"name":"base","type":"tuple","internalType":"struct AnchorRegistry.AnchorBase","components":[{"name":"artifactType","type":"uint8","internalType":"enum AnchorRegistry.ArtifactType"},{"name":"manifestHash","type":"string","internalType":"string"},{"name":"parentHash","type":"string","internalType":"string"},{"name":"descriptor","type":"string","internalType":"string"}]},{"name":"targetArId","type":"string","internalType":"string"},{"name":"affirmedBy","type":"string","internalType":"string"},{"name":"findingUrl","type":"string","internalType":"string"}],"stateMutability":"view"},{"type":"function","name":"agentAnchors","inputs":[{"name":"","type":"string","internalType":"string"}],"outputs":[{"name":"base","type":"tuple","internalType":"struct AnchorRegistry.AnchorBase","components":[{"name":"artifactType","type":"uint8","internalType":"enum AnchorRegistry.ArtifactType"},{"name":"manifestHash","type":"string","internalType":"string"},{"name":"parentHash","type":"string","internalType":"string"},{"name":"descriptor","type":"string","internalType":"string"}]},{"name":"agentVersion","type":"string","internalType":"string"},{"name":"runtime","type":"string","internalType":"string"},{"name":"capabilities","type":"string","internalType":"string"},{"name":"url","type":"string","internalType":"string"}],"stateMutability":"view"},{"type":"function","name":"cancelRecovery","inputs":[],"outputs":[],"stateMutability":"nonpayable"},{"type":"function","name":"codeAnchors","inputs":[{"name":"","type":"string","internalType":"string"}],"outputs":[{"name":"base","type":"tuple","internalType":"struct AnchorRegistry.AnchorBase","components":[{"name":"artifactType","type":"uint8","internalType":"enum AnchorRegistry.ArtifactType"},{"name":"manifestHash","type":"string","internalType":"string"},{"name":"parentHash","type":"string","internalType":"string"},{"name":"descriptor","type":"string","internalType":"string"}]},{"name":"gitHash","type":"string","internalType":"string"},{"name":"license","type":"string","internalType":"string"},{"name":"language","type":"string","internalType":"string"},{"name":"version","type":"string","internalType":"string"},{"name":"url","type":"string","internalType":"string"}],"stateMutability":"view"},{"type":"function","name":"dataAnchors","inputs":[{"name":"","type":"string","internalType":"string"}],"outputs":[{"name":"base","type":"tuple","internalType":"struct AnchorRegistry.AnchorBase","components":[{"name":"artifactType","type":"uint8","internalType":"enum AnchorRegistry.ArtifactType"},{"name":"manifestHash","type":"string","internalType":"string"},{"name":"parentHash","type":"string","internalType":"string"},{"name":"descriptor","type":"string","internalType":"string"}]},{"name":"dataVersion","type":"string","internalType":"string"},{"name":"format","type":"string","internalType":"string"},{"name":"rowCount","type":"string","internalType":"string"},{"name":"schemaUrl","type":"string","internalType":"string"},{"name":"url","type":"string","internalType":"string"}],"stateMutability":"view"},{"type":"function","name":"entityAnchors","inputs":[{"name":"","type":"string","internalType":"string"}],"outputs":[{"name":"base","type":"tuple","internalType":"struct AnchorRegistry.AnchorBase","components":[{"name":"artifactType","type":"uint8","internalType":"enum AnchorRegistry.ArtifactType"},{"name":"manifestHash","type":"string","internalType":"string"},{"name":"parentHash","type":"string","internalType":"string"},{"name":"descriptor","type":"string","internalType":"string"}]},{"name":"entityType","type":"string","internalType":"string"},{"name":"entityDomain","type":"string","internalType":"string"},{"name":"verificationMethod","type":"string","internalType":"string"},{"name":"verificationProof","type":"string","internalType":"string"},{"name":"canonicalUrl","type":"string","internalType":"string"},{"name":"documentHash","type":"string","internalType":"string"}],"stateMutability":"view"},{"type":"function","name":"entityOperators","inputs":[{"name":"","type":"address","internalType":"address"}],"outputs":[{"name":"","type":"bool","internalType":"bool"}],"stateMutability":"view"},{"type":"function","name":"eventAnchors","inputs":[{"name":"","type":"string","internalType":"string"}],"outputs":[{"name":"base","type":"tuple","internalType":"struct AnchorRegistry.AnchorBase","components":[{"name":"artifactType","type":"uint8","internalType":"enum AnchorRegistry.ArtifactType"},{"name":"manifestHash","type":"string","internalType":"string"},{"name":"parentHash","type":"string","internalType":"string"},{"name":"descriptor","type":"string","internalType":"string"}]},{"name":"executor","type":"string","internalType":"string"},{"name":"eventType","type":"string","internalType":"string"},{"name":"eventDate","type":"string","internalType":"string"},{"name":"location","type":"string","internalType":"string"},{"name":"orchestrator","type":"string","internalType":"string"},{"name":"url","type":"string","internalType":"string"}],"stateMutability":"view"},{"type":"function","name":"executeRecovery","inputs":[],"outputs":[],"stateMutability":"nonpayable"},{"type":"function","name":"initiateRecovery","inputs":[{"name":"_pendingOwner","type":"address","internalType":"address"}],"outputs":[],"stateMutability":"nonpayable"},{"type":"function","name":"legalAnchors","inputs":[{"name":"","type":"string","internalType":"string"}],"outputs":[{"name":"base","type":"tuple","internalType":"struct AnchorRegistry.AnchorBase","components":[{"name":"artifactType","type":"uint8","internalType":"enum AnchorRegistry.ArtifactType"},{"name":"manifestHash","type":"string","internalType":"string"},{"name":"parentHash","type":"string","internalType":"string"},{"name":"descriptor","type":"string","internalType":"string"}]},{"name":"docType","type":"string","internalType":"string"},{"name":"jurisdiction","type":"string","internalType":"string"},{"name":"parties","type":"string","internalType":"string"},{"name":"effectiveDate","type":"string","internalType":"string"},{"name":"url","type":"string","internalType":"string"}],"stateMutability":"view"},{"type":"function","name":"legalOperators","inputs":[{"name":"","type":"address","internalType":"address"}],"outputs":[{"name":"","type":"bool","internalType":"bool"}],"stateMutability":"view"},{"type":"function","name":"mediaAnchors","inputs":[{"name":"","type":"string","internalType":"string"}],"outputs":[{"name":"base","type":"tuple","internalType":"struct AnchorRegistry.AnchorBase","components":[{"name":"artifactType","type":"uint8","internalType":"enum AnchorRegistry.ArtifactType"},{"name":"manifestHash","type":"string","internalType":"string"},{"name":"parentHash","type":"string","internalType":"string"},{"name":"descriptor","type":"string","internalType":"string"}]},{"name":"mediaType","type":"string","internalType":"string"},{"name":"format","type":"string","internalType":"string"},{"name":"duration","type":"string","internalType":"string"},{"name":"isrc","type":"string","internalType":"string"},{"name":"url","type":"string","internalType":"string"}],"stateMutability":"view"},{"type":"function","name":"modelAnchors","inputs":[{"name":"","type":"string","internalType":"string"}],"outputs":[{"name":"base","type":"tuple","internalType":"struct AnchorRegistry.AnchorBase","components":[{"name":"artifactType","type":"uint8","internalType":"enum AnchorRegistry.ArtifactType"},{"name":"manifestHash","type":"string","internalType":"string"},{"name":"parentHash","type":"string","internalType":"string"},{"name":"descriptor","type":"string","internalType":"string"}]},{"name":"modelVersion","type":"string","internalType":"string"},{"name":"architecture","type":"string","internalType":"string"},{"name":"parameters","type":"string","internalType":"string"},{"name":"trainingDataset","type":"string","internalType":"string"},{"name":"url","type":"string","internalType":"string"}],"stateMutability":"view"},{"type":"function","name":"onChainAnchors","inputs":[{"name":"","type":"string","internalType":"string"}],"outputs":[{"name":"base","type":"tuple","internalType":"struct AnchorRegistry.AnchorBase","components":[{"name":"artifactType","type":"uint8","internalType":"enum AnchorRegistry.ArtifactType"},{"name":"manifestHash","type":"string","internalType":"string"},{"name":"parentHash","type":"string","internalType":"string"},{"name":"descriptor","type":"string","internalType":"string"}]},{"name":"chainId","type":"string","internalType":"string"},{"name":"assetType","type":"string","internalType":"string"},{"name":"contractAddress","type":"string","internalType":"string"},{"name":"txHash","type":"string","internalType":"string"},{"name":"tokenId","type":"string","internalType":"string"},{"name":"blockNumber","type":"string","internalType":"string"},{"name":"url","type":"string","internalType":"string"}],"stateMutability":"view"},{"type":"function","name":"operators","inputs":[{"name":"","type":"address","internalType":"address"}],"outputs":[{"name":"","type":"bool","internalType":"bool"}],"stateMutability":"view"},{"type":"function","name":"otherAnchors","inputs":[{"name":"","type":"string","internalType":"string"}],"outputs":[{"name":"base","type":"tuple","internalType":"struct AnchorRegistry.AnchorBase","components":[{"name":"artifactType","type":"uint8","internalType":"enum AnchorRegistry.ArtifactType"},{"name":"manifestHash","type":"string","internalType":"string"},{"name":"parentHash","type":"string","internalType":"string"},{"name":"descriptor","type":"string","internalType":"string"}]},{"name":"kind","type":"string","internalType":"string"},{"name":"platform","type":"string","internalType":"string"},{"name":"url","type":"string","internalType":"string"},{"name":"value","type":"string","internalType":"string"}],"stateMutability":"view"},{"type":"function","name":"owner","inputs":[],"outputs":[{"name":"","type":"address","internalType":"address"}],"stateMutability":"view"},{"type":"function","name":"pendingOwner","inputs":[],"outputs":[{"name":"","type":"address","internalType":"address"}],"stateMutability":"view"},{"type":"function","name":"postAnchors","inputs":[{"name":"","type":"string","internalType":"string"}],"outputs":[{"name":"base","type":"tuple","internalType":"struct AnchorRegistry.AnchorBase","components":[{"name":"artifactType","type":"uint8","internalType":"enum AnchorRegistry.ArtifactType"},{"name":"manifestHash","type":"string","internalType":"string"},{"name":"parentHash","type":"string","internalType":"string"},{"name":"descriptor","type":"string","internalType":"string"}]},{"name":"platform","type":"string","internalType":"string"},{"name":"postId","type":"string","internalType":"string"},{"name":"postDate","type":"string","internalType":"string"},{"name":"url","type":"string","internalType":"string"}],"stateMutability":"view"},{"type":"function","name":"proofAnchors","inputs":[{"name":"","type":"string","internalType":"string"}],"outputs":[{"name":"base","type":"tuple","internalType":"struct AnchorRegistry.AnchorBase","components":[{"name":"artifactType","type":"uint8","internalType":"enum AnchorRegistry.ArtifactType"},{"name":"manifestHash","type":"string","internalType":"string"},{"name":"parentHash","type":"string","internalType":"string"},{"name":"descriptor","type":"string","internalType":"string"}]},{"name":"proofType","type":"string","internalType":"string"},{"name":"proofSystem","type":"string","internalType":"string"},{"name":"circuitId","type":"string","internalType":"string"},{"name":"vkeyHash","type":"string","internalType":"string"},{"name":"auditFirm","type":"string","internalType":"string"},{"name":"auditScope","type":"string","internalType":"string"},{"name":"verifierUrl","type":"string","internalType":"string"},{"name":"reportUrl","type":"string","internalType":"string"},{"name":"proofHash","type":"string","internalType":"string"}],"stateMutability":"view"},{"type":"function","name":"proofOperators","inputs":[{"name":"","type":"address","internalType":"address"}],"outputs":[{"name":"","type":"bool","internalType":"bool"}],"stateMutability":"view"},{"type":"function","name":"receiptAnchors","inputs":[{"name":"","type":"string","internalType":"string"}],"outputs":[{"name":"base","type":"tuple","internalType":"struct AnchorRegistry.AnchorBase","components":[{"name":"artifactType","type":"uint8","internalType":"enum AnchorRegistry.ArtifactType"},{"name":"manifestHash","type":"string","internalType":"string"},{"name":"parentHash","type":"string","internalType":"string"},{"name":"descriptor","type":"string","internalType":"string"}]},{"name":"receiptType","type":"string","internalType":"string"},{"name":"merchant","type":"string","internalType":"string"},{"name":"amount","type":"string","internalType":"string"},{"name":"currency","type":"string","internalType":"string"},{"name":"orderId","type":"string","internalType":"string"},{"name":"platform","type":"string","internalType":"string"},{"name":"url","type":"string","internalType":"string"}],"stateMutability":"view"},{"type":"function","name":"recoveryAddress","inputs":[],"outputs":[{"name":"","type":"address","internalType":"address"}],"stateMutability":"view"},{"type":"function","name":"recoveryInitiatedAt","inputs":[],"outputs":[{"name":"","type":"uint256","internalType":"uint256"}],"stateMutability":"view"},{"type":"function","name":"recoveryLockoutUntil","inputs":[],"outputs":[{"name":"","type":"uint256","internalType":"uint256"}],"stateMutability":"view"},{"type":"function","name":"registerAffirmed","inputs":[{"name":"arId","type":"string","internalType":"string"},{"name":"base","type":"tuple","internalType":"struct AnchorRegistry.AnchorBase","components":[{"name":"artifactType","type":"uint8","internalType":"enum AnchorRegistry.ArtifactType"},{"name":"manifestHash","type":"string","internalType":"string"},{"name":"parentHash","type":"string","internalType":"string"},{"name":"descriptor","type":"string","internalType":"string"}]},{"name":"targetArId","type":"string","internalType":"string"},{"name":"affirmedBy","type":"string","internalType":"string"},{"name":"findingUrl","type":"string","internalType":"string"}],"outputs":[],"stateMutability":"nonpayable"},{"type":"function","name":"registerAgent","inputs":[{"name":"arId","type":"string","internalType":"string"},{"name":"base","type":"tuple","internalType":"struct AnchorRegistry.AnchorBase","components":[{"name":"artifactType","type":"uint8","internalType":"enum AnchorRegistry.ArtifactType"},{"name":"manifestHash","type":"string","internalType":"string"},{"name":"parentHash","type":"string","internalType":"string"},{"name":"descriptor","type":"string","internalType":"string"}]},{"name":"agentVersion","type":"string","internalType":"string"},{"name":"runtime","type":"string","internalType":"string"},{"name":"capabilities","type":"string","internalType":"string"},{"name":"url","type":"string","internalType":"string"}],"outputs":[],"stateMutability":"nonpayable"},{"type":"function","name":"registerCode","inputs":[{"name":"arId","type":"string","internalType":"string"},{"name":"base","type":"tuple","internalType":"struct AnchorRegistry.AnchorBase","components":[{"name":"artifactType","type":"uint8","internalType":"enum AnchorRegistry.ArtifactType"},{"name":"manifestHash","type":"string","internalType":"string"},{"name":"parentHash","type":"string","internalType":"string"},{"name":"descriptor","type":"string","internalType":"string"}]},{"name":"gitHash","type":"string","internalType":"string"},{"name":"license","type":"string","internalType":"string"},{"name":"language","type":"string","internalType":"string"},{"name":"version","type":"string","internalType":"string"},{"name":"url","type":"string","internalType":"string"}],"outputs":[],"stateMutability":"nonpayable"},{"type":"function","name":"registerData","inputs":[{"name":"arId","type":"string","internalType":"string"},{"name":"base","type":"tuple","internalType":"struct AnchorRegistry.AnchorBase","components":[{"name":"artifactType","type":"uint8","internalType":"enum AnchorRegistry.ArtifactType"},{"name":"manifestHash","type":"string","internalType":"string"},{"name":"parentHash","type":"string","internalType":"string"},{"name":"descriptor","type":"string","internalType":"string"}]},{"name":"dataVersion","type":"string","internalType":"string"},{"name":"format","type":"string","internalType":"string"},{"name":"rowCount","type":"string","internalType":"string"},{"name":"schemaUrl","type":"string","internalType":"string"},{"name":"url","type":"string","internalType":"string"}],"outputs":[],"stateMutability":"nonpayable"},{"type":"function","name":"registerEntity","inputs":[{"name":"arId","type":"string","internalType":"string"},{"name":"base","type":"tuple","internalType":"struct AnchorRegistry.AnchorBase","components":[{"name":"artifactType","type":"uint8","internalType":"enum AnchorRegistry.ArtifactType"},{"name":"manifestHash","type":"string","internalType":"string"},{"name":"parentHash","type":"string","internalType":"string"},{"name":"descriptor","type":"string","internalType":"string"}]},{"name":"entityType","type":"string","internalType":"string"},{"name":"entityDomain","type":"string","internalType":"string"},{"name":"verificationMethod","type":"string","internalType":"string"},{"name":"verificationProof","type":"string","internalType":"string"},{"name":"canonicalUrl","type":"string","internalType":"string"},{"name":"documentHash","type":"string","internalType":"string"}],"outputs":[],"stateMutability":"nonpayable"},{"type":"function","name":"registerEvent","inputs":[{"name":"arId","type":"string","internalType":"string"},{"name":"base","type":"tuple","internalType":"struct AnchorRegistry.AnchorBase","components":[{"name":"artifactType","type":"uint8","internalType":"enum AnchorRegistry.ArtifactType"},{"name":"manifestHash","type":"string","internalType":"string"},{"name":"parentHash","type":"string","internalType":"string"},{"name":"descriptor","type":"string","internalType":"string"}]},{"name":"executor","type":"string","internalType":"string"},{"name":"eventType","type":"string","internalType":"string"},{"name":"eventDate","type":"string","internalType":"string"},{"name":"location","type":"string","internalType":"string"},{"name":"orchestrator","type":"string","internalType":"string"},{"name":"url","type":"string","internalType":"string"}],"outputs":[],"stateMutability":"nonpayable"},{"type":"function","name":"registerLegal","inputs":[{"name":"arId","type":"string","internalType":"string"},{"name":"base","type":"tuple","internalType":"struct AnchorRegistry.AnchorBase","components":[{"name":"artifactType","type":"uint8","internalType":"enum AnchorRegistry.ArtifactType"},{"name":"manifestHash","type":"string","internalType":"string"},{"name":"parentHash","type":"string","internalType":"string"},{"name":"descriptor","type":"string","internalType":"string"}]},{"name":"docType","type":"string","internalType":"string"},{"name":"jurisdiction","type":"string","internalType":"string"},{"name":"parties","type":"string","internalType":"string"},{"name":"effectiveDate","type":"string","internalType":"string"},{"name":"url","type":"string","internalType":"string"}],"outputs":[],"stateMutability":"nonpayable"},{"type":"function","name":"registerMedia","inputs":[{"name":"arId","type":"string","internalType":"string"},{"name":"base","type":"tuple","internalType":"struct AnchorRegistry.AnchorBase","components":[{"name":"artifactType","type":"uint8","internalType":"enum AnchorRegistry.ArtifactType"},{"name":"manifestHash","type":"string","internalType":"string"},{"name":"parentHash","type":"string","internalType":"string"},{"name":"descriptor","type":"string","internalType":"string"}]},{"name":"mediaType","type":"string","internalType":"string"},{"name":"format","type":"string","internalType":"string"},{"name":"duration","type":"string","internalType":"string"},{"name":"isrc","type":"string","internalType":"string"},{"name":"url","type":"string","internalType":"string"}],"outputs":[],"stateMutability":"nonpayable"},{"type":"function","name":"registerModel","inputs":[{"name":"arId","type":"string","internalType":"string"},{"name":"base","type":"tuple","internalType":"struct AnchorRegistry.AnchorBase","components":[{"name":"artifactType","type":"uint8","internalType":"enum AnchorRegistry.ArtifactType"},{"name":"manifestHash","type":"string","internalType":"string"},{"name":"parentHash","type":"string","internalType":"string"},{"name":"descriptor","type":"string","internalType":"string"}]},{"name":"modelVersion","type":"string","internalType":"string"},{"name":"architecture","type":"string","internalType":"string"},{"name":"parameters","type":"string","internalType":"string"},{"name":"trainingDataset","type":"string","internalType":"string"},{"name":"url","type":"string","internalType":"string"}],"outputs":[],"stateMutability":"nonpayable"},{"type":"function","name":"registerOnChain","inputs":[{"name":"arId","type":"string","internalType":"string"},{"name":"base","type":"tuple","internalType":"struct AnchorRegistry.AnchorBase","components":[{"name":"artifactType","type":"uint8","internalType":"enum AnchorRegistry.ArtifactType"},{"name":"manifestHash","type":"string","internalType":"string"},{"name":"parentHash","type":"string","internalType":"string"},{"name":"descriptor","type":"string","internalType":"string"}]},{"name":"chainId","type":"string","internalType":"string"},{"name":"assetType","type":"string","internalType":"string"},{"name":"contractAddress","type":"string","internalType":"string"},{"name":"txHash","type":"string","internalType":"string"},{"name":"tokenId","type":"string","internalType":"string"},{"name":"blockNumber","type":"string","internalType":"string"},{"name":"url","type":"string","internalType":"string"}],"outputs":[],"stateMutability":"nonpayable"},{"type":"function","name":"registerOther","inputs":[{"name":"arId","type":"string","internalType":"string"},{"name":"base","type":"tuple","internalType":"struct AnchorRegistry.AnchorBase","components":[{"name":"artifactType","type":"uint8","internalType":"enum AnchorRegistry.ArtifactType"},{"name":"manifestHash","type":"string","internalType":"string"},{"name":"parentHash","type":"string","internalType":"string"},{"name":"descriptor","type":"string","internalType":"string"}]},{"name":"kind","type":"string","internalType":"string"},{"name":"platform","type":"string","internalType":"string"},{"name":"url","type":"string","internalType":"string"},{"name":"value","type":"string","internalType":"string"}],"outputs":[],"stateMutability":"nonpayable"},{"type":"function","name":"registerPost","inputs":[{"name":"arId","type":"string","internalType":"string"},{"name":"base","type":"tuple","internalType":"struct AnchorRegistry.AnchorBase","components":[{"name":"artifactType","type":"uint8","internalType":"enum AnchorRegistry.ArtifactType"},{"name":"manifestHash","type":"string","internalType":"string"},{"name":"parentHash","type":"string","internalType":"string"},{"name":"descriptor","type":"string","internalType":"string"}]},{"name":"platform","type":"string","internalType":"string"},{"name":"postId","type":"string","internalType":"string"},{"name":"postDate","type":"string","internalType":"string"},{"name":"url","type":"string","internalType":"string"}],"outputs":[],"stateMutability":"nonpayable"},{"type":"function","name":"registerProof","inputs":[{"name":"arId","type":"string","internalType":"string"},{"name":"base","type":"tuple","internalType":"struct AnchorRegistry.AnchorBase","components":[{"name":"artifactType","type":"uint8","internalType":"enum AnchorRegistry.ArtifactType"},{"name":"manifestHash","type":"string","internalType":"string"},{"name":"parentHash","type":"string","internalType":"string"},{"name":"descriptor","type":"string","internalType":"string"}]},{"name":"proofType","type":"string","internalType":"string"},{"name":"proofSystem","type":"string","internalType":"string"},{"name":"circuitId","type":"string","internalType":"string"},{"name":"vkeyHash","type":"string","internalType":"string"},{"name":"auditFirm","type":"string","internalType":"string"},{"name":"auditScope","type":"string","internalType":"string"},{"name":"verifierUrl","type":"string","internalType":"string"},{"name":"reportUrl","type":"string","internalType":"string"},{"name":"proofHash","type":"string","internalType":"string"}],"outputs":[],"stateMutability":"nonpayable"},{"type":"function","name":"registerReceipt","inputs":[{"name":"arId","type":"string","internalType":"string"},{"name":"base","type":"tuple","internalType":"struct AnchorRegistry.AnchorBase","components":[{"name":"artifactType","type":"uint8","internalType":"enum AnchorRegistry.ArtifactType"},{"name":"manifestHash","type":"string","internalType":"string"},{"name":"parentHash","type":"string","internalType":"string"},{"name":"descriptor","type":"string","internalType":"string"}]},{"name":"receiptType","type":"string","internalType":"string"},{"name":"merchant","type":"string","internalType":"string"},{"name":"amount","type":"string","internalType":"string"},{"name":"currency","type":"string","internalType":"string"},{"name":"orderId","type":"string","internalType":"string"},{"name":"platform","type":"string","internalType":"string"},{"name":"url","type":"string","internalType":"string"}],"outputs":[],"stateMutability":"nonpayable"},{"type":"function","name":"registerResearch","inputs":[{"name":"arId","type":"string","internalType":"string"},{"name":"base","type":"tuple","internalType":"struct AnchorRegistry.AnchorBase","components":[{"name":"artifactType","type":"uint8","internalType":"enum AnchorRegistry.ArtifactType"},{"name":"manifestHash","type":"string","internalType":"string"},{"name":"parentHash","type":"string","internalType":"string"},{"name":"descriptor","type":"string","internalType":"string"}]},{"name":"doi","type":"string","internalType":"string"},{"name":"institution","type":"string","internalType":"string"},{"name":"coAuthors","type":"string","internalType":"string"},{"name":"url","type":"string","internalType":"string"}],"outputs":[],"stateMutability":"nonpayable"},{"type":"function","name":"registerRetraction","inputs":[{"name":"arId","type":"string","internalType":"string"},{"name":"base","type":"tuple","internalType":"struct AnchorRegistry.AnchorBase","components":[{"name":"artifactType","type":"uint8","internalType":"enum AnchorRegistry.ArtifactType"},{"name":"manifestHash","type":"string","internalType":"string"},{"name":"parentHash","type":"string","internalType":"string"},{"name":"descriptor","type":"string","internalType":"string"}]},{"name":"targetArId","type":"string","internalType":"string"},{"name":"reason","type":"string","internalType":"string"},{"name":"replacedBy","type":"string","internalType":"string"}],"outputs":[],"stateMutability":"nonpayable"},{"type":"function","name":"registerReview","inputs":[{"name":"arId","type":"string","internalType":"string"},{"name":"base","type":"tuple","internalType":"struct AnchorRegistry.AnchorBase","components":[{"name":"artifactType","type":"uint8","internalType":"enum AnchorRegistry.ArtifactType"},{"name":"manifestHash","type":"string","internalType":"string"},{"name":"parentHash","type":"string","internalType":"string"},{"name":"descriptor","type":"string","internalType":"string"}]},{"name":"targetArId","type":"string","internalType":"string"},{"name":"reviewType","type":"string","internalType":"string"},{"name":"evidenceUrl","type":"string","internalType":"string"}],"outputs":[],"stateMutability":"nonpayable"},{"type":"function","name":"registerText","inputs":[{"name":"arId","type":"string","internalType":"string"},{"name":"base","type":"tuple","internalType":"struct AnchorRegistry.AnchorBase","components":[{"name":"artifactType","type":"uint8","internalType":"enum AnchorRegistry.ArtifactType"},{"name":"manifestHash","type":"string","internalType":"string"},{"name":"parentHash","type":"string","internalType":"string"},{"name":"descriptor","type":"string","internalType":"string"}]},{"name":"isbn","type":"string","internalType":"string"},{"name":"publisher","type":"string","internalType":"string"},{"name":"language","type":"string","internalType":"string"},{"name":"url","type":"string","internalType":"string"}],"outputs":[],"stateMutability":"nonpayable"},{"type":"function","name":"registerVoid","inputs":[{"name":"arId","type":"string","internalType":"string"},{"name":"base","type":"tuple","internalType":"struct AnchorRegistry.AnchorBase","components":[{"name":"artifactType","type":"uint8","internalType":"enum AnchorRegistry.ArtifactType"},{"name":"manifestHash","type":"string","internalType":"string"},{"name":"parentHash","type":"string","internalType":"string"},{"name":"descriptor","type":"string","internalType":"string"}]},{"name":"targetArId","type":"string","internalType":"string"},{"name":"reviewArId","type":"string","internalType":"string"},{"name":"findingUrl","type":"string","internalType":"string"},{"name":"evidence","type":"string","internalType":"string"}],"outputs":[],"stateMutability":"nonpayable"},{"type":"function","name":"registered","inputs":[{"name":"","type":"string","internalType":"string"}],"outputs":[{"name":"","type":"bool","internalType":"bool"}],"stateMutability":"view"},{"type":"function","name":"removeEntityOperator","inputs":[{"name":"op","type":"address","internalType":"address"}],"outputs":[],"stateMutability":"nonpayable"},{"type":"function","name":"removeLegalOperator","inputs":[{"name":"op","type":"address","internalType":"address"}],"outputs":[],"stateMutability":"nonpayable"},{"type":"function","name":"removeOperator","inputs":[{"name":"op","type":"address","internalType":"address"}],"outputs":[],"stateMutability":"nonpayable"},{"type":"function","name":"removeProofOperator","inputs":[{"name":"op","type":"address","internalType":"address"}],"outputs":[],"stateMutability":"nonpayable"},{"type":"function","name":"researchAnchors","inputs":[{"name":"","type":"string","internalType":"string"}],"outputs":[{"name":"base","type":"tuple","internalType":"struct AnchorRegistry.AnchorBase","components":[{"name":"artifactType","type":"uint8","internalType":"enum AnchorRegistry.ArtifactType"},{"name":"manifestHash","type":"string","internalType":"string"},{"name":"parentHash","type":"string","internalType":"string"},{"name":"descriptor","type":"string","internalType":"string"}]},{"name":"doi","type":"string","internalType":"string"},{"name":"institution","type":"string","internalType":"string"},{"name":"coAuthors","type":"string","internalType":"string"},{"name":"url","type":"string","internalType":"string"}],"stateMutability":"view"},{"type":"function","name":"retractionAnchors","inputs":[{"name":"","type":"string","internalType":"string"}],"outputs":[{"name":"base","type":"tuple","internalType":"struct AnchorRegistry.AnchorBase","components":[{"name":"artifactType","type":"uint8","internalType":"enum AnchorRegistry.ArtifactType"},{"name":"manifestHash","type":"string","internalType":"string"},{"name":"parentHash","type":"string","internalType":"string"},{"name":"descriptor","type":"string","internalType":"string"}]},{"name":"targetArId","type":"string","internalType":"string"},{"name":"reason","type":"string","internalType":"string"},{"name":"replacedBy","type":"string","internalType":"string"}],"stateMutability":"view"},{"type":"function","name":"reviewAnchors","inputs":[{"name":"","type":"string","internalType":"string"}],"outputs":[{"name":"base","type":"tuple","internalType":"struct AnchorRegistry.AnchorBase","components":[{"name":"artifactType","type":"uint8","internalType":"enum AnchorRegistry.ArtifactType"},{"name":"manifestHash","type":"string","internalType":"string"},{"name":"parentHash","type":"string","internalType":"string"},{"name":"descriptor","type":"string","internalType":"string"}]},{"name":"targetArId","type":"string","internalType":"string"},{"name":"reviewType","type":"string","internalType":"string"},{"name":"evidenceUrl","type":"string","internalType":"string"}],"stateMutability":"view"},{"type":"function","name":"setRecoveryAddress","inputs":[{"name":"_newRecovery","type":"address","internalType":"address"}],"outputs":[],"stateMutability":"nonpayable"},{"type":"function","name":"textAnchors","inputs":[{"name":"","type":"string","internalType":"string"}],"outputs":[{"name":"base","type":"tuple","internalType":"struct AnchorRegistry.AnchorBase","components":[{"name":"artifactType","type":"uint8","internalType":"enum AnchorRegistry.ArtifactType"},{"name":"manifestHash","type":"string","internalType":"string"},{"name":"parentHash","type":"string","internalType":"string"},{"name":"descriptor","type":"string","internalType":"string"}]},{"name":"isbn","type":"string","internalType":"string"},{"name":"publisher","type":"string","internalType":"string"},{"name":"language","type":"string","internalType":"string"},{"name":"url","type":"string","internalType":"string"}],"stateMutability":"view"},{"type":"function","name":"transferOwnership","inputs":[{"name":"newOwner","type":"address","internalType":"address"}],"outputs":[],"stateMutability":"nonpayable"},{"type":"function","name":"voidAnchors","inputs":[{"name":"","type":"string","internalType":"string"}],"outputs":[{"name":"base","type":"tuple","internalType":"struct AnchorRegistry.AnchorBase","components":[{"name":"artifactType","type":"uint8","internalType":"enum AnchorRegistry.ArtifactType"},{"name":"manifestHash","type":"string","internalType":"string"},{"name":"parentHash","type":"string","internalType":"string"},{"name":"descriptor","type":"string","internalType":"string"}]},{"name":"targetArId","type":"string","internalType":"string"},{"name":"reviewArId","type":"string","internalType":"string"},{"name":"findingUrl","type":"string","internalType":"string"},{"name":"evidence","type":"string","internalType":"string"}],"stateMutability":"view"},{"type":"event","name":"Affirmed","inputs":[{"name":"arId","type":"string","indexed":true,"internalType":"string"},{"name":"targetArId","type":"string","indexed":true,"internalType":"string"},{"name":"affirmedBy","type":"string","indexed":false,"internalType":"string"}],"anonymous":false},{"type":"event","name":"Anchored","inputs":[{"name":"arId","type":"string","indexed":true,"internalType":"string"},{"name":"registrant","type":"address","indexed":true,"internalType":"address"},{"name":"artifactType","type":"uint8","indexed":false,"internalType":"enum AnchorRegistry.ArtifactType"},{"name":"descriptor","type":"string","indexed":false,"internalType":"string"},{"name":"manifestHash","type":"string","indexed":false,"internalType":"string"},{"name":"parentHash","type":"string","indexed":false,"internalType":"string"}],"anonymous":false},{"type":"event","name":"EntityOperatorAdded","inputs":[{"name":"operator","type":"address","indexed":true,"internalType":"address"}],"anonymous":false},{"type":"event","name":"EntityOperatorRemoved","inputs":[{"name":"operator","type":"address","indexed":true,"internalType":"address"}],"anonymous":false},{"type":"event","name":"LegalOperatorAdded","inputs":[{"name":"operator","type":"address","indexed":true,"internalType":"address"}],"anonymous":false},{"type":"event","name":"LegalOperatorRemoved","inputs":[{"name":"operator","type":"address","indexed":true,"internalType":"address"}],"anonymous":false},{"type":"event","name":"OperatorAdded","inputs":[{"name":"operator","type":"address","indexed":true,"internalType":"address"}],"anonymous":false},{"type":"event","name":"OperatorRemoved","inputs":[{"name":"operator","type":"address","indexed":true,"internalType":"address"}],"anonymous":false},{"type":"event","name":"OwnershipTransferred","inputs":[{"name":"previousOwner","type":"address","indexed":true,"internalType":"address"},{"name":"newOwner","type":"address","indexed":true,"internalType":"address"}],"anonymous":false},{"type":"event","name":"ProofOperatorAdded","inputs":[{"name":"operator","type":"address","indexed":true,"internalType":"address"}],"anonymous":false},{"type":"event","name":"ProofOperatorRemoved","inputs":[{"name":"operator","type":"address","indexed":true,"internalType":"address"}],"anonymous":false},{"type":"event","name":"RecoveryAddressUpdated","inputs":[{"name":"newRecoveryAddress","type":"address","indexed":true,"internalType":"address"}],"anonymous":false},{"type":"event","name":"RecoveryCancelled","inputs":[],"anonymous":false},{"type":"event","name":"RecoveryExecuted","inputs":[{"name":"newOwner","type":"address","indexed":true,"internalType":"address"}],"anonymous":false},{"type":"event","name":"RecoveryInitiated","inputs":[{"name":"recoveryAddress","type":"address","indexed":true,"internalType":"address"},{"name":"pendingOwner","type":"address","indexed":true,"internalType":"address"}],"anonymous":false},{"type":"event","name":"Retracted","inputs":[{"name":"arId","type":"string","indexed":true,"internalType":"string"},{"name":"targetArId","type":"string","indexed":true,"internalType":"string"},{"name":"replacedBy","type":"string","indexed":false,"internalType":"string"}],"anonymous":false},{"type":"event","name":"Reviewed","inputs":[{"name":"arId","type":"string","indexed":true,"internalType":"string"},{"name":"targetArId","type":"string","indexed":true,"internalType":"string"},{"name":"reviewType","type":"string","indexed":false,"internalType":"string"},{"name":"evidenceUrl","type":"string","indexed":false,"internalType":"string"}],"anonymous":false},{"type":"event","name":"Voided","inputs":[{"name":"arId","type":"string","indexed":true,"internalType":"string"},{"name":"targetArId","type":"string","indexed":true,"internalType":"string"},{"name":"reviewArId","type":"string","indexed":true,"internalType":"string"},{"name":"evidence","type":"string","indexed":false,"internalType":"string"}],"anonymous":false},{"type":"error","name":"AlreadyRegistered","inputs":[{"name":"arId","type":"string","internalType":"string"}]},{"type":"error","name":"EmptyArId","inputs":[]},{"type":"error","name":"EmptyManifestHash","inputs":[]},{"type":"error","name":"EmptyTargetArId","inputs":[]},{"type":"error","name":"InvalidParent","inputs":[{"name":"parentHash","type":"string","internalType":"string"}]},{"type":"error","name":"InvalidTarget","inputs":[{"name":"targetArId","type":"string","internalType":"string"}]},{"type":"error","name":"NotEntityOperator","inputs":[]},{"type":"error","name":"NotLegalOperator","inputs":[]},{"type":"error","name":"NotOperator","inputs":[]},{"type":"error","name":"NotOwner","inputs":[]},{"type":"error","name":"NotProofOperator","inputs":[]},{"type":"error","name":"NotRecoveryAddress","inputs":[]},{"type":"error","name":"RecoveryDelayNotMet","inputs":[]},{"type":"error","name":"RecoveryLockedOut","inputs":[]},{"type":"error","name":"RecoveryNotInitiated","inputs":[]},{"type":"error","name":"ZeroAddress","inputs":[]}],"bytecode":{"object":"0x608034620000bd57601f620069af38819003918201601f19168301916001600160401b03831184841017620000c157808492602094604052833981010312620000bd57516001600160a01b03811690819003620000bd578015620000ab5760018060a01b031933815f5416175f556001541617600155604051335f7f8be0079c531659141344cd1fd0a4f28419497f9722a3daafe3b4186f6b6457e08180a36168d99081620000d68239f35b60405163d92e233d60e01b8152600490fd5b5f80fd5b634e487b7160e01b5f52604160045260245ffdfe610260806040526004361015610013575f80fd5b5f3560e01c908162712e1914613238575080630ba234d6146131cc57806310b9dcbd1461310a578063132171b014612f8a57806313e7c9d814612f49578063144888ff14612f01578063165d33fe14612eb957806316aca54614612e715780631cb655e714612e295780631f3618bf14612d0d5780632072738114612cf057806320c5a3e114612c19578063397c9a3a14612ba6578063402cef1b14612b65578063407f22d814612aa357806345f65cfa14612a3057806347b456521461291057806347be22fa14612a1357806347deec0d146129cb57806349efe5ae1461295d578063517f4dcf14612915578063561ea99c14612910578063573701f7146128c85780635a355e6d146128065780635bd47e10146127be5780635d064b3a146127765780635d2d5c37146127285780636ae0dd9c146126e75780636b6797c9146126745780636ba60e711461260a5780636fe98d10146124d9578063710eb26c146124b1578063717d1a8514612469578063762d408d146124215780637b207ae6146123745780637d15e15d146122fe5780638a0d436f146122b65780638d043ad3146121df5780638d17b4eb146120ae5780638da5cb5b146120875780638f8f5ccb1461201057806396ad272d14611fc85780639870d7fe14611f55578063a93e124814611e81578063ac8a584a14611e17578063b643fcb314611dad578063b91ef08414611d6c578063b998892214611c30578063bdd5a58214611b81578063bfa5cb9d14610ae2578063c6bea7ab14610a6b578063cc087c48146109a9578063d58817e614610898578063d5ce9aad146107f7578063ddf841a91461078d578063e0ac87b914610703578063e30c3978146106db578063e4cc22a114610664578063e600a0a0146105c1578063ecc8d0fc14610514578063edf1677b14610422578063ee808008146103545763f2fde38b146102d1575f80fd5b34610350576020366003190112610350576004356001600160a01b0381811691829003610350575f5490811680330361033e57821561032c5782905f805160206168848339815191525f80a36001600160a01b031916175f55005b60405163d92e233d60e01b8152600490fd5b6040516330cd747160e01b8152600490fd5b5f80fd5b3461035057610362366132f1565b919996959092989798335f52600260205260ff60405f205416156104105761040e9a6103d26103b6976103ea976103c66104099b8f978f8f996103ac816103bd936103de9d616645565b6040519e8f61346c565b3690613c01565b8d523691613517565b60208b01523691613517565b60408801523691613517565b60608501523691613517565b608082015260405184848237602081868101600d815203019020613c85565b616746565b005b604051631f0853c160e21b8152600490fd5b346103505761043036613a8c565b989196939495929790999a9c9b9c335f52600460205260ff60405f20541615610502578d9b8f8d8f61046192616645565b6040519c61046e8e6134d9565b3661047891613c01565b8d52369061048592613517565b60208c0152369061049592613517565b60408a015236906104a592613517565b606088015236906104b592613517565b608086015236906104c592613517565b60a084015236906104d592613517565b60c0820152604051828582378083810160158152036020019020906104f991615ccc565b61040e92616746565b60405163ebee8ba760e01b8152600490fd5b34610350576020366003190112610350576004356001600160401b03811161035057602061054961055c92369060040161355c565b816040519382858094519384920161357a565b8101601481520301902061056f81613675565b6105bd61057e600484016135d3565b9261058b600582016135d3565b90610598600682016135d3565b6105b060086105a9600785016135d3565b93016135d3565b92604051968796876137a8565b0390f35b34610350576020366003190112610350576004356001600160401b0381116103505760206105496105f692369060040161355c565b8101601581520301902061060981613675565b6105bd610618600484016135d3565b92610625600582016135d3565b90610632600682016135d3565b61063e600783016135d3565b906106576009610650600886016135d3565b94016135d3565b9360405197889788613a0e565b3461035057610672366132f1565b919996959092989798335f52600260205260ff60405f205416156104105761040e9a6103d26103b6976106bc976103c66104099b8f978f8f996103ac816103bd936103de9d616645565b608082015260405184848237602081868101601b815203019020613c85565b34610350575f366003190112610350576008546040516001600160a01b039091168152602090f35b34610350576020366003190112610350576004356001600160401b03811161035057602061054961073892369060040161355c565b8101601981520301902061074b81613675565b6105bd61075a600484016135d3565b92610767600582016135d3565b906107806007610779600684016135d3565b92016135d3565b916040519586958661374d565b34610350576020366003190112610350576004356001600160a01b0381811691829003610350575f5416330361033e57805f52600460205260405f2060ff1981541690557fb3995d3ad0a4cb17193137b6b470c2eda6bbf6d63f3d135f197fc4cdeedc27905f80a2005b34610350576020366003190112610350576004356001600160a01b0381811691829003610350576001541680330361088657811561032c57600754421061087457600880546001600160a01b03191683179055426006557fe7eb1bf44bc7e6084d5d89f19e76a2b46fed60ff3eb9e650f3db79a386391c615f80a3005b6040516333ca6ceb60e21b8152600490fd5b6040516320a6214d60e21b8152600490fd5b34610350576108a636613815565b97919094969295335f52600260205260ff60405f2054161561041057610962610969926109337faf0c98c5c4879ef897a044cdac758c7bd233c9d4ac8cdbb360f44280e7b0047d996108f9858989616645565b610903898d616824565b60405192610910846134a2565b61091a3687613c01565b8452610927368b8f613517565b60208501523691613517565b6040820152610943368c8a613517565b6060820152604051868682376020818881016017815203019020614c3f565b8383616746565b81604051928392833781015f81520390209381604051928392833781015f8152039020936109a460405192839260208452602084019161525b565b0390a3005b34610350576109b7366133a3565b9691949392959097989a999a335f52600260205260ff60405f20541615610410576109e38c8c8f616645565b604051996109f08b613487565b6109fa368e613c01565b8b523690610a0792613517565b60208a01523690610a1792613517565b60408801523690610a2792613517565b60608601523690610a3792613517565b60808401523690610a4792613517565b60a08201526040518285823780838101600b8152036020019020906104f9916143c9565b3461035057610a79366132f1565b919996959092989798335f52600260205260ff60405f205416156104105761040e9a6103d26103b697610ac3976103c66104099b8f978f8f996103ac816103bd936103de9d616645565b608082015260405184848237602081868101600f815203019020613c85565b346103505760031961016036820112610350576004356001600160401b03811161035057610b149036906004016132c4565b61016052610180526024356101408190526001600160401b0310610350576080906101405136030112610350576044356001600160401b03811161035057610b609036906004016132c4565b906064356001600160401b03811161035057610b809036906004016132c4565b6084356001600160401b03811161035057610b9f9036906004016132c4565b610120919091529160a4356001600160401b03811161035057610bc69036906004016132c4565b60e0919091529360c4356001600160401b03811161035057610bec9036906004016132c4565b9260e4356001600160401b03811161035057610c0c9036906004016132c4565b90929091906001600160401b03610104351161035057610c3236610104356004016132c4565b9097909690610124356001600160401b03811161035057610c579036906004016132c4565b6080919091529a610144356001600160401b03811161035057610c7e9036906004016132c4565b6101005260c052335f52600560205260ff60405f20541615611b6f57610cb1610140516004016101605161018051616645565b60405160a08190526001600160401b0361014082019081119111176112fa57610d33610d6d9b610d21610d7e9f97610d4495610d13610d5f9d610d529b61014060a05101604052610d083661014051600401613c01565b60a051523691613517565b602060a05101523691613517565b604060a0510152369061012051613517565b606060a0510152369060e051613517565b608060a05101523691613517565b60a0805101523691613517565b60c060a05101523691613517565b60e060a05101523690608051613517565b61010060a0510152610d96366101005160c051613517565b61012060a051015260405161016051610180518237602081610160518101601681520301902060a051519081516013811015611b5b5760ff80198354169116178155602082015191825160018060401b0381116112fa57610dfa600184015461359b565b601f8111611b17575b506020601f8211600114611aad57819293945f92611aa2575b50508160011b915f199060031b1c19161760018301555b60408101518051906001600160401b0382116112fa57610e56600285015461359b565b601f8111611a5e575b50602090601f83116001146119ef5760609392915f91836119e4575b50508160011b915f199060031b1c19161760028401555b01518051906001600160401b0382116112fa578190610eb4600385015461359b565b601f8111611994575b50602090601f8311600114611926575f9261191b575b50508160011b915f199060031b1c19161760038201555b60a051602001518051906001600160401b0382116112fa578190610f11600485015461359b565b601f81116118cb575b50602090601f831160011461185d575f92611852575b50508160011b915f199060031b1c19161760048201555b60a051604001518051906001600160401b0382116112fa578190610f6e600585015461359b565b601f8111611802575b50602090601f8311600114611794575f92611789575b50508160011b915f199060031b1c19161760058201555b60a051606001518051906001600160401b0382116112fa578190610fcb600685015461359b565b601f8111611739575b50602090601f83116001146116cb575f926116c0575b50508160011b915f199060031b1c19161760068201555b60a051608001518051906001600160401b0382116112fa578190611028600785015461359b565b601f811161166d575b50602090601f83116001146115ff575f926115f4575b50508160011b915f199060031b1c19161760078201555b60a0805101518051906001600160401b0382116112fa578190611084600885015461359b565b601f81116115a1575b50602090601f8311600114611533575f92611528575b50508160011b915f199060031b1c19161760088201555b60a05160c00151805190919060098201906001600160401b0381116112fa576110e3825461359b565b601f81116114e3575b506020601f821160011461148157819293945f92611476575b50508160011b915f199060031b1c19161790555b60a05160e001518051909190600a8201906001600160401b0381116112fa57611142825461359b565b601f8111611431575b506020601f82116001146113cf57819293945f926113c4575b50508160011b915f199060031b1c19161790555b60a051610100015180519190600b8201906001600160401b0384116112fa576111a1825461359b565b601f811161137f575b50602090601f851160011461131957600c94915f918361130e575b50508160011b915f199060031b1c19161790555b0161012060a051015190815160018060401b0381116112fa576111fc825461359b565b601f81116112b5575b50602092601f821160011461125557928192935f9261124a575b50508160011b915f199060031b1c19161790555b61040e610140516004016101605161018051616746565b01519050838061121f565b601f19821693835f5260205f20915f5b86811061129d5750836001959610611285575b505050811b019055611233565b01515f1960f88460031b161c19169055838080611278565b91926020600181928685015181550194019201611265565b825f5260205f20601f830160051c810191602084106112f0575b601f0160051c01905b8181106112e55750611205565b5f81556001016112d8565b90915081906112cf565b634e487b7160e01b5f52604160045260245ffd5b0151905085806111c5565b90601f19851691835f5260205f20925f5b8181106113675750916001939187600c98941061134f575b505050811b0190556111d9565b01515f1960f88460031b161c19169055858080611342565b9293602060018192878601518155019501930161132a565b825f5260205f20601f860160051c810191602087106113ba575b601f0160051c01905b8181106113af57506111aa565b5f81556001016113a2565b9091508190611399565b015190508480611164565b601f19821690835f5260205f20915f5b81811061141957509583600195969710611401575b505050811b019055611178565b01515f1960f88460031b161c191690558480806113f4565b9192602060018192868b0151815501940192016113df565b825f5260205f20601f830160051c8101916020841061146c575b601f0160051c01905b818110611461575061114b565b5f8155600101611454565b909150819061144b565b015190508480611105565b601f19821690835f5260205f20915f5b8181106114cb575095836001959697106114b3575b505050811b019055611119565b01515f1960f88460031b161c191690558480806114a6565b9192602060018192868b015181550194019201611491565b825f5260205f20601f830160051c8101916020841061151e575b601f0160051c01905b81811061151357506110ec565b5f8155600101611506565b90915081906114fd565b0151905083806110a3565b9250600884015f5260205f20905f935b601f1984168510611586576001945083601f1981161061156e575b505050811b0160088201556110ba565b01515f1960f88460031b161c1916905583808061155e565b81810151835560209485019460019093019290910190611543565b909150600884015f5260205f20601f840160051c810191602085106115ea575b90601f859493920160051c01905b8181106115dc575061108d565b5f81558493506001016115cf565b90915081906115c1565b015190508380611047565b9250600784015f5260205f20905f935b601f1984168510611652576001945083601f1981161061163a575b505050811b01600782015561105e565b01515f1960f88460031b161c1916905583808061162a565b8181015183556020948501946001909301929091019061160f565b909150600784015f5260205f20601f840160051c810191602085106116b6575b90601f859493920160051c01905b8181106116a85750611031565b5f815584935060010161169b565b909150819061168d565b015190508380610fea565b9250600684015f5260205f20905f935b601f198416851061171e576001945083601f19811610611706575b505050811b016006820155611001565b01515f1960f88460031b161c191690558380806116f6565b818101518355602094850194600190930192909101906116db565b909150600684015f5260205f20601f840160051c810160208510611782575b90849392915b601f830160051c82018110611774575050610fd4565b5f815585945060010161175e565b5080611758565b015190508380610f8d565b9250600584015f5260205f20905f935b601f19841685106117e7576001945083601f198116106117cf575b505050811b016005820155610fa4565b01515f1960f88460031b161c191690558380806117bf565b818101518355602094850194600190930192909101906117a4565b909150600584015f5260205f20601f840160051c81016020851061184b575b90849392915b601f830160051c8201811061183d575050610f77565b5f8155859450600101611827565b5080611821565b015190508380610f30565b9250600484015f5260205f20905f935b601f19841685106118b0576001945083601f19811610611898575b505050811b016004820155610f47565b01515f1960f88460031b161c19169055838080611888565b8181015183556020948501946001909301929091019061186d565b909150600484015f5260205f20601f840160051c810160208510611914575b90849392915b601f830160051c82018110611906575050610f1a565b5f81558594506001016118f0565b50806118ea565b015190508380610ed3565b9250600384015f5260205f20905f935b601f1984168510611979576001945083601f19811610611961575b505050811b016003820155610eea565b01515f1960f88460031b161c19169055838080611951565b81810151835560209485019460019093019290910190611936565b909150600384015f5260205f20601f840160051c8101602085106119dd575b90849392915b601f830160051c820181106119cf575050610ebd565b5f81558594506001016119b9565b50806119b3565b015190508580610e7b565b90600285015f5260205f20915f5b601f1985168110611a46575091839160019360609695601f19811610611a2e575b505050811b016002840155610e92565b01515f1960f88460031b161c19169055858080611a1e565b919260206001819286850151815501940192016119fd565b600285015f5260205f20601f840160051c810160208510611a9b575b601f830160051c82018110611a90575050610e5f565b5f8155600101611a7a565b5080611a7a565b015190508480610e1c565b600184015f5260205f20905f5b601f1984168110611aff5750600193949583601f19811610611ae7575b505050811b016001830155610e33565b01515f1960f88460031b161c19169055848080611ad7565b9091602060018192858a015181550193019101611aba565b600184015f5260205f20601f830160051c810160208410611b54575b601f830160051c82018110611b49575050610e03565b5f8155600101611b33565b5080611b33565b634e487b7160e01b5f52602160045260245ffd5b60405163b601a68d60e01b8152600490fd5b34610350576020366003190112610350576004356001600160401b038111610350576020610549611bb692369060040161355c565b81016013815203019020611bc981613675565b6105bd611bd8600484016135d3565b92611be5600582016135d3565b90611bf2600682016135d3565b611bfe600783016135d3565b611c0a600884016135d3565b91611c23600a611c1c600987016135d3565b95016135d3565b9460405198899889613b6f565b3461035057611c3e366132f1565b9991969798929095939498335f52600260205260ff60405f205416156104105761096289611ceb611d1a947f07c9fc4ac9266376cb17afdcee0f23f0f5abaf32dab736c7d891c595d39725bd9b611cdf8f611c9a888c8c616645565b611ca48c87616824565b611cae8d82616824565b611cd260405196611cbe8861346c565b611cc8368b613c01565b88528d3691613517565b60208701528c3691613517565b60408501523691613517565b6060820152611cfb368e8b613517565b6080820152604051868682376020818881016019815203019020613c85565b81604051928392833781015f81520390209481604051928392833781015f81520390209481604051928392833781015f815203902094611d6760405192839260208452602084019161525b565b0390a4005b34610350576020366003190112610350576004356001600160a01b03811690819003610350575f526003602052602060ff60405f2054166040519015158152f35b34610350576020366003190112610350576004356001600160a01b0381811691829003610350575f5416330361033e57805f52600560205260405f2060ff1981541690557fc28840c72026297551adaf2f67ff2d6aca1b2c4ed12cf5023d94ba7076e75a095f80a2005b34610350576020366003190112610350576004356001600160a01b0381811691829003610350575f5416330361033e57805f52600260205260405f2060ff1981541690557f80c0b871b97b595b16a7741c1b06fed0c6f6f558639f18ccbce50724325dc40d5f80a2005b3461035057611e8f366133a3565b9691949392959097989a999a335f52600360205260ff60405f20541615611f4357611ebb8c8c8f616645565b60405199611ec88b613487565b611ed2368e613c01565b8b523690611edf92613517565b60208a01523690611eef92613517565b60408801523690611eff92613517565b60608601523690611f0f92613517565b60808401523690611f1f92613517565b60a0820152604051828582378083810160148152036020019020906104f9916143c9565b604051633b4d583360e21b8152600490fd5b34610350576020366003190112610350576004356001600160a01b0381811691829003610350575f5416330361033e57801561032c57805f52600260205260405f20600160ff198254161790557fac6fa858e9350a46cec16539926e0fde25b7629f84b5a72bffaae4df888ae86d5f80a2005b34610350576020366003190112610350576004356001600160401b038111610350576020610549611ffd92369060040161355c565b81016011815203019020611bc981613675565b346103505761201e366132f1565b919996959092989798335f52600260205260ff60405f205416156104105761040e9a6103d26103b697612068976103c66104099b8f978f8f996103ac816103bd936103de9d616645565b6080820152604051848482376020818681016010815203019020613c85565b34610350575f366003190112610350575f546040516001600160a01b039091168152602090f35b34610350576120bc3661390f565b929b9499969798959a939c9f919e909d6101c0526101a0526101e0529a9b98999697949592939091335f52600260205260ff60405f20541615610410576101c0516101a051906101e0519161211092616645565b6040519d8e9161211f836134bd565b366101c0519061212e91613c01565b8352369061213b92613517565b9060200152369061214b92613517565b60408c0152369061215b92613517565b60608a0152369061216b92613517565b6080880152369061217b92613517565b60a0860152369061218b92613517565b60c0840152369061219b92613517565b60e08201526040516101a0516101e0518237806101a051810160118152036020019020906121c89161527b565b6101c0516101a051906101e0519161040e92616746565b34610350576121ed36613a8c565b989196939495929790999a9c9b9c335f52600260205260ff60405f20541615610410578d9b8f8d8f61221e92616645565b6040519c61222b8e6134d9565b3661223591613c01565b8d52369061224292613517565b60208c0152369061225292613517565b60408a0152369061226292613517565b6060880152369061227292613517565b6080860152369061228292613517565b60a0840152369061229292613517565b60c0820152604051828582378083810160128152036020019020906104f991615ccc565b34610350576020366003190112610350576004356001600160401b0381116103505760206105496122eb92369060040161355c565b8101601281520301902061060981613675565b34610350576020366003190112610350576004356001600160401b03811161035057602061054961233392369060040161355c565b8101601781520301902061234681613675565b6105bd612355600484016135d3565b926123676006610779600584016135d3565b90604051948594856138c7565b346103505761238236613815565b9597919796929496335f52600260205260ff60405f205416156104105761096288612402610969947fa62ae18c8132954544e02a502215888bdc7d7df53e52873d79a81f91544f2dba9a611cdf8e6123db888c8c616645565b6123e58c87616824565b6123f560405196611cbe886134a2565b602087015236908d613517565b606082015260405186868237602081888101601a815203019020614c3f565b34610350576020366003190112610350576004356001600160401b03811161035057602061054961245692369060040161355c565b8101600e81520301902061056f81613675565b34610350576020366003190112610350576004356001600160401b03811161035057602061054961249e92369060040161355c565b8101600b81520301902061056f81613675565b34610350575f366003190112610350576001546040516001600160a01b039091168152602090f35b34610350576124e73661390f565b929b9499969798959a939c9f919e909d6102205261020052610240529a9b98999697949592939091335f52600260205260ff60405f2054161561041057610220516102005190610240519161253b92616645565b6040519d8e9161254a836134bd565b36610220519061255991613c01565b8352369061256692613517565b9060200152369061257692613517565b60408c0152369061258692613517565b60608a0152369061259692613517565b608088015236906125a692613517565b60a086015236906125b692613517565b60c084015236906125c692613517565b60e0820152604051610200516102405182378061020051810160138152036020019020906125f39161527b565b610220516102005190610240519161040e92616746565b34610350576020366003190112610350576004356001600160a01b0381811691829003610350575f5416330361033e57805f52600360205260405f2060ff1981541690557f6b66d1bba82a11aca959b4321a690cd67c826fb136617127d12973beb6957b335f80a2005b34610350576020366003190112610350576004356001600160a01b0381811691829003610350575f5416330361033e57801561032c57805f52600560205260405f20600160ff198254161790557f5bfe4ffbe756ad2df32059678eca22cadff8ecb3440f958eae6ff7b2d436e1ba5f80a2005b34610350576020366003190112610350576004356001600160a01b03811690819003610350575f526004602052602060ff60405f2054166040519015158152f35b34610350576020366003190112610350576004356001600160401b0381116103505760ff61276060206105498194369060040161355c565b8101601c81520301902054166040519015158152f35b34610350576020366003190112610350576004356001600160401b0381116103505760206105496127ab92369060040161355c565b8101601881520301902061234681613675565b34610350576020366003190112610350576004356001600160401b0381116103505760206105496127f392369060040161355c565b8101601b81520301902061074b81613675565b3461035057612814366133a3565b9691949392959097989a999a335f52600260205260ff60405f20541615610410576128408c8c8f616645565b6040519961284d8b613487565b612857368e613c01565b8b52369061286492613517565b60208a0152369061287492613517565b6040880152369061288492613517565b6060860152369061289492613517565b608084015236906128a492613517565b60a08201526040518285823780838101600c8152036020019020906104f9916143c9565b34610350576020366003190112610350576004356001600160401b0381116103505760206105496128fd92369060040161355c565b8101600981520301902061056f81613675565b6138aa565b34610350576020366003190112610350576004356001600160401b03811161035057602061054961294a92369060040161355c565b8101600f81520301902061074b81613675565b34610350576020366003190112610350576004356001600160a01b038181169182900361035057600154908116330361088657811561032c576001600160a01b03191681176001557f83c14e1947c5a639434d6195a6e9d85ab3471a5049c66e0aa46b71e2c0a06dde5f80a2005b34610350576020366003190112610350576004356001600160401b038111610350576020610549612a0092369060040161355c565b8101601a81520301902061234681613675565b34610350575f366003190112610350576020600754604051908152f35b34610350576020366003190112610350576004356001600160a01b0381811691829003610350575f5416330361033e57801561032c57805f52600360205260405f20600160ff198254161790557f6d52a43c5decf356b1093e9f3b6beb1eb8f9f3f333a8f13171e1d89c143c45755f80a2005b3461035057612ab1366133a3565b9691949392959097989a999a335f52600260205260ff60405f2054161561041057612add8c8c8f616645565b60405199612aea8b613487565b612af4368e613c01565b8b523690612b0192613517565b60208a01523690612b1192613517565b60408801523690612b2192613517565b60608601523690612b3192613517565b60808401523690612b4192613517565b60a0820152604051828582378083810160098152036020019020906104f9916143c9565b34610350576020366003190112610350576004356001600160a01b03811690819003610350575f526005602052602060ff60405f2054166040519015158152f35b34610350576020366003190112610350576004356001600160a01b0381811691829003610350575f5416330361033e57801561032c57805f52600460205260405f20600160ff198254161790557f65e52bd3fb1902d00941506c0a765dfad293c8c4d5851c7a4dc55ad5d60ff5e35f80a2005b34610350575f366003190112610350576001546001600160a01b039081163303610886576006548015612cde5762093a808101809111612cca574210612cb8575f54600854828116809383165f805160206168848339815191525f80a36001600160a01b031991821683175f908155911660085560068190557ffcd2de31341801b7fd80895c780aae50c1505fd674ff1b9b9764c56c633434d69080a2005b604051634b362d4f60e01b8152600490fd5b634e487b7160e01b5f52601160045260245ffd5b60405163078591a760e11b8152600490fd5b34610350575f366003190112610350576020600654604051908152f35b3461035057612d1b36613815565b979592949693909193335f52600260205260ff60405f205416156104105786612de0856109628b612dc18e612d766109a49b7f4c008f49c3178c1ce0fb3c86aed7d2e80aca376ed1476947ca5a220f45e9a5089f8a90616645565b612d808984616824565b612da460405193612d90856134a2565b612d9a3688613c01565b85528a3691613517565b6020840152612db4368d8f613517565b604084015236908a613517565b6060820152604051868682376020818881016018815203019020614c3f565b81604051928392833781015f81520390209681604051928392833781015f815203902096612e1b60405195869560408752604087019161525b565b91848303602086015261525b565b34610350576020366003190112610350576004356001600160401b038111610350576020610549612e5e92369060040161355c565b8101601081520301902061074b81613675565b34610350576020366003190112610350576004356001600160401b038111610350576020610549612ea692369060040161355c565b8101600c81520301902061056f81613675565b34610350576020366003190112610350576004356001600160401b038111610350576020610549612eee92369060040161355c565b8101600a81520301902061074b81613675565b34610350576020366003190112610350576004356001600160401b038111610350576020610549612f3692369060040161355c565b8101600d81520301902061074b81613675565b34610350576020366003190112610350576004356001600160a01b03811690819003610350575f526002602052602060ff60405f2054166040519015158152f35b34610350576020366003190112610350576004356001600160401b03811161035057612fba90369060040161355c565b6040518181809351602081930191612fd19261357a565b810160168152036020019020612fe681613675565b612ff2600483016135d3565b91612fff600582016135d3565b9061300c600682016135d3565b613018600783016135d3565b613024600884016135d3565b613030600985016135d3565b9161303d600a86016135d3565b9361304a600b87016135d3565b95600c01613057906135d3565b96604051998a99610140808c528b0161306f916136fd565b8a810360208c0152613080916136d8565b89810360408b0152613091916136d8565b88810360608a01526130a2916136d8565b87810360808901526130b3916136d8565b86810360a08801526130c4916136d8565b85810360c08701526130d5916136d8565b84810360e08601526130e6916136d8565b8381036101008501526130f8916136d8565b8281036101208401526105bd916136d8565b3461035057613118366133a3565b9691949392959097989a999a335f52600260205260ff60405f20541615610410576131448c8c8f616645565b604051996131518b613487565b61315b368e613c01565b8b52369061316892613517565b60208a0152369061317892613517565b6040880152369061318892613517565b6060860152369061319892613517565b608084015236906131a892613517565b60a08201526040518285823780838101600e8152036020019020906104f9916143c9565b34610350575f366003190112610350575f546001600160a01b0316330361033e57600880546001600160a01b03191690555f6006554262093a808101908110612cca576007557fedd770ee01b7c0ef4f503125eafdc2725536cbf32342dffcaa300d95a7cafce35f80a1005b3461035057613246366132f1565b9691949392959097999a335f52600260205260ff60405f205416156132b5575094613296946103d28c999561040999956103c661040e9f968f9b8f8d6103ac6103b69f6103bd936103de9d616645565b608082015260405184848237602081868101600a815203019020613c85565b631f0853c160e21b8152600490fd5b9181601f84011215610350578235916001600160401b038311610350576020838186019501011161035057565b6003199060c081830112610350576004906001600160401b038235818111610350578261331f9185016132c4565b95909594602435908382116103505760809082860301126103505784019360443583811161035057846133539183016132c4565b94909493606435818111610350578261336d9185016132c4565b9490949360843583811161035057846133879183016132c4565b9490949360a4359081116103505761339f92016132c4565b9091565b906003199060e082840112610350576001600160401b03906004803583811161035057856133d29183016132c4565b95909594602435908582116103505760809082840301126103505782019360443581811161035057826134069185016132c4565b9490949360643583811161035057846134209183016132c4565b94909493608435818111610350578261343a9185016132c4565b9490949360a43583811161035057846134549183016132c4565b9490949360c4359081116103505761339f92016132c4565b60a081019081106001600160401b038211176112fa57604052565b60c081019081106001600160401b038211176112fa57604052565b608081019081106001600160401b038211176112fa57604052565b61010081019081106001600160401b038211176112fa57604052565b60e081019081106001600160401b038211176112fa57604052565b601f909101601f19168101906001600160401b038211908210176112fa57604052565b9192916001600160401b0382116112fa5760405191613540601f8201601f1916602001846134f4565b829481845281830111610350578281602093845f960137010152565b9080601f830112156103505781602061357793359101613517565b90565b5f5b83811061358b5750505f910152565b818101518382015260200161357c565b90600182811c921680156135c9575b60208310146135b557565b634e487b7160e01b5f52602260045260245ffd5b91607f16916135aa565b9060405191825f82546135e58161359b565b908184526020946001916001811690815f146136535750600114613615575b505050613613925003836134f4565b565b5f90815285812095935091905b81831061363b57505061361393508201015f8080613604565b85548884018501529485019487945091830191613622565b9250505061361394925060ff191682840152151560051b8201015f8080613604565b90604051613682816134a2565b809260ff815416906013821015611b5b5760036136c69160609385526136aa600182016135d3565b60208601526136bb600282016135d3565b6040860152016135d3565b910152565b906013821015611b5b5752565b906020916136f18151809281855285808601910161357a565b601f01601f1916010190565b6135779161370c8183516136cb565b606061373c61372a60208501516080602086015260808501906136d8565b604085015184820360408601526136d8565b9201519060608184039101526136d8565b9390613577959361377e61379a9461377061378c9460a08a5260a08a01906136fd565b9088820360208a01526136d8565b9086820360408801526136d8565b9084820360608601526136d8565b9160808184039101526136d8565b9491936137eb613807946137dd61357799976137cf6137f99660c08c5260c08c01906136fd565b908a820360208c01526136d8565b9088820360408a01526136d8565b9086820360608801526136d8565b9084820360808601526136d8565b9160a08184039101526136d8565b906003199060a082840112610350576001600160401b03906004803583811161035057856138449183016132c4565b95909594602435908582116103505760809082840301126103505782019360443581811161035057826138789185016132c4565b9490949360643583811161035057846138929183016132c4565b949094936084359081116103505761339f92016132c4565b34610350575f36600319011261035057602060405162093a808152f35b926138f361357795936138e5613901946080885260808801906136fd565b9086820360208801526136d8565b9084820360408601526136d8565b9160608184039101526136d8565b906003199061012082840112610350576001600160401b039060048035838111610350578561393f9183016132c4565b95909594602435908582116103505760809082840301126103505782019360443581811161035057826139739185016132c4565b94909493606435838111610350578461398d9183016132c4565b9490949360843581811161035057826139a79185016132c4565b9490949360a43583811161035057846139c19183016132c4565b9490949360c43581811161035057826139db9185016132c4565b9490949360e43583811161035057846139f59183016132c4565b94909493610104359081116103505761339f92016132c4565b9592613a7e94613a54613a6292613a46613a7096613a386135779d9b9760e08e81815201906136fd565b8c810360208e0152906136d8565b908a820360408c01526136d8565b9088820360608a01526136d8565b9086820360808801526136d8565b9084820360a08601526136d8565b9160c08184039101526136d8565b6003199061010081830112610350576004906001600160401b0382358181116103505782613abb9185016132c4565b9590959460243590838211610350576080908286030112610350578401936044358381116103505784613aef9183016132c4565b949094936064358181116103505782613b099185016132c4565b949094936084358381116103505784613b239183016132c4565b9490949360a4358181116103505782613b3d9185016132c4565b9490949360c4358381116103505784613b579183016132c4565b9490949360e4359081116103505761339f92016132c4565b969394613bc9613bf396613bbb613be596613bad8c6135779e9c98613b9f613bd7996101008085528401906136fd565b9160208184039101526136d8565b8c810360408e0152906136d8565b908a820360608c01526136d8565b9088820360808a01526136d8565b9086820360a08801526136d8565b9084820360c08601526136d8565b9160e08184039101526136d8565b91906080838203126103505760405190613c1a826134a2565b8193803560138110156103505783526001600160401b039160208201358381116103505781613c4a91840161355c565b602085015260408201358381116103505781613c6791840161355c565b60408501526060820135928311610350576060926136c6920161355c565b81519081516013811015611b5b5760ff8019835416911617815560019182820191602090818301519182519460018060401b03958681116112fa5780613ccb835461359b565b95601f9687811161437b575b50849087831160011461431c575f92614311575b50505f19600383901b1c191690881b1790555b6002820160408501518051908782116112fa578190613d1d845461359b565b8781116142c3575b508490878311600114614264575f92614259575b50505f19600383901b1c191690881b1790555b60039360608584019101518051908782116112fa578190613d6d845461359b565b87811161420b575b5084908783116001146141ad575f926141a2575b50505f1982881b1c191690881b1790555b60048201818801518051908782116112fa578190613db8845461359b565b878111614154575b5084908783116001146140f6575f926140eb575b50505f1982881b1c191690881b1790555b60059182810160408901518051908882116112fa578190613e06845461359b565b88811161409f575b508590888311600114614041575f92614036575b50505f1982891b1c191690891b1790555b6006810160608901518051908882116112fa57613e50835461359b565b878111613ff5575b508490878311600114613f8c57918060079492608096945f92613f81575b50505f19828b1b1c1916908b1b1790555b019701519182519586116112fa57613e9f885461359b565b90848211613f40575b505080928511600114613ede57509383949184925f95613ed3575b50501b925f19911b1c1916179055565b015193505f80613ec3565b92919084601f198116885f52855f20955f905b89838310613f265750505010613f0d575b50505050811b019055565b01519060f8845f19921b161c191690555f808080613f02565b858701518955909701969485019488935090810190613ef1565b885f52825f209085808901821c830193858a10613f78575b01901c019087905b828110613f6d5750613ea8565b5f8155018790613f60565b93508293613f58565b015190505f80613e76565b8a9291601f19831691855f52875f20925f5b89828210613fdf5750509160809795939185600798969410613fc8575b505050811b019055613e87565b01515f19838d1b60f8161c191690555f8080613fbb565b8385015186558f97909501949384019301613f9e565b835f52855f2088808501891c82019288861061402d575b01881c01908b905b828110614022575050613e58565b5f8155018b90614014565b9250819261400c565b015190505f80613e22565b908b9350601f19831691855f52875f20925f5b898282106140895750508411614072575b505050811b019055613e33565b01515f19838b1b60f8161c191690555f8080614065565b8385015186558f97909501949384019301614054565b909150835f52855f2088808501891c8201928886106140e2575b918d9186959493018a1c01915b8281106140d4575050613e0e565b5f81558594508d91016140c6565b925081926140b9565b015190505f80613dd4565b908a9350601f19831691855f52865f20925f5b8882821061413e5750508411614127575b505050811b019055613de5565b01515f19838a1b60f8161c191690555f808061411a565b8385015186558e97909501949384019301614109565b909150835f52845f208780850160051c820192878610614199575b918c91869594930160051c01915b82811061418b575050613dc0565b5f81558594508c910161417d565b9250819261416f565b015190505f80613d89565b908a9350601f19831691855f52865f20925f5b888282106141f557505084116141de575b505050811b019055613d9a565b01515f19838a1b60f8161c191690555f80806141d1565b8385015186558e979095019493840193016141c0565b909150835f52845f208780850160051c820192878610614250575b918c91869594930160051c01915b828110614242575050613d75565b5f81558594508c9101614234565b92508192614226565b015190505f80613d39565b908a9350601f19831691855f52865f20925f5b888282106142ad5750508411614295575b505050811b019055613d4c565b01515f1960f88460031b161c191690555f8080614288565b8385015186558e97909501949384019301614277565b909150835f52845f208780850160051c820192878610614308575b918c91869594930160051c01915b8281106142fa575050613d25565b5f81558594508c91016142ec565b925081926142de565b015190505f80613ceb565b908a9350601f19831691855f52865f20925f5b88828210614365575050841161434d575b505050811b019055613cfe565b01515f1960f88460031b161c191690555f8080614340565b8385015186558e9790950194938401930161432f565b909150835f52845f208780850160051c8201928786106143c0575b918c91869594930160051c01915b8281106143b2575050613cd7565b5f81558594508c91016143a4565b92508192614396565b81519081516013811015611b5b5760ff8019835416911617815560019182820191602090818301519182519460018060401b03958681116112fa578061440f835461359b565b95601f96878111614bf1575b508490878311600114614b92575f92614b87575b50505f19600383901b1c191690881b1790555b6002820160408501518051908782116112fa578190614461845461359b565b878111614b39575b508490878311600114614ada575f92614acf575b50505f19600383901b1c191690881b1790555b60039360608584019101518051908782116112fa5781906144b1845461359b565b878111614a81575b508490878311600114614a23575f92614a18575b50505f1982881b1c191690881b1790555b60049182810182890151805190888211614a055781906144fe845461359b565b8881116149b7575b508590888311600114614959575f9261494e575b50505f1982891b1c191690891b1790555b60059081810160408a01518051908982116147bf57819061454c845461359b565b898111614902575b50869089831160011461489b575f92614890575b50505f19828a1b1c1916908a1b1790555b6006810160608a01518051908982116147bf578190614598845461359b565b898111614844575b5086908983116001146147dd575f926147d2575b50505f19828a1b1c1916908a1b1790555b6007810160808a01518051908982116147bf576145e2835461359b565b88811161477e575b50859088831160011461470c5791806008949260a096945f92614701575b50505f19828c1b1c1916908c1b1790555b019801519283519687116146ee5750614632885461359b565b908482116146ad575b50508092851160011461466557509383949184925f95613ed35750501b925f19911b1c1916179055565b92919084601f198116885f52855f20955f905b898383106146935750505010613f0d5750505050811b019055565b858701518955909701969485019488935090810190614678565b885f52825f209085808901821c830193858a106146e5575b01901c019087905b8281106146da575061463b565b5f81550187906146cd565b935082936146c5565b604190634e487b7160e01b5f525260245ffd5b015190505f80614608565b8b9291601f19831691855f52885f20925f5b8a82821061475f5750509160a09795939185600898969410614748575b505050811b019055614619565b01515f19838e1b60f8161c191690555f808061473b565b91929395968291958786015181550195019301908e959493929161471e565b835f52865f2089808501881c8201928986106147b6575b01871c01908c905b8281106147ab5750506145ea565b5f8155018c9061479d565b92508192614795565b604187634e487b7160e01b5f525260245ffd5b015190505f806145b4565b908c9350601f19831691855f52885f20925f5b8a828210614825575050841161480e575b505050811b0190556145c5565b01515f19838c1b60f8161c191690555f8080614801565b91929395968291958786015181550195019301908e95949392916147f0565b909150835f52865f2089808501881c820192898610614887575b918e918695949301891c01915b8281106148795750506145a0565b5f81558594508e910161486b565b9250819261485e565b015190505f80614568565b908c9350601f19831691855f52885f20925f5b8a8282106148e357505084116148cc575b505050811b019055614579565b01515f19838c1b60f8161c191690555f80806148bf565b91929395968291958786015181550195019301908e95949392916148ae565b909150835f52865f2089808501881c820192898610614945575b918e918695949301891c01915b828110614937575050614554565b5f81558594508e9101614929565b9250819261491c565b015190505f8061451a565b908b9350601f19831691855f52875f20925f5b898282106149a1575050841161498a575b505050811b01905561452b565b01515f19838b1b60f8161c191690555f808061497d565b8385015186558f9790950194938401930161496c565b909150835f52855f208880850160051c8201928886106149fc575b918d91869594930160051c01915b8281106149ee575050614506565b5f81558594508d91016149e0565b925081926149d2565b604186634e487b7160e01b5f525260245ffd5b015190505f806144cd565b908a9350601f19831691855f52865f20925f5b88828210614a6b5750508411614a54575b505050811b0190556144de565b01515f19838a1b60f8161c191690555f8080614a47565b8385015186558e97909501949384019301614a36565b909150835f52845f208780850160051c820192878610614ac6575b918c91869594930160051c01915b828110614ab85750506144b9565b5f81558594508c9101614aaa565b92508192614a9c565b015190505f8061447d565b908a9350601f19831691855f52865f20925f5b88828210614b235750508411614b0b575b505050811b019055614490565b01515f1960f88460031b161c191690555f8080614afe565b8385015186558e97909501949384019301614aed565b909150835f52845f208780850160051c820192878610614b7e575b918c91869594930160051c01915b828110614b70575050614469565b5f81558594508c9101614b62565b92508192614b54565b015190505f8061442f565b908a9350601f19831691855f52865f20925f5b88828210614bdb5750508411614bc3575b505050811b019055614442565b01515f1960f88460031b161c191690555f8080614bb6565b8385015186558e97909501949384019301614ba5565b909150835f52845f208780850160051c820192878610614c36575b918c91869594930160051c01915b828110614c2857505061441b565b5f81558594508c9101614c1a565b92508192614c0c565b81519081516013811015611b5b5760ff80198354169116178155600191828201916020808301519182519460018060401b03958681116112fa5780614c84835461359b565b95601f9687811161520d575b5085908783116001146151ae575f926151a3575b50505f19600383901b1c191690881b1790555b6002810160408501518051908782116112fa578190614cd6845461359b565b878111615155575b5085908783116001146150f6575f926150eb575b50505f19600383901b1c191690881b1790555b60039360608583019101518051908782116112fa578190614d26845461359b565b87811161509d575b50859087831160011461503f575f92615034575b50505f1982881b1c191690881b1790555b60048101828801518051908782116112fa578190614d71845461359b565b878111614fe6575b508590878311600114614f88575f92614f7d575b50505f1982881b1c191690881b1790555b6005810160408801518051908782116112fa57614dbb835461359b565b868111614f3a575b508490868311600114614ed157918060069492606096945f92614ec6575b50505f19828a1b1c1916908a1b1790555b019601519081519485116112fa57614e0a875461359b565b838111614e83575b5080928511600114614e3b57509383949184925f95613ed35750501b925f19911b1c1916179055565b92919084601f198116885f52855f20955f905b89838310614e695750505010613f0d5750505050811b019055565b858701518955909701969485019488935090810190614e4e565b875f52815f208480880160051c820192848910614ebd575b0160051c019087905b828110614eb2575050614e12565b5f8155018790614ea4565b92508192614e9b565b015190505f80614de1565b899291601f19831691855f52875f20925f5b89828210614f245750509160609795939185600698969410614f0d575b505050811b019055614df2565b01515f19838c1b60f8161c191690555f8080614f00565b8385015186558e97909501949384019301614ee3565b835f52855f208780850160051c820192888610614f74575b0160051c01908a905b828110614f69575050614dc3565b5f8155018a90614f5b565b92508192614f52565b015190505f80614d8d565b908a9350601f19831691855f52875f20925f5b89828210614fd05750508411614fb9575b505050811b019055614d9e565b01515f19838a1b60f8161c191690555f8080614fac565b8385015186558e97909501949384019301614f9b565b909150835f52855f208780850160051c82019288861061502b575b918c91869594930160051c01915b82811061501d575050614d79565b5f81558594508c910161500f565b92508192615001565b015190505f80614d42565b908a9350601f19831691855f52875f20925f5b898282106150875750508411615070575b505050811b019055614d53565b01515f19838a1b60f8161c191690555f8080615063565b8385015186558e97909501949384019301615052565b909150835f52855f208780850160051c8201928886106150e2575b918c91869594930160051c01915b8281106150d4575050614d2e565b5f81558594508c91016150c6565b925081926150b8565b015190505f80614cf2565b908a9350601f19831691855f52875f20925f5b8982821061513f5750508411615127575b505050811b019055614d05565b01515f1960f88460031b161c191690555f808061511a565b8385015186558e97909501949384019301615109565b909150835f52855f208780850160051c82019288861061519a575b918c91869594930160051c01915b82811061518c575050614cde565b5f81558594508c910161517e565b92508192615170565b015190505f80614ca4565b908a9350601f19831691855f52875f20925f5b898282106151f757505084116151df575b505050811b019055614cb7565b01515f1960f88460031b161c191690555f80806151d2565b8385015186558e979095019493840193016151c1565b909150835f52855f208780850160051c820192888610615252575b918c91869594930160051c01915b828110615244575050614c90565b5f81558594508c9101615236565b92508192615228565b908060209392818452848401375f828201840152601f01601f1916010190565b81519081516013811015611b5b5760ff8019835416911617815560019182820191602090818301519182519460018060401b03958681116112fa57806152c1835461359b565b95601f96878111615c7e575b508490878311600114615c1f575f92615c14575b50505f19600383901b1c191690881b1790555b6002820160408501518051908782116112fa578190615313845461359b565b878111615bc6575b508490878311600114615b67575f92615b5c575b50505f19600383901b1c191690881b1790555b60039360608584019101518051908782116112fa578190615363845461359b565b878111615b0e575b508490878311600114615ab0575f92615aa5575b50505f1982881b1c191690881b1790555b60049182810182890151805190888211614a055781906153b0845461359b565b888111615a57575b5085908883116001146159f9575f926159ee575b50505f1982891b1c191690891b1790555b60059081810160408a01518051908982116147bf5781906153fe845461359b565b8981116159a2575b50869089831160011461593b575f92615930575b50505f19828a1b1c1916908a1b1790555b6006810160608a01518051908982116147bf57819061544a845461359b565b8981116158e4575b50869089831160011461587d575f92615872575b50505f19828a1b1c1916908a1b1790555b6007810160808a01518051908982116147bf578190615496845461359b565b898111615826575b5086908983116001146157bf575f926157b4575b50505f19828a1b1c1916908a1b1790555b6008810160a08a01518051908982116147bf5781906154e2845461359b565b898111615768575b508690898311600114615701575f926156f6575b50505f19828a1b1c1916908a1b1790555b6009810160c08a01518051908982116147bf5761552c835461359b565b8881116156b5575b508590888311600114615643579180600a949260e096945f92615638575b50505f19828c1b1c1916908c1b1790555b019801519283519687116146ee575061557c885461359b565b908482116155f7575b5050809285116001146155af57509383949184925f95613ed35750501b925f19911b1c1916179055565b92919084601f198116885f52855f20955f905b898383106155dd5750505010613f0d5750505050811b019055565b8587015189559097019694850194889350908101906155c2565b885f52825f209085808901821c830193858a1061562f575b01901c019087905b8281106156245750615585565b5f8155018790615617565b9350829361560f565b015190505f80615552565b8b9291601f19831691855f52885f20925f5b8a8282106156965750509160e09795939185600a9896941061567f575b505050811b019055615563565b01515f19838e1b60f8161c191690555f8080615672565b91929395968291958786015181550195019301908e9594939291615655565b835f52865f2089808501881c8201928986106156ed575b01871c01908c905b8281106156e2575050615534565b5f8155018c906156d4565b925081926156cc565b015190505f806154fe565b908c9350601f19831691855f52885f20925f5b8a8282106157495750508411615732575b505050811b01905561550f565b01515f19838c1b60f8161c191690555f8080615725565b91929395968291958786015181550195019301908e9594939291615714565b909150835f52865f2089808501881c8201928986106157ab575b918e918695949301891c01915b82811061579d5750506154ea565b5f81558594508e910161578f565b92508192615782565b015190505f806154b2565b908c9350601f19831691855f52885f20925f5b8a82821061580757505084116157f0575b505050811b0190556154c3565b01515f19838c1b60f8161c191690555f80806157e3565b91929395968291958786015181550195019301908e95949392916157d2565b909150835f52865f2089808501881c820192898610615869575b918e918695949301891c01915b82811061585b57505061549e565b5f81558594508e910161584d565b92508192615840565b015190505f80615466565b908c9350601f19831691855f52885f20925f5b8a8282106158c557505084116158ae575b505050811b019055615477565b01515f19838c1b60f8161c191690555f80806158a1565b91929395968291958786015181550195019301908e9594939291615890565b909150835f52865f2089808501881c820192898610615927575b918e918695949301891c01915b828110615919575050615452565b5f81558594508e910161590b565b925081926158fe565b015190505f8061541a565b908c9350601f19831691855f52885f20925f5b8a828210615983575050841161596c575b505050811b01905561542b565b01515f19838c1b60f8161c191690555f808061595f565b91929395968291958786015181550195019301908e959493929161594e565b909150835f52865f2089808501881c8201928986106159e5575b918e918695949301891c01915b8281106159d7575050615406565b5f81558594508e91016159c9565b925081926159bc565b015190505f806153cc565b908b9350601f19831691855f52875f20925f5b89828210615a415750508411615a2a575b505050811b0190556153dd565b01515f19838b1b60f8161c191690555f8080615a1d565b8385015186558f97909501949384019301615a0c565b909150835f52855f208880850160051c820192888610615a9c575b918d91869594930160051c01915b828110615a8e5750506153b8565b5f81558594508d9101615a80565b92508192615a72565b015190505f8061537f565b908a9350601f19831691855f52865f20925f5b88828210615af85750508411615ae1575b505050811b019055615390565b01515f19838a1b60f8161c191690555f8080615ad4565b8385015186558e97909501949384019301615ac3565b909150835f52845f208780850160051c820192878610615b53575b918c91869594930160051c01915b828110615b4557505061536b565b5f81558594508c9101615b37565b92508192615b29565b015190505f8061532f565b908a9350601f19831691855f52865f20925f5b88828210615bb05750508411615b98575b505050811b019055615342565b01515f1960f88460031b161c191690555f8080615b8b565b8385015186558e97909501949384019301615b7a565b909150835f52845f208780850160051c820192878610615c0b575b918c91869594930160051c01915b828110615bfd57505061531b565b5f81558594508c9101615bef565b92508192615be1565b015190505f806152e1565b908a9350601f19831691855f52865f20925f5b88828210615c685750508411615c50575b505050811b0190556152f4565b01515f1960f88460031b161c191690555f8080615c43565b8385015186558e97909501949384019301615c32565b909150835f52845f208780850160051c820192878610615cc3575b918c91869594930160051c01915b828110615cb55750506152cd565b5f81558594508c9101615ca7565b92508192615c99565b81519081516013811015611b5b5760ff8019835416911617815560019182820191602090818301519182519460018060401b03958681116112fa5780615d12835461359b565b95601f968781116165c5575b508490878311600114616566575f9261655b575b50505f19600383901b1c191690881b1790555b6002820160408501518051908782116112fa578190615d64845461359b565b87811161650d575b5084908783116001146164ae575f926164a3575b50505f19600383901b1c191690881b1790555b60039360608584019101518051908782116112fa578190615db4845461359b565b878111616455575b5084908783116001146163f7575f926163ec575b50505f1982881b1c191690881b1790555b60049182810182890151805190888211614a05578190615e01845461359b565b88811161639e575b508590888311600114616340575f92616335575b50505f1982891b1c191690891b1790555b60059081810160408a01518051908982116147bf578190615e4f845461359b565b8981116162e9575b508690898311600114616282575f92616277575b50505f19828a1b1c1916908a1b1790555b6006810160608a01518051908982116147bf578190615e9b845461359b565b89811161622b575b5086908983116001146161c4575f926161b9575b50505f19828a1b1c1916908a1b1790555b6007810160808a01518051908982116147bf578190615ee7845461359b565b89811161616d575b508690898311600114616106575f926160fb575b50505f19828a1b1c1916908a1b1790555b6008810160a08a01518051908982116147bf57615f31835461359b565b8881116160ba575b5085908883116001146160485791806009949260c096945f9261603d575b50505f19828c1b1c1916908c1b1790555b019801519283519687116146ee5750615f81885461359b565b90848211615ffc575b505080928511600114615fb457509383949184925f95613ed35750501b925f19911b1c1916179055565b92919084601f198116885f52855f20955f905b89838310615fe25750505010613f0d5750505050811b019055565b858701518955909701969485019488935090810190615fc7565b885f52825f209085808901821c830193858a10616034575b01901c019087905b8281106160295750615f8a565b5f815501879061601c565b93508293616014565b015190505f80615f57565b8b9291601f19831691855f52885f20925f5b8a82821061609b5750509160c09795939185600998969410616084575b505050811b019055615f68565b01515f19838e1b60f8161c191690555f8080616077565b91929395968291958786015181550195019301908e959493929161605a565b835f52865f2089808501881c8201928986106160f2575b01871c01908c905b8281106160e7575050615f39565b5f8155018c906160d9565b925081926160d1565b015190505f80615f03565b908c9350601f19831691855f52885f20925f5b8a82821061614e5750508411616137575b505050811b019055615f14565b01515f19838c1b60f8161c191690555f808061612a565b91929395968291958786015181550195019301908e9594939291616119565b909150835f52865f2089808501881c8201928986106161b0575b918e918695949301891c01915b8281106161a2575050615eef565b5f81558594508e9101616194565b92508192616187565b015190505f80615eb7565b908c9350601f19831691855f52885f20925f5b8a82821061620c57505084116161f5575b505050811b019055615ec8565b01515f19838c1b60f8161c191690555f80806161e8565b91929395968291958786015181550195019301908e95949392916161d7565b909150835f52865f2089808501881c82019289861061626e575b918e918695949301891c01915b828110616260575050615ea3565b5f81558594508e9101616252565b92508192616245565b015190505f80615e6b565b908c9350601f19831691855f52885f20925f5b8a8282106162ca57505084116162b3575b505050811b019055615e7c565b01515f19838c1b60f8161c191690555f80806162a6565b91929395968291958786015181550195019301908e9594939291616295565b909150835f52865f2089808501881c82019289861061632c575b918e918695949301891c01915b82811061631e575050615e57565b5f81558594508e9101616310565b92508192616303565b015190505f80615e1d565b908b9350601f19831691855f52875f20925f5b898282106163885750508411616371575b505050811b019055615e2e565b01515f19838b1b60f8161c191690555f8080616364565b8385015186558f97909501949384019301616353565b909150835f52855f208880850160051c8201928886106163e3575b918d91869594930160051c01915b8281106163d5575050615e09565b5f81558594508d91016163c7565b925081926163b9565b015190505f80615dd0565b908a9350601f19831691855f52865f20925f5b8882821061643f5750508411616428575b505050811b019055615de1565b01515f19838a1b60f8161c191690555f808061641b565b8385015186558e9790950194938401930161640a565b909150835f52845f208780850160051c82019287861061649a575b918c91869594930160051c01915b82811061648c575050615dbc565b5f81558594508c910161647e565b92508192616470565b015190505f80615d80565b908a9350601f19831691855f52865f20925f5b888282106164f757505084116164df575b505050811b019055615d93565b01515f1960f88460031b161c191690555f80806164d2565b8385015186558e979095019493840193016164c1565b909150835f52845f208780850160051c820192878610616552575b918c91869594930160051c01915b828110616544575050615d6c565b5f81558594508c9101616536565b92508192616528565b015190505f80615d32565b908a9350601f19831691855f52865f20925f5b888282106165af5750508411616597575b505050811b019055615d45565b01515f1960f88460031b161c191690555f808061658a565b8385015186558e97909501949384019301616579565b909150835f52845f208780850160051c82019287861061660a575b918c91869594930160051c01915b8281106165fc575050615d1e565b5f81558594508c91016165ee565b925081926165e0565b903590601e198136030182121561035057018035906001600160401b0382116103505760200191813603831361035057565b908015616734576166596020840184616613565b9050156167225760ff60405182848237602081848101601c81520301902054166166fe575050604081019061668e8282616613565b90501515806166d2575b6166a0575050565b6166aa9250616613565b6166ce60405192839263805de86960e01b845260206004850152602484019161525b565b0390fd5b5060ff60206166e18484616613565b91908260405193849283378101601c815203019020541615616698565b6166ce60405192839263029e8f5f60e21b845260206004850152602484019161525b565b6040516346829b8560e01b8152600490fd5b604051630dd088e760e01b8152600490fd5b9160405182848237602081848101601c815203019020600160ff198254161790558035916013831015610350576168019261681f6167f09261680f856167cf6167b360607f91a2a0e72e1981849103a4a952d7168303a860389dc265dd36f4780701f58836990183616613565b99906167c26020850185616613565b9390946040810190616613565b96909c81604051928392833781015f81520390209a604051998a809a6136cb565b608060208a0152608089019161525b565b91868303604088015261525b565b908382036060850152339761525b565b0390a3565b9080156168715760ff60405182848237602081848101601c81520301902054161561684d575050565b6166ce60405192839263e3d1895f60e01b845260206004850152602484019161525b565b604051631a2f07d160e01b8152600490fdfe8be0079c531659141344cd1fd0a4f28419497f9722a3daafe3b4186f6b6457e0a2646970667358221220c89ee3c961fe91d7901682141b5d5a3b01bd99717b36c6b07e61f9a513b929ee64736f6c63430008180033","linkReferences":{}},"methodIdentifiers":{"RECOVERY_DELAY()":"47b45652","RECOVERY_LOCKOUT()":"561ea99c","addEntityOperator(address)":"397c9a3a","addLegalOperator(address)":"45f65cfa","addOperator(address)":"9870d7fe","addProofOperator(address)":"6b6797c9","affirmedAnchors(string)":"47deec0d","agentAnchors(string)":"144888ff","cancelRecovery()":"0ba234d6","codeAnchors(string)":"573701f7","dataAnchors(string)":"717d1a85","entityAnchors(string)":"e600a0a0","entityOperators(address)":"6ae0dd9c","eventAnchors(string)":"8a0d436f","executeRecovery()":"20c5a3e1","initiateRecovery(address)":"d5ce9aad","legalAnchors(string)":"ecc8d0fc","legalOperators(address)":"b91ef084","mediaAnchors(string)":"762d408d","modelAnchors(string)":"16aca546","onChainAnchors(string)":"96ad272d","operators(address)":"13e7c9d8","otherAnchors(string)":"5bd47e10","owner()":"8da5cb5b","pendingOwner()":"e30c3978","postAnchors(string)":"1cb655e7","proofAnchors(string)":"132171b0","proofOperators(address)":"402cef1b","receiptAnchors(string)":"bdd5a582","recoveryAddress()":"710eb26c","recoveryInitiatedAt()":"20727381","recoveryLockoutUntil()":"47be22fa","registerAffirmed(string,(uint8,string,string,string),string,string,string)":"7b207ae6","registerAgent(string,(uint8,string,string,string),string,string,string,string)":"ee808008","registerCode(string,(uint8,string,string,string),string,string,string,string,string)":"407f22d8","registerData(string,(uint8,string,string,string),string,string,string,string,string)":"cc087c48","registerEntity(string,(uint8,string,string,string),string,string,string,string,string,string)":"edf1677b","registerEvent(string,(uint8,string,string,string),string,string,string,string,string,string)":"8d043ad3","registerLegal(string,(uint8,string,string,string),string,string,string,string,string)":"a93e1248","registerMedia(string,(uint8,string,string,string),string,string,string,string,string)":"10b9dcbd","registerModel(string,(uint8,string,string,string),string,string,string,string,string)":"5a355e6d","registerOnChain(string,(uint8,string,string,string),string,string,string,string,string,string,string)":"8d17b4eb","registerOther(string,(uint8,string,string,string),string,string,string,string)":"e4cc22a1","registerPost(string,(uint8,string,string,string),string,string,string,string)":"8f8f5ccb","registerProof(string,(uint8,string,string,string),string,string,string,string,string,string,string,string,string)":"bfa5cb9d","registerReceipt(string,(uint8,string,string,string),string,string,string,string,string,string,string)":"6fe98d10","registerResearch(string,(uint8,string,string,string),string,string,string,string)":"00712e19","registerRetraction(string,(uint8,string,string,string),string,string,string)":"d58817e6","registerReview(string,(uint8,string,string,string),string,string,string)":"1f3618bf","registerText(string,(uint8,string,string,string),string,string,string,string)":"c6bea7ab","registerVoid(string,(uint8,string,string,string),string,string,string,string)":"b9988922","registered(string)":"5d2d5c37","removeEntityOperator(address)":"ddf841a9","removeLegalOperator(address)":"6ba60e71","removeOperator(address)":"ac8a584a","removeProofOperator(address)":"b643fcb3","researchAnchors(string)":"165d33fe","retractionAnchors(string)":"7d15e15d","reviewAnchors(string)":"5d064b3a","setRecoveryAddress(address)":"49efe5ae","textAnchors(string)":"517f4dcf","transferOwnership(address)":"f2fde38b","voidAnchors(string)":"e0ac87b9"},"id":19}