{"abi":[{"type":"constructor","inputs":[{"name":"_recoveryAddress","type":"address","internalType":"address"}],"stateMutability":"nonpayable"},{"type":"function","name":"AR_TREE_ID","inputs":[],"outputs":[{"name":"","type":"string","internalType":"string"}],"stateMutability":"view"},{"type":"function","name":"RECOVERY_DELAY","inputs":[],"outputs":[{"name":"","type":"uint256","internalType":"uint256"}],"stateMutability":"view"},{"type":"function","name":"RECOVERY_LOCKOUT","inputs":[],"outputs":[{"name":"","type":"uint256","internalType":"uint256"}],"stateMutability":"view"},{"type":"function","name":"addEntityOperator","inputs":[{"name":"op","type":"address","internalType":"address"}],"outputs":[],"stateMutability":"nonpayable"},{"type":"function","name":"addLegalOperator","inputs":[{"name":"op","type":"address","internalType":"address"}],"outputs":[],"stateMutability":"nonpayable"},{"type":"function","name":"addOperator","inputs":[{"name":"op","type":"address","internalType":"address"}],"outputs":[],"stateMutability":"nonpayable"},{"type":"function","name":"addProofOperator","inputs":[{"name":"op","type":"address","internalType":"address"}],"outputs":[],"stateMutability":"nonpayable"},{"type":"function","name":"affirmedAnchors","inputs":[{"name":"","type":"string","internalType":"string"}],"outputs":[{"name":"base","type":"tuple","internalType":"struct AnchorRegistry.AnchorBase","components":[{"name":"artifactType","type":"uint8","internalType":"enum AnchorRegistry.ArtifactType"},{"name":"manifestHash","type":"string","internalType":"string"},{"name":"parentHash","type":"string","internalType":"string"},{"name":"descriptor","type":"string","internalType":"string"},{"name":"title","type":"string","internalType":"string"},{"name":"author","type":"string","internalType":"string"},{"name":"treeId","type":"string","internalType":"string"}]},{"name":"targetArId","type":"string","internalType":"string"},{"name":"affirmedBy","type":"string","internalType":"string"},{"name":"findingUrl","type":"string","internalType":"string"}],"stateMutability":"view"},{"type":"function","name":"agentAnchors","inputs":[{"name":"","type":"string","internalType":"string"}],"outputs":[{"name":"base","type":"tuple","internalType":"struct AnchorRegistry.AnchorBase","components":[{"name":"artifactType","type":"uint8","internalType":"enum AnchorRegistry.ArtifactType"},{"name":"manifestHash","type":"string","internalType":"string"},{"name":"parentHash","type":"string","internalType":"string"},{"name":"descriptor","type":"string","internalType":"string"},{"name":"title","type":"string","internalType":"string"},{"name":"author","type":"string","internalType":"string"},{"name":"treeId","type":"string","internalType":"string"}]},{"name":"agentVersion","type":"string","internalType":"string"},{"name":"runtime","type":"string","internalType":"string"},{"name":"capabilities","type":"string","internalType":"string"},{"name":"url","type":"string","internalType":"string"}],"stateMutability":"view"},{"type":"function","name":"cancelRecovery","inputs":[],"outputs":[],"stateMutability":"nonpayable"},{"type":"function","name":"codeAnchors","inputs":[{"name":"","type":"string","internalType":"string"}],"outputs":[{"name":"base","type":"tuple","internalType":"struct AnchorRegistry.AnchorBase","components":[{"name":"artifactType","type":"uint8","internalType":"enum AnchorRegistry.ArtifactType"},{"name":"manifestHash","type":"string","internalType":"string"},{"name":"parentHash","type":"string","internalType":"string"},{"name":"descriptor","type":"string","internalType":"string"},{"name":"title","type":"string","internalType":"string"},{"name":"author","type":"string","internalType":"string"},{"name":"treeId","type":"string","internalType":"string"}]},{"name":"gitHash","type":"string","internalType":"string"},{"name":"license","type":"string","internalType":"string"},{"name":"language","type":"string","internalType":"string"},{"name":"version","type":"string","internalType":"string"},{"name":"url","type":"string","internalType":"string"}],"stateMutability":"view"},{"type":"function","name":"dataAnchors","inputs":[{"name":"","type":"string","internalType":"string"}],"outputs":[{"name":"base","type":"tuple","internalType":"struct AnchorRegistry.AnchorBase","components":[{"name":"artifactType","type":"uint8","internalType":"enum AnchorRegistry.ArtifactType"},{"name":"manifestHash","type":"string","internalType":"string"},{"name":"parentHash","type":"string","internalType":"string"},{"name":"descriptor","type":"string","internalType":"string"},{"name":"title","type":"string","internalType":"string"},{"name":"author","type":"string","internalType":"string"},{"name":"treeId","type":"string","internalType":"string"}]},{"name":"dataVersion","type":"string","internalType":"string"},{"name":"format","type":"string","internalType":"string"},{"name":"rowCount","type":"string","internalType":"string"},{"name":"schemaUrl","type":"string","internalType":"string"},{"name":"url","type":"string","internalType":"string"}],"stateMutability":"view"},{"type":"function","name":"entityAnchors","inputs":[{"name":"","type":"string","internalType":"string"}],"outputs":[{"name":"base","type":"tuple","internalType":"struct AnchorRegistry.AnchorBase","components":[{"name":"artifactType","type":"uint8","internalType":"enum AnchorRegistry.ArtifactType"},{"name":"manifestHash","type":"string","internalType":"string"},{"name":"parentHash","type":"string","internalType":"string"},{"name":"descriptor","type":"string","internalType":"string"},{"name":"title","type":"string","internalType":"string"},{"name":"author","type":"string","internalType":"string"},{"name":"treeId","type":"string","internalType":"string"}]},{"name":"entityType","type":"string","internalType":"string"},{"name":"entityDomain","type":"string","internalType":"string"},{"name":"verificationMethod","type":"string","internalType":"string"},{"name":"verificationProof","type":"string","internalType":"string"},{"name":"canonicalUrl","type":"string","internalType":"string"},{"name":"documentHash","type":"string","internalType":"string"}],"stateMutability":"view"},{"type":"function","name":"entityOperators","inputs":[{"name":"","type":"address","internalType":"address"}],"outputs":[{"name":"","type":"bool","internalType":"bool"}],"stateMutability":"view"},{"type":"function","name":"eventAnchors","inputs":[{"name":"","type":"string","internalType":"string"}],"outputs":[{"name":"base","type":"tuple","internalType":"struct AnchorRegistry.AnchorBase","components":[{"name":"artifactType","type":"uint8","internalType":"enum AnchorRegistry.ArtifactType"},{"name":"manifestHash","type":"string","internalType":"string"},{"name":"parentHash","type":"string","internalType":"string"},{"name":"descriptor","type":"string","internalType":"string"},{"name":"title","type":"string","internalType":"string"},{"name":"author","type":"string","internalType":"string"},{"name":"treeId","type":"string","internalType":"string"}]},{"name":"executor","type":"string","internalType":"string"},{"name":"eventType","type":"string","internalType":"string"},{"name":"eventDate","type":"string","internalType":"string"},{"name":"location","type":"string","internalType":"string"},{"name":"orchestrator","type":"string","internalType":"string"},{"name":"url","type":"string","internalType":"string"}],"stateMutability":"view"},{"type":"function","name":"executeRecovery","inputs":[],"outputs":[],"stateMutability":"nonpayable"},{"type":"function","name":"initiateRecovery","inputs":[{"name":"_pendingOwner","type":"address","internalType":"address"}],"outputs":[],"stateMutability":"nonpayable"},{"type":"function","name":"legalAnchors","inputs":[{"name":"","type":"string","internalType":"string"}],"outputs":[{"name":"base","type":"tuple","internalType":"struct AnchorRegistry.AnchorBase","components":[{"name":"artifactType","type":"uint8","internalType":"enum AnchorRegistry.ArtifactType"},{"name":"manifestHash","type":"string","internalType":"string"},{"name":"parentHash","type":"string","internalType":"string"},{"name":"descriptor","type":"string","internalType":"string"},{"name":"title","type":"string","internalType":"string"},{"name":"author","type":"string","internalType":"string"},{"name":"treeId","type":"string","internalType":"string"}]},{"name":"docType","type":"string","internalType":"string"},{"name":"jurisdiction","type":"string","internalType":"string"},{"name":"parties","type":"string","internalType":"string"},{"name":"effectiveDate","type":"string","internalType":"string"},{"name":"url","type":"string","internalType":"string"}],"stateMutability":"view"},{"type":"function","name":"legalOperators","inputs":[{"name":"","type":"address","internalType":"address"}],"outputs":[{"name":"","type":"bool","internalType":"bool"}],"stateMutability":"view"},{"type":"function","name":"mediaAnchors","inputs":[{"name":"","type":"string","internalType":"string"}],"outputs":[{"name":"base","type":"tuple","internalType":"struct AnchorRegistry.AnchorBase","components":[{"name":"artifactType","type":"uint8","internalType":"enum AnchorRegistry.ArtifactType"},{"name":"manifestHash","type":"string","internalType":"string"},{"name":"parentHash","type":"string","internalType":"string"},{"name":"descriptor","type":"string","internalType":"string"},{"name":"title","type":"string","internalType":"string"},{"name":"author","type":"string","internalType":"string"},{"name":"treeId","type":"string","internalType":"string"}]},{"name":"mediaType","type":"string","internalType":"string"},{"name":"format","type":"string","internalType":"string"},{"name":"duration","type":"string","internalType":"string"},{"name":"isrc","type":"string","internalType":"string"},{"name":"url","type":"string","internalType":"string"}],"stateMutability":"view"},{"type":"function","name":"modelAnchors","inputs":[{"name":"","type":"string","internalType":"string"}],"outputs":[{"name":"base","type":"tuple","internalType":"struct AnchorRegistry.AnchorBase","components":[{"name":"artifactType","type":"uint8","internalType":"enum AnchorRegistry.ArtifactType"},{"name":"manifestHash","type":"string","internalType":"string"},{"name":"parentHash","type":"string","internalType":"string"},{"name":"descriptor","type":"string","internalType":"string"},{"name":"title","type":"string","internalType":"string"},{"name":"author","type":"string","internalType":"string"},{"name":"treeId","type":"string","internalType":"string"}]},{"name":"modelVersion","type":"string","internalType":"string"},{"name":"architecture","type":"string","internalType":"string"},{"name":"parameters","type":"string","internalType":"string"},{"name":"trainingDataset","type":"string","internalType":"string"},{"name":"url","type":"string","internalType":"string"}],"stateMutability":"view"},{"type":"function","name":"onChainAnchors","inputs":[{"name":"","type":"string","internalType":"string"}],"outputs":[{"name":"base","type":"tuple","internalType":"struct AnchorRegistry.AnchorBase","components":[{"name":"artifactType","type":"uint8","internalType":"enum AnchorRegistry.ArtifactType"},{"name":"manifestHash","type":"string","internalType":"string"},{"name":"parentHash","type":"string","internalType":"string"},{"name":"descriptor","type":"string","internalType":"string"},{"name":"title","type":"string","internalType":"string"},{"name":"author","type":"string","internalType":"string"},{"name":"treeId","type":"string","internalType":"string"}]},{"name":"chainId","type":"string","internalType":"string"},{"name":"assetType","type":"string","internalType":"string"},{"name":"contractAddress","type":"string","internalType":"string"},{"name":"txHash","type":"string","internalType":"string"},{"name":"tokenId","type":"string","internalType":"string"},{"name":"blockNumber","type":"string","internalType":"string"},{"name":"url","type":"string","internalType":"string"}],"stateMutability":"view"},{"type":"function","name":"operators","inputs":[{"name":"","type":"address","internalType":"address"}],"outputs":[{"name":"","type":"bool","internalType":"bool"}],"stateMutability":"view"},{"type":"function","name":"otherAnchors","inputs":[{"name":"","type":"string","internalType":"string"}],"outputs":[{"name":"base","type":"tuple","internalType":"struct AnchorRegistry.AnchorBase","components":[{"name":"artifactType","type":"uint8","internalType":"enum AnchorRegistry.ArtifactType"},{"name":"manifestHash","type":"string","internalType":"string"},{"name":"parentHash","type":"string","internalType":"string"},{"name":"descriptor","type":"string","internalType":"string"},{"name":"title","type":"string","internalType":"string"},{"name":"author","type":"string","internalType":"string"},{"name":"treeId","type":"string","internalType":"string"}]},{"name":"kind","type":"string","internalType":"string"},{"name":"platform","type":"string","internalType":"string"},{"name":"url","type":"string","internalType":"string"},{"name":"value","type":"string","internalType":"string"}],"stateMutability":"view"},{"type":"function","name":"owner","inputs":[],"outputs":[{"name":"","type":"address","internalType":"address"}],"stateMutability":"view"},{"type":"function","name":"pendingOwner","inputs":[],"outputs":[{"name":"","type":"address","internalType":"address"}],"stateMutability":"view"},{"type":"function","name":"postAnchors","inputs":[{"name":"","type":"string","internalType":"string"}],"outputs":[{"name":"base","type":"tuple","internalType":"struct AnchorRegistry.AnchorBase","components":[{"name":"artifactType","type":"uint8","internalType":"enum AnchorRegistry.ArtifactType"},{"name":"manifestHash","type":"string","internalType":"string"},{"name":"parentHash","type":"string","internalType":"string"},{"name":"descriptor","type":"string","internalType":"string"},{"name":"title","type":"string","internalType":"string"},{"name":"author","type":"string","internalType":"string"},{"name":"treeId","type":"string","internalType":"string"}]},{"name":"platform","type":"string","internalType":"string"},{"name":"postId","type":"string","internalType":"string"},{"name":"postDate","type":"string","internalType":"string"},{"name":"url","type":"string","internalType":"string"}],"stateMutability":"view"},{"type":"function","name":"proofAnchors","inputs":[{"name":"","type":"string","internalType":"string"}],"outputs":[{"name":"base","type":"tuple","internalType":"struct AnchorRegistry.AnchorBase","components":[{"name":"artifactType","type":"uint8","internalType":"enum AnchorRegistry.ArtifactType"},{"name":"manifestHash","type":"string","internalType":"string"},{"name":"parentHash","type":"string","internalType":"string"},{"name":"descriptor","type":"string","internalType":"string"},{"name":"title","type":"string","internalType":"string"},{"name":"author","type":"string","internalType":"string"},{"name":"treeId","type":"string","internalType":"string"}]},{"name":"proofType","type":"string","internalType":"string"},{"name":"proofSystem","type":"string","internalType":"string"},{"name":"circuitId","type":"string","internalType":"string"},{"name":"vkeyHash","type":"string","internalType":"string"},{"name":"auditFirm","type":"string","internalType":"string"},{"name":"auditScope","type":"string","internalType":"string"},{"name":"verifierUrl","type":"string","internalType":"string"},{"name":"reportUrl","type":"string","internalType":"string"},{"name":"proofHash","type":"string","internalType":"string"}],"stateMutability":"view"},{"type":"function","name":"proofOperators","inputs":[{"name":"","type":"address","internalType":"address"}],"outputs":[{"name":"","type":"bool","internalType":"bool"}],"stateMutability":"view"},{"type":"function","name":"receiptAnchors","inputs":[{"name":"","type":"string","internalType":"string"}],"outputs":[{"name":"base","type":"tuple","internalType":"struct AnchorRegistry.AnchorBase","components":[{"name":"artifactType","type":"uint8","internalType":"enum AnchorRegistry.ArtifactType"},{"name":"manifestHash","type":"string","internalType":"string"},{"name":"parentHash","type":"string","internalType":"string"},{"name":"descriptor","type":"string","internalType":"string"},{"name":"title","type":"string","internalType":"string"},{"name":"author","type":"string","internalType":"string"},{"name":"treeId","type":"string","internalType":"string"}]},{"name":"receiptType","type":"string","internalType":"string"},{"name":"merchant","type":"string","internalType":"string"},{"name":"amount","type":"string","internalType":"string"},{"name":"currency","type":"string","internalType":"string"},{"name":"orderId","type":"string","internalType":"string"},{"name":"platform","type":"string","internalType":"string"},{"name":"url","type":"string","internalType":"string"}],"stateMutability":"view"},{"type":"function","name":"recoveryAddress","inputs":[],"outputs":[{"name":"","type":"address","internalType":"address"}],"stateMutability":"view"},{"type":"function","name":"recoveryInitiatedAt","inputs":[],"outputs":[{"name":"","type":"uint256","internalType":"uint256"}],"stateMutability":"view"},{"type":"function","name":"recoveryLockoutUntil","inputs":[],"outputs":[{"name":"","type":"uint256","internalType":"uint256"}],"stateMutability":"view"},{"type":"function","name":"registerAffirmed","inputs":[{"name":"arId","type":"string","internalType":"string"},{"name":"base","type":"tuple","internalType":"struct AnchorRegistry.AnchorBase","components":[{"name":"artifactType","type":"uint8","internalType":"enum AnchorRegistry.ArtifactType"},{"name":"manifestHash","type":"string","internalType":"string"},{"name":"parentHash","type":"string","internalType":"string"},{"name":"descriptor","type":"string","internalType":"string"},{"name":"title","type":"string","internalType":"string"},{"name":"author","type":"string","internalType":"string"},{"name":"treeId","type":"string","internalType":"string"}]},{"name":"targetArId","type":"string","internalType":"string"},{"name":"affirmedBy","type":"string","internalType":"string"},{"name":"findingUrl","type":"string","internalType":"string"}],"outputs":[],"stateMutability":"nonpayable"},{"type":"function","name":"registerAgent","inputs":[{"name":"arId","type":"string","internalType":"string"},{"name":"base","type":"tuple","internalType":"struct AnchorRegistry.AnchorBase","components":[{"name":"artifactType","type":"uint8","internalType":"enum AnchorRegistry.ArtifactType"},{"name":"manifestHash","type":"string","internalType":"string"},{"name":"parentHash","type":"string","internalType":"string"},{"name":"descriptor","type":"string","internalType":"string"},{"name":"title","type":"string","internalType":"string"},{"name":"author","type":"string","internalType":"string"},{"name":"treeId","type":"string","internalType":"string"}]},{"name":"agentVersion","type":"string","internalType":"string"},{"name":"runtime","type":"string","internalType":"string"},{"name":"capabilities","type":"string","internalType":"string"},{"name":"url","type":"string","internalType":"string"}],"outputs":[],"stateMutability":"nonpayable"},{"type":"function","name":"registerCode","inputs":[{"name":"arId","type":"string","internalType":"string"},{"name":"base","type":"tuple","internalType":"struct AnchorRegistry.AnchorBase","components":[{"name":"artifactType","type":"uint8","internalType":"enum AnchorRegistry.ArtifactType"},{"name":"manifestHash","type":"string","internalType":"string"},{"name":"parentHash","type":"string","internalType":"string"},{"name":"descriptor","type":"string","internalType":"string"},{"name":"title","type":"string","internalType":"string"},{"name":"author","type":"string","internalType":"string"},{"name":"treeId","type":"string","internalType":"string"}]},{"name":"gitHash","type":"string","internalType":"string"},{"name":"license","type":"string","internalType":"string"},{"name":"language","type":"string","internalType":"string"},{"name":"version","type":"string","internalType":"string"},{"name":"url","type":"string","internalType":"string"}],"outputs":[],"stateMutability":"nonpayable"},{"type":"function","name":"registerData","inputs":[{"name":"arId","type":"string","internalType":"string"},{"name":"base","type":"tuple","internalType":"struct AnchorRegistry.AnchorBase","components":[{"name":"artifactType","type":"uint8","internalType":"enum AnchorRegistry.ArtifactType"},{"name":"manifestHash","type":"string","internalType":"string"},{"name":"parentHash","type":"string","internalType":"string"},{"name":"descriptor","type":"string","internalType":"string"},{"name":"title","type":"string","internalType":"string"},{"name":"author","type":"string","internalType":"string"},{"name":"treeId","type":"string","internalType":"string"}]},{"name":"dataVersion","type":"string","internalType":"string"},{"name":"format","type":"string","internalType":"string"},{"name":"rowCount","type":"string","internalType":"string"},{"name":"schemaUrl","type":"string","internalType":"string"},{"name":"url","type":"string","internalType":"string"}],"outputs":[],"stateMutability":"nonpayable"},{"type":"function","name":"registerEntity","inputs":[{"name":"arId","type":"string","internalType":"string"},{"name":"base","type":"tuple","internalType":"struct AnchorRegistry.AnchorBase","components":[{"name":"artifactType","type":"uint8","internalType":"enum AnchorRegistry.ArtifactType"},{"name":"manifestHash","type":"string","internalType":"string"},{"name":"parentHash","type":"string","internalType":"string"},{"name":"descriptor","type":"string","internalType":"string"},{"name":"title","type":"string","internalType":"string"},{"name":"author","type":"string","internalType":"string"},{"name":"treeId","type":"string","internalType":"string"}]},{"name":"entityType","type":"string","internalType":"string"},{"name":"entityDomain","type":"string","internalType":"string"},{"name":"verificationMethod","type":"string","internalType":"string"},{"name":"verificationProof","type":"string","internalType":"string"},{"name":"canonicalUrl","type":"string","internalType":"string"},{"name":"documentHash","type":"string","internalType":"string"}],"outputs":[],"stateMutability":"nonpayable"},{"type":"function","name":"registerEvent","inputs":[{"name":"arId","type":"string","internalType":"string"},{"name":"base","type":"tuple","internalType":"struct AnchorRegistry.AnchorBase","components":[{"name":"artifactType","type":"uint8","internalType":"enum AnchorRegistry.ArtifactType"},{"name":"manifestHash","type":"string","internalType":"string"},{"name":"parentHash","type":"string","internalType":"string"},{"name":"descriptor","type":"string","internalType":"string"},{"name":"title","type":"string","internalType":"string"},{"name":"author","type":"string","internalType":"string"},{"name":"treeId","type":"string","internalType":"string"}]},{"name":"executor","type":"string","internalType":"string"},{"name":"eventType","type":"string","internalType":"string"},{"name":"eventDate","type":"string","internalType":"string"},{"name":"location","type":"string","internalType":"string"},{"name":"orchestrator","type":"string","internalType":"string"},{"name":"url","type":"string","internalType":"string"}],"outputs":[],"stateMutability":"nonpayable"},{"type":"function","name":"registerLegal","inputs":[{"name":"arId","type":"string","internalType":"string"},{"name":"base","type":"tuple","internalType":"struct AnchorRegistry.AnchorBase","components":[{"name":"artifactType","type":"uint8","internalType":"enum AnchorRegistry.ArtifactType"},{"name":"manifestHash","type":"string","internalType":"string"},{"name":"parentHash","type":"string","internalType":"string"},{"name":"descriptor","type":"string","internalType":"string"},{"name":"title","type":"string","internalType":"string"},{"name":"author","type":"string","internalType":"string"},{"name":"treeId","type":"string","internalType":"string"}]},{"name":"docType","type":"string","internalType":"string"},{"name":"jurisdiction","type":"string","internalType":"string"},{"name":"parties","type":"string","internalType":"string"},{"name":"effectiveDate","type":"string","internalType":"string"},{"name":"url","type":"string","internalType":"string"}],"outputs":[],"stateMutability":"nonpayable"},{"type":"function","name":"registerMedia","inputs":[{"name":"arId","type":"string","internalType":"string"},{"name":"base","type":"tuple","internalType":"struct AnchorRegistry.AnchorBase","components":[{"name":"artifactType","type":"uint8","internalType":"enum AnchorRegistry.ArtifactType"},{"name":"manifestHash","type":"string","internalType":"string"},{"name":"parentHash","type":"string","internalType":"string"},{"name":"descriptor","type":"string","internalType":"string"},{"name":"title","type":"string","internalType":"string"},{"name":"author","type":"string","internalType":"string"},{"name":"treeId","type":"string","internalType":"string"}]},{"name":"mediaType","type":"string","internalType":"string"},{"name":"format","type":"string","internalType":"string"},{"name":"duration","type":"string","internalType":"string"},{"name":"isrc","type":"string","internalType":"string"},{"name":"url","type":"string","internalType":"string"}],"outputs":[],"stateMutability":"nonpayable"},{"type":"function","name":"registerModel","inputs":[{"name":"arId","type":"string","internalType":"string"},{"name":"base","type":"tuple","internalType":"struct AnchorRegistry.AnchorBase","components":[{"name":"artifactType","type":"uint8","internalType":"enum AnchorRegistry.ArtifactType"},{"name":"manifestHash","type":"string","internalType":"string"},{"name":"parentHash","type":"string","internalType":"string"},{"name":"descriptor","type":"string","internalType":"string"},{"name":"title","type":"string","internalType":"string"},{"name":"author","type":"string","internalType":"string"},{"name":"treeId","type":"string","internalType":"string"}]},{"name":"modelVersion","type":"string","internalType":"string"},{"name":"architecture","type":"string","internalType":"string"},{"name":"parameters","type":"string","internalType":"string"},{"name":"trainingDataset","type":"string","internalType":"string"},{"name":"url","type":"string","internalType":"string"}],"outputs":[],"stateMutability":"nonpayable"},{"type":"function","name":"registerOnChain","inputs":[{"name":"arId","type":"string","internalType":"string"},{"name":"base","type":"tuple","internalType":"struct AnchorRegistry.AnchorBase","components":[{"name":"artifactType","type":"uint8","internalType":"enum AnchorRegistry.ArtifactType"},{"name":"manifestHash","type":"string","internalType":"string"},{"name":"parentHash","type":"string","internalType":"string"},{"name":"descriptor","type":"string","internalType":"string"},{"name":"title","type":"string","internalType":"string"},{"name":"author","type":"string","internalType":"string"},{"name":"treeId","type":"string","internalType":"string"}]},{"name":"chainId","type":"string","internalType":"string"},{"name":"assetType","type":"string","internalType":"string"},{"name":"contractAddress","type":"string","internalType":"string"},{"name":"txHash","type":"string","internalType":"string"},{"name":"tokenId","type":"string","internalType":"string"},{"name":"blockNumber","type":"string","internalType":"string"},{"name":"url","type":"string","internalType":"string"}],"outputs":[],"stateMutability":"nonpayable"},{"type":"function","name":"registerOther","inputs":[{"name":"arId","type":"string","internalType":"string"},{"name":"base","type":"tuple","internalType":"struct AnchorRegistry.AnchorBase","components":[{"name":"artifactType","type":"uint8","internalType":"enum AnchorRegistry.ArtifactType"},{"name":"manifestHash","type":"string","internalType":"string"},{"name":"parentHash","type":"string","internalType":"string"},{"name":"descriptor","type":"string","internalType":"string"},{"name":"title","type":"string","internalType":"string"},{"name":"author","type":"string","internalType":"string"},{"name":"treeId","type":"string","internalType":"string"}]},{"name":"kind","type":"string","internalType":"string"},{"name":"platform","type":"string","internalType":"string"},{"name":"url","type":"string","internalType":"string"},{"name":"value","type":"string","internalType":"string"}],"outputs":[],"stateMutability":"nonpayable"},{"type":"function","name":"registerPost","inputs":[{"name":"arId","type":"string","internalType":"string"},{"name":"base","type":"tuple","internalType":"struct AnchorRegistry.AnchorBase","components":[{"name":"artifactType","type":"uint8","internalType":"enum AnchorRegistry.ArtifactType"},{"name":"manifestHash","type":"string","internalType":"string"},{"name":"parentHash","type":"string","internalType":"string"},{"name":"descriptor","type":"string","internalType":"string"},{"name":"title","type":"string","internalType":"string"},{"name":"author","type":"string","internalType":"string"},{"name":"treeId","type":"string","internalType":"string"}]},{"name":"platform","type":"string","internalType":"string"},{"name":"postId","type":"string","internalType":"string"},{"name":"postDate","type":"string","internalType":"string"},{"name":"url","type":"string","internalType":"string"}],"outputs":[],"stateMutability":"nonpayable"},{"type":"function","name":"registerProof","inputs":[{"name":"arId","type":"string","internalType":"string"},{"name":"base","type":"tuple","internalType":"struct AnchorRegistry.AnchorBase","components":[{"name":"artifactType","type":"uint8","internalType":"enum AnchorRegistry.ArtifactType"},{"name":"manifestHash","type":"string","internalType":"string"},{"name":"parentHash","type":"string","internalType":"string"},{"name":"descriptor","type":"string","internalType":"string"},{"name":"title","type":"string","internalType":"string"},{"name":"author","type":"string","internalType":"string"},{"name":"treeId","type":"string","internalType":"string"}]},{"name":"proofType","type":"string","internalType":"string"},{"name":"proofSystem","type":"string","internalType":"string"},{"name":"circuitId","type":"string","internalType":"string"},{"name":"vkeyHash","type":"string","internalType":"string"},{"name":"auditFirm","type":"string","internalType":"string"},{"name":"auditScope","type":"string","internalType":"string"},{"name":"verifierUrl","type":"string","internalType":"string"},{"name":"reportUrl","type":"string","internalType":"string"},{"name":"proofHash","type":"string","internalType":"string"}],"outputs":[],"stateMutability":"nonpayable"},{"type":"function","name":"registerReceipt","inputs":[{"name":"arId","type":"string","internalType":"string"},{"name":"base","type":"tuple","internalType":"struct AnchorRegistry.AnchorBase","components":[{"name":"artifactType","type":"uint8","internalType":"enum AnchorRegistry.ArtifactType"},{"name":"manifestHash","type":"string","internalType":"string"},{"name":"parentHash","type":"string","internalType":"string"},{"name":"descriptor","type":"string","internalType":"string"},{"name":"title","type":"string","internalType":"string"},{"name":"author","type":"string","internalType":"string"},{"name":"treeId","type":"string","internalType":"string"}]},{"name":"receiptType","type":"string","internalType":"string"},{"name":"merchant","type":"string","internalType":"string"},{"name":"amount","type":"string","internalType":"string"},{"name":"currency","type":"string","internalType":"string"},{"name":"orderId","type":"string","internalType":"string"},{"name":"platform","type":"string","internalType":"string"},{"name":"url","type":"string","internalType":"string"}],"outputs":[],"stateMutability":"nonpayable"},{"type":"function","name":"registerReport","inputs":[{"name":"arId","type":"string","internalType":"string"},{"name":"base","type":"tuple","internalType":"struct AnchorRegistry.AnchorBase","components":[{"name":"artifactType","type":"uint8","internalType":"enum AnchorRegistry.ArtifactType"},{"name":"manifestHash","type":"string","internalType":"string"},{"name":"parentHash","type":"string","internalType":"string"},{"name":"descriptor","type":"string","internalType":"string"},{"name":"title","type":"string","internalType":"string"},{"name":"author","type":"string","internalType":"string"},{"name":"treeId","type":"string","internalType":"string"}]},{"name":"reportType","type":"string","internalType":"string"},{"name":"client","type":"string","internalType":"string"},{"name":"engagement","type":"string","internalType":"string"},{"name":"version","type":"string","internalType":"string"},{"name":"authors","type":"string","internalType":"string"},{"name":"institution","type":"string","internalType":"string"},{"name":"url","type":"string","internalType":"string"}],"outputs":[],"stateMutability":"nonpayable"},{"type":"function","name":"registerResearch","inputs":[{"name":"arId","type":"string","internalType":"string"},{"name":"base","type":"tuple","internalType":"struct AnchorRegistry.AnchorBase","components":[{"name":"artifactType","type":"uint8","internalType":"enum AnchorRegistry.ArtifactType"},{"name":"manifestHash","type":"string","internalType":"string"},{"name":"parentHash","type":"string","internalType":"string"},{"name":"descriptor","type":"string","internalType":"string"},{"name":"title","type":"string","internalType":"string"},{"name":"author","type":"string","internalType":"string"},{"name":"treeId","type":"string","internalType":"string"}]},{"name":"doi","type":"string","internalType":"string"},{"name":"institution","type":"string","internalType":"string"},{"name":"coAuthors","type":"string","internalType":"string"},{"name":"url","type":"string","internalType":"string"}],"outputs":[],"stateMutability":"nonpayable"},{"type":"function","name":"registerRetraction","inputs":[{"name":"arId","type":"string","internalType":"string"},{"name":"base","type":"tuple","internalType":"struct AnchorRegistry.AnchorBase","components":[{"name":"artifactType","type":"uint8","internalType":"enum AnchorRegistry.ArtifactType"},{"name":"manifestHash","type":"string","internalType":"string"},{"name":"parentHash","type":"string","internalType":"string"},{"name":"descriptor","type":"string","internalType":"string"},{"name":"title","type":"string","internalType":"string"},{"name":"author","type":"string","internalType":"string"},{"name":"treeId","type":"string","internalType":"string"}]},{"name":"targetArId","type":"string","internalType":"string"},{"name":"reason","type":"string","internalType":"string"},{"name":"replacedBy","type":"string","internalType":"string"}],"outputs":[],"stateMutability":"nonpayable"},{"type":"function","name":"registerReview","inputs":[{"name":"arId","type":"string","internalType":"string"},{"name":"base","type":"tuple","internalType":"struct AnchorRegistry.AnchorBase","components":[{"name":"artifactType","type":"uint8","internalType":"enum AnchorRegistry.ArtifactType"},{"name":"manifestHash","type":"string","internalType":"string"},{"name":"parentHash","type":"string","internalType":"string"},{"name":"descriptor","type":"string","internalType":"string"},{"name":"title","type":"string","internalType":"string"},{"name":"author","type":"string","internalType":"string"},{"name":"treeId","type":"string","internalType":"string"}]},{"name":"targetArId","type":"string","internalType":"string"},{"name":"reviewType","type":"string","internalType":"string"},{"name":"evidenceUrl","type":"string","internalType":"string"}],"outputs":[],"stateMutability":"nonpayable"},{"type":"function","name":"registerText","inputs":[{"name":"arId","type":"string","internalType":"string"},{"name":"base","type":"tuple","internalType":"struct AnchorRegistry.AnchorBase","components":[{"name":"artifactType","type":"uint8","internalType":"enum AnchorRegistry.ArtifactType"},{"name":"manifestHash","type":"string","internalType":"string"},{"name":"parentHash","type":"string","internalType":"string"},{"name":"descriptor","type":"string","internalType":"string"},{"name":"title","type":"string","internalType":"string"},{"name":"author","type":"string","internalType":"string"},{"name":"treeId","type":"string","internalType":"string"}]},{"name":"isbn","type":"string","internalType":"string"},{"name":"publisher","type":"string","internalType":"string"},{"name":"language","type":"string","internalType":"string"},{"name":"url","type":"string","internalType":"string"}],"outputs":[],"stateMutability":"nonpayable"},{"type":"function","name":"registerVoid","inputs":[{"name":"arId","type":"string","internalType":"string"},{"name":"base","type":"tuple","internalType":"struct AnchorRegistry.AnchorBase","components":[{"name":"artifactType","type":"uint8","internalType":"enum AnchorRegistry.ArtifactType"},{"name":"manifestHash","type":"string","internalType":"string"},{"name":"parentHash","type":"string","internalType":"string"},{"name":"descriptor","type":"string","internalType":"string"},{"name":"title","type":"string","internalType":"string"},{"name":"author","type":"string","internalType":"string"},{"name":"treeId","type":"string","internalType":"string"}]},{"name":"targetArId","type":"string","internalType":"string"},{"name":"reviewArId","type":"string","internalType":"string"},{"name":"findingUrl","type":"string","internalType":"string"},{"name":"evidence","type":"string","internalType":"string"}],"outputs":[],"stateMutability":"nonpayable"},{"type":"function","name":"registered","inputs":[{"name":"","type":"string","internalType":"string"}],"outputs":[{"name":"","type":"bool","internalType":"bool"}],"stateMutability":"view"},{"type":"function","name":"removeEntityOperator","inputs":[{"name":"op","type":"address","internalType":"address"}],"outputs":[],"stateMutability":"nonpayable"},{"type":"function","name":"removeLegalOperator","inputs":[{"name":"op","type":"address","internalType":"address"}],"outputs":[],"stateMutability":"nonpayable"},{"type":"function","name":"removeOperator","inputs":[{"name":"op","type":"address","internalType":"address"}],"outputs":[],"stateMutability":"nonpayable"},{"type":"function","name":"removeProofOperator","inputs":[{"name":"op","type":"address","internalType":"address"}],"outputs":[],"stateMutability":"nonpayable"},{"type":"function","name":"reportAnchors","inputs":[{"name":"","type":"string","internalType":"string"}],"outputs":[{"name":"base","type":"tuple","internalType":"struct AnchorRegistry.AnchorBase","components":[{"name":"artifactType","type":"uint8","internalType":"enum AnchorRegistry.ArtifactType"},{"name":"manifestHash","type":"string","internalType":"string"},{"name":"parentHash","type":"string","internalType":"string"},{"name":"descriptor","type":"string","internalType":"string"},{"name":"title","type":"string","internalType":"string"},{"name":"author","type":"string","internalType":"string"},{"name":"treeId","type":"string","internalType":"string"}]},{"name":"reportType","type":"string","internalType":"string"},{"name":"client","type":"string","internalType":"string"},{"name":"engagement","type":"string","internalType":"string"},{"name":"version","type":"string","internalType":"string"},{"name":"authors","type":"string","internalType":"string"},{"name":"institution","type":"string","internalType":"string"},{"name":"url","type":"string","internalType":"string"}],"stateMutability":"view"},{"type":"function","name":"researchAnchors","inputs":[{"name":"","type":"string","internalType":"string"}],"outputs":[{"name":"base","type":"tuple","internalType":"struct AnchorRegistry.AnchorBase","components":[{"name":"artifactType","type":"uint8","internalType":"enum AnchorRegistry.ArtifactType"},{"name":"manifestHash","type":"string","internalType":"string"},{"name":"parentHash","type":"string","internalType":"string"},{"name":"descriptor","type":"string","internalType":"string"},{"name":"title","type":"string","internalType":"string"},{"name":"author","type":"string","internalType":"string"},{"name":"treeId","type":"string","internalType":"string"}]},{"name":"doi","type":"string","internalType":"string"},{"name":"institution","type":"string","internalType":"string"},{"name":"coAuthors","type":"string","internalType":"string"},{"name":"url","type":"string","internalType":"string"}],"stateMutability":"view"},{"type":"function","name":"retractionAnchors","inputs":[{"name":"","type":"string","internalType":"string"}],"outputs":[{"name":"base","type":"tuple","internalType":"struct AnchorRegistry.AnchorBase","components":[{"name":"artifactType","type":"uint8","internalType":"enum AnchorRegistry.ArtifactType"},{"name":"manifestHash","type":"string","internalType":"string"},{"name":"parentHash","type":"string","internalType":"string"},{"name":"descriptor","type":"string","internalType":"string"},{"name":"title","type":"string","internalType":"string"},{"name":"author","type":"string","internalType":"string"},{"name":"treeId","type":"string","internalType":"string"}]},{"name":"targetArId","type":"string","internalType":"string"},{"name":"reason","type":"string","internalType":"string"},{"name":"replacedBy","type":"string","internalType":"string"}],"stateMutability":"view"},{"type":"function","name":"reviewAnchors","inputs":[{"name":"","type":"string","internalType":"string"}],"outputs":[{"name":"base","type":"tuple","internalType":"struct AnchorRegistry.AnchorBase","components":[{"name":"artifactType","type":"uint8","internalType":"enum AnchorRegistry.ArtifactType"},{"name":"manifestHash","type":"string","internalType":"string"},{"name":"parentHash","type":"string","internalType":"string"},{"name":"descriptor","type":"string","internalType":"string"},{"name":"title","type":"string","internalType":"string"},{"name":"author","type":"string","internalType":"string"},{"name":"treeId","type":"string","internalType":"string"}]},{"name":"targetArId","type":"string","internalType":"string"},{"name":"reviewType","type":"string","internalType":"string"},{"name":"evidenceUrl","type":"string","internalType":"string"}],"stateMutability":"view"},{"type":"function","name":"setRecoveryAddress","inputs":[{"name":"_newRecovery","type":"address","internalType":"address"}],"outputs":[],"stateMutability":"nonpayable"},{"type":"function","name":"textAnchors","inputs":[{"name":"","type":"string","internalType":"string"}],"outputs":[{"name":"base","type":"tuple","internalType":"struct AnchorRegistry.AnchorBase","components":[{"name":"artifactType","type":"uint8","internalType":"enum AnchorRegistry.ArtifactType"},{"name":"manifestHash","type":"string","internalType":"string"},{"name":"parentHash","type":"string","internalType":"string"},{"name":"descriptor","type":"string","internalType":"string"},{"name":"title","type":"string","internalType":"string"},{"name":"author","type":"string","internalType":"string"},{"name":"treeId","type":"string","internalType":"string"}]},{"name":"isbn","type":"string","internalType":"string"},{"name":"publisher","type":"string","internalType":"string"},{"name":"language","type":"string","internalType":"string"},{"name":"url","type":"string","internalType":"string"}],"stateMutability":"view"},{"type":"function","name":"transferOwnership","inputs":[{"name":"newOwner","type":"address","internalType":"address"}],"outputs":[],"stateMutability":"nonpayable"},{"type":"function","name":"voidAnchors","inputs":[{"name":"","type":"string","internalType":"string"}],"outputs":[{"name":"base","type":"tuple","internalType":"struct AnchorRegistry.AnchorBase","components":[{"name":"artifactType","type":"uint8","internalType":"enum AnchorRegistry.ArtifactType"},{"name":"manifestHash","type":"string","internalType":"string"},{"name":"parentHash","type":"string","internalType":"string"},{"name":"descriptor","type":"string","internalType":"string"},{"name":"title","type":"string","internalType":"string"},{"name":"author","type":"string","internalType":"string"},{"name":"treeId","type":"string","internalType":"string"}]},{"name":"targetArId","type":"string","internalType":"string"},{"name":"reviewArId","type":"string","internalType":"string"},{"name":"findingUrl","type":"string","internalType":"string"},{"name":"evidence","type":"string","internalType":"string"}],"stateMutability":"view"},{"type":"event","name":"Affirmed","inputs":[{"name":"arId","type":"string","indexed":true,"internalType":"string"},{"name":"targetArId","type":"string","indexed":true,"internalType":"string"},{"name":"affirmedBy","type":"string","indexed":false,"internalType":"string"}],"anonymous":false},{"type":"event","name":"Anchored","inputs":[{"name":"arId","type":"string","indexed":true,"internalType":"string"},{"name":"registrant","type":"address","indexed":true,"internalType":"address"},{"name":"artifactType","type":"uint8","indexed":false,"internalType":"enum AnchorRegistry.ArtifactType"},{"name":"descriptor","type":"string","indexed":false,"internalType":"string"},{"name":"title","type":"string","indexed":false,"internalType":"string"},{"name":"author","type":"string","indexed":false,"internalType":"string"},{"name":"manifestHash","type":"string","indexed":false,"internalType":"string"},{"name":"parentHash","type":"string","indexed":false,"internalType":"string"},{"name":"treeId","type":"string","indexed":false,"internalType":"string"}],"anonymous":false},{"type":"event","name":"EntityOperatorAdded","inputs":[{"name":"operator","type":"address","indexed":true,"internalType":"address"}],"anonymous":false},{"type":"event","name":"EntityOperatorRemoved","inputs":[{"name":"operator","type":"address","indexed":true,"internalType":"address"}],"anonymous":false},{"type":"event","name":"LegalOperatorAdded","inputs":[{"name":"operator","type":"address","indexed":true,"internalType":"address"}],"anonymous":false},{"type":"event","name":"LegalOperatorRemoved","inputs":[{"name":"operator","type":"address","indexed":true,"internalType":"address"}],"anonymous":false},{"type":"event","name":"OperatorAdded","inputs":[{"name":"operator","type":"address","indexed":true,"internalType":"address"}],"anonymous":false},{"type":"event","name":"OperatorRemoved","inputs":[{"name":"operator","type":"address","indexed":true,"internalType":"address"}],"anonymous":false},{"type":"event","name":"OwnershipTransferred","inputs":[{"name":"previousOwner","type":"address","indexed":true,"internalType":"address"},{"name":"newOwner","type":"address","indexed":true,"internalType":"address"}],"anonymous":false},{"type":"event","name":"ProofOperatorAdded","inputs":[{"name":"operator","type":"address","indexed":true,"internalType":"address"}],"anonymous":false},{"type":"event","name":"ProofOperatorRemoved","inputs":[{"name":"operator","type":"address","indexed":true,"internalType":"address"}],"anonymous":false},{"type":"event","name":"RecoveryAddressUpdated","inputs":[{"name":"newRecoveryAddress","type":"address","indexed":true,"internalType":"address"}],"anonymous":false},{"type":"event","name":"RecoveryCancelled","inputs":[],"anonymous":false},{"type":"event","name":"RecoveryExecuted","inputs":[{"name":"newOwner","type":"address","indexed":true,"internalType":"address"}],"anonymous":false},{"type":"event","name":"RecoveryInitiated","inputs":[{"name":"recoveryAddress","type":"address","indexed":true,"internalType":"address"},{"name":"pendingOwner","type":"address","indexed":true,"internalType":"address"}],"anonymous":false},{"type":"event","name":"Retracted","inputs":[{"name":"arId","type":"string","indexed":true,"internalType":"string"},{"name":"targetArId","type":"string","indexed":true,"internalType":"string"},{"name":"replacedBy","type":"string","indexed":false,"internalType":"string"}],"anonymous":false},{"type":"event","name":"Reviewed","inputs":[{"name":"arId","type":"string","indexed":true,"internalType":"string"},{"name":"targetArId","type":"string","indexed":true,"internalType":"string"},{"name":"reviewType","type":"string","indexed":false,"internalType":"string"},{"name":"evidenceUrl","type":"string","indexed":false,"internalType":"string"}],"anonymous":false},{"type":"event","name":"Voided","inputs":[{"name":"arId","type":"string","indexed":true,"internalType":"string"},{"name":"targetArId","type":"string","indexed":true,"internalType":"string"},{"name":"reviewArId","type":"string","indexed":true,"internalType":"string"},{"name":"evidence","type":"string","indexed":false,"internalType":"string"}],"anonymous":false},{"type":"error","name":"AlreadyRegistered","inputs":[{"name":"arId","type":"string","internalType":"string"}]},{"type":"error","name":"EmptyArId","inputs":[]},{"type":"error","name":"EmptyManifestHash","inputs":[]},{"type":"error","name":"EmptyTargetArId","inputs":[]},{"type":"error","name":"InvalidParent","inputs":[{"name":"parentHash","type":"string","internalType":"string"}]},{"type":"error","name":"InvalidTarget","inputs":[{"name":"targetArId","type":"string","internalType":"string"}]},{"type":"error","name":"NotEntityOperator","inputs":[]},{"type":"error","name":"NotLegalOperator","inputs":[]},{"type":"error","name":"NotOperator","inputs":[]},{"type":"error","name":"NotOwner","inputs":[]},{"type":"error","name":"NotProofOperator","inputs":[]},{"type":"error","name":"NotRecoveryAddress","inputs":[]},{"type":"error","name":"RecoveryDelayNotMet","inputs":[]},{"type":"error","name":"RecoveryLockedOut","inputs":[]},{"type":"error","name":"RecoveryNotInitiated","inputs":[]},{"type":"error","name":"ZeroAddress","inputs":[]}],"bytecode":{"object":"0x608034620000bd57601f62007ffd38819003918201601f19168301916001600160401b03831184841017620000c157808492602094604052833981010312620000bd57516001600160a01b03811690819003620000bd578015620000ab5760018060a01b031933815f5416175f556001541617600155604051335f7f8be0079c531659141344cd1fd0a4f28419497f9722a3daafe3b4186f6b6457e08180a3617f279081620000d68239f35b60405163d92e233d60e01b8152600490fd5b5f80fd5b634e487b7160e01b5f52604160045260245ffdfe6102c0806040526004361015610013575f80fd5b5f3560e01c90816304fabff9146136d2575080630ba234d614613666578063132171b0146134e657806313e7c9d8146134a5578063144888ff1461345d578063165d33fe1461341557806316aca546146133cd5780631cb655e714613385578063207273811461336857806320c5a3e114613291578063397c9a3a1461321e578063402cef1b146131dd57806345f65cfa1461316a57806346de8daa1461309357806347b4565214612e4257806347be22fa1461307657806347deec0d1461302e57806349efe5ae14612fc0578063517f4dcf14612f7857806353ddf3e214612e47578063561ea99c14612e42578063573701f714612dfa5780635bd47e1014612db25780635d064b3a14612d6a5780635d2d5c3714612d1c57806361ee8fea14612c5a57806362c772cc14612b9857806364bea33414612b215780636ae0dd9c14612ae05780636b6797c914612a6d5780636ba60e7114612a03578063710eb26c146129db578063717d1a8514612993578063762d408d1461294b5780637d15e15d146128d55780638a0d436f1461288d5780638da5cb5b146128665780638e9d6ab7146127ef57806396ad272d146127a75780639786e9a3146126d35780639870d7fe146126605780639b1595d0146125b35780639bcc00741461256b5780639e565f4d146124a9578063a00c78ab14612432578063ac8a584a146123c8578063af7f08e514612297578063b643fcb31461222d578063b6e3a9dc146121cd578063b91ef0841461218c578063bcb145f8146120ca578063bdd5a5821461201b578063c47e3d4714611edf578063d58b91e014611ded578063d5ce9aad14611d4c578063ddf841a914611ce2578063e0ac87b914611c58578063e22aebdf14611be1578063e30c397814611bb9578063e600a0a014611b16578063ecc8d0fc14611a69578063f2fde38b146119ea578063f5de2afb146118b9578063fb07c543146117a8578063fe264355146103c55763fe746eb2146102f3575f80fd5b346103c15761030136613ff4565b919996959092989798335f52600260205260ff60405f205416156103af576103ad9a61037161035597610389976103656103a89b8f978f8f9961034b8161035c9361037d9d617c2d565b6040519e8f613936565b36906141b2565b8d523691613974565b60208b01523691613974565b60408801523691613974565b60608501523691613974565b60808201526040518484823760208186810160108152030190206171a2565b617d8d565b005b604051631f0853c160e21b8152600490fd5b5f80fd5b346103c157600319610160368201126103c1576004356001600160401b0381116103c1576103f7903690600401613803565b61016052610180526024356101408190526001600160401b03106103c15760e09061014051360301126103c1576044356001600160401b0381116103c157610443903690600401613803565b906064356001600160401b0381116103c157610463903690600401613803565b6084356001600160401b0381116103c157610482903690600401613803565b610120919091529160a4356001600160401b0381116103c1576104a9903690600401613803565b60e091909152936001600160401b0360c435116103c1576104cf3660c435600401613803565b9260e4356001600160401b0381116103c1576104ef903690600401613803565b90929091906001600160401b0361010435116103c1576105153661010435600401613803565b9097909690610124356001600160401b0381116103c15761053a903690600401613803565b6080919091529a610144356001600160401b0381116103c157610561903690600401613803565b6101005260c052335f52600560205260ff60405f2054161561179657610594610140516004016101605161018051617c2d565b60405160a08190526001600160401b036101408201908111911117610cf6576106166106509b6106046106619f97610627956105f66106429d6106359b61014060a051016040526105eb36610140516004016141b2565b60a051523691613974565b602060a05101523691613974565b604060a0510152369061012051613974565b606060a0510152369060e051613974565b608060a05101523691613974565b60a0805101523691613974565b60c060a05101523691613974565b60e060a05101523690608051613974565b61010060a0510152610679366101005160c051613974565b61012060a051015260405161016051610180518237602081610160518101601781520301902060a05151805160148110156117825760ff80198454169116178255602081015191825160018060401b038111610cf6576106dc60018301546139f8565b601f811161173e575b506020601f82116001146116d457819293945f926116c9575b50508160011b915f199060031b1c19161760018201555b604082015180519092906001600160401b038111610cf65761073a60028401546139f8565b601f8111611685575b506020601f821160011461161b57819293945f92611610575b50508160011b915f199060031b1c19161760028301555b606081015180519092906001600160401b038111610cf65761079860038301546139f8565b601f81116115cc575b506020601f821160011461156257819293945f92611557575b50508160011b915f199060031b1c19161760038201555b608082015180519092906001600160401b038111610cf6576107f660048401546139f8565b601f8111611513575b506020601f82116001146114a957819293945f9261149e575b50508160011b915f199060031b1c19161760048301555b60a08101518051906001600160401b038211610cf65761085260058501546139f8565b601f811161145a575b50602090601f83116001146113eb5760c09392915f91836113e0575b50508160011b915f199060031b1c19161760058401555b01518051906001600160401b038211610cf65781906108b060068501546139f8565b601f8111611390575b50602090601f8311600114611322575f92611317575b50508160011b915f199060031b1c19161760068201555b60a051602001518051906001600160401b038211610cf657819061090d60078501546139f8565b601f81116112c7575b50602090601f8311600114611259575f9261124e575b50508160011b915f199060031b1c19161760078201555b60a051604001518051906001600160401b038211610cf657819061096a60088501546139f8565b601f81116111fe575b50602090601f8311600114611190575f92611185575b50508160011b915f199060031b1c19161760088201555b60a051606001518051906001600160401b038211610cf65781906109c760098501546139f8565b601f8111611135575b50602090601f83116001146110c7575f926110bc575b50508160011b915f199060031b1c19161760098201555b60a051608001518051906001600160401b038211610cf6578190610a24600a8501546139f8565b601f8111611069575b50602090601f8311600114610ffb575f92610ff0575b50508160011b915f199060031b1c191617600a8201555b60a0805101518051906001600160401b038211610cf6578190610a80600b8501546139f8565b601f8111610f9d575b50602090601f8311600114610f2f575f92610f24575b50508160011b915f199060031b1c191617600b8201555b60a05160c001518051909190600c8201906001600160401b038111610cf657610adf82546139f8565b601f8111610edf575b506020601f8211600114610e7d57819293945f92610e72575b50508160011b915f199060031b1c19161790555b60a05160e001518051909190600d8201906001600160401b038111610cf657610b3e82546139f8565b601f8111610e2d575b506020601f8211600114610dcb57819293945f92610dc0575b50508160011b915f199060031b1c19161790555b60a051610100015180519190600e8201906001600160401b038411610cf657610b9d82546139f8565b601f8111610d7b575b50602090601f8511600114610d1557600f94915f9183610d0a575b50508160011b915f199060031b1c19161790555b0161012060a051015190815160018060401b038111610cf657610bf882546139f8565b601f8111610cb1575b50602092601f8211600114610c5157928192935f92610c46575b50508160011b915f199060031b1c19161790555b6103ad610140516004016101605161018051617d8d565b015190508380610c1b565b601f19821693835f5260205f20915f5b868110610c995750836001959610610c81575b505050811b019055610c2f565b01515f1960f88460031b161c19169055838080610c74565b91926020600181928685015181550194019201610c61565b825f5260205f20601f830160051c81019160208410610cec575b601f0160051c01905b818110610ce15750610c01565b5f8155600101610cd4565b9091508190610ccb565b634e487b7160e01b5f52604160045260245ffd5b015190508580610bc1565b90601f19851691835f5260205f20925f5b818110610d635750916001939187600f989410610d4b575b505050811b019055610bd5565b01515f1960f88460031b161c19169055858080610d3e565b92936020600181928786015181550195019301610d26565b825f5260205f20601f860160051c81019160208710610db6575b601f0160051c01905b818110610dab5750610ba6565b5f8155600101610d9e565b9091508190610d95565b015190508480610b60565b601f19821690835f5260205f20915f5b818110610e1557509583600195969710610dfd575b505050811b019055610b74565b01515f1960f88460031b161c19169055848080610df0565b9192602060018192868b015181550194019201610ddb565b825f5260205f20601f830160051c81019160208410610e68575b601f0160051c01905b818110610e5d5750610b47565b5f8155600101610e50565b9091508190610e47565b015190508480610b01565b601f19821690835f5260205f20915f5b818110610ec757509583600195969710610eaf575b505050811b019055610b15565b01515f1960f88460031b161c19169055848080610ea2565b9192602060018192868b015181550194019201610e8d565b825f5260205f20601f830160051c81019160208410610f1a575b601f0160051c01905b818110610f0f5750610ae8565b5f8155600101610f02565b9091508190610ef9565b015190508380610a9f565b9250600b84015f5260205f20905f935b601f1984168510610f82576001945083601f19811610610f6a575b505050811b01600b820155610ab6565b01515f1960f88460031b161c19169055838080610f5a565b81810151835560209485019460019093019290910190610f3f565b909150600b84015f5260205f20601f840160051c81019160208510610fe6575b90601f859493920160051c01905b818110610fd85750610a89565b5f8155849350600101610fcb565b9091508190610fbd565b015190508380610a43565b9250600a84015f5260205f20905f935b601f198416851061104e576001945083601f19811610611036575b505050811b01600a820155610a5a565b01515f1960f88460031b161c19169055838080611026565b8181015183556020948501946001909301929091019061100b565b909150600a84015f5260205f20601f840160051c810191602085106110b2575b90601f859493920160051c01905b8181106110a45750610a2d565b5f8155849350600101611097565b9091508190611089565b0151905083806109e6565b9250600984015f5260205f20905f935b601f198416851061111a576001945083601f19811610611102575b505050811b0160098201556109fd565b01515f1960f88460031b161c191690558380806110f2565b818101518355602094850194600190930192909101906110d7565b909150600984015f5260205f20601f840160051c81016020851061117e575b90849392915b601f830160051c820181106111705750506109d0565b5f815585945060010161115a565b5080611154565b015190508380610989565b9250600884015f5260205f20905f935b601f19841685106111e3576001945083601f198116106111cb575b505050811b0160088201556109a0565b01515f1960f88460031b161c191690558380806111bb565b818101518355602094850194600190930192909101906111a0565b909150600884015f5260205f20601f840160051c810160208510611247575b90849392915b601f830160051c82018110611239575050610973565b5f8155859450600101611223565b508061121d565b01519050838061092c565b9250600784015f5260205f20905f935b601f19841685106112ac576001945083601f19811610611294575b505050811b016007820155610943565b01515f1960f88460031b161c19169055838080611284565b81810151835560209485019460019093019290910190611269565b909150600784015f5260205f20601f840160051c810160208510611310575b90849392915b601f830160051c82018110611302575050610916565b5f81558594506001016112ec565b50806112e6565b0151905083806108cf565b9250600684015f5260205f20905f935b601f1984168510611375576001945083601f1981161061135d575b505050811b0160068201556108e6565b01515f1960f88460031b161c1916905583808061134d565b81810151835560209485019460019093019290910190611332565b909150600684015f5260205f20601f840160051c8101602085106113d9575b90849392915b601f830160051c820181106113cb5750506108b9565b5f81558594506001016113b5565b50806113af565b015190508580610877565b90600585015f5260205f20915f5b601f1985168110611442575091839160019360c09695601f1981161061142a575b505050811b01600584015561088e565b01515f1960f88460031b161c1916905585808061141a565b919260206001819286850151815501940192016113f9565b600585015f5260205f20601f840160051c810160208510611497575b601f830160051c8201811061148c57505061085b565b5f8155600101611476565b5080611476565b015190508480610818565b600484015f5260205f20905f5b601f19841681106114fb5750600193949583601f198116106114e3575b505050811b01600483015561082f565b01515f1960f88460031b161c191690558480806114d3565b9091602060018192858a0151815501930191016114b6565b600484015f5260205f20601f830160051c810160208410611550575b601f830160051c820181106115455750506107ff565b5f815560010161152f565b508061152f565b0151905084806107ba565b600383015f5260205f20905f5b601f19841681106115b45750600193949583601f1981161061159c575b505050811b0160038201556107d1565b01515f1960f88460031b161c1916905584808061158c565b9091602060018192858a01518155019301910161156f565b600383015f5260205f20601f830160051c810160208410611609575b601f830160051c820181106115fe5750506107a1565b5f81556001016115e8565b50806115e8565b01519050848061075c565b600284015f5260205f20905f5b601f198416811061166d5750600193949583601f19811610611655575b505050811b016002830155610773565b01515f1960f88460031b161c19169055848080611645565b9091602060018192858a015181550193019101611628565b600284015f5260205f20601f830160051c8101602084106116c2575b601f830160051c820181106116b7575050610743565b5f81556001016116a1565b50806116a1565b0151905084806106fe565b600183015f5260205f20905f5b601f19841681106117265750600193949583601f1981161061170e575b505050811b016001820155610715565b01515f1960f88460031b161c191690558480806116fe565b9091602060018192858a0151815501930191016116e1565b600183015f5260205f20601f830160051c81016020841061177b575b601f830160051c820181106117705750506106e5565b5f815560010161175a565b508061175a565b634e487b7160e01b5f52602160045260245ffd5b60405163b601a68d60e01b8152600490fd5b346103c1576117b636613830565b97919094969295335f52600260205260ff60405f205416156103af57611872611879926118437faf0c98c5c4879ef897a044cdac758c7bd233c9d4ac8cdbb360f44280e7b0047d99611809858989617c2d565b611813898d617d2e565b60405192611820846138c9565b61182a36876141b2565b8452611837368b8f613974565b60208501523691613974565b6040820152611853368c8a613974565b606082015260405186868237602081888101601881520301902061428d565b8383617d8d565b81604051928392833781015f81520390209381604051928392833781015f8152039020936118b4604051928392602084526020840191614c3b565b0390a3005b346103c1576118c736613e2c565b929b9499969798959a939c9f919e909d6101c0526101a0526101e0529a9b98999697949592939091335f52600260205260ff60405f205416156103af576101c0516101a051906101e0519161191b92617c2d565b6040519d8e9161192a836138ff565b366101c05190611939916141b2565b8352369061194692613974565b9060200152369061195692613974565b60408c0152369061196692613974565b60608a0152369061197692613974565b6080880152369061198692613974565b60a0860152369061199692613974565b60c084015236906119a692613974565b60e08201526040516101a0516101e0518237806101a051810160128152036020019020906119d3916158c8565b6101c0516101a051906101e051916103ad92617d8d565b346103c15760203660031901126103c1576004356001600160a01b03818116918290036103c1575f54908116803303611a57578215611a455782905f80516020617ed28339815191525f80a36001600160a01b031916175f55005b60405163d92e233d60e01b8152600490fd5b6040516330cd747160e01b8152600490fd5b346103c15760203660031901126103c1576004356001600160401b0381116103c1576020611a9e611ab19236906004016139b9565b81604051938285809451938492016139d7565b81016015815203019020611ac481613ad2565b611b12611ad360078401613a30565b92611ae060088201613a30565b90611aed60098201613a30565b611b05600b611afe600a8501613a30565b9301613a30565b9260405196879687613c77565b0390f35b346103c15760203660031901126103c1576004356001600160401b0381116103c1576020611a9e611b4b9236906004016139b9565b81016016815203019020611b5e81613ad2565b611b12611b6d60078401613a30565b92611b7a60088201613a30565b90611b8760098201613a30565b611b93600a8301613a30565b90611bac600c611ba5600b8601613a30565b9401613a30565b93604051978897886140a2565b346103c1575f3660031901126103c1576008546040516001600160a01b039091168152602090f35b346103c157611bef36613ff4565b919996959092989798335f52600260205260ff60405f205416156103af576103ad9a61037161035597611c39976103656103a89b8f978f8f9961034b8161035c9361037d9d617c2d565b608082015260405184848237602081868101601c8152030190206171a2565b346103c15760203660031901126103c1576004356001600160401b0381116103c1576020611a9e611c8d9236906004016139b9565b8101601a815203019020611ca081613ad2565b611b12611caf60078401613a30565b92611cbc60088201613a30565b90611cd5600a611cce60098401613a30565b9201613a30565b9160405195869586613c1c565b346103c15760203660031901126103c1576004356001600160a01b03818116918290036103c1575f54163303611a5757805f52600460205260405f2060ff1981541690557fb3995d3ad0a4cb17193137b6b470c2eda6bbf6d63f3d135f197fc4cdeedc27905f80a2005b346103c15760203660031901126103c1576004356001600160a01b03818116918290036103c15760015416803303611ddb578115611a45576007544210611dc957600880546001600160a01b03191683179055426006557fe7eb1bf44bc7e6084d5d89f19e76a2b46fed60ff3eb9e650f3db79a386391c615f80a3005b6040516333ca6ceb60e21b8152600490fd5b6040516320a6214d60e21b8152600490fd5b346103c157611dfb36613ce4565b989196939495929790999a9c9b9c335f52600460205260ff60405f20541615611ecd578d9b8f8d8f611e2c92617c2d565b6040519c611e398e6138e4565b36611e43916141b2565b8d523690611e5092613974565b60208c01523690611e6092613974565b60408a01523690611e7092613974565b60608801523690611e8092613974565b60808601523690611e9092613974565b60a08401523690611ea092613974565b60c082015260405182858237808381016016815203602001902090611ec491614c5b565b6103ad92617d8d565b60405163ebee8ba760e01b8152600490fd5b346103c157611eed36613ff4565b9991969798929095939498335f52600260205260ff60405f205416156103af5761187289611f9a611fc9947f07c9fc4ac9266376cb17afdcee0f23f0f5abaf32dab736c7d891c595d39725bd9b611f8e8f611f49888c8c617c2d565b611f538c87617d2e565b611f5d8d82617d2e565b611f8160405196611f6d88613936565b611f77368b6141b2565b88528d3691613974565b60208701528c3691613974565b60408501523691613974565b6060820152611faa368e8b613974565b608082015260405186868237602081888101601a8152030190206171a2565b81604051928392833781015f81520390209481604051928392833781015f81520390209481604051928392833781015f815203902094612016604051928392602084526020840191614c3b565b0390a4005b346103c15760203660031901126103c1576004356001600160401b0381116103c1576020611a9e6120509236906004016139b9565b8101601481520301902061206381613ad2565b611b1261207260078401613a30565b9261207f60088201613a30565b9061208c60098201613a30565b612098600a8301613a30565b6120a4600b8401613a30565b916120bd600d6120b6600c8701613a30565b9501613a30565b9460405198899889614120565b346103c1576120d836613f2b565b9691949392959097989a999a335f52600260205260ff60405f205416156103af576121048c8c8f617c2d565b604051996121118b61391b565b61211b368e6141b2565b8b52369061212892613974565b60208a0152369061213892613974565b6040880152369061214892613974565b6060860152369061215892613974565b6080840152369061216892613974565b60a08201526040518285823780838101600c815203602001902090611ec49161663f565b346103c15760203660031901126103c1576004356001600160a01b038116908190036103c1575f526003602052602060ff60405f2054166040519015158152f35b346103c1575f3660031901126103c15760408051908101906001600160401b03821181831017610cf657611b1291604052600e81526d61722d6f70657261746f722d763160901b6020820152604051918291602083526020830190613b68565b346103c15760203660031901126103c1576004356001600160a01b03818116918290036103c1575f54163303611a5757805f52600560205260405f2060ff1981541690557fc28840c72026297551adaf2f67ff2d6aca1b2c4ed12cf5023d94ba7076e75a095f80a2005b346103c1576122a536613e2c565b929b9499969798959a939c9f919e909d6102205261020052610240529a9b98999697949592939091335f52600260205260ff60405f205416156103af5761022051610200519061024051916122f992617c2d565b6040519d8e91612308836138ff565b366102205190612317916141b2565b8352369061232492613974565b9060200152369061233492613974565b60408c0152369061234492613974565b60608a0152369061235492613974565b6080880152369061236492613974565b60a0860152369061237492613974565b60c0840152369061238492613974565b60e0820152604051610200516102405182378061020051810160148152036020019020906123b1916158c8565b61022051610200519061024051916103ad92617d8d565b346103c15760203660031901126103c1576004356001600160a01b03818116918290036103c1575f54163303611a5757805f52600260205260405f2060ff1981541690557f80c0b871b97b595b16a7741c1b06fed0c6f6f558639f18ccbce50724325dc40d5f80a2005b346103c15761244036613ff4565b919996959092989798335f52600260205260ff60405f205416156103af576103ad9a6103716103559761248a976103656103a89b8f978f8f9961034b8161035c9361037d9d617c2d565b608082015260405184848237602081868101600d8152030190206171a2565b346103c1576124b736613f2b565b9691949392959097989a999a335f52600260205260ff60405f205416156103af576124e38c8c8f617c2d565b604051996124f08b61391b565b6124fa368e6141b2565b8b52369061250792613974565b60208a0152369061251792613974565b6040880152369061252792613974565b6060860152369061253792613974565b6080840152369061254792613974565b60a08201526040518285823780838101600e815203602001902090611ec49161663f565b346103c15760203660031901126103c1576004356001600160401b0381116103c1576020611a9e6125a09236906004016139b9565b8101601281520301902061206381613ad2565b346103c1576125c136613830565b9597919796929496335f52600260205260ff60405f205416156103af5761187288612641611879947fa62ae18c8132954544e02a502215888bdc7d7df53e52873d79a81f91544f2dba9a611f8e8e61261a888c8c617c2d565b6126248c87617d2e565b61263460405196611f6d886138c9565b602087015236908d613974565b606082015260405186868237602081888101601b81520301902061428d565b346103c15760203660031901126103c1576004356001600160a01b03818116918290036103c1575f54163303611a57578015611a4557805f52600260205260405f20600160ff198254161790557fac6fa858e9350a46cec16539926e0fde25b7629f84b5a72bffaae4df888ae86d5f80a2005b346103c1576126e136613f2b565b9691949392959097989a999a335f52600360205260ff60405f205416156127955761270d8c8c8f617c2d565b6040519961271a8b61391b565b612724368e6141b2565b8b52369061273192613974565b60208a0152369061274192613974565b6040880152369061275192613974565b6060860152369061276192613974565b6080840152369061277192613974565b60a082015260405182858237808381016015815203602001902090611ec49161663f565b604051633b4d583360e21b8152600490fd5b346103c15760203660031901126103c1576004356001600160401b0381116103c1576020611a9e6127dc9236906004016139b9565b8101601181520301902061206381613ad2565b346103c1576127fd36613ff4565b919996959092989798335f52600260205260ff60405f205416156103af576103ad9a61037161035597612847976103656103a89b8f978f8f9961034b8161035c9361037d9d617c2d565b608082015260405184848237602081868101600a8152030190206171a2565b346103c1575f3660031901126103c1575f546040516001600160a01b039091168152602090f35b346103c15760203660031901126103c1576004356001600160401b0381116103c1576020611a9e6128c29236906004016139b9565b81016013815203019020611b5e81613ad2565b346103c15760203660031901126103c1576004356001600160401b0381116103c1576020611a9e61290a9236906004016139b9565b8101601881520301902061291d81613ad2565b611b1261292c60078401613a30565b9261293e6009611cce60088401613a30565b9060405194859485613de4565b346103c15760203660031901126103c1576004356001600160401b0381116103c1576020611a9e6129809236906004016139b9565b8101600e815203019020611ac481613ad2565b346103c15760203660031901126103c1576004356001600160401b0381116103c1576020611a9e6129c89236906004016139b9565b8101600b815203019020611ac481613ad2565b346103c1575f3660031901126103c1576001546040516001600160a01b039091168152602090f35b346103c15760203660031901126103c1576004356001600160a01b03818116918290036103c1575f54163303611a5757805f52600360205260405f2060ff1981541690557f6b66d1bba82a11aca959b4321a690cd67c826fb136617127d12973beb6957b335f80a2005b346103c15760203660031901126103c1576004356001600160a01b03818116918290036103c1575f54163303611a57578015611a4557805f52600560205260405f20600160ff198254161790557f5bfe4ffbe756ad2df32059678eca22cadff8ecb3440f958eae6ff7b2d436e1ba5f80a2005b346103c15760203660031901126103c1576004356001600160a01b038116908190036103c1575f526004602052602060ff60405f2054166040519015158152f35b346103c157612b2f36613ff4565b919996959092989798335f52600260205260ff60405f205416156103af576103ad9a61037161035597612b79976103656103a89b8f978f8f9961034b8161035c9361037d9d617c2d565b608082015260405184848237602081868101600f8152030190206171a2565b346103c157612ba636613f2b565b9691949392959097989a999a335f52600260205260ff60405f205416156103af57612bd28c8c8f617c2d565b60405199612bdf8b61391b565b612be9368e6141b2565b8b523690612bf692613974565b60208a01523690612c0692613974565b60408801523690612c1692613974565b60608601523690612c2692613974565b60808401523690612c3692613974565b60a08201526040518285823780838101600b815203602001902090611ec49161663f565b346103c157612c6836613f2b565b9691949392959097989a999a335f52600260205260ff60405f205416156103af57612c948c8c8f617c2d565b60405199612ca18b61391b565b612cab368e6141b2565b8b523690612cb892613974565b60208a01523690612cc892613974565b60408801523690612cd892613974565b60608601523690612ce892613974565b60808401523690612cf892613974565b60a082015260405182858237808381016009815203602001902090611ec49161663f565b346103c15760203660031901126103c1576004356001600160401b0381116103c15760ff612d546020611a9e819436906004016139b9565b8101601d81520301902054166040519015158152f35b346103c15760203660031901126103c1576004356001600160401b0381116103c1576020611a9e612d9f9236906004016139b9565b8101601981520301902061291d81613ad2565b346103c15760203660031901126103c1576004356001600160401b0381116103c1576020611a9e612de79236906004016139b9565b8101601c815203019020611ca081613ad2565b346103c15760203660031901126103c1576004356001600160401b0381116103c1576020611a9e612e2f9236906004016139b9565b81016009815203019020611ac481613ad2565b613dc7565b346103c157612e5536613e2c565b929b9499969798959a939c9f919e909d61028052610260526102a0529a9b98999697949592939091335f52600260205260ff60405f205416156103af576102805161026051906102a05191612ea992617c2d565b6040519d8e91612eb8836138ff565b366102805190612ec7916141b2565b83523690612ed492613974565b90602001523690612ee492613974565b60408c01523690612ef492613974565b60608a01523690612f0492613974565b60808801523690612f1492613974565b60a08601523690612f2492613974565b60c08401523690612f3492613974565b60e0820152604051610260516102a0518237806102605181016011815203602001902090612f61916158c8565b6102805161026051906102a051916103ad92617d8d565b346103c15760203660031901126103c1576004356001600160401b0381116103c1576020611a9e612fad9236906004016139b9565b8101600f815203019020611ca081613ad2565b346103c15760203660031901126103c1576004356001600160a01b03818116918290036103c1576001549081163303611ddb578115611a45576001600160a01b03191681176001557f83c14e1947c5a639434d6195a6e9d85ab3471a5049c66e0aa46b71e2c0a06dde5f80a2005b346103c15760203660031901126103c1576004356001600160401b0381116103c1576020611a9e6130639236906004016139b9565b8101601b81520301902061291d81613ad2565b346103c1575f3660031901126103c1576020600754604051908152f35b346103c1576130a136613ce4565b989196939495929790999a9c9b9c335f52600260205260ff60405f205416156103af578d9b8f8d8f6130d292617c2d565b6040519c6130df8e6138e4565b366130e9916141b2565b8d5236906130f692613974565b60208c0152369061310692613974565b60408a0152369061311692613974565b6060880152369061312692613974565b6080860152369061313692613974565b60a0840152369061314692613974565b60c082015260405182858237808381016013815203602001902090611ec491614c5b565b346103c15760203660031901126103c1576004356001600160a01b03818116918290036103c1575f54163303611a57578015611a4557805f52600360205260405f20600160ff198254161790557f6d52a43c5decf356b1093e9f3b6beb1eb8f9f3f333a8f13171e1d89c143c45755f80a2005b346103c15760203660031901126103c1576004356001600160a01b038116908190036103c1575f526005602052602060ff60405f2054166040519015158152f35b346103c15760203660031901126103c1576004356001600160a01b03818116918290036103c1575f54163303611a57578015611a4557805f52600460205260405f20600160ff198254161790557f65e52bd3fb1902d00941506c0a765dfad293c8c4d5851c7a4dc55ad5d60ff5e35f80a2005b346103c1575f3660031901126103c1576001546001600160a01b039081163303611ddb5760065480156133565762093a808101809111613342574210613330575f54600854828116809383165f80516020617ed28339815191525f80a36001600160a01b031991821683175f908155911660085560068190557ffcd2de31341801b7fd80895c780aae50c1505fd674ff1b9b9764c56c633434d69080a2005b604051634b362d4f60e01b8152600490fd5b634e487b7160e01b5f52601160045260245ffd5b60405163078591a760e11b8152600490fd5b346103c1575f3660031901126103c1576020600654604051908152f35b346103c15760203660031901126103c1576004356001600160401b0381116103c1576020611a9e6133ba9236906004016139b9565b81016010815203019020611ca081613ad2565b346103c15760203660031901126103c1576004356001600160401b0381116103c1576020611a9e6134029236906004016139b9565b8101600c815203019020611ac481613ad2565b346103c15760203660031901126103c1576004356001600160401b0381116103c1576020611a9e61344a9236906004016139b9565b8101600a815203019020611ca081613ad2565b346103c15760203660031901126103c1576004356001600160401b0381116103c1576020611a9e6134929236906004016139b9565b8101600d815203019020611ca081613ad2565b346103c15760203660031901126103c1576004356001600160a01b038116908190036103c1575f526002602052602060ff60405f2054166040519015158152f35b346103c15760203660031901126103c1576004356001600160401b0381116103c1576135169036906004016139b9565b604051818180935160208193019161352d926139d7565b81016017815203602001902061354281613ad2565b61354e60078301613a30565b9161355b60088201613a30565b9061356860098201613a30565b613574600a8301613a30565b613580600b8401613a30565b61358c600c8501613a30565b91613599600d8601613a30565b936135a6600e8701613a30565b95600f016135b390613a30565b96604051998a99610140808c528b016135cb91613b8d565b8a810360208c01526135dc91613b68565b89810360408b01526135ed91613b68565b88810360608a01526135fe91613b68565b878103608089015261360f91613b68565b86810360a088015261362091613b68565b85810360c087015261363191613b68565b84810360e086015261364291613b68565b83810361010085015261365491613b68565b828103610120840152611b1291613b68565b346103c1575f3660031901126103c1575f546001600160a01b03163303611a5757600880546001600160a01b03191690555f6006554262093a808101908110613342576007557fedd770ee01b7c0ef4f503125eafdc2725536cbf32342dffcaa300d95a7cafce35f80a1005b346103c1576136e036613830565b98979195909497969296335f52600260205260ff60405f205416156137f4575091816137ab846118728b61378c8e6137417f4c008f49c3178c1ce0fb3c86aed7d2e80aca376ed1476947ca5a220f45e9a5089e9d9c9a896118b49d9b617c2d565b61374b8984617d2e565b61376f6040519361375b856138c9565b61376536886141b2565b85528a3691613974565b602084015261377f368d8f613974565b604084015236908a613974565b606082015260405186868237602081888101601981520301902061428d565b81604051928392833781015f81520390209681604051928392833781015f8152039020966137e6604051958695604087526040870191614c3b565b918483036020860152614c3b565b631f0853c160e21b8152600490fd5b9181601f840112156103c1578235916001600160401b0383116103c157602083818601950101116103c157565b906003199060a0828401126103c1576001600160401b0390600480358381116103c1578561385f918301613803565b95909594602435908582116103c15760e09082840301126103c1578201936044358181116103c15782613893918501613803565b949094936064358381116103c157846138ad918301613803565b949094936084359081116103c1576138c59201613803565b9091565b608081019081106001600160401b03821117610cf657604052565b60e081019081106001600160401b03821117610cf657604052565b61010081019081106001600160401b03821117610cf657604052565b60c081019081106001600160401b03821117610cf657604052565b60a081019081106001600160401b03821117610cf657604052565b601f909101601f19168101906001600160401b03821190821017610cf657604052565b9192916001600160401b038211610cf6576040519161399d601f8201601f191660200184613951565b8294818452818301116103c1578281602093845f960137010152565b9080601f830112156103c1578160206139d493359101613974565b90565b5f5b8381106139e85750505f910152565b81810151838201526020016139d9565b90600182811c92168015613a26575b6020831014613a1257565b634e487b7160e01b5f52602260045260245ffd5b91607f1691613a07565b9060405191825f8254613a42816139f8565b908184526020946001916001811690815f14613ab05750600114613a72575b505050613a7092500383613951565b565b5f90815285812095935091905b818310613a98575050613a7093508201015f8080613a61565b85548884018501529485019487945091830191613a7f565b92505050613a7094925060ff191682840152151560051b8201015f8080613a61565b90604051613adf816138e4565b809260ff815416906014821015611782576006613b569160c0938552613b0760018201613a30565b6020860152613b1860028201613a30565b6040860152613b2960038201613a30565b6060860152613b3a60048201613a30565b6080860152613b4b60058201613a30565b60a086015201613a30565b910152565b9060148210156117825752565b90602091613b81815180928185528580860191016139d7565b601f01601f1916010190565b6139d491613b9c818351613b5b565b60c0613c0b613bf9613be7613bd5613bc3602088015160e0602089015260e0880190613b68565b60408801518782036040890152613b68565b60608701518682036060880152613b68565b60808601518582036080870152613b68565b60a085015184820360a0860152613b68565b9201519060c0818403910152613b68565b93906139d49593613c4d613c6994613c3f613c5b9460a08a5260a08a0190613b8d565b9088820360208a0152613b68565b908682036040880152613b68565b908482036060860152613b68565b916080818403910152613b68565b949193613cba613cd694613cac6139d49997613c9e613cc89660c08c5260c08c0190613b8d565b908a820360208c0152613b68565b9088820360408a0152613b68565b908682036060880152613b68565b908482036080860152613b68565b9160a0818403910152613b68565b60031990610100818301126103c1576004906001600160401b0382358181116103c15782613d13918501613803565b95909594602435908382116103c15760e09082860301126103c1578401936044358381116103c15784613d47918301613803565b949094936064358181116103c15782613d61918501613803565b949094936084358381116103c15784613d7b918301613803565b9490949360a4358181116103c15782613d95918501613803565b9490949360c4358381116103c15784613daf918301613803565b9490949360e4359081116103c1576138c59201613803565b346103c1575f3660031901126103c157602060405162093a808152f35b92613e106139d49593613e02613e1e94608088526080880190613b8d565b908682036020880152613b68565b908482036040860152613b68565b916060818403910152613b68565b9060031990610120828401126103c1576001600160401b0390600480358381116103c15785613e5c918301613803565b95909594602435908582116103c15760e09082840301126103c1578201936044358181116103c15782613e90918501613803565b949094936064358381116103c15784613eaa918301613803565b949094936084358181116103c15782613ec4918501613803565b9490949360a4358381116103c15784613ede918301613803565b9490949360c4358181116103c15782613ef8918501613803565b9490949360e4358381116103c15784613f12918301613803565b94909493610104359081116103c1576138c59201613803565b906003199060e0828401126103c1576001600160401b0390600480358381116103c15785613f5a918301613803565b95909594602435908582116103c15760e09082840301126103c1578201936044358181116103c15782613f8e918501613803565b949094936064358381116103c15784613fa8918301613803565b949094936084358181116103c15782613fc2918501613803565b9490949360a4358381116103c15784613fdc918301613803565b9490949360c4359081116103c1576138c59201613803565b6003199060c0818301126103c1576004906001600160401b0382358181116103c15782614022918501613803565b95909594602435908382116103c15760e09082860301126103c1578401936044358381116103c15784614056918301613803565b949094936064358181116103c15782614070918501613803565b949094936084358381116103c1578461408a918301613803565b9490949360a4359081116103c1576138c59201613803565b9592614112946140e86140f6926140da614104966140cc6139d49d9b9760e08e8181520190613b8d565b8c810360208e015290613b68565b908a820360408c0152613b68565b9088820360608a0152613b68565b908682036080880152613b68565b9084820360a0860152613b68565b9160c0818403910152613b68565b96939461417a6141a49661416c6141969661415e8c6139d49e9c9861415061418899610100808552840190613b8d565b916020818403910152613b68565b8c810360408e015290613b68565b908a820360608c0152613b68565b9088820360808a0152613b68565b9086820360a0880152613b68565b9084820360c0860152613b68565b9160e0818403910152613b68565b919060e0838203126103c157604051906141cb826138e4565b8193803560148110156103c15783526001600160401b039160208201358381116103c157816141fb9184016139b9565b602085015260408201358381116103c157816142189184016139b9565b604085015260608201358381116103c157816142359184016139b9565b606085015260808201358381116103c157816142529184016139b9565b608085015260a08201358381116103c1578161426f9184016139b9565b60a085015260c08201359283116103c15760c092613b5692016139b9565b815190815160148110156117825760ff8019835416911617815560019182820191602090818301519182519460018060401b0395868111610cf657806142d383546139f8565b95601f96878111614bed575b508490878311600114614b8e575f92614b83575b50505f19600383901b1c191690881b1790555b600282016040850151805190878211610cf657819061432584546139f8565b878111614b35575b508490878311600114614ad6575f92614acb575b50505f19600383901b1c191690881b1790555b6003938483016060820151805190888211610cf657819061437584546139f8565b888111614a7d575b508590888311600114614a1f575f92614a14575b50505f1982891b1c191690891b1790555b60049283810160808301518051908982116146f45781906143c384546139f8565b8981116149c6575b50869089831160011461495f575f92614954575b50505f19828a1b1c1916908a1b1790555b60059182820160a08201518051908a821161494157819061441184546139f8565b8a81116148f5575b5087908a831160011461488e575f92614883575b50505f19828b1b1c1916908b1b1790555b60c00151805160068301918982116146f457819061445c84546139f8565b898111614837575b5086908983116001146147d0575f926147c5575b50505f19828a1b1c1916908a1b1790555b60078101838a01518051908982116146f45781906144a784546139f8565b898111614779575b508690898311600114614712575f92614707575b50505f19828a1b1c1916908a1b1790555b6008810160408a01518051908982116146f4576144f183546139f8565b8881116146b3575b50859088831160011461464157918060099492606096945f92614636575b50505f19828c1b1c1916908c1b1790555b01980151928351968711614623575061454188546139f8565b908482116145e2575b50508092851160011461458057509383949184925f95614575575b50501b925f19911b1c1916179055565b015193505f80614565565b92919084601f198116885f52855f20955f905b898383106145c857505050106145af575b50505050811b019055565b01519060f8845f19921b161c191690555f8080806145a4565b858701518955909701969485019488935090810190614593565b885f52825f209085808901821c830193858a1061461a575b01901c019087905b82811061460f575061454a565b5f8155018790614602565b935082936145fa565b604190634e487b7160e01b5f525260245ffd5b015190505f80614517565b8b9291601f19831691855f52885f20925f5b8a828210614694575050916060979593918560099896941061467d575b505050811b019055614528565b01515f19838e1b60f8161c191690555f8080614670565b91929395968291958786015181550195019301908e9594939291614653565b835f52865f2089808501881c8201928986106146eb575b01871c01908c905b8281106146e05750506144f9565b5f8155018c906146d2565b925081926146ca565b604187634e487b7160e01b5f525260245ffd5b015190505f806144c3565b908c9350601f19831691855f52885f20925f5b8a82821061475a5750508411614743575b505050811b0190556144d4565b01515f19838c1b60f8161c191690555f8080614736565b91929395968291958786015181550195019301908e9594939291614725565b909150835f52865f2089808501881c8201928986106147bc575b918e918695949301891c01915b8281106147ae5750506144af565b5f81558594508e91016147a0565b92508192614793565b015190505f80614478565b908c9350601f19831691855f52885f20925f5b8a8282106148185750508411614801575b505050811b019055614489565b01515f19838c1b60f8161c191690555f80806147f4565b91929395968291958786015181550195019301908e95949392916147e3565b909150835f52865f2089808501881c82019289861061487a575b918e918695949301891c01915b82811061486c575050614464565b5f81558594508e910161485e565b92508192614851565b015190505f8061442d565b908d9350601f19831691855f52895f20925f5b8b8282106148d657505084116148bf575b505050811b01905561443e565b01515f19838d1b60f8161c191690555f80806148b2565b91929395968291958786015181550195019301908f95949392916148a1565b909150835f52875f208a808501891c8201928a8610614938575b918f9186959493018a1c01915b82811061492a575050614419565b5f81558594508f910161491c565b9250819261490f565b604188634e487b7160e01b5f525260245ffd5b015190505f806143df565b908c9350601f19831691855f52885f20925f5b8a8282106149a75750508411614990575b505050811b0190556143f0565b01515f19838c1b60f8161c191690555f8080614983565b91929395968291958786015181550195019301908e9594939291614972565b909150835f52865f208980850160051c820192898610614a0b575b918e91869594930160051c01915b8281106149fd5750506143cb565b5f81558594508e91016149ef565b925081926149e1565b015190505f80614391565b908b9350601f19831691855f52875f20925f5b89828210614a675750508411614a50575b505050811b0190556143a2565b01515f19838b1b60f8161c191690555f8080614a43565b8385015186558f97909501949384019301614a32565b909150835f52855f208880850160051c820192888610614ac2575b918d91869594930160051c01915b828110614ab457505061437d565b5f81558594508d9101614aa6565b92508192614a98565b015190505f80614341565b908a9350601f19831691855f52865f20925f5b88828210614b1f5750508411614b07575b505050811b019055614354565b01515f1960f88460031b161c191690555f8080614afa565b8385015186558e97909501949384019301614ae9565b909150835f52845f208780850160051c820192878610614b7a575b918c91869594930160051c01915b828110614b6c57505061432d565b5f81558594508c9101614b5e565b92508192614b50565b015190505f806142f3565b908a9350601f19831691855f52865f20925f5b88828210614bd75750508411614bbf575b505050811b019055614306565b01515f1960f88460031b161c191690555f8080614bb2565b8385015186558e97909501949384019301614ba1565b909150835f52845f208780850160051c820192878610614c32575b918c91869594930160051c01915b828110614c245750506142df565b5f81558594508c9101614c16565b92508192614c08565b908060209392818452848401375f828201840152601f01601f1916010190565b815190815160148110156117825760ff8019835416911617815560019182820191602090818301519182519460018060401b0395868111610cf65780614ca183546139f8565b95601f9687811161587a575b50849087831160011461581b575f92615810575b50505f19600383901b1c191690881b1790555b600282016040850151805190878211610cf6578190614cf384546139f8565b8781116157c2575b508490878311600114615763575f92615758575b50505f19600383901b1c191690881b1790555b6003938483016060820151805190888211610cf6578190614d4384546139f8565b88811161570a575b5085908883116001146156ac575f926156a1575b50505f1982891b1c191690891b1790555b60049283810160808301518051908982116146f4578190614d9184546139f8565b898111615653575b5086908983116001146155ec575f926155e1575b50505f19828a1b1c1916908a1b1790555b60059182820160a08201518051908a8211614941578190614ddf84546139f8565b8a8111615595575b5087908a831160011461552e575f92615523575b50505f19828b1b1c1916908b1b1790555b60c00151805160068301918982116146f4578190614e2a84546139f8565b8981116154d7575b508690898311600114615470575f92615465575b50505f19828a1b1c1916908a1b1790555b60078101838a01518051908982116146f4578190614e7584546139f8565b898111615419575b5086908983116001146153b2575f926153a7575b50505f19828a1b1c1916908a1b1790555b6008810160408a01518051908982116146f4578190614ec184546139f8565b89811161535b575b5086908983116001146152f4575f926152e9575b50505f19828a1b1c1916908a1b1790555b6009810160608a01518051908982116146f4578190614f0d84546139f8565b89811161529d575b508690898311600114615236575f9261522b575b50505f19828a1b1c1916908a1b1790555b600a810160808a01518051908982116146f4578190614f5984546139f8565b8981116151df575b508690898311600114615178575f9261516d575b50505f19828a1b1c1916908a1b1790555b600b810160a08a01518051908982116146f457614fa383546139f8565b88811161512c575b5085908883116001146150ba579180600c949260c096945f926150af575b50505f19828c1b1c1916908c1b1790555b019801519283519687116146235750614ff388546139f8565b9084821161506e575b50508092851160011461502657509383949184925f956145755750501b925f19911b1c1916179055565b92919084601f198116885f52855f20955f905b8983831061505457505050106145af5750505050811b019055565b858701518955909701969485019488935090810190615039565b885f52825f209085808901821c830193858a106150a6575b01901c019087905b82811061509b5750614ffc565b5f815501879061508e565b93508293615086565b015190505f80614fc9565b8b9291601f19831691855f52885f20925f5b8a82821061510d5750509160c09795939185600c989694106150f6575b505050811b019055614fda565b01515f19838e1b60f8161c191690555f80806150e9565b91929395968291958786015181550195019301908e95949392916150cc565b835f52865f2089808501881c820192898610615164575b01871c01908c905b828110615159575050614fab565b5f8155018c9061514b565b92508192615143565b015190505f80614f75565b908c9350601f19831691855f52885f20925f5b8a8282106151c057505084116151a9575b505050811b019055614f86565b01515f19838c1b60f8161c191690555f808061519c565b91929395968291958786015181550195019301908e959493929161518b565b909150835f52865f2089808501881c820192898610615222575b918e918695949301891c01915b828110615214575050614f61565b5f81558594508e9101615206565b925081926151f9565b015190505f80614f29565b908c9350601f19831691855f52885f20925f5b8a82821061527e5750508411615267575b505050811b019055614f3a565b01515f19838c1b60f8161c191690555f808061525a565b91929395968291958786015181550195019301908e9594939291615249565b909150835f52865f2089808501881c8201928986106152e0575b918e918695949301891c01915b8281106152d2575050614f15565b5f81558594508e91016152c4565b925081926152b7565b015190505f80614edd565b908c9350601f19831691855f52885f20925f5b8a82821061533c5750508411615325575b505050811b019055614eee565b01515f19838c1b60f8161c191690555f8080615318565b91929395968291958786015181550195019301908e9594939291615307565b909150835f52865f2089808501881c82019289861061539e575b918e918695949301891c01915b828110615390575050614ec9565b5f81558594508e9101615382565b92508192615375565b015190505f80614e91565b908c9350601f19831691855f52885f20925f5b8a8282106153fa57505084116153e3575b505050811b019055614ea2565b01515f19838c1b60f8161c191690555f80806153d6565b91929395968291958786015181550195019301908e95949392916153c5565b909150835f52865f2089808501881c82019289861061545c575b918e918695949301891c01915b82811061544e575050614e7d565b5f81558594508e9101615440565b92508192615433565b015190505f80614e46565b908c9350601f19831691855f52885f20925f5b8a8282106154b857505084116154a1575b505050811b019055614e57565b01515f19838c1b60f8161c191690555f8080615494565b91929395968291958786015181550195019301908e9594939291615483565b909150835f52865f2089808501881c82019289861061551a575b918e918695949301891c01915b82811061550c575050614e32565b5f81558594508e91016154fe565b925081926154f1565b015190505f80614dfb565b908d9350601f19831691855f52895f20925f5b8b828210615576575050841161555f575b505050811b019055614e0c565b01515f19838d1b60f8161c191690555f8080615552565b91929395968291958786015181550195019301908f9594939291615541565b909150835f52875f208a808501891c8201928a86106155d8575b918f9186959493018a1c01915b8281106155ca575050614de7565b5f81558594508f91016155bc565b925081926155af565b015190505f80614dad565b908c9350601f19831691855f52885f20925f5b8a828210615634575050841161561d575b505050811b019055614dbe565b01515f19838c1b60f8161c191690555f8080615610565b91929395968291958786015181550195019301908e95949392916155ff565b909150835f52865f208980850160051c820192898610615698575b918e91869594930160051c01915b82811061568a575050614d99565b5f81558594508e910161567c565b9250819261566e565b015190505f80614d5f565b908b9350601f19831691855f52875f20925f5b898282106156f457505084116156dd575b505050811b019055614d70565b01515f19838b1b60f8161c191690555f80806156d0565b8385015186558f979095019493840193016156bf565b909150835f52855f208880850160051c82019288861061574f575b918d91869594930160051c01915b828110615741575050614d4b565b5f81558594508d9101615733565b92508192615725565b015190505f80614d0f565b908a9350601f19831691855f52865f20925f5b888282106157ac5750508411615794575b505050811b019055614d22565b01515f1960f88460031b161c191690555f8080615787565b8385015186558e97909501949384019301615776565b909150835f52845f208780850160051c820192878610615807575b918c91869594930160051c01915b8281106157f9575050614cfb565b5f81558594508c91016157eb565b925081926157dd565b015190505f80614cc1565b908a9350601f19831691855f52865f20925f5b88828210615864575050841161584c575b505050811b019055614cd4565b01515f1960f88460031b161c191690555f808061583f565b8385015186558e9790950194938401930161582e565b909150835f52845f208780850160051c8201928786106158bf575b918c91869594930160051c01915b8281106158b1575050614cad565b5f81558594508c91016158a3565b92508192615895565b815190815160148110156117825760ff8019835416911617815560019182820191602090818301519182519460018060401b0395868111610cf6578061590e83546139f8565b95601f968781116165f1575b508490878311600114616592575f92616587575b50505f19600383901b1c191690881b1790555b600282016040850151805190878211610cf657819061596084546139f8565b878111616539575b5084908783116001146164da575f926164cf575b50505f19600383901b1c191690881b1790555b6003938483016060820151805190888211610cf65781906159b084546139f8565b888111616481575b508590888311600114616423575f92616418575b50505f1982891b1c191690891b1790555b60049283810160808301518051908982116146f45781906159fe84546139f8565b8981116163ca575b508690898311600114616363575f92616358575b50505f19828a1b1c1916908a1b1790555b60059182820160a08201518051908a8211614941578190615a4c84546139f8565b8a811161630c575b5087908a83116001146162a5575f9261629a575b50505f19828b1b1c1916908b1b1790555b60c00151805160068301918982116146f4578190615a9784546139f8565b89811161624e575b5086908983116001146161e7575f926161dc575b50505f19828a1b1c1916908a1b1790555b60078101838a01518051908982116146f4578190615ae284546139f8565b898111616190575b508690898311600114616129575f9261611e575b50505f19828a1b1c1916908a1b1790555b6008810160408a01518051908982116146f4578190615b2e84546139f8565b8981116160d2575b50869089831160011461606b575f92616060575b50505f19828a1b1c1916908a1b1790555b6009810160608a01518051908982116146f4578190615b7a84546139f8565b898111616014575b508690898311600114615fad575f92615fa2575b50505f19828a1b1c1916908a1b1790555b600a810160808a01518051908982116146f4578190615bc684546139f8565b898111615f56575b508690898311600114615eef575f92615ee4575b50505f19828a1b1c1916908a1b1790555b600b810160a08a01518051908982116146f4578190615c1284546139f8565b898111615e98575b508690898311600114615e31575f92615e26575b50505f19828a1b1c1916908a1b1790555b600c810160c08a01518051908982116146f457615c5c83546139f8565b888111615de5575b508590888311600114615d73579180600d949260e096945f92615d68575b50505f19828c1b1c1916908c1b1790555b019801519283519687116146235750615cac88546139f8565b90848211615d27575b505080928511600114615cdf57509383949184925f956145755750501b925f19911b1c1916179055565b92919084601f198116885f52855f20955f905b89838310615d0d57505050106145af5750505050811b019055565b858701518955909701969485019488935090810190615cf2565b885f52825f209085808901821c830193858a10615d5f575b01901c019087905b828110615d545750615cb5565b5f8155018790615d47565b93508293615d3f565b015190505f80615c82565b8b9291601f19831691855f52885f20925f5b8a828210615dc65750509160e09795939185600d98969410615daf575b505050811b019055615c93565b01515f19838e1b60f8161c191690555f8080615da2565b91929395968291958786015181550195019301908e9594939291615d85565b835f52865f2089808501881c820192898610615e1d575b01871c01908c905b828110615e12575050615c64565b5f8155018c90615e04565b92508192615dfc565b015190505f80615c2e565b908c9350601f19831691855f52885f20925f5b8a828210615e795750508411615e62575b505050811b019055615c3f565b01515f19838c1b60f8161c191690555f8080615e55565b91929395968291958786015181550195019301908e9594939291615e44565b909150835f52865f2089808501881c820192898610615edb575b918e918695949301891c01915b828110615ecd575050615c1a565b5f81558594508e9101615ebf565b92508192615eb2565b015190505f80615be2565b908c9350601f19831691855f52885f20925f5b8a828210615f375750508411615f20575b505050811b019055615bf3565b01515f19838c1b60f8161c191690555f8080615f13565b91929395968291958786015181550195019301908e9594939291615f02565b909150835f52865f2089808501881c820192898610615f99575b918e918695949301891c01915b828110615f8b575050615bce565b5f81558594508e9101615f7d565b92508192615f70565b015190505f80615b96565b908c9350601f19831691855f52885f20925f5b8a828210615ff55750508411615fde575b505050811b019055615ba7565b01515f19838c1b60f8161c191690555f8080615fd1565b91929395968291958786015181550195019301908e9594939291615fc0565b909150835f52865f2089808501881c820192898610616057575b918e918695949301891c01915b828110616049575050615b82565b5f81558594508e910161603b565b9250819261602e565b015190505f80615b4a565b908c9350601f19831691855f52885f20925f5b8a8282106160b3575050841161609c575b505050811b019055615b5b565b01515f19838c1b60f8161c191690555f808061608f565b91929395968291958786015181550195019301908e959493929161607e565b909150835f52865f2089808501881c820192898610616115575b918e918695949301891c01915b828110616107575050615b36565b5f81558594508e91016160f9565b925081926160ec565b015190505f80615afe565b908c9350601f19831691855f52885f20925f5b8a828210616171575050841161615a575b505050811b019055615b0f565b01515f19838c1b60f8161c191690555f808061614d565b91929395968291958786015181550195019301908e959493929161613c565b909150835f52865f2089808501881c8201928986106161d3575b918e918695949301891c01915b8281106161c5575050615aea565b5f81558594508e91016161b7565b925081926161aa565b015190505f80615ab3565b908c9350601f19831691855f52885f20925f5b8a82821061622f5750508411616218575b505050811b019055615ac4565b01515f19838c1b60f8161c191690555f808061620b565b91929395968291958786015181550195019301908e95949392916161fa565b909150835f52865f2089808501881c820192898610616291575b918e918695949301891c01915b828110616283575050615a9f565b5f81558594508e9101616275565b92508192616268565b015190505f80615a68565b908d9350601f19831691855f52895f20925f5b8b8282106162ed57505084116162d6575b505050811b019055615a79565b01515f19838d1b60f8161c191690555f80806162c9565b91929395968291958786015181550195019301908f95949392916162b8565b909150835f52875f208a808501891c8201928a861061634f575b918f9186959493018a1c01915b828110616341575050615a54565b5f81558594508f9101616333565b92508192616326565b015190505f80615a1a565b908c9350601f19831691855f52885f20925f5b8a8282106163ab5750508411616394575b505050811b019055615a2b565b01515f19838c1b60f8161c191690555f8080616387565b91929395968291958786015181550195019301908e9594939291616376565b909150835f52865f208980850160051c82019289861061640f575b918e91869594930160051c01915b828110616401575050615a06565b5f81558594508e91016163f3565b925081926163e5565b015190505f806159cc565b908b9350601f19831691855f52875f20925f5b8982821061646b5750508411616454575b505050811b0190556159dd565b01515f19838b1b60f8161c191690555f8080616447565b8385015186558f97909501949384019301616436565b909150835f52855f208880850160051c8201928886106164c6575b918d91869594930160051c01915b8281106164b85750506159b8565b5f81558594508d91016164aa565b9250819261649c565b015190505f8061597c565b908a9350601f19831691855f52865f20925f5b88828210616523575050841161650b575b505050811b01905561598f565b01515f1960f88460031b161c191690555f80806164fe565b8385015186558e979095019493840193016164ed565b909150835f52845f208780850160051c82019287861061657e575b918c91869594930160051c01915b828110616570575050615968565b5f81558594508c9101616562565b92508192616554565b015190505f8061592e565b908a9350601f19831691855f52865f20925f5b888282106165db57505084116165c3575b505050811b019055615941565b01515f1960f88460031b161c191690555f80806165b6565b8385015186558e979095019493840193016165a5565b909150835f52845f208780850160051c820192878610616636575b918c91869594930160051c01915b82811061662857505061591a565b5f81558594508c910161661a565b9250819261660c565b815190815160148110156117825760ff8019835416911617815560019182820191602090818301519182519460018060401b0395868111610cf6578061668583546139f8565b95601f96878111617154575b5084908783116001146170f5575f926170ea575b50505f19600383901b1c191690881b1790555b600282016040850151805190878211610cf65781906166d784546139f8565b87811161709c575b50849087831160011461703d575f92617032575b50505f19600383901b1c191690881b1790555b6003938483016060820151805190888211610cf657819061672784546139f8565b888111616fe4575b508590888311600114616f86575f92616f7b575b50505f1982891b1c191690891b1790555b60049283810160808301518051908982116146f457819061677584546139f8565b898111616f2d575b508690898311600114616ec6575f92616ebb575b50505f19828a1b1c1916908a1b1790555b60059182820160a08201518051908a82116149415781906167c384546139f8565b8a8111616e6f575b5087908a8311600114616e08575f92616dfd575b50505f19828b1b1c1916908b1b1790555b60c00151805160068301918982116146f457819061680e84546139f8565b898111616db1575b508690898311600114616d4a575f92616d3f575b50505f19828a1b1c1916908a1b1790555b60078101838a01518051908982116146f457819061685984546139f8565b898111616cf3575b508690898311600114616c8c575f92616c81575b50505f19828a1b1c1916908a1b1790555b6008810160408a01518051908982116146f45781906168a584546139f8565b898111616c35575b508690898311600114616bce575f92616bc3575b50505f19828a1b1c1916908a1b1790555b6009810160608a01518051908982116146f45781906168f184546139f8565b898111616b77575b508690898311600114616b10575f92616b05575b50505f19828a1b1c1916908a1b1790555b600a810160808a01518051908982116146f45761693b83546139f8565b888111616ac4575b508590888311600114616a52579180600b949260a096945f92616a47575b50505f19828c1b1c1916908c1b1790555b01980151928351968711614623575061698b88546139f8565b90848211616a06575b5050809285116001146169be57509383949184925f956145755750501b925f19911b1c1916179055565b92919084601f198116885f52855f20955f905b898383106169ec57505050106145af5750505050811b019055565b8587015189559097019694850194889350908101906169d1565b885f52825f209085808901821c830193858a10616a3e575b01901c019087905b828110616a335750616994565b5f8155018790616a26565b93508293616a1e565b015190505f80616961565b8b9291601f19831691855f52885f20925f5b8a828210616aa55750509160a09795939185600b98969410616a8e575b505050811b019055616972565b01515f19838e1b60f8161c191690555f8080616a81565b91929395968291958786015181550195019301908e9594939291616a64565b835f52865f2089808501881c820192898610616afc575b01871c01908c905b828110616af1575050616943565b5f8155018c90616ae3565b92508192616adb565b015190505f8061690d565b908c9350601f19831691855f52885f20925f5b8a828210616b585750508411616b41575b505050811b01905561691e565b01515f19838c1b60f8161c191690555f8080616b34565b91929395968291958786015181550195019301908e9594939291616b23565b909150835f52865f2089808501881c820192898610616bba575b918e918695949301891c01915b828110616bac5750506168f9565b5f81558594508e9101616b9e565b92508192616b91565b015190505f806168c1565b908c9350601f19831691855f52885f20925f5b8a828210616c165750508411616bff575b505050811b0190556168d2565b01515f19838c1b60f8161c191690555f8080616bf2565b91929395968291958786015181550195019301908e9594939291616be1565b909150835f52865f2089808501881c820192898610616c78575b918e918695949301891c01915b828110616c6a5750506168ad565b5f81558594508e9101616c5c565b92508192616c4f565b015190505f80616875565b908c9350601f19831691855f52885f20925f5b8a828210616cd45750508411616cbd575b505050811b019055616886565b01515f19838c1b60f8161c191690555f8080616cb0565b91929395968291958786015181550195019301908e9594939291616c9f565b909150835f52865f2089808501881c820192898610616d36575b918e918695949301891c01915b828110616d28575050616861565b5f81558594508e9101616d1a565b92508192616d0d565b015190505f8061682a565b908c9350601f19831691855f52885f20925f5b8a828210616d925750508411616d7b575b505050811b01905561683b565b01515f19838c1b60f8161c191690555f8080616d6e565b91929395968291958786015181550195019301908e9594939291616d5d565b909150835f52865f2089808501881c820192898610616df4575b918e918695949301891c01915b828110616de6575050616816565b5f81558594508e9101616dd8565b92508192616dcb565b015190505f806167df565b908d9350601f19831691855f52895f20925f5b8b828210616e505750508411616e39575b505050811b0190556167f0565b01515f19838d1b60f8161c191690555f8080616e2c565b91929395968291958786015181550195019301908f9594939291616e1b565b909150835f52875f208a808501891c8201928a8610616eb2575b918f9186959493018a1c01915b828110616ea45750506167cb565b5f81558594508f9101616e96565b92508192616e89565b015190505f80616791565b908c9350601f19831691855f52885f20925f5b8a828210616f0e5750508411616ef7575b505050811b0190556167a2565b01515f19838c1b60f8161c191690555f8080616eea565b91929395968291958786015181550195019301908e9594939291616ed9565b909150835f52865f208980850160051c820192898610616f72575b918e91869594930160051c01915b828110616f6457505061677d565b5f81558594508e9101616f56565b92508192616f48565b015190505f80616743565b908b9350601f19831691855f52875f20925f5b89828210616fce5750508411616fb7575b505050811b019055616754565b01515f19838b1b60f8161c191690555f8080616faa565b8385015186558f97909501949384019301616f99565b909150835f52855f208880850160051c820192888610617029575b918d91869594930160051c01915b82811061701b57505061672f565b5f81558594508d910161700d565b92508192616fff565b015190505f806166f3565b908a9350601f19831691855f52865f20925f5b88828210617086575050841161706e575b505050811b019055616706565b01515f1960f88460031b161c191690555f8080617061565b8385015186558e97909501949384019301617050565b909150835f52845f208780850160051c8201928786106170e1575b918c91869594930160051c01915b8281106170d35750506166df565b5f81558594508c91016170c5565b925081926170b7565b015190505f806166a5565b908a9350601f19831691855f52865f20925f5b8882821061713e5750508411617126575b505050811b0190556166b8565b01515f1960f88460031b161c191690555f8080617119565b8385015186558e97909501949384019301617108565b909150835f52845f208780850160051c820192878610617199575b918c91869594930160051c01915b82811061718b575050616691565b5f81558594508c910161717d565b9250819261716f565b815190815160148110156117825760ff8019835416911617815560019182820191602090818301519182519460018060401b0395868111610cf657806171e883546139f8565b95601f96878111617bad575b508490878311600114617b4e575f92617b43575b50505f19600383901b1c191690881b1790555b600282016040850151805190878211610cf657819061723a84546139f8565b878111617af5575b508490878311600114617a96575f92617a8b575b50505f19600383901b1c191690881b1790555b6003938483016060820151805190888211610cf657819061728a84546139f8565b888111617a3d575b5085908883116001146179df575f926179d4575b50505f1982891b1c191690891b1790555b60049283810160808301518051908982116146f45781906172d884546139f8565b898111617986575b50869089831160011461791f575f92617914575b50505f19828a1b1c1916908a1b1790555b60059182820160a08201518051908a821161494157819061732684546139f8565b8a81116178c8575b5087908a8311600114617861575f92617856575b50505f19828b1b1c1916908b1b1790555b60c00151805160068301918982116146f457819061737184546139f8565b89811161780a575b5086908983116001146177a3575f92617798575b50505f19828a1b1c1916908a1b1790555b60078101838a01518051908982116146f45781906173bc84546139f8565b89811161774c575b5086908983116001146176e5575f926176da575b50505f19828a1b1c1916908a1b1790555b6008810160408a01518051908982116146f457819061740884546139f8565b89811161768e575b508690898311600114617627575f9261761c575b50505f19828a1b1c1916908a1b1790555b6009810160608a01518051908982116146f45761745283546139f8565b8881116175db575b508590888311600114617569579180600a9492608096945f9261755e575b50505f19828c1b1c1916908c1b1790555b0198015192835196871161462357506174a288546139f8565b9084821161751d575b5050809285116001146174d557509383949184925f956145755750501b925f19911b1c1916179055565b92919084601f198116885f52855f20955f905b8983831061750357505050106145af5750505050811b019055565b8587015189559097019694850194889350908101906174e8565b885f52825f209085808901821c830193858a10617555575b01901c019087905b82811061754a57506174ab565b5f815501879061753d565b93508293617535565b015190505f80617478565b8b9291601f19831691855f52885f20925f5b8a8282106175bc5750509160809795939185600a989694106175a5575b505050811b019055617489565b01515f19838e1b60f8161c191690555f8080617598565b91929395968291958786015181550195019301908e959493929161757b565b835f52865f2089808501881c820192898610617613575b01871c01908c905b82811061760857505061745a565b5f8155018c906175fa565b925081926175f2565b015190505f80617424565b908c9350601f19831691855f52885f20925f5b8a82821061766f5750508411617658575b505050811b019055617435565b01515f19838c1b60f8161c191690555f808061764b565b91929395968291958786015181550195019301908e959493929161763a565b909150835f52865f2089808501881c8201928986106176d1575b918e918695949301891c01915b8281106176c3575050617410565b5f81558594508e91016176b5565b925081926176a8565b015190505f806173d8565b908c9350601f19831691855f52885f20925f5b8a82821061772d5750508411617716575b505050811b0190556173e9565b01515f19838c1b60f8161c191690555f8080617709565b91929395968291958786015181550195019301908e95949392916176f8565b909150835f52865f2089808501881c82019289861061778f575b918e918695949301891c01915b8281106177815750506173c4565b5f81558594508e9101617773565b92508192617766565b015190505f8061738d565b908c9350601f19831691855f52885f20925f5b8a8282106177eb57505084116177d4575b505050811b01905561739e565b01515f19838c1b60f8161c191690555f80806177c7565b91929395968291958786015181550195019301908e95949392916177b6565b909150835f52865f2089808501881c82019289861061784d575b918e918695949301891c01915b82811061783f575050617379565b5f81558594508e9101617831565b92508192617824565b015190505f80617342565b908d9350601f19831691855f52895f20925f5b8b8282106178a95750508411617892575b505050811b019055617353565b01515f19838d1b60f8161c191690555f8080617885565b91929395968291958786015181550195019301908f9594939291617874565b909150835f52875f208a808501891c8201928a861061790b575b918f9186959493018a1c01915b8281106178fd57505061732e565b5f81558594508f91016178ef565b925081926178e2565b015190505f806172f4565b908c9350601f19831691855f52885f20925f5b8a8282106179675750508411617950575b505050811b019055617305565b01515f19838c1b60f8161c191690555f8080617943565b91929395968291958786015181550195019301908e9594939291617932565b909150835f52865f208980850160051c8201928986106179cb575b918e91869594930160051c01915b8281106179bd5750506172e0565b5f81558594508e91016179af565b925081926179a1565b015190505f806172a6565b908b9350601f19831691855f52875f20925f5b89828210617a275750508411617a10575b505050811b0190556172b7565b01515f19838b1b60f8161c191690555f8080617a03565b8385015186558f979095019493840193016179f2565b909150835f52855f208880850160051c820192888610617a82575b918d91869594930160051c01915b828110617a74575050617292565b5f81558594508d9101617a66565b92508192617a58565b015190505f80617256565b908a9350601f19831691855f52865f20925f5b88828210617adf5750508411617ac7575b505050811b019055617269565b01515f1960f88460031b161c191690555f8080617aba565b8385015186558e97909501949384019301617aa9565b909150835f52845f208780850160051c820192878610617b3a575b918c91869594930160051c01915b828110617b2c575050617242565b5f81558594508c9101617b1e565b92508192617b10565b015190505f80617208565b908a9350601f19831691855f52865f20925f5b88828210617b975750508411617b7f575b505050811b01905561721b565b01515f1960f88460031b161c191690555f8080617b72565b8385015186558e97909501949384019301617b61565b909150835f52845f208780850160051c820192878610617bf2575b918c91869594930160051c01915b828110617be45750506171f4565b5f81558594508c9101617bd6565b92508192617bc8565b903590601e19813603018212156103c157018035906001600160401b0382116103c1576020019181360383136103c157565b908015617d1c57617c416020840184617bfb565b905015617d0a5760ff60405182848237602081848101601d8152030190205416617ce65750506040810190617c768282617bfb565b9050151580617cba575b617c88575050565b617c929250617bfb565b617cb660405192839263805de86960e01b8452602060048501526024840191614c3b565b0390fd5b5060ff6020617cc98484617bfb565b91908260405193849283378101601d815203019020541615617c80565b617cb660405192839263029e8f5f60e21b8452602060048501526024840191614c3b565b6040516346829b8560e01b8152600490fd5b604051630dd088e760e01b8152600490fd5b908015617d7b5760ff60405182848237602081848101601d815203019020541615617d57575050565b617cb660405192839263e3d1895f60e01b8452602060048501526024840191614c3b565b604051631a2f07d160e01b8152600490fd5b91909160405183828237602081858101601d815203019020600160ff19825416179055813560148110156103c157617dc86060840184617bfb565b92909360808101617dd99082617bfb565b90617de760a0840184617bfb565b90617df56020860186617bfb565b92909360408701617e069088617bfb565b96909760c08101617e1691617bfb565b9d909981604051928392833781015f81520390209b6040519b617e3a8d809d613b5b565b60208c0160e0905260e08c0190617e5092614c3b565b908a820360408c0152617e6292614c3b565b9088820360608a0152617e7492614c3b565b908682036080880152617e8692614c3b565b9084820360a0860152617e9892614c3b565b82810360c08401523395617eab92614c3b565b037fb079e6ef5692cd4a65d77914ef3b91d011cbcd311ab2f185cb7681009e148add91a356fe8be0079c531659141344cd1fd0a4f28419497f9722a3daafe3b4186f6b6457e0a2646970667358221220900ef43cc26d91a6c9826018d2354f57453081d2ea483478ff53cf7734099f5d64736f6c63430008180033","linkReferences":{}},"methodIdentifiers":{"AR_TREE_ID()":"b6e3a9dc","RECOVERY_DELAY()":"47b45652","RECOVERY_LOCKOUT()":"561ea99c","addEntityOperator(address)":"397c9a3a","addLegalOperator(address)":"45f65cfa","addOperator(address)":"9870d7fe","addProofOperator(address)":"6b6797c9","affirmedAnchors(string)":"47deec0d","agentAnchors(string)":"144888ff","cancelRecovery()":"0ba234d6","codeAnchors(string)":"573701f7","dataAnchors(string)":"717d1a85","entityAnchors(string)":"e600a0a0","entityOperators(address)":"6ae0dd9c","eventAnchors(string)":"8a0d436f","executeRecovery()":"20c5a3e1","initiateRecovery(address)":"d5ce9aad","legalAnchors(string)":"ecc8d0fc","legalOperators(address)":"b91ef084","mediaAnchors(string)":"762d408d","modelAnchors(string)":"16aca546","onChainAnchors(string)":"96ad272d","operators(address)":"13e7c9d8","otherAnchors(string)":"5bd47e10","owner()":"8da5cb5b","pendingOwner()":"e30c3978","postAnchors(string)":"1cb655e7","proofAnchors(string)":"132171b0","proofOperators(address)":"402cef1b","receiptAnchors(string)":"bdd5a582","recoveryAddress()":"710eb26c","recoveryInitiatedAt()":"20727381","recoveryLockoutUntil()":"47be22fa","registerAffirmed(string,(uint8,string,string,string,string,string,string),string,string,string)":"9b1595d0","registerAgent(string,(uint8,string,string,string,string,string,string),string,string,string,string)":"a00c78ab","registerCode(string,(uint8,string,string,string,string,string,string),string,string,string,string,string)":"61ee8fea","registerData(string,(uint8,string,string,string,string,string,string),string,string,string,string,string)":"62c772cc","registerEntity(string,(uint8,string,string,string,string,string,string),string,string,string,string,string,string)":"d58b91e0","registerEvent(string,(uint8,string,string,string,string,string,string),string,string,string,string,string,string)":"46de8daa","registerLegal(string,(uint8,string,string,string,string,string,string),string,string,string,string,string)":"9786e9a3","registerMedia(string,(uint8,string,string,string,string,string,string),string,string,string,string,string)":"9e565f4d","registerModel(string,(uint8,string,string,string,string,string,string),string,string,string,string,string)":"bcb145f8","registerOnChain(string,(uint8,string,string,string,string,string,string),string,string,string,string,string,string,string)":"53ddf3e2","registerOther(string,(uint8,string,string,string,string,string,string),string,string,string,string)":"e22aebdf","registerPost(string,(uint8,string,string,string,string,string,string),string,string,string,string)":"fe746eb2","registerProof(string,(uint8,string,string,string,string,string,string),string,string,string,string,string,string,string,string,string)":"fe264355","registerReceipt(string,(uint8,string,string,string,string,string,string),string,string,string,string,string,string,string)":"af7f08e5","registerReport(string,(uint8,string,string,string,string,string,string),string,string,string,string,string,string,string)":"f5de2afb","registerResearch(string,(uint8,string,string,string,string,string,string),string,string,string,string)":"8e9d6ab7","registerRetraction(string,(uint8,string,string,string,string,string,string),string,string,string)":"fb07c543","registerReview(string,(uint8,string,string,string,string,string,string),string,string,string)":"04fabff9","registerText(string,(uint8,string,string,string,string,string,string),string,string,string,string)":"64bea334","registerVoid(string,(uint8,string,string,string,string,string,string),string,string,string,string)":"c47e3d47","registered(string)":"5d2d5c37","removeEntityOperator(address)":"ddf841a9","removeLegalOperator(address)":"6ba60e71","removeOperator(address)":"ac8a584a","removeProofOperator(address)":"b643fcb3","reportAnchors(string)":"9bcc0074","researchAnchors(string)":"165d33fe","retractionAnchors(string)":"7d15e15d","reviewAnchors(string)":"5d064b3a","setRecoveryAddress(address)":"49efe5ae","textAnchors(string)":"517f4dcf","transferOwnership(address)":"f2fde38b","voidAnchors(string)":"e0ac87b9"},"id":19}