{"abi":[{"type":"constructor","inputs":[{"name":"_recoveryAddress","type":"address","internalType":"address"}],"stateMutability":"nonpayable"},{"type":"function","name":"RECOVERY_DELAY","inputs":[],"outputs":[{"name":"","type":"uint256","internalType":"uint256"}],"stateMutability":"view"},{"type":"function","name":"RECOVERY_LOCKOUT","inputs":[],"outputs":[{"name":"","type":"uint256","internalType":"uint256"}],"stateMutability":"view"},{"type":"function","name":"addEntityOperator","inputs":[{"name":"op","type":"address","internalType":"address"}],"outputs":[],"stateMutability":"nonpayable"},{"type":"function","name":"addLegalOperator","inputs":[{"name":"op","type":"address","internalType":"address"}],"outputs":[],"stateMutability":"nonpayable"},{"type":"function","name":"addOperator","inputs":[{"name":"op","type":"address","internalType":"address"}],"outputs":[],"stateMutability":"nonpayable"},{"type":"function","name":"addProofOperator","inputs":[{"name":"op","type":"address","internalType":"address"}],"outputs":[],"stateMutability":"nonpayable"},{"type":"function","name":"affirmedAnchors","inputs":[{"name":"","type":"string","internalType":"string"}],"outputs":[{"name":"base","type":"tuple","internalType":"struct AnchorRegistry.AnchorBase","components":[{"name":"artifactType","type":"uint8","internalType":"enum AnchorRegistry.ArtifactType"},{"name":"manifestHash","type":"string","internalType":"string"},{"name":"parentHash","type":"string","internalType":"string"},{"name":"descriptor","type":"string","internalType":"string"}]},{"name":"targetArId","type":"string","internalType":"string"},{"name":"affirmedBy","type":"string","internalType":"string"},{"name":"findingUrl","type":"string","internalType":"string"}],"stateMutability":"view"},{"type":"function","name":"agentAnchors","inputs":[{"name":"","type":"string","internalType":"string"}],"outputs":[{"name":"base","type":"tuple","internalType":"struct AnchorRegistry.AnchorBase","components":[{"name":"artifactType","type":"uint8","internalType":"enum AnchorRegistry.ArtifactType"},{"name":"manifestHash","type":"string","internalType":"string"},{"name":"parentHash","type":"string","internalType":"string"},{"name":"descriptor","type":"string","internalType":"string"}]},{"name":"agentVersion","type":"string","internalType":"string"},{"name":"runtime","type":"string","internalType":"string"},{"name":"capabilities","type":"string","internalType":"string"},{"name":"url","type":"string","internalType":"string"}],"stateMutability":"view"},{"type":"function","name":"cancelRecovery","inputs":[],"outputs":[],"stateMutability":"nonpayable"},{"type":"function","name":"codeAnchors","inputs":[{"name":"","type":"string","internalType":"string"}],"outputs":[{"name":"base","type":"tuple","internalType":"struct AnchorRegistry.AnchorBase","components":[{"name":"artifactType","type":"uint8","internalType":"enum AnchorRegistry.ArtifactType"},{"name":"manifestHash","type":"string","internalType":"string"},{"name":"parentHash","type":"string","internalType":"string"},{"name":"descriptor","type":"string","internalType":"string"}]},{"name":"gitHash","type":"string","internalType":"string"},{"name":"license","type":"string","internalType":"string"},{"name":"language","type":"string","internalType":"string"},{"name":"version","type":"string","internalType":"string"},{"name":"url","type":"string","internalType":"string"}],"stateMutability":"view"},{"type":"function","name":"dataAnchors","inputs":[{"name":"","type":"string","internalType":"string"}],"outputs":[{"name":"base","type":"tuple","internalType":"struct AnchorRegistry.AnchorBase","components":[{"name":"artifactType","type":"uint8","internalType":"enum AnchorRegistry.ArtifactType"},{"name":"manifestHash","type":"string","internalType":"string"},{"name":"parentHash","type":"string","internalType":"string"},{"name":"descriptor","type":"string","internalType":"string"}]},{"name":"dataVersion","type":"string","internalType":"string"},{"name":"format","type":"string","internalType":"string"},{"name":"rowCount","type":"string","internalType":"string"},{"name":"schemaUrl","type":"string","internalType":"string"},{"name":"url","type":"string","internalType":"string"}],"stateMutability":"view"},{"type":"function","name":"entityAnchors","inputs":[{"name":"","type":"string","internalType":"string"}],"outputs":[{"name":"base","type":"tuple","internalType":"struct AnchorRegistry.AnchorBase","components":[{"name":"artifactType","type":"uint8","internalType":"enum AnchorRegistry.ArtifactType"},{"name":"manifestHash","type":"string","internalType":"string"},{"name":"parentHash","type":"string","internalType":"string"},{"name":"descriptor","type":"string","internalType":"string"}]},{"name":"entityType","type":"string","internalType":"string"},{"name":"entityDomain","type":"string","internalType":"string"},{"name":"verificationMethod","type":"string","internalType":"string"},{"name":"verificationProof","type":"string","internalType":"string"},{"name":"canonicalUrl","type":"string","internalType":"string"},{"name":"documentHash","type":"string","internalType":"string"}],"stateMutability":"view"},{"type":"function","name":"entityOperators","inputs":[{"name":"","type":"address","internalType":"address"}],"outputs":[{"name":"","type":"bool","internalType":"bool"}],"stateMutability":"view"},{"type":"function","name":"executeRecovery","inputs":[],"outputs":[],"stateMutability":"nonpayable"},{"type":"function","name":"initiateRecovery","inputs":[{"name":"_pendingOwner","type":"address","internalType":"address"}],"outputs":[],"stateMutability":"nonpayable"},{"type":"function","name":"legalAnchors","inputs":[{"name":"","type":"string","internalType":"string"}],"outputs":[{"name":"base","type":"tuple","internalType":"struct AnchorRegistry.AnchorBase","components":[{"name":"artifactType","type":"uint8","internalType":"enum AnchorRegistry.ArtifactType"},{"name":"manifestHash","type":"string","internalType":"string"},{"name":"parentHash","type":"string","internalType":"string"},{"name":"descriptor","type":"string","internalType":"string"}]},{"name":"docType","type":"string","internalType":"string"},{"name":"jurisdiction","type":"string","internalType":"string"},{"name":"parties","type":"string","internalType":"string"},{"name":"effectiveDate","type":"string","internalType":"string"},{"name":"url","type":"string","internalType":"string"}],"stateMutability":"view"},{"type":"function","name":"legalOperators","inputs":[{"name":"","type":"address","internalType":"address"}],"outputs":[{"name":"","type":"bool","internalType":"bool"}],"stateMutability":"view"},{"type":"function","name":"mediaAnchors","inputs":[{"name":"","type":"string","internalType":"string"}],"outputs":[{"name":"base","type":"tuple","internalType":"struct AnchorRegistry.AnchorBase","components":[{"name":"artifactType","type":"uint8","internalType":"enum AnchorRegistry.ArtifactType"},{"name":"manifestHash","type":"string","internalType":"string"},{"name":"parentHash","type":"string","internalType":"string"},{"name":"descriptor","type":"string","internalType":"string"}]},{"name":"mediaType","type":"string","internalType":"string"},{"name":"format","type":"string","internalType":"string"},{"name":"duration","type":"string","internalType":"string"},{"name":"isrc","type":"string","internalType":"string"},{"name":"url","type":"string","internalType":"string"}],"stateMutability":"view"},{"type":"function","name":"modelAnchors","inputs":[{"name":"","type":"string","internalType":"string"}],"outputs":[{"name":"base","type":"tuple","internalType":"struct AnchorRegistry.AnchorBase","components":[{"name":"artifactType","type":"uint8","internalType":"enum AnchorRegistry.ArtifactType"},{"name":"manifestHash","type":"string","internalType":"string"},{"name":"parentHash","type":"string","internalType":"string"},{"name":"descriptor","type":"string","internalType":"string"}]},{"name":"modelVersion","type":"string","internalType":"string"},{"name":"architecture","type":"string","internalType":"string"},{"name":"parameters","type":"string","internalType":"string"},{"name":"trainingDataset","type":"string","internalType":"string"},{"name":"url","type":"string","internalType":"string"}],"stateMutability":"view"},{"type":"function","name":"onChainAnchors","inputs":[{"name":"","type":"string","internalType":"string"}],"outputs":[{"name":"base","type":"tuple","internalType":"struct AnchorRegistry.AnchorBase","components":[{"name":"artifactType","type":"uint8","internalType":"enum AnchorRegistry.ArtifactType"},{"name":"manifestHash","type":"string","internalType":"string"},{"name":"parentHash","type":"string","internalType":"string"},{"name":"descriptor","type":"string","internalType":"string"}]},{"name":"chainId","type":"string","internalType":"string"},{"name":"assetType","type":"string","internalType":"string"},{"name":"contractAddress","type":"string","internalType":"string"},{"name":"txHash","type":"string","internalType":"string"},{"name":"tokenId","type":"string","internalType":"string"},{"name":"blockNumber","type":"string","internalType":"string"},{"name":"url","type":"string","internalType":"string"}],"stateMutability":"view"},{"type":"function","name":"operators","inputs":[{"name":"","type":"address","internalType":"address"}],"outputs":[{"name":"","type":"bool","internalType":"bool"}],"stateMutability":"view"},{"type":"function","name":"otherAnchors","inputs":[{"name":"","type":"string","internalType":"string"}],"outputs":[{"name":"base","type":"tuple","internalType":"struct AnchorRegistry.AnchorBase","components":[{"name":"artifactType","type":"uint8","internalType":"enum AnchorRegistry.ArtifactType"},{"name":"manifestHash","type":"string","internalType":"string"},{"name":"parentHash","type":"string","internalType":"string"},{"name":"descriptor","type":"string","internalType":"string"}]},{"name":"kind","type":"string","internalType":"string"},{"name":"platform","type":"string","internalType":"string"},{"name":"url","type":"string","internalType":"string"},{"name":"value","type":"string","internalType":"string"}],"stateMutability":"view"},{"type":"function","name":"owner","inputs":[],"outputs":[{"name":"","type":"address","internalType":"address"}],"stateMutability":"view"},{"type":"function","name":"pendingOwner","inputs":[],"outputs":[{"name":"","type":"address","internalType":"address"}],"stateMutability":"view"},{"type":"function","name":"postAnchors","inputs":[{"name":"","type":"string","internalType":"string"}],"outputs":[{"name":"base","type":"tuple","internalType":"struct AnchorRegistry.AnchorBase","components":[{"name":"artifactType","type":"uint8","internalType":"enum AnchorRegistry.ArtifactType"},{"name":"manifestHash","type":"string","internalType":"string"},{"name":"parentHash","type":"string","internalType":"string"},{"name":"descriptor","type":"string","internalType":"string"}]},{"name":"platform","type":"string","internalType":"string"},{"name":"postId","type":"string","internalType":"string"},{"name":"postDate","type":"string","internalType":"string"},{"name":"url","type":"string","internalType":"string"}],"stateMutability":"view"},{"type":"function","name":"proofAnchors","inputs":[{"name":"","type":"string","internalType":"string"}],"outputs":[{"name":"base","type":"tuple","internalType":"struct AnchorRegistry.AnchorBase","components":[{"name":"artifactType","type":"uint8","internalType":"enum AnchorRegistry.ArtifactType"},{"name":"manifestHash","type":"string","internalType":"string"},{"name":"parentHash","type":"string","internalType":"string"},{"name":"descriptor","type":"string","internalType":"string"}]},{"name":"proofType","type":"string","internalType":"string"},{"name":"proofSystem","type":"string","internalType":"string"},{"name":"circuitId","type":"string","internalType":"string"},{"name":"vkeyHash","type":"string","internalType":"string"},{"name":"auditFirm","type":"string","internalType":"string"},{"name":"auditScope","type":"string","internalType":"string"},{"name":"verifierUrl","type":"string","internalType":"string"},{"name":"reportUrl","type":"string","internalType":"string"},{"name":"proofHash","type":"string","internalType":"string"}],"stateMutability":"view"},{"type":"function","name":"proofOperators","inputs":[{"name":"","type":"address","internalType":"address"}],"outputs":[{"name":"","type":"bool","internalType":"bool"}],"stateMutability":"view"},{"type":"function","name":"receiptAnchors","inputs":[{"name":"","type":"string","internalType":"string"}],"outputs":[{"name":"base","type":"tuple","internalType":"struct AnchorRegistry.AnchorBase","components":[{"name":"artifactType","type":"uint8","internalType":"enum AnchorRegistry.ArtifactType"},{"name":"manifestHash","type":"string","internalType":"string"},{"name":"parentHash","type":"string","internalType":"string"},{"name":"descriptor","type":"string","internalType":"string"}]},{"name":"receiptType","type":"string","internalType":"string"},{"name":"merchant","type":"string","internalType":"string"},{"name":"amount","type":"string","internalType":"string"},{"name":"currency","type":"string","internalType":"string"},{"name":"orderId","type":"string","internalType":"string"},{"name":"platform","type":"string","internalType":"string"},{"name":"url","type":"string","internalType":"string"}],"stateMutability":"view"},{"type":"function","name":"recoveryAddress","inputs":[],"outputs":[{"name":"","type":"address","internalType":"address"}],"stateMutability":"view"},{"type":"function","name":"recoveryInitiatedAt","inputs":[],"outputs":[{"name":"","type":"uint256","internalType":"uint256"}],"stateMutability":"view"},{"type":"function","name":"recoveryLockoutUntil","inputs":[],"outputs":[{"name":"","type":"uint256","internalType":"uint256"}],"stateMutability":"view"},{"type":"function","name":"registerAffirmed","inputs":[{"name":"arId","type":"string","internalType":"string"},{"name":"base","type":"tuple","internalType":"struct AnchorRegistry.AnchorBase","components":[{"name":"artifactType","type":"uint8","internalType":"enum AnchorRegistry.ArtifactType"},{"name":"manifestHash","type":"string","internalType":"string"},{"name":"parentHash","type":"string","internalType":"string"},{"name":"descriptor","type":"string","internalType":"string"}]},{"name":"targetArId","type":"string","internalType":"string"},{"name":"affirmedBy","type":"string","internalType":"string"},{"name":"findingUrl","type":"string","internalType":"string"}],"outputs":[],"stateMutability":"nonpayable"},{"type":"function","name":"registerAgent","inputs":[{"name":"arId","type":"string","internalType":"string"},{"name":"base","type":"tuple","internalType":"struct AnchorRegistry.AnchorBase","components":[{"name":"artifactType","type":"uint8","internalType":"enum AnchorRegistry.ArtifactType"},{"name":"manifestHash","type":"string","internalType":"string"},{"name":"parentHash","type":"string","internalType":"string"},{"name":"descriptor","type":"string","internalType":"string"}]},{"name":"agentVersion","type":"string","internalType":"string"},{"name":"runtime","type":"string","internalType":"string"},{"name":"capabilities","type":"string","internalType":"string"},{"name":"url","type":"string","internalType":"string"}],"outputs":[],"stateMutability":"nonpayable"},{"type":"function","name":"registerCode","inputs":[{"name":"arId","type":"string","internalType":"string"},{"name":"base","type":"tuple","internalType":"struct AnchorRegistry.AnchorBase","components":[{"name":"artifactType","type":"uint8","internalType":"enum AnchorRegistry.ArtifactType"},{"name":"manifestHash","type":"string","internalType":"string"},{"name":"parentHash","type":"string","internalType":"string"},{"name":"descriptor","type":"string","internalType":"string"}]},{"name":"gitHash","type":"string","internalType":"string"},{"name":"license","type":"string","internalType":"string"},{"name":"language","type":"string","internalType":"string"},{"name":"version","type":"string","internalType":"string"},{"name":"url","type":"string","internalType":"string"}],"outputs":[],"stateMutability":"nonpayable"},{"type":"function","name":"registerData","inputs":[{"name":"arId","type":"string","internalType":"string"},{"name":"base","type":"tuple","internalType":"struct AnchorRegistry.AnchorBase","components":[{"name":"artifactType","type":"uint8","internalType":"enum AnchorRegistry.ArtifactType"},{"name":"manifestHash","type":"string","internalType":"string"},{"name":"parentHash","type":"string","internalType":"string"},{"name":"descriptor","type":"string","internalType":"string"}]},{"name":"dataVersion","type":"string","internalType":"string"},{"name":"format","type":"string","internalType":"string"},{"name":"rowCount","type":"string","internalType":"string"},{"name":"schemaUrl","type":"string","internalType":"string"},{"name":"url","type":"string","internalType":"string"}],"outputs":[],"stateMutability":"nonpayable"},{"type":"function","name":"registerEntity","inputs":[{"name":"arId","type":"string","internalType":"string"},{"name":"base","type":"tuple","internalType":"struct AnchorRegistry.AnchorBase","components":[{"name":"artifactType","type":"uint8","internalType":"enum AnchorRegistry.ArtifactType"},{"name":"manifestHash","type":"string","internalType":"string"},{"name":"parentHash","type":"string","internalType":"string"},{"name":"descriptor","type":"string","internalType":"string"}]},{"name":"entityType","type":"string","internalType":"string"},{"name":"entityDomain","type":"string","internalType":"string"},{"name":"verificationMethod","type":"string","internalType":"string"},{"name":"verificationProof","type":"string","internalType":"string"},{"name":"canonicalUrl","type":"string","internalType":"string"},{"name":"documentHash","type":"string","internalType":"string"}],"outputs":[],"stateMutability":"nonpayable"},{"type":"function","name":"registerLegal","inputs":[{"name":"arId","type":"string","internalType":"string"},{"name":"base","type":"tuple","internalType":"struct AnchorRegistry.AnchorBase","components":[{"name":"artifactType","type":"uint8","internalType":"enum AnchorRegistry.ArtifactType"},{"name":"manifestHash","type":"string","internalType":"string"},{"name":"parentHash","type":"string","internalType":"string"},{"name":"descriptor","type":"string","internalType":"string"}]},{"name":"docType","type":"string","internalType":"string"},{"name":"jurisdiction","type":"string","internalType":"string"},{"name":"parties","type":"string","internalType":"string"},{"name":"effectiveDate","type":"string","internalType":"string"},{"name":"url","type":"string","internalType":"string"}],"outputs":[],"stateMutability":"nonpayable"},{"type":"function","name":"registerMedia","inputs":[{"name":"arId","type":"string","internalType":"string"},{"name":"base","type":"tuple","internalType":"struct AnchorRegistry.AnchorBase","components":[{"name":"artifactType","type":"uint8","internalType":"enum AnchorRegistry.ArtifactType"},{"name":"manifestHash","type":"string","internalType":"string"},{"name":"parentHash","type":"string","internalType":"string"},{"name":"descriptor","type":"string","internalType":"string"}]},{"name":"mediaType","type":"string","internalType":"string"},{"name":"format","type":"string","internalType":"string"},{"name":"duration","type":"string","internalType":"string"},{"name":"isrc","type":"string","internalType":"string"},{"name":"url","type":"string","internalType":"string"}],"outputs":[],"stateMutability":"nonpayable"},{"type":"function","name":"registerModel","inputs":[{"name":"arId","type":"string","internalType":"string"},{"name":"base","type":"tuple","internalType":"struct AnchorRegistry.AnchorBase","components":[{"name":"artifactType","type":"uint8","internalType":"enum AnchorRegistry.ArtifactType"},{"name":"manifestHash","type":"string","internalType":"string"},{"name":"parentHash","type":"string","internalType":"string"},{"name":"descriptor","type":"string","internalType":"string"}]},{"name":"modelVersion","type":"string","internalType":"string"},{"name":"architecture","type":"string","internalType":"string"},{"name":"parameters","type":"string","internalType":"string"},{"name":"trainingDataset","type":"string","internalType":"string"},{"name":"url","type":"string","internalType":"string"}],"outputs":[],"stateMutability":"nonpayable"},{"type":"function","name":"registerOnChain","inputs":[{"name":"arId","type":"string","internalType":"string"},{"name":"base","type":"tuple","internalType":"struct AnchorRegistry.AnchorBase","components":[{"name":"artifactType","type":"uint8","internalType":"enum AnchorRegistry.ArtifactType"},{"name":"manifestHash","type":"string","internalType":"string"},{"name":"parentHash","type":"string","internalType":"string"},{"name":"descriptor","type":"string","internalType":"string"}]},{"name":"chainId","type":"string","internalType":"string"},{"name":"assetType","type":"string","internalType":"string"},{"name":"contractAddress","type":"string","internalType":"string"},{"name":"txHash","type":"string","internalType":"string"},{"name":"tokenId","type":"string","internalType":"string"},{"name":"blockNumber","type":"string","internalType":"string"},{"name":"url","type":"string","internalType":"string"}],"outputs":[],"stateMutability":"nonpayable"},{"type":"function","name":"registerOther","inputs":[{"name":"arId","type":"string","internalType":"string"},{"name":"base","type":"tuple","internalType":"struct AnchorRegistry.AnchorBase","components":[{"name":"artifactType","type":"uint8","internalType":"enum AnchorRegistry.ArtifactType"},{"name":"manifestHash","type":"string","internalType":"string"},{"name":"parentHash","type":"string","internalType":"string"},{"name":"descriptor","type":"string","internalType":"string"}]},{"name":"kind","type":"string","internalType":"string"},{"name":"platform","type":"string","internalType":"string"},{"name":"url","type":"string","internalType":"string"},{"name":"value","type":"string","internalType":"string"}],"outputs":[],"stateMutability":"nonpayable"},{"type":"function","name":"registerPost","inputs":[{"name":"arId","type":"string","internalType":"string"},{"name":"base","type":"tuple","internalType":"struct AnchorRegistry.AnchorBase","components":[{"name":"artifactType","type":"uint8","internalType":"enum AnchorRegistry.ArtifactType"},{"name":"manifestHash","type":"string","internalType":"string"},{"name":"parentHash","type":"string","internalType":"string"},{"name":"descriptor","type":"string","internalType":"string"}]},{"name":"platform","type":"string","internalType":"string"},{"name":"postId","type":"string","internalType":"string"},{"name":"postDate","type":"string","internalType":"string"},{"name":"url","type":"string","internalType":"string"}],"outputs":[],"stateMutability":"nonpayable"},{"type":"function","name":"registerProof","inputs":[{"name":"arId","type":"string","internalType":"string"},{"name":"base","type":"tuple","internalType":"struct AnchorRegistry.AnchorBase","components":[{"name":"artifactType","type":"uint8","internalType":"enum AnchorRegistry.ArtifactType"},{"name":"manifestHash","type":"string","internalType":"string"},{"name":"parentHash","type":"string","internalType":"string"},{"name":"descriptor","type":"string","internalType":"string"}]},{"name":"proofType","type":"string","internalType":"string"},{"name":"proofSystem","type":"string","internalType":"string"},{"name":"circuitId","type":"string","internalType":"string"},{"name":"vkeyHash","type":"string","internalType":"string"},{"name":"auditFirm","type":"string","internalType":"string"},{"name":"auditScope","type":"string","internalType":"string"},{"name":"verifierUrl","type":"string","internalType":"string"},{"name":"reportUrl","type":"string","internalType":"string"},{"name":"proofHash","type":"string","internalType":"string"}],"outputs":[],"stateMutability":"nonpayable"},{"type":"function","name":"registerReceipt","inputs":[{"name":"arId","type":"string","internalType":"string"},{"name":"base","type":"tuple","internalType":"struct AnchorRegistry.AnchorBase","components":[{"name":"artifactType","type":"uint8","internalType":"enum AnchorRegistry.ArtifactType"},{"name":"manifestHash","type":"string","internalType":"string"},{"name":"parentHash","type":"string","internalType":"string"},{"name":"descriptor","type":"string","internalType":"string"}]},{"name":"receiptType","type":"string","internalType":"string"},{"name":"merchant","type":"string","internalType":"string"},{"name":"amount","type":"string","internalType":"string"},{"name":"currency","type":"string","internalType":"string"},{"name":"orderId","type":"string","internalType":"string"},{"name":"platform","type":"string","internalType":"string"},{"name":"url","type":"string","internalType":"string"}],"outputs":[],"stateMutability":"nonpayable"},{"type":"function","name":"registerResearch","inputs":[{"name":"arId","type":"string","internalType":"string"},{"name":"base","type":"tuple","internalType":"struct AnchorRegistry.AnchorBase","components":[{"name":"artifactType","type":"uint8","internalType":"enum AnchorRegistry.ArtifactType"},{"name":"manifestHash","type":"string","internalType":"string"},{"name":"parentHash","type":"string","internalType":"string"},{"name":"descriptor","type":"string","internalType":"string"}]},{"name":"doi","type":"string","internalType":"string"},{"name":"institution","type":"string","internalType":"string"},{"name":"coAuthors","type":"string","internalType":"string"},{"name":"url","type":"string","internalType":"string"}],"outputs":[],"stateMutability":"nonpayable"},{"type":"function","name":"registerRetraction","inputs":[{"name":"arId","type":"string","internalType":"string"},{"name":"base","type":"tuple","internalType":"struct AnchorRegistry.AnchorBase","components":[{"name":"artifactType","type":"uint8","internalType":"enum AnchorRegistry.ArtifactType"},{"name":"manifestHash","type":"string","internalType":"string"},{"name":"parentHash","type":"string","internalType":"string"},{"name":"descriptor","type":"string","internalType":"string"}]},{"name":"targetArId","type":"string","internalType":"string"},{"name":"reason","type":"string","internalType":"string"},{"name":"replacedBy","type":"string","internalType":"string"}],"outputs":[],"stateMutability":"nonpayable"},{"type":"function","name":"registerReview","inputs":[{"name":"arId","type":"string","internalType":"string"},{"name":"base","type":"tuple","internalType":"struct AnchorRegistry.AnchorBase","components":[{"name":"artifactType","type":"uint8","internalType":"enum AnchorRegistry.ArtifactType"},{"name":"manifestHash","type":"string","internalType":"string"},{"name":"parentHash","type":"string","internalType":"string"},{"name":"descriptor","type":"string","internalType":"string"}]},{"name":"targetArId","type":"string","internalType":"string"},{"name":"reviewType","type":"string","internalType":"string"},{"name":"evidenceUrl","type":"string","internalType":"string"}],"outputs":[],"stateMutability":"nonpayable"},{"type":"function","name":"registerText","inputs":[{"name":"arId","type":"string","internalType":"string"},{"name":"base","type":"tuple","internalType":"struct AnchorRegistry.AnchorBase","components":[{"name":"artifactType","type":"uint8","internalType":"enum AnchorRegistry.ArtifactType"},{"name":"manifestHash","type":"string","internalType":"string"},{"name":"parentHash","type":"string","internalType":"string"},{"name":"descriptor","type":"string","internalType":"string"}]},{"name":"isbn","type":"string","internalType":"string"},{"name":"publisher","type":"string","internalType":"string"},{"name":"language","type":"string","internalType":"string"},{"name":"url","type":"string","internalType":"string"}],"outputs":[],"stateMutability":"nonpayable"},{"type":"function","name":"registerVoid","inputs":[{"name":"arId","type":"string","internalType":"string"},{"name":"base","type":"tuple","internalType":"struct AnchorRegistry.AnchorBase","components":[{"name":"artifactType","type":"uint8","internalType":"enum AnchorRegistry.ArtifactType"},{"name":"manifestHash","type":"string","internalType":"string"},{"name":"parentHash","type":"string","internalType":"string"},{"name":"descriptor","type":"string","internalType":"string"}]},{"name":"targetArId","type":"string","internalType":"string"},{"name":"reviewArId","type":"string","internalType":"string"},{"name":"findingUrl","type":"string","internalType":"string"},{"name":"evidence","type":"string","internalType":"string"}],"outputs":[],"stateMutability":"nonpayable"},{"type":"function","name":"registered","inputs":[{"name":"","type":"string","internalType":"string"}],"outputs":[{"name":"","type":"bool","internalType":"bool"}],"stateMutability":"view"},{"type":"function","name":"removeEntityOperator","inputs":[{"name":"op","type":"address","internalType":"address"}],"outputs":[],"stateMutability":"nonpayable"},{"type":"function","name":"removeLegalOperator","inputs":[{"name":"op","type":"address","internalType":"address"}],"outputs":[],"stateMutability":"nonpayable"},{"type":"function","name":"removeOperator","inputs":[{"name":"op","type":"address","internalType":"address"}],"outputs":[],"stateMutability":"nonpayable"},{"type":"function","name":"removeProofOperator","inputs":[{"name":"op","type":"address","internalType":"address"}],"outputs":[],"stateMutability":"nonpayable"},{"type":"function","name":"researchAnchors","inputs":[{"name":"","type":"string","internalType":"string"}],"outputs":[{"name":"base","type":"tuple","internalType":"struct AnchorRegistry.AnchorBase","components":[{"name":"artifactType","type":"uint8","internalType":"enum AnchorRegistry.ArtifactType"},{"name":"manifestHash","type":"string","internalType":"string"},{"name":"parentHash","type":"string","internalType":"string"},{"name":"descriptor","type":"string","internalType":"string"}]},{"name":"doi","type":"string","internalType":"string"},{"name":"institution","type":"string","internalType":"string"},{"name":"coAuthors","type":"string","internalType":"string"},{"name":"url","type":"string","internalType":"string"}],"stateMutability":"view"},{"type":"function","name":"retractionAnchors","inputs":[{"name":"","type":"string","internalType":"string"}],"outputs":[{"name":"base","type":"tuple","internalType":"struct AnchorRegistry.AnchorBase","components":[{"name":"artifactType","type":"uint8","internalType":"enum AnchorRegistry.ArtifactType"},{"name":"manifestHash","type":"string","internalType":"string"},{"name":"parentHash","type":"string","internalType":"string"},{"name":"descriptor","type":"string","internalType":"string"}]},{"name":"targetArId","type":"string","internalType":"string"},{"name":"reason","type":"string","internalType":"string"},{"name":"replacedBy","type":"string","internalType":"string"}],"stateMutability":"view"},{"type":"function","name":"reviewAnchors","inputs":[{"name":"","type":"string","internalType":"string"}],"outputs":[{"name":"base","type":"tuple","internalType":"struct AnchorRegistry.AnchorBase","components":[{"name":"artifactType","type":"uint8","internalType":"enum AnchorRegistry.ArtifactType"},{"name":"manifestHash","type":"string","internalType":"string"},{"name":"parentHash","type":"string","internalType":"string"},{"name":"descriptor","type":"string","internalType":"string"}]},{"name":"targetArId","type":"string","internalType":"string"},{"name":"reviewType","type":"string","internalType":"string"},{"name":"evidenceUrl","type":"string","internalType":"string"}],"stateMutability":"view"},{"type":"function","name":"setRecoveryAddress","inputs":[{"name":"_newRecovery","type":"address","internalType":"address"}],"outputs":[],"stateMutability":"nonpayable"},{"type":"function","name":"textAnchors","inputs":[{"name":"","type":"string","internalType":"string"}],"outputs":[{"name":"base","type":"tuple","internalType":"struct AnchorRegistry.AnchorBase","components":[{"name":"artifactType","type":"uint8","internalType":"enum AnchorRegistry.ArtifactType"},{"name":"manifestHash","type":"string","internalType":"string"},{"name":"parentHash","type":"string","internalType":"string"},{"name":"descriptor","type":"string","internalType":"string"}]},{"name":"isbn","type":"string","internalType":"string"},{"name":"publisher","type":"string","internalType":"string"},{"name":"language","type":"string","internalType":"string"},{"name":"url","type":"string","internalType":"string"}],"stateMutability":"view"},{"type":"function","name":"transferOwnership","inputs":[{"name":"newOwner","type":"address","internalType":"address"}],"outputs":[],"stateMutability":"nonpayable"},{"type":"function","name":"voidAnchors","inputs":[{"name":"","type":"string","internalType":"string"}],"outputs":[{"name":"base","type":"tuple","internalType":"struct AnchorRegistry.AnchorBase","components":[{"name":"artifactType","type":"uint8","internalType":"enum AnchorRegistry.ArtifactType"},{"name":"manifestHash","type":"string","internalType":"string"},{"name":"parentHash","type":"string","internalType":"string"},{"name":"descriptor","type":"string","internalType":"string"}]},{"name":"targetArId","type":"string","internalType":"string"},{"name":"reviewArId","type":"string","internalType":"string"},{"name":"findingUrl","type":"string","internalType":"string"},{"name":"evidence","type":"string","internalType":"string"}],"stateMutability":"view"},{"type":"event","name":"Affirmed","inputs":[{"name":"arId","type":"string","indexed":true,"internalType":"string"},{"name":"targetArId","type":"string","indexed":true,"internalType":"string"},{"name":"affirmedBy","type":"string","indexed":false,"internalType":"string"}],"anonymous":false},{"type":"event","name":"Anchored","inputs":[{"name":"arId","type":"string","indexed":true,"internalType":"string"},{"name":"registrant","type":"address","indexed":true,"internalType":"address"},{"name":"artifactType","type":"uint8","indexed":false,"internalType":"enum AnchorRegistry.ArtifactType"},{"name":"descriptor","type":"string","indexed":false,"internalType":"string"},{"name":"manifestHash","type":"string","indexed":false,"internalType":"string"},{"name":"parentHash","type":"string","indexed":false,"internalType":"string"}],"anonymous":false},{"type":"event","name":"EntityOperatorAdded","inputs":[{"name":"operator","type":"address","indexed":true,"internalType":"address"}],"anonymous":false},{"type":"event","name":"EntityOperatorRemoved","inputs":[{"name":"operator","type":"address","indexed":true,"internalType":"address"}],"anonymous":false},{"type":"event","name":"LegalOperatorAdded","inputs":[{"name":"operator","type":"address","indexed":true,"internalType":"address"}],"anonymous":false},{"type":"event","name":"LegalOperatorRemoved","inputs":[{"name":"operator","type":"address","indexed":true,"internalType":"address"}],"anonymous":false},{"type":"event","name":"OperatorAdded","inputs":[{"name":"operator","type":"address","indexed":true,"internalType":"address"}],"anonymous":false},{"type":"event","name":"OperatorRemoved","inputs":[{"name":"operator","type":"address","indexed":true,"internalType":"address"}],"anonymous":false},{"type":"event","name":"OwnershipTransferred","inputs":[{"name":"previousOwner","type":"address","indexed":true,"internalType":"address"},{"name":"newOwner","type":"address","indexed":true,"internalType":"address"}],"anonymous":false},{"type":"event","name":"ProofOperatorAdded","inputs":[{"name":"operator","type":"address","indexed":true,"internalType":"address"}],"anonymous":false},{"type":"event","name":"ProofOperatorRemoved","inputs":[{"name":"operator","type":"address","indexed":true,"internalType":"address"}],"anonymous":false},{"type":"event","name":"RecoveryAddressUpdated","inputs":[{"name":"newRecoveryAddress","type":"address","indexed":true,"internalType":"address"}],"anonymous":false},{"type":"event","name":"RecoveryCancelled","inputs":[],"anonymous":false},{"type":"event","name":"RecoveryExecuted","inputs":[{"name":"newOwner","type":"address","indexed":true,"internalType":"address"}],"anonymous":false},{"type":"event","name":"RecoveryInitiated","inputs":[{"name":"recoveryAddress","type":"address","indexed":true,"internalType":"address"},{"name":"pendingOwner","type":"address","indexed":true,"internalType":"address"}],"anonymous":false},{"type":"event","name":"Retracted","inputs":[{"name":"arId","type":"string","indexed":true,"internalType":"string"},{"name":"targetArId","type":"string","indexed":true,"internalType":"string"},{"name":"replacedBy","type":"string","indexed":false,"internalType":"string"}],"anonymous":false},{"type":"event","name":"Reviewed","inputs":[{"name":"arId","type":"string","indexed":true,"internalType":"string"},{"name":"targetArId","type":"string","indexed":true,"internalType":"string"},{"name":"reviewType","type":"string","indexed":false,"internalType":"string"},{"name":"evidenceUrl","type":"string","indexed":false,"internalType":"string"}],"anonymous":false},{"type":"event","name":"Voided","inputs":[{"name":"arId","type":"string","indexed":true,"internalType":"string"},{"name":"targetArId","type":"string","indexed":true,"internalType":"string"},{"name":"reviewArId","type":"string","indexed":true,"internalType":"string"},{"name":"evidence","type":"string","indexed":false,"internalType":"string"}],"anonymous":false},{"type":"error","name":"AlreadyRegistered","inputs":[{"name":"arId","type":"string","internalType":"string"}]},{"type":"error","name":"EmptyArId","inputs":[]},{"type":"error","name":"EmptyManifestHash","inputs":[]},{"type":"error","name":"EmptyTargetArId","inputs":[]},{"type":"error","name":"InvalidParent","inputs":[{"name":"parentHash","type":"string","internalType":"string"}]},{"type":"error","name":"InvalidTarget","inputs":[{"name":"targetArId","type":"string","internalType":"string"}]},{"type":"error","name":"NotEntityOperator","inputs":[]},{"type":"error","name":"NotLegalOperator","inputs":[]},{"type":"error","name":"NotOperator","inputs":[]},{"type":"error","name":"NotOwner","inputs":[]},{"type":"error","name":"NotProofOperator","inputs":[]},{"type":"error","name":"NotRecoveryAddress","inputs":[]},{"type":"error","name":"RecoveryDelayNotMet","inputs":[]},{"type":"error","name":"RecoveryLockedOut","inputs":[]},{"type":"error","name":"RecoveryNotInitiated","inputs":[]},{"type":"error","name":"ZeroAddress","inputs":[]}],"bytecode":{"object":"0x608034620000bd57601f6200698338819003918201601f19168301916001600160401b03831184841017620000c157808492602094604052833981010312620000bd57516001600160a01b03811690819003620000bd578015620000ab5760018060a01b031933815f5416175f556001541617600155604051335f7f8be0079c531659141344cd1fd0a4f28419497f9722a3daafe3b4186f6b6457e08180a36168ad9081620000d68239f35b60405163d92e233d60e01b8152600490fd5b5f80fd5b634e487b7160e01b5f52604160045260245ffdfe610280806040526004361015610013575f80fd5b5f3560e01c908162712e1914613ccf575080630ba234d614613c6357806310b9dcbd14613ba1578063132171b014613a2157806313e7c9d8146139e0578063144888ff14613998578063165d33fe1461395057806316aca546146139085780631cb655e7146138c05780631f3618bf146137a4578063207273811461378757806320c5a3e1146136b0578063397c9a3a1461363d578063402cef1b146135fc578063407f22d81461353a57806345f65cfa146134c757806347b45652146133a757806347be22fa146134aa57806347deec0d1461346257806349efe5ae146133f4578063517f4dcf146133ac578063561ea99c146133a7578063573701f71461335f5780635a355e6d1461329d5780635bd47e10146132555780635d064b3a1461320d5780635d2d5c37146131bf5780636ae0dd9c1461317e5780636b6797c91461310b5780636ba60e71146130a15780636fe98d1014612f70578063710eb26c14612f48578063717d1a8514612f00578063762d408d14612eb85780637b207ae614612e0b5780637d15e15d14612d955780638d17b4eb14612c645780638da5cb5b14612c3d5780638f8f5ccb14612bc657806396ad272d14612b7e5780639870d7fe14612b0b578063a93e124814612a37578063ac8a584a146129cd578063b643fcb314612963578063b91ef08414612922578063b9988922146127e6578063bdd5a58214612737578063bfa5cb9d146116be578063c6bea7ab14611647578063cc087c481461157c578063d58817e61461146b578063d5ce9aad146113ca578063ddf841a914611360578063e0ac87b9146112d6578063e30c3978146112ae578063e4cc22a114611237578063e600a0a014611127578063ecc8d0fc1461107a578063edf1677b1461040c578063ee8080081461033e5763f2fde38b146102bb575f80fd5b3461033a57602036600319011261033a576004356001600160a01b038181169182900361033a575f549081168033036103285782156103165782905f805160206168588339815191525f80a36001600160a01b031916175f55005b60405163d92e233d60e01b8152600490fd5b6040516330cd747160e01b8152600490fd5b5f80fd5b3461033a5761034c36613d88565b919996959092989798335f52600260205260ff60405f205416156103fa576103f89a6103bc6103a0976103d4976103b06103f39b8f978f8f99610396816103a7936103c89d616619565b6040519e8f613f03565b369061451c565b8d523691613f93565b60208b01523691613f93565b60408801523691613f93565b60608501523691613f93565b608082015260405184848237602081868101600d8152030190206145a0565b61671a565b005b604051631f0853c160e21b8152600490fd5b3461033a576003196101003682011261033a576004356001600160401b03811161033a5761043e903690600401613d5b565b602435926001600160401b03841161033a57608090843603011261033a576044356001600160401b03811161033a5761047b903690600401613d5b565b6064356001600160401b03811161033a5761049a903690600401613d5b565b9092906084356001600160401b03811161033a576104bc903690600401613d5b565b93909260a4356001600160401b03811161033a576104de903690600401613d5b565b91906001600160401b0360c4351161033a576104ff3660c435600401613d5b565b909490939060e4356001600160401b03811161033a57610523903690600401613d5b565b989099335f52600460205260ff60405f205416156110685761054c8f8f908f9060040191616619565b604051608081905260e081019081106001600160401b03821117610a1b578f9c6105d69a61059f6105e49f996105bb976105946105c99c6105ad97604052369060040161451c565b608051523691613f93565b602060805101523691613f93565b604060805101523691613f93565b606060805101523691613f93565b6080805101523691613f93565b60a060805101523691613f93565b60c0608051015260405181838237602081838101601481520301902060805151805160128110156110545760ff80198454169116178255602081015180519060018060401b038211610a1b57819061063f6001860154614017565b601f8111611001575b50602090601f8311600114610f93575f92610f88575b50508160011b915f199060031b1c19161760018301555b60408101518051906001600160401b038211610a1b576106986002850154614017565b601f8111610f40575b50602090601f8311600114610ed15760609392915f9183610ec6575b50508160011b915f199060031b1c19161760028401555b01518051906001600160401b038211610a1b5781906106f66003850154614017565b601f8111610e76575b50602090601f8311600114610e08575f92610dfd575b50508160011b915f199060031b1c19161760038201555b608051602001518051906001600160401b038211610a1b5781906107536004850154614017565b601f8111610daa575b50602090601f8311600114610d3c575f92610d31575b50508160011b915f199060031b1c19161760048201555b608051604001518051906001600160401b038211610a1b5781906107b06005850154614017565b601f8111610cde575b50602090601f8311600114610c70575f92610c65575b50508160011b915f199060031b1c19161760058201555b60805160600151805160068301916001600160401b038211610a1b57819061080e8454614017565b601f8111610c15575b50602090601f8311600114610bb1575f92610ba6575b50508160011b915f199060031b1c19161790555b608080510151805160078301916001600160401b038211610a1b5781906108688454614017565b601f8111610b56575b50602090601f8311600114610af2575f92610ae7575b50508160011b915f199060031b1c19161790555b60805160a00151805160088301916001600160401b038211610a1b576108c18354614017565b601f8111610aa2575b50602090601f8311600114610a3a576009949392915f9183610a2f575b50508160011b915f199060031b1c19161790555b60805160c0015180519592909101906001600160401b038611610a1b576109228254614017565b601f81116109d6575b50602090601f871160011461096f576103f896915f9183610964575b50508160011b915f199060031b1c19161790555b6004019161671a565b015190508780610947565b90601f19871691835f5260205f20925f5b8181106109be57509160019391896103f89a94106109a6575b505050811b01905561095b565b01515f1960f88460031b161c19169055878080610999565b92936020600181928786015181550195019301610980565b825f5260205f20601f880160051c81019160208910610a11575b601f0160051c01905b818110610a06575061092b565b5f81556001016109f9565b90915081906109f0565b634e487b7160e01b5f52604160045260245ffd5b0151905088806108e7565b90601f19831691845f5260205f20925f5b818110610a8a575091600193918560099897969410610a72575b505050811b0190556108fb565b01515f1960f88460031b161c19169055888080610a65565b92936020600181928786015181550195019301610a4b565b835f5260205f20601f840160051c81019160208510610add575b601f0160051c01905b818110610ad257506108ca565b5f8155600101610ac5565b9091508190610abc565b015190508780610887565b5f858152602081209350601f198516905b818110610b3e5750908460019594939210610b26575b505050811b01905561089b565b01515f1960f88460031b161c19169055878080610b19565b92936020600181928786015181550195019301610b03565b909150835f5260205f20601f840160051c81019160208510610b9c575b90601f859493920160051c01905b818110610b8e5750610871565b5f8155849350600101610b81565b9091508190610b73565b01519050878061082d565b5f858152602081209350601f198516905b818110610bfd5750908460019594939210610be5575b505050811b019055610841565b01515f1960f88460031b161c19169055878080610bd8565b92936020600181928786015181550195019301610bc2565b909150835f5260205f20601f840160051c81019160208510610c5b575b90601f859493920160051c01905b818110610c4d5750610817565b5f8155849350600101610c40565b9091508190610c32565b0151905086806107cf565b9250600584015f5260205f20905f935b601f1984168510610cc3576001945083601f19811610610cab575b505050811b0160058201556107e6565b01515f1960f88460031b161c19169055868080610c9b565b81810151835560209485019460019093019290910190610c80565b909150600584015f5260205f20601f840160051c81019160208510610d27575b90601f859493920160051c01905b818110610d1957506107b9565b5f8155849350600101610d0c565b9091508190610cfe565b015190508680610772565b9250600484015f5260205f20905f935b601f1984168510610d8f576001945083601f19811610610d77575b505050811b016004820155610789565b01515f1960f88460031b161c19169055868080610d67565b81810151835560209485019460019093019290910190610d4c565b909150600484015f5260205f20601f840160051c81019160208510610df3575b90601f859493920160051c01905b818110610de5575061075c565b5f8155849350600101610dd8565b9091508190610dca565b015190508680610715565b9250600384015f5260205f20905f935b601f1984168510610e5b576001945083601f19811610610e43575b505050811b01600382015561072c565b01515f1960f88460031b161c19169055868080610e33565b81810151835560209485019460019093019290910190610e18565b909150600384015f5260205f20601f840160051c810160208510610ebf575b90849392915b601f830160051c82018110610eb15750506106ff565b5f8155859450600101610e9b565b5080610e95565b0151905088806106bd565b90600285015f5260205f20915f5b601f1985168110610f28575091839160019360609695601f19811610610f10575b505050811b0160028401556106d4565b01515f1960f88460031b161c19169055888080610f00565b91926020600181928685015181550194019201610edf565b600285015f5260205f20601f840160051c81019160208510610f7e575b601f0160051c01905b818110610f7357506106a1565b5f8155600101610f66565b9091508190610f5d565b01519050878061065e565b9250600185015f5260205f20905f935b601f1984168510610fe6576001945083601f19811610610fce575b505050811b016001830155610675565b01515f1960f88460031b161c19169055878080610fbe565b81810151835560209485019460019093019290910190610fa3565b909150600185015f5260205f20601f840160051c8101916020851061104a575b90601f859493920160051c01905b81811061103c5750610648565b5f815584935060010161102f565b9091508190611021565b634e487b7160e01b5f52602160045260245ffd5b60405163ebee8ba760e01b8152600490fd5b3461033a57602036600319011261033a576004356001600160401b03811161033a5760206110af6110c2923690600401613fd8565b8160405193828580945193849201613ff6565b810160138152030190206110d5816140f1565b6111236110e46004840161404f565b926110f16005820161404f565b906110fe6006820161404f565b611116600861110f6007850161404f565b930161404f565b9260405196879687614224565b0390f35b3461033a57602036600319011261033a576004356001600160401b03811161033a5760206110af61115c923690600401613fd8565b8101601481520301902060e0611123611174836140f1565b926112296111846004830161404f565b9161121b6111946005830161404f565b61120d6111a36006850161404f565b6111ff6111b26007870161404f565b936111f16111ce60096111c760088b0161404f565b990161404f565b996111e36040519e8f9e8f8181520190614179565b8d810360208f015290614154565b908b820360408d0152614154565b9089820360608b0152614154565b908782036080890152614154565b9085820360a0870152614154565b9083820360c0850152614154565b3461033a5761124536613d88565b919996959092989798335f52600260205260ff60405f205416156103fa576103f89a6103bc6103a09761128f976103b06103f39b8f978f8f99610396816103a7936103c89d616619565b608082015260405184848237602081868101601a8152030190206145a0565b3461033a575f36600319011261033a576008546040516001600160a01b039091168152602090f35b3461033a57602036600319011261033a576004356001600160401b03811161033a5760206110af61130b923690600401613fd8565b8101601881520301902061131e816140f1565b61112361132d6004840161404f565b9261133a6005820161404f565b90611353600761134c6006840161404f565b920161404f565b91604051958695866141c9565b3461033a57602036600319011261033a576004356001600160a01b038181169182900361033a575f5416330361032857805f52600460205260405f2060ff1981541690557fb3995d3ad0a4cb17193137b6b470c2eda6bbf6d63f3d135f197fc4cdeedc27905f80a2005b3461033a57602036600319011261033a576004356001600160a01b038181169182900361033a576001541680330361145957811561031657600754421061144757600880546001600160a01b03191683179055426006557fe7eb1bf44bc7e6084d5d89f19e76a2b46fed60ff3eb9e650f3db79a386391c615f80a3005b6040516333ca6ceb60e21b8152600490fd5b6040516320a6214d60e21b8152600490fd5b3461033a5761147936614291565b97919094969295335f52600260205260ff60405f205416156103fa5761153561153c926115067faf0c98c5c4879ef897a044cdac758c7bd233c9d4ac8cdbb360f44280e7b0047d996114cc858989616619565b6114d6898d6167f8565b604051926114e384613f39565b6114ed368761451c565b84526114fa368b8f613f93565b60208501523691613f93565b6040820152611516368c8a613f93565b606082015260405186868237602081888101601681520301902061555a565b838361671a565b81604051928392833781015f81520390209381604051928392833781015f815203902093611577604051928392602084526020840191615b76565b0390a3005b3461033a5761158a36613e3a565b9691949392959097989a999a335f52600260205260ff60405f205416156103fa576115b68c8c8f616619565b604051996115c38b613f1e565b6115cd368e61451c565b8b5236906115da92613f93565b60208a015236906115ea92613f93565b604088015236906115fa92613f93565b6060860152369061160a92613f93565b6080840152369061161a92613f93565b60a08201526040518285823780838101600b81520360200190209061163e91614ce4565b6103f89261671a565b3461033a5761165536613d88565b919996959092989798335f52600260205260ff60405f205416156103fa576103f89a6103bc6103a09761169f976103b06103f39b8f978f8f99610396816103a7936103c89d616619565b608082015260405184848237602081868101600f8152030190206145a0565b3461033a576003196101603682011261033a576004356001600160401b03811161033a576116f0903690600401613d5b565b610180526101a0526024356101608190526001600160401b031061033a57608090610160513603011261033a576044356001600160401b03811161033a5761173c903690600401613d5b565b906064356001600160401b03811161033a5761175c903690600401613d5b565b6084356001600160401b03811161033a5761177b903690600401613d5b565b610140919091529160a4356001600160401b03811161033a576117a2903690600401613d5b565b61010091909152936001600160401b0360c4351161033a576117c93660c435600401613d5b565b9260e4356001600160401b03811161033a576117e9903690600401613d5b565b90929091906001600160401b03610104351161033a5761180f3661010435600401613d5b565b9097909690610124356001600160401b03811161033a57611834903690600401613d5b565b60a0919091529a610144356001600160401b03811161033a5761185b903690600401613d5b565b6101205260e052335f52600560205260ff60405f205416156127255761188e61016051600401610180516101a051616619565b60405160c08190526001600160401b036101408201908111911117610a1b5761191061194b9b6118fe61195c9f97611922956118f061193e9d6119309b61014060c051016040526118e5366101605160040161451c565b60c051523691613f93565b602060c05101523691613f93565b604060c0510152369061014051613f93565b606060c0510152369061010051613f93565b608060c05101523691613f93565b60a060c05101523691613f93565b60c0805101523691613f93565b60e060c0510152369060a051613f93565b61010060c0510152611974366101205160e051613f93565b61012060c0510152604051610180516101a0518237602081610180518101601581520301902060c0515190815160128110156110545760ff80198354169116178155602082015191825160018060401b038111610a1b576119d86001840154614017565b601f81116126e1575b506020601f821160011461267757819293945f9261266c575b50508160011b915f199060031b1c19161760018301555b60408101518051906001600160401b038211610a1b57611a346002850154614017565b601f8111612628575b50602090601f83116001146125b95760609392915f91836125ae575b50508160011b915f199060031b1c19161760028401555b01518051906001600160401b038211610a1b578190611a926003850154614017565b601f811161255e575b50602090601f83116001146124f0575f926124e5575b50508160011b915f199060031b1c19161760038201555b60c051602001518051906001600160401b038211610a1b578190611aef6004850154614017565b601f8111612495575b50602090601f8311600114612427575f9261241c575b50508160011b915f199060031b1c19161760048201555b60c051604001518051906001600160401b038211610a1b578190611b4c6005850154614017565b601f81116123cc575b50602090601f831160011461235e575f92612353575b50508160011b915f199060031b1c19161760058201555b60c051606001518051906001600160401b038211610a1b578190611ba96006850154614017565b601f8111612303575b50602090601f8311600114612295575f9261228a575b50508160011b915f199060031b1c19161760068201555b60c051608001518051906001600160401b038211610a1b578190611c066007850154614017565b601f8111612237575b50602090601f83116001146121c9575f926121be575b50508160011b915f199060031b1c19161760078201555b60c05160a001518051906001600160401b038211610a1b578190611c636008850154614017565b601f811161216b575b50602090601f83116001146120fd575f926120f2575b50508160011b915f199060031b1c19161760088201555b60c080510151805190919060098201906001600160401b038111610a1b57611cc18254614017565b601f81116120ad575b506020601f821160011461204b57819293945f92612040575b50508160011b915f199060031b1c19161790555b60c05160e001518051909190600a8201906001600160401b038111610a1b57611d208254614017565b601f8111611ffb575b506020601f8211600114611f9957819293945f92611f8e575b50508160011b915f199060031b1c19161790555b60c051610100015180519190600b8201906001600160401b038411610a1b57611d7f8254614017565b601f8111611f49575b50602090601f8511600114611ee357600c94915f9183611ed8575b50508160011b915f199060031b1c19161790555b0161012060c051015190815160018060401b038111610a1b57611dda8254614017565b601f8111611e93575b50602092601f8211600114611e3357928192935f92611e28575b50508160011b915f199060031b1c19161790555b6103f861016051600401610180516101a05161671a565b015190508380611dfd565b601f19821693835f5260205f20915f5b868110611e7b5750836001959610611e63575b505050811b019055611e11565b01515f1960f88460031b161c19169055838080611e56565b91926020600181928685015181550194019201611e43565b825f5260205f20601f830160051c81019160208410611ece575b601f0160051c01905b818110611ec35750611de3565b5f8155600101611eb6565b9091508190611ead565b015190508580611da3565b90601f19851691835f5260205f20925f5b818110611f315750916001939187600c989410611f19575b505050811b019055611db7565b01515f1960f88460031b161c19169055858080611f0c565b92936020600181928786015181550195019301611ef4565b825f5260205f20601f860160051c81019160208710611f84575b601f0160051c01905b818110611f795750611d88565b5f8155600101611f6c565b9091508190611f63565b015190508480611d42565b601f19821690835f5260205f20915f5b818110611fe357509583600195969710611fcb575b505050811b019055611d56565b01515f1960f88460031b161c19169055848080611fbe565b9192602060018192868b015181550194019201611fa9565b825f5260205f20601f830160051c81019160208410612036575b601f0160051c01905b81811061202b5750611d29565b5f815560010161201e565b9091508190612015565b015190508480611ce3565b601f19821690835f5260205f20915f5b8181106120955750958360019596971061207d575b505050811b019055611cf7565b01515f1960f88460031b161c19169055848080612070565b9192602060018192868b01518155019401920161205b565b825f5260205f20601f830160051c810191602084106120e8575b601f0160051c01905b8181106120dd5750611cca565b5f81556001016120d0565b90915081906120c7565b015190508380611c82565b9250600884015f5260205f20905f935b601f1984168510612150576001945083601f19811610612138575b505050811b016008820155611c99565b01515f1960f88460031b161c19169055838080612128565b8181015183556020948501946001909301929091019061210d565b909150600884015f5260205f20601f840160051c810191602085106121b4575b90601f859493920160051c01905b8181106121a65750611c6c565b5f8155849350600101612199565b909150819061218b565b015190508380611c25565b9250600784015f5260205f20905f935b601f198416851061221c576001945083601f19811610612204575b505050811b016007820155611c3c565b01515f1960f88460031b161c191690558380806121f4565b818101518355602094850194600190930192909101906121d9565b909150600784015f5260205f20601f840160051c81019160208510612280575b90601f859493920160051c01905b8181106122725750611c0f565b5f8155849350600101612265565b9091508190612257565b015190508380611bc8565b9250600684015f5260205f20905f935b601f19841685106122e8576001945083601f198116106122d0575b505050811b016006820155611bdf565b01515f1960f88460031b161c191690558380806122c0565b818101518355602094850194600190930192909101906122a5565b909150600684015f5260205f20601f840160051c81016020851061234c575b90849392915b601f830160051c8201811061233e575050611bb2565b5f8155859450600101612328565b5080612322565b015190508380611b6b565b9250600584015f5260205f20905f935b601f19841685106123b1576001945083601f19811610612399575b505050811b016005820155611b82565b01515f1960f88460031b161c19169055838080612389565b8181015183556020948501946001909301929091019061236e565b909150600584015f5260205f20601f840160051c810160208510612415575b90849392915b601f830160051c82018110612407575050611b55565b5f81558594506001016123f1565b50806123eb565b015190508380611b0e565b9250600484015f5260205f20905f935b601f198416851061247a576001945083601f19811610612462575b505050811b016004820155611b25565b01515f1960f88460031b161c19169055838080612452565b81810151835560209485019460019093019290910190612437565b909150600484015f5260205f20601f840160051c8101602085106124de575b90849392915b601f830160051c820181106124d0575050611af8565b5f81558594506001016124ba565b50806124b4565b015190508380611ab1565b9250600384015f5260205f20905f935b601f1984168510612543576001945083601f1981161061252b575b505050811b016003820155611ac8565b01515f1960f88460031b161c1916905583808061251b565b81810151835560209485019460019093019290910190612500565b909150600384015f5260205f20601f840160051c8101602085106125a7575b90849392915b601f830160051c82018110612599575050611a9b565b5f8155859450600101612583565b508061257d565b015190508580611a59565b90600285015f5260205f20915f5b601f1985168110612610575091839160019360609695601f198116106125f8575b505050811b016002840155611a70565b01515f1960f88460031b161c191690558580806125e8565b919260206001819286850151815501940192016125c7565b600285015f5260205f20601f840160051c810160208510612665575b601f830160051c8201811061265a575050611a3d565b5f8155600101612644565b5080612644565b0151905084806119fa565b600184015f5260205f20905f5b601f19841681106126c95750600193949583601f198116106126b1575b505050811b016001830155611a11565b01515f1960f88460031b161c191690558480806126a1565b9091602060018192858a015181550193019101612684565b600184015f5260205f20601f830160051c81016020841061271e575b601f830160051c820181106127135750506119e1565b5f81556001016126fd565b50806126fd565b60405163b601a68d60e01b8152600490fd5b3461033a57602036600319011261033a576004356001600160401b03811161033a5760206110af61276c923690600401613fd8565b8101601281520301902061277f816140f1565b61112361278e6004840161404f565b9261279b6005820161404f565b906127a86006820161404f565b6127b46007830161404f565b6127c06008840161404f565b916127d9600a6127d26009870161404f565b950161404f565b946040519889988961448a565b3461033a576127f436613d88565b9991969798929095939498335f52600260205260ff60405f205416156103fa57611535896128a16128d0947f07c9fc4ac9266376cb17afdcee0f23f0f5abaf32dab736c7d891c595d39725bd9b6128958f612850888c8c616619565b61285a8c876167f8565b6128648d826167f8565b6128886040519661287488613f03565b61287e368b61451c565b88528d3691613f93565b60208701528c3691613f93565b60408501523691613f93565b60608201526128b1368e8b613f93565b60808201526040518686823760208188810160188152030190206145a0565b81604051928392833781015f81520390209481604051928392833781015f81520390209481604051928392833781015f81520390209461291d604051928392602084526020840191615b76565b0390a4005b3461033a57602036600319011261033a576004356001600160a01b0381169081900361033a575f526003602052602060ff60405f2054166040519015158152f35b3461033a57602036600319011261033a576004356001600160a01b038181169182900361033a575f5416330361032857805f52600560205260405f2060ff1981541690557fc28840c72026297551adaf2f67ff2d6aca1b2c4ed12cf5023d94ba7076e75a095f80a2005b3461033a57602036600319011261033a576004356001600160a01b038181169182900361033a575f5416330361032857805f52600260205260405f2060ff1981541690557f80c0b871b97b595b16a7741c1b06fed0c6f6f558639f18ccbce50724325dc40d5f80a2005b3461033a57612a4536613e3a565b9691949392959097989a999a335f52600360205260ff60405f20541615612af957612a718c8c8f616619565b60405199612a7e8b613f1e565b612a88368e61451c565b8b523690612a9592613f93565b60208a01523690612aa592613f93565b60408801523690612ab592613f93565b60608601523690612ac592613f93565b60808401523690612ad592613f93565b60a08201526040518285823780838101601381520360200190209061163e91614ce4565b604051633b4d583360e21b8152600490fd5b3461033a57602036600319011261033a576004356001600160a01b038181169182900361033a575f5416330361032857801561031657805f52600260205260405f20600160ff198254161790557fac6fa858e9350a46cec16539926e0fde25b7629f84b5a72bffaae4df888ae86d5f80a2005b3461033a57602036600319011261033a576004356001600160401b03811161033a5760206110af612bb3923690600401613fd8565b8101601181520301902061277f816140f1565b3461033a57612bd436613d88565b919996959092989798335f52600260205260ff60405f205416156103fa576103f89a6103bc6103a097612c1e976103b06103f39b8f978f8f99610396816103a7936103c89d616619565b60808201526040518484823760208186810160108152030190206145a0565b3461033a575f36600319011261033a575f546040516001600160a01b039091168152602090f35b3461033a57612c723661438b565b929b9499969798959a939c9f919e909d6101e0526101c052610200529a9b98999697949592939091335f52600260205260ff60405f205416156103fa576101e0516101c051906102005191612cc692616619565b6040519d8e91612cd583613f54565b366101e05190612ce49161451c565b83523690612cf192613f93565b90602001523690612d0192613f93565b60408c01523690612d1192613f93565b60608a01523690612d2192613f93565b60808801523690612d3192613f93565b60a08601523690612d4192613f93565b60c08401523690612d5192613f93565b60e08201526040516101c051610200518237806101c05181016011815203602001902090612d7e91615b96565b6101e0516101c0519061020051916103f89261671a565b3461033a57602036600319011261033a576004356001600160401b03811161033a5760206110af612dca923690600401613fd8565b81016016815203019020612ddd816140f1565b611123612dec6004840161404f565b92612dfe600661134c6005840161404f565b9060405194859485614343565b3461033a57612e1936614291565b9597919796929496335f52600260205260ff60405f205416156103fa5761153588612e9961153c947fa62ae18c8132954544e02a502215888bdc7d7df53e52873d79a81f91544f2dba9a6128958e612e72888c8c616619565b612e7c8c876167f8565b612e8c6040519661287488613f39565b602087015236908d613f93565b606082015260405186868237602081888101601981520301902061555a565b3461033a57602036600319011261033a576004356001600160401b03811161033a5760206110af612eed923690600401613fd8565b8101600e8152030190206110d5816140f1565b3461033a57602036600319011261033a576004356001600160401b03811161033a5760206110af612f35923690600401613fd8565b8101600b8152030190206110d5816140f1565b3461033a575f36600319011261033a576001546040516001600160a01b039091168152602090f35b3461033a57612f7e3661438b565b929b9499969798959a939c9f919e909d6102405261022052610260529a9b98999697949592939091335f52600260205260ff60405f205416156103fa576102405161022051906102605191612fd292616619565b6040519d8e91612fe183613f54565b366102405190612ff09161451c565b83523690612ffd92613f93565b9060200152369061300d92613f93565b60408c0152369061301d92613f93565b60608a0152369061302d92613f93565b6080880152369061303d92613f93565b60a0860152369061304d92613f93565b60c0840152369061305d92613f93565b60e08201526040516102205161026051823780610220518101601281520360200190209061308a91615b96565b61024051610220519061026051916103f89261671a565b3461033a57602036600319011261033a576004356001600160a01b038181169182900361033a575f5416330361032857805f52600360205260405f2060ff1981541690557f6b66d1bba82a11aca959b4321a690cd67c826fb136617127d12973beb6957b335f80a2005b3461033a57602036600319011261033a576004356001600160a01b038181169182900361033a575f5416330361032857801561031657805f52600560205260405f20600160ff198254161790557f5bfe4ffbe756ad2df32059678eca22cadff8ecb3440f958eae6ff7b2d436e1ba5f80a2005b3461033a57602036600319011261033a576004356001600160a01b0381169081900361033a575f526004602052602060ff60405f2054166040519015158152f35b3461033a57602036600319011261033a576004356001600160401b03811161033a5760ff6131f760206110af81943690600401613fd8565b8101601b81520301902054166040519015158152f35b3461033a57602036600319011261033a576004356001600160401b03811161033a5760206110af613242923690600401613fd8565b81016017815203019020612ddd816140f1565b3461033a57602036600319011261033a576004356001600160401b03811161033a5760206110af61328a923690600401613fd8565b8101601a81520301902061131e816140f1565b3461033a576132ab36613e3a565b9691949392959097989a999a335f52600260205260ff60405f205416156103fa576132d78c8c8f616619565b604051996132e48b613f1e565b6132ee368e61451c565b8b5236906132fb92613f93565b60208a0152369061330b92613f93565b6040880152369061331b92613f93565b6060860152369061332b92613f93565b6080840152369061333b92613f93565b60a08201526040518285823780838101600c81520360200190209061163e91614ce4565b3461033a57602036600319011261033a576004356001600160401b03811161033a5760206110af613394923690600401613fd8565b810160098152030190206110d5816140f1565b614326565b3461033a57602036600319011261033a576004356001600160401b03811161033a5760206110af6133e1923690600401613fd8565b8101600f81520301902061131e816140f1565b3461033a57602036600319011261033a576004356001600160a01b038181169182900361033a576001549081163303611459578115610316576001600160a01b03191681176001557f83c14e1947c5a639434d6195a6e9d85ab3471a5049c66e0aa46b71e2c0a06dde5f80a2005b3461033a57602036600319011261033a576004356001600160401b03811161033a5760206110af613497923690600401613fd8565b81016019815203019020612ddd816140f1565b3461033a575f36600319011261033a576020600754604051908152f35b3461033a57602036600319011261033a576004356001600160a01b038181169182900361033a575f5416330361032857801561031657805f52600360205260405f20600160ff198254161790557f6d52a43c5decf356b1093e9f3b6beb1eb8f9f3f333a8f13171e1d89c143c45755f80a2005b3461033a5761354836613e3a565b9691949392959097989a999a335f52600260205260ff60405f205416156103fa576135748c8c8f616619565b604051996135818b613f1e565b61358b368e61451c565b8b52369061359892613f93565b60208a015236906135a892613f93565b604088015236906135b892613f93565b606086015236906135c892613f93565b608084015236906135d892613f93565b60a08201526040518285823780838101600981520360200190209061163e91614ce4565b3461033a57602036600319011261033a576004356001600160a01b0381169081900361033a575f526005602052602060ff60405f2054166040519015158152f35b3461033a57602036600319011261033a576004356001600160a01b038181169182900361033a575f5416330361032857801561031657805f52600460205260405f20600160ff198254161790557f65e52bd3fb1902d00941506c0a765dfad293c8c4d5851c7a4dc55ad5d60ff5e35f80a2005b3461033a575f36600319011261033a576001546001600160a01b0390811633036114595760065480156137755762093a80810180911161376157421061374f575f54600854828116809383165f805160206168588339815191525f80a36001600160a01b031991821683175f908155911660085560068190557ffcd2de31341801b7fd80895c780aae50c1505fd674ff1b9b9764c56c633434d69080a2005b604051634b362d4f60e01b8152600490fd5b634e487b7160e01b5f52601160045260245ffd5b60405163078591a760e11b8152600490fd5b3461033a575f36600319011261033a576020600654604051908152f35b3461033a576137b236614291565b979592949693909193335f52600260205260ff60405f205416156103fa5786613877856115358b6138588e61380d6115779b7f4c008f49c3178c1ce0fb3c86aed7d2e80aca376ed1476947ca5a220f45e9a5089f8a90616619565b61381789846167f8565b61383b6040519361382785613f39565b613831368861451c565b85528a3691613f93565b602084015261384b368d8f613f93565b604084015236908a613f93565b606082015260405186868237602081888101601781520301902061555a565b81604051928392833781015f81520390209681604051928392833781015f8152039020966138b2604051958695604087526040870191615b76565b918483036020860152615b76565b3461033a57602036600319011261033a576004356001600160401b03811161033a5760206110af6138f5923690600401613fd8565b8101601081520301902061131e816140f1565b3461033a57602036600319011261033a576004356001600160401b03811161033a5760206110af61393d923690600401613fd8565b8101600c8152030190206110d5816140f1565b3461033a57602036600319011261033a576004356001600160401b03811161033a5760206110af613985923690600401613fd8565b8101600a81520301902061131e816140f1565b3461033a57602036600319011261033a576004356001600160401b03811161033a5760206110af6139cd923690600401613fd8565b8101600d81520301902061131e816140f1565b3461033a57602036600319011261033a576004356001600160a01b0381169081900361033a575f526002602052602060ff60405f2054166040519015158152f35b3461033a57602036600319011261033a576004356001600160401b03811161033a57613a51903690600401613fd8565b6040518181809351602081930191613a6892613ff6565b810160158152036020019020613a7d816140f1565b613a896004830161404f565b91613a966005820161404f565b90613aa36006820161404f565b613aaf6007830161404f565b613abb6008840161404f565b613ac76009850161404f565b91613ad4600a860161404f565b93613ae1600b870161404f565b95600c01613aee9061404f565b96604051998a99610140808c528b01613b0691614179565b8a810360208c0152613b1791614154565b89810360408b0152613b2891614154565b88810360608a0152613b3991614154565b8781036080890152613b4a91614154565b86810360a0880152613b5b91614154565b85810360c0870152613b6c91614154565b84810360e0860152613b7d91614154565b838103610100850152613b8f91614154565b82810361012084015261112391614154565b3461033a57613baf36613e3a565b9691949392959097989a999a335f52600260205260ff60405f205416156103fa57613bdb8c8c8f616619565b60405199613be88b613f1e565b613bf2368e61451c565b8b523690613bff92613f93565b60208a01523690613c0f92613f93565b60408801523690613c1f92613f93565b60608601523690613c2f92613f93565b60808401523690613c3f92613f93565b60a08201526040518285823780838101600e81520360200190209061163e91614ce4565b3461033a575f36600319011261033a575f546001600160a01b0316330361032857600880546001600160a01b03191690555f6006554262093a808101908110613761576007557fedd770ee01b7c0ef4f503125eafdc2725536cbf32342dffcaa300d95a7cafce35f80a1005b3461033a57613cdd36613d88565b9691949392959097999a335f52600260205260ff60405f20541615613d4c575094613d2d946103bc8c99956103f399956103b06103f89f968f9b8f8d6103966103a09f6103a7936103c89d616619565b608082015260405184848237602081868101600a8152030190206145a0565b631f0853c160e21b8152600490fd5b9181601f8401121561033a578235916001600160401b03831161033a576020838186019501011161033a57565b6003199060c08183011261033a576004906001600160401b03823581811161033a5782613db6918501613d5b565b959095946024359083821161033a57608090828603011261033a5784019360443583811161033a5784613dea918301613d5b565b9490949360643581811161033a5782613e04918501613d5b565b9490949360843583811161033a5784613e1e918301613d5b565b9490949360a43590811161033a57613e369201613d5b565b9091565b906003199060e08284011261033a576001600160401b03906004803583811161033a5785613e69918301613d5b565b959095946024359085821161033a57608090828403011261033a5782019360443581811161033a5782613e9d918501613d5b565b9490949360643583811161033a5784613eb7918301613d5b565b9490949360843581811161033a5782613ed1918501613d5b565b9490949360a43583811161033a5784613eeb918301613d5b565b9490949360c43590811161033a57613e369201613d5b565b60a081019081106001600160401b03821117610a1b57604052565b60c081019081106001600160401b03821117610a1b57604052565b608081019081106001600160401b03821117610a1b57604052565b61010081019081106001600160401b03821117610a1b57604052565b601f909101601f19168101906001600160401b03821190821017610a1b57604052565b9192916001600160401b038211610a1b5760405191613fbc601f8201601f191660200184613f70565b82948184528183011161033a578281602093845f960137010152565b9080601f8301121561033a57816020613ff393359101613f93565b90565b5f5b8381106140075750505f910152565b8181015183820152602001613ff8565b90600182811c92168015614045575b602083101461403157565b634e487b7160e01b5f52602260045260245ffd5b91607f1691614026565b9060405191825f825461406181614017565b908184526020946001916001811690815f146140cf5750600114614091575b50505061408f92500383613f70565b565b5f90815285812095935091905b8183106140b757505061408f93508201015f8080614080565b8554888401850152948501948794509183019161409e565b9250505061408f94925060ff191682840152151560051b8201015f8080614080565b906040516140fe81613f39565b809260ff8154169060128210156110545760036141429160609385526141266001820161404f565b60208601526141376002820161404f565b60408601520161404f565b910152565b9060128210156110545752565b9060209161416d81518092818552858086019101613ff6565b601f01601f1916010190565b613ff391614188818351614147565b60606141b86141a66020850151608060208601526080850190614154565b60408501518482036040860152614154565b920151906060818403910152614154565b9390613ff395936141fa614216946141ec6142089460a08a5260a08a0190614179565b9088820360208a0152614154565b908682036040880152614154565b908482036060860152614154565b916080818403910152614154565b94919361426761428394614259613ff3999761424b6142759660c08c5260c08c0190614179565b908a820360208c0152614154565b9088820360408a0152614154565b908682036060880152614154565b908482036080860152614154565b9160a0818403910152614154565b906003199060a08284011261033a576001600160401b03906004803583811161033a57856142c0918301613d5b565b959095946024359085821161033a57608090828403011261033a5782019360443581811161033a57826142f4918501613d5b565b9490949360643583811161033a578461430e918301613d5b565b9490949360843590811161033a57613e369201613d5b565b3461033a575f36600319011261033a57602060405162093a808152f35b9261436f613ff3959361436161437d94608088526080880190614179565b908682036020880152614154565b908482036040860152614154565b916060818403910152614154565b90600319906101208284011261033a576001600160401b03906004803583811161033a57856143bb918301613d5b565b959095946024359085821161033a57608090828403011261033a5782019360443581811161033a57826143ef918501613d5b565b9490949360643583811161033a5784614409918301613d5b565b9490949360843581811161033a5782614423918501613d5b565b9490949360a43583811161033a578461443d918301613d5b565b9490949360c43581811161033a5782614457918501613d5b565b9490949360e43583811161033a5784614471918301613d5b565b949094936101043590811161033a57613e369201613d5b565b9693946144e461450e966144d6614500966144c88c613ff39e9c986144ba6144f299610100808552840190614179565b916020818403910152614154565b8c810360408e015290614154565b908a820360608c0152614154565b9088820360808a0152614154565b9086820360a0880152614154565b9084820360c0860152614154565b9160e0818403910152614154565b919060808382031261033a576040519061453582613f39565b81938035601281101561033a5783526001600160401b0391602082013583811161033a5781614565918401613fd8565b6020850152604082013583811161033a5781614582918401613fd8565b6040850152606082013592831161033a576060926141429201613fd8565b815190815160128110156110545760ff8019835416911617815560019182820191602090818301519182519460018060401b0395868111610a1b57806145e68354614017565b95601f96878111614c96575b508490878311600114614c37575f92614c2c575b50505f19600383901b1c191690881b1790555b600282016040850151805190878211610a1b5781906146388454614017565b878111614bde575b508490878311600114614b7f575f92614b74575b50505f19600383901b1c191690881b1790555b6003936060858401910151805190878211610a1b5781906146888454614017565b878111614b26575b508490878311600114614ac8575f92614abd575b50505f1982881b1c191690881b1790555b6004820181880151805190878211610a1b5781906146d38454614017565b878111614a6f575b508490878311600114614a11575f92614a06575b50505f1982881b1c191690881b1790555b6005918281016040890151805190888211610a1b5781906147218454614017565b8881116149ba575b50859088831160011461495c575f92614951575b50505f1982891b1c191690891b1790555b600681016060890151805190888211610a1b5761476b8354614017565b878111614910575b5084908783116001146148a757918060079492608096945f9261489c575b50505f19828b1b1c1916908b1b1790555b01970151918251958611610a1b576147ba8854614017565b9084821161485b575b5050809285116001146147f957509383949184925f956147ee575b50501b925f19911b1c1916179055565b015193505f806147de565b92919084601f198116885f52855f20955f905b898383106148415750505010614828575b50505050811b019055565b01519060f8845f19921b161c191690555f80808061481d565b85870151895590970196948501948893509081019061480c565b885f52825f209085808901821c830193858a10614893575b01901c019087905b82811061488857506147c3565b5f815501879061487b565b93508293614873565b015190505f80614791565b8a9291601f19831691855f52875f20925f5b898282106148fa57505091608097959391856007989694106148e3575b505050811b0190556147a2565b01515f19838d1b60f8161c191690555f80806148d6565b8385015186558f979095019493840193016148b9565b835f52855f2088808501891c820192888610614948575b01881c01908b905b82811061493d575050614773565b5f8155018b9061492f565b92508192614927565b015190505f8061473d565b908b9350601f19831691855f52875f20925f5b898282106149a4575050841161498d575b505050811b01905561474e565b01515f19838b1b60f8161c191690555f8080614980565b8385015186558f9790950194938401930161496f565b909150835f52855f2088808501891c8201928886106149fd575b918d9186959493018a1c01915b8281106149ef575050614729565b5f81558594508d91016149e1565b925081926149d4565b015190505f806146ef565b908a9350601f19831691855f52865f20925f5b88828210614a595750508411614a42575b505050811b019055614700565b01515f19838a1b60f8161c191690555f8080614a35565b8385015186558e97909501949384019301614a24565b909150835f52845f208780850160051c820192878610614ab4575b918c91869594930160051c01915b828110614aa65750506146db565b5f81558594508c9101614a98565b92508192614a8a565b015190505f806146a4565b908a9350601f19831691855f52865f20925f5b88828210614b105750508411614af9575b505050811b0190556146b5565b01515f19838a1b60f8161c191690555f8080614aec565b8385015186558e97909501949384019301614adb565b909150835f52845f208780850160051c820192878610614b6b575b918c91869594930160051c01915b828110614b5d575050614690565b5f81558594508c9101614b4f565b92508192614b41565b015190505f80614654565b908a9350601f19831691855f52865f20925f5b88828210614bc85750508411614bb0575b505050811b019055614667565b01515f1960f88460031b161c191690555f8080614ba3565b8385015186558e97909501949384019301614b92565b909150835f52845f208780850160051c820192878610614c23575b918c91869594930160051c01915b828110614c15575050614640565b5f81558594508c9101614c07565b92508192614bf9565b015190505f80614606565b908a9350601f19831691855f52865f20925f5b88828210614c805750508411614c68575b505050811b019055614619565b01515f1960f88460031b161c191690555f8080614c5b565b8385015186558e97909501949384019301614c4a565b909150835f52845f208780850160051c820192878610614cdb575b918c91869594930160051c01915b828110614ccd5750506145f2565b5f81558594508c9101614cbf565b92508192614cb1565b815190815160128110156110545760ff8019835416911617815560019182820191602090818301519182519460018060401b0395868111610a1b5780614d2a8354614017565b95601f9687811161550c575b5084908783116001146154ad575f926154a2575b50505f19600383901b1c191690881b1790555b600282016040850151805190878211610a1b578190614d7c8454614017565b878111615454575b5084908783116001146153f5575f926153ea575b50505f19600383901b1c191690881b1790555b6003936060858401910151805190878211610a1b578190614dcc8454614017565b87811161539c575b50849087831160011461533e575f92615333575b50505f1982881b1c191690881b1790555b60049182810182890151805190888211615320578190614e198454614017565b8881116152d2575b508590888311600114615274575f92615269575b50505f1982891b1c191690891b1790555b60059081810160408a01518051908982116150da578190614e678454614017565b89811161521d575b5086908983116001146151b6575f926151ab575b50505f19828a1b1c1916908a1b1790555b6006810160608a01518051908982116150da578190614eb38454614017565b89811161515f575b5086908983116001146150f8575f926150ed575b50505f19828a1b1c1916908a1b1790555b6007810160808a01518051908982116150da57614efd8354614017565b888111615099575b5085908883116001146150275791806008949260a096945f9261501c575b50505f19828c1b1c1916908c1b1790555b019801519283519687116150095750614f4d8854614017565b90848211614fc8575b505080928511600114614f8057509383949184925f956147ee5750501b925f19911b1c1916179055565b92919084601f198116885f52855f20955f905b89838310614fae57505050106148285750505050811b019055565b858701518955909701969485019488935090810190614f93565b885f52825f209085808901821c830193858a10615000575b01901c019087905b828110614ff55750614f56565b5f8155018790614fe8565b93508293614fe0565b604190634e487b7160e01b5f525260245ffd5b015190505f80614f23565b8b9291601f19831691855f52885f20925f5b8a82821061507a5750509160a09795939185600898969410615063575b505050811b019055614f34565b01515f19838e1b60f8161c191690555f8080615056565b91929395968291958786015181550195019301908e9594939291615039565b835f52865f2089808501881c8201928986106150d1575b01871c01908c905b8281106150c6575050614f05565b5f8155018c906150b8565b925081926150b0565b604187634e487b7160e01b5f525260245ffd5b015190505f80614ecf565b908c9350601f19831691855f52885f20925f5b8a8282106151405750508411615129575b505050811b019055614ee0565b01515f19838c1b60f8161c191690555f808061511c565b91929395968291958786015181550195019301908e959493929161510b565b909150835f52865f2089808501881c8201928986106151a2575b918e918695949301891c01915b828110615194575050614ebb565b5f81558594508e9101615186565b92508192615179565b015190505f80614e83565b908c9350601f19831691855f52885f20925f5b8a8282106151fe57505084116151e7575b505050811b019055614e94565b01515f19838c1b60f8161c191690555f80806151da565b91929395968291958786015181550195019301908e95949392916151c9565b909150835f52865f2089808501881c820192898610615260575b918e918695949301891c01915b828110615252575050614e6f565b5f81558594508e9101615244565b92508192615237565b015190505f80614e35565b908b9350601f19831691855f52875f20925f5b898282106152bc57505084116152a5575b505050811b019055614e46565b01515f19838b1b60f8161c191690555f8080615298565b8385015186558f97909501949384019301615287565b909150835f52855f208880850160051c820192888610615317575b918d91869594930160051c01915b828110615309575050614e21565b5f81558594508d91016152fb565b925081926152ed565b604186634e487b7160e01b5f525260245ffd5b015190505f80614de8565b908a9350601f19831691855f52865f20925f5b88828210615386575050841161536f575b505050811b019055614df9565b01515f19838a1b60f8161c191690555f8080615362565b8385015186558e97909501949384019301615351565b909150835f52845f208780850160051c8201928786106153e1575b918c91869594930160051c01915b8281106153d3575050614dd4565b5f81558594508c91016153c5565b925081926153b7565b015190505f80614d98565b908a9350601f19831691855f52865f20925f5b8882821061543e5750508411615426575b505050811b019055614dab565b01515f1960f88460031b161c191690555f8080615419565b8385015186558e97909501949384019301615408565b909150835f52845f208780850160051c820192878610615499575b918c91869594930160051c01915b82811061548b575050614d84565b5f81558594508c910161547d565b9250819261546f565b015190505f80614d4a565b908a9350601f19831691855f52865f20925f5b888282106154f657505084116154de575b505050811b019055614d5d565b01515f1960f88460031b161c191690555f80806154d1565b8385015186558e979095019493840193016154c0565b909150835f52845f208780850160051c820192878610615551575b918c91869594930160051c01915b828110615543575050614d36565b5f81558594508c9101615535565b92508192615527565b815190815160128110156110545760ff80198354169116178155600191828201916020808301519182519460018060401b0395868111610a1b578061559f8354614017565b95601f96878111615b28575b508590878311600114615ac9575f92615abe575b50505f19600383901b1c191690881b1790555b600281016040850151805190878211610a1b5781906155f18454614017565b878111615a70575b508590878311600114615a11575f92615a06575b50505f19600383901b1c191690881b1790555b6003936060858301910151805190878211610a1b5781906156418454614017565b8781116159b8575b50859087831160011461595a575f9261594f575b50505f1982881b1c191690881b1790555b6004810182880151805190878211610a1b57819061568c8454614017565b878111615901575b5085908783116001146158a3575f92615898575b50505f1982881b1c191690881b1790555b600581016040880151805190878211610a1b576156d68354614017565b868111615855575b5084908683116001146157ec57918060069492606096945f926157e1575b50505f19828a1b1c1916908a1b1790555b01960151908151948511610a1b576157258754614017565b83811161579e575b508092851160011461575657509383949184925f956147ee5750501b925f19911b1c1916179055565b92919084601f198116885f52855f20955f905b8983831061578457505050106148285750505050811b019055565b858701518955909701969485019488935090810190615769565b875f52815f208480880160051c8201928489106157d8575b0160051c019087905b8281106157cd57505061572d565b5f81550187906157bf565b925081926157b6565b015190505f806156fc565b899291601f19831691855f52875f20925f5b8982821061583f5750509160609795939185600698969410615828575b505050811b01905561570d565b01515f19838c1b60f8161c191690555f808061581b565b8385015186558e979095019493840193016157fe565b835f52855f208780850160051c82019288861061588f575b0160051c01908a905b8281106158845750506156de565b5f8155018a90615876565b9250819261586d565b015190505f806156a8565b908a9350601f19831691855f52875f20925f5b898282106158eb57505084116158d4575b505050811b0190556156b9565b01515f19838a1b60f8161c191690555f80806158c7565b8385015186558e979095019493840193016158b6565b909150835f52855f208780850160051c820192888610615946575b918c91869594930160051c01915b828110615938575050615694565b5f81558594508c910161592a565b9250819261591c565b015190505f8061565d565b908a9350601f19831691855f52875f20925f5b898282106159a2575050841161598b575b505050811b01905561566e565b01515f19838a1b60f8161c191690555f808061597e565b8385015186558e9790950194938401930161596d565b909150835f52855f208780850160051c8201928886106159fd575b918c91869594930160051c01915b8281106159ef575050615649565b5f81558594508c91016159e1565b925081926159d3565b015190505f8061560d565b908a9350601f19831691855f52875f20925f5b89828210615a5a5750508411615a42575b505050811b019055615620565b01515f1960f88460031b161c191690555f8080615a35565b8385015186558e97909501949384019301615a24565b909150835f52855f208780850160051c820192888610615ab5575b918c91869594930160051c01915b828110615aa75750506155f9565b5f81558594508c9101615a99565b92508192615a8b565b015190505f806155bf565b908a9350601f19831691855f52875f20925f5b89828210615b125750508411615afa575b505050811b0190556155d2565b01515f1960f88460031b161c191690555f8080615aed565b8385015186558e97909501949384019301615adc565b909150835f52855f208780850160051c820192888610615b6d575b918c91869594930160051c01915b828110615b5f5750506155ab565b5f81558594508c9101615b51565b92508192615b43565b908060209392818452848401375f828201840152601f01601f1916010190565b815190815160128110156110545760ff8019835416911617815560019182820191602090818301519182519460018060401b0395868111610a1b5780615bdc8354614017565b95601f96878111616599575b50849087831160011461653a575f9261652f575b50505f19600383901b1c191690881b1790555b600282016040850151805190878211610a1b578190615c2e8454614017565b8781116164e1575b508490878311600114616482575f92616477575b50505f19600383901b1c191690881b1790555b6003936060858401910151805190878211610a1b578190615c7e8454614017565b878111616429575b5084908783116001146163cb575f926163c0575b50505f1982881b1c191690881b1790555b60049182810182890151805190888211615320578190615ccb8454614017565b888111616372575b508590888311600114616314575f92616309575b50505f1982891b1c191690891b1790555b60059081810160408a01518051908982116150da578190615d198454614017565b8981116162bd575b508690898311600114616256575f9261624b575b50505f19828a1b1c1916908a1b1790555b6006810160608a01518051908982116150da578190615d658454614017565b8981116161ff575b508690898311600114616198575f9261618d575b50505f19828a1b1c1916908a1b1790555b6007810160808a01518051908982116150da578190615db18454614017565b898111616141575b5086908983116001146160da575f926160cf575b50505f19828a1b1c1916908a1b1790555b6008810160a08a01518051908982116150da578190615dfd8454614017565b898111616083575b50869089831160011461601c575f92616011575b50505f19828a1b1c1916908a1b1790555b6009810160c08a01518051908982116150da57615e478354614017565b888111615fd0575b508590888311600114615f5e579180600a949260e096945f92615f53575b50505f19828c1b1c1916908c1b1790555b019801519283519687116150095750615e978854614017565b90848211615f12575b505080928511600114615eca57509383949184925f956147ee5750501b925f19911b1c1916179055565b92919084601f198116885f52855f20955f905b89838310615ef857505050106148285750505050811b019055565b858701518955909701969485019488935090810190615edd565b885f52825f209085808901821c830193858a10615f4a575b01901c019087905b828110615f3f5750615ea0565b5f8155018790615f32565b93508293615f2a565b015190505f80615e6d565b8b9291601f19831691855f52885f20925f5b8a828210615fb15750509160e09795939185600a98969410615f9a575b505050811b019055615e7e565b01515f19838e1b60f8161c191690555f8080615f8d565b91929395968291958786015181550195019301908e9594939291615f70565b835f52865f2089808501881c820192898610616008575b01871c01908c905b828110615ffd575050615e4f565b5f8155018c90615fef565b92508192615fe7565b015190505f80615e19565b908c9350601f19831691855f52885f20925f5b8a828210616064575050841161604d575b505050811b019055615e2a565b01515f19838c1b60f8161c191690555f8080616040565b91929395968291958786015181550195019301908e959493929161602f565b909150835f52865f2089808501881c8201928986106160c6575b918e918695949301891c01915b8281106160b8575050615e05565b5f81558594508e91016160aa565b9250819261609d565b015190505f80615dcd565b908c9350601f19831691855f52885f20925f5b8a828210616122575050841161610b575b505050811b019055615dde565b01515f19838c1b60f8161c191690555f80806160fe565b91929395968291958786015181550195019301908e95949392916160ed565b909150835f52865f2089808501881c820192898610616184575b918e918695949301891c01915b828110616176575050615db9565b5f81558594508e9101616168565b9250819261615b565b015190505f80615d81565b908c9350601f19831691855f52885f20925f5b8a8282106161e057505084116161c9575b505050811b019055615d92565b01515f19838c1b60f8161c191690555f80806161bc565b91929395968291958786015181550195019301908e95949392916161ab565b909150835f52865f2089808501881c820192898610616242575b918e918695949301891c01915b828110616234575050615d6d565b5f81558594508e9101616226565b92508192616219565b015190505f80615d35565b908c9350601f19831691855f52885f20925f5b8a82821061629e5750508411616287575b505050811b019055615d46565b01515f19838c1b60f8161c191690555f808061627a565b91929395968291958786015181550195019301908e9594939291616269565b909150835f52865f2089808501881c820192898610616300575b918e918695949301891c01915b8281106162f2575050615d21565b5f81558594508e91016162e4565b925081926162d7565b015190505f80615ce7565b908b9350601f19831691855f52875f20925f5b8982821061635c5750508411616345575b505050811b019055615cf8565b01515f19838b1b60f8161c191690555f8080616338565b8385015186558f97909501949384019301616327565b909150835f52855f208880850160051c8201928886106163b7575b918d91869594930160051c01915b8281106163a9575050615cd3565b5f81558594508d910161639b565b9250819261638d565b015190505f80615c9a565b908a9350601f19831691855f52865f20925f5b8882821061641357505084116163fc575b505050811b019055615cab565b01515f19838a1b60f8161c191690555f80806163ef565b8385015186558e979095019493840193016163de565b909150835f52845f208780850160051c82019287861061646e575b918c91869594930160051c01915b828110616460575050615c86565b5f81558594508c9101616452565b92508192616444565b015190505f80615c4a565b908a9350601f19831691855f52865f20925f5b888282106164cb57505084116164b3575b505050811b019055615c5d565b01515f1960f88460031b161c191690555f80806164a6565b8385015186558e97909501949384019301616495565b909150835f52845f208780850160051c820192878610616526575b918c91869594930160051c01915b828110616518575050615c36565b5f81558594508c910161650a565b925081926164fc565b015190505f80615bfc565b908a9350601f19831691855f52865f20925f5b88828210616583575050841161656b575b505050811b019055615c0f565b01515f1960f88460031b161c191690555f808061655e565b8385015186558e9790950194938401930161654d565b909150835f52845f208780850160051c8201928786106165de575b918c91869594930160051c01915b8281106165d0575050615be8565b5f81558594508c91016165c2565b925081926165b4565b903590601e198136030182121561033a57018035906001600160401b03821161033a5760200191813603831361033a57565b9080156167085761662d60208401846165e7565b9050156166f65760ff60405182848237602081848101601b81520301902054166166d2575050604081019061666282826165e7565b90501515806166a6575b616674575050565b61667e92506165e7565b6166a260405192839263805de86960e01b8452602060048501526024840191615b76565b0390fd5b5060ff60206166b584846165e7565b91908260405193849283378101601b81520301902054161561666c565b6166a260405192839263029e8f5f60e21b8452602060048501526024840191615b76565b6040516346829b8560e01b8152600490fd5b604051630dd088e760e01b8152600490fd5b9160405182848237602081848101601b815203019020600160ff19825416179055803591601283101561033a576167d5926167f36167c4926167e3856167a361678760607f91a2a0e72e1981849103a4a952d7168303a860389dc265dd36f4780701f588369901836165e7565b999061679660208501856165e7565b93909460408101906165e7565b96909c81604051928392833781015f81520390209a604051998a809a614147565b608060208a01526080890191615b76565b918683036040880152615b76565b9083820360608501523397615b76565b0390a3565b9080156168455760ff60405182848237602081848101601b815203019020541615616821575050565b6166a260405192839263e3d1895f60e01b8452602060048501526024840191615b76565b604051631a2f07d160e01b8152600490fdfe8be0079c531659141344cd1fd0a4f28419497f9722a3daafe3b4186f6b6457e0a26469706673582212201def445cd71b7caaa3916d95ddb01cca3d28d06445746f9498f382c2703d81f264736f6c63430008180033","linkReferences":{}},"methodIdentifiers":{"RECOVERY_DELAY()":"47b45652","RECOVERY_LOCKOUT()":"561ea99c","addEntityOperator(address)":"397c9a3a","addLegalOperator(address)":"45f65cfa","addOperator(address)":"9870d7fe","addProofOperator(address)":"6b6797c9","affirmedAnchors(string)":"47deec0d","agentAnchors(string)":"144888ff","cancelRecovery()":"0ba234d6","codeAnchors(string)":"573701f7","dataAnchors(string)":"717d1a85","entityAnchors(string)":"e600a0a0","entityOperators(address)":"6ae0dd9c","executeRecovery()":"20c5a3e1","initiateRecovery(address)":"d5ce9aad","legalAnchors(string)":"ecc8d0fc","legalOperators(address)":"b91ef084","mediaAnchors(string)":"762d408d","modelAnchors(string)":"16aca546","onChainAnchors(string)":"96ad272d","operators(address)":"13e7c9d8","otherAnchors(string)":"5bd47e10","owner()":"8da5cb5b","pendingOwner()":"e30c3978","postAnchors(string)":"1cb655e7","proofAnchors(string)":"132171b0","proofOperators(address)":"402cef1b","receiptAnchors(string)":"bdd5a582","recoveryAddress()":"710eb26c","recoveryInitiatedAt()":"20727381","recoveryLockoutUntil()":"47be22fa","registerAffirmed(string,(uint8,string,string,string),string,string,string)":"7b207ae6","registerAgent(string,(uint8,string,string,string),string,string,string,string)":"ee808008","registerCode(string,(uint8,string,string,string),string,string,string,string,string)":"407f22d8","registerData(string,(uint8,string,string,string),string,string,string,string,string)":"cc087c48","registerEntity(string,(uint8,string,string,string),string,string,string,string,string,string)":"edf1677b","registerLegal(string,(uint8,string,string,string),string,string,string,string,string)":"a93e1248","registerMedia(string,(uint8,string,string,string),string,string,string,string,string)":"10b9dcbd","registerModel(string,(uint8,string,string,string),string,string,string,string,string)":"5a355e6d","registerOnChain(string,(uint8,string,string,string),string,string,string,string,string,string,string)":"8d17b4eb","registerOther(string,(uint8,string,string,string),string,string,string,string)":"e4cc22a1","registerPost(string,(uint8,string,string,string),string,string,string,string)":"8f8f5ccb","registerProof(string,(uint8,string,string,string),string,string,string,string,string,string,string,string,string)":"bfa5cb9d","registerReceipt(string,(uint8,string,string,string),string,string,string,string,string,string,string)":"6fe98d10","registerResearch(string,(uint8,string,string,string),string,string,string,string)":"00712e19","registerRetraction(string,(uint8,string,string,string),string,string,string)":"d58817e6","registerReview(string,(uint8,string,string,string),string,string,string)":"1f3618bf","registerText(string,(uint8,string,string,string),string,string,string,string)":"c6bea7ab","registerVoid(string,(uint8,string,string,string),string,string,string,string)":"b9988922","registered(string)":"5d2d5c37","removeEntityOperator(address)":"ddf841a9","removeLegalOperator(address)":"6ba60e71","removeOperator(address)":"ac8a584a","removeProofOperator(address)":"b643fcb3","researchAnchors(string)":"165d33fe","retractionAnchors(string)":"7d15e15d","reviewAnchors(string)":"5d064b3a","setRecoveryAddress(address)":"49efe5ae","textAnchors(string)":"517f4dcf","transferOwnership(address)":"f2fde38b","voidAnchors(string)":"e0ac87b9"},"id":19}