{"abi":[{"type":"constructor","inputs":[{"name":"_recoveryAddress","type":"address","internalType":"address"}],"stateMutability":"nonpayable"},{"type":"function","name":"RECOVERY_DELAY","inputs":[],"outputs":[{"name":"","type":"uint256","internalType":"uint256"}],"stateMutability":"view"},{"type":"function","name":"RECOVERY_LOCKOUT","inputs":[],"outputs":[{"name":"","type":"uint256","internalType":"uint256"}],"stateMutability":"view"},{"type":"function","name":"addEntityOperator","inputs":[{"name":"op","type":"address","internalType":"address"}],"outputs":[],"stateMutability":"nonpayable"},{"type":"function","name":"addLegalOperator","inputs":[{"name":"op","type":"address","internalType":"address"}],"outputs":[],"stateMutability":"nonpayable"},{"type":"function","name":"addOperator","inputs":[{"name":"op","type":"address","internalType":"address"}],"outputs":[],"stateMutability":"nonpayable"},{"type":"function","name":"addProofOperator","inputs":[{"name":"op","type":"address","internalType":"address"}],"outputs":[],"stateMutability":"nonpayable"},{"type":"function","name":"affirmedAnchors","inputs":[{"name":"","type":"string","internalType":"string"}],"outputs":[{"name":"base","type":"tuple","internalType":"struct AnchorRegistry.AnchorBase","components":[{"name":"artifactType","type":"uint8","internalType":"enum AnchorRegistry.ArtifactType"},{"name":"manifestHash","type":"string","internalType":"string"},{"name":"parentHash","type":"string","internalType":"string"},{"name":"descriptor","type":"string","internalType":"string"}]},{"name":"targetArId","type":"string","internalType":"string"},{"name":"affirmedBy","type":"string","internalType":"string"},{"name":"findingUrl","type":"string","internalType":"string"}],"stateMutability":"view"},{"type":"function","name":"agentAnchors","inputs":[{"name":"","type":"string","internalType":"string"}],"outputs":[{"name":"base","type":"tuple","internalType":"struct AnchorRegistry.AnchorBase","components":[{"name":"artifactType","type":"uint8","internalType":"enum AnchorRegistry.ArtifactType"},{"name":"manifestHash","type":"string","internalType":"string"},{"name":"parentHash","type":"string","internalType":"string"},{"name":"descriptor","type":"string","internalType":"string"}]},{"name":"agentVersion","type":"string","internalType":"string"},{"name":"runtime","type":"string","internalType":"string"},{"name":"capabilities","type":"string","internalType":"string"},{"name":"url","type":"string","internalType":"string"}],"stateMutability":"view"},{"type":"function","name":"cancelRecovery","inputs":[],"outputs":[],"stateMutability":"nonpayable"},{"type":"function","name":"codeAnchors","inputs":[{"name":"","type":"string","internalType":"string"}],"outputs":[{"name":"base","type":"tuple","internalType":"struct AnchorRegistry.AnchorBase","components":[{"name":"artifactType","type":"uint8","internalType":"enum AnchorRegistry.ArtifactType"},{"name":"manifestHash","type":"string","internalType":"string"},{"name":"parentHash","type":"string","internalType":"string"},{"name":"descriptor","type":"string","internalType":"string"}]},{"name":"gitHash","type":"string","internalType":"string"},{"name":"license","type":"string","internalType":"string"},{"name":"language","type":"string","internalType":"string"},{"name":"version","type":"string","internalType":"string"},{"name":"url","type":"string","internalType":"string"}],"stateMutability":"view"},{"type":"function","name":"dataAnchors","inputs":[{"name":"","type":"string","internalType":"string"}],"outputs":[{"name":"base","type":"tuple","internalType":"struct AnchorRegistry.AnchorBase","components":[{"name":"artifactType","type":"uint8","internalType":"enum AnchorRegistry.ArtifactType"},{"name":"manifestHash","type":"string","internalType":"string"},{"name":"parentHash","type":"string","internalType":"string"},{"name":"descriptor","type":"string","internalType":"string"}]},{"name":"dataVersion","type":"string","internalType":"string"},{"name":"format","type":"string","internalType":"string"},{"name":"rowCount","type":"string","internalType":"string"},{"name":"schemaUrl","type":"string","internalType":"string"},{"name":"url","type":"string","internalType":"string"}],"stateMutability":"view"},{"type":"function","name":"entityAnchors","inputs":[{"name":"","type":"string","internalType":"string"}],"outputs":[{"name":"base","type":"tuple","internalType":"struct AnchorRegistry.AnchorBase","components":[{"name":"artifactType","type":"uint8","internalType":"enum AnchorRegistry.ArtifactType"},{"name":"manifestHash","type":"string","internalType":"string"},{"name":"parentHash","type":"string","internalType":"string"},{"name":"descriptor","type":"string","internalType":"string"}]},{"name":"entityType","type":"string","internalType":"string"},{"name":"entityDomain","type":"string","internalType":"string"},{"name":"verificationMethod","type":"string","internalType":"string"},{"name":"verificationProof","type":"string","internalType":"string"},{"name":"canonicalUrl","type":"string","internalType":"string"},{"name":"documentHash","type":"string","internalType":"string"}],"stateMutability":"view"},{"type":"function","name":"entityOperators","inputs":[{"name":"","type":"address","internalType":"address"}],"outputs":[{"name":"","type":"bool","internalType":"bool"}],"stateMutability":"view"},{"type":"function","name":"eventAnchors","inputs":[{"name":"","type":"string","internalType":"string"}],"outputs":[{"name":"base","type":"tuple","internalType":"struct AnchorRegistry.AnchorBase","components":[{"name":"artifactType","type":"uint8","internalType":"enum AnchorRegistry.ArtifactType"},{"name":"manifestHash","type":"string","internalType":"string"},{"name":"parentHash","type":"string","internalType":"string"},{"name":"descriptor","type":"string","internalType":"string"}]},{"name":"eventType","type":"string","internalType":"string"},{"name":"eventDate","type":"string","internalType":"string"},{"name":"location","type":"string","internalType":"string"},{"name":"organizer","type":"string","internalType":"string"},{"name":"url","type":"string","internalType":"string"}],"stateMutability":"view"},{"type":"function","name":"executeRecovery","inputs":[],"outputs":[],"stateMutability":"nonpayable"},{"type":"function","name":"initiateRecovery","inputs":[{"name":"_pendingOwner","type":"address","internalType":"address"}],"outputs":[],"stateMutability":"nonpayable"},{"type":"function","name":"legalAnchors","inputs":[{"name":"","type":"string","internalType":"string"}],"outputs":[{"name":"base","type":"tuple","internalType":"struct AnchorRegistry.AnchorBase","components":[{"name":"artifactType","type":"uint8","internalType":"enum AnchorRegistry.ArtifactType"},{"name":"manifestHash","type":"string","internalType":"string"},{"name":"parentHash","type":"string","internalType":"string"},{"name":"descriptor","type":"string","internalType":"string"}]},{"name":"docType","type":"string","internalType":"string"},{"name":"jurisdiction","type":"string","internalType":"string"},{"name":"parties","type":"string","internalType":"string"},{"name":"effectiveDate","type":"string","internalType":"string"},{"name":"url","type":"string","internalType":"string"}],"stateMutability":"view"},{"type":"function","name":"legalOperators","inputs":[{"name":"","type":"address","internalType":"address"}],"outputs":[{"name":"","type":"bool","internalType":"bool"}],"stateMutability":"view"},{"type":"function","name":"mediaAnchors","inputs":[{"name":"","type":"string","internalType":"string"}],"outputs":[{"name":"base","type":"tuple","internalType":"struct AnchorRegistry.AnchorBase","components":[{"name":"artifactType","type":"uint8","internalType":"enum AnchorRegistry.ArtifactType"},{"name":"manifestHash","type":"string","internalType":"string"},{"name":"parentHash","type":"string","internalType":"string"},{"name":"descriptor","type":"string","internalType":"string"}]},{"name":"mediaType","type":"string","internalType":"string"},{"name":"format","type":"string","internalType":"string"},{"name":"duration","type":"string","internalType":"string"},{"name":"isrc","type":"string","internalType":"string"},{"name":"url","type":"string","internalType":"string"}],"stateMutability":"view"},{"type":"function","name":"modelAnchors","inputs":[{"name":"","type":"string","internalType":"string"}],"outputs":[{"name":"base","type":"tuple","internalType":"struct AnchorRegistry.AnchorBase","components":[{"name":"artifactType","type":"uint8","internalType":"enum AnchorRegistry.ArtifactType"},{"name":"manifestHash","type":"string","internalType":"string"},{"name":"parentHash","type":"string","internalType":"string"},{"name":"descriptor","type":"string","internalType":"string"}]},{"name":"modelVersion","type":"string","internalType":"string"},{"name":"architecture","type":"string","internalType":"string"},{"name":"parameters","type":"string","internalType":"string"},{"name":"trainingDataset","type":"string","internalType":"string"},{"name":"url","type":"string","internalType":"string"}],"stateMutability":"view"},{"type":"function","name":"onChainAnchors","inputs":[{"name":"","type":"string","internalType":"string"}],"outputs":[{"name":"base","type":"tuple","internalType":"struct AnchorRegistry.AnchorBase","components":[{"name":"artifactType","type":"uint8","internalType":"enum AnchorRegistry.ArtifactType"},{"name":"manifestHash","type":"string","internalType":"string"},{"name":"parentHash","type":"string","internalType":"string"},{"name":"descriptor","type":"string","internalType":"string"}]},{"name":"chainId","type":"string","internalType":"string"},{"name":"assetType","type":"string","internalType":"string"},{"name":"contractAddress","type":"string","internalType":"string"},{"name":"txHash","type":"string","internalType":"string"},{"name":"tokenId","type":"string","internalType":"string"},{"name":"blockNumber","type":"string","internalType":"string"},{"name":"url","type":"string","internalType":"string"}],"stateMutability":"view"},{"type":"function","name":"operators","inputs":[{"name":"","type":"address","internalType":"address"}],"outputs":[{"name":"","type":"bool","internalType":"bool"}],"stateMutability":"view"},{"type":"function","name":"otherAnchors","inputs":[{"name":"","type":"string","internalType":"string"}],"outputs":[{"name":"base","type":"tuple","internalType":"struct AnchorRegistry.AnchorBase","components":[{"name":"artifactType","type":"uint8","internalType":"enum AnchorRegistry.ArtifactType"},{"name":"manifestHash","type":"string","internalType":"string"},{"name":"parentHash","type":"string","internalType":"string"},{"name":"descriptor","type":"string","internalType":"string"}]},{"name":"kind","type":"string","internalType":"string"},{"name":"platform","type":"string","internalType":"string"},{"name":"url","type":"string","internalType":"string"},{"name":"value","type":"string","internalType":"string"}],"stateMutability":"view"},{"type":"function","name":"owner","inputs":[],"outputs":[{"name":"","type":"address","internalType":"address"}],"stateMutability":"view"},{"type":"function","name":"pendingOwner","inputs":[],"outputs":[{"name":"","type":"address","internalType":"address"}],"stateMutability":"view"},{"type":"function","name":"postAnchors","inputs":[{"name":"","type":"string","internalType":"string"}],"outputs":[{"name":"base","type":"tuple","internalType":"struct AnchorRegistry.AnchorBase","components":[{"name":"artifactType","type":"uint8","internalType":"enum AnchorRegistry.ArtifactType"},{"name":"manifestHash","type":"string","internalType":"string"},{"name":"parentHash","type":"string","internalType":"string"},{"name":"descriptor","type":"string","internalType":"string"}]},{"name":"platform","type":"string","internalType":"string"},{"name":"postId","type":"string","internalType":"string"},{"name":"postDate","type":"string","internalType":"string"},{"name":"url","type":"string","internalType":"string"}],"stateMutability":"view"},{"type":"function","name":"proofAnchors","inputs":[{"name":"","type":"string","internalType":"string"}],"outputs":[{"name":"base","type":"tuple","internalType":"struct AnchorRegistry.AnchorBase","components":[{"name":"artifactType","type":"uint8","internalType":"enum AnchorRegistry.ArtifactType"},{"name":"manifestHash","type":"string","internalType":"string"},{"name":"parentHash","type":"string","internalType":"string"},{"name":"descriptor","type":"string","internalType":"string"}]},{"name":"proofType","type":"string","internalType":"string"},{"name":"proofSystem","type":"string","internalType":"string"},{"name":"circuitId","type":"string","internalType":"string"},{"name":"vkeyHash","type":"string","internalType":"string"},{"name":"auditFirm","type":"string","internalType":"string"},{"name":"auditScope","type":"string","internalType":"string"},{"name":"verifierUrl","type":"string","internalType":"string"},{"name":"reportUrl","type":"string","internalType":"string"},{"name":"proofHash","type":"string","internalType":"string"}],"stateMutability":"view"},{"type":"function","name":"proofOperators","inputs":[{"name":"","type":"address","internalType":"address"}],"outputs":[{"name":"","type":"bool","internalType":"bool"}],"stateMutability":"view"},{"type":"function","name":"receiptAnchors","inputs":[{"name":"","type":"string","internalType":"string"}],"outputs":[{"name":"base","type":"tuple","internalType":"struct AnchorRegistry.AnchorBase","components":[{"name":"artifactType","type":"uint8","internalType":"enum AnchorRegistry.ArtifactType"},{"name":"manifestHash","type":"string","internalType":"string"},{"name":"parentHash","type":"string","internalType":"string"},{"name":"descriptor","type":"string","internalType":"string"}]},{"name":"receiptType","type":"string","internalType":"string"},{"name":"merchant","type":"string","internalType":"string"},{"name":"amount","type":"string","internalType":"string"},{"name":"currency","type":"string","internalType":"string"},{"name":"orderId","type":"string","internalType":"string"},{"name":"platform","type":"string","internalType":"string"},{"name":"url","type":"string","internalType":"string"}],"stateMutability":"view"},{"type":"function","name":"recoveryAddress","inputs":[],"outputs":[{"name":"","type":"address","internalType":"address"}],"stateMutability":"view"},{"type":"function","name":"recoveryInitiatedAt","inputs":[],"outputs":[{"name":"","type":"uint256","internalType":"uint256"}],"stateMutability":"view"},{"type":"function","name":"recoveryLockoutUntil","inputs":[],"outputs":[{"name":"","type":"uint256","internalType":"uint256"}],"stateMutability":"view"},{"type":"function","name":"registerAffirmed","inputs":[{"name":"arId","type":"string","internalType":"string"},{"name":"base","type":"tuple","internalType":"struct AnchorRegistry.AnchorBase","components":[{"name":"artifactType","type":"uint8","internalType":"enum AnchorRegistry.ArtifactType"},{"name":"manifestHash","type":"string","internalType":"string"},{"name":"parentHash","type":"string","internalType":"string"},{"name":"descriptor","type":"string","internalType":"string"}]},{"name":"targetArId","type":"string","internalType":"string"},{"name":"affirmedBy","type":"string","internalType":"string"},{"name":"findingUrl","type":"string","internalType":"string"}],"outputs":[],"stateMutability":"nonpayable"},{"type":"function","name":"registerAgent","inputs":[{"name":"arId","type":"string","internalType":"string"},{"name":"base","type":"tuple","internalType":"struct AnchorRegistry.AnchorBase","components":[{"name":"artifactType","type":"uint8","internalType":"enum AnchorRegistry.ArtifactType"},{"name":"manifestHash","type":"string","internalType":"string"},{"name":"parentHash","type":"string","internalType":"string"},{"name":"descriptor","type":"string","internalType":"string"}]},{"name":"agentVersion","type":"string","internalType":"string"},{"name":"runtime","type":"string","internalType":"string"},{"name":"capabilities","type":"string","internalType":"string"},{"name":"url","type":"string","internalType":"string"}],"outputs":[],"stateMutability":"nonpayable"},{"type":"function","name":"registerCode","inputs":[{"name":"arId","type":"string","internalType":"string"},{"name":"base","type":"tuple","internalType":"struct AnchorRegistry.AnchorBase","components":[{"name":"artifactType","type":"uint8","internalType":"enum AnchorRegistry.ArtifactType"},{"name":"manifestHash","type":"string","internalType":"string"},{"name":"parentHash","type":"string","internalType":"string"},{"name":"descriptor","type":"string","internalType":"string"}]},{"name":"gitHash","type":"string","internalType":"string"},{"name":"license","type":"string","internalType":"string"},{"name":"language","type":"string","internalType":"string"},{"name":"version","type":"string","internalType":"string"},{"name":"url","type":"string","internalType":"string"}],"outputs":[],"stateMutability":"nonpayable"},{"type":"function","name":"registerData","inputs":[{"name":"arId","type":"string","internalType":"string"},{"name":"base","type":"tuple","internalType":"struct AnchorRegistry.AnchorBase","components":[{"name":"artifactType","type":"uint8","internalType":"enum AnchorRegistry.ArtifactType"},{"name":"manifestHash","type":"string","internalType":"string"},{"name":"parentHash","type":"string","internalType":"string"},{"name":"descriptor","type":"string","internalType":"string"}]},{"name":"dataVersion","type":"string","internalType":"string"},{"name":"format","type":"string","internalType":"string"},{"name":"rowCount","type":"string","internalType":"string"},{"name":"schemaUrl","type":"string","internalType":"string"},{"name":"url","type":"string","internalType":"string"}],"outputs":[],"stateMutability":"nonpayable"},{"type":"function","name":"registerEntity","inputs":[{"name":"arId","type":"string","internalType":"string"},{"name":"base","type":"tuple","internalType":"struct AnchorRegistry.AnchorBase","components":[{"name":"artifactType","type":"uint8","internalType":"enum AnchorRegistry.ArtifactType"},{"name":"manifestHash","type":"string","internalType":"string"},{"name":"parentHash","type":"string","internalType":"string"},{"name":"descriptor","type":"string","internalType":"string"}]},{"name":"entityType","type":"string","internalType":"string"},{"name":"entityDomain","type":"string","internalType":"string"},{"name":"verificationMethod","type":"string","internalType":"string"},{"name":"verificationProof","type":"string","internalType":"string"},{"name":"canonicalUrl","type":"string","internalType":"string"},{"name":"documentHash","type":"string","internalType":"string"}],"outputs":[],"stateMutability":"nonpayable"},{"type":"function","name":"registerEvent","inputs":[{"name":"arId","type":"string","internalType":"string"},{"name":"base","type":"tuple","internalType":"struct AnchorRegistry.AnchorBase","components":[{"name":"artifactType","type":"uint8","internalType":"enum AnchorRegistry.ArtifactType"},{"name":"manifestHash","type":"string","internalType":"string"},{"name":"parentHash","type":"string","internalType":"string"},{"name":"descriptor","type":"string","internalType":"string"}]},{"name":"eventType","type":"string","internalType":"string"},{"name":"eventDate","type":"string","internalType":"string"},{"name":"location","type":"string","internalType":"string"},{"name":"organizer","type":"string","internalType":"string"},{"name":"url","type":"string","internalType":"string"}],"outputs":[],"stateMutability":"nonpayable"},{"type":"function","name":"registerLegal","inputs":[{"name":"arId","type":"string","internalType":"string"},{"name":"base","type":"tuple","internalType":"struct AnchorRegistry.AnchorBase","components":[{"name":"artifactType","type":"uint8","internalType":"enum AnchorRegistry.ArtifactType"},{"name":"manifestHash","type":"string","internalType":"string"},{"name":"parentHash","type":"string","internalType":"string"},{"name":"descriptor","type":"string","internalType":"string"}]},{"name":"docType","type":"string","internalType":"string"},{"name":"jurisdiction","type":"string","internalType":"string"},{"name":"parties","type":"string","internalType":"string"},{"name":"effectiveDate","type":"string","internalType":"string"},{"name":"url","type":"string","internalType":"string"}],"outputs":[],"stateMutability":"nonpayable"},{"type":"function","name":"registerMedia","inputs":[{"name":"arId","type":"string","internalType":"string"},{"name":"base","type":"tuple","internalType":"struct AnchorRegistry.AnchorBase","components":[{"name":"artifactType","type":"uint8","internalType":"enum AnchorRegistry.ArtifactType"},{"name":"manifestHash","type":"string","internalType":"string"},{"name":"parentHash","type":"string","internalType":"string"},{"name":"descriptor","type":"string","internalType":"string"}]},{"name":"mediaType","type":"string","internalType":"string"},{"name":"format","type":"string","internalType":"string"},{"name":"duration","type":"string","internalType":"string"},{"name":"isrc","type":"string","internalType":"string"},{"name":"url","type":"string","internalType":"string"}],"outputs":[],"stateMutability":"nonpayable"},{"type":"function","name":"registerModel","inputs":[{"name":"arId","type":"string","internalType":"string"},{"name":"base","type":"tuple","internalType":"struct AnchorRegistry.AnchorBase","components":[{"name":"artifactType","type":"uint8","internalType":"enum AnchorRegistry.ArtifactType"},{"name":"manifestHash","type":"string","internalType":"string"},{"name":"parentHash","type":"string","internalType":"string"},{"name":"descriptor","type":"string","internalType":"string"}]},{"name":"modelVersion","type":"string","internalType":"string"},{"name":"architecture","type":"string","internalType":"string"},{"name":"parameters","type":"string","internalType":"string"},{"name":"trainingDataset","type":"string","internalType":"string"},{"name":"url","type":"string","internalType":"string"}],"outputs":[],"stateMutability":"nonpayable"},{"type":"function","name":"registerOnChain","inputs":[{"name":"arId","type":"string","internalType":"string"},{"name":"base","type":"tuple","internalType":"struct AnchorRegistry.AnchorBase","components":[{"name":"artifactType","type":"uint8","internalType":"enum AnchorRegistry.ArtifactType"},{"name":"manifestHash","type":"string","internalType":"string"},{"name":"parentHash","type":"string","internalType":"string"},{"name":"descriptor","type":"string","internalType":"string"}]},{"name":"chainId","type":"string","internalType":"string"},{"name":"assetType","type":"string","internalType":"string"},{"name":"contractAddress","type":"string","internalType":"string"},{"name":"txHash","type":"string","internalType":"string"},{"name":"tokenId","type":"string","internalType":"string"},{"name":"blockNumber","type":"string","internalType":"string"},{"name":"url","type":"string","internalType":"string"}],"outputs":[],"stateMutability":"nonpayable"},{"type":"function","name":"registerOther","inputs":[{"name":"arId","type":"string","internalType":"string"},{"name":"base","type":"tuple","internalType":"struct AnchorRegistry.AnchorBase","components":[{"name":"artifactType","type":"uint8","internalType":"enum AnchorRegistry.ArtifactType"},{"name":"manifestHash","type":"string","internalType":"string"},{"name":"parentHash","type":"string","internalType":"string"},{"name":"descriptor","type":"string","internalType":"string"}]},{"name":"kind","type":"string","internalType":"string"},{"name":"platform","type":"string","internalType":"string"},{"name":"url","type":"string","internalType":"string"},{"name":"value","type":"string","internalType":"string"}],"outputs":[],"stateMutability":"nonpayable"},{"type":"function","name":"registerPost","inputs":[{"name":"arId","type":"string","internalType":"string"},{"name":"base","type":"tuple","internalType":"struct AnchorRegistry.AnchorBase","components":[{"name":"artifactType","type":"uint8","internalType":"enum AnchorRegistry.ArtifactType"},{"name":"manifestHash","type":"string","internalType":"string"},{"name":"parentHash","type":"string","internalType":"string"},{"name":"descriptor","type":"string","internalType":"string"}]},{"name":"platform","type":"string","internalType":"string"},{"name":"postId","type":"string","internalType":"string"},{"name":"postDate","type":"string","internalType":"string"},{"name":"url","type":"string","internalType":"string"}],"outputs":[],"stateMutability":"nonpayable"},{"type":"function","name":"registerProof","inputs":[{"name":"arId","type":"string","internalType":"string"},{"name":"base","type":"tuple","internalType":"struct AnchorRegistry.AnchorBase","components":[{"name":"artifactType","type":"uint8","internalType":"enum AnchorRegistry.ArtifactType"},{"name":"manifestHash","type":"string","internalType":"string"},{"name":"parentHash","type":"string","internalType":"string"},{"name":"descriptor","type":"string","internalType":"string"}]},{"name":"proofType","type":"string","internalType":"string"},{"name":"proofSystem","type":"string","internalType":"string"},{"name":"circuitId","type":"string","internalType":"string"},{"name":"vkeyHash","type":"string","internalType":"string"},{"name":"auditFirm","type":"string","internalType":"string"},{"name":"auditScope","type":"string","internalType":"string"},{"name":"verifierUrl","type":"string","internalType":"string"},{"name":"reportUrl","type":"string","internalType":"string"},{"name":"proofHash","type":"string","internalType":"string"}],"outputs":[],"stateMutability":"nonpayable"},{"type":"function","name":"registerReceipt","inputs":[{"name":"arId","type":"string","internalType":"string"},{"name":"base","type":"tuple","internalType":"struct AnchorRegistry.AnchorBase","components":[{"name":"artifactType","type":"uint8","internalType":"enum AnchorRegistry.ArtifactType"},{"name":"manifestHash","type":"string","internalType":"string"},{"name":"parentHash","type":"string","internalType":"string"},{"name":"descriptor","type":"string","internalType":"string"}]},{"name":"receiptType","type":"string","internalType":"string"},{"name":"merchant","type":"string","internalType":"string"},{"name":"amount","type":"string","internalType":"string"},{"name":"currency","type":"string","internalType":"string"},{"name":"orderId","type":"string","internalType":"string"},{"name":"platform","type":"string","internalType":"string"},{"name":"url","type":"string","internalType":"string"}],"outputs":[],"stateMutability":"nonpayable"},{"type":"function","name":"registerResearch","inputs":[{"name":"arId","type":"string","internalType":"string"},{"name":"base","type":"tuple","internalType":"struct AnchorRegistry.AnchorBase","components":[{"name":"artifactType","type":"uint8","internalType":"enum AnchorRegistry.ArtifactType"},{"name":"manifestHash","type":"string","internalType":"string"},{"name":"parentHash","type":"string","internalType":"string"},{"name":"descriptor","type":"string","internalType":"string"}]},{"name":"doi","type":"string","internalType":"string"},{"name":"institution","type":"string","internalType":"string"},{"name":"coAuthors","type":"string","internalType":"string"},{"name":"url","type":"string","internalType":"string"}],"outputs":[],"stateMutability":"nonpayable"},{"type":"function","name":"registerRetraction","inputs":[{"name":"arId","type":"string","internalType":"string"},{"name":"base","type":"tuple","internalType":"struct AnchorRegistry.AnchorBase","components":[{"name":"artifactType","type":"uint8","internalType":"enum AnchorRegistry.ArtifactType"},{"name":"manifestHash","type":"string","internalType":"string"},{"name":"parentHash","type":"string","internalType":"string"},{"name":"descriptor","type":"string","internalType":"string"}]},{"name":"targetArId","type":"string","internalType":"string"},{"name":"reason","type":"string","internalType":"string"},{"name":"replacedBy","type":"string","internalType":"string"}],"outputs":[],"stateMutability":"nonpayable"},{"type":"function","name":"registerReview","inputs":[{"name":"arId","type":"string","internalType":"string"},{"name":"base","type":"tuple","internalType":"struct AnchorRegistry.AnchorBase","components":[{"name":"artifactType","type":"uint8","internalType":"enum AnchorRegistry.ArtifactType"},{"name":"manifestHash","type":"string","internalType":"string"},{"name":"parentHash","type":"string","internalType":"string"},{"name":"descriptor","type":"string","internalType":"string"}]},{"name":"targetArId","type":"string","internalType":"string"},{"name":"reviewType","type":"string","internalType":"string"},{"name":"evidenceUrl","type":"string","internalType":"string"}],"outputs":[],"stateMutability":"nonpayable"},{"type":"function","name":"registerText","inputs":[{"name":"arId","type":"string","internalType":"string"},{"name":"base","type":"tuple","internalType":"struct AnchorRegistry.AnchorBase","components":[{"name":"artifactType","type":"uint8","internalType":"enum AnchorRegistry.ArtifactType"},{"name":"manifestHash","type":"string","internalType":"string"},{"name":"parentHash","type":"string","internalType":"string"},{"name":"descriptor","type":"string","internalType":"string"}]},{"name":"isbn","type":"string","internalType":"string"},{"name":"publisher","type":"string","internalType":"string"},{"name":"language","type":"string","internalType":"string"},{"name":"url","type":"string","internalType":"string"}],"outputs":[],"stateMutability":"nonpayable"},{"type":"function","name":"registerVoid","inputs":[{"name":"arId","type":"string","internalType":"string"},{"name":"base","type":"tuple","internalType":"struct AnchorRegistry.AnchorBase","components":[{"name":"artifactType","type":"uint8","internalType":"enum AnchorRegistry.ArtifactType"},{"name":"manifestHash","type":"string","internalType":"string"},{"name":"parentHash","type":"string","internalType":"string"},{"name":"descriptor","type":"string","internalType":"string"}]},{"name":"targetArId","type":"string","internalType":"string"},{"name":"reviewArId","type":"string","internalType":"string"},{"name":"findingUrl","type":"string","internalType":"string"},{"name":"evidence","type":"string","internalType":"string"}],"outputs":[],"stateMutability":"nonpayable"},{"type":"function","name":"registered","inputs":[{"name":"","type":"string","internalType":"string"}],"outputs":[{"name":"","type":"bool","internalType":"bool"}],"stateMutability":"view"},{"type":"function","name":"removeEntityOperator","inputs":[{"name":"op","type":"address","internalType":"address"}],"outputs":[],"stateMutability":"nonpayable"},{"type":"function","name":"removeLegalOperator","inputs":[{"name":"op","type":"address","internalType":"address"}],"outputs":[],"stateMutability":"nonpayable"},{"type":"function","name":"removeOperator","inputs":[{"name":"op","type":"address","internalType":"address"}],"outputs":[],"stateMutability":"nonpayable"},{"type":"function","name":"removeProofOperator","inputs":[{"name":"op","type":"address","internalType":"address"}],"outputs":[],"stateMutability":"nonpayable"},{"type":"function","name":"researchAnchors","inputs":[{"name":"","type":"string","internalType":"string"}],"outputs":[{"name":"base","type":"tuple","internalType":"struct AnchorRegistry.AnchorBase","components":[{"name":"artifactType","type":"uint8","internalType":"enum AnchorRegistry.ArtifactType"},{"name":"manifestHash","type":"string","internalType":"string"},{"name":"parentHash","type":"string","internalType":"string"},{"name":"descriptor","type":"string","internalType":"string"}]},{"name":"doi","type":"string","internalType":"string"},{"name":"institution","type":"string","internalType":"string"},{"name":"coAuthors","type":"string","internalType":"string"},{"name":"url","type":"string","internalType":"string"}],"stateMutability":"view"},{"type":"function","name":"retractionAnchors","inputs":[{"name":"","type":"string","internalType":"string"}],"outputs":[{"name":"base","type":"tuple","internalType":"struct AnchorRegistry.AnchorBase","components":[{"name":"artifactType","type":"uint8","internalType":"enum AnchorRegistry.ArtifactType"},{"name":"manifestHash","type":"string","internalType":"string"},{"name":"parentHash","type":"string","internalType":"string"},{"name":"descriptor","type":"string","internalType":"string"}]},{"name":"targetArId","type":"string","internalType":"string"},{"name":"reason","type":"string","internalType":"string"},{"name":"replacedBy","type":"string","internalType":"string"}],"stateMutability":"view"},{"type":"function","name":"reviewAnchors","inputs":[{"name":"","type":"string","internalType":"string"}],"outputs":[{"name":"base","type":"tuple","internalType":"struct AnchorRegistry.AnchorBase","components":[{"name":"artifactType","type":"uint8","internalType":"enum AnchorRegistry.ArtifactType"},{"name":"manifestHash","type":"string","internalType":"string"},{"name":"parentHash","type":"string","internalType":"string"},{"name":"descriptor","type":"string","internalType":"string"}]},{"name":"targetArId","type":"string","internalType":"string"},{"name":"reviewType","type":"string","internalType":"string"},{"name":"evidenceUrl","type":"string","internalType":"string"}],"stateMutability":"view"},{"type":"function","name":"setRecoveryAddress","inputs":[{"name":"_newRecovery","type":"address","internalType":"address"}],"outputs":[],"stateMutability":"nonpayable"},{"type":"function","name":"textAnchors","inputs":[{"name":"","type":"string","internalType":"string"}],"outputs":[{"name":"base","type":"tuple","internalType":"struct AnchorRegistry.AnchorBase","components":[{"name":"artifactType","type":"uint8","internalType":"enum AnchorRegistry.ArtifactType"},{"name":"manifestHash","type":"string","internalType":"string"},{"name":"parentHash","type":"string","internalType":"string"},{"name":"descriptor","type":"string","internalType":"string"}]},{"name":"isbn","type":"string","internalType":"string"},{"name":"publisher","type":"string","internalType":"string"},{"name":"language","type":"string","internalType":"string"},{"name":"url","type":"string","internalType":"string"}],"stateMutability":"view"},{"type":"function","name":"transferOwnership","inputs":[{"name":"newOwner","type":"address","internalType":"address"}],"outputs":[],"stateMutability":"nonpayable"},{"type":"function","name":"voidAnchors","inputs":[{"name":"","type":"string","internalType":"string"}],"outputs":[{"name":"base","type":"tuple","internalType":"struct AnchorRegistry.AnchorBase","components":[{"name":"artifactType","type":"uint8","internalType":"enum AnchorRegistry.ArtifactType"},{"name":"manifestHash","type":"string","internalType":"string"},{"name":"parentHash","type":"string","internalType":"string"},{"name":"descriptor","type":"string","internalType":"string"}]},{"name":"targetArId","type":"string","internalType":"string"},{"name":"reviewArId","type":"string","internalType":"string"},{"name":"findingUrl","type":"string","internalType":"string"},{"name":"evidence","type":"string","internalType":"string"}],"stateMutability":"view"},{"type":"event","name":"Affirmed","inputs":[{"name":"arId","type":"string","indexed":true,"internalType":"string"},{"name":"targetArId","type":"string","indexed":true,"internalType":"string"},{"name":"affirmedBy","type":"string","indexed":false,"internalType":"string"}],"anonymous":false},{"type":"event","name":"Anchored","inputs":[{"name":"arId","type":"string","indexed":true,"internalType":"string"},{"name":"registrant","type":"address","indexed":true,"internalType":"address"},{"name":"artifactType","type":"uint8","indexed":false,"internalType":"enum AnchorRegistry.ArtifactType"},{"name":"descriptor","type":"string","indexed":false,"internalType":"string"},{"name":"manifestHash","type":"string","indexed":false,"internalType":"string"},{"name":"parentHash","type":"string","indexed":false,"internalType":"string"}],"anonymous":false},{"type":"event","name":"EntityOperatorAdded","inputs":[{"name":"operator","type":"address","indexed":true,"internalType":"address"}],"anonymous":false},{"type":"event","name":"EntityOperatorRemoved","inputs":[{"name":"operator","type":"address","indexed":true,"internalType":"address"}],"anonymous":false},{"type":"event","name":"LegalOperatorAdded","inputs":[{"name":"operator","type":"address","indexed":true,"internalType":"address"}],"anonymous":false},{"type":"event","name":"LegalOperatorRemoved","inputs":[{"name":"operator","type":"address","indexed":true,"internalType":"address"}],"anonymous":false},{"type":"event","name":"OperatorAdded","inputs":[{"name":"operator","type":"address","indexed":true,"internalType":"address"}],"anonymous":false},{"type":"event","name":"OperatorRemoved","inputs":[{"name":"operator","type":"address","indexed":true,"internalType":"address"}],"anonymous":false},{"type":"event","name":"OwnershipTransferred","inputs":[{"name":"previousOwner","type":"address","indexed":true,"internalType":"address"},{"name":"newOwner","type":"address","indexed":true,"internalType":"address"}],"anonymous":false},{"type":"event","name":"ProofOperatorAdded","inputs":[{"name":"operator","type":"address","indexed":true,"internalType":"address"}],"anonymous":false},{"type":"event","name":"ProofOperatorRemoved","inputs":[{"name":"operator","type":"address","indexed":true,"internalType":"address"}],"anonymous":false},{"type":"event","name":"RecoveryAddressUpdated","inputs":[{"name":"newRecoveryAddress","type":"address","indexed":true,"internalType":"address"}],"anonymous":false},{"type":"event","name":"RecoveryCancelled","inputs":[],"anonymous":false},{"type":"event","name":"RecoveryExecuted","inputs":[{"name":"newOwner","type":"address","indexed":true,"internalType":"address"}],"anonymous":false},{"type":"event","name":"RecoveryInitiated","inputs":[{"name":"recoveryAddress","type":"address","indexed":true,"internalType":"address"},{"name":"pendingOwner","type":"address","indexed":true,"internalType":"address"}],"anonymous":false},{"type":"event","name":"Retracted","inputs":[{"name":"arId","type":"string","indexed":true,"internalType":"string"},{"name":"targetArId","type":"string","indexed":true,"internalType":"string"},{"name":"replacedBy","type":"string","indexed":false,"internalType":"string"}],"anonymous":false},{"type":"event","name":"Reviewed","inputs":[{"name":"arId","type":"string","indexed":true,"internalType":"string"},{"name":"targetArId","type":"string","indexed":true,"internalType":"string"},{"name":"reviewType","type":"string","indexed":false,"internalType":"string"},{"name":"evidenceUrl","type":"string","indexed":false,"internalType":"string"}],"anonymous":false},{"type":"event","name":"Voided","inputs":[{"name":"arId","type":"string","indexed":true,"internalType":"string"},{"name":"targetArId","type":"string","indexed":true,"internalType":"string"},{"name":"reviewArId","type":"string","indexed":true,"internalType":"string"},{"name":"evidence","type":"string","indexed":false,"internalType":"string"}],"anonymous":false},{"type":"error","name":"AlreadyRegistered","inputs":[{"name":"arId","type":"string","internalType":"string"}]},{"type":"error","name":"EmptyArId","inputs":[]},{"type":"error","name":"EmptyManifestHash","inputs":[]},{"type":"error","name":"EmptyTargetArId","inputs":[]},{"type":"error","name":"InvalidParent","inputs":[{"name":"parentHash","type":"string","internalType":"string"}]},{"type":"error","name":"InvalidTarget","inputs":[{"name":"targetArId","type":"string","internalType":"string"}]},{"type":"error","name":"NotEntityOperator","inputs":[]},{"type":"error","name":"NotLegalOperator","inputs":[]},{"type":"error","name":"NotOperator","inputs":[]},{"type":"error","name":"NotOwner","inputs":[]},{"type":"error","name":"NotProofOperator","inputs":[]},{"type":"error","name":"NotRecoveryAddress","inputs":[]},{"type":"error","name":"RecoveryDelayNotMet","inputs":[]},{"type":"error","name":"RecoveryLockedOut","inputs":[]},{"type":"error","name":"RecoveryNotInitiated","inputs":[]},{"type":"error","name":"ZeroAddress","inputs":[]}],"bytecode":{"object":"0x608034620000bd57601f62006aa338819003918201601f19168301916001600160401b03831184841017620000c157808492602094604052833981010312620000bd57516001600160a01b03811690819003620000bd578015620000ab5760018060a01b031933815f5416175f556001541617600155604051335f7f8be0079c531659141344cd1fd0a4f28419497f9722a3daafe3b4186f6b6457e08180a36169cd9081620000d68239f35b60405163d92e233d60e01b8152600490fd5b5f80fd5b634e487b7160e01b5f52604160045260245ffdfe610280806040526004361015610013575f80fd5b5f3560e01c908162712e1914613def575080630ba234d614613d8357806310b9dcbd14613cc1578063132171b014613b4157806313e7c9d814613b00578063144888ff14613ab8578063165d33fe14613a7057806316aca54614613a285780631cb655e7146139e05780631f3618bf146138c457806320727381146138a757806320c5a3e1146137d0578063397c9a3a1461375d578063402cef1b1461371c578063407f22d81461365a57806345f65cfa146135e757806347b45652146134c757806347be22fa146135ca57806347deec0d1461358257806349efe5ae14613514578063517f4dcf146134cc578063561ea99c146134c7578063573701f71461347f5780635a355e6d146133bd5780635bd47e10146133755780635d064b3a1461332d5780635d2d5c37146132df5780636ae0dd9c1461329e5780636b6797c91461322b5780636ba60e71146131c15780636fe98d1014613090578063710eb26c14613068578063717d1a8514613020578063762d408d14612fd85780637b207ae614612f2b5780637d15e15d14612eb5578063876c88dd14612df35780638a0d436f14612dab5780638d17b4eb14612c7a5780638da5cb5b14612c535780638f8f5ccb14612bdc57806396ad272d14612b945780639870d7fe14612b21578063a93e124814612a4d578063ac8a584a146129e3578063b643fcb314612979578063b91ef08414612938578063b9988922146127fc578063bdd5a5821461274d578063bfa5cb9d146116d4578063c6bea7ab1461165d578063cc087c4814611592578063d58817e614611481578063d5ce9aad146113e0578063ddf841a914611376578063e0ac87b9146112ec578063e30c3978146112c4578063e4cc22a11461124d578063e600a0a01461113d578063ecc8d0fc14611090578063edf1677b14610422578063ee808008146103545763f2fde38b146102d1575f80fd5b34610350576020366003190112610350576004356001600160a01b0381811691829003610350575f5490811680330361033e57821561032c5782905f805160206169788339815191525f80a36001600160a01b031916175f55005b60405163d92e233d60e01b8152600490fd5b6040516330cd747160e01b8152600490fd5b5f80fd5b346103505761036236613ea8565b919996959092989798335f52600260205260ff60405f205416156104105761040e9a6103d26103b6976103ea976103c66104099b8f978f8f996103ac816103bd936103de9d616739565b6040519e8f614023565b369061463c565b8d5236916140b3565b60208b015236916140b3565b604088015236916140b3565b606085015236916140b3565b608082015260405184848237602081868101600d8152030190206146c0565b61683a565b005b604051631f0853c160e21b8152600490fd5b346103505760031961010036820112610350576004356001600160401b03811161035057610454903690600401613e7b565b602435926001600160401b038411610350576080908436030112610350576044356001600160401b03811161035057610491903690600401613e7b565b6064356001600160401b038111610350576104b0903690600401613e7b565b9092906084356001600160401b038111610350576104d2903690600401613e7b565b93909260a4356001600160401b038111610350576104f4903690600401613e7b565b91906001600160401b0360c43511610350576105153660c435600401613e7b565b909490939060e4356001600160401b03811161035057610539903690600401613e7b565b989099335f52600460205260ff60405f2054161561107e576105628f8f908f9060040191616739565b604051608081905260e081019081106001600160401b03821117610a31578f9c6105ec9a6105b56105fa9f996105d1976105aa6105df9c6105c397604052369060040161463c565b6080515236916140b3565b6020608051015236916140b3565b6040608051015236916140b3565b6060608051015236916140b3565b60808051015236916140b3565b60a0608051015236916140b3565b60c06080510152604051818382376020818381016015815203019020608051518051601381101561106a5760ff80198454169116178255602081015180519060018060401b038211610a315781906106556001860154614137565b601f8111611017575b50602090601f8311600114610fa9575f92610f9e575b50508160011b915f199060031b1c19161760018301555b60408101518051906001600160401b038211610a31576106ae6002850154614137565b601f8111610f56575b50602090601f8311600114610ee75760609392915f9183610edc575b50508160011b915f199060031b1c19161760028401555b01518051906001600160401b038211610a3157819061070c6003850154614137565b601f8111610e8c575b50602090601f8311600114610e1e575f92610e13575b50508160011b915f199060031b1c19161760038201555b608051602001518051906001600160401b038211610a315781906107696004850154614137565b601f8111610dc0575b50602090601f8311600114610d52575f92610d47575b50508160011b915f199060031b1c19161760048201555b608051604001518051906001600160401b038211610a315781906107c66005850154614137565b601f8111610cf4575b50602090601f8311600114610c86575f92610c7b575b50508160011b915f199060031b1c19161760058201555b60805160600151805160068301916001600160401b038211610a315781906108248454614137565b601f8111610c2b575b50602090601f8311600114610bc7575f92610bbc575b50508160011b915f199060031b1c19161790555b608080510151805160078301916001600160401b038211610a3157819061087e8454614137565b601f8111610b6c575b50602090601f8311600114610b08575f92610afd575b50508160011b915f199060031b1c19161790555b60805160a00151805160088301916001600160401b038211610a31576108d78354614137565b601f8111610ab8575b50602090601f8311600114610a50576009949392915f9183610a45575b50508160011b915f199060031b1c19161790555b60805160c0015180519592909101906001600160401b038611610a31576109388254614137565b601f81116109ec575b50602090601f87116001146109855761040e96915f918361097a575b50508160011b915f199060031b1c19161790555b6004019161683a565b01519050878061095d565b90601f19871691835f5260205f20925f5b8181106109d4575091600193918961040e9a94106109bc575b505050811b019055610971565b01515f1960f88460031b161c191690558780806109af565b92936020600181928786015181550195019301610996565b825f5260205f20601f880160051c81019160208910610a27575b601f0160051c01905b818110610a1c5750610941565b5f8155600101610a0f565b9091508190610a06565b634e487b7160e01b5f52604160045260245ffd5b0151905088806108fd565b90601f19831691845f5260205f20925f5b818110610aa0575091600193918560099897969410610a88575b505050811b019055610911565b01515f1960f88460031b161c19169055888080610a7b565b92936020600181928786015181550195019301610a61565b835f5260205f20601f840160051c81019160208510610af3575b601f0160051c01905b818110610ae857506108e0565b5f8155600101610adb565b9091508190610ad2565b01519050878061089d565b5f858152602081209350601f198516905b818110610b545750908460019594939210610b3c575b505050811b0190556108b1565b01515f1960f88460031b161c19169055878080610b2f565b92936020600181928786015181550195019301610b19565b909150835f5260205f20601f840160051c81019160208510610bb2575b90601f859493920160051c01905b818110610ba45750610887565b5f8155849350600101610b97565b9091508190610b89565b015190508780610843565b5f858152602081209350601f198516905b818110610c135750908460019594939210610bfb575b505050811b019055610857565b01515f1960f88460031b161c19169055878080610bee565b92936020600181928786015181550195019301610bd8565b909150835f5260205f20601f840160051c81019160208510610c71575b90601f859493920160051c01905b818110610c63575061082d565b5f8155849350600101610c56565b9091508190610c48565b0151905086806107e5565b9250600584015f5260205f20905f935b601f1984168510610cd9576001945083601f19811610610cc1575b505050811b0160058201556107fc565b01515f1960f88460031b161c19169055868080610cb1565b81810151835560209485019460019093019290910190610c96565b909150600584015f5260205f20601f840160051c81019160208510610d3d575b90601f859493920160051c01905b818110610d2f57506107cf565b5f8155849350600101610d22565b9091508190610d14565b015190508680610788565b9250600484015f5260205f20905f935b601f1984168510610da5576001945083601f19811610610d8d575b505050811b01600482015561079f565b01515f1960f88460031b161c19169055868080610d7d565b81810151835560209485019460019093019290910190610d62565b909150600484015f5260205f20601f840160051c81019160208510610e09575b90601f859493920160051c01905b818110610dfb5750610772565b5f8155849350600101610dee565b9091508190610de0565b01519050868061072b565b9250600384015f5260205f20905f935b601f1984168510610e71576001945083601f19811610610e59575b505050811b016003820155610742565b01515f1960f88460031b161c19169055868080610e49565b81810151835560209485019460019093019290910190610e2e565b909150600384015f5260205f20601f840160051c810160208510610ed5575b90849392915b601f830160051c82018110610ec7575050610715565b5f8155859450600101610eb1565b5080610eab565b0151905088806106d3565b90600285015f5260205f20915f5b601f1985168110610f3e575091839160019360609695601f19811610610f26575b505050811b0160028401556106ea565b01515f1960f88460031b161c19169055888080610f16565b91926020600181928685015181550194019201610ef5565b600285015f5260205f20601f840160051c81019160208510610f94575b601f0160051c01905b818110610f8957506106b7565b5f8155600101610f7c565b9091508190610f73565b015190508780610674565b9250600185015f5260205f20905f935b601f1984168510610ffc576001945083601f19811610610fe4575b505050811b01600183015561068b565b01515f1960f88460031b161c19169055878080610fd4565b81810151835560209485019460019093019290910190610fb9565b909150600185015f5260205f20601f840160051c81019160208510611060575b90601f859493920160051c01905b818110611052575061065e565b5f8155849350600101611045565b9091508190611037565b634e487b7160e01b5f52602160045260245ffd5b60405163ebee8ba760e01b8152600490fd5b34610350576020366003190112610350576004356001600160401b0381116103505760206110c56110d89236906004016140f8565b8160405193828580945193849201614116565b810160148152030190206110eb81614211565b6111396110fa6004840161416f565b926111076005820161416f565b906111146006820161416f565b61112c60086111256007850161416f565b930161416f565b9260405196879687614344565b0390f35b34610350576020366003190112610350576004356001600160401b0381116103505760206110c56111729236906004016140f8565b8101601581520301902060e061113961118a83614211565b9261123f61119a6004830161416f565b916112316111aa6005830161416f565b6112236111b96006850161416f565b6112156111c86007870161416f565b936112076111e460096111dd60088b0161416f565b990161416f565b996111f96040519e8f9e8f8181520190614299565b8d810360208f015290614274565b908b820360408d0152614274565b9089820360608b0152614274565b908782036080890152614274565b9085820360a0870152614274565b9083820360c0850152614274565b346103505761125b36613ea8565b919996959092989798335f52600260205260ff60405f205416156104105761040e9a6103d26103b6976112a5976103c66104099b8f978f8f996103ac816103bd936103de9d616739565b608082015260405184848237602081868101601b8152030190206146c0565b34610350575f366003190112610350576008546040516001600160a01b039091168152602090f35b34610350576020366003190112610350576004356001600160401b0381116103505760206110c56113219236906004016140f8565b8101601981520301902061133481614211565b6111396113436004840161416f565b926113506005820161416f565b9061136960076113626006840161416f565b920161416f565b91604051958695866142e9565b34610350576020366003190112610350576004356001600160a01b0381811691829003610350575f5416330361033e57805f52600460205260405f2060ff1981541690557fb3995d3ad0a4cb17193137b6b470c2eda6bbf6d63f3d135f197fc4cdeedc27905f80a2005b34610350576020366003190112610350576004356001600160a01b0381811691829003610350576001541680330361146f57811561032c57600754421061145d57600880546001600160a01b03191683179055426006557fe7eb1bf44bc7e6084d5d89f19e76a2b46fed60ff3eb9e650f3db79a386391c615f80a3005b6040516333ca6ceb60e21b8152600490fd5b6040516320a6214d60e21b8152600490fd5b346103505761148f366143b1565b97919094969295335f52600260205260ff60405f205416156104105761154b6115529261151c7faf0c98c5c4879ef897a044cdac758c7bd233c9d4ac8cdbb360f44280e7b0047d996114e2858989616739565b6114ec898d616918565b604051926114f984614059565b611503368761463c565b8452611510368b8f6140b3565b602085015236916140b3565b604082015261152c368c8a6140b3565b606082015260405186868237602081888101601781520301902061567a565b838361683a565b81604051928392833781015f81520390209381604051928392833781015f81520390209361158d604051928392602084526020840191615c96565b0390a3005b34610350576115a036613f5a565b9691949392959097989a999a335f52600260205260ff60405f20541615610410576115cc8c8c8f616739565b604051996115d98b61403e565b6115e3368e61463c565b8b5236906115f0926140b3565b60208a01523690611600926140b3565b60408801523690611610926140b3565b60608601523690611620926140b3565b60808401523690611630926140b3565b60a08201526040518285823780838101600b81520360200190209061165491614e04565b61040e9261683a565b346103505761166b36613ea8565b919996959092989798335f52600260205260ff60405f205416156104105761040e9a6103d26103b6976116b5976103c66104099b8f978f8f996103ac816103bd936103de9d616739565b608082015260405184848237602081868101600f8152030190206146c0565b346103505760031961016036820112610350576004356001600160401b03811161035057611706903690600401613e7b565b610180526101a0526024356101608190526001600160401b0310610350576080906101605136030112610350576044356001600160401b03811161035057611752903690600401613e7b565b906064356001600160401b03811161035057611772903690600401613e7b565b6084356001600160401b03811161035057611791903690600401613e7b565b610140919091529160a4356001600160401b038111610350576117b8903690600401613e7b565b61010091909152936001600160401b0360c43511610350576117df3660c435600401613e7b565b9260e4356001600160401b038111610350576117ff903690600401613e7b565b90929091906001600160401b036101043511610350576118253661010435600401613e7b565b9097909690610124356001600160401b0381116103505761184a903690600401613e7b565b60a0919091529a610144356001600160401b03811161035057611871903690600401613e7b565b6101205260e052335f52600560205260ff60405f2054161561273b576118a461016051600401610180516101a051616739565b60405160c08190526001600160401b036101408201908111911117610a31576119266119619b6119146119729f97611938956119066119549d6119469b61014060c051016040526118fb366101605160040161463c565b60c0515236916140b3565b602060c051015236916140b3565b604060c05101523690610140516140b3565b606060c05101523690610100516140b3565b608060c051015236916140b3565b60a060c051015236916140b3565b60c08051015236916140b3565b60e060c0510152369060a0516140b3565b61010060c051015261198a366101205160e0516140b3565b61012060c0510152604051610180516101a0518237602081610180518101601681520301902060c05151908151601381101561106a5760ff80198354169116178155602082015191825160018060401b038111610a31576119ee6001840154614137565b601f81116126f7575b506020601f821160011461268d57819293945f92612682575b50508160011b915f199060031b1c19161760018301555b60408101518051906001600160401b038211610a3157611a4a6002850154614137565b601f811161263e575b50602090601f83116001146125cf5760609392915f91836125c4575b50508160011b915f199060031b1c19161760028401555b01518051906001600160401b038211610a31578190611aa86003850154614137565b601f8111612574575b50602090601f8311600114612506575f926124fb575b50508160011b915f199060031b1c19161760038201555b60c051602001518051906001600160401b038211610a31578190611b056004850154614137565b601f81116124ab575b50602090601f831160011461243d575f92612432575b50508160011b915f199060031b1c19161760048201555b60c051604001518051906001600160401b038211610a31578190611b626005850154614137565b601f81116123e2575b50602090601f8311600114612374575f92612369575b50508160011b915f199060031b1c19161760058201555b60c051606001518051906001600160401b038211610a31578190611bbf6006850154614137565b601f8111612319575b50602090601f83116001146122ab575f926122a0575b50508160011b915f199060031b1c19161760068201555b60c051608001518051906001600160401b038211610a31578190611c1c6007850154614137565b601f811161224d575b50602090601f83116001146121df575f926121d4575b50508160011b915f199060031b1c19161760078201555b60c05160a001518051906001600160401b038211610a31578190611c796008850154614137565b601f8111612181575b50602090601f8311600114612113575f92612108575b50508160011b915f199060031b1c19161760088201555b60c080510151805190919060098201906001600160401b038111610a3157611cd78254614137565b601f81116120c3575b506020601f821160011461206157819293945f92612056575b50508160011b915f199060031b1c19161790555b60c05160e001518051909190600a8201906001600160401b038111610a3157611d368254614137565b601f8111612011575b506020601f8211600114611faf57819293945f92611fa4575b50508160011b915f199060031b1c19161790555b60c051610100015180519190600b8201906001600160401b038411610a3157611d958254614137565b601f8111611f5f575b50602090601f8511600114611ef957600c94915f9183611eee575b50508160011b915f199060031b1c19161790555b0161012060c051015190815160018060401b038111610a3157611df08254614137565b601f8111611ea9575b50602092601f8211600114611e4957928192935f92611e3e575b50508160011b915f199060031b1c19161790555b61040e61016051600401610180516101a05161683a565b015190508380611e13565b601f19821693835f5260205f20915f5b868110611e915750836001959610611e79575b505050811b019055611e27565b01515f1960f88460031b161c19169055838080611e6c565b91926020600181928685015181550194019201611e59565b825f5260205f20601f830160051c81019160208410611ee4575b601f0160051c01905b818110611ed95750611df9565b5f8155600101611ecc565b9091508190611ec3565b015190508580611db9565b90601f19851691835f5260205f20925f5b818110611f475750916001939187600c989410611f2f575b505050811b019055611dcd565b01515f1960f88460031b161c19169055858080611f22565b92936020600181928786015181550195019301611f0a565b825f5260205f20601f860160051c81019160208710611f9a575b601f0160051c01905b818110611f8f5750611d9e565b5f8155600101611f82565b9091508190611f79565b015190508480611d58565b601f19821690835f5260205f20915f5b818110611ff957509583600195969710611fe1575b505050811b019055611d6c565b01515f1960f88460031b161c19169055848080611fd4565b9192602060018192868b015181550194019201611fbf565b825f5260205f20601f830160051c8101916020841061204c575b601f0160051c01905b8181106120415750611d3f565b5f8155600101612034565b909150819061202b565b015190508480611cf9565b601f19821690835f5260205f20915f5b8181106120ab57509583600195969710612093575b505050811b019055611d0d565b01515f1960f88460031b161c19169055848080612086565b9192602060018192868b015181550194019201612071565b825f5260205f20601f830160051c810191602084106120fe575b601f0160051c01905b8181106120f35750611ce0565b5f81556001016120e6565b90915081906120dd565b015190508380611c98565b9250600884015f5260205f20905f935b601f1984168510612166576001945083601f1981161061214e575b505050811b016008820155611caf565b01515f1960f88460031b161c1916905583808061213e565b81810151835560209485019460019093019290910190612123565b909150600884015f5260205f20601f840160051c810191602085106121ca575b90601f859493920160051c01905b8181106121bc5750611c82565b5f81558493506001016121af565b90915081906121a1565b015190508380611c3b565b9250600784015f5260205f20905f935b601f1984168510612232576001945083601f1981161061221a575b505050811b016007820155611c52565b01515f1960f88460031b161c1916905583808061220a565b818101518355602094850194600190930192909101906121ef565b909150600784015f5260205f20601f840160051c81019160208510612296575b90601f859493920160051c01905b8181106122885750611c25565b5f815584935060010161227b565b909150819061226d565b015190508380611bde565b9250600684015f5260205f20905f935b601f19841685106122fe576001945083601f198116106122e6575b505050811b016006820155611bf5565b01515f1960f88460031b161c191690558380806122d6565b818101518355602094850194600190930192909101906122bb565b909150600684015f5260205f20601f840160051c810160208510612362575b90849392915b601f830160051c82018110612354575050611bc8565b5f815585945060010161233e565b5080612338565b015190508380611b81565b9250600584015f5260205f20905f935b601f19841685106123c7576001945083601f198116106123af575b505050811b016005820155611b98565b01515f1960f88460031b161c1916905583808061239f565b81810151835560209485019460019093019290910190612384565b909150600584015f5260205f20601f840160051c81016020851061242b575b90849392915b601f830160051c8201811061241d575050611b6b565b5f8155859450600101612407565b5080612401565b015190508380611b24565b9250600484015f5260205f20905f935b601f1984168510612490576001945083601f19811610612478575b505050811b016004820155611b3b565b01515f1960f88460031b161c19169055838080612468565b8181015183556020948501946001909301929091019061244d565b909150600484015f5260205f20601f840160051c8101602085106124f4575b90849392915b601f830160051c820181106124e6575050611b0e565b5f81558594506001016124d0565b50806124ca565b015190508380611ac7565b9250600384015f5260205f20905f935b601f1984168510612559576001945083601f19811610612541575b505050811b016003820155611ade565b01515f1960f88460031b161c19169055838080612531565b81810151835560209485019460019093019290910190612516565b909150600384015f5260205f20601f840160051c8101602085106125bd575b90849392915b601f830160051c820181106125af575050611ab1565b5f8155859450600101612599565b5080612593565b015190508580611a6f565b90600285015f5260205f20915f5b601f1985168110612626575091839160019360609695601f1981161061260e575b505050811b016002840155611a86565b01515f1960f88460031b161c191690558580806125fe565b919260206001819286850151815501940192016125dd565b600285015f5260205f20601f840160051c81016020851061267b575b601f830160051c82018110612670575050611a53565b5f815560010161265a565b508061265a565b015190508480611a10565b600184015f5260205f20905f5b601f19841681106126df5750600193949583601f198116106126c7575b505050811b016001830155611a27565b01515f1960f88460031b161c191690558480806126b7565b9091602060018192858a01518155019301910161269a565b600184015f5260205f20601f830160051c810160208410612734575b601f830160051c820181106127295750506119f7565b5f8155600101612713565b5080612713565b60405163b601a68d60e01b8152600490fd5b34610350576020366003190112610350576004356001600160401b0381116103505760206110c56127829236906004016140f8565b8101601381520301902061279581614211565b6111396127a46004840161416f565b926127b16005820161416f565b906127be6006820161416f565b6127ca6007830161416f565b6127d66008840161416f565b916127ef600a6127e86009870161416f565b950161416f565b94604051988998896145aa565b346103505761280a36613ea8565b9991969798929095939498335f52600260205260ff60405f205416156104105761154b896128b76128e6947f07c9fc4ac9266376cb17afdcee0f23f0f5abaf32dab736c7d891c595d39725bd9b6128ab8f612866888c8c616739565b6128708c87616918565b61287a8d82616918565b61289e6040519661288a88614023565b612894368b61463c565b88528d36916140b3565b60208701528c36916140b3565b604085015236916140b3565b60608201526128c7368e8b6140b3565b60808201526040518686823760208188810160198152030190206146c0565b81604051928392833781015f81520390209481604051928392833781015f81520390209481604051928392833781015f815203902094612933604051928392602084526020840191615c96565b0390a4005b34610350576020366003190112610350576004356001600160a01b03811690819003610350575f526003602052602060ff60405f2054166040519015158152f35b34610350576020366003190112610350576004356001600160a01b0381811691829003610350575f5416330361033e57805f52600560205260405f2060ff1981541690557fc28840c72026297551adaf2f67ff2d6aca1b2c4ed12cf5023d94ba7076e75a095f80a2005b34610350576020366003190112610350576004356001600160a01b0381811691829003610350575f5416330361033e57805f52600260205260405f2060ff1981541690557f80c0b871b97b595b16a7741c1b06fed0c6f6f558639f18ccbce50724325dc40d5f80a2005b3461035057612a5b36613f5a565b9691949392959097989a999a335f52600360205260ff60405f20541615612b0f57612a878c8c8f616739565b60405199612a948b61403e565b612a9e368e61463c565b8b523690612aab926140b3565b60208a01523690612abb926140b3565b60408801523690612acb926140b3565b60608601523690612adb926140b3565b60808401523690612aeb926140b3565b60a08201526040518285823780838101601481520360200190209061165491614e04565b604051633b4d583360e21b8152600490fd5b34610350576020366003190112610350576004356001600160a01b0381811691829003610350575f5416330361033e57801561032c57805f52600260205260405f20600160ff198254161790557fac6fa858e9350a46cec16539926e0fde25b7629f84b5a72bffaae4df888ae86d5f80a2005b34610350576020366003190112610350576004356001600160401b0381116103505760206110c5612bc99236906004016140f8565b8101601181520301902061279581614211565b3461035057612bea36613ea8565b919996959092989798335f52600260205260ff60405f205416156104105761040e9a6103d26103b697612c34976103c66104099b8f978f8f996103ac816103bd936103de9d616739565b60808201526040518484823760208186810160108152030190206146c0565b34610350575f366003190112610350575f546040516001600160a01b039091168152602090f35b3461035057612c88366144ab565b929b9499969798959a939c9f919e909d6101e0526101c052610200529a9b98999697949592939091335f52600260205260ff60405f20541615610410576101e0516101c051906102005191612cdc92616739565b6040519d8e91612ceb83614074565b366101e05190612cfa9161463c565b83523690612d07926140b3565b90602001523690612d17926140b3565b60408c01523690612d27926140b3565b60608a01523690612d37926140b3565b60808801523690612d47926140b3565b60a08601523690612d57926140b3565b60c08401523690612d67926140b3565b60e08201526040516101c051610200518237806101c05181016011815203602001902090612d9491615cb6565b6101e0516101c05190610200519161040e9261683a565b34610350576020366003190112610350576004356001600160401b0381116103505760206110c5612de09236906004016140f8565b810160128152030190206110eb81614211565b3461035057612e0136613f5a565b9691949392959097989a999a335f52600260205260ff60405f2054161561041057612e2d8c8c8f616739565b60405199612e3a8b61403e565b612e44368e61463c565b8b523690612e51926140b3565b60208a01523690612e61926140b3565b60408801523690612e71926140b3565b60608601523690612e81926140b3565b60808401523690612e91926140b3565b60a08201526040518285823780838101601281520360200190209061165491614e04565b34610350576020366003190112610350576004356001600160401b0381116103505760206110c5612eea9236906004016140f8565b81016017815203019020612efd81614211565b611139612f0c6004840161416f565b92612f1e60066113626005840161416f565b9060405194859485614463565b3461035057612f39366143b1565b9597919796929496335f52600260205260ff60405f205416156104105761154b88612fb9611552947fa62ae18c8132954544e02a502215888bdc7d7df53e52873d79a81f91544f2dba9a6128ab8e612f92888c8c616739565b612f9c8c87616918565b612fac6040519661288a88614059565b602087015236908d6140b3565b606082015260405186868237602081888101601a81520301902061567a565b34610350576020366003190112610350576004356001600160401b0381116103505760206110c561300d9236906004016140f8565b8101600e8152030190206110eb81614211565b34610350576020366003190112610350576004356001600160401b0381116103505760206110c56130559236906004016140f8565b8101600b8152030190206110eb81614211565b34610350575f366003190112610350576001546040516001600160a01b039091168152602090f35b346103505761309e366144ab565b929b9499969798959a939c9f919e909d6102405261022052610260529a9b98999697949592939091335f52600260205260ff60405f205416156104105761024051610220519061026051916130f292616739565b6040519d8e9161310183614074565b3661024051906131109161463c565b8352369061311d926140b3565b9060200152369061312d926140b3565b60408c0152369061313d926140b3565b60608a0152369061314d926140b3565b6080880152369061315d926140b3565b60a0860152369061316d926140b3565b60c0840152369061317d926140b3565b60e0820152604051610220516102605182378061022051810160138152036020019020906131aa91615cb6565b610240516102205190610260519161040e9261683a565b34610350576020366003190112610350576004356001600160a01b0381811691829003610350575f5416330361033e57805f52600360205260405f2060ff1981541690557f6b66d1bba82a11aca959b4321a690cd67c826fb136617127d12973beb6957b335f80a2005b34610350576020366003190112610350576004356001600160a01b0381811691829003610350575f5416330361033e57801561032c57805f52600560205260405f20600160ff198254161790557f5bfe4ffbe756ad2df32059678eca22cadff8ecb3440f958eae6ff7b2d436e1ba5f80a2005b34610350576020366003190112610350576004356001600160a01b03811690819003610350575f526004602052602060ff60405f2054166040519015158152f35b34610350576020366003190112610350576004356001600160401b0381116103505760ff61331760206110c5819436906004016140f8565b8101601c81520301902054166040519015158152f35b34610350576020366003190112610350576004356001600160401b0381116103505760206110c56133629236906004016140f8565b81016018815203019020612efd81614211565b34610350576020366003190112610350576004356001600160401b0381116103505760206110c56133aa9236906004016140f8565b8101601b81520301902061133481614211565b34610350576133cb36613f5a565b9691949392959097989a999a335f52600260205260ff60405f20541615610410576133f78c8c8f616739565b604051996134048b61403e565b61340e368e61463c565b8b52369061341b926140b3565b60208a0152369061342b926140b3565b6040880152369061343b926140b3565b6060860152369061344b926140b3565b6080840152369061345b926140b3565b60a08201526040518285823780838101600c81520360200190209061165491614e04565b34610350576020366003190112610350576004356001600160401b0381116103505760206110c56134b49236906004016140f8565b810160098152030190206110eb81614211565b614446565b34610350576020366003190112610350576004356001600160401b0381116103505760206110c56135019236906004016140f8565b8101600f81520301902061133481614211565b34610350576020366003190112610350576004356001600160a01b038181169182900361035057600154908116330361146f57811561032c576001600160a01b03191681176001557f83c14e1947c5a639434d6195a6e9d85ab3471a5049c66e0aa46b71e2c0a06dde5f80a2005b34610350576020366003190112610350576004356001600160401b0381116103505760206110c56135b79236906004016140f8565b8101601a815203019020612efd81614211565b34610350575f366003190112610350576020600754604051908152f35b34610350576020366003190112610350576004356001600160a01b0381811691829003610350575f5416330361033e57801561032c57805f52600360205260405f20600160ff198254161790557f6d52a43c5decf356b1093e9f3b6beb1eb8f9f3f333a8f13171e1d89c143c45755f80a2005b346103505761366836613f5a565b9691949392959097989a999a335f52600260205260ff60405f20541615610410576136948c8c8f616739565b604051996136a18b61403e565b6136ab368e61463c565b8b5236906136b8926140b3565b60208a015236906136c8926140b3565b604088015236906136d8926140b3565b606086015236906136e8926140b3565b608084015236906136f8926140b3565b60a08201526040518285823780838101600981520360200190209061165491614e04565b34610350576020366003190112610350576004356001600160a01b03811690819003610350575f526005602052602060ff60405f2054166040519015158152f35b34610350576020366003190112610350576004356001600160a01b0381811691829003610350575f5416330361033e57801561032c57805f52600460205260405f20600160ff198254161790557f65e52bd3fb1902d00941506c0a765dfad293c8c4d5851c7a4dc55ad5d60ff5e35f80a2005b34610350575f366003190112610350576001546001600160a01b03908116330361146f5760065480156138955762093a80810180911161388157421061386f575f54600854828116809383165f805160206169788339815191525f80a36001600160a01b031991821683175f908155911660085560068190557ffcd2de31341801b7fd80895c780aae50c1505fd674ff1b9b9764c56c633434d69080a2005b604051634b362d4f60e01b8152600490fd5b634e487b7160e01b5f52601160045260245ffd5b60405163078591a760e11b8152600490fd5b34610350575f366003190112610350576020600654604051908152f35b34610350576138d2366143b1565b979592949693909193335f52600260205260ff60405f2054161561041057866139978561154b8b6139788e61392d61158d9b7f4c008f49c3178c1ce0fb3c86aed7d2e80aca376ed1476947ca5a220f45e9a5089f8a90616739565b6139378984616918565b61395b6040519361394785614059565b613951368861463c565b85528a36916140b3565b602084015261396b368d8f6140b3565b604084015236908a6140b3565b606082015260405186868237602081888101601881520301902061567a565b81604051928392833781015f81520390209681604051928392833781015f8152039020966139d2604051958695604087526040870191615c96565b918483036020860152615c96565b34610350576020366003190112610350576004356001600160401b0381116103505760206110c5613a159236906004016140f8565b8101601081520301902061133481614211565b34610350576020366003190112610350576004356001600160401b0381116103505760206110c5613a5d9236906004016140f8565b8101600c8152030190206110eb81614211565b34610350576020366003190112610350576004356001600160401b0381116103505760206110c5613aa59236906004016140f8565b8101600a81520301902061133481614211565b34610350576020366003190112610350576004356001600160401b0381116103505760206110c5613aed9236906004016140f8565b8101600d81520301902061133481614211565b34610350576020366003190112610350576004356001600160a01b03811690819003610350575f526002602052602060ff60405f2054166040519015158152f35b34610350576020366003190112610350576004356001600160401b03811161035057613b719036906004016140f8565b6040518181809351602081930191613b8892614116565b810160168152036020019020613b9d81614211565b613ba96004830161416f565b91613bb66005820161416f565b90613bc36006820161416f565b613bcf6007830161416f565b613bdb6008840161416f565b613be76009850161416f565b91613bf4600a860161416f565b93613c01600b870161416f565b95600c01613c0e9061416f565b96604051998a99610140808c528b01613c2691614299565b8a810360208c0152613c3791614274565b89810360408b0152613c4891614274565b88810360608a0152613c5991614274565b8781036080890152613c6a91614274565b86810360a0880152613c7b91614274565b85810360c0870152613c8c91614274565b84810360e0860152613c9d91614274565b838103610100850152613caf91614274565b82810361012084015261113991614274565b3461035057613ccf36613f5a565b9691949392959097989a999a335f52600260205260ff60405f2054161561041057613cfb8c8c8f616739565b60405199613d088b61403e565b613d12368e61463c565b8b523690613d1f926140b3565b60208a01523690613d2f926140b3565b60408801523690613d3f926140b3565b60608601523690613d4f926140b3565b60808401523690613d5f926140b3565b60a08201526040518285823780838101600e81520360200190209061165491614e04565b34610350575f366003190112610350575f546001600160a01b0316330361033e57600880546001600160a01b03191690555f6006554262093a808101908110613881576007557fedd770ee01b7c0ef4f503125eafdc2725536cbf32342dffcaa300d95a7cafce35f80a1005b3461035057613dfd36613ea8565b9691949392959097999a335f52600260205260ff60405f20541615613e6c575094613e4d946103d28c999561040999956103c661040e9f968f9b8f8d6103ac6103b69f6103bd936103de9d616739565b608082015260405184848237602081868101600a8152030190206146c0565b631f0853c160e21b8152600490fd5b9181601f84011215610350578235916001600160401b038311610350576020838186019501011161035057565b6003199060c081830112610350576004906001600160401b0382358181116103505782613ed6918501613e7b565b9590959460243590838211610350576080908286030112610350578401936044358381116103505784613f0a918301613e7b565b949094936064358181116103505782613f24918501613e7b565b949094936084358381116103505784613f3e918301613e7b565b9490949360a43590811161035057613f569201613e7b565b9091565b906003199060e082840112610350576001600160401b0390600480358381116103505785613f89918301613e7b565b9590959460243590858211610350576080908284030112610350578201936044358181116103505782613fbd918501613e7b565b949094936064358381116103505784613fd7918301613e7b565b949094936084358181116103505782613ff1918501613e7b565b9490949360a435838111610350578461400b918301613e7b565b9490949360c43590811161035057613f569201613e7b565b60a081019081106001600160401b03821117610a3157604052565b60c081019081106001600160401b03821117610a3157604052565b608081019081106001600160401b03821117610a3157604052565b61010081019081106001600160401b03821117610a3157604052565b601f909101601f19168101906001600160401b03821190821017610a3157604052565b9192916001600160401b038211610a3157604051916140dc601f8201601f191660200184614090565b829481845281830111610350578281602093845f960137010152565b9080601f8301121561035057816020614113933591016140b3565b90565b5f5b8381106141275750505f910152565b8181015183820152602001614118565b90600182811c92168015614165575b602083101461415157565b634e487b7160e01b5f52602260045260245ffd5b91607f1691614146565b9060405191825f825461418181614137565b908184526020946001916001811690815f146141ef57506001146141b1575b5050506141af92500383614090565b565b5f90815285812095935091905b8183106141d75750506141af93508201015f80806141a0565b855488840185015294850194879450918301916141be565b925050506141af94925060ff191682840152151560051b8201015f80806141a0565b9060405161421e81614059565b809260ff81541690601382101561106a5760036142629160609385526142466001820161416f565b60208601526142576002820161416f565b60408601520161416f565b910152565b90601382101561106a5752565b9060209161428d81518092818552858086019101614116565b601f01601f1916010190565b614113916142a8818351614267565b60606142d86142c66020850151608060208601526080850190614274565b60408501518482036040860152614274565b920151906060818403910152614274565b9390614113959361431a6143369461430c6143289460a08a5260a08a0190614299565b9088820360208a0152614274565b908682036040880152614274565b908482036060860152614274565b916080818403910152614274565b9491936143876143a394614379614113999761436b6143959660c08c5260c08c0190614299565b908a820360208c0152614274565b9088820360408a0152614274565b908682036060880152614274565b908482036080860152614274565b9160a0818403910152614274565b906003199060a082840112610350576001600160401b03906004803583811161035057856143e0918301613e7b565b9590959460243590858211610350576080908284030112610350578201936044358181116103505782614414918501613e7b565b94909493606435838111610350578461442e918301613e7b565b9490949360843590811161035057613f569201613e7b565b34610350575f36600319011261035057602060405162093a808152f35b9261448f614113959361448161449d94608088526080880190614299565b908682036020880152614274565b908482036040860152614274565b916060818403910152614274565b906003199061012082840112610350576001600160401b03906004803583811161035057856144db918301613e7b565b959095946024359085821161035057608090828403011261035057820193604435818111610350578261450f918501613e7b565b949094936064358381116103505784614529918301613e7b565b949094936084358181116103505782614543918501613e7b565b9490949360a435838111610350578461455d918301613e7b565b9490949360c4358181116103505782614577918501613e7b565b9490949360e4358381116103505784614591918301613e7b565b949094936101043590811161035057613f569201613e7b565b96939461460461462e966145f6614620966145e88c6141139e9c986145da61461299610100808552840190614299565b916020818403910152614274565b8c810360408e015290614274565b908a820360608c0152614274565b9088820360808a0152614274565b9086820360a0880152614274565b9084820360c0860152614274565b9160e0818403910152614274565b9190608083820312610350576040519061465582614059565b8193803560138110156103505783526001600160401b0391602082013583811161035057816146859184016140f8565b6020850152604082013583811161035057816146a29184016140f8565b604085015260608201359283116103505760609261426292016140f8565b8151908151601381101561106a5760ff8019835416911617815560019182820191602090818301519182519460018060401b0395868111610a3157806147068354614137565b95601f96878111614db6575b508490878311600114614d57575f92614d4c575b50505f19600383901b1c191690881b1790555b600282016040850151805190878211610a315781906147588454614137565b878111614cfe575b508490878311600114614c9f575f92614c94575b50505f19600383901b1c191690881b1790555b6003936060858401910151805190878211610a315781906147a88454614137565b878111614c46575b508490878311600114614be8575f92614bdd575b50505f1982881b1c191690881b1790555b6004820181880151805190878211610a315781906147f38454614137565b878111614b8f575b508490878311600114614b31575f92614b26575b50505f1982881b1c191690881b1790555b6005918281016040890151805190888211610a315781906148418454614137565b888111614ada575b508590888311600114614a7c575f92614a71575b50505f1982891b1c191690891b1790555b600681016060890151805190888211610a315761488b8354614137565b878111614a30575b5084908783116001146149c757918060079492608096945f926149bc575b50505f19828b1b1c1916908b1b1790555b01970151918251958611610a31576148da8854614137565b9084821161497b575b50508092851160011461491957509383949184925f9561490e575b50501b925f19911b1c1916179055565b015193505f806148fe565b92919084601f198116885f52855f20955f905b898383106149615750505010614948575b50505050811b019055565b01519060f8845f19921b161c191690555f80808061493d565b85870151895590970196948501948893509081019061492c565b885f52825f209085808901821c830193858a106149b3575b01901c019087905b8281106149a857506148e3565b5f815501879061499b565b93508293614993565b015190505f806148b1565b8a9291601f19831691855f52875f20925f5b89828210614a1a5750509160809795939185600798969410614a03575b505050811b0190556148c2565b01515f19838d1b60f8161c191690555f80806149f6565b8385015186558f979095019493840193016149d9565b835f52855f2088808501891c820192888610614a68575b01881c01908b905b828110614a5d575050614893565b5f8155018b90614a4f565b92508192614a47565b015190505f8061485d565b908b9350601f19831691855f52875f20925f5b89828210614ac45750508411614aad575b505050811b01905561486e565b01515f19838b1b60f8161c191690555f8080614aa0565b8385015186558f97909501949384019301614a8f565b909150835f52855f2088808501891c820192888610614b1d575b918d9186959493018a1c01915b828110614b0f575050614849565b5f81558594508d9101614b01565b92508192614af4565b015190505f8061480f565b908a9350601f19831691855f52865f20925f5b88828210614b795750508411614b62575b505050811b019055614820565b01515f19838a1b60f8161c191690555f8080614b55565b8385015186558e97909501949384019301614b44565b909150835f52845f208780850160051c820192878610614bd4575b918c91869594930160051c01915b828110614bc65750506147fb565b5f81558594508c9101614bb8565b92508192614baa565b015190505f806147c4565b908a9350601f19831691855f52865f20925f5b88828210614c305750508411614c19575b505050811b0190556147d5565b01515f19838a1b60f8161c191690555f8080614c0c565b8385015186558e97909501949384019301614bfb565b909150835f52845f208780850160051c820192878610614c8b575b918c91869594930160051c01915b828110614c7d5750506147b0565b5f81558594508c9101614c6f565b92508192614c61565b015190505f80614774565b908a9350601f19831691855f52865f20925f5b88828210614ce85750508411614cd0575b505050811b019055614787565b01515f1960f88460031b161c191690555f8080614cc3565b8385015186558e97909501949384019301614cb2565b909150835f52845f208780850160051c820192878610614d43575b918c91869594930160051c01915b828110614d35575050614760565b5f81558594508c9101614d27565b92508192614d19565b015190505f80614726565b908a9350601f19831691855f52865f20925f5b88828210614da05750508411614d88575b505050811b019055614739565b01515f1960f88460031b161c191690555f8080614d7b565b8385015186558e97909501949384019301614d6a565b909150835f52845f208780850160051c820192878610614dfb575b918c91869594930160051c01915b828110614ded575050614712565b5f81558594508c9101614ddf565b92508192614dd1565b8151908151601381101561106a5760ff8019835416911617815560019182820191602090818301519182519460018060401b0395868111610a315780614e4a8354614137565b95601f9687811161562c575b5084908783116001146155cd575f926155c2575b50505f19600383901b1c191690881b1790555b600282016040850151805190878211610a31578190614e9c8454614137565b878111615574575b508490878311600114615515575f9261550a575b50505f19600383901b1c191690881b1790555b6003936060858401910151805190878211610a31578190614eec8454614137565b8781116154bc575b50849087831160011461545e575f92615453575b50505f1982881b1c191690881b1790555b60049182810182890151805190888211615440578190614f398454614137565b8881116153f2575b508590888311600114615394575f92615389575b50505f1982891b1c191690891b1790555b60059081810160408a01518051908982116151fa578190614f878454614137565b89811161533d575b5086908983116001146152d6575f926152cb575b50505f19828a1b1c1916908a1b1790555b6006810160608a01518051908982116151fa578190614fd38454614137565b89811161527f575b508690898311600114615218575f9261520d575b50505f19828a1b1c1916908a1b1790555b6007810160808a01518051908982116151fa5761501d8354614137565b8881116151b9575b5085908883116001146151475791806008949260a096945f9261513c575b50505f19828c1b1c1916908c1b1790555b01980151928351968711615129575061506d8854614137565b908482116150e8575b5050809285116001146150a057509383949184925f9561490e5750501b925f19911b1c1916179055565b92919084601f198116885f52855f20955f905b898383106150ce57505050106149485750505050811b019055565b8587015189559097019694850194889350908101906150b3565b885f52825f209085808901821c830193858a10615120575b01901c019087905b8281106151155750615076565b5f8155018790615108565b93508293615100565b604190634e487b7160e01b5f525260245ffd5b015190505f80615043565b8b9291601f19831691855f52885f20925f5b8a82821061519a5750509160a09795939185600898969410615183575b505050811b019055615054565b01515f19838e1b60f8161c191690555f8080615176565b91929395968291958786015181550195019301908e9594939291615159565b835f52865f2089808501881c8201928986106151f1575b01871c01908c905b8281106151e6575050615025565b5f8155018c906151d8565b925081926151d0565b604187634e487b7160e01b5f525260245ffd5b015190505f80614fef565b908c9350601f19831691855f52885f20925f5b8a8282106152605750508411615249575b505050811b019055615000565b01515f19838c1b60f8161c191690555f808061523c565b91929395968291958786015181550195019301908e959493929161522b565b909150835f52865f2089808501881c8201928986106152c2575b918e918695949301891c01915b8281106152b4575050614fdb565b5f81558594508e91016152a6565b92508192615299565b015190505f80614fa3565b908c9350601f19831691855f52885f20925f5b8a82821061531e5750508411615307575b505050811b019055614fb4565b01515f19838c1b60f8161c191690555f80806152fa565b91929395968291958786015181550195019301908e95949392916152e9565b909150835f52865f2089808501881c820192898610615380575b918e918695949301891c01915b828110615372575050614f8f565b5f81558594508e9101615364565b92508192615357565b015190505f80614f55565b908b9350601f19831691855f52875f20925f5b898282106153dc57505084116153c5575b505050811b019055614f66565b01515f19838b1b60f8161c191690555f80806153b8565b8385015186558f979095019493840193016153a7565b909150835f52855f208880850160051c820192888610615437575b918d91869594930160051c01915b828110615429575050614f41565b5f81558594508d910161541b565b9250819261540d565b604186634e487b7160e01b5f525260245ffd5b015190505f80614f08565b908a9350601f19831691855f52865f20925f5b888282106154a6575050841161548f575b505050811b019055614f19565b01515f19838a1b60f8161c191690555f8080615482565b8385015186558e97909501949384019301615471565b909150835f52845f208780850160051c820192878610615501575b918c91869594930160051c01915b8281106154f3575050614ef4565b5f81558594508c91016154e5565b925081926154d7565b015190505f80614eb8565b908a9350601f19831691855f52865f20925f5b8882821061555e5750508411615546575b505050811b019055614ecb565b01515f1960f88460031b161c191690555f8080615539565b8385015186558e97909501949384019301615528565b909150835f52845f208780850160051c8201928786106155b9575b918c91869594930160051c01915b8281106155ab575050614ea4565b5f81558594508c910161559d565b9250819261558f565b015190505f80614e6a565b908a9350601f19831691855f52865f20925f5b8882821061561657505084116155fe575b505050811b019055614e7d565b01515f1960f88460031b161c191690555f80806155f1565b8385015186558e979095019493840193016155e0565b909150835f52845f208780850160051c820192878610615671575b918c91869594930160051c01915b828110615663575050614e56565b5f81558594508c9101615655565b92508192615647565b8151908151601381101561106a5760ff80198354169116178155600191828201916020808301519182519460018060401b0395868111610a3157806156bf8354614137565b95601f96878111615c48575b508590878311600114615be9575f92615bde575b50505f19600383901b1c191690881b1790555b600281016040850151805190878211610a315781906157118454614137565b878111615b90575b508590878311600114615b31575f92615b26575b50505f19600383901b1c191690881b1790555b6003936060858301910151805190878211610a315781906157618454614137565b878111615ad8575b508590878311600114615a7a575f92615a6f575b50505f1982881b1c191690881b1790555b6004810182880151805190878211610a315781906157ac8454614137565b878111615a21575b5085908783116001146159c3575f926159b8575b50505f1982881b1c191690881b1790555b600581016040880151805190878211610a31576157f68354614137565b868111615975575b50849086831160011461590c57918060069492606096945f92615901575b50505f19828a1b1c1916908a1b1790555b01960151908151948511610a31576158458754614137565b8381116158be575b508092851160011461587657509383949184925f9561490e5750501b925f19911b1c1916179055565b92919084601f198116885f52855f20955f905b898383106158a457505050106149485750505050811b019055565b858701518955909701969485019488935090810190615889565b875f52815f208480880160051c8201928489106158f8575b0160051c019087905b8281106158ed57505061584d565b5f81550187906158df565b925081926158d6565b015190505f8061581c565b899291601f19831691855f52875f20925f5b8982821061595f5750509160609795939185600698969410615948575b505050811b01905561582d565b01515f19838c1b60f8161c191690555f808061593b565b8385015186558e9790950194938401930161591e565b835f52855f208780850160051c8201928886106159af575b0160051c01908a905b8281106159a45750506157fe565b5f8155018a90615996565b9250819261598d565b015190505f806157c8565b908a9350601f19831691855f52875f20925f5b89828210615a0b57505084116159f4575b505050811b0190556157d9565b01515f19838a1b60f8161c191690555f80806159e7565b8385015186558e979095019493840193016159d6565b909150835f52855f208780850160051c820192888610615a66575b918c91869594930160051c01915b828110615a585750506157b4565b5f81558594508c9101615a4a565b92508192615a3c565b015190505f8061577d565b908a9350601f19831691855f52875f20925f5b89828210615ac25750508411615aab575b505050811b01905561578e565b01515f19838a1b60f8161c191690555f8080615a9e565b8385015186558e97909501949384019301615a8d565b909150835f52855f208780850160051c820192888610615b1d575b918c91869594930160051c01915b828110615b0f575050615769565b5f81558594508c9101615b01565b92508192615af3565b015190505f8061572d565b908a9350601f19831691855f52875f20925f5b89828210615b7a5750508411615b62575b505050811b019055615740565b01515f1960f88460031b161c191690555f8080615b55565b8385015186558e97909501949384019301615b44565b909150835f52855f208780850160051c820192888610615bd5575b918c91869594930160051c01915b828110615bc7575050615719565b5f81558594508c9101615bb9565b92508192615bab565b015190505f806156df565b908a9350601f19831691855f52875f20925f5b89828210615c325750508411615c1a575b505050811b0190556156f2565b01515f1960f88460031b161c191690555f8080615c0d565b8385015186558e97909501949384019301615bfc565b909150835f52855f208780850160051c820192888610615c8d575b918c91869594930160051c01915b828110615c7f5750506156cb565b5f81558594508c9101615c71565b92508192615c63565b908060209392818452848401375f828201840152601f01601f1916010190565b8151908151601381101561106a5760ff8019835416911617815560019182820191602090818301519182519460018060401b0395868111610a315780615cfc8354614137565b95601f968781116166b9575b50849087831160011461665a575f9261664f575b50505f19600383901b1c191690881b1790555b600282016040850151805190878211610a31578190615d4e8454614137565b878111616601575b5084908783116001146165a2575f92616597575b50505f19600383901b1c191690881b1790555b6003936060858401910151805190878211610a31578190615d9e8454614137565b878111616549575b5084908783116001146164eb575f926164e0575b50505f1982881b1c191690881b1790555b60049182810182890151805190888211615440578190615deb8454614137565b888111616492575b508590888311600114616434575f92616429575b50505f1982891b1c191690891b1790555b60059081810160408a01518051908982116151fa578190615e398454614137565b8981116163dd575b508690898311600114616376575f9261636b575b50505f19828a1b1c1916908a1b1790555b6006810160608a01518051908982116151fa578190615e858454614137565b89811161631f575b5086908983116001146162b8575f926162ad575b50505f19828a1b1c1916908a1b1790555b6007810160808a01518051908982116151fa578190615ed18454614137565b898111616261575b5086908983116001146161fa575f926161ef575b50505f19828a1b1c1916908a1b1790555b6008810160a08a01518051908982116151fa578190615f1d8454614137565b8981116161a3575b50869089831160011461613c575f92616131575b50505f19828a1b1c1916908a1b1790555b6009810160c08a01518051908982116151fa57615f678354614137565b8881116160f0575b50859088831160011461607e579180600a949260e096945f92616073575b50505f19828c1b1c1916908c1b1790555b019801519283519687116151295750615fb78854614137565b90848211616032575b505080928511600114615fea57509383949184925f9561490e5750501b925f19911b1c1916179055565b92919084601f198116885f52855f20955f905b8983831061601857505050106149485750505050811b019055565b858701518955909701969485019488935090810190615ffd565b885f52825f209085808901821c830193858a1061606a575b01901c019087905b82811061605f5750615fc0565b5f8155018790616052565b9350829361604a565b015190505f80615f8d565b8b9291601f19831691855f52885f20925f5b8a8282106160d15750509160e09795939185600a989694106160ba575b505050811b019055615f9e565b01515f19838e1b60f8161c191690555f80806160ad565b91929395968291958786015181550195019301908e9594939291616090565b835f52865f2089808501881c820192898610616128575b01871c01908c905b82811061611d575050615f6f565b5f8155018c9061610f565b92508192616107565b015190505f80615f39565b908c9350601f19831691855f52885f20925f5b8a828210616184575050841161616d575b505050811b019055615f4a565b01515f19838c1b60f8161c191690555f8080616160565b91929395968291958786015181550195019301908e959493929161614f565b909150835f52865f2089808501881c8201928986106161e6575b918e918695949301891c01915b8281106161d8575050615f25565b5f81558594508e91016161ca565b925081926161bd565b015190505f80615eed565b908c9350601f19831691855f52885f20925f5b8a828210616242575050841161622b575b505050811b019055615efe565b01515f19838c1b60f8161c191690555f808061621e565b91929395968291958786015181550195019301908e959493929161620d565b909150835f52865f2089808501881c8201928986106162a4575b918e918695949301891c01915b828110616296575050615ed9565b5f81558594508e9101616288565b9250819261627b565b015190505f80615ea1565b908c9350601f19831691855f52885f20925f5b8a82821061630057505084116162e9575b505050811b019055615eb2565b01515f19838c1b60f8161c191690555f80806162dc565b91929395968291958786015181550195019301908e95949392916162cb565b909150835f52865f2089808501881c820192898610616362575b918e918695949301891c01915b828110616354575050615e8d565b5f81558594508e9101616346565b92508192616339565b015190505f80615e55565b908c9350601f19831691855f52885f20925f5b8a8282106163be57505084116163a7575b505050811b019055615e66565b01515f19838c1b60f8161c191690555f808061639a565b91929395968291958786015181550195019301908e9594939291616389565b909150835f52865f2089808501881c820192898610616420575b918e918695949301891c01915b828110616412575050615e41565b5f81558594508e9101616404565b925081926163f7565b015190505f80615e07565b908b9350601f19831691855f52875f20925f5b8982821061647c5750508411616465575b505050811b019055615e18565b01515f19838b1b60f8161c191690555f8080616458565b8385015186558f97909501949384019301616447565b909150835f52855f208880850160051c8201928886106164d7575b918d91869594930160051c01915b8281106164c9575050615df3565b5f81558594508d91016164bb565b925081926164ad565b015190505f80615dba565b908a9350601f19831691855f52865f20925f5b88828210616533575050841161651c575b505050811b019055615dcb565b01515f19838a1b60f8161c191690555f808061650f565b8385015186558e979095019493840193016164fe565b909150835f52845f208780850160051c82019287861061658e575b918c91869594930160051c01915b828110616580575050615da6565b5f81558594508c9101616572565b92508192616564565b015190505f80615d6a565b908a9350601f19831691855f52865f20925f5b888282106165eb57505084116165d3575b505050811b019055615d7d565b01515f1960f88460031b161c191690555f80806165c6565b8385015186558e979095019493840193016165b5565b909150835f52845f208780850160051c820192878610616646575b918c91869594930160051c01915b828110616638575050615d56565b5f81558594508c910161662a565b9250819261661c565b015190505f80615d1c565b908a9350601f19831691855f52865f20925f5b888282106166a3575050841161668b575b505050811b019055615d2f565b01515f1960f88460031b161c191690555f808061667e565b8385015186558e9790950194938401930161666d565b909150835f52845f208780850160051c8201928786106166fe575b918c91869594930160051c01915b8281106166f0575050615d08565b5f81558594508c91016166e2565b925081926166d4565b903590601e198136030182121561035057018035906001600160401b0382116103505760200191813603831361035057565b9080156168285761674d6020840184616707565b9050156168165760ff60405182848237602081848101601c81520301902054166167f257505060408101906167828282616707565b90501515806167c6575b616794575050565b61679e9250616707565b6167c260405192839263805de86960e01b8452602060048501526024840191615c96565b0390fd5b5060ff60206167d58484616707565b91908260405193849283378101601c81520301902054161561678c565b6167c260405192839263029e8f5f60e21b8452602060048501526024840191615c96565b6040516346829b8560e01b8152600490fd5b604051630dd088e760e01b8152600490fd5b9160405182848237602081848101601c815203019020600160ff198254161790558035916013831015610350576168f5926169136168e492616903856168c36168a760607f91a2a0e72e1981849103a4a952d7168303a860389dc265dd36f4780701f58836990183616707565b99906168b66020850185616707565b9390946040810190616707565b96909c81604051928392833781015f81520390209a604051998a809a614267565b608060208a01526080890191615c96565b918683036040880152615c96565b9083820360608501523397615c96565b0390a3565b9080156169655760ff60405182848237602081848101601c815203019020541615616941575050565b6167c260405192839263e3d1895f60e01b8452602060048501526024840191615c96565b604051631a2f07d160e01b8152600490fdfe8be0079c531659141344cd1fd0a4f28419497f9722a3daafe3b4186f6b6457e0a2646970667358221220393b14a726c222e07425028b601c423df6222f21d51855b85a710fe012d50fa364736f6c63430008180033","linkReferences":{}},"methodIdentifiers":{"RECOVERY_DELAY()":"47b45652","RECOVERY_LOCKOUT()":"561ea99c","addEntityOperator(address)":"397c9a3a","addLegalOperator(address)":"45f65cfa","addOperator(address)":"9870d7fe","addProofOperator(address)":"6b6797c9","affirmedAnchors(string)":"47deec0d","agentAnchors(string)":"144888ff","cancelRecovery()":"0ba234d6","codeAnchors(string)":"573701f7","dataAnchors(string)":"717d1a85","entityAnchors(string)":"e600a0a0","entityOperators(address)":"6ae0dd9c","eventAnchors(string)":"8a0d436f","executeRecovery()":"20c5a3e1","initiateRecovery(address)":"d5ce9aad","legalAnchors(string)":"ecc8d0fc","legalOperators(address)":"b91ef084","mediaAnchors(string)":"762d408d","modelAnchors(string)":"16aca546","onChainAnchors(string)":"96ad272d","operators(address)":"13e7c9d8","otherAnchors(string)":"5bd47e10","owner()":"8da5cb5b","pendingOwner()":"e30c3978","postAnchors(string)":"1cb655e7","proofAnchors(string)":"132171b0","proofOperators(address)":"402cef1b","receiptAnchors(string)":"bdd5a582","recoveryAddress()":"710eb26c","recoveryInitiatedAt()":"20727381","recoveryLockoutUntil()":"47be22fa","registerAffirmed(string,(uint8,string,string,string),string,string,string)":"7b207ae6","registerAgent(string,(uint8,string,string,string),string,string,string,string)":"ee808008","registerCode(string,(uint8,string,string,string),string,string,string,string,string)":"407f22d8","registerData(string,(uint8,string,string,string),string,string,string,string,string)":"cc087c48","registerEntity(string,(uint8,string,string,string),string,string,string,string,string,string)":"edf1677b","registerEvent(string,(uint8,string,string,string),string,string,string,string,string)":"876c88dd","registerLegal(string,(uint8,string,string,string),string,string,string,string,string)":"a93e1248","registerMedia(string,(uint8,string,string,string),string,string,string,string,string)":"10b9dcbd","registerModel(string,(uint8,string,string,string),string,string,string,string,string)":"5a355e6d","registerOnChain(string,(uint8,string,string,string),string,string,string,string,string,string,string)":"8d17b4eb","registerOther(string,(uint8,string,string,string),string,string,string,string)":"e4cc22a1","registerPost(string,(uint8,string,string,string),string,string,string,string)":"8f8f5ccb","registerProof(string,(uint8,string,string,string),string,string,string,string,string,string,string,string,string)":"bfa5cb9d","registerReceipt(string,(uint8,string,string,string),string,string,string,string,string,string,string)":"6fe98d10","registerResearch(string,(uint8,string,string,string),string,string,string,string)":"00712e19","registerRetraction(string,(uint8,string,string,string),string,string,string)":"d58817e6","registerReview(string,(uint8,string,string,string),string,string,string)":"1f3618bf","registerText(string,(uint8,string,string,string),string,string,string,string)":"c6bea7ab","registerVoid(string,(uint8,string,string,string),string,string,string,string)":"b9988922","registered(string)":"5d2d5c37","removeEntityOperator(address)":"ddf841a9","removeLegalOperator(address)":"6ba60e71","removeOperator(address)":"ac8a584a","removeProofOperator(address)":"b643fcb3","researchAnchors(string)":"165d33fe","retractionAnchors(string)":"7d15e15d","reviewAnchors(string)":"5d064b3a","setRecoveryAddress(address)":"49efe5ae","textAnchors(string)":"517f4dcf","transferOwnership(address)":"f2fde38b","voidAnchors(string)":"e0ac87b9"},"id":19}