{"abi":[{"type":"constructor","inputs":[{"name":"_recoveryAddress","type":"address","internalType":"address"}],"stateMutability":"nonpayable"},{"type":"function","name":"RECOVERY_DELAY","inputs":[],"outputs":[{"name":"","type":"uint256","internalType":"uint256"}],"stateMutability":"view"},{"type":"function","name":"RECOVERY_LOCKOUT","inputs":[],"outputs":[{"name":"","type":"uint256","internalType":"uint256"}],"stateMutability":"view"},{"type":"function","name":"addEntityOperator","inputs":[{"name":"op","type":"address","internalType":"address"}],"outputs":[],"stateMutability":"nonpayable"},{"type":"function","name":"addLegalOperator","inputs":[{"name":"op","type":"address","internalType":"address"}],"outputs":[],"stateMutability":"nonpayable"},{"type":"function","name":"addOperator","inputs":[{"name":"op","type":"address","internalType":"address"}],"outputs":[],"stateMutability":"nonpayable"},{"type":"function","name":"addProofOperator","inputs":[{"name":"op","type":"address","internalType":"address"}],"outputs":[],"stateMutability":"nonpayable"},{"type":"function","name":"affirmedAnchors","inputs":[{"name":"","type":"string","internalType":"string"}],"outputs":[{"name":"base","type":"tuple","internalType":"struct AnchorRegistry.AnchorBase","components":[{"name":"artifactType","type":"uint8","internalType":"enum AnchorRegistry.ArtifactType"},{"name":"manifestHash","type":"string","internalType":"string"},{"name":"parentHash","type":"string","internalType":"string"},{"name":"descriptor","type":"string","internalType":"string"}]},{"name":"targetArId","type":"string","internalType":"string"},{"name":"affirmedBy","type":"string","internalType":"string"},{"name":"findingUrl","type":"string","internalType":"string"}],"stateMutability":"view"},{"type":"function","name":"agentAnchors","inputs":[{"name":"","type":"string","internalType":"string"}],"outputs":[{"name":"base","type":"tuple","internalType":"struct AnchorRegistry.AnchorBase","components":[{"name":"artifactType","type":"uint8","internalType":"enum AnchorRegistry.ArtifactType"},{"name":"manifestHash","type":"string","internalType":"string"},{"name":"parentHash","type":"string","internalType":"string"},{"name":"descriptor","type":"string","internalType":"string"}]},{"name":"agentVersion","type":"string","internalType":"string"},{"name":"url","type":"string","internalType":"string"}],"stateMutability":"view"},{"type":"function","name":"cancelRecovery","inputs":[],"outputs":[],"stateMutability":"nonpayable"},{"type":"function","name":"codeAnchors","inputs":[{"name":"","type":"string","internalType":"string"}],"outputs":[{"name":"base","type":"tuple","internalType":"struct AnchorRegistry.AnchorBase","components":[{"name":"artifactType","type":"uint8","internalType":"enum AnchorRegistry.ArtifactType"},{"name":"manifestHash","type":"string","internalType":"string"},{"name":"parentHash","type":"string","internalType":"string"},{"name":"descriptor","type":"string","internalType":"string"}]},{"name":"gitHash","type":"string","internalType":"string"},{"name":"license","type":"string","internalType":"string"},{"name":"url","type":"string","internalType":"string"}],"stateMutability":"view"},{"type":"function","name":"dataAnchors","inputs":[{"name":"","type":"string","internalType":"string"}],"outputs":[{"name":"base","type":"tuple","internalType":"struct AnchorRegistry.AnchorBase","components":[{"name":"artifactType","type":"uint8","internalType":"enum AnchorRegistry.ArtifactType"},{"name":"manifestHash","type":"string","internalType":"string"},{"name":"parentHash","type":"string","internalType":"string"},{"name":"descriptor","type":"string","internalType":"string"}]},{"name":"dataVersion","type":"string","internalType":"string"},{"name":"url","type":"string","internalType":"string"}],"stateMutability":"view"},{"type":"function","name":"entityAnchors","inputs":[{"name":"","type":"string","internalType":"string"}],"outputs":[{"name":"base","type":"tuple","internalType":"struct AnchorRegistry.AnchorBase","components":[{"name":"artifactType","type":"uint8","internalType":"enum AnchorRegistry.ArtifactType"},{"name":"manifestHash","type":"string","internalType":"string"},{"name":"parentHash","type":"string","internalType":"string"},{"name":"descriptor","type":"string","internalType":"string"}]},{"name":"entityType","type":"string","internalType":"string"},{"name":"entityDomain","type":"string","internalType":"string"},{"name":"verificationMethod","type":"string","internalType":"string"},{"name":"verificationProof","type":"string","internalType":"string"},{"name":"canonicalUrl","type":"string","internalType":"string"},{"name":"documentHash","type":"string","internalType":"string"}],"stateMutability":"view"},{"type":"function","name":"entityOperators","inputs":[{"name":"","type":"address","internalType":"address"}],"outputs":[{"name":"","type":"bool","internalType":"bool"}],"stateMutability":"view"},{"type":"function","name":"executeRecovery","inputs":[],"outputs":[],"stateMutability":"nonpayable"},{"type":"function","name":"initiateRecovery","inputs":[{"name":"_pendingOwner","type":"address","internalType":"address"}],"outputs":[],"stateMutability":"nonpayable"},{"type":"function","name":"legalAnchors","inputs":[{"name":"","type":"string","internalType":"string"}],"outputs":[{"name":"base","type":"tuple","internalType":"struct AnchorRegistry.AnchorBase","components":[{"name":"artifactType","type":"uint8","internalType":"enum AnchorRegistry.ArtifactType"},{"name":"manifestHash","type":"string","internalType":"string"},{"name":"parentHash","type":"string","internalType":"string"},{"name":"descriptor","type":"string","internalType":"string"}]},{"name":"docType","type":"string","internalType":"string"},{"name":"url","type":"string","internalType":"string"}],"stateMutability":"view"},{"type":"function","name":"legalOperators","inputs":[{"name":"","type":"address","internalType":"address"}],"outputs":[{"name":"","type":"bool","internalType":"bool"}],"stateMutability":"view"},{"type":"function","name":"mediaAnchors","inputs":[{"name":"","type":"string","internalType":"string"}],"outputs":[{"name":"base","type":"tuple","internalType":"struct AnchorRegistry.AnchorBase","components":[{"name":"artifactType","type":"uint8","internalType":"enum AnchorRegistry.ArtifactType"},{"name":"manifestHash","type":"string","internalType":"string"},{"name":"parentHash","type":"string","internalType":"string"},{"name":"descriptor","type":"string","internalType":"string"}]},{"name":"mediaType","type":"string","internalType":"string"},{"name":"url","type":"string","internalType":"string"}],"stateMutability":"view"},{"type":"function","name":"modelAnchors","inputs":[{"name":"","type":"string","internalType":"string"}],"outputs":[{"name":"base","type":"tuple","internalType":"struct AnchorRegistry.AnchorBase","components":[{"name":"artifactType","type":"uint8","internalType":"enum AnchorRegistry.ArtifactType"},{"name":"manifestHash","type":"string","internalType":"string"},{"name":"parentHash","type":"string","internalType":"string"},{"name":"descriptor","type":"string","internalType":"string"}]},{"name":"modelVersion","type":"string","internalType":"string"},{"name":"url","type":"string","internalType":"string"}],"stateMutability":"view"},{"type":"function","name":"onChainAnchors","inputs":[{"name":"","type":"string","internalType":"string"}],"outputs":[{"name":"base","type":"tuple","internalType":"struct AnchorRegistry.AnchorBase","components":[{"name":"artifactType","type":"uint8","internalType":"enum AnchorRegistry.ArtifactType"},{"name":"manifestHash","type":"string","internalType":"string"},{"name":"parentHash","type":"string","internalType":"string"},{"name":"descriptor","type":"string","internalType":"string"}]},{"name":"chainId","type":"string","internalType":"string"},{"name":"assetType","type":"string","internalType":"string"},{"name":"assetId","type":"string","internalType":"string"},{"name":"url","type":"string","internalType":"string"}],"stateMutability":"view"},{"type":"function","name":"operators","inputs":[{"name":"","type":"address","internalType":"address"}],"outputs":[{"name":"","type":"bool","internalType":"bool"}],"stateMutability":"view"},{"type":"function","name":"otherAnchors","inputs":[{"name":"","type":"string","internalType":"string"}],"outputs":[{"name":"base","type":"tuple","internalType":"struct AnchorRegistry.AnchorBase","components":[{"name":"artifactType","type":"uint8","internalType":"enum AnchorRegistry.ArtifactType"},{"name":"manifestHash","type":"string","internalType":"string"},{"name":"parentHash","type":"string","internalType":"string"},{"name":"descriptor","type":"string","internalType":"string"}]},{"name":"kind","type":"string","internalType":"string"},{"name":"platform","type":"string","internalType":"string"},{"name":"url","type":"string","internalType":"string"},{"name":"value","type":"string","internalType":"string"}],"stateMutability":"view"},{"type":"function","name":"owner","inputs":[],"outputs":[{"name":"","type":"address","internalType":"address"}],"stateMutability":"view"},{"type":"function","name":"pendingOwner","inputs":[],"outputs":[{"name":"","type":"address","internalType":"address"}],"stateMutability":"view"},{"type":"function","name":"postAnchors","inputs":[{"name":"","type":"string","internalType":"string"}],"outputs":[{"name":"base","type":"tuple","internalType":"struct AnchorRegistry.AnchorBase","components":[{"name":"artifactType","type":"uint8","internalType":"enum AnchorRegistry.ArtifactType"},{"name":"manifestHash","type":"string","internalType":"string"},{"name":"parentHash","type":"string","internalType":"string"},{"name":"descriptor","type":"string","internalType":"string"}]},{"name":"platform","type":"string","internalType":"string"},{"name":"url","type":"string","internalType":"string"}],"stateMutability":"view"},{"type":"function","name":"proofAnchors","inputs":[{"name":"","type":"string","internalType":"string"}],"outputs":[{"name":"base","type":"tuple","internalType":"struct AnchorRegistry.AnchorBase","components":[{"name":"artifactType","type":"uint8","internalType":"enum AnchorRegistry.ArtifactType"},{"name":"manifestHash","type":"string","internalType":"string"},{"name":"parentHash","type":"string","internalType":"string"},{"name":"descriptor","type":"string","internalType":"string"}]},{"name":"proofType","type":"string","internalType":"string"},{"name":"proofSystem","type":"string","internalType":"string"},{"name":"verifierUrl","type":"string","internalType":"string"},{"name":"proofHash","type":"string","internalType":"string"}],"stateMutability":"view"},{"type":"function","name":"proofOperators","inputs":[{"name":"","type":"address","internalType":"address"}],"outputs":[{"name":"","type":"bool","internalType":"bool"}],"stateMutability":"view"},{"type":"function","name":"receiptAnchors","inputs":[{"name":"","type":"string","internalType":"string"}],"outputs":[{"name":"base","type":"tuple","internalType":"struct AnchorRegistry.AnchorBase","components":[{"name":"artifactType","type":"uint8","internalType":"enum AnchorRegistry.ArtifactType"},{"name":"manifestHash","type":"string","internalType":"string"},{"name":"parentHash","type":"string","internalType":"string"},{"name":"descriptor","type":"string","internalType":"string"}]},{"name":"receiptType","type":"string","internalType":"string"},{"name":"merchant","type":"string","internalType":"string"},{"name":"amount","type":"string","internalType":"string"},{"name":"currency","type":"string","internalType":"string"},{"name":"orderId","type":"string","internalType":"string"},{"name":"platform","type":"string","internalType":"string"},{"name":"url","type":"string","internalType":"string"}],"stateMutability":"view"},{"type":"function","name":"recoveryAddress","inputs":[],"outputs":[{"name":"","type":"address","internalType":"address"}],"stateMutability":"view"},{"type":"function","name":"recoveryInitiatedAt","inputs":[],"outputs":[{"name":"","type":"uint256","internalType":"uint256"}],"stateMutability":"view"},{"type":"function","name":"recoveryLockoutUntil","inputs":[],"outputs":[{"name":"","type":"uint256","internalType":"uint256"}],"stateMutability":"view"},{"type":"function","name":"registerAffirmed","inputs":[{"name":"arId","type":"string","internalType":"string"},{"name":"base","type":"tuple","internalType":"struct AnchorRegistry.AnchorBase","components":[{"name":"artifactType","type":"uint8","internalType":"enum AnchorRegistry.ArtifactType"},{"name":"manifestHash","type":"string","internalType":"string"},{"name":"parentHash","type":"string","internalType":"string"},{"name":"descriptor","type":"string","internalType":"string"}]},{"name":"targetArId","type":"string","internalType":"string"},{"name":"affirmedBy","type":"string","internalType":"string"},{"name":"findingUrl","type":"string","internalType":"string"}],"outputs":[],"stateMutability":"nonpayable"},{"type":"function","name":"registerAgent","inputs":[{"name":"arId","type":"string","internalType":"string"},{"name":"base","type":"tuple","internalType":"struct AnchorRegistry.AnchorBase","components":[{"name":"artifactType","type":"uint8","internalType":"enum AnchorRegistry.ArtifactType"},{"name":"manifestHash","type":"string","internalType":"string"},{"name":"parentHash","type":"string","internalType":"string"},{"name":"descriptor","type":"string","internalType":"string"}]},{"name":"agentVersion","type":"string","internalType":"string"},{"name":"url","type":"string","internalType":"string"}],"outputs":[],"stateMutability":"nonpayable"},{"type":"function","name":"registerCode","inputs":[{"name":"arId","type":"string","internalType":"string"},{"name":"base","type":"tuple","internalType":"struct AnchorRegistry.AnchorBase","components":[{"name":"artifactType","type":"uint8","internalType":"enum AnchorRegistry.ArtifactType"},{"name":"manifestHash","type":"string","internalType":"string"},{"name":"parentHash","type":"string","internalType":"string"},{"name":"descriptor","type":"string","internalType":"string"}]},{"name":"gitHash","type":"string","internalType":"string"},{"name":"license","type":"string","internalType":"string"},{"name":"url","type":"string","internalType":"string"}],"outputs":[],"stateMutability":"nonpayable"},{"type":"function","name":"registerData","inputs":[{"name":"arId","type":"string","internalType":"string"},{"name":"base","type":"tuple","internalType":"struct AnchorRegistry.AnchorBase","components":[{"name":"artifactType","type":"uint8","internalType":"enum AnchorRegistry.ArtifactType"},{"name":"manifestHash","type":"string","internalType":"string"},{"name":"parentHash","type":"string","internalType":"string"},{"name":"descriptor","type":"string","internalType":"string"}]},{"name":"dataVersion","type":"string","internalType":"string"},{"name":"url","type":"string","internalType":"string"}],"outputs":[],"stateMutability":"nonpayable"},{"type":"function","name":"registerEntity","inputs":[{"name":"arId","type":"string","internalType":"string"},{"name":"base","type":"tuple","internalType":"struct AnchorRegistry.AnchorBase","components":[{"name":"artifactType","type":"uint8","internalType":"enum AnchorRegistry.ArtifactType"},{"name":"manifestHash","type":"string","internalType":"string"},{"name":"parentHash","type":"string","internalType":"string"},{"name":"descriptor","type":"string","internalType":"string"}]},{"name":"entityType","type":"string","internalType":"string"},{"name":"entityDomain","type":"string","internalType":"string"},{"name":"verificationMethod","type":"string","internalType":"string"},{"name":"verificationProof","type":"string","internalType":"string"},{"name":"canonicalUrl","type":"string","internalType":"string"},{"name":"documentHash","type":"string","internalType":"string"}],"outputs":[],"stateMutability":"nonpayable"},{"type":"function","name":"registerLegal","inputs":[{"name":"arId","type":"string","internalType":"string"},{"name":"base","type":"tuple","internalType":"struct AnchorRegistry.AnchorBase","components":[{"name":"artifactType","type":"uint8","internalType":"enum AnchorRegistry.ArtifactType"},{"name":"manifestHash","type":"string","internalType":"string"},{"name":"parentHash","type":"string","internalType":"string"},{"name":"descriptor","type":"string","internalType":"string"}]},{"name":"docType","type":"string","internalType":"string"},{"name":"url","type":"string","internalType":"string"}],"outputs":[],"stateMutability":"nonpayable"},{"type":"function","name":"registerMedia","inputs":[{"name":"arId","type":"string","internalType":"string"},{"name":"base","type":"tuple","internalType":"struct AnchorRegistry.AnchorBase","components":[{"name":"artifactType","type":"uint8","internalType":"enum AnchorRegistry.ArtifactType"},{"name":"manifestHash","type":"string","internalType":"string"},{"name":"parentHash","type":"string","internalType":"string"},{"name":"descriptor","type":"string","internalType":"string"}]},{"name":"mediaType","type":"string","internalType":"string"},{"name":"url","type":"string","internalType":"string"}],"outputs":[],"stateMutability":"nonpayable"},{"type":"function","name":"registerModel","inputs":[{"name":"arId","type":"string","internalType":"string"},{"name":"base","type":"tuple","internalType":"struct AnchorRegistry.AnchorBase","components":[{"name":"artifactType","type":"uint8","internalType":"enum AnchorRegistry.ArtifactType"},{"name":"manifestHash","type":"string","internalType":"string"},{"name":"parentHash","type":"string","internalType":"string"},{"name":"descriptor","type":"string","internalType":"string"}]},{"name":"modelVersion","type":"string","internalType":"string"},{"name":"url","type":"string","internalType":"string"}],"outputs":[],"stateMutability":"nonpayable"},{"type":"function","name":"registerOnChain","inputs":[{"name":"arId","type":"string","internalType":"string"},{"name":"base","type":"tuple","internalType":"struct AnchorRegistry.AnchorBase","components":[{"name":"artifactType","type":"uint8","internalType":"enum AnchorRegistry.ArtifactType"},{"name":"manifestHash","type":"string","internalType":"string"},{"name":"parentHash","type":"string","internalType":"string"},{"name":"descriptor","type":"string","internalType":"string"}]},{"name":"chainId","type":"string","internalType":"string"},{"name":"assetType","type":"string","internalType":"string"},{"name":"assetId","type":"string","internalType":"string"},{"name":"url","type":"string","internalType":"string"}],"outputs":[],"stateMutability":"nonpayable"},{"type":"function","name":"registerOther","inputs":[{"name":"arId","type":"string","internalType":"string"},{"name":"base","type":"tuple","internalType":"struct AnchorRegistry.AnchorBase","components":[{"name":"artifactType","type":"uint8","internalType":"enum AnchorRegistry.ArtifactType"},{"name":"manifestHash","type":"string","internalType":"string"},{"name":"parentHash","type":"string","internalType":"string"},{"name":"descriptor","type":"string","internalType":"string"}]},{"name":"kind","type":"string","internalType":"string"},{"name":"platform","type":"string","internalType":"string"},{"name":"url","type":"string","internalType":"string"},{"name":"value","type":"string","internalType":"string"}],"outputs":[],"stateMutability":"nonpayable"},{"type":"function","name":"registerPost","inputs":[{"name":"arId","type":"string","internalType":"string"},{"name":"base","type":"tuple","internalType":"struct AnchorRegistry.AnchorBase","components":[{"name":"artifactType","type":"uint8","internalType":"enum AnchorRegistry.ArtifactType"},{"name":"manifestHash","type":"string","internalType":"string"},{"name":"parentHash","type":"string","internalType":"string"},{"name":"descriptor","type":"string","internalType":"string"}]},{"name":"platform","type":"string","internalType":"string"},{"name":"url","type":"string","internalType":"string"}],"outputs":[],"stateMutability":"nonpayable"},{"type":"function","name":"registerProof","inputs":[{"name":"arId","type":"string","internalType":"string"},{"name":"base","type":"tuple","internalType":"struct AnchorRegistry.AnchorBase","components":[{"name":"artifactType","type":"uint8","internalType":"enum AnchorRegistry.ArtifactType"},{"name":"manifestHash","type":"string","internalType":"string"},{"name":"parentHash","type":"string","internalType":"string"},{"name":"descriptor","type":"string","internalType":"string"}]},{"name":"proofType","type":"string","internalType":"string"},{"name":"proofSystem","type":"string","internalType":"string"},{"name":"verifierUrl","type":"string","internalType":"string"},{"name":"proofHash","type":"string","internalType":"string"}],"outputs":[],"stateMutability":"nonpayable"},{"type":"function","name":"registerReceipt","inputs":[{"name":"arId","type":"string","internalType":"string"},{"name":"base","type":"tuple","internalType":"struct AnchorRegistry.AnchorBase","components":[{"name":"artifactType","type":"uint8","internalType":"enum AnchorRegistry.ArtifactType"},{"name":"manifestHash","type":"string","internalType":"string"},{"name":"parentHash","type":"string","internalType":"string"},{"name":"descriptor","type":"string","internalType":"string"}]},{"name":"receiptType","type":"string","internalType":"string"},{"name":"merchant","type":"string","internalType":"string"},{"name":"amount","type":"string","internalType":"string"},{"name":"currency","type":"string","internalType":"string"},{"name":"orderId","type":"string","internalType":"string"},{"name":"platform","type":"string","internalType":"string"},{"name":"url","type":"string","internalType":"string"}],"outputs":[],"stateMutability":"nonpayable"},{"type":"function","name":"registerResearch","inputs":[{"name":"arId","type":"string","internalType":"string"},{"name":"base","type":"tuple","internalType":"struct AnchorRegistry.AnchorBase","components":[{"name":"artifactType","type":"uint8","internalType":"enum AnchorRegistry.ArtifactType"},{"name":"manifestHash","type":"string","internalType":"string"},{"name":"parentHash","type":"string","internalType":"string"},{"name":"descriptor","type":"string","internalType":"string"}]},{"name":"doi","type":"string","internalType":"string"},{"name":"url","type":"string","internalType":"string"}],"outputs":[],"stateMutability":"nonpayable"},{"type":"function","name":"registerRetraction","inputs":[{"name":"arId","type":"string","internalType":"string"},{"name":"base","type":"tuple","internalType":"struct AnchorRegistry.AnchorBase","components":[{"name":"artifactType","type":"uint8","internalType":"enum AnchorRegistry.ArtifactType"},{"name":"manifestHash","type":"string","internalType":"string"},{"name":"parentHash","type":"string","internalType":"string"},{"name":"descriptor","type":"string","internalType":"string"}]},{"name":"targetArId","type":"string","internalType":"string"},{"name":"reason","type":"string","internalType":"string"},{"name":"replacedBy","type":"string","internalType":"string"}],"outputs":[],"stateMutability":"nonpayable"},{"type":"function","name":"registerReview","inputs":[{"name":"arId","type":"string","internalType":"string"},{"name":"base","type":"tuple","internalType":"struct AnchorRegistry.AnchorBase","components":[{"name":"artifactType","type":"uint8","internalType":"enum AnchorRegistry.ArtifactType"},{"name":"manifestHash","type":"string","internalType":"string"},{"name":"parentHash","type":"string","internalType":"string"},{"name":"descriptor","type":"string","internalType":"string"}]},{"name":"targetArId","type":"string","internalType":"string"},{"name":"reviewType","type":"string","internalType":"string"},{"name":"evidenceUrl","type":"string","internalType":"string"}],"outputs":[],"stateMutability":"nonpayable"},{"type":"function","name":"registerText","inputs":[{"name":"arId","type":"string","internalType":"string"},{"name":"base","type":"tuple","internalType":"struct AnchorRegistry.AnchorBase","components":[{"name":"artifactType","type":"uint8","internalType":"enum AnchorRegistry.ArtifactType"},{"name":"manifestHash","type":"string","internalType":"string"},{"name":"parentHash","type":"string","internalType":"string"},{"name":"descriptor","type":"string","internalType":"string"}]},{"name":"url","type":"string","internalType":"string"}],"outputs":[],"stateMutability":"nonpayable"},{"type":"function","name":"registerVoid","inputs":[{"name":"arId","type":"string","internalType":"string"},{"name":"base","type":"tuple","internalType":"struct AnchorRegistry.AnchorBase","components":[{"name":"artifactType","type":"uint8","internalType":"enum AnchorRegistry.ArtifactType"},{"name":"manifestHash","type":"string","internalType":"string"},{"name":"parentHash","type":"string","internalType":"string"},{"name":"descriptor","type":"string","internalType":"string"}]},{"name":"targetArId","type":"string","internalType":"string"},{"name":"reviewArId","type":"string","internalType":"string"},{"name":"findingUrl","type":"string","internalType":"string"},{"name":"evidence","type":"string","internalType":"string"}],"outputs":[],"stateMutability":"nonpayable"},{"type":"function","name":"registered","inputs":[{"name":"","type":"string","internalType":"string"}],"outputs":[{"name":"","type":"bool","internalType":"bool"}],"stateMutability":"view"},{"type":"function","name":"removeEntityOperator","inputs":[{"name":"op","type":"address","internalType":"address"}],"outputs":[],"stateMutability":"nonpayable"},{"type":"function","name":"removeLegalOperator","inputs":[{"name":"op","type":"address","internalType":"address"}],"outputs":[],"stateMutability":"nonpayable"},{"type":"function","name":"removeOperator","inputs":[{"name":"op","type":"address","internalType":"address"}],"outputs":[],"stateMutability":"nonpayable"},{"type":"function","name":"removeProofOperator","inputs":[{"name":"op","type":"address","internalType":"address"}],"outputs":[],"stateMutability":"nonpayable"},{"type":"function","name":"researchAnchors","inputs":[{"name":"","type":"string","internalType":"string"}],"outputs":[{"name":"base","type":"tuple","internalType":"struct AnchorRegistry.AnchorBase","components":[{"name":"artifactType","type":"uint8","internalType":"enum AnchorRegistry.ArtifactType"},{"name":"manifestHash","type":"string","internalType":"string"},{"name":"parentHash","type":"string","internalType":"string"},{"name":"descriptor","type":"string","internalType":"string"}]},{"name":"doi","type":"string","internalType":"string"},{"name":"url","type":"string","internalType":"string"}],"stateMutability":"view"},{"type":"function","name":"retractionAnchors","inputs":[{"name":"","type":"string","internalType":"string"}],"outputs":[{"name":"base","type":"tuple","internalType":"struct AnchorRegistry.AnchorBase","components":[{"name":"artifactType","type":"uint8","internalType":"enum AnchorRegistry.ArtifactType"},{"name":"manifestHash","type":"string","internalType":"string"},{"name":"parentHash","type":"string","internalType":"string"},{"name":"descriptor","type":"string","internalType":"string"}]},{"name":"targetArId","type":"string","internalType":"string"},{"name":"reason","type":"string","internalType":"string"},{"name":"replacedBy","type":"string","internalType":"string"}],"stateMutability":"view"},{"type":"function","name":"reviewAnchors","inputs":[{"name":"","type":"string","internalType":"string"}],"outputs":[{"name":"base","type":"tuple","internalType":"struct AnchorRegistry.AnchorBase","components":[{"name":"artifactType","type":"uint8","internalType":"enum AnchorRegistry.ArtifactType"},{"name":"manifestHash","type":"string","internalType":"string"},{"name":"parentHash","type":"string","internalType":"string"},{"name":"descriptor","type":"string","internalType":"string"}]},{"name":"targetArId","type":"string","internalType":"string"},{"name":"reviewType","type":"string","internalType":"string"},{"name":"evidenceUrl","type":"string","internalType":"string"}],"stateMutability":"view"},{"type":"function","name":"setRecoveryAddress","inputs":[{"name":"_newRecovery","type":"address","internalType":"address"}],"outputs":[],"stateMutability":"nonpayable"},{"type":"function","name":"textAnchors","inputs":[{"name":"","type":"string","internalType":"string"}],"outputs":[{"name":"base","type":"tuple","internalType":"struct AnchorRegistry.AnchorBase","components":[{"name":"artifactType","type":"uint8","internalType":"enum AnchorRegistry.ArtifactType"},{"name":"manifestHash","type":"string","internalType":"string"},{"name":"parentHash","type":"string","internalType":"string"},{"name":"descriptor","type":"string","internalType":"string"}]},{"name":"url","type":"string","internalType":"string"}],"stateMutability":"view"},{"type":"function","name":"transferOwnership","inputs":[{"name":"newOwner","type":"address","internalType":"address"}],"outputs":[],"stateMutability":"nonpayable"},{"type":"function","name":"voidAnchors","inputs":[{"name":"","type":"string","internalType":"string"}],"outputs":[{"name":"base","type":"tuple","internalType":"struct AnchorRegistry.AnchorBase","components":[{"name":"artifactType","type":"uint8","internalType":"enum AnchorRegistry.ArtifactType"},{"name":"manifestHash","type":"string","internalType":"string"},{"name":"parentHash","type":"string","internalType":"string"},{"name":"descriptor","type":"string","internalType":"string"}]},{"name":"targetArId","type":"string","internalType":"string"},{"name":"reviewArId","type":"string","internalType":"string"},{"name":"findingUrl","type":"string","internalType":"string"},{"name":"evidence","type":"string","internalType":"string"}],"stateMutability":"view"},{"type":"event","name":"Affirmed","inputs":[{"name":"arId","type":"string","indexed":true,"internalType":"string"},{"name":"targetArId","type":"string","indexed":true,"internalType":"string"},{"name":"affirmedBy","type":"string","indexed":false,"internalType":"string"}],"anonymous":false},{"type":"event","name":"Anchored","inputs":[{"name":"arId","type":"string","indexed":true,"internalType":"string"},{"name":"registrant","type":"address","indexed":true,"internalType":"address"},{"name":"artifactType","type":"uint8","indexed":false,"internalType":"enum AnchorRegistry.ArtifactType"},{"name":"descriptor","type":"string","indexed":false,"internalType":"string"},{"name":"manifestHash","type":"string","indexed":false,"internalType":"string"},{"name":"parentHash","type":"string","indexed":false,"internalType":"string"}],"anonymous":false},{"type":"event","name":"EntityOperatorAdded","inputs":[{"name":"operator","type":"address","indexed":true,"internalType":"address"}],"anonymous":false},{"type":"event","name":"EntityOperatorRemoved","inputs":[{"name":"operator","type":"address","indexed":true,"internalType":"address"}],"anonymous":false},{"type":"event","name":"LegalOperatorAdded","inputs":[{"name":"operator","type":"address","indexed":true,"internalType":"address"}],"anonymous":false},{"type":"event","name":"LegalOperatorRemoved","inputs":[{"name":"operator","type":"address","indexed":true,"internalType":"address"}],"anonymous":false},{"type":"event","name":"OperatorAdded","inputs":[{"name":"operator","type":"address","indexed":true,"internalType":"address"}],"anonymous":false},{"type":"event","name":"OperatorRemoved","inputs":[{"name":"operator","type":"address","indexed":true,"internalType":"address"}],"anonymous":false},{"type":"event","name":"OwnershipTransferred","inputs":[{"name":"previousOwner","type":"address","indexed":true,"internalType":"address"},{"name":"newOwner","type":"address","indexed":true,"internalType":"address"}],"anonymous":false},{"type":"event","name":"ProofOperatorAdded","inputs":[{"name":"operator","type":"address","indexed":true,"internalType":"address"}],"anonymous":false},{"type":"event","name":"ProofOperatorRemoved","inputs":[{"name":"operator","type":"address","indexed":true,"internalType":"address"}],"anonymous":false},{"type":"event","name":"RecoveryAddressUpdated","inputs":[{"name":"newRecoveryAddress","type":"address","indexed":true,"internalType":"address"}],"anonymous":false},{"type":"event","name":"RecoveryCancelled","inputs":[],"anonymous":false},{"type":"event","name":"RecoveryExecuted","inputs":[{"name":"newOwner","type":"address","indexed":true,"internalType":"address"}],"anonymous":false},{"type":"event","name":"RecoveryInitiated","inputs":[{"name":"recoveryAddress","type":"address","indexed":true,"internalType":"address"},{"name":"pendingOwner","type":"address","indexed":true,"internalType":"address"}],"anonymous":false},{"type":"event","name":"Retracted","inputs":[{"name":"arId","type":"string","indexed":true,"internalType":"string"},{"name":"targetArId","type":"string","indexed":true,"internalType":"string"},{"name":"replacedBy","type":"string","indexed":false,"internalType":"string"}],"anonymous":false},{"type":"event","name":"Reviewed","inputs":[{"name":"arId","type":"string","indexed":true,"internalType":"string"},{"name":"targetArId","type":"string","indexed":true,"internalType":"string"},{"name":"reviewType","type":"string","indexed":false,"internalType":"string"},{"name":"evidenceUrl","type":"string","indexed":false,"internalType":"string"}],"anonymous":false},{"type":"event","name":"Voided","inputs":[{"name":"arId","type":"string","indexed":true,"internalType":"string"},{"name":"targetArId","type":"string","indexed":true,"internalType":"string"},{"name":"reviewArId","type":"string","indexed":true,"internalType":"string"},{"name":"evidence","type":"string","indexed":false,"internalType":"string"}],"anonymous":false},{"type":"error","name":"AlreadyRegistered","inputs":[{"name":"arId","type":"string","internalType":"string"}]},{"type":"error","name":"EmptyArId","inputs":[]},{"type":"error","name":"EmptyManifestHash","inputs":[]},{"type":"error","name":"EmptyTargetArId","inputs":[]},{"type":"error","name":"InvalidParent","inputs":[{"name":"parentHash","type":"string","internalType":"string"}]},{"type":"error","name":"InvalidTarget","inputs":[{"name":"targetArId","type":"string","internalType":"string"}]},{"type":"error","name":"NotEntityOperator","inputs":[]},{"type":"error","name":"NotLegalOperator","inputs":[]},{"type":"error","name":"NotOperator","inputs":[]},{"type":"error","name":"NotOwner","inputs":[]},{"type":"error","name":"NotProofOperator","inputs":[]},{"type":"error","name":"NotRecoveryAddress","inputs":[]},{"type":"error","name":"RecoveryDelayNotMet","inputs":[]},{"type":"error","name":"RecoveryLockedOut","inputs":[]},{"type":"error","name":"RecoveryNotInitiated","inputs":[]},{"type":"error","name":"ZeroAddress","inputs":[]}],"bytecode":{"object":"0x608034620000bd57601f620057ae38819003918201601f19168301916001600160401b03831184841017620000c157808492602094604052833981010312620000bd57516001600160a01b03811690819003620000bd578015620000ab5760018060a01b031933815f5416175f556001541617600155604051335f7f8be0079c531659141344cd1fd0a4f28419497f9722a3daafe3b4186f6b6457e08180a36156d89081620000d68239f35b60405163d92e233d60e01b8152600490fd5b5f80fd5b634e487b7160e01b5f52604160045260245ffdfe610100806040526004361015610013575f80fd5b5f3560e01c9081630ba234d614613b0057508063132171b014613ab857806313e7c9d814613a77578063144888ff14613a2f578063165d33fe146139e757806316aca5461461399f578063196fbf771461393c5780631cb655e7146138f45780631f3618bf146137d857806320727381146137bb57806320c5a3e1146136ce578063397c9a3a1461365b5780633ff98690146135cb578063402cef1b1461358a57806345f65cfa1461351757806347b45652146132e957806347be22fa146134fa57806347deec0d146134b257806349efe5ae146134445780634c5b2c50146133cd578063517f4dcf1461335157806351e39cee146132ee578063561ea99c146132e9578063573701f7146132a15780635bd47e10146132595780635cdd7b84146131f65780635d064b3a146131ae5780635d2d5c37146131605780636ae0dd9c1461311f5780636b6797c9146130ac5780636ba60e71146130425780636fe98d10146122da578063710eb26c146122b2578063717d1a851461226a578063762d408d14612222578063786ce0a014611cd15780637b207ae614611c245780637d15e15d14611bae578063864572be14611b4b5780638da5cb5b14611b2457806396ad272d14611adc5780639870d7fe14611a69578063ac8a584a146119ff578063acd1b4be1461198a578063b36cc39a14611901578063b643fcb314611897578063b91ef08414611856578063b99889221461171a578063bdd5a582146115d7578063d58817e6146114d2578063d5ce9aad14611431578063ddf841a9146113c7578063e002018714611364578063e0ac87b9146112da578063e30c3978146112b2578063e4cc22a1146111fd578063e600a0a0146110ed578063ecc8d0fc14611067578063ed540d2f14610fc1578063edf1677b146103525763f2fde38b146102bc575f80fd5b3461034e57602036600319011261034e576004356001600160a01b038181169182900361034e575f5490811680330361033c57821561032a5782907f8be0079c531659141344cd1fd0a4f28419497f9722a3daafe3b4186f6b6457e05f80a36001600160a01b031916175f55005b60405163d92e233d60e01b8152600490fd5b6040516330cd747160e01b8152600490fd5b5f80fd5b3461034e576003196101003682011261034e576004356001600160401b03811161034e57610384903690600401613ebb565b602435926001600160401b03841161034e57608090843603011261034e576044356001600160401b03811161034e576103c1903690600401613ebb565b6064356001600160401b03811161034e576103e0903690600401613ebb565b6084939193356001600160401b03811161034e57610402903690600401613ebb565b93909260a4356001600160401b03811161034e57610424903690600401613ebb565b91906001600160401b0360c4351161034e576104453660c435600401613ebb565b93909460e4356001600160401b03811161034e57610467903690600401613ebb565b989099335f52600460205260ff60405f20541615610faf576104908f8f908f9060040191615464565b60405160805260e06080510160805181106001600160401b03821117610962578f9c61051c9a6104e561052a9f99610501976104da61050f9c6104f3976040523690600401614112565b608051523691613bf3565b602060805101523691613bf3565b604060805101523691613bf3565b606060805101523691613bf3565b6080805101523691613bf3565b60a060805101523691613bf3565b60c060805101526040518183823760208183810160148152030190206080515180516012811015610f9b5760ff8019845416911617825560208101518051906001600160401b0382116109625781906105866001860154613c77565b601f8111610f48575b50602090601f8311600114610eda575f92610ecf575b50508160011b915f199060031b1c19161760018301555b60408101518051906001600160401b038211610962576105df6002850154613c77565b601f8111610e87575b50602090601f8311600114610e185760609392915f9183610e0d575b50508160011b915f199060031b1c19161760028401555b01518051906001600160401b03821161096257819061063d6003850154613c77565b601f8111610dbd575b50602090601f8311600114610d4f575f92610d44575b50508160011b915f199060031b1c19161760038201555b602060805101518051906001600160401b03821161096257819061069a6004850154613c77565b601f8111610cf1575b50602090601f8311600114610c83575f92610c78575b50508160011b915f199060031b1c19161760048201555b604060805101518051906001600160401b0382116109625781906106f76005850154613c77565b601f8111610c25575b50602090601f8311600114610bb7575f92610bac575b50508160011b915f199060031b1c19161760058201555b60068101606060805101518051906001600160401b0382116109625781906107558454613c77565b601f8111610b5c575b50602090601f8311600114610af8575f92610aed575b50508160011b915f199060031b1c19161790555b600781016080805101518051906001600160401b0382116109625781906107af8454613c77565b601f8111610a9d575b50602090601f8311600114610a39575f92610a2e575b50508160011b915f199060031b1c19161790555b6008810160a060805101518051906001600160401b038211610962576108088354613c77565b601f81116109e9575b50602090601f8311600114610981576009949392915f9183610976575b50508160011b915f199060031b1c19161790555b019260c06080510151938451946001600160401b038611610962576108678254613c77565b601f811161091d575b50602090601f87116001146108b6576108a996915f91836108ab575b50508160011b915f199060031b1c19161790555b60040191615565565b005b01519050878061088c565b90601f19871691835f5260205f20925f5b81811061090557509160019391896108a99a94106108ed575b505050811b0190556108a0565b01515f1960f88460031b161c191690558780806108e0565b929360206001819287860151815501950193016108c7565b825f5260205f20601f880160051c81019160208910610958575b601f0160051c01905b81811061094d5750610870565b5f8155600101610940565b9091508190610937565b634e487b7160e01b5f52604160045260245ffd5b01519050888061082e565b90601f19831691845f5260205f20925f5b8181106109d15750916001939185600998979694106109b9575b505050811b019055610842565b01515f1960f88460031b161c191690558880806109ac565b92936020600181928786015181550195019301610992565b835f5260205f20601f840160051c81019160208510610a24575b601f0160051c01905b818110610a195750610811565b5f8155600101610a0c565b9091508190610a03565b0151905087806107ce565b5f858152602081209350601f198516905b818110610a855750908460019594939210610a6d575b505050811b0190556107e2565b01515f1960f88460031b161c19169055878080610a60565b92936020600181928786015181550195019301610a4a565b909150835f5260205f20601f840160051c81019160208510610ae3575b90601f859493920160051c01905b818110610ad557506107b8565b5f8155849350600101610ac8565b9091508190610aba565b015190508780610774565b5f858152602081209350601f198516905b818110610b445750908460019594939210610b2c575b505050811b019055610788565b01515f1960f88460031b161c19169055878080610b1f565b92936020600181928786015181550195019301610b09565b909150835f5260205f20601f840160051c81019160208510610ba2575b90601f859493920160051c01905b818110610b94575061075e565b5f8155849350600101610b87565b9091508190610b79565b015190508680610716565b9250600584015f5260205f20905f935b601f1984168510610c0a576001945083601f19811610610bf2575b505050811b01600582015561072d565b01515f1960f88460031b161c19169055868080610be2565b81810151835560209485019460019093019290910190610bc7565b909150600584015f5260205f20601f840160051c81019160208510610c6e575b90601f859493920160051c01905b818110610c605750610700565b5f8155849350600101610c53565b9091508190610c45565b0151905086806106b9565b9250600484015f5260205f20905f935b601f1984168510610cd6576001945083601f19811610610cbe575b505050811b0160048201556106d0565b01515f1960f88460031b161c19169055868080610cae565b81810151835560209485019460019093019290910190610c93565b909150600484015f5260205f20601f840160051c81019160208510610d3a575b90601f859493920160051c01905b818110610d2c57506106a3565b5f8155849350600101610d1f565b9091508190610d11565b01519050868061065c565b9250600384015f5260205f20905f935b601f1984168510610da2576001945083601f19811610610d8a575b505050811b016003820155610673565b01515f1960f88460031b161c19169055868080610d7a565b81810151835560209485019460019093019290910190610d5f565b909150600384015f5260205f20601f840160051c810160208510610e06575b90849392915b601f830160051c82018110610df8575050610646565b5f8155859450600101610de2565b5080610ddc565b015190508880610604565b90600285015f5260205f20915f5b601f1985168110610e6f575091839160019360609695601f19811610610e57575b505050811b01600284015561061b565b01515f1960f88460031b161c19169055888080610e47565b91926020600181928685015181550194019201610e26565b600285015f5260205f20601f840160051c81019160208510610ec5575b601f0160051c01905b818110610eba57506105e8565b5f8155600101610ead565b9091508190610ea4565b0151905087806105a5565b9250600185015f5260205f20905f935b601f1984168510610f2d576001945083601f19811610610f15575b505050811b0160018301556105bc565b01515f1960f88460031b161c19169055878080610f05565b81810151835560209485019460019093019290910190610eea565b909150600185015f5260205f20601f840160051c81019160208510610f91575b90601f859493920160051c01905b818110610f83575061058f565b5f8155849350600101610f76565b9091508190610f68565b634e487b7160e01b5f52602160045260245ffd5b60405163ebee8ba760e01b8152600490fd5b3461034e57610fcf36613ee8565b91909592949394335f52600260205260ff60405f20541615611055576108a99661105093611025611031936110058a8a8a615464565b6040519561101287613b81565b61101c368c614112565b87523691613bf3565b60208501523691613bf3565b604082015260405184848237602081868101600b815203019020614196565b615565565b604051631f0853c160e21b8152600490fd5b3461034e57602036600319011261034e576004356001600160401b03811161034e57602061109c6110af923690600401613c38565b8160405193828580945193849201613c56565b810160138152030190206110c281613d51565b6110e96110dd60056110d660048601613caf565b9401613caf565b60405193849384613e84565b0390f35b3461034e57602036600319011261034e576004356001600160401b03811161034e57602061109c611122923690600401613c38565b8101601481520301902060e06110e961113a83613d51565b926111ef61114a60048301613caf565b916111e161115a60058301613caf565b6111d361116960068501613caf565b6111c561117860078701613caf565b936111b7611194600961118d60088b01613caf565b9901613caf565b996111a96040519e8f9e8f8181520190613dd9565b8d810360208f015290613db4565b908b820360408d0152613db4565b9089820360608b0152613db4565b908782036080890152613db4565b9085820360a0870152613db4565b9083820360c0850152613db4565b3461034e5761120b36614064565b919996959092989798335f52600260205260ff60405f20541615611055576108a99a61127b61125f976112939761126f6110509b8f978f8f9961125581611266936112879d615464565b6040519e8f613bb7565b3690614112565b8d523691613bf3565b60208b01523691613bf3565b60408801523691613bf3565b60608501523691613bf3565b608082015260405184848237602081868101601a815203019020614d13565b3461034e575f36600319011261034e576008546040516001600160a01b039091168152602090f35b3461034e57602036600319011261034e576004356001600160401b03811161034e57602061109c61130f923690600401613c38565b8101601881520301902061132281613d51565b6110e961133160048401613caf565b9261133e60058201613caf565b90611357600761135060068401613caf565b9201613caf565b9160405195869586613e29565b3461034e5761137236613ee8565b91909592949394335f52600260205260ff60405f20541615611055576108a996611050936110256113a8936110058a8a8a615464565b604082015260405184848237602081868101600d815203019020614196565b3461034e57602036600319011261034e576004356001600160a01b038181169182900361034e575f5416330361033c57805f52600460205260405f2060ff1981541690557fb3995d3ad0a4cb17193137b6b470c2eda6bbf6d63f3d135f197fc4cdeedc27905f80a2005b3461034e57602036600319011261034e576004356001600160a01b038181169182900361034e57600154168033036114c057811561032a5760075442106114ae57600880546001600160a01b03191683179055426006557fe7eb1bf44bc7e6084d5d89f19e76a2b46fed60ff3eb9e650f3db79a386391c615f80a3005b6040516333ca6ceb60e21b8152600490fd5b6040516320a6214d60e21b8152600490fd5b3461034e576114e036613f6a565b97919094969295335f52600260205260ff60405f2054161561105557611590611597926115617faf0c98c5c4879ef897a044cdac758c7bd233c9d4ac8cdbb360f44280e7b0047d99611533858989615464565b61153d898d615643565b6040519261154a84613b9c565b6115543687614112565b8452611025368b8f613bf3565b6040820152611571368c8a613bf3565b60608201526040518686823760208188810160168152030190206146d6565b8383615565565b81604051928392833781015f81520390209381604051928392833781015f8152039020936115d2604051928392602084526020840191614cf3565b0390a3005b3461034e57602036600319011261034e576004356001600160401b03811161034e57611607903690600401613c38565b604051818180935160208193019161161e92613c56565b81016012815203602001902061163381613d51565b61163f60048301613caf565b9161164c60058201613caf565b9061165960068201613caf565b61166560078301613caf565b61167160088401613caf565b9161167e60098501613caf565b93600a0161168b90613caf565b94604051978897610100808a5289016116a391613dd9565b88810360208a01526116b491613db4565b87810360408901526116c591613db4565b86810360608801526116d691613db4565b85810360808701526116e791613db4565b84810360a08601526116f891613db4565b83810360c085015261170991613db4565b82810360e08401526110e991613db4565b3461034e5761172836614064565b9991969798929095939498335f52600260205260ff60405f2054161561105557611590896117d5611804947f07c9fc4ac9266376cb17afdcee0f23f0f5abaf32dab736c7d891c595d39725bd9b6117c98f611784888c8c615464565b61178e8c87615643565b6117988d82615643565b6117bc604051966117a888613bb7565b6117b2368b614112565b88528d3691613bf3565b60208701528c3691613bf3565b60408501523691613bf3565b60608201526117e5368e8b613bf3565b6080820152604051868682376020818881016018815203019020614d13565b81604051928392833781015f81520390209481604051928392833781015f81520390209481604051928392833781015f815203902094611851604051928392602084526020840191614cf3565b0390a4005b3461034e57602036600319011261034e576004356001600160a01b0381169081900361034e575f526003602052602060ff60405f2054166040519015158152f35b3461034e57602036600319011261034e576004356001600160a01b038181169182900361034e575f5416330361033c57805f52600560205260405f2060ff1981541690557fc28840c72026297551adaf2f67ff2d6aca1b2c4ed12cf5023d94ba7076e75a095f80a2005b3461034e5761190f36614064565b919996959092989798335f52600560205260ff60405f20541615611978576108a99a61127b61125f976119599761126f6110509b8f978f8f9961125581611266936112879d615464565b6080820152604051848482376020818681016015815203019020614d13565b60405163b601a68d60e01b8152600490fd5b3461034e5761199836613ee8565b91909592949394335f52600360205260ff60405f205416156119ed576108a996611050936110256119ce936110058a8a8a615464565b6040820152604051848482376020818681016013815203019020614196565b604051633b4d583360e21b8152600490fd5b3461034e57602036600319011261034e576004356001600160a01b038181169182900361034e575f5416330361033c57805f52600260205260405f2060ff1981541690557f80c0b871b97b595b16a7741c1b06fed0c6f6f558639f18ccbce50724325dc40d5f80a2005b3461034e57602036600319011261034e576004356001600160a01b038181169182900361034e575f5416330361033c57801561032a57805f52600260205260405f20600160ff198254161790557fac6fa858e9350a46cec16539926e0fde25b7629f84b5a72bffaae4df888ae86d5f80a2005b3461034e57602036600319011261034e576004356001600160401b03811161034e57602061109c611b11923690600401613c38565b8101601181520301902061132281613d51565b3461034e575f36600319011261034e575f546040516001600160a01b039091168152602090f35b3461034e57611b5936613ee8565b91909592949394335f52600260205260ff60405f20541615611055576108a99661105093611025611b8f936110058a8a8a615464565b604082015260405184848237602081868101600e815203019020614196565b3461034e57602036600319011261034e576004356001600160401b03811161034e57602061109c611be3923690600401613c38565b81016016815203019020611bf681613d51565b6110e9611c0560048401613caf565b92611c17600661135060058401613caf565b906040519485948561401c565b3461034e57611c3236613f6a565b9597919796929496335f52600260205260ff60405f205416156110555761159088611cb2611597947fa62ae18c8132954544e02a502215888bdc7d7df53e52873d79a81f91544f2dba9a6117c98e611c8b888c8c615464565b611c958c87615643565b611ca5604051966117a888613b9c565b602087015236908d613bf3565b60608201526040518686823760208188810160198152030190206146d6565b3461034e5760031960603682011261034e576001600160401b039060043582811161034e57611d04903690600401613ebb565b90602480359385851161034e5760809085600401953603011261034e5760443585811161034e57611d39903690600401613ebb565b90335f526020906002825260ff60405f2054161561105557611d5c878787615464565b60405192604084018481108a82111761207957604052611d8a9190611d81368a614112565b85523691613bf3565b92818301938452604051868682378281888101600f8152030190209251918251601281101561220f5760ff8019865416911617845560019384810193828101519485518c81116120795780611ddf8354613c77565b97601f988981116121c1575b508690898311600114612162575f92612157575b50505f19600383901b1c191690881b1790555b6002820160408201518051908d8211612144578190611e318454613c77565b8981116120f6575b508690898311600114612097575f9261208c575b50505f19600383901b1c191690881b1790555b60600151805160038301918c821161207957611e7c8354613c77565b878111612036575b508490878311600114611fd2576004949392915f9183611fc7575b50505f19600383901b1c191690881b1790555b019451918251998a11611fb45750611eca8554613c77565b838111611f71575b5080928911600114611f0e57506108a997925f92849283611f03575b50501b915f199060031b1c1916179055615565565b015192508980611eee565b909791601f19831698855f52825f20925f905b8b8210611f5a575050836108a99a10611f42575b505050811b019055615565565b01515f1960f88460031b161c19169055878080611f35565b808785968294968601518155019501930190611f21565b855f52815f2084808c0160051c820192848d10611fab575b0160051c019085905b828110611fa0575050611ed2565b5f8155018590611f92565b92508192611f89565b634e487b7160e01b5f9081526041600452fd5b015190508e80611e9f565b9392918891601f19821690845f52875f20915f5b89828210612020575050968360049810612008575b505050811b019055611eb2565b01515f1960f88460031b161c191690558e8080611ffb565b838a015185558d96909401939283019201611fe6565b835f52855f208880850160051c820192888610612070575b0160051c019089905b828110612065575050611e84565b5f8155018990612057565b9250819261204e565b85634e487b7160e01b5f5260416004525ffd5b015190508e80611e4d565b908a9350601f19831691855f52885f20925f5b8a8282106120e057505084116120c8575b505050811b019055611e60565b01515f1960f88460031b161c191690558e80806120bb565b8385015186558e979095019493840193016120aa565b909150835f52865f208980850160051c82019289861061213b575b918c91869594930160051c01915b82811061212d575050611e39565b5f81558594508c910161211f565b92508192612111565b86634e487b7160e01b5f5260416004525ffd5b015190508e80611dff565b908a9350601f19831691855f52885f20925f5b8a8282106121ab5750508411612193575b505050811b019055611e12565b01515f1960f88460031b161c191690558e8080612186565b8385015186558e97909501949384019301612175565b909150835f52865f208980850160051c820192898610612206575b918c91869594930160051c01915b8281106121f8575050611deb565b5f81558594508c91016121ea565b925081926121dc565b82634e487b7160e01b5f5260216004525ffd5b3461034e57602036600319011261034e576004356001600160401b03811161034e57602061109c612257923690600401613c38565b8101600e8152030190206110c281613d51565b3461034e57602036600319011261034e576004356001600160401b03811161034e57602061109c61229f923690600401613c38565b8101600b8152030190206110c281613d51565b3461034e575f36600319011261034e576001546040516001600160a01b039091168152602090f35b3461034e576003196101203682011261034e576004356001600160401b03811161034e5761230c903690600401613ebb565b9060a05290602435906001600160401b03821161034e57608090823603011261034e576044356001600160401b03811161034e5761234e903690600401613ebb565b906064356001600160401b03811161034e5761236e903690600401613ebb565b9190926084356001600160401b03811161034e57612390903690600401613ebb565b94909360a4356001600160401b03811161034e576123b2903690600401613ebb565b60e0529160c4356001600160401b03811161034e576123d5903690600401613ebb565b60e4356001600160401b03811161034e576123f4903690600401613ebb565b949095610104356001600160401b03811161034e57612417903690600401613ebb565b99909a335f52600260205260ff60405f20541615611055576124408f8f6004019060a051615464565b60405160c08190526001600160401b036101008201908111911117610962576124f39c6124ab8f986124ca9661249d6124b9966124e69f6124926124d89e61010060c051016040523690600401614112565b60c051523691613bf3565b602060c05101523691613bf3565b604060c05101523691613bf3565b60c0516060015260e0513691613bf3565b608060c05101523691613bf3565b60a060c05101523691613bf3565b60c0805101523691613bf3565b60e060c05101526040518260a051823760208184810160128152030190209160c0515180516012811015610f9b5760ff8019865416911617845560208101518051906001600160401b0382116109625781906125526001880154613c77565b601f8111612ff2575b50602090601f8311600114612f84575f92612f79575b50508160011b915f199060031b1c19161760018501555b60408101518051906001600160401b038211610962576125ab6002870154613c77565b601f8111612f35575b50602090601f8311600114612ec65760609392915f9183612ebb575b50508160011b915f199060031b1c19161760028601555b01519283516001600160401b038111610962576126076003830154613c77565b601f8111612e77575b506020601f8211600114612e0c5781929394955f92612e01575b50508160011b915f199060031b1c19161760038201555b602060c05101519283516001600160401b038111610962576126666004840154613c77565b601f8111612db9575b506020601f8211600114612d4e5781929394955f92612d43575b50508160011b915f199060031b1c19161760048301555b604060c05101519283516001600160401b038111610962576126c56005850154613c77565b601f8111612cfb575b506020601f8211600114612c905781929394955f92612c85575b50508160011b915f199060031b1c19161760058401555b606060c05101519283516001600160401b038111610962576127246006830154613c77565b601f8111612c3d575b506020601f8211600114612bd25781929394955f92612bc7575b50508160011b915f199060031b1c19161760068201555b60078101608060c05101518051906001600160401b0382116109625781906127868454613c77565b601f8111612b77575b50602090601f8311600114612b13575f92612b08575b50508160011b915f199060031b1c19161790555b6008810160a060c05101518051906001600160401b0382116109625781906127e18454613c77565b601f8111612ab8575b50602090601f8311600114612a54575f92612a49575b50508160011b915f199060031b1c19161790555b6009810160c0805101518051906001600160401b038211610962576128398354613c77565b601f8111612a04575b50602090601f831160011461299c57600a949392915f9183612991575b50508160011b915f199060031b1c19161790555b019160e060c05101519283516001600160401b038111610962576128978254613c77565b601f811161294c575b506020601f82116001146128e65781906108a9965f926128db575b50508160011b915f199060031b1c19161790555b6004019060a051615565565b0151905086806128bb565b601f19821695835f5260205f20965f5b8181106129345750916108a9979184600195941061291c575b505050811b0190556128cf565b01515f1960f88460031b161c1916905586808061290f565b838301518955600190980197602093840193016128f6565b825f5260205f20601f830160051c81019160208410612987575b601f0160051c01905b81811061297c57506128a0565b5f815560010161296f565b9091508190612966565b01519050878061285f565b90601f19831691845f5260205f20925f5b8181106129ec5750916001939185600a98979694106129d4575b505050811b019055612873565b01515f1960f88460031b161c191690558780806129c7565b929360206001819287860151815501950193016129ad565b835f5260205f20601f840160051c81019160208510612a3f575b601f0160051c01905b818110612a345750612842565b5f8155600101612a27565b9091508190612a1e565b015190508680612800565b5f858152602081209350601f198516905b818110612aa05750908460019594939210612a88575b505050811b019055612814565b01515f1960f88460031b161c19169055868080612a7b565b92936020600181928786015181550195019301612a65565b909150835f5260205f20601f840160051c81019160208510612afe575b90601f859493920160051c01905b818110612af057506127ea565b5f8155849350600101612ae3565b9091508190612ad5565b0151905086806127a5565b5f858152602081209350601f198516905b818110612b5f5750908460019594939210612b47575b505050811b0190556127b9565b01515f1960f88460031b161c19169055868080612b3a565b92936020600181928786015181550195019301612b24565b909150835f5260205f20601f840160051c81019160208510612bbd575b90601f859493920160051c01905b818110612baf575061278f565b5f8155849350600101612ba2565b9091508190612b94565b015190508580612747565b600683015f5260205f20905f5b601f1984168110612c25575060019394959683601f19811610612c0d575b505050811b01600682015561275e565b01515f1960f88460031b161c19169055858080612bfd565b9091602060018192858b015181550193019101612bdf565b600683015f5260205f20601f830160051c81019160208410612c7b575b601f0160051c01905b818110612c70575061272d565b5f8155600101612c63565b9091508190612c5a565b0151905085806126e8565b600585015f5260205f20905f5b601f1984168110612ce3575060019394959683601f19811610612ccb575b505050811b0160058401556126ff565b01515f1960f88460031b161c19169055858080612cbb565b9091602060018192858b015181550193019101612c9d565b600585015f5260205f20601f830160051c81019160208410612d39575b601f0160051c01905b818110612d2e57506126ce565b5f8155600101612d21565b9091508190612d18565b015190508580612689565b600484015f5260205f20905f5b601f1984168110612da1575060019394959683601f19811610612d89575b505050811b0160048301556126a0565b01515f1960f88460031b161c19169055858080612d79565b9091602060018192858b015181550193019101612d5b565b600484015f5260205f20601f830160051c81019160208410612df7575b601f0160051c01905b818110612dec575061266f565b5f8155600101612ddf565b9091508190612dd6565b01519050858061262a565b600383015f5260205f20905f5b601f1984168110612e5f575060019394959683601f19811610612e47575b505050811b016003820155612641565b01515f1960f88460031b161c19169055858080612e37565b9091602060018192858b015181550193019101612e19565b600383015f5260205f20601f830160051c810160208410612eb4575b601f830160051c82018110612ea9575050612610565b5f8155600101612e93565b5080612e93565b0151905087806125d0565b90600287015f5260205f20915f5b601f1985168110612f1d575091839160019360609695601f19811610612f05575b505050811b0160028601556125e7565b01515f1960f88460031b161c19169055878080612ef5565b91926020600181928685015181550194019201612ed4565b600287015f5260205f20601f840160051c810160208510612f72575b601f830160051c82018110612f675750506125b4565b5f8155600101612f51565b5080612f51565b015190508680612571565b9250600187015f5260205f20905f935b601f1984168510612fd7576001945083601f19811610612fbf575b505050811b016001850155612588565b01515f1960f88460031b161c19169055868080612faf565b81810151835560209485019460019093019290910190612f94565b909150600187015f5260205f20601f840160051c81016020851061303b575b90849392915b601f830160051c8201811061302d57505061255b565b5f8155859450600101613017565b5080613011565b3461034e57602036600319011261034e576004356001600160a01b038181169182900361034e575f5416330361033c57805f52600360205260405f2060ff1981541690557f6b66d1bba82a11aca959b4321a690cd67c826fb136617127d12973beb6957b335f80a2005b3461034e57602036600319011261034e576004356001600160a01b038181169182900361034e575f5416330361033c57801561032a57805f52600560205260405f20600160ff198254161790557f5bfe4ffbe756ad2df32059678eca22cadff8ecb3440f958eae6ff7b2d436e1ba5f80a2005b3461034e57602036600319011261034e576004356001600160a01b0381169081900361034e575f526004602052602060ff60405f2054166040519015158152f35b3461034e57602036600319011261034e576004356001600160401b03811161034e5760ff613198602061109c81943690600401613c38565b8101601b81520301902054166040519015158152f35b3461034e57602036600319011261034e576004356001600160401b03811161034e57602061109c6131e3923690600401613c38565b81016017815203019020611bf681613d51565b3461034e5761320436613ee8565b91909592949394335f52600260205260ff60405f20541615611055576108a9966110509361102561323a936110058a8a8a615464565b604082015260405184848237602081868101600c815203019020614196565b3461034e57602036600319011261034e576004356001600160401b03811161034e57602061109c61328e923690600401613c38565b8101601a81520301902061132281613d51565b3461034e57602036600319011261034e576004356001600160401b03811161034e57602061109c6132d6923690600401613c38565b81016009815203019020611bf681613d51565b613fff565b3461034e576132fc36613ee8565b91909592949394335f52600260205260ff60405f20541615611055576108a99661105093611025613332936110058a8a8a615464565b604082015260405184848237602081868101600a815203019020614196565b3461034e57602036600319011261034e576004356001600160401b03811161034e57613389602061109c6133bf933690600401613c38565b8101600f8152030190206110e96133ab60046133a484613d51565b9301613caf565b604051938493604085526040850190613dd9565b908382036020850152613db4565b3461034e576133db36614064565b919996959092989798335f52600260205260ff60405f20541615611055576108a99a61127b61125f976134259761126f6110509b8f978f8f9961125581611266936112879d615464565b6080820152604051848482376020818681016011815203019020614d13565b3461034e57602036600319011261034e576004356001600160a01b038181169182900361034e5760015490811633036114c057811561032a576001600160a01b03191681176001557f83c14e1947c5a639434d6195a6e9d85ab3471a5049c66e0aa46b71e2c0a06dde5f80a2005b3461034e57602036600319011261034e576004356001600160401b03811161034e57602061109c6134e7923690600401613c38565b81016019815203019020611bf681613d51565b3461034e575f36600319011261034e576020600754604051908152f35b3461034e57602036600319011261034e576004356001600160a01b038181169182900361034e575f5416330361033c57801561032a57805f52600360205260405f20600160ff198254161790557f6d52a43c5decf356b1093e9f3b6beb1eb8f9f3f333a8f13171e1d89c143c45755f80a2005b3461034e57602036600319011261034e576004356001600160a01b0381169081900361034e575f526005602052602060ff60405f2054166040519015158152f35b3461034e576135d936613f6a565b97949796959693919293335f52600260205260ff60405f20541615611055576117c96110509589956136306108a99c61363c976136178a8e8e615464565b6136276040519a61125f8c613b9c565b8a523691613bf3565b60208801523691613bf3565b60608201526040518484823760208186810160098152030190206146d6565b3461034e57602036600319011261034e576004356001600160a01b038181169182900361034e575f5416330361033c57801561032a57805f52600460205260405f20600160ff198254161790557f65e52bd3fb1902d00941506c0a765dfad293c8c4d5851c7a4dc55ad5d60ff5e35f80a2005b3461034e575f36600319011261034e576001546001600160a01b0390811633036114c05760065480156137a95762093a808101809111613795574210613783575f54600854828116809383167f8be0079c531659141344cd1fd0a4f28419497f9722a3daafe3b4186f6b6457e05f80a3826bffffffffffffffffffffffff60a01b809316175f55166008555f6006557ffcd2de31341801b7fd80895c780aae50c1505fd674ff1b9b9764c56c633434d65f80a2005b604051634b362d4f60e01b8152600490fd5b634e487b7160e01b5f52601160045260245ffd5b60405163078591a760e11b8152600490fd5b3461034e575f36600319011261034e576020600654604051908152f35b3461034e576137e636613f6a565b979592949693909193335f52600260205260ff60405f2054161561105557866138ab856115908b61388c8e6138416115d29b7f4c008f49c3178c1ce0fb3c86aed7d2e80aca376ed1476947ca5a220f45e9a5089f8a90615464565b61384b8984615643565b61386f6040519361385b85613b9c565b6138653688614112565b85528a3691613bf3565b602084015261387f368d8f613bf3565b604084015236908a613bf3565b60608201526040518686823760208188810160178152030190206146d6565b81604051928392833781015f81520390209681604051928392833781015f8152039020966138e6604051958695604087526040870191614cf3565b918483036020860152614cf3565b3461034e57602036600319011261034e576004356001600160401b03811161034e57602061109c613929923690600401613c38565b810160108152030190206110c281613d51565b3461034e5761394a36613ee8565b91909592949394335f52600260205260ff60405f20541615611055576108a99661105093611025613980936110058a8a8a615464565b6040820152604051848482376020818681016010815203019020614196565b3461034e57602036600319011261034e576004356001600160401b03811161034e57602061109c6139d4923690600401613c38565b8101600c8152030190206110c281613d51565b3461034e57602036600319011261034e576004356001600160401b03811161034e57602061109c613a1c923690600401613c38565b8101600a8152030190206110c281613d51565b3461034e57602036600319011261034e576004356001600160401b03811161034e57602061109c613a64923690600401613c38565b8101600d8152030190206110c281613d51565b3461034e57602036600319011261034e576004356001600160a01b0381169081900361034e575f526002602052602060ff60405f2054166040519015158152f35b3461034e57602036600319011261034e576004356001600160401b03811161034e57602061109c613aed923690600401613c38565b8101601581520301902061132281613d51565b3461034e575f36600319011261034e575f546001600160a01b03163303613b72576bffffffffffffffffffffffff60a01b600854166008555f60065562093a804201804211613795576007557fedd770ee01b7c0ef4f503125eafdc2725536cbf32342dffcaa300d95a7cafce35f80a1005b6330cd747160e01b8152600490fd5b606081019081106001600160401b0382111761096257604052565b608081019081106001600160401b0382111761096257604052565b60a081019081106001600160401b0382111761096257604052565b90601f801991011681019081106001600160401b0382111761096257604052565b9291926001600160401b0382116109625760405191613c1c601f8201601f191660200184613bd2565b82948184528183011161034e578281602093845f960137010152565b9080601f8301121561034e57816020613c5393359101613bf3565b90565b5f5b838110613c675750505f910152565b8181015183820152602001613c58565b90600182811c92168015613ca5575b6020831014613c9157565b634e487b7160e01b5f52602260045260245ffd5b91607f1691613c86565b9060405191825f8254613cc181613c77565b908184526020946001916001811690815f14613d2f5750600114613cf1575b505050613cef92500383613bd2565b565b5f90815285812095935091905b818310613d17575050613cef93508201015f8080613ce0565b85548884018501529485019487945091830191613cfe565b92505050613cef94925060ff191682840152151560051b8201015f8080613ce0565b90604051613d5e81613b9c565b809260ff815416906012821015610f9b576003613da2916060938552613d8660018201613caf565b6020860152613d9760028201613caf565b604086015201613caf565b910152565b906012821015610f9b5752565b90602091613dcd81518092818552858086019101613c56565b601f01601f1916010190565b613c5391613de8818351613da7565b6060613e18613e066020850151608060208601526080850190613db4565b60408501518482036040860152613db4565b920151906060818403910152613db4565b9390613c539593613e5a613e7694613e4c613e689460a08a5260a08a0190613dd9565b9088820360208a0152613db4565b908682036040880152613db4565b908482036060860152613db4565b916080818403910152613db4565b91613ead90613e9f613c539593606086526060860190613dd9565b908482036020860152613db4565b916040818403910152613db4565b9181601f8401121561034e578235916001600160401b03831161034e576020838186019501011161034e57565b906003199060808284011261034e576001600160401b0360043581811161034e5784613f1691600401613ebb565b949094936024359083821161034e57608090828403011261034e576004019260443583811161034e5782613f4c91600401613ebb565b9390939260643591821161034e57613f6691600401613ebb565b9091565b906003199060a08284011261034e576001600160401b03906004803583811161034e5785613f99918301613ebb565b959095946024359085821161034e57608090828403011261034e5782019360443581811161034e5782613fcd918501613ebb565b9490949360643583811161034e5784613fe7918301613ebb565b9490949360843590811161034e57613f669201613ebb565b3461034e575f36600319011261034e57602060405162093a808152f35b92614048613c53959361403a61405694608088526080880190613dd9565b908682036020880152613db4565b908482036040860152613db4565b916060818403910152613db4565b6003199060c08183011261034e576004906001600160401b03823581811161034e5782614092918501613ebb565b959095946024359083821161034e57608090828603011261034e5784019360443583811161034e57846140c6918301613ebb565b9490949360643581811161034e57826140e0918501613ebb565b9490949360843583811161034e57846140fa918301613ebb565b9490949360a43590811161034e57613f669201613ebb565b919060808382031261034e576040519061412b82613b9c565b81938035601281101561034e5783526001600160401b0391602082013583811161034e578161415b918401613c38565b6020850152604082013583811161034e5781614178918401613c38565b6040850152606082013592831161034e57606092613da29201613c38565b81519081516012811015610f9b5760ff8019835416911617815560019182820191602080830151918251946001600160401b039586811161096257806141dc8354613c77565b95601f96878111614688575b508590878311600114614629575f9261461e575b50505f19600383901b1c191690881b1790555b60028101604085015180519087821161096257819061422e8454613c77565b8781116145d0575b508590878311600114614571575f92614566575b50505f19600383901b1c191690881b1790555b600393606085830191015180519087821161096257819061427e8454613c77565b878111614518575b5085908783116001146144ba575f926144af575b50505f1982881b1c191690881b1790555b6004810182880151805190878211610962576142c78354613c77565b86811161446c575b50849086831160011461440357918060059492604096945f926143f8575b50505f19828a1b1c1916908a1b1790555b01960151908151948511610962576143168754613c77565b8381116143b5575b508092851160011461435357509383949184925f95614348575b50501b925f19911b1c1916179055565b015193505f80614338565b92919084601f198116885f52855f20955f905b8983831061439b5750505010614382575b50505050811b019055565b01519060f8845f19921b161c191690555f808080614377565b858701518955909701969485019488935090810190614366565b875f52815f208480880160051c8201928489106143ef575b0160051c019087905b8281106143e457505061431e565b5f81550187906143d6565b925081926143cd565b015190505f806142ed565b899291601f19831691855f52875f20925f5b89828210614456575050916040979593918560059896941061443f575b505050811b0190556142fe565b01515f19838c1b60f8161c191690555f8080614432565b8385015186558e97909501949384019301614415565b835f52855f208780850160051c8201928886106144a6575b0160051c01908a905b82811061449b5750506142cf565b5f8155018a9061448d565b92508192614484565b015190505f8061429a565b908a9350601f19831691855f52875f20925f5b8982821061450257505084116144eb575b505050811b0190556142ab565b01515f19838a1b60f8161c191690555f80806144de565b8385015186558e979095019493840193016144cd565b909150835f52855f208780850160051c82019288861061455d575b918c91869594930160051c01915b82811061454f575050614286565b5f81558594508c9101614541565b92508192614533565b015190505f8061424a565b908a9350601f19831691855f52875f20925f5b898282106145ba57505084116145a2575b505050811b01905561425d565b01515f1960f88460031b161c191690555f8080614595565b8385015186558e97909501949384019301614584565b909150835f52855f208780850160051c820192888610614615575b918c91869594930160051c01915b828110614607575050614236565b5f81558594508c91016145f9565b925081926145eb565b015190505f806141fc565b908a9350601f19831691855f52875f20925f5b89828210614672575050841161465a575b505050811b01905561420f565b01515f1960f88460031b161c191690555f808061464d565b8385015186558e9790950194938401930161463c565b909150835f52855f208780850160051c8201928886106146cd575b918c91869594930160051c01915b8281106146bf5750506141e8565b5f81558594508c91016146b1565b925081926146a3565b81519081516012811015610f9b5760ff8019835416911617815560019182820191602080830151918251946001600160401b0395868111610962578061471c8354613c77565b95601f96878111614ca5575b508590878311600114614c46575f92614c3b575b50505f19600383901b1c191690881b1790555b60028101604085015180519087821161096257819061476e8454613c77565b878111614bed575b508590878311600114614b8e575f92614b83575b50505f19600383901b1c191690881b1790555b60039360608583019101518051908782116109625781906147be8454613c77565b878111614b35575b508590878311600114614ad7575f92614acc575b50505f1982881b1c191690881b1790555b60048101828801518051908782116109625781906148098454613c77565b878111614a7e575b508590878311600114614a20575f92614a15575b50505f1982881b1c191690881b1790555b600581016040880151805190878211610962576148538354613c77565b8681116149d2575b50849086831160011461496957918060069492606096945f9261495e575b50505f19828a1b1c1916908a1b1790555b01960151908151948511610962576148a28754613c77565b83811161491b575b50809285116001146148d357509383949184925f956143485750501b925f19911b1c1916179055565b92919084601f198116885f52855f20955f905b8983831061490157505050106143825750505050811b019055565b8587015189559097019694850194889350908101906148e6565b875f52815f208480880160051c820192848910614955575b0160051c019087905b82811061494a5750506148aa565b5f815501879061493c565b92508192614933565b015190505f80614879565b899291601f19831691855f52875f20925f5b898282106149bc57505091606097959391856006989694106149a5575b505050811b01905561488a565b01515f19838c1b60f8161c191690555f8080614998565b8385015186558e9790950194938401930161497b565b835f52855f208780850160051c820192888610614a0c575b0160051c01908a905b828110614a0157505061485b565b5f8155018a906149f3565b925081926149ea565b015190505f80614825565b908a9350601f19831691855f52875f20925f5b89828210614a685750508411614a51575b505050811b019055614836565b01515f19838a1b60f8161c191690555f8080614a44565b8385015186558e97909501949384019301614a33565b909150835f52855f208780850160051c820192888610614ac3575b918c91869594930160051c01915b828110614ab5575050614811565b5f81558594508c9101614aa7565b92508192614a99565b015190505f806147da565b908a9350601f19831691855f52875f20925f5b89828210614b1f5750508411614b08575b505050811b0190556147eb565b01515f19838a1b60f8161c191690555f8080614afb565b8385015186558e97909501949384019301614aea565b909150835f52855f208780850160051c820192888610614b7a575b918c91869594930160051c01915b828110614b6c5750506147c6565b5f81558594508c9101614b5e565b92508192614b50565b015190505f8061478a565b908a9350601f19831691855f52875f20925f5b89828210614bd75750508411614bbf575b505050811b01905561479d565b01515f1960f88460031b161c191690555f8080614bb2565b8385015186558e97909501949384019301614ba1565b909150835f52855f208780850160051c820192888610614c32575b918c91869594930160051c01915b828110614c24575050614776565b5f81558594508c9101614c16565b92508192614c08565b015190505f8061473c565b908a9350601f19831691855f52875f20925f5b89828210614c8f5750508411614c77575b505050811b01905561474f565b01515f1960f88460031b161c191690555f8080614c6a565b8385015186558e97909501949384019301614c59565b909150835f52855f208780850160051c820192888610614cea575b918c91869594930160051c01915b828110614cdc575050614728565b5f81558594508c9101614cce565b92508192614cc0565b908060209392818452848401375f828201840152601f01601f1916010190565b81519081516012811015610f9b5760ff801983541691161781556001918282019160209081830151918251946001600160401b03958681116109625780614d5a8354613c77565b95601f968781116153e4575b508490878311600114615385575f9261537a575b50505f19600383901b1c191690881b1790555b600282016040850151805190878211610962578190614dac8454613c77565b87811161532c575b5084908783116001146152cd575f926152c2575b50505f19600383901b1c191690881b1790555b6003936060858401910151805190878211610962578190614dfc8454613c77565b878111615274575b508490878311600114615216575f9261520b575b50505f1982881b1c191690881b1790555b6004820181880151805190878211610962578190614e478454613c77565b8781116151bd575b50849087831160011461515f575f92615154575b50505f1982881b1c191690881b1790555b6005918281016040890151805190888211610962578190614e958454613c77565b888111615108575b5085908883116001146150aa575f9261509f575b50505f1982891b1c191690891b1790555b60068101606089015180519088821161096257614edf8354613c77565b87811161505e575b508490878311600114614ff557918060079492608096945f92614fea575b50505f19828b1b1c1916908b1b1790555b0197015191825195861161096257614f2e8854613c77565b90848211614fa9575b505080928511600114614f6157509383949184925f956143485750501b925f19911b1c1916179055565b92919084601f198116885f52855f20955f905b89838310614f8f57505050106143825750505050811b019055565b858701518955909701969485019488935090810190614f74565b885f52825f209085808901821c830193858a10614fe1575b01901c019087905b828110614fd65750614f37565b5f8155018790614fc9565b93508293614fc1565b015190505f80614f05565b8a9291601f19831691855f52875f20925f5b898282106150485750509160809795939185600798969410615031575b505050811b019055614f16565b01515f19838d1b60f8161c191690555f8080615024565b8385015186558f97909501949384019301615007565b835f52855f2088808501891c820192888610615096575b01881c01908b905b82811061508b575050614ee7565b5f8155018b9061507d565b92508192615075565b015190505f80614eb1565b908b9350601f19831691855f52875f20925f5b898282106150f257505084116150db575b505050811b019055614ec2565b01515f19838b1b60f8161c191690555f80806150ce565b8385015186558f979095019493840193016150bd565b909150835f52855f2088808501891c82019288861061514b575b918d9186959493018a1c01915b82811061513d575050614e9d565b5f81558594508d910161512f565b92508192615122565b015190505f80614e63565b908a9350601f19831691855f52865f20925f5b888282106151a75750508411615190575b505050811b019055614e74565b01515f19838a1b60f8161c191690555f8080615183565b8385015186558e97909501949384019301615172565b909150835f52845f208780850160051c820192878610615202575b918c91869594930160051c01915b8281106151f4575050614e4f565b5f81558594508c91016151e6565b925081926151d8565b015190505f80614e18565b908a9350601f19831691855f52865f20925f5b8882821061525e5750508411615247575b505050811b019055614e29565b01515f19838a1b60f8161c191690555f808061523a565b8385015186558e97909501949384019301615229565b909150835f52845f208780850160051c8201928786106152b9575b918c91869594930160051c01915b8281106152ab575050614e04565b5f81558594508c910161529d565b9250819261528f565b015190505f80614dc8565b908a9350601f19831691855f52865f20925f5b8882821061531657505084116152fe575b505050811b019055614ddb565b01515f1960f88460031b161c191690555f80806152f1565b8385015186558e979095019493840193016152e0565b909150835f52845f208780850160051c820192878610615371575b918c91869594930160051c01915b828110615363575050614db4565b5f81558594508c9101615355565b92508192615347565b015190505f80614d7a565b908a9350601f19831691855f52865f20925f5b888282106153ce57505084116153b6575b505050811b019055614d8d565b01515f1960f88460031b161c191690555f80806153a9565b8385015186558e97909501949384019301615398565b909150835f52845f208780850160051c820192878610615429575b918c91869594930160051c01915b82811061541b575050614d66565b5f81558594508c910161540d565b925081926153ff565b903590601e198136030182121561034e57018035906001600160401b03821161034e5760200191813603831361034e57565b908015615553576154786020840184615432565b9050156155415760ff60405182848237602081848101601b815203019020541661551d57505060408101906154ad8282615432565b90501515806154f1575b6154bf575050565b6154c99250615432565b6154ed60405192839263805de86960e01b8452602060048501526024840191614cf3565b0390fd5b5060ff60206155008484615432565b91908260405193849283378101601b8152030190205416156154b7565b6154ed60405192839263029e8f5f60e21b8452602060048501526024840191614cf3565b6040516346829b8560e01b8152600490fd5b604051630dd088e760e01b8152600490fd5b9160405182848237602081848101601b815203019020600160ff19825416179055803591601283101561034e576156209261563e61560f9261562e856155ee6155d260607f91a2a0e72e1981849103a4a952d7168303a860389dc265dd36f4780701f58836990183615432565b99906155e16020850185615432565b9390946040810190615432565b96909c81604051928392833781015f81520390209a604051998a809a613da7565b608060208a01526080890191614cf3565b918683036040880152614cf3565b9083820360608501523397614cf3565b0390a3565b9080156156905760ff60405182848237602081848101601b81520301902054161561566c575050565b6154ed60405192839263e3d1895f60e01b8452602060048501526024840191614cf3565b604051631a2f07d160e01b8152600490fdfea2646970667358221220b9404955fd9ea8b930da5934f22f2c60fde294d7ae90f674e7061063acb6d9fb64736f6c63430008180033","linkReferences":{}},"methodIdentifiers":{"RECOVERY_DELAY()":"47b45652","RECOVERY_LOCKOUT()":"561ea99c","addEntityOperator(address)":"397c9a3a","addLegalOperator(address)":"45f65cfa","addOperator(address)":"9870d7fe","addProofOperator(address)":"6b6797c9","affirmedAnchors(string)":"47deec0d","agentAnchors(string)":"144888ff","cancelRecovery()":"0ba234d6","codeAnchors(string)":"573701f7","dataAnchors(string)":"717d1a85","entityAnchors(string)":"e600a0a0","entityOperators(address)":"6ae0dd9c","executeRecovery()":"20c5a3e1","initiateRecovery(address)":"d5ce9aad","legalAnchors(string)":"ecc8d0fc","legalOperators(address)":"b91ef084","mediaAnchors(string)":"762d408d","modelAnchors(string)":"16aca546","onChainAnchors(string)":"96ad272d","operators(address)":"13e7c9d8","otherAnchors(string)":"5bd47e10","owner()":"8da5cb5b","pendingOwner()":"e30c3978","postAnchors(string)":"1cb655e7","proofAnchors(string)":"132171b0","proofOperators(address)":"402cef1b","receiptAnchors(string)":"bdd5a582","recoveryAddress()":"710eb26c","recoveryInitiatedAt()":"20727381","recoveryLockoutUntil()":"47be22fa","registerAffirmed(string,(uint8,string,string,string),string,string,string)":"7b207ae6","registerAgent(string,(uint8,string,string,string),string,string)":"e0020187","registerCode(string,(uint8,string,string,string),string,string,string)":"3ff98690","registerData(string,(uint8,string,string,string),string,string)":"ed540d2f","registerEntity(string,(uint8,string,string,string),string,string,string,string,string,string)":"edf1677b","registerLegal(string,(uint8,string,string,string),string,string)":"acd1b4be","registerMedia(string,(uint8,string,string,string),string,string)":"864572be","registerModel(string,(uint8,string,string,string),string,string)":"5cdd7b84","registerOnChain(string,(uint8,string,string,string),string,string,string,string)":"4c5b2c50","registerOther(string,(uint8,string,string,string),string,string,string,string)":"e4cc22a1","registerPost(string,(uint8,string,string,string),string,string)":"196fbf77","registerProof(string,(uint8,string,string,string),string,string,string,string)":"b36cc39a","registerReceipt(string,(uint8,string,string,string),string,string,string,string,string,string,string)":"6fe98d10","registerResearch(string,(uint8,string,string,string),string,string)":"51e39cee","registerRetraction(string,(uint8,string,string,string),string,string,string)":"d58817e6","registerReview(string,(uint8,string,string,string),string,string,string)":"1f3618bf","registerText(string,(uint8,string,string,string),string)":"786ce0a0","registerVoid(string,(uint8,string,string,string),string,string,string,string)":"b9988922","registered(string)":"5d2d5c37","removeEntityOperator(address)":"ddf841a9","removeLegalOperator(address)":"6ba60e71","removeOperator(address)":"ac8a584a","removeProofOperator(address)":"b643fcb3","researchAnchors(string)":"165d33fe","retractionAnchors(string)":"7d15e15d","reviewAnchors(string)":"5d064b3a","setRecoveryAddress(address)":"49efe5ae","textAnchors(string)":"517f4dcf","transferOwnership(address)":"f2fde38b","voidAnchors(string)":"e0ac87b9"},"id":19}