{"abi":[{"type":"constructor","inputs":[{"name":"_recoveryAddress","type":"address","internalType":"address"}],"stateMutability":"nonpayable"},{"type":"function","name":"AR_TREE_ID","inputs":[],"outputs":[{"name":"","type":"string","internalType":"string"}],"stateMutability":"view"},{"type":"function","name":"RECOVERY_DELAY","inputs":[],"outputs":[{"name":"","type":"uint256","internalType":"uint256"}],"stateMutability":"view"},{"type":"function","name":"RECOVERY_LOCKOUT","inputs":[],"outputs":[{"name":"","type":"uint256","internalType":"uint256"}],"stateMutability":"view"},{"type":"function","name":"addEntityOperator","inputs":[{"name":"op","type":"address","internalType":"address"}],"outputs":[],"stateMutability":"nonpayable"},{"type":"function","name":"addLegalOperator","inputs":[{"name":"op","type":"address","internalType":"address"}],"outputs":[],"stateMutability":"nonpayable"},{"type":"function","name":"addOperator","inputs":[{"name":"op","type":"address","internalType":"address"}],"outputs":[],"stateMutability":"nonpayable"},{"type":"function","name":"addProofOperator","inputs":[{"name":"op","type":"address","internalType":"address"}],"outputs":[],"stateMutability":"nonpayable"},{"type":"function","name":"anchorTypes","inputs":[{"name":"","type":"string","internalType":"string"}],"outputs":[{"name":"","type":"uint8","internalType":"enum ArtifactType"}],"stateMutability":"view"},{"type":"function","name":"cancelRecovery","inputs":[],"outputs":[],"stateMutability":"nonpayable"},{"type":"function","name":"entityOperators","inputs":[{"name":"","type":"address","internalType":"address"}],"outputs":[{"name":"","type":"bool","internalType":"bool"}],"stateMutability":"view"},{"type":"function","name":"executeRecovery","inputs":[],"outputs":[],"stateMutability":"nonpayable"},{"type":"function","name":"getAnchorData","inputs":[{"name":"arId","type":"string","internalType":"string"}],"outputs":[{"name":"","type":"bytes","internalType":"bytes"}],"stateMutability":"view"},{"type":"function","name":"initiateRecovery","inputs":[{"name":"_pendingOwner","type":"address","internalType":"address"}],"outputs":[],"stateMutability":"nonpayable"},{"type":"function","name":"isSealed","inputs":[{"name":"","type":"string","internalType":"string"}],"outputs":[{"name":"","type":"bool","internalType":"bool"}],"stateMutability":"view"},{"type":"function","name":"legalOperators","inputs":[{"name":"","type":"address","internalType":"address"}],"outputs":[{"name":"","type":"bool","internalType":"bool"}],"stateMutability":"view"},{"type":"function","name":"operators","inputs":[{"name":"","type":"address","internalType":"address"}],"outputs":[{"name":"","type":"bool","internalType":"bool"}],"stateMutability":"view"},{"type":"function","name":"owner","inputs":[],"outputs":[{"name":"","type":"address","internalType":"address"}],"stateMutability":"view"},{"type":"function","name":"pendingOwner","inputs":[],"outputs":[{"name":"","type":"address","internalType":"address"}],"stateMutability":"view"},{"type":"function","name":"proofOperators","inputs":[{"name":"","type":"address","internalType":"address"}],"outputs":[{"name":"","type":"bool","internalType":"bool"}],"stateMutability":"view"},{"type":"function","name":"recoveryAddress","inputs":[],"outputs":[{"name":"","type":"address","internalType":"address"}],"stateMutability":"view"},{"type":"function","name":"recoveryInitiatedAt","inputs":[],"outputs":[{"name":"","type":"uint256","internalType":"uint256"}],"stateMutability":"view"},{"type":"function","name":"recoveryLockoutUntil","inputs":[],"outputs":[{"name":"","type":"uint256","internalType":"uint256"}],"stateMutability":"view"},{"type":"function","name":"registerContent","inputs":[{"name":"arId","type":"string","internalType":"string"},{"name":"base","type":"tuple","internalType":"struct AnchorBase","components":[{"name":"artifactType","type":"uint8","internalType":"enum ArtifactType"},{"name":"manifestHash","type":"string","internalType":"string"},{"name":"parentArId","type":"string","internalType":"string"},{"name":"descriptor","type":"string","internalType":"string"},{"name":"title","type":"string","internalType":"string"},{"name":"author","type":"string","internalType":"string"},{"name":"treeId","type":"string","internalType":"string"}]},{"name":"extra","type":"bytes","internalType":"bytes"},{"name":"tokenCommitment","type":"bytes32","internalType":"bytes32"}],"outputs":[],"stateMutability":"nonpayable"},{"type":"function","name":"registerGated","inputs":[{"name":"arId","type":"string","internalType":"string"},{"name":"base","type":"tuple","internalType":"struct AnchorBase","components":[{"name":"artifactType","type":"uint8","internalType":"enum ArtifactType"},{"name":"manifestHash","type":"string","internalType":"string"},{"name":"parentArId","type":"string","internalType":"string"},{"name":"descriptor","type":"string","internalType":"string"},{"name":"title","type":"string","internalType":"string"},{"name":"author","type":"string","internalType":"string"},{"name":"treeId","type":"string","internalType":"string"}]},{"name":"extra","type":"bytes","internalType":"bytes"},{"name":"tokenCommitment","type":"bytes32","internalType":"bytes32"}],"outputs":[],"stateMutability":"nonpayable"},{"type":"function","name":"registerSeal","inputs":[{"name":"arId","type":"string","internalType":"string"},{"name":"newTreeRoot","type":"string","internalType":"string"},{"name":"reason","type":"string","internalType":"string"},{"name":"tokenCommitment","type":"bytes32","internalType":"bytes32"}],"outputs":[],"stateMutability":"nonpayable"},{"type":"function","name":"registerTargeted","inputs":[{"name":"arId","type":"string","internalType":"string"},{"name":"base","type":"tuple","internalType":"struct AnchorBase","components":[{"name":"artifactType","type":"uint8","internalType":"enum ArtifactType"},{"name":"manifestHash","type":"string","internalType":"string"},{"name":"parentArId","type":"string","internalType":"string"},{"name":"descriptor","type":"string","internalType":"string"},{"name":"title","type":"string","internalType":"string"},{"name":"author","type":"string","internalType":"string"},{"name":"treeId","type":"string","internalType":"string"}]},{"name":"targetArId","type":"string","internalType":"string"},{"name":"extra","type":"bytes","internalType":"bytes"},{"name":"tokenCommitment","type":"bytes32","internalType":"bytes32"}],"outputs":[],"stateMutability":"nonpayable"},{"type":"function","name":"registered","inputs":[{"name":"","type":"string","internalType":"string"}],"outputs":[{"name":"","type":"bool","internalType":"bool"}],"stateMutability":"view"},{"type":"function","name":"removeEntityOperator","inputs":[{"name":"op","type":"address","internalType":"address"}],"outputs":[],"stateMutability":"nonpayable"},{"type":"function","name":"removeLegalOperator","inputs":[{"name":"op","type":"address","internalType":"address"}],"outputs":[],"stateMutability":"nonpayable"},{"type":"function","name":"removeOperator","inputs":[{"name":"op","type":"address","internalType":"address"}],"outputs":[],"stateMutability":"nonpayable"},{"type":"function","name":"removeProofOperator","inputs":[{"name":"op","type":"address","internalType":"address"}],"outputs":[],"stateMutability":"nonpayable"},{"type":"function","name":"reviewed","inputs":[{"name":"","type":"string","internalType":"string"}],"outputs":[{"name":"","type":"bool","internalType":"bool"}],"stateMutability":"view"},{"type":"function","name":"sealContinuation","inputs":[{"name":"","type":"string","internalType":"string"}],"outputs":[{"name":"","type":"string","internalType":"string"}],"stateMutability":"view"},{"type":"function","name":"setRecoveryAddress","inputs":[{"name":"_newRecovery","type":"address","internalType":"address"}],"outputs":[],"stateMutability":"nonpayable"},{"type":"function","name":"tokenCommitments","inputs":[{"name":"","type":"string","internalType":"string"}],"outputs":[{"name":"","type":"bytes32","internalType":"bytes32"}],"stateMutability":"view"},{"type":"function","name":"transferOwnership","inputs":[{"name":"newOwner","type":"address","internalType":"address"}],"outputs":[],"stateMutability":"nonpayable"},{"type":"function","name":"treeRoot","inputs":[{"name":"","type":"string","internalType":"string"}],"outputs":[{"name":"","type":"string","internalType":"string"}],"stateMutability":"view"},{"type":"function","name":"voided","inputs":[{"name":"","type":"string","internalType":"string"}],"outputs":[{"name":"","type":"bool","internalType":"bool"}],"stateMutability":"view"},{"type":"event","name":"Affirmed","inputs":[{"name":"arId","type":"string","indexed":true,"internalType":"string"},{"name":"targetArId","type":"string","indexed":true,"internalType":"string"},{"name":"affirmedBy","type":"string","indexed":false,"internalType":"string"}],"anonymous":false},{"type":"event","name":"Anchored","inputs":[{"name":"arId","type":"string","indexed":true,"internalType":"string"},{"name":"registrant","type":"address","indexed":true,"internalType":"address"},{"name":"artifactType","type":"uint8","indexed":false,"internalType":"enum ArtifactType"},{"name":"arIdPlain","type":"string","indexed":false,"internalType":"string"},{"name":"descriptor","type":"string","indexed":false,"internalType":"string"},{"name":"title","type":"string","indexed":false,"internalType":"string"},{"name":"author","type":"string","indexed":false,"internalType":"string"},{"name":"manifestHash","type":"string","indexed":false,"internalType":"string"},{"name":"parentArId","type":"string","indexed":false,"internalType":"string"},{"name":"treeId","type":"string","indexed":true,"internalType":"string"},{"name":"treeIdPlain","type":"string","indexed":false,"internalType":"string"},{"name":"tokenCommitment","type":"bytes32","indexed":false,"internalType":"bytes32"}],"anonymous":false},{"type":"event","name":"EntityOperatorAdded","inputs":[{"name":"operator","type":"address","indexed":true,"internalType":"address"}],"anonymous":false},{"type":"event","name":"EntityOperatorRemoved","inputs":[{"name":"operator","type":"address","indexed":true,"internalType":"address"}],"anonymous":false},{"type":"event","name":"LegalOperatorAdded","inputs":[{"name":"operator","type":"address","indexed":true,"internalType":"address"}],"anonymous":false},{"type":"event","name":"LegalOperatorRemoved","inputs":[{"name":"operator","type":"address","indexed":true,"internalType":"address"}],"anonymous":false},{"type":"event","name":"OperatorAdded","inputs":[{"name":"operator","type":"address","indexed":true,"internalType":"address"}],"anonymous":false},{"type":"event","name":"OperatorRemoved","inputs":[{"name":"operator","type":"address","indexed":true,"internalType":"address"}],"anonymous":false},{"type":"event","name":"OwnershipTransferred","inputs":[{"name":"previousOwner","type":"address","indexed":true,"internalType":"address"},{"name":"newOwner","type":"address","indexed":true,"internalType":"address"}],"anonymous":false},{"type":"event","name":"ProofOperatorAdded","inputs":[{"name":"operator","type":"address","indexed":true,"internalType":"address"}],"anonymous":false},{"type":"event","name":"ProofOperatorRemoved","inputs":[{"name":"operator","type":"address","indexed":true,"internalType":"address"}],"anonymous":false},{"type":"event","name":"RecoveryAddressUpdated","inputs":[{"name":"newRecoveryAddress","type":"address","indexed":true,"internalType":"address"}],"anonymous":false},{"type":"event","name":"RecoveryCancelled","inputs":[],"anonymous":false},{"type":"event","name":"RecoveryExecuted","inputs":[{"name":"newOwner","type":"address","indexed":true,"internalType":"address"}],"anonymous":false},{"type":"event","name":"RecoveryInitiated","inputs":[{"name":"recoveryAddress","type":"address","indexed":true,"internalType":"address"},{"name":"pendingOwner","type":"address","indexed":true,"internalType":"address"}],"anonymous":false},{"type":"event","name":"Retracted","inputs":[{"name":"arId","type":"string","indexed":true,"internalType":"string"},{"name":"targetArId","type":"string","indexed":true,"internalType":"string"},{"name":"replacedBy","type":"string","indexed":false,"internalType":"string"}],"anonymous":false},{"type":"event","name":"Reviewed","inputs":[{"name":"arId","type":"string","indexed":true,"internalType":"string"},{"name":"targetArId","type":"string","indexed":true,"internalType":"string"},{"name":"reviewType","type":"string","indexed":false,"internalType":"string"},{"name":"evidenceUrl","type":"string","indexed":false,"internalType":"string"}],"anonymous":false},{"type":"event","name":"Sealed","inputs":[{"name":"arId","type":"string","indexed":true,"internalType":"string"},{"name":"newTreeRoot","type":"string","indexed":false,"internalType":"string"},{"name":"reason","type":"string","indexed":false,"internalType":"string"},{"name":"sealedAtBlock","type":"uint256","indexed":false,"internalType":"uint256"},{"name":"tokenCommitment","type":"bytes32","indexed":false,"internalType":"bytes32"}],"anonymous":false},{"type":"event","name":"Voided","inputs":[{"name":"arId","type":"string","indexed":true,"internalType":"string"},{"name":"targetArId","type":"string","indexed":true,"internalType":"string"},{"name":"reviewArId","type":"string","indexed":true,"internalType":"string"},{"name":"evidence","type":"string","indexed":false,"internalType":"string"}],"anonymous":false},{"type":"error","name":"AlreadyRegistered","inputs":[{"name":"arId","type":"string","internalType":"string"}]},{"type":"error","name":"AlreadySealed","inputs":[]},{"type":"error","name":"AnchorUnderReview","inputs":[]},{"type":"error","name":"AnchorVoided","inputs":[]},{"type":"error","name":"EmptyArId","inputs":[]},{"type":"error","name":"EmptyManifestHash","inputs":[]},{"type":"error","name":"EmptyTargetArId","inputs":[]},{"type":"error","name":"InsufficientCapacity","inputs":[]},{"type":"error","name":"InvalidArtifactType","inputs":[]},{"type":"error","name":"InvalidParent","inputs":[{"name":"parentArId","type":"string","internalType":"string"}]},{"type":"error","name":"InvalidTarget","inputs":[{"name":"targetArId","type":"string","internalType":"string"}]},{"type":"error","name":"MissingTokenCommitment","inputs":[]},{"type":"error","name":"NotEntityOperator","inputs":[]},{"type":"error","name":"NotLegalOperator","inputs":[]},{"type":"error","name":"NotOperator","inputs":[]},{"type":"error","name":"NotOwner","inputs":[]},{"type":"error","name":"NotProofOperator","inputs":[]},{"type":"error","name":"NotRecoveryAddress","inputs":[]},{"type":"error","name":"NotTreeRoot","inputs":[]},{"type":"error","name":"RecoveryDelayNotMet","inputs":[]},{"type":"error","name":"RecoveryLockedOut","inputs":[]},{"type":"error","name":"RecoveryNotInitiated","inputs":[]},{"type":"error","name":"TreeSealed","inputs":[]},{"type":"error","name":"ZeroAddress","inputs":[]}],"bytecode":{"object":"0x6080346100b857601f62002b7c38819003918201601f19168301916001600160401b038311848410176100bc578084926020946040528339810103126100b857516001600160a01b038116908190036100b85780156100a65760018060a01b031933815f5416175f556001541617600155604051335f7f8be0079c531659141344cd1fd0a4f28419497f9722a3daafe3b4186f6b6457e08180a3612aab9081620000d18239f35b60405163d92e233d60e01b8152600490fd5b5f80fd5b634e487b7160e01b5f52604160045260245ffdfe604060a08152600480361015610013575f80fd5b5f3560e01c8063068bed8714611d745780630ba234d614611cf057806313e7c9d814611cb15780632072738114611c9357806320c5a3e114611bc357806326ee271214611973578063397c9a3a14611902578063402cef1b146118c357806345f65cfa1461184f57806347b456521461174f57806347be22fa1461183157806349efe5ae146117a257806351b2bb6014611754578063561ea99c1461174f5780635d2d5c37146117015780635f2f89e11461168e5780635fe11a9b1461162a5780636ae0dd9c146115eb5780636b6797c9146115775780636ba60e711461150c578063710eb26c146114e45780637bd4c63014610cd65780638c20954a146109cd5780638da5cb5b146109a657806393703186146109485780639870d7fe146108c6578063a18791ae1461086c578063ac8a584a14610801578063b643fcb314610796578063b6e3a9dc14610721578063b91ef084146106e2578063c2b7922214610694578063caa917a114610634578063cf8bc4b614610375578063d5ce9aad146102d9578063ddf841a914610263578063e30c39781461023b5763f2fde38b146101bd575f80fd5b34610237576020366003190112610237576001600160a01b03813581811693919290849003610237575f549283169182330361022a57841561021d57505082905f80516020612a168339815191525f80a36001600160a01b031916175f55005b5163d92e233d60e01b8152fd5b516330cd747160e01b8152fd5b5f80fd5b8234610237575f3660031901126102375760085490516001600160a01b039091168152602090f35b5090346102375760203660031901126102375781356001600160a01b038181169391849003610237575f541633036102cb57825f526020525f2060ff1981541690557fb3995d3ad0a4cb17193137b6b470c2eda6bbf6d63f3d135f197fc4cdeedc27905f80a2005b90516330cd747160e01b8152fd5b5090346102375760203660031901126102375781356001600160a01b03818116939184900361023757600154169182330361036857831561021d57600754421061035b575050600880546001600160a01b03191683179055426006557fe7eb1bf44bc7e6084d5d89f19e76a2b46fed60ff3eb9e650f3db79a386391c615f80a3005b516333ca6ceb60e21b8152fd5b516320a6214d60e21b8152fd5b50346102375761038436611fa3565b9591969096949294335f526020916002835260ff815f2054161561062557826103af8289018961204c565b91908261056d575b505050871561055e5786356018811015610237575f600d821180610551575b818161052d575b5061051d5761050a576016146104e6575b6103f98787876121d2565b5185858237600986820190815281900383019020926001600160401b0389116104d357506104318861042b8554611e7a565b8561207e565b5f91601f891160011461046b575096806104579261045e995f92610460575b50506120cd565b90556126a0565b005b013590505f80610450565b91601f198916845f52835f20935f905b8282106104bb57505091600193918a61045e9b94106104a2575b505050811b0190556126a0565b01355f19600384901b60f8161c191690555f8080610495565b8060018597829496880135815501960193019061047b565b604190634e487b7160e01b5f525260245ffd5b82828a8101031261023757600a823510156103ee5751632e77ac1d60e11b81528390fd5b602185634e487b7160e01b5f525260245ffd5b825163cd18e00760e01b81528690fd5b905061053e576017821415816103dd565b602186634e487b7160e01b5f525260245ffd5b50505f60168214156103d6565b51630839de8560e11b81528390fd5b82845193849283378101600f8152030190208151845f92805461058f81611e7a565b9160019180831690811561060b57506001146105d2575b5050508183600d60ff95520301902054166105c3575f83816103b7565b5163901ca66f60e01b81528390fd5b9091929394505f52825f20905f915b8383106105f857505050820191908160ff5f6105a6565b80548684015288949092019181016105e1565b60ff1916865250505080151502820192508160ff5f6105a6565b51631f0853c160e21b81528390fd5b509034610237576020366003190112610237578135916001600160401b0383116102375761067f602061066d60ff938296369101611e3b565b81855193828580945193849201611e59565b81016010815203019020541690519015158152f35b509034610237576020366003190112610237578135916001600160401b038311610237576106cd602061066d60ff938296369101611e3b565b8101600d815203019020541690519015158152f35b503461023757602036600319011261023757356001600160a01b0381169190829003610237576020915f526003825260ff815f20541690519015158152f35b509034610237575f366003190112610237578051908181016001600160401b038111838210176107835761077f93508152600e82526d61722d6f70657261746f722d763160901b602083015251918291602083526020830190611f51565b0390f35b604184634e487b7160e01b5f525260245ffd5b5090346102375760203660031901126102375781356001600160a01b038181169391849003610237575f541633036102cb5750815f5260056020525f2060ff1981541690557fc28840c72026297551adaf2f67ff2d6aca1b2c4ed12cf5023d94ba7076e75a095f80a2005b5090346102375760203660031901126102375781356001600160a01b038181169391849003610237575f541633036102cb5750815f5260026020525f2060ff1981541690557f80c0b871b97b595b16a7741c1b06fed0c6f6f558639f18ccbce50724325dc40d5f80a2005b5090346102375760203660031901126102375781356001600160401b0381116102375760206108a281946108b493369101611e3b565b81845193828580945193849201611e59565b8101600c815203019020549051908152f35b5090346102375760203660031901126102375781356001600160a01b038181169391849003610237575f541633036102cb57821561093a5750815f5260026020525f20600160ff198254161790557fac6fa858e9350a46cec16539926e0fde25b7629f84b5a72bffaae4df888ae86d5f80a2005b905163d92e233d60e01b8152fd5b509034610237576020366003190112610237578135916001600160401b03831161023757610984602061066d6109939361077f96369101611e3b565b8101600e815203019020611eb2565b9051918291602083526020830190611f51565b8234610237575f366003190112610237575f5490516001600160a01b039091168152602090f35b509034610237576080366003190112610237576001600160401b038235818111610237576109fe9036908501611f76565b91909260243582811161023757610a189036908701611f76565b92909360443582811161023757610a329036908901611f76565b91909660643593335f5260209960028b5260ff875f20541615610cc85760ff8751858582378c81878101600b815203019020541615610ca35760ff8751858582378c81878101600d8152030190205416610c955760ff8751858582378c8187810160108152030190205416610c875760ff8751858582378c8187810160118152030190205416610c79578515610c6b57610ae6610aed8851868682378d81888101600f8152030190208951928380926120df565b0382611dbf565b8b8151910120610afe368686611df6565b8c815191012003610c5d578651848482378b81868101600d81520301902090600191600160ff198254161790558751858582378c81878101600e8152030190209289116104d35750610b5a88610b548454611e7a565b8461207e565b5f90601f8911600114610be45750915f80516020612a56833981519152999a9391610b928980610bc998965f91610bd9575b506120cd565b90555b818751928392833781015f815203902098610bbc865198899860808a5260808a01916121b2565b92878403908801526121b2565b91439084015260608301520390a2005b90508c01355f610b8c565b90601f198916835f528c5f20925f905b828210610c46575050915f80516020612a568339815191529b9c9593918a610bc998969410610c2d575b5050600189811b019055610b95565b8b01355f1960038c901b60f8161c191690555f80610c1e565b8c840135855593840193928e0192908e0190610bf4565b865163168800fd60e21b8152fd5b8651630839de8560e11b8152fd5b8651639c4f304160e01b8152fd5b8651637e47958560e11b8152fd5b8651630108cc4760e61b8152fd5b865163e3d1895f60e01b81529081018b905280610cc46024820186866121b2565b0390fd5b8651631f0853c160e21b8152fd5b5090346102375760031960a036820112610237576001600160401b0392803584811161023757610d099036908301611f76565b6024908135928784116102375760e08486019685360301126102375760443588811161023757610d3c9036908701611f76565b9390966064358a811161023757610d569036908901611f76565b60849b919b3593335f5260209860028a5260ff8d5f205416156114d45784356018811015610237575f6012821080156114c8575b6114b857610d99878b8b6121d2565b8a156114a85760ff8f8f8e908e80935193849283378101600b81520301902054161561148457611472576012810361100b57506044018c8a610ddb838861204c565b905015159283610f59575b505050610f49578415610f3957610dff828e018e612170565b9a90508c51888882378a818a81016009815203019020938311610f28575050610e2c81610b548454611e7a565b5f9b601f8211600114610ea95791610e6982610e7395935f80516020612a368339815191529d9e9f610ea49b9a9998965f926104605750506120cd565b90555b84846126a0565b818951928392833781015f815203902095818851928392833781015f81520390209551928284938452830190611f51565b0390a3005b9b601f19821690835f52895f20915f5b818110610f11575092610ea49998979694925f80516020612a368339815191529d9e9f60019383610e73999710610ef8575b505050811b019055610e6c565b01355f19600384901b60f8161c191690555f8080610eeb565b8f8301358455600190930192918b01918b01610eb9565b604190634e487b7160e01b5f52525ffd5b8b51630839de8560e11b81528a90fd5b8b5163901ca66f60e01b81528a90fd5b610f66919293508761204c565b80935193849283378101600f8152030190208c518a5f928054610f8881611e7a565b91600191808316908115610ff15750600114610fb8575b5050508183600d60ff95520301902054168c8a5f610de6565b9091929394505f52825f20905f915b838310610fde57505050820191908160ff5f610f9f565b8054868401528e94909201918101610fc7565b60ff1916865250505080151502820192508160ff5f610f9f565b80929d9a9e939495965060139150145f14611180575061102d82820182612170565b9b90998d8a519089898337818a81016009815203019020948411610f2857505061105b8261042b8554611e7a565b5f90601f83116001146111025792611098836110a2945f805160206129b68339815191529d9e9f999794610ea49b99975f926104605750506120cd565b90555b838361239f565b8551838a823784818581016011815203019020600160ff19825416179055818651928392833781015f815203902096818551928392833781015f8152039020966110f58451958587968752860190611f51565b9184830390850152611f51565b601f19831691845f528d5f20925f5b8181106111695750935f805160206129b68339815191529c9d9e989693610ea49a989693600193836110a29810611150575b505050811b01905561109b565b01355f19600384901b60f8161c191690555f8080611143565b91938f600181928787013581550195019201611111565b6014909c979695949392919a999c9b989b145f1461139257808a01996060818c0312610237578035838111610237578b6111bb918301611e3b565b9a8882013584811161023757816111d3918401611e3b565b508c82013590848211610237576111eb918301611e3b565b988b5115611382578c9d8c8a809c9d9e9f5182818094519e8f92019e8f9161121292611e59565b8101600b8152030190205460ff1615611361578e51888882378b818a81016009815203019020948411610f2857505061124f8261042b8554611e7a565b5f90601f83116001146112f957936112df9693611098845f805160206129d68339815191529d9c9b989561128f956112f49c995f926104605750506120cd565b8b51838b823787818581016010815203019020600160ff19825416179055818c51928392833781015f815203902097818b51928392833781015f8152039020978951928392839251928391611e59565b81010390209651928284938452830190611f51565b0390a4005b601f19831691845f528a5f20925f5b81811061134a57508461128f946112f49b98945f805160206129d68339815191529f9e9d9a97946112df9c99956001951061115057505050811b01905561109b565b91938c600181928787013581550195019201611308565b8e5163e3d1895f60e01b81529081018b9052908190610cc49082018f611f51565b8c51631a2f07d160e01b81528e90fd5b909192939495966113a8828b9d9a9b018d612170565b50988b518787823789818981016009815203019020938311610f285750506113d481610b548454611e7a565b5f601f821160011461140f579161109882610ea49897969593610e73955f805160206129968339815191529d9e9f5f926104605750506120cd565b601f19821690835f52885f20915f5b81811061145b575092610e7394925f805160206129968339815191529c9d9e60019383610ea49c9b9a99971061115057505050811b01905561109b565b8e8301358455600190930192918a01918a0161141e565b8260218d634e487b7160e01b5f52525ffd5b508a8c8f8f8d87610cc4935195869563e3d1895f60e01b87528601528401916121b2565b8e51631a2f07d160e01b81528d90fd5b8e5163cd18e00760e01b81528d90fd5b50505f60158211610d8a565b8c51631f0853c160e21b81528b90fd5b8234610237575f3660031901126102375760015490516001600160a01b039091168152602090f35b5090346102375760203660031901126102375781356001600160a01b038181169391849003610237575f541633036102cb5750815f5260036020525f2060ff1981541690557f6b66d1bba82a11aca959b4321a690cd67c826fb136617127d12973beb6957b335f80a2005b5090346102375760203660031901126102375781356001600160a01b038181169391849003610237575f541633036102cb57821561093a5750815f5260056020525f20600160ff198254161790557f5bfe4ffbe756ad2df32059678eca22cadff8ecb3440f958eae6ff7b2d436e1ba5f80a2005b5090346102375760203660031901126102375781356001600160a01b0381169290839003610237576020925f52825260ff815f20541690519015158152f35b5090346102375760203660031901126102375781356001600160401b0381116102375760ff6116776020611665819661168c95369101611e3b565b81865193828580945193849201611e59565b8101600a81520301902054169151809261202b565bf35b5034610237576020366003190112610237578035916001600160401b038311610237576116ef60206116c96116e89461077f96369101611f76565b91908285519384928337810160098152030190208251938480926120df565b0383611dbf565b51918291602083526020830190611f51565b509034610237576020366003190112610237578135916001600160401b0383116102375761173a602061066d60ff938296369101611e3b565b8101600b815203019020541690519015158152f35b61200e565b509034610237576020366003190112610237578135916001600160401b0383116102375761178d602061066d60ff938296369101611e3b565b81016011815203019020541690519015158152f35b509034610237576020366003190112610237576001600160a01b038235818116929083900361023757600154918216330361182257821561181357506001600160a01b03191681176001557f83c14e1947c5a639434d6195a6e9d85ab3471a5049c66e0aa46b71e2c0a06dde5f80a2005b5163d92e233d60e01b81528390fd5b516320a6214d60e21b81528390fd5b8234610237575f366003190112610237576020906007549051908152f35b5090346102375760203660031901126102375781356001600160a01b038181169391849003610237575f541633036102cb57821561093a5750815f5260036020525f20600160ff198254161790557f6d52a43c5decf356b1093e9f3b6beb1eb8f9f3f333a8f13171e1d89c143c45755f80a2005b503461023757602036600319011261023757356001600160a01b0381169190829003610237576020915f526005825260ff815f20541690519015158152f35b5090346102375760203660031901126102375781356001600160a01b038181169391849003610237575f541633036102cb57821561093a57825f526020525f20600160ff198254161790557f65e52bd3fb1902d00941506c0a765dfad293c8c4d5851c7a4dc55ad5d60ff5e35f80a2005b50346102375761198236611fa3565b9591909661199481859795018761204c565b80611b01575b50508615611af2578535601881101561023757600e8103611a905750335f52600360205260ff815f20541615611a81575b6119d68686866121d2565b51908484833760098286019081528290036020908101909220926001600160401b0389116104d35750611a0d8861042b8554611e7a565b5f91601f8911600114611a32575096806104579261045e995f926104605750506120cd565b91601f198916845f5260205f20935f905b828210611a6957505091600193918a61045e9b94106104a257505050811b0190556126a0565b80600185978294968801358155019601930190611a43565b51633b4d583360e21b81529050fd5b600f8103611aba5750335f528260205260ff815f2054166119cb575163ebee8ba760e01b81529050fd5b601003611ae357335f52600560205260ff815f2054166119cb575163b601a68d60e01b81529050fd5b5163cd18e00760e01b81529050fd5b51630839de8560e11b81529050fd5b808351928337810190600f8252602081819303019020908251915f918154611b2881611e7a565b92600191808316908115611ba65750600114611b6d575b5050600d8352505081900360200190205460ff16611b5e575f8061199a565b5163901ca66f60e01b81529050fd5b5f9081526020812093945091925b848310611b9557505050908201905060208260ff5f611b3f565b805486840152918301918101611b7b565b60ff1916875250505050801515028201905060208260ff5f611b3f565b5034610237575f366003190112610237576001546001600160a01b03929083163303610368576006548015611c855762093a808101809111611c72574210611c6557825f54600854828116809383165f80516020612a168339815191525f80a36001600160a01b031991821683175f908155911660085560068190557ffcd2de31341801b7fd80895c780aae50c1505fd674ff1b9b9764c56c633434d69080a2005b51634b362d4f60e01b8152fd5b601183634e487b7160e01b5f525260245ffd5b505163078591a760e11b8152fd5b8234610237575f366003190112610237576020906006549051908152f35b503461023757602036600319011261023757356001600160a01b0381169190829003610237576020915f526002825260ff815f20541690519015158152f35b509034610237575f366003190112610237575f546001600160a01b0316330361022a5750600880546001600160a01b03191690555f6006554262093a80810191908210611d6157506007557fedd770ee01b7c0ef4f503125eafdc2725536cbf32342dffcaa300d95a7cafce35f80a1005b601190634e487b7160e01b5f525260245ffd5b509034610237576020366003190112610237578135916001600160401b03831161023757611db0602061066d6109939361077f96369101611e3b565b8101600f815203019020611eb2565b601f909101601f19168101906001600160401b03821190821017611de257604052565b634e487b7160e01b5f52604160045260245ffd5b9192916001600160401b038211611de25760405191611e1f601f8201601f191660200184611dbf565b829481845281830111610237578281602093845f960137010152565b9080601f8301121561023757816020611e5693359101611df6565b90565b5f5b838110611e6a5750505f910152565b8181015183820152602001611e5b565b90600182811c92168015611ea8575b6020831014611e9457565b634e487b7160e01b5f52602260045260245ffd5b91607f1691611e89565b60405190815f8254611ec381611e7a565b908184526020946001916001811690815f14611f2f5750600114611ef1575b505050611e5692500382611dbf565b5f90815285812095935091905b818310611f17575050611e5693508201015f8080611ee2565b85548784018501529485019486945091830191611efe565b92505050611e5694925060ff191682840152151560051b8201015f8080611ee2565b90602091611f6a81518092818552858086019101611e59565b601f01601f1916010190565b9181601f84011215610237578235916001600160401b038311610237576020838186019501011161023757565b60031990608081830112610237576001600160401b03926004358481116102375782611fd191600401611f76565b94909493602435908282116102375760e090828603011261023757600401926044359182116102375761200691600401611f76565b909160643590565b34610237575f36600319011261023757602060405162093a808152f35b9060188210156120385752565b634e487b7160e01b5f52602160045260245ffd5b903590601e198136030182121561023757018035906001600160401b0382116102375760200191813603831361023757565b601f821161208b57505050565b5f5260205f20906020601f840160051c830193106120c3575b601f0160051c01905b8181106120b8575050565b5f81556001016120ad565b90915081906120a4565b8160011b915f199060031b1c19161790565b80545f93926120ed82611e7a565b918282526020936001916001811690815f146121515750600114612113575b5050505050565b90939495505f92919252835f2092845f945b83861061213d57505050500101905f8080808061210c565b805485870183015294019385908201612125565b60ff19168685015250505090151560051b010191505f8080808061210c565b919091604081840312610237576001600160401b03928135848111610237578161219b918401611e3b565b93602083013590811161023757611e569201611e3b565b908060209392818452848401375f828201840152601f01601f1916010190565b9080156122bd576121e6602084018461204c565b9050156122ab5760ff60405182848237602081848101600b8152030190205416612287575050604081019061221b828261204c565b905015158061225b575b61222d575050565b612237925061204c565b610cc460405192839263805de86960e01b84526020600485015260248401916121b2565b5060ff602061226a848461204c565b91908260405193849283378101600b815203019020541615612225565b610cc460405192839263029e8f5f60e21b84526020600485015260248401916121b2565b6040516346829b8560e01b8152600490fd5b604051630dd088e760e01b8152600490fd5b9080821461239b576122e18154611e7a565b906001600160401b038211611de2576122fe8261042b8554611e7a565b5f90601f831160011461232d5761231e92915f91836123225750506120cd565b9055565b015490505f80610450565b90601f198316915f5260209160205f2090855f5260205f20935f905b82821061238257505090846001959493921061236a575b505050811b019055565b01545f1960f88460031b161c191690555f8080612360565b8495819295850154815560018091019601940190612349565b5050565b9291909260405184828237602081868101600b8152030190209360019460ff19906001828254161790556018843510156102375760405182848237602081848101600a8152030190209081541660ff8535161790555f60405182848237602081848101600c8152030190205560408301612419818561204c565b151590506126595760405182848237600f83820190815281900360200190206001600160401b038311611de25761245a836124548354611e7a565b8361207e565b5f96601f84116001146125f2575061247c83808798995f916125e757506120cd565b90555b61248c606085018561204c565b9161249a608087018761204c565b906124a860a089018961204c565b90916124b760208b018b61204c565b9490956124c4908c61204c565b9790988c60c081016124d59161204c565b9c909d60c081016124e59161204c565b9c909d60405182848237808381015f81520390209f81604051928392833781015f81520390209f604051608052610120906080519035906125259161202b565b8060805160200152608051019061253b926121b2565b90608051820360805160400152612551926121b2565b90608051820360805160600152612567926121b2565b9060805182036080516080015261257d926121b2565b90608051820360805160a00152612593926121b2565b90608051820360805160c001526125a9926121b2565b90608051820360805160e001526125bf926121b2565b90608051610100015f905233916080519003608051905f805160206129f683398151915291a4565b90508601355f610b8c565b96601f198416825f5260205f20985f905b82821061264057505090848798999210612627575b5050600183811b01905561247f565b8501355f19600386901b60f8161c191690555f80612618565b878401358b55998a019960209384019390910190612603565b8394955061269b602061266c838761204c565b91908260405193849283378101600f81520301902060405184868237602081868101600f8152030190206122cf565b61247f565b9291906080526040516080518482376020816080518101600b8152030190209060019160ff1990600182825416179055601882351015610237576040516080518682376020816080518101600a8152030190209081541660ff833516179055826040516080518682376020816080518101600c815203019020556040810191612729838361204c565b1515905061294d576040516080518682376020816080518101600f8152030190209060018060401b0360805111611de25761276a608051610b548454611e7a565b5f601f608051116001146128e45761279191505f906080516128d9575b50608051906120cd565b90555b836127a2606083018361204c565b936127b0608085018561204c565b916127be60a087018761204c565b906127cc602089018961204c565b9290936127d9908a61204c565b95909660c08b016127ea908c61204c565b99909c8c60c081016127fb9161204c565b9b909c604051906080519082378060805181015f81520390209e81604051928392833781015f81520390209f6040519d8e8061012092359061283c9161202b565b8160208201520160805161284f926121b2565b908d8083039060400152612862926121b2565b908b820360608d0152612874926121b2565b9089820360808b0152612886926121b2565b9087820360a0890152612898926121b2565b9085820360c08701526128aa926121b2565b9083820360e08501526128bc926121b2565b92610100820152803393035f805160206129f683398151915291a4565b90508601355f612787565b601f1960805116835f5260205f20925f905b82821061293457505060805111612919575b50506001608051811b019055612794565b5f1960f860805160031b161c19908701351690555f80612908565b9092936020828192878d013581550195019301906128f6565b50612990602061295d848461204c565b91908260405193849283378101600f8152030190206040516080518782376020816080518101600f8152030190206122cf565b61279456fea62ae18c8132954544e02a502215888bdc7d7df53e52873d79a81f91544f2dba4c008f49c3178c1ce0fb3c86aed7d2e80aca376ed1476947ca5a220f45e9a50807c9fc4ac9266376cb17afdcee0f23f0f5abaf32dab736c7d891c595d39725bd97a851988ca44ea18ea43e94298eb9986b0ee33a6181558938dd891fa4ac2ae58be0079c531659141344cd1fd0a4f28419497f9722a3daafe3b4186f6b6457e0af0c98c5c4879ef897a044cdac758c7bd233c9d4ac8cdbb360f44280e7b0047d387299013ea96a5a79f4d839ba0e7f081b94aa0424a150fb677139374640dbd1a26469706673582212200a422a2ea9125e42fcc0e4109e05781d148d9a8602e061e59868d3638385515264736f6c63430008180033","linkReferences":{}},"methodIdentifiers":{"AR_TREE_ID()":"b6e3a9dc","RECOVERY_DELAY()":"47b45652","RECOVERY_LOCKOUT()":"561ea99c","addEntityOperator(address)":"397c9a3a","addLegalOperator(address)":"45f65cfa","addOperator(address)":"9870d7fe","addProofOperator(address)":"6b6797c9","anchorTypes(string)":"5fe11a9b","cancelRecovery()":"0ba234d6","entityOperators(address)":"6ae0dd9c","executeRecovery()":"20c5a3e1","getAnchorData(string)":"5f2f89e1","initiateRecovery(address)":"d5ce9aad","isSealed(string)":"c2b79222","legalOperators(address)":"b91ef084","operators(address)":"13e7c9d8","owner()":"8da5cb5b","pendingOwner()":"e30c3978","proofOperators(address)":"402cef1b","recoveryAddress()":"710eb26c","recoveryInitiatedAt()":"20727381","recoveryLockoutUntil()":"47be22fa","registerContent(string,(uint8,string,string,string,string,string,string),bytes,bytes32)":"cf8bc4b6","registerGated(string,(uint8,string,string,string,string,string,string),bytes,bytes32)":"26ee2712","registerSeal(string,string,string,bytes32)":"8c20954a","registerTargeted(string,(uint8,string,string,string,string,string,string),string,bytes,bytes32)":"7bd4c630","registered(string)":"5d2d5c37","removeEntityOperator(address)":"ddf841a9","removeLegalOperator(address)":"6ba60e71","removeOperator(address)":"ac8a584a","removeProofOperator(address)":"b643fcb3","reviewed(string)":"51b2bb60","sealContinuation(string)":"93703186","setRecoveryAddress(address)":"49efe5ae","tokenCommitments(string)":"a18791ae","transferOwnership(address)":"f2fde38b","treeRoot(string)":"068bed87","voided(string)":"caa917a1"},"id":19}