{"abi":[{"type":"constructor","inputs":[{"name":"_recoveryAddress","type":"address","internalType":"address"}],"stateMutability":"nonpayable"},{"type":"function","name":"RECOVERY_DELAY","inputs":[],"outputs":[{"name":"","type":"uint256","internalType":"uint256"}],"stateMutability":"view"},{"type":"function","name":"RECOVERY_LOCKOUT","inputs":[],"outputs":[{"name":"","type":"uint256","internalType":"uint256"}],"stateMutability":"view"},{"type":"function","name":"addEntityOperator","inputs":[{"name":"op","type":"address","internalType":"address"}],"outputs":[],"stateMutability":"nonpayable"},{"type":"function","name":"addLegalOperator","inputs":[{"name":"op","type":"address","internalType":"address"}],"outputs":[],"stateMutability":"nonpayable"},{"type":"function","name":"addOperator","inputs":[{"name":"op","type":"address","internalType":"address"}],"outputs":[],"stateMutability":"nonpayable"},{"type":"function","name":"addProofOperator","inputs":[{"name":"op","type":"address","internalType":"address"}],"outputs":[],"stateMutability":"nonpayable"},{"type":"function","name":"affirmedAnchors","inputs":[{"name":"","type":"string","internalType":"string"}],"outputs":[{"name":"base","type":"tuple","internalType":"struct AnchorRegistry.AnchorBase","components":[{"name":"artifactType","type":"uint8","internalType":"enum AnchorRegistry.ArtifactType"},{"name":"manifestHash","type":"string","internalType":"string"},{"name":"parentHash","type":"string","internalType":"string"},{"name":"descriptor","type":"string","internalType":"string"}]},{"name":"targetArId","type":"string","internalType":"string"},{"name":"affirmedBy","type":"string","internalType":"string"},{"name":"findingUrl","type":"string","internalType":"string"}],"stateMutability":"view"},{"type":"function","name":"agentAnchors","inputs":[{"name":"","type":"string","internalType":"string"}],"outputs":[{"name":"base","type":"tuple","internalType":"struct AnchorRegistry.AnchorBase","components":[{"name":"artifactType","type":"uint8","internalType":"enum AnchorRegistry.ArtifactType"},{"name":"manifestHash","type":"string","internalType":"string"},{"name":"parentHash","type":"string","internalType":"string"},{"name":"descriptor","type":"string","internalType":"string"}]},{"name":"agentVersion","type":"string","internalType":"string"},{"name":"url","type":"string","internalType":"string"}],"stateMutability":"view"},{"type":"function","name":"cancelRecovery","inputs":[],"outputs":[],"stateMutability":"nonpayable"},{"type":"function","name":"codeAnchors","inputs":[{"name":"","type":"string","internalType":"string"}],"outputs":[{"name":"base","type":"tuple","internalType":"struct AnchorRegistry.AnchorBase","components":[{"name":"artifactType","type":"uint8","internalType":"enum AnchorRegistry.ArtifactType"},{"name":"manifestHash","type":"string","internalType":"string"},{"name":"parentHash","type":"string","internalType":"string"},{"name":"descriptor","type":"string","internalType":"string"}]},{"name":"gitHash","type":"string","internalType":"string"},{"name":"license","type":"string","internalType":"string"},{"name":"url","type":"string","internalType":"string"}],"stateMutability":"view"},{"type":"function","name":"dataAnchors","inputs":[{"name":"","type":"string","internalType":"string"}],"outputs":[{"name":"base","type":"tuple","internalType":"struct AnchorRegistry.AnchorBase","components":[{"name":"artifactType","type":"uint8","internalType":"enum AnchorRegistry.ArtifactType"},{"name":"manifestHash","type":"string","internalType":"string"},{"name":"parentHash","type":"string","internalType":"string"},{"name":"descriptor","type":"string","internalType":"string"}]},{"name":"dataVersion","type":"string","internalType":"string"},{"name":"url","type":"string","internalType":"string"}],"stateMutability":"view"},{"type":"function","name":"entityAnchors","inputs":[{"name":"","type":"string","internalType":"string"}],"outputs":[{"name":"base","type":"tuple","internalType":"struct AnchorRegistry.AnchorBase","components":[{"name":"artifactType","type":"uint8","internalType":"enum AnchorRegistry.ArtifactType"},{"name":"manifestHash","type":"string","internalType":"string"},{"name":"parentHash","type":"string","internalType":"string"},{"name":"descriptor","type":"string","internalType":"string"}]},{"name":"entityType","type":"string","internalType":"string"},{"name":"entityDomain","type":"string","internalType":"string"},{"name":"verificationMethod","type":"string","internalType":"string"},{"name":"verificationProof","type":"string","internalType":"string"},{"name":"canonicalUrl","type":"string","internalType":"string"},{"name":"documentHash","type":"string","internalType":"string"}],"stateMutability":"view"},{"type":"function","name":"entityOperators","inputs":[{"name":"","type":"address","internalType":"address"}],"outputs":[{"name":"","type":"bool","internalType":"bool"}],"stateMutability":"view"},{"type":"function","name":"executeRecovery","inputs":[],"outputs":[],"stateMutability":"nonpayable"},{"type":"function","name":"initiateRecovery","inputs":[{"name":"_pendingOwner","type":"address","internalType":"address"}],"outputs":[],"stateMutability":"nonpayable"},{"type":"function","name":"legalAnchors","inputs":[{"name":"","type":"string","internalType":"string"}],"outputs":[{"name":"base","type":"tuple","internalType":"struct AnchorRegistry.AnchorBase","components":[{"name":"artifactType","type":"uint8","internalType":"enum AnchorRegistry.ArtifactType"},{"name":"manifestHash","type":"string","internalType":"string"},{"name":"parentHash","type":"string","internalType":"string"},{"name":"descriptor","type":"string","internalType":"string"}]},{"name":"docType","type":"string","internalType":"string"},{"name":"url","type":"string","internalType":"string"}],"stateMutability":"view"},{"type":"function","name":"legalOperators","inputs":[{"name":"","type":"address","internalType":"address"}],"outputs":[{"name":"","type":"bool","internalType":"bool"}],"stateMutability":"view"},{"type":"function","name":"mediaAnchors","inputs":[{"name":"","type":"string","internalType":"string"}],"outputs":[{"name":"base","type":"tuple","internalType":"struct AnchorRegistry.AnchorBase","components":[{"name":"artifactType","type":"uint8","internalType":"enum AnchorRegistry.ArtifactType"},{"name":"manifestHash","type":"string","internalType":"string"},{"name":"parentHash","type":"string","internalType":"string"},{"name":"descriptor","type":"string","internalType":"string"}]},{"name":"mediaType","type":"string","internalType":"string"},{"name":"url","type":"string","internalType":"string"}],"stateMutability":"view"},{"type":"function","name":"modelAnchors","inputs":[{"name":"","type":"string","internalType":"string"}],"outputs":[{"name":"base","type":"tuple","internalType":"struct AnchorRegistry.AnchorBase","components":[{"name":"artifactType","type":"uint8","internalType":"enum AnchorRegistry.ArtifactType"},{"name":"manifestHash","type":"string","internalType":"string"},{"name":"parentHash","type":"string","internalType":"string"},{"name":"descriptor","type":"string","internalType":"string"}]},{"name":"modelVersion","type":"string","internalType":"string"},{"name":"url","type":"string","internalType":"string"}],"stateMutability":"view"},{"type":"function","name":"onChainAnchors","inputs":[{"name":"","type":"string","internalType":"string"}],"outputs":[{"name":"base","type":"tuple","internalType":"struct AnchorRegistry.AnchorBase","components":[{"name":"artifactType","type":"uint8","internalType":"enum AnchorRegistry.ArtifactType"},{"name":"manifestHash","type":"string","internalType":"string"},{"name":"parentHash","type":"string","internalType":"string"},{"name":"descriptor","type":"string","internalType":"string"}]},{"name":"chainId","type":"string","internalType":"string"},{"name":"assetType","type":"string","internalType":"string"},{"name":"assetId","type":"string","internalType":"string"},{"name":"url","type":"string","internalType":"string"}],"stateMutability":"view"},{"type":"function","name":"operators","inputs":[{"name":"","type":"address","internalType":"address"}],"outputs":[{"name":"","type":"bool","internalType":"bool"}],"stateMutability":"view"},{"type":"function","name":"otherAnchors","inputs":[{"name":"","type":"string","internalType":"string"}],"outputs":[{"name":"base","type":"tuple","internalType":"struct AnchorRegistry.AnchorBase","components":[{"name":"artifactType","type":"uint8","internalType":"enum AnchorRegistry.ArtifactType"},{"name":"manifestHash","type":"string","internalType":"string"},{"name":"parentHash","type":"string","internalType":"string"},{"name":"descriptor","type":"string","internalType":"string"}]},{"name":"kind","type":"string","internalType":"string"},{"name":"platform","type":"string","internalType":"string"},{"name":"url","type":"string","internalType":"string"},{"name":"value","type":"string","internalType":"string"}],"stateMutability":"view"},{"type":"function","name":"owner","inputs":[],"outputs":[{"name":"","type":"address","internalType":"address"}],"stateMutability":"view"},{"type":"function","name":"pendingOwner","inputs":[],"outputs":[{"name":"","type":"address","internalType":"address"}],"stateMutability":"view"},{"type":"function","name":"postAnchors","inputs":[{"name":"","type":"string","internalType":"string"}],"outputs":[{"name":"base","type":"tuple","internalType":"struct AnchorRegistry.AnchorBase","components":[{"name":"artifactType","type":"uint8","internalType":"enum AnchorRegistry.ArtifactType"},{"name":"manifestHash","type":"string","internalType":"string"},{"name":"parentHash","type":"string","internalType":"string"},{"name":"descriptor","type":"string","internalType":"string"}]},{"name":"platform","type":"string","internalType":"string"},{"name":"url","type":"string","internalType":"string"}],"stateMutability":"view"},{"type":"function","name":"proofAnchors","inputs":[{"name":"","type":"string","internalType":"string"}],"outputs":[{"name":"base","type":"tuple","internalType":"struct AnchorRegistry.AnchorBase","components":[{"name":"artifactType","type":"uint8","internalType":"enum AnchorRegistry.ArtifactType"},{"name":"manifestHash","type":"string","internalType":"string"},{"name":"parentHash","type":"string","internalType":"string"},{"name":"descriptor","type":"string","internalType":"string"}]},{"name":"proofType","type":"string","internalType":"string"},{"name":"proofSystem","type":"string","internalType":"string"},{"name":"verifierUrl","type":"string","internalType":"string"},{"name":"proofHash","type":"string","internalType":"string"}],"stateMutability":"view"},{"type":"function","name":"proofOperators","inputs":[{"name":"","type":"address","internalType":"address"}],"outputs":[{"name":"","type":"bool","internalType":"bool"}],"stateMutability":"view"},{"type":"function","name":"recoveryAddress","inputs":[],"outputs":[{"name":"","type":"address","internalType":"address"}],"stateMutability":"view"},{"type":"function","name":"recoveryInitiatedAt","inputs":[],"outputs":[{"name":"","type":"uint256","internalType":"uint256"}],"stateMutability":"view"},{"type":"function","name":"recoveryLockoutUntil","inputs":[],"outputs":[{"name":"","type":"uint256","internalType":"uint256"}],"stateMutability":"view"},{"type":"function","name":"registerAffirmed","inputs":[{"name":"arId","type":"string","internalType":"string"},{"name":"base","type":"tuple","internalType":"struct AnchorRegistry.AnchorBase","components":[{"name":"artifactType","type":"uint8","internalType":"enum AnchorRegistry.ArtifactType"},{"name":"manifestHash","type":"string","internalType":"string"},{"name":"parentHash","type":"string","internalType":"string"},{"name":"descriptor","type":"string","internalType":"string"}]},{"name":"targetArId","type":"string","internalType":"string"},{"name":"affirmedBy","type":"string","internalType":"string"},{"name":"findingUrl","type":"string","internalType":"string"}],"outputs":[],"stateMutability":"nonpayable"},{"type":"function","name":"registerAgent","inputs":[{"name":"arId","type":"string","internalType":"string"},{"name":"base","type":"tuple","internalType":"struct AnchorRegistry.AnchorBase","components":[{"name":"artifactType","type":"uint8","internalType":"enum AnchorRegistry.ArtifactType"},{"name":"manifestHash","type":"string","internalType":"string"},{"name":"parentHash","type":"string","internalType":"string"},{"name":"descriptor","type":"string","internalType":"string"}]},{"name":"agentVersion","type":"string","internalType":"string"},{"name":"url","type":"string","internalType":"string"}],"outputs":[],"stateMutability":"nonpayable"},{"type":"function","name":"registerCode","inputs":[{"name":"arId","type":"string","internalType":"string"},{"name":"base","type":"tuple","internalType":"struct AnchorRegistry.AnchorBase","components":[{"name":"artifactType","type":"uint8","internalType":"enum AnchorRegistry.ArtifactType"},{"name":"manifestHash","type":"string","internalType":"string"},{"name":"parentHash","type":"string","internalType":"string"},{"name":"descriptor","type":"string","internalType":"string"}]},{"name":"gitHash","type":"string","internalType":"string"},{"name":"license","type":"string","internalType":"string"},{"name":"url","type":"string","internalType":"string"}],"outputs":[],"stateMutability":"nonpayable"},{"type":"function","name":"registerData","inputs":[{"name":"arId","type":"string","internalType":"string"},{"name":"base","type":"tuple","internalType":"struct AnchorRegistry.AnchorBase","components":[{"name":"artifactType","type":"uint8","internalType":"enum AnchorRegistry.ArtifactType"},{"name":"manifestHash","type":"string","internalType":"string"},{"name":"parentHash","type":"string","internalType":"string"},{"name":"descriptor","type":"string","internalType":"string"}]},{"name":"dataVersion","type":"string","internalType":"string"},{"name":"url","type":"string","internalType":"string"}],"outputs":[],"stateMutability":"nonpayable"},{"type":"function","name":"registerEntity","inputs":[{"name":"arId","type":"string","internalType":"string"},{"name":"base","type":"tuple","internalType":"struct AnchorRegistry.AnchorBase","components":[{"name":"artifactType","type":"uint8","internalType":"enum AnchorRegistry.ArtifactType"},{"name":"manifestHash","type":"string","internalType":"string"},{"name":"parentHash","type":"string","internalType":"string"},{"name":"descriptor","type":"string","internalType":"string"}]},{"name":"entityType","type":"string","internalType":"string"},{"name":"entityDomain","type":"string","internalType":"string"},{"name":"verificationMethod","type":"string","internalType":"string"},{"name":"verificationProof","type":"string","internalType":"string"},{"name":"canonicalUrl","type":"string","internalType":"string"},{"name":"documentHash","type":"string","internalType":"string"}],"outputs":[],"stateMutability":"nonpayable"},{"type":"function","name":"registerLegal","inputs":[{"name":"arId","type":"string","internalType":"string"},{"name":"base","type":"tuple","internalType":"struct AnchorRegistry.AnchorBase","components":[{"name":"artifactType","type":"uint8","internalType":"enum AnchorRegistry.ArtifactType"},{"name":"manifestHash","type":"string","internalType":"string"},{"name":"parentHash","type":"string","internalType":"string"},{"name":"descriptor","type":"string","internalType":"string"}]},{"name":"docType","type":"string","internalType":"string"},{"name":"url","type":"string","internalType":"string"}],"outputs":[],"stateMutability":"nonpayable"},{"type":"function","name":"registerMedia","inputs":[{"name":"arId","type":"string","internalType":"string"},{"name":"base","type":"tuple","internalType":"struct AnchorRegistry.AnchorBase","components":[{"name":"artifactType","type":"uint8","internalType":"enum AnchorRegistry.ArtifactType"},{"name":"manifestHash","type":"string","internalType":"string"},{"name":"parentHash","type":"string","internalType":"string"},{"name":"descriptor","type":"string","internalType":"string"}]},{"name":"mediaType","type":"string","internalType":"string"},{"name":"url","type":"string","internalType":"string"}],"outputs":[],"stateMutability":"nonpayable"},{"type":"function","name":"registerModel","inputs":[{"name":"arId","type":"string","internalType":"string"},{"name":"base","type":"tuple","internalType":"struct AnchorRegistry.AnchorBase","components":[{"name":"artifactType","type":"uint8","internalType":"enum AnchorRegistry.ArtifactType"},{"name":"manifestHash","type":"string","internalType":"string"},{"name":"parentHash","type":"string","internalType":"string"},{"name":"descriptor","type":"string","internalType":"string"}]},{"name":"modelVersion","type":"string","internalType":"string"},{"name":"url","type":"string","internalType":"string"}],"outputs":[],"stateMutability":"nonpayable"},{"type":"function","name":"registerOnChain","inputs":[{"name":"arId","type":"string","internalType":"string"},{"name":"base","type":"tuple","internalType":"struct AnchorRegistry.AnchorBase","components":[{"name":"artifactType","type":"uint8","internalType":"enum AnchorRegistry.ArtifactType"},{"name":"manifestHash","type":"string","internalType":"string"},{"name":"parentHash","type":"string","internalType":"string"},{"name":"descriptor","type":"string","internalType":"string"}]},{"name":"chainId","type":"string","internalType":"string"},{"name":"assetType","type":"string","internalType":"string"},{"name":"assetId","type":"string","internalType":"string"},{"name":"url","type":"string","internalType":"string"}],"outputs":[],"stateMutability":"nonpayable"},{"type":"function","name":"registerOther","inputs":[{"name":"arId","type":"string","internalType":"string"},{"name":"base","type":"tuple","internalType":"struct AnchorRegistry.AnchorBase","components":[{"name":"artifactType","type":"uint8","internalType":"enum AnchorRegistry.ArtifactType"},{"name":"manifestHash","type":"string","internalType":"string"},{"name":"parentHash","type":"string","internalType":"string"},{"name":"descriptor","type":"string","internalType":"string"}]},{"name":"kind","type":"string","internalType":"string"},{"name":"platform","type":"string","internalType":"string"},{"name":"url","type":"string","internalType":"string"},{"name":"value","type":"string","internalType":"string"}],"outputs":[],"stateMutability":"nonpayable"},{"type":"function","name":"registerPost","inputs":[{"name":"arId","type":"string","internalType":"string"},{"name":"base","type":"tuple","internalType":"struct AnchorRegistry.AnchorBase","components":[{"name":"artifactType","type":"uint8","internalType":"enum AnchorRegistry.ArtifactType"},{"name":"manifestHash","type":"string","internalType":"string"},{"name":"parentHash","type":"string","internalType":"string"},{"name":"descriptor","type":"string","internalType":"string"}]},{"name":"platform","type":"string","internalType":"string"},{"name":"url","type":"string","internalType":"string"}],"outputs":[],"stateMutability":"nonpayable"},{"type":"function","name":"registerProof","inputs":[{"name":"arId","type":"string","internalType":"string"},{"name":"base","type":"tuple","internalType":"struct AnchorRegistry.AnchorBase","components":[{"name":"artifactType","type":"uint8","internalType":"enum AnchorRegistry.ArtifactType"},{"name":"manifestHash","type":"string","internalType":"string"},{"name":"parentHash","type":"string","internalType":"string"},{"name":"descriptor","type":"string","internalType":"string"}]},{"name":"proofType","type":"string","internalType":"string"},{"name":"proofSystem","type":"string","internalType":"string"},{"name":"verifierUrl","type":"string","internalType":"string"},{"name":"proofHash","type":"string","internalType":"string"}],"outputs":[],"stateMutability":"nonpayable"},{"type":"function","name":"registerResearch","inputs":[{"name":"arId","type":"string","internalType":"string"},{"name":"base","type":"tuple","internalType":"struct AnchorRegistry.AnchorBase","components":[{"name":"artifactType","type":"uint8","internalType":"enum AnchorRegistry.ArtifactType"},{"name":"manifestHash","type":"string","internalType":"string"},{"name":"parentHash","type":"string","internalType":"string"},{"name":"descriptor","type":"string","internalType":"string"}]},{"name":"doi","type":"string","internalType":"string"},{"name":"url","type":"string","internalType":"string"}],"outputs":[],"stateMutability":"nonpayable"},{"type":"function","name":"registerRetraction","inputs":[{"name":"arId","type":"string","internalType":"string"},{"name":"base","type":"tuple","internalType":"struct AnchorRegistry.AnchorBase","components":[{"name":"artifactType","type":"uint8","internalType":"enum AnchorRegistry.ArtifactType"},{"name":"manifestHash","type":"string","internalType":"string"},{"name":"parentHash","type":"string","internalType":"string"},{"name":"descriptor","type":"string","internalType":"string"}]},{"name":"targetArId","type":"string","internalType":"string"},{"name":"reason","type":"string","internalType":"string"},{"name":"replacedBy","type":"string","internalType":"string"}],"outputs":[],"stateMutability":"nonpayable"},{"type":"function","name":"registerReview","inputs":[{"name":"arId","type":"string","internalType":"string"},{"name":"base","type":"tuple","internalType":"struct AnchorRegistry.AnchorBase","components":[{"name":"artifactType","type":"uint8","internalType":"enum AnchorRegistry.ArtifactType"},{"name":"manifestHash","type":"string","internalType":"string"},{"name":"parentHash","type":"string","internalType":"string"},{"name":"descriptor","type":"string","internalType":"string"}]},{"name":"targetArId","type":"string","internalType":"string"},{"name":"reviewType","type":"string","internalType":"string"},{"name":"evidenceUrl","type":"string","internalType":"string"}],"outputs":[],"stateMutability":"nonpayable"},{"type":"function","name":"registerText","inputs":[{"name":"arId","type":"string","internalType":"string"},{"name":"base","type":"tuple","internalType":"struct AnchorRegistry.AnchorBase","components":[{"name":"artifactType","type":"uint8","internalType":"enum AnchorRegistry.ArtifactType"},{"name":"manifestHash","type":"string","internalType":"string"},{"name":"parentHash","type":"string","internalType":"string"},{"name":"descriptor","type":"string","internalType":"string"}]},{"name":"url","type":"string","internalType":"string"}],"outputs":[],"stateMutability":"nonpayable"},{"type":"function","name":"registerVoid","inputs":[{"name":"arId","type":"string","internalType":"string"},{"name":"base","type":"tuple","internalType":"struct AnchorRegistry.AnchorBase","components":[{"name":"artifactType","type":"uint8","internalType":"enum AnchorRegistry.ArtifactType"},{"name":"manifestHash","type":"string","internalType":"string"},{"name":"parentHash","type":"string","internalType":"string"},{"name":"descriptor","type":"string","internalType":"string"}]},{"name":"targetArId","type":"string","internalType":"string"},{"name":"reviewArId","type":"string","internalType":"string"},{"name":"findingUrl","type":"string","internalType":"string"},{"name":"evidence","type":"string","internalType":"string"}],"outputs":[],"stateMutability":"nonpayable"},{"type":"function","name":"registered","inputs":[{"name":"","type":"string","internalType":"string"}],"outputs":[{"name":"","type":"bool","internalType":"bool"}],"stateMutability":"view"},{"type":"function","name":"removeEntityOperator","inputs":[{"name":"op","type":"address","internalType":"address"}],"outputs":[],"stateMutability":"nonpayable"},{"type":"function","name":"removeLegalOperator","inputs":[{"name":"op","type":"address","internalType":"address"}],"outputs":[],"stateMutability":"nonpayable"},{"type":"function","name":"removeOperator","inputs":[{"name":"op","type":"address","internalType":"address"}],"outputs":[],"stateMutability":"nonpayable"},{"type":"function","name":"removeProofOperator","inputs":[{"name":"op","type":"address","internalType":"address"}],"outputs":[],"stateMutability":"nonpayable"},{"type":"function","name":"researchAnchors","inputs":[{"name":"","type":"string","internalType":"string"}],"outputs":[{"name":"base","type":"tuple","internalType":"struct AnchorRegistry.AnchorBase","components":[{"name":"artifactType","type":"uint8","internalType":"enum AnchorRegistry.ArtifactType"},{"name":"manifestHash","type":"string","internalType":"string"},{"name":"parentHash","type":"string","internalType":"string"},{"name":"descriptor","type":"string","internalType":"string"}]},{"name":"doi","type":"string","internalType":"string"},{"name":"url","type":"string","internalType":"string"}],"stateMutability":"view"},{"type":"function","name":"retractionAnchors","inputs":[{"name":"","type":"string","internalType":"string"}],"outputs":[{"name":"base","type":"tuple","internalType":"struct AnchorRegistry.AnchorBase","components":[{"name":"artifactType","type":"uint8","internalType":"enum AnchorRegistry.ArtifactType"},{"name":"manifestHash","type":"string","internalType":"string"},{"name":"parentHash","type":"string","internalType":"string"},{"name":"descriptor","type":"string","internalType":"string"}]},{"name":"targetArId","type":"string","internalType":"string"},{"name":"reason","type":"string","internalType":"string"},{"name":"replacedBy","type":"string","internalType":"string"}],"stateMutability":"view"},{"type":"function","name":"reviewAnchors","inputs":[{"name":"","type":"string","internalType":"string"}],"outputs":[{"name":"base","type":"tuple","internalType":"struct AnchorRegistry.AnchorBase","components":[{"name":"artifactType","type":"uint8","internalType":"enum AnchorRegistry.ArtifactType"},{"name":"manifestHash","type":"string","internalType":"string"},{"name":"parentHash","type":"string","internalType":"string"},{"name":"descriptor","type":"string","internalType":"string"}]},{"name":"targetArId","type":"string","internalType":"string"},{"name":"reviewType","type":"string","internalType":"string"},{"name":"evidenceUrl","type":"string","internalType":"string"}],"stateMutability":"view"},{"type":"function","name":"setRecoveryAddress","inputs":[{"name":"_newRecovery","type":"address","internalType":"address"}],"outputs":[],"stateMutability":"nonpayable"},{"type":"function","name":"textAnchors","inputs":[{"name":"","type":"string","internalType":"string"}],"outputs":[{"name":"base","type":"tuple","internalType":"struct AnchorRegistry.AnchorBase","components":[{"name":"artifactType","type":"uint8","internalType":"enum AnchorRegistry.ArtifactType"},{"name":"manifestHash","type":"string","internalType":"string"},{"name":"parentHash","type":"string","internalType":"string"},{"name":"descriptor","type":"string","internalType":"string"}]},{"name":"url","type":"string","internalType":"string"}],"stateMutability":"view"},{"type":"function","name":"transferOwnership","inputs":[{"name":"newOwner","type":"address","internalType":"address"}],"outputs":[],"stateMutability":"nonpayable"},{"type":"function","name":"voidAnchors","inputs":[{"name":"","type":"string","internalType":"string"}],"outputs":[{"name":"base","type":"tuple","internalType":"struct AnchorRegistry.AnchorBase","components":[{"name":"artifactType","type":"uint8","internalType":"enum AnchorRegistry.ArtifactType"},{"name":"manifestHash","type":"string","internalType":"string"},{"name":"parentHash","type":"string","internalType":"string"},{"name":"descriptor","type":"string","internalType":"string"}]},{"name":"targetArId","type":"string","internalType":"string"},{"name":"reviewArId","type":"string","internalType":"string"},{"name":"findingUrl","type":"string","internalType":"string"},{"name":"evidence","type":"string","internalType":"string"}],"stateMutability":"view"},{"type":"event","name":"Affirmed","inputs":[{"name":"arId","type":"string","indexed":true,"internalType":"string"},{"name":"targetArId","type":"string","indexed":true,"internalType":"string"},{"name":"affirmedBy","type":"string","indexed":false,"internalType":"string"}],"anonymous":false},{"type":"event","name":"Anchored","inputs":[{"name":"arId","type":"string","indexed":true,"internalType":"string"},{"name":"registrant","type":"address","indexed":true,"internalType":"address"},{"name":"artifactType","type":"uint8","indexed":false,"internalType":"enum AnchorRegistry.ArtifactType"},{"name":"descriptor","type":"string","indexed":false,"internalType":"string"},{"name":"manifestHash","type":"string","indexed":false,"internalType":"string"},{"name":"parentHash","type":"string","indexed":false,"internalType":"string"}],"anonymous":false},{"type":"event","name":"EntityOperatorAdded","inputs":[{"name":"operator","type":"address","indexed":true,"internalType":"address"}],"anonymous":false},{"type":"event","name":"EntityOperatorRemoved","inputs":[{"name":"operator","type":"address","indexed":true,"internalType":"address"}],"anonymous":false},{"type":"event","name":"LegalOperatorAdded","inputs":[{"name":"operator","type":"address","indexed":true,"internalType":"address"}],"anonymous":false},{"type":"event","name":"LegalOperatorRemoved","inputs":[{"name":"operator","type":"address","indexed":true,"internalType":"address"}],"anonymous":false},{"type":"event","name":"OperatorAdded","inputs":[{"name":"operator","type":"address","indexed":true,"internalType":"address"}],"anonymous":false},{"type":"event","name":"OperatorRemoved","inputs":[{"name":"operator","type":"address","indexed":true,"internalType":"address"}],"anonymous":false},{"type":"event","name":"OwnershipTransferred","inputs":[{"name":"previousOwner","type":"address","indexed":true,"internalType":"address"},{"name":"newOwner","type":"address","indexed":true,"internalType":"address"}],"anonymous":false},{"type":"event","name":"ProofOperatorAdded","inputs":[{"name":"operator","type":"address","indexed":true,"internalType":"address"}],"anonymous":false},{"type":"event","name":"ProofOperatorRemoved","inputs":[{"name":"operator","type":"address","indexed":true,"internalType":"address"}],"anonymous":false},{"type":"event","name":"RecoveryAddressUpdated","inputs":[{"name":"newRecoveryAddress","type":"address","indexed":true,"internalType":"address"}],"anonymous":false},{"type":"event","name":"RecoveryCancelled","inputs":[],"anonymous":false},{"type":"event","name":"RecoveryExecuted","inputs":[{"name":"newOwner","type":"address","indexed":true,"internalType":"address"}],"anonymous":false},{"type":"event","name":"RecoveryInitiated","inputs":[{"name":"recoveryAddress","type":"address","indexed":true,"internalType":"address"},{"name":"pendingOwner","type":"address","indexed":true,"internalType":"address"}],"anonymous":false},{"type":"event","name":"Retracted","inputs":[{"name":"arId","type":"string","indexed":true,"internalType":"string"},{"name":"targetArId","type":"string","indexed":true,"internalType":"string"},{"name":"replacedBy","type":"string","indexed":false,"internalType":"string"}],"anonymous":false},{"type":"event","name":"Reviewed","inputs":[{"name":"arId","type":"string","indexed":true,"internalType":"string"},{"name":"targetArId","type":"string","indexed":true,"internalType":"string"},{"name":"reviewType","type":"string","indexed":false,"internalType":"string"},{"name":"evidenceUrl","type":"string","indexed":false,"internalType":"string"}],"anonymous":false},{"type":"event","name":"Voided","inputs":[{"name":"arId","type":"string","indexed":true,"internalType":"string"},{"name":"targetArId","type":"string","indexed":true,"internalType":"string"},{"name":"reviewArId","type":"string","indexed":true,"internalType":"string"},{"name":"evidence","type":"string","indexed":false,"internalType":"string"}],"anonymous":false},{"type":"error","name":"AlreadyRegistered","inputs":[{"name":"arId","type":"string","internalType":"string"}]},{"type":"error","name":"EmptyArId","inputs":[]},{"type":"error","name":"EmptyManifestHash","inputs":[]},{"type":"error","name":"EmptyTargetArId","inputs":[]},{"type":"error","name":"InvalidParent","inputs":[{"name":"parentHash","type":"string","internalType":"string"}]},{"type":"error","name":"InvalidTarget","inputs":[{"name":"targetArId","type":"string","internalType":"string"}]},{"type":"error","name":"NotEntityOperator","inputs":[]},{"type":"error","name":"NotLegalOperator","inputs":[]},{"type":"error","name":"NotOperator","inputs":[]},{"type":"error","name":"NotOwner","inputs":[]},{"type":"error","name":"NotProofOperator","inputs":[]},{"type":"error","name":"NotRecoveryAddress","inputs":[]},{"type":"error","name":"RecoveryDelayNotMet","inputs":[]},{"type":"error","name":"RecoveryLockedOut","inputs":[]},{"type":"error","name":"RecoveryNotInitiated","inputs":[]},{"type":"error","name":"ZeroAddress","inputs":[]}],"bytecode":{"object":"0x608034620000bd57601f620048ec38819003918201601f19168301916001600160401b03831184841017620000c157808492602094604052833981010312620000bd57516001600160a01b03811690819003620000bd578015620000ab5760018060a01b031933815f5416175f556001541617600155604051335f7f8be0079c531659141344cd1fd0a4f28419497f9722a3daafe3b4186f6b6457e08180a36148169081620000d68239f35b60405163d92e233d60e01b8152600490fd5b5f80fd5b634e487b7160e01b5f52604160045260245ffdfe60a0806040526004361015610012575f80fd5b5f3560e01c9081630ba234d614612c3e57508063132171b014612bf657806313e7c9d814612bb5578063144888ff14612b6d578063165d33fe14612b2557806316aca54614612add578063196fbf7714612a7a5780631cb655e714612a325780631f3618bf1461291657806320727381146128f957806320c5a3e11461280c578063397c9a3a146127995780633ff9869014612709578063402cef1b146126c857806345f65cfa1461265557806347b456521461242757806347be22fa1461263857806347deec0d146125f057806349efe5ae146125825780634c5b2c501461250b578063517f4dcf1461248f57806351e39cee1461242c578063561ea99c14612427578063573701f7146123df5780635bd47e10146123975780635cdd7b84146123345780635d064b3a146122ec5780635d2d5c371461229e5780636ae0dd9c1461225d5780636b6797c9146121ea5780636ba60e7114612180578063710eb26c14612158578063717d1a8514612110578063762d408d146120c8578063786ce0a014611b775780637b207ae614611aca5780637d15e15d14611a54578063864572be146119f15780638da5cb5b146119ca57806396ad272d146119825780639870d7fe1461190f578063ac8a584a146118a5578063acd1b4be14611830578063b36cc39a146117a7578063b643fcb31461173d578063b91ef084146116fc578063b9988922146115c0578063d58817e6146114bb578063d5ce9aad1461141a578063ddf841a9146113b0578063e00201871461134d578063e0ac87b9146112c3578063e30c39781461129b578063e4cc22a1146111e6578063e600a0a0146110d6578063ecc8d0fc14611050578063ed540d2f14610faa578063edf1677b1461033b5763f2fde38b146102a5575f80fd5b34610337576020366003190112610337576004356001600160a01b0381811691829003610337575f549081168033036103255782156103135782907f8be0079c531659141344cd1fd0a4f28419497f9722a3daafe3b4186f6b6457e05f80a36001600160a01b031916175f55005b60405163d92e233d60e01b8152600490fd5b6040516330cd747160e01b8152600490fd5b5f80fd5b346103375760031961010036820112610337576004356001600160401b0381116103375761036d903690600401612ff9565b602435926001600160401b038411610337576080908436030112610337576044356001600160401b038111610337576103aa903690600401612ff9565b6064356001600160401b038111610337576103c9903690600401612ff9565b6084939193356001600160401b038111610337576103eb903690600401612ff9565b93909260a4356001600160401b0381116103375761040d903690600401612ff9565b919060c4356001600160401b0381116103375761042e903690600401612ff9565b93909460e4356001600160401b03811161033757610450903690600401612ff9565b989099335f52600460205260ff60405f20541615610f98576104798f8f908f90600401916145a2565b60405160805260e06080510160805181106001600160401b0382111761094b578f9c6105059a6104ce6105139f996104ea976104c36104f89c6104dc976040523690600401613250565b608051523691612d31565b602060805101523691612d31565b604060805101523691612d31565b606060805101523691612d31565b6080805101523691612d31565b60a060805101523691612d31565b60c060805101526040518183823760208183810160138152030190206080515180516011811015610f845760ff8019845416911617825560208101518051906001600160401b03821161094b57819061056f6001860154612db5565b601f8111610f31575b50602090601f8311600114610ec3575f92610eb8575b50508160011b915f199060031b1c19161760018301555b60408101518051906001600160401b03821161094b576105c86002850154612db5565b601f8111610e70575b50602090601f8311600114610e015760609392915f9183610df6575b50508160011b915f199060031b1c19161760028401555b01518051906001600160401b03821161094b5781906106266003850154612db5565b601f8111610da6575b50602090601f8311600114610d38575f92610d2d575b50508160011b915f199060031b1c19161760038201555b602060805101518051906001600160401b03821161094b5781906106836004850154612db5565b601f8111610cda575b50602090601f8311600114610c6c575f92610c61575b50508160011b915f199060031b1c19161760048201555b604060805101518051906001600160401b03821161094b5781906106e06005850154612db5565b601f8111610c0e575b50602090601f8311600114610ba0575f92610b95575b50508160011b915f199060031b1c19161760058201555b60068101606060805101518051906001600160401b03821161094b57819061073e8454612db5565b601f8111610b45575b50602090601f8311600114610ae1575f92610ad6575b50508160011b915f199060031b1c19161790555b600781016080805101518051906001600160401b03821161094b5781906107988454612db5565b601f8111610a86575b50602090601f8311600114610a22575f92610a17575b50508160011b915f199060031b1c19161790555b6008810160a060805101518051906001600160401b03821161094b576107f18354612db5565b601f81116109d2575b50602090601f831160011461096a576009949392915f918361095f575b50508160011b915f199060031b1c19161790555b019260c06080510151938451946001600160401b03861161094b576108508254612db5565b601f8111610906575b50602090601f871160011461089f5761089296915f9183610894575b50508160011b915f199060031b1c19161790555b600401916146a3565b005b015190508780610875565b90601f19871691835f5260205f20925f5b8181106108ee57509160019391896108929a94106108d6575b505050811b019055610889565b01515f1960f88460031b161c191690558780806108c9565b929360206001819287860151815501950193016108b0565b825f5260205f20601f880160051c81019160208910610941575b601f0160051c01905b8181106109365750610859565b5f8155600101610929565b9091508190610920565b634e487b7160e01b5f52604160045260245ffd5b015190508880610817565b90601f19831691845f5260205f20925f5b8181106109ba5750916001939185600998979694106109a2575b505050811b01905561082b565b01515f1960f88460031b161c19169055888080610995565b9293602060018192878601518155019501930161097b565b835f5260205f20601f840160051c81019160208510610a0d575b601f0160051c01905b818110610a0257506107fa565b5f81556001016109f5565b90915081906109ec565b0151905087806107b7565b5f858152602081209350601f198516905b818110610a6e5750908460019594939210610a56575b505050811b0190556107cb565b01515f1960f88460031b161c19169055878080610a49565b92936020600181928786015181550195019301610a33565b909150835f5260205f20601f840160051c81019160208510610acc575b90601f859493920160051c01905b818110610abe57506107a1565b5f8155849350600101610ab1565b9091508190610aa3565b01519050878061075d565b5f858152602081209350601f198516905b818110610b2d5750908460019594939210610b15575b505050811b019055610771565b01515f1960f88460031b161c19169055878080610b08565b92936020600181928786015181550195019301610af2565b909150835f5260205f20601f840160051c81019160208510610b8b575b90601f859493920160051c01905b818110610b7d5750610747565b5f8155849350600101610b70565b9091508190610b62565b0151905086806106ff565b9250600584015f5260205f20905f935b601f1984168510610bf3576001945083601f19811610610bdb575b505050811b016005820155610716565b01515f1960f88460031b161c19169055868080610bcb565b81810151835560209485019460019093019290910190610bb0565b909150600584015f5260205f20601f840160051c81019160208510610c57575b90601f859493920160051c01905b818110610c4957506106e9565b5f8155849350600101610c3c565b9091508190610c2e565b0151905086806106a2565b9250600484015f5260205f20905f935b601f1984168510610cbf576001945083601f19811610610ca7575b505050811b0160048201556106b9565b01515f1960f88460031b161c19169055868080610c97565b81810151835560209485019460019093019290910190610c7c565b909150600484015f5260205f20601f840160051c81019160208510610d23575b90601f859493920160051c01905b818110610d15575061068c565b5f8155849350600101610d08565b9091508190610cfa565b015190508680610645565b9250600384015f5260205f20905f935b601f1984168510610d8b576001945083601f19811610610d73575b505050811b01600382015561065c565b01515f1960f88460031b161c19169055868080610d63565b81810151835560209485019460019093019290910190610d48565b909150600384015f5260205f20601f840160051c810160208510610def575b90849392915b601f830160051c82018110610de157505061062f565b5f8155859450600101610dcb565b5080610dc5565b0151905088806105ed565b90600285015f5260205f20915f5b601f1985168110610e58575091839160019360609695601f19811610610e40575b505050811b016002840155610604565b01515f1960f88460031b161c19169055888080610e30565b91926020600181928685015181550194019201610e0f565b600285015f5260205f20601f840160051c81019160208510610eae575b601f0160051c01905b818110610ea357506105d1565b5f8155600101610e96565b9091508190610e8d565b01519050878061058e565b9250600185015f5260205f20905f935b601f1984168510610f16576001945083601f19811610610efe575b505050811b0160018301556105a5565b01515f1960f88460031b161c19169055878080610eee565b81810151835560209485019460019093019290910190610ed3565b909150600185015f5260205f20601f840160051c81019160208510610f7a575b90601f859493920160051c01905b818110610f6c5750610578565b5f8155849350600101610f5f565b9091508190610f51565b634e487b7160e01b5f52602160045260245ffd5b60405163ebee8ba760e01b8152600490fd5b3461033757610fb836613026565b91909592949394335f52600260205260ff60405f2054161561103e57610892966110399361100e61101a93610fee8a8a8a6145a2565b60405195610ffb87612cbf565b611005368c613250565b87523691612d31565b60208501523691612d31565b604082015260405184848237602081868101600b8152030190206132d4565b6146a3565b604051631f0853c160e21b8152600490fd5b34610337576020366003190112610337576004356001600160401b038111610337576020611085611098923690600401612d76565b8160405193828580945193849201612d94565b810160128152030190206110ab81612e8f565b6110d26110c660056110bf60048601612ded565b9401612ded565b60405193849384612fc2565b0390f35b34610337576020366003190112610337576004356001600160401b03811161033757602061108561110b923690600401612d76565b8101601381520301902060e06110d261112383612e8f565b926111d861113360048301612ded565b916111ca61114360058301612ded565b6111bc61115260068501612ded565b6111ae61116160078701612ded565b936111a061117d600961117660088b01612ded565b9901612ded565b996111926040519e8f9e8f8181520190612f17565b8d810360208f015290612ef2565b908b820360408d0152612ef2565b9089820360608b0152612ef2565b908782036080890152612ef2565b9085820360a0870152612ef2565b9083820360c0850152612ef2565b34610337576111f4366131a2565b919996959092989798335f52600260205260ff60405f2054161561103e576108929a6112646112489761127c976112586110399b8f978f8f9961123e8161124f936112709d6145a2565b6040519e8f612cf5565b3690613250565b8d523691612d31565b60208b01523691612d31565b60408801523691612d31565b60608501523691612d31565b6080820152604051848482376020818681016019815203019020613e51565b34610337575f366003190112610337576008546040516001600160a01b039091168152602090f35b34610337576020366003190112610337576004356001600160401b0381116103375760206110856112f8923690600401612d76565b8101601781520301902061130b81612e8f565b6110d261131a60048401612ded565b9261132760058201612ded565b90611340600761133960068401612ded565b9201612ded565b9160405195869586612f67565b346103375761135b36613026565b91909592949394335f52600260205260ff60405f2054161561103e57610892966110399361100e61139193610fee8a8a8a6145a2565b604082015260405184848237602081868101600d8152030190206132d4565b34610337576020366003190112610337576004356001600160a01b0381811691829003610337575f5416330361032557805f52600460205260405f2060ff1981541690557fb3995d3ad0a4cb17193137b6b470c2eda6bbf6d63f3d135f197fc4cdeedc27905f80a2005b34610337576020366003190112610337576004356001600160a01b038181169182900361033757600154168033036114a957811561031357600754421061149757600880546001600160a01b03191683179055426006557fe7eb1bf44bc7e6084d5d89f19e76a2b46fed60ff3eb9e650f3db79a386391c615f80a3005b6040516333ca6ceb60e21b8152600490fd5b6040516320a6214d60e21b8152600490fd5b34610337576114c9366130a8565b97919094969295335f52600260205260ff60405f2054161561103e576115796115809261154a7faf0c98c5c4879ef897a044cdac758c7bd233c9d4ac8cdbb360f44280e7b0047d9961151c8589896145a2565b611526898d614781565b6040519261153384612cda565b61153d3687613250565b845261100e368b8f612d31565b604082015261155a368c8a612d31565b6060820152604051868682376020818881016015815203019020613814565b83836146a3565b81604051928392833781015f81520390209381604051928392833781015f8152039020936115bb604051928392602084526020840191613e31565b0390a3005b34610337576115ce366131a2565b9991969798929095939498335f52600260205260ff60405f2054161561103e576115798961167b6116aa947f07c9fc4ac9266376cb17afdcee0f23f0f5abaf32dab736c7d891c595d39725bd9b61166f8f61162a888c8c6145a2565b6116348c87614781565b61163e8d82614781565b6116626040519661164e88612cf5565b611658368b613250565b88528d3691612d31565b60208701528c3691612d31565b60408501523691612d31565b606082015261168b368e8b612d31565b6080820152604051868682376020818881016017815203019020613e51565b81604051928392833781015f81520390209481604051928392833781015f81520390209481604051928392833781015f8152039020946116f7604051928392602084526020840191613e31565b0390a4005b34610337576020366003190112610337576004356001600160a01b03811690819003610337575f526003602052602060ff60405f2054166040519015158152f35b34610337576020366003190112610337576004356001600160a01b0381811691829003610337575f5416330361032557805f52600560205260405f2060ff1981541690557fc28840c72026297551adaf2f67ff2d6aca1b2c4ed12cf5023d94ba7076e75a095f80a2005b34610337576117b5366131a2565b919996959092989798335f52600560205260ff60405f2054161561181e576108929a611264611248976117ff976112586110399b8f978f8f9961123e8161124f936112709d6145a2565b6080820152604051848482376020818681016014815203019020613e51565b60405163b601a68d60e01b8152600490fd5b346103375761183e36613026565b91909592949394335f52600360205260ff60405f2054161561189357610892966110399361100e61187493610fee8a8a8a6145a2565b60408201526040518484823760208186810160128152030190206132d4565b604051633b4d583360e21b8152600490fd5b34610337576020366003190112610337576004356001600160a01b0381811691829003610337575f5416330361032557805f52600260205260405f2060ff1981541690557f80c0b871b97b595b16a7741c1b06fed0c6f6f558639f18ccbce50724325dc40d5f80a2005b34610337576020366003190112610337576004356001600160a01b0381811691829003610337575f5416330361032557801561031357805f52600260205260405f20600160ff198254161790557fac6fa858e9350a46cec16539926e0fde25b7629f84b5a72bffaae4df888ae86d5f80a2005b34610337576020366003190112610337576004356001600160401b0381116103375760206110856119b7923690600401612d76565b8101601181520301902061130b81612e8f565b34610337575f366003190112610337575f546040516001600160a01b039091168152602090f35b34610337576119ff36613026565b91909592949394335f52600260205260ff60405f2054161561103e57610892966110399361100e611a3593610fee8a8a8a6145a2565b604082015260405184848237602081868101600e8152030190206132d4565b34610337576020366003190112610337576004356001600160401b038111610337576020611085611a89923690600401612d76565b81016015815203019020611a9c81612e8f565b6110d2611aab60048401612ded565b92611abd600661133960058401612ded565b906040519485948561315a565b3461033757611ad8366130a8565b9597919796929496335f52600260205260ff60405f2054161561103e5761157988611b58611580947fa62ae18c8132954544e02a502215888bdc7d7df53e52873d79a81f91544f2dba9a61166f8e611b31888c8c6145a2565b611b3b8c87614781565b611b4b6040519661164e88612cda565b602087015236908d612d31565b6060820152604051868682376020818881016018815203019020613814565b3461033757600319606036820112610337576001600160401b039060043582811161033757611baa903690600401612ff9565b906024803593858511610337576080908560040195360301126103375760443585811161033757611bdf903690600401612ff9565b90335f526020906002825260ff60405f2054161561103e57611c028787876145a2565b60405192604084018481108a821117611f1f57604052611c309190611c27368a613250565b85523691612d31565b92818301938452604051868682378281888101600f815203019020925191825160118110156120b55760ff8019865416911617845560019384810193828101519485518c8111611f1f5780611c858354612db5565b97601f98898111612067575b508690898311600114612008575f92611ffd575b50505f19600383901b1c191690881b1790555b6002820160408201518051908d8211611fea578190611cd78454612db5565b898111611f9c575b508690898311600114611f3d575f92611f32575b50505f19600383901b1c191690881b1790555b60600151805160038301918c8211611f1f57611d228354612db5565b878111611edc575b508490878311600114611e78576004949392915f9183611e6d575b50505f19600383901b1c191690881b1790555b019451918251998a11611e5a5750611d708554612db5565b838111611e17575b5080928911600114611db4575061089297925f92849283611da9575b50501b915f199060031b1c19161790556146a3565b015192508980611d94565b909791601f19831698855f52825f20925f905b8b8210611e00575050836108929a10611de8575b505050811b0190556146a3565b01515f1960f88460031b161c19169055878080611ddb565b808785968294968601518155019501930190611dc7565b855f52815f2084808c0160051c820192848d10611e51575b0160051c019085905b828110611e46575050611d78565b5f8155018590611e38565b92508192611e2f565b634e487b7160e01b5f9081526041600452fd5b015190508e80611d45565b9392918891601f19821690845f52875f20915f5b89828210611ec6575050968360049810611eae575b505050811b019055611d58565b01515f1960f88460031b161c191690558e8080611ea1565b838a015185558d96909401939283019201611e8c565b835f52855f208880850160051c820192888610611f16575b0160051c019089905b828110611f0b575050611d2a565b5f8155018990611efd565b92508192611ef4565b85634e487b7160e01b5f5260416004525ffd5b015190508e80611cf3565b908a9350601f19831691855f52885f20925f5b8a828210611f865750508411611f6e575b505050811b019055611d06565b01515f1960f88460031b161c191690558e8080611f61565b8385015186558e97909501949384019301611f50565b909150835f52865f208980850160051c820192898610611fe1575b918c91869594930160051c01915b828110611fd3575050611cdf565b5f81558594508c9101611fc5565b92508192611fb7565b86634e487b7160e01b5f5260416004525ffd5b015190508e80611ca5565b908a9350601f19831691855f52885f20925f5b8a8282106120515750508411612039575b505050811b019055611cb8565b01515f1960f88460031b161c191690558e808061202c565b8385015186558e9790950194938401930161201b565b909150835f52865f208980850160051c8201928986106120ac575b918c91869594930160051c01915b82811061209e575050611c91565b5f81558594508c9101612090565b92508192612082565b82634e487b7160e01b5f5260216004525ffd5b34610337576020366003190112610337576004356001600160401b0381116103375760206110856120fd923690600401612d76565b8101600e8152030190206110ab81612e8f565b34610337576020366003190112610337576004356001600160401b038111610337576020611085612145923690600401612d76565b8101600b8152030190206110ab81612e8f565b34610337575f366003190112610337576001546040516001600160a01b039091168152602090f35b34610337576020366003190112610337576004356001600160a01b0381811691829003610337575f5416330361032557805f52600360205260405f2060ff1981541690557f6b66d1bba82a11aca959b4321a690cd67c826fb136617127d12973beb6957b335f80a2005b34610337576020366003190112610337576004356001600160a01b0381811691829003610337575f5416330361032557801561031357805f52600560205260405f20600160ff198254161790557f5bfe4ffbe756ad2df32059678eca22cadff8ecb3440f958eae6ff7b2d436e1ba5f80a2005b34610337576020366003190112610337576004356001600160a01b03811690819003610337575f526004602052602060ff60405f2054166040519015158152f35b34610337576020366003190112610337576004356001600160401b0381116103375760ff6122d6602061108581943690600401612d76565b8101601a81520301902054166040519015158152f35b34610337576020366003190112610337576004356001600160401b038111610337576020611085612321923690600401612d76565b81016016815203019020611a9c81612e8f565b346103375761234236613026565b91909592949394335f52600260205260ff60405f2054161561103e57610892966110399361100e61237893610fee8a8a8a6145a2565b604082015260405184848237602081868101600c8152030190206132d4565b34610337576020366003190112610337576004356001600160401b0381116103375760206110856123cc923690600401612d76565b8101601981520301902061130b81612e8f565b34610337576020366003190112610337576004356001600160401b038111610337576020611085612414923690600401612d76565b81016009815203019020611a9c81612e8f565b61313d565b346103375761243a36613026565b91909592949394335f52600260205260ff60405f2054161561103e57610892966110399361100e61247093610fee8a8a8a6145a2565b604082015260405184848237602081868101600a8152030190206132d4565b34610337576020366003190112610337576004356001600160401b038111610337576124c760206110856124fd933690600401612d76565b8101600f8152030190206110d26124e960046124e284612e8f565b9301612ded565b604051938493604085526040850190612f17565b908382036020850152612ef2565b3461033757612519366131a2565b919996959092989798335f52600260205260ff60405f2054161561103e576108929a61126461124897612563976112586110399b8f978f8f9961123e8161124f936112709d6145a2565b6080820152604051848482376020818681016011815203019020613e51565b34610337576020366003190112610337576004356001600160a01b03818116918290036103375760015490811633036114a9578115610313576001600160a01b03191681176001557f83c14e1947c5a639434d6195a6e9d85ab3471a5049c66e0aa46b71e2c0a06dde5f80a2005b34610337576020366003190112610337576004356001600160401b038111610337576020611085612625923690600401612d76565b81016018815203019020611a9c81612e8f565b34610337575f366003190112610337576020600754604051908152f35b34610337576020366003190112610337576004356001600160a01b0381811691829003610337575f5416330361032557801561031357805f52600360205260405f20600160ff198254161790557f6d52a43c5decf356b1093e9f3b6beb1eb8f9f3f333a8f13171e1d89c143c45755f80a2005b34610337576020366003190112610337576004356001600160a01b03811690819003610337575f526005602052602060ff60405f2054166040519015158152f35b3461033757612717366130a8565b97949796959693919293335f52600260205260ff60405f2054161561103e5761166f61103995899561276e6108929c61277a976127558a8e8e6145a2565b6127656040519a6112488c612cda565b8a523691612d31565b60208801523691612d31565b6060820152604051848482376020818681016009815203019020613814565b34610337576020366003190112610337576004356001600160a01b0381811691829003610337575f5416330361032557801561031357805f52600460205260405f20600160ff198254161790557f65e52bd3fb1902d00941506c0a765dfad293c8c4d5851c7a4dc55ad5d60ff5e35f80a2005b34610337575f366003190112610337576001546001600160a01b0390811633036114a95760065480156128e75762093a8081018091116128d35742106128c1575f54600854828116809383167f8be0079c531659141344cd1fd0a4f28419497f9722a3daafe3b4186f6b6457e05f80a3826bffffffffffffffffffffffff60a01b809316175f55166008555f6006557ffcd2de31341801b7fd80895c780aae50c1505fd674ff1b9b9764c56c633434d65f80a2005b604051634b362d4f60e01b8152600490fd5b634e487b7160e01b5f52601160045260245ffd5b60405163078591a760e11b8152600490fd5b34610337575f366003190112610337576020600654604051908152f35b3461033757612924366130a8565b979592949693909193335f52600260205260ff60405f2054161561103e57866129e9856115798b6129ca8e61297f6115bb9b7f4c008f49c3178c1ce0fb3c86aed7d2e80aca376ed1476947ca5a220f45e9a5089f8a906145a2565b6129898984614781565b6129ad6040519361299985612cda565b6129a33688613250565b85528a3691612d31565b60208401526129bd368d8f612d31565b604084015236908a612d31565b6060820152604051868682376020818881016016815203019020613814565b81604051928392833781015f81520390209681604051928392833781015f815203902096612a24604051958695604087526040870191613e31565b918483036020860152613e31565b34610337576020366003190112610337576004356001600160401b038111610337576020611085612a67923690600401612d76565b810160108152030190206110ab81612e8f565b3461033757612a8836613026565b91909592949394335f52600260205260ff60405f2054161561103e57610892966110399361100e612abe93610fee8a8a8a6145a2565b60408201526040518484823760208186810160108152030190206132d4565b34610337576020366003190112610337576004356001600160401b038111610337576020611085612b12923690600401612d76565b8101600c8152030190206110ab81612e8f565b34610337576020366003190112610337576004356001600160401b038111610337576020611085612b5a923690600401612d76565b8101600a8152030190206110ab81612e8f565b34610337576020366003190112610337576004356001600160401b038111610337576020611085612ba2923690600401612d76565b8101600d8152030190206110ab81612e8f565b34610337576020366003190112610337576004356001600160a01b03811690819003610337575f526002602052602060ff60405f2054166040519015158152f35b34610337576020366003190112610337576004356001600160401b038111610337576020611085612c2b923690600401612d76565b8101601481520301902061130b81612e8f565b34610337575f366003190112610337575f546001600160a01b03163303612cb0576bffffffffffffffffffffffff60a01b600854166008555f60065562093a8042018042116128d3576007557fedd770ee01b7c0ef4f503125eafdc2725536cbf32342dffcaa300d95a7cafce35f80a1005b6330cd747160e01b8152600490fd5b606081019081106001600160401b0382111761094b57604052565b608081019081106001600160401b0382111761094b57604052565b60a081019081106001600160401b0382111761094b57604052565b90601f801991011681019081106001600160401b0382111761094b57604052565b9291926001600160401b03821161094b5760405191612d5a601f8201601f191660200184612d10565b829481845281830111610337578281602093845f960137010152565b9080601f8301121561033757816020612d9193359101612d31565b90565b5f5b838110612da55750505f910152565b8181015183820152602001612d96565b90600182811c92168015612de3575b6020831014612dcf57565b634e487b7160e01b5f52602260045260245ffd5b91607f1691612dc4565b9060405191825f8254612dff81612db5565b908184526020946001916001811690815f14612e6d5750600114612e2f575b505050612e2d92500383612d10565b565b5f90815285812095935091905b818310612e55575050612e2d93508201015f8080612e1e565b85548884018501529485019487945091830191612e3c565b92505050612e2d94925060ff191682840152151560051b8201015f8080612e1e565b90604051612e9c81612cda565b809260ff815416906011821015610f84576003612ee0916060938552612ec460018201612ded565b6020860152612ed560028201612ded565b604086015201612ded565b910152565b906011821015610f845752565b90602091612f0b81518092818552858086019101612d94565b601f01601f1916010190565b612d9191612f26818351612ee5565b6060612f56612f446020850151608060208601526080850190612ef2565b60408501518482036040860152612ef2565b920151906060818403910152612ef2565b9390612d919593612f98612fb494612f8a612fa69460a08a5260a08a0190612f17565b9088820360208a0152612ef2565b908682036040880152612ef2565b908482036060860152612ef2565b916080818403910152612ef2565b91612feb90612fdd612d919593606086526060860190612f17565b908482036020860152612ef2565b916040818403910152612ef2565b9181601f84011215610337578235916001600160401b038311610337576020838186019501011161033757565b9060031990608082840112610337576001600160401b03600435818111610337578461305491600401612ff9565b94909493602435908382116103375760809082840301126103375760040192604435838111610337578261308a91600401612ff9565b93909392606435918211610337576130a491600401612ff9565b9091565b906003199060a082840112610337576001600160401b03906004803583811161033757856130d7918301612ff9565b959095946024359085821161033757608090828403011261033757820193604435818111610337578261310b918501612ff9565b949094936064358381116103375784613125918301612ff9565b94909493608435908111610337576130a49201612ff9565b34610337575f36600319011261033757602060405162093a808152f35b92613186612d91959361317861319494608088526080880190612f17565b908682036020880152612ef2565b908482036040860152612ef2565b916060818403910152612ef2565b6003199060c081830112610337576004906001600160401b03823581811161033757826131d0918501612ff9565b9590959460243590838211610337576080908286030112610337578401936044358381116103375784613204918301612ff9565b94909493606435818111610337578261321e918501612ff9565b949094936084358381116103375784613238918301612ff9565b9490949360a435908111610337576130a49201612ff9565b9190608083820312610337576040519061326982612cda565b8193803560118110156103375783526001600160401b039160208201358381116103375781613299918401612d76565b6020850152604082013583811161033757816132b6918401612d76565b6040850152606082013592831161033757606092612ee09201612d76565b81519081516011811015610f845760ff8019835416911617815560019182820191602080830151918251946001600160401b039586811161094b578061331a8354612db5565b95601f968781116137c6575b508590878311600114613767575f9261375c575b50505f19600383901b1c191690881b1790555b60028101604085015180519087821161094b57819061336c8454612db5565b87811161370e575b5085908783116001146136af575f926136a4575b50505f19600383901b1c191690881b1790555b600393606085830191015180519087821161094b5781906133bc8454612db5565b878111613656575b5085908783116001146135f8575f926135ed575b50505f1982881b1c191690881b1790555b600481018288015180519087821161094b576134058354612db5565b8681116135aa575b50849086831160011461354157918060059492604096945f92613536575b50505f19828a1b1c1916908a1b1790555b0196015190815194851161094b576134548754612db5565b8381116134f3575b508092851160011461349157509383949184925f95613486575b50501b925f19911b1c1916179055565b015193505f80613476565b92919084601f198116885f52855f20955f905b898383106134d957505050106134c0575b50505050811b019055565b01519060f8845f19921b161c191690555f8080806134b5565b8587015189559097019694850194889350908101906134a4565b875f52815f208480880160051c82019284891061352d575b0160051c019087905b82811061352257505061345c565b5f8155018790613514565b9250819261350b565b015190505f8061342b565b899291601f19831691855f52875f20925f5b89828210613594575050916040979593918560059896941061357d575b505050811b01905561343c565b01515f19838c1b60f8161c191690555f8080613570565b8385015186558e97909501949384019301613553565b835f52855f208780850160051c8201928886106135e4575b0160051c01908a905b8281106135d957505061340d565b5f8155018a906135cb565b925081926135c2565b015190505f806133d8565b908a9350601f19831691855f52875f20925f5b898282106136405750508411613629575b505050811b0190556133e9565b01515f19838a1b60f8161c191690555f808061361c565b8385015186558e9790950194938401930161360b565b909150835f52855f208780850160051c82019288861061369b575b918c91869594930160051c01915b82811061368d5750506133c4565b5f81558594508c910161367f565b92508192613671565b015190505f80613388565b908a9350601f19831691855f52875f20925f5b898282106136f857505084116136e0575b505050811b01905561339b565b01515f1960f88460031b161c191690555f80806136d3565b8385015186558e979095019493840193016136c2565b909150835f52855f208780850160051c820192888610613753575b918c91869594930160051c01915b828110613745575050613374565b5f81558594508c9101613737565b92508192613729565b015190505f8061333a565b908a9350601f19831691855f52875f20925f5b898282106137b05750508411613798575b505050811b01905561334d565b01515f1960f88460031b161c191690555f808061378b565b8385015186558e9790950194938401930161377a565b909150835f52855f208780850160051c82019288861061380b575b918c91869594930160051c01915b8281106137fd575050613326565b5f81558594508c91016137ef565b925081926137e1565b81519081516011811015610f845760ff8019835416911617815560019182820191602080830151918251946001600160401b039586811161094b578061385a8354612db5565b95601f96878111613de3575b508590878311600114613d84575f92613d79575b50505f19600383901b1c191690881b1790555b60028101604085015180519087821161094b5781906138ac8454612db5565b878111613d2b575b508590878311600114613ccc575f92613cc1575b50505f19600383901b1c191690881b1790555b600393606085830191015180519087821161094b5781906138fc8454612db5565b878111613c73575b508590878311600114613c15575f92613c0a575b50505f1982881b1c191690881b1790555b600481018288015180519087821161094b5781906139478454612db5565b878111613bbc575b508590878311600114613b5e575f92613b53575b50505f1982881b1c191690881b1790555b60058101604088015180519087821161094b576139918354612db5565b868111613b10575b508490868311600114613aa757918060069492606096945f92613a9c575b50505f19828a1b1c1916908a1b1790555b0196015190815194851161094b576139e08754612db5565b838111613a59575b5080928511600114613a1157509383949184925f956134865750501b925f19911b1c1916179055565b92919084601f198116885f52855f20955f905b89838310613a3f57505050106134c05750505050811b019055565b858701518955909701969485019488935090810190613a24565b875f52815f208480880160051c820192848910613a93575b0160051c019087905b828110613a885750506139e8565b5f8155018790613a7a565b92508192613a71565b015190505f806139b7565b899291601f19831691855f52875f20925f5b89828210613afa5750509160609795939185600698969410613ae3575b505050811b0190556139c8565b01515f19838c1b60f8161c191690555f8080613ad6565b8385015186558e97909501949384019301613ab9565b835f52855f208780850160051c820192888610613b4a575b0160051c01908a905b828110613b3f575050613999565b5f8155018a90613b31565b92508192613b28565b015190505f80613963565b908a9350601f19831691855f52875f20925f5b89828210613ba65750508411613b8f575b505050811b019055613974565b01515f19838a1b60f8161c191690555f8080613b82565b8385015186558e97909501949384019301613b71565b909150835f52855f208780850160051c820192888610613c01575b918c91869594930160051c01915b828110613bf357505061394f565b5f81558594508c9101613be5565b92508192613bd7565b015190505f80613918565b908a9350601f19831691855f52875f20925f5b89828210613c5d5750508411613c46575b505050811b019055613929565b01515f19838a1b60f8161c191690555f8080613c39565b8385015186558e97909501949384019301613c28565b909150835f52855f208780850160051c820192888610613cb8575b918c91869594930160051c01915b828110613caa575050613904565b5f81558594508c9101613c9c565b92508192613c8e565b015190505f806138c8565b908a9350601f19831691855f52875f20925f5b89828210613d155750508411613cfd575b505050811b0190556138db565b01515f1960f88460031b161c191690555f8080613cf0565b8385015186558e97909501949384019301613cdf565b909150835f52855f208780850160051c820192888610613d70575b918c91869594930160051c01915b828110613d625750506138b4565b5f81558594508c9101613d54565b92508192613d46565b015190505f8061387a565b908a9350601f19831691855f52875f20925f5b89828210613dcd5750508411613db5575b505050811b01905561388d565b01515f1960f88460031b161c191690555f8080613da8565b8385015186558e97909501949384019301613d97565b909150835f52855f208780850160051c820192888610613e28575b918c91869594930160051c01915b828110613e1a575050613866565b5f81558594508c9101613e0c565b92508192613dfe565b908060209392818452848401375f828201840152601f01601f1916010190565b81519081516011811015610f845760ff801983541691161781556001918282019160209081830151918251946001600160401b039586811161094b5780613e988354612db5565b95601f96878111614522575b5084908783116001146144c3575f926144b8575b50505f19600383901b1c191690881b1790555b60028201604085015180519087821161094b578190613eea8454612db5565b87811161446a575b50849087831160011461440b575f92614400575b50505f19600383901b1c191690881b1790555b600393606085840191015180519087821161094b578190613f3a8454612db5565b8781116143b2575b508490878311600114614354575f92614349575b50505f1982881b1c191690881b1790555b600482018188015180519087821161094b578190613f858454612db5565b8781116142fb575b50849087831160011461429d575f92614292575b50505f1982881b1c191690881b1790555b600591828101604089015180519088821161094b578190613fd38454612db5565b888111614246575b5085908883116001146141e8575f926141dd575b50505f1982891b1c191690891b1790555b60068101606089015180519088821161094b5761401d8354612db5565b87811161419c575b50849087831160011461413357918060079492608096945f92614128575b50505f19828b1b1c1916908b1b1790555b0197015191825195861161094b5761406c8854612db5565b908482116140e7575b50508092851160011461409f57509383949184925f956134865750501b925f19911b1c1916179055565b92919084601f198116885f52855f20955f905b898383106140cd57505050106134c05750505050811b019055565b8587015189559097019694850194889350908101906140b2565b885f52825f209085808901821c830193858a1061411f575b01901c019087905b8281106141145750614075565b5f8155018790614107565b935082936140ff565b015190505f80614043565b8a9291601f19831691855f52875f20925f5b89828210614186575050916080979593918560079896941061416f575b505050811b019055614054565b01515f19838d1b60f8161c191690555f8080614162565b8385015186558f97909501949384019301614145565b835f52855f2088808501891c8201928886106141d4575b01881c01908b905b8281106141c9575050614025565b5f8155018b906141bb565b925081926141b3565b015190505f80613fef565b908b9350601f19831691855f52875f20925f5b898282106142305750508411614219575b505050811b019055614000565b01515f19838b1b60f8161c191690555f808061420c565b8385015186558f979095019493840193016141fb565b909150835f52855f2088808501891c820192888610614289575b918d9186959493018a1c01915b82811061427b575050613fdb565b5f81558594508d910161426d565b92508192614260565b015190505f80613fa1565b908a9350601f19831691855f52865f20925f5b888282106142e557505084116142ce575b505050811b019055613fb2565b01515f19838a1b60f8161c191690555f80806142c1565b8385015186558e979095019493840193016142b0565b909150835f52845f208780850160051c820192878610614340575b918c91869594930160051c01915b828110614332575050613f8d565b5f81558594508c9101614324565b92508192614316565b015190505f80613f56565b908a9350601f19831691855f52865f20925f5b8882821061439c5750508411614385575b505050811b019055613f67565b01515f19838a1b60f8161c191690555f8080614378565b8385015186558e97909501949384019301614367565b909150835f52845f208780850160051c8201928786106143f7575b918c91869594930160051c01915b8281106143e9575050613f42565b5f81558594508c91016143db565b925081926143cd565b015190505f80613f06565b908a9350601f19831691855f52865f20925f5b88828210614454575050841161443c575b505050811b019055613f19565b01515f1960f88460031b161c191690555f808061442f565b8385015186558e9790950194938401930161441e565b909150835f52845f208780850160051c8201928786106144af575b918c91869594930160051c01915b8281106144a1575050613ef2565b5f81558594508c9101614493565b92508192614485565b015190505f80613eb8565b908a9350601f19831691855f52865f20925f5b8882821061450c57505084116144f4575b505050811b019055613ecb565b01515f1960f88460031b161c191690555f80806144e7565b8385015186558e979095019493840193016144d6565b909150835f52845f208780850160051c820192878610614567575b918c91869594930160051c01915b828110614559575050613ea4565b5f81558594508c910161454b565b9250819261453d565b903590601e198136030182121561033757018035906001600160401b0382116103375760200191813603831361033757565b908015614691576145b66020840184614570565b90501561467f5760ff60405182848237602081848101601a815203019020541661465b57505060408101906145eb8282614570565b905015158061462f575b6145fd575050565b6146079250614570565b61462b60405192839263805de86960e01b8452602060048501526024840191613e31565b0390fd5b5060ff602061463e8484614570565b91908260405193849283378101601a8152030190205416156145f5565b61462b60405192839263029e8f5f60e21b8452602060048501526024840191613e31565b6040516346829b8560e01b8152600490fd5b604051630dd088e760e01b8152600490fd5b9160405182848237602081848101601a815203019020600160ff1982541617905580359160118310156103375761475e9261477c61474d9261476c8561472c61471060607f91a2a0e72e1981849103a4a952d7168303a860389dc265dd36f4780701f58836990183614570565b999061471f6020850185614570565b9390946040810190614570565b96909c81604051928392833781015f81520390209a604051998a809a612ee5565b608060208a01526080890191613e31565b918683036040880152613e31565b9083820360608501523397613e31565b0390a3565b9080156147ce5760ff60405182848237602081848101601a8152030190205416156147aa575050565b61462b60405192839263e3d1895f60e01b8452602060048501526024840191613e31565b604051631a2f07d160e01b8152600490fdfea2646970667358221220ae90d9580d58612f446afbe91879b39120b800d3d0a2c4ae4161736a1470db9864736f6c63430008180033","linkReferences":{}},"methodIdentifiers":{"RECOVERY_DELAY()":"47b45652","RECOVERY_LOCKOUT()":"561ea99c","addEntityOperator(address)":"397c9a3a","addLegalOperator(address)":"45f65cfa","addOperator(address)":"9870d7fe","addProofOperator(address)":"6b6797c9","affirmedAnchors(string)":"47deec0d","agentAnchors(string)":"144888ff","cancelRecovery()":"0ba234d6","codeAnchors(string)":"573701f7","dataAnchors(string)":"717d1a85","entityAnchors(string)":"e600a0a0","entityOperators(address)":"6ae0dd9c","executeRecovery()":"20c5a3e1","initiateRecovery(address)":"d5ce9aad","legalAnchors(string)":"ecc8d0fc","legalOperators(address)":"b91ef084","mediaAnchors(string)":"762d408d","modelAnchors(string)":"16aca546","onChainAnchors(string)":"96ad272d","operators(address)":"13e7c9d8","otherAnchors(string)":"5bd47e10","owner()":"8da5cb5b","pendingOwner()":"e30c3978","postAnchors(string)":"1cb655e7","proofAnchors(string)":"132171b0","proofOperators(address)":"402cef1b","recoveryAddress()":"710eb26c","recoveryInitiatedAt()":"20727381","recoveryLockoutUntil()":"47be22fa","registerAffirmed(string,(uint8,string,string,string),string,string,string)":"7b207ae6","registerAgent(string,(uint8,string,string,string),string,string)":"e0020187","registerCode(string,(uint8,string,string,string),string,string,string)":"3ff98690","registerData(string,(uint8,string,string,string),string,string)":"ed540d2f","registerEntity(string,(uint8,string,string,string),string,string,string,string,string,string)":"edf1677b","registerLegal(string,(uint8,string,string,string),string,string)":"acd1b4be","registerMedia(string,(uint8,string,string,string),string,string)":"864572be","registerModel(string,(uint8,string,string,string),string,string)":"5cdd7b84","registerOnChain(string,(uint8,string,string,string),string,string,string,string)":"4c5b2c50","registerOther(string,(uint8,string,string,string),string,string,string,string)":"e4cc22a1","registerPost(string,(uint8,string,string,string),string,string)":"196fbf77","registerProof(string,(uint8,string,string,string),string,string,string,string)":"b36cc39a","registerResearch(string,(uint8,string,string,string),string,string)":"51e39cee","registerRetraction(string,(uint8,string,string,string),string,string,string)":"d58817e6","registerReview(string,(uint8,string,string,string),string,string,string)":"1f3618bf","registerText(string,(uint8,string,string,string),string)":"786ce0a0","registerVoid(string,(uint8,string,string,string),string,string,string,string)":"b9988922","registered(string)":"5d2d5c37","removeEntityOperator(address)":"ddf841a9","removeLegalOperator(address)":"6ba60e71","removeOperator(address)":"ac8a584a","removeProofOperator(address)":"b643fcb3","researchAnchors(string)":"165d33fe","retractionAnchors(string)":"7d15e15d","reviewAnchors(string)":"5d064b3a","setRecoveryAddress(address)":"49efe5ae","textAnchors(string)":"517f4dcf","transferOwnership(address)":"f2fde38b","voidAnchors(string)":"e0ac87b9"},"id":21}