{"abi":[{"type":"constructor","inputs":[{"name":"_recoveryAddress","type":"address","internalType":"address"}],"stateMutability":"nonpayable"},{"type":"function","name":"AR_TREE_ID","inputs":[],"outputs":[{"name":"","type":"string","internalType":"string"}],"stateMutability":"view"},{"type":"function","name":"RECOVERY_DELAY","inputs":[],"outputs":[{"name":"","type":"uint256","internalType":"uint256"}],"stateMutability":"view"},{"type":"function","name":"RECOVERY_LOCKOUT","inputs":[],"outputs":[{"name":"","type":"uint256","internalType":"uint256"}],"stateMutability":"view"},{"type":"function","name":"accountAnchors","inputs":[{"name":"","type":"string","internalType":"string"}],"outputs":[{"name":"base","type":"tuple","internalType":"struct AnchorRegistry.AnchorBase","components":[{"name":"artifactType","type":"uint8","internalType":"enum AnchorRegistry.ArtifactType"},{"name":"manifestHash","type":"string","internalType":"string"},{"name":"parentHash","type":"string","internalType":"string"},{"name":"descriptor","type":"string","internalType":"string"},{"name":"title","type":"string","internalType":"string"},{"name":"author","type":"string","internalType":"string"},{"name":"treeId","type":"string","internalType":"string"}]},{"name":"capacity","type":"uint256","internalType":"uint256"}],"stateMutability":"view"},{"type":"function","name":"addEntityOperator","inputs":[{"name":"op","type":"address","internalType":"address"}],"outputs":[],"stateMutability":"nonpayable"},{"type":"function","name":"addLegalOperator","inputs":[{"name":"op","type":"address","internalType":"address"}],"outputs":[],"stateMutability":"nonpayable"},{"type":"function","name":"addOperator","inputs":[{"name":"op","type":"address","internalType":"address"}],"outputs":[],"stateMutability":"nonpayable"},{"type":"function","name":"addProofOperator","inputs":[{"name":"op","type":"address","internalType":"address"}],"outputs":[],"stateMutability":"nonpayable"},{"type":"function","name":"affirmedAnchors","inputs":[{"name":"","type":"string","internalType":"string"}],"outputs":[{"name":"base","type":"tuple","internalType":"struct AnchorRegistry.AnchorBase","components":[{"name":"artifactType","type":"uint8","internalType":"enum AnchorRegistry.ArtifactType"},{"name":"manifestHash","type":"string","internalType":"string"},{"name":"parentHash","type":"string","internalType":"string"},{"name":"descriptor","type":"string","internalType":"string"},{"name":"title","type":"string","internalType":"string"},{"name":"author","type":"string","internalType":"string"},{"name":"treeId","type":"string","internalType":"string"}]},{"name":"targetArId","type":"string","internalType":"string"},{"name":"affirmedBy","type":"string","internalType":"string"},{"name":"findingUrl","type":"string","internalType":"string"}],"stateMutability":"view"},{"type":"function","name":"agentAnchors","inputs":[{"name":"","type":"string","internalType":"string"}],"outputs":[{"name":"base","type":"tuple","internalType":"struct AnchorRegistry.AnchorBase","components":[{"name":"artifactType","type":"uint8","internalType":"enum AnchorRegistry.ArtifactType"},{"name":"manifestHash","type":"string","internalType":"string"},{"name":"parentHash","type":"string","internalType":"string"},{"name":"descriptor","type":"string","internalType":"string"},{"name":"title","type":"string","internalType":"string"},{"name":"author","type":"string","internalType":"string"},{"name":"treeId","type":"string","internalType":"string"}]},{"name":"agentVersion","type":"string","internalType":"string"},{"name":"runtime","type":"string","internalType":"string"},{"name":"capabilities","type":"string","internalType":"string"},{"name":"url","type":"string","internalType":"string"}],"stateMutability":"view"},{"type":"function","name":"cancelRecovery","inputs":[],"outputs":[],"stateMutability":"nonpayable"},{"type":"function","name":"codeAnchors","inputs":[{"name":"","type":"string","internalType":"string"}],"outputs":[{"name":"base","type":"tuple","internalType":"struct AnchorRegistry.AnchorBase","components":[{"name":"artifactType","type":"uint8","internalType":"enum AnchorRegistry.ArtifactType"},{"name":"manifestHash","type":"string","internalType":"string"},{"name":"parentHash","type":"string","internalType":"string"},{"name":"descriptor","type":"string","internalType":"string"},{"name":"title","type":"string","internalType":"string"},{"name":"author","type":"string","internalType":"string"},{"name":"treeId","type":"string","internalType":"string"}]},{"name":"gitHash","type":"string","internalType":"string"},{"name":"license","type":"string","internalType":"string"},{"name":"language","type":"string","internalType":"string"},{"name":"version","type":"string","internalType":"string"},{"name":"url","type":"string","internalType":"string"}],"stateMutability":"view"},{"type":"function","name":"dataAnchors","inputs":[{"name":"","type":"string","internalType":"string"}],"outputs":[{"name":"base","type":"tuple","internalType":"struct AnchorRegistry.AnchorBase","components":[{"name":"artifactType","type":"uint8","internalType":"enum AnchorRegistry.ArtifactType"},{"name":"manifestHash","type":"string","internalType":"string"},{"name":"parentHash","type":"string","internalType":"string"},{"name":"descriptor","type":"string","internalType":"string"},{"name":"title","type":"string","internalType":"string"},{"name":"author","type":"string","internalType":"string"},{"name":"treeId","type":"string","internalType":"string"}]},{"name":"dataVersion","type":"string","internalType":"string"},{"name":"format","type":"string","internalType":"string"},{"name":"rowCount","type":"string","internalType":"string"},{"name":"schemaUrl","type":"string","internalType":"string"},{"name":"url","type":"string","internalType":"string"}],"stateMutability":"view"},{"type":"function","name":"entityAnchors","inputs":[{"name":"","type":"string","internalType":"string"}],"outputs":[{"name":"base","type":"tuple","internalType":"struct AnchorRegistry.AnchorBase","components":[{"name":"artifactType","type":"uint8","internalType":"enum AnchorRegistry.ArtifactType"},{"name":"manifestHash","type":"string","internalType":"string"},{"name":"parentHash","type":"string","internalType":"string"},{"name":"descriptor","type":"string","internalType":"string"},{"name":"title","type":"string","internalType":"string"},{"name":"author","type":"string","internalType":"string"},{"name":"treeId","type":"string","internalType":"string"}]},{"name":"entityType","type":"string","internalType":"string"},{"name":"entityDomain","type":"string","internalType":"string"},{"name":"verificationMethod","type":"string","internalType":"string"},{"name":"verificationProof","type":"string","internalType":"string"},{"name":"canonicalUrl","type":"string","internalType":"string"},{"name":"documentHash","type":"string","internalType":"string"}],"stateMutability":"view"},{"type":"function","name":"entityOperators","inputs":[{"name":"","type":"address","internalType":"address"}],"outputs":[{"name":"","type":"bool","internalType":"bool"}],"stateMutability":"view"},{"type":"function","name":"eventAnchors","inputs":[{"name":"","type":"string","internalType":"string"}],"outputs":[{"name":"base","type":"tuple","internalType":"struct AnchorRegistry.AnchorBase","components":[{"name":"artifactType","type":"uint8","internalType":"enum AnchorRegistry.ArtifactType"},{"name":"manifestHash","type":"string","internalType":"string"},{"name":"parentHash","type":"string","internalType":"string"},{"name":"descriptor","type":"string","internalType":"string"},{"name":"title","type":"string","internalType":"string"},{"name":"author","type":"string","internalType":"string"},{"name":"treeId","type":"string","internalType":"string"}]},{"name":"executor","type":"string","internalType":"string"},{"name":"eventType","type":"string","internalType":"string"},{"name":"eventDate","type":"string","internalType":"string"},{"name":"location","type":"string","internalType":"string"},{"name":"orchestrator","type":"string","internalType":"string"},{"name":"url","type":"string","internalType":"string"}],"stateMutability":"view"},{"type":"function","name":"executeRecovery","inputs":[],"outputs":[],"stateMutability":"nonpayable"},{"type":"function","name":"initiateRecovery","inputs":[{"name":"_pendingOwner","type":"address","internalType":"address"}],"outputs":[],"stateMutability":"nonpayable"},{"type":"function","name":"legalAnchors","inputs":[{"name":"","type":"string","internalType":"string"}],"outputs":[{"name":"base","type":"tuple","internalType":"struct AnchorRegistry.AnchorBase","components":[{"name":"artifactType","type":"uint8","internalType":"enum AnchorRegistry.ArtifactType"},{"name":"manifestHash","type":"string","internalType":"string"},{"name":"parentHash","type":"string","internalType":"string"},{"name":"descriptor","type":"string","internalType":"string"},{"name":"title","type":"string","internalType":"string"},{"name":"author","type":"string","internalType":"string"},{"name":"treeId","type":"string","internalType":"string"}]},{"name":"docType","type":"string","internalType":"string"},{"name":"jurisdiction","type":"string","internalType":"string"},{"name":"parties","type":"string","internalType":"string"},{"name":"effectiveDate","type":"string","internalType":"string"},{"name":"url","type":"string","internalType":"string"}],"stateMutability":"view"},{"type":"function","name":"legalOperators","inputs":[{"name":"","type":"address","internalType":"address"}],"outputs":[{"name":"","type":"bool","internalType":"bool"}],"stateMutability":"view"},{"type":"function","name":"mediaAnchors","inputs":[{"name":"","type":"string","internalType":"string"}],"outputs":[{"name":"base","type":"tuple","internalType":"struct AnchorRegistry.AnchorBase","components":[{"name":"artifactType","type":"uint8","internalType":"enum AnchorRegistry.ArtifactType"},{"name":"manifestHash","type":"string","internalType":"string"},{"name":"parentHash","type":"string","internalType":"string"},{"name":"descriptor","type":"string","internalType":"string"},{"name":"title","type":"string","internalType":"string"},{"name":"author","type":"string","internalType":"string"},{"name":"treeId","type":"string","internalType":"string"}]},{"name":"mediaType","type":"string","internalType":"string"},{"name":"format","type":"string","internalType":"string"},{"name":"duration","type":"string","internalType":"string"},{"name":"isrc","type":"string","internalType":"string"},{"name":"url","type":"string","internalType":"string"}],"stateMutability":"view"},{"type":"function","name":"modelAnchors","inputs":[{"name":"","type":"string","internalType":"string"}],"outputs":[{"name":"base","type":"tuple","internalType":"struct AnchorRegistry.AnchorBase","components":[{"name":"artifactType","type":"uint8","internalType":"enum AnchorRegistry.ArtifactType"},{"name":"manifestHash","type":"string","internalType":"string"},{"name":"parentHash","type":"string","internalType":"string"},{"name":"descriptor","type":"string","internalType":"string"},{"name":"title","type":"string","internalType":"string"},{"name":"author","type":"string","internalType":"string"},{"name":"treeId","type":"string","internalType":"string"}]},{"name":"modelVersion","type":"string","internalType":"string"},{"name":"architecture","type":"string","internalType":"string"},{"name":"parameters","type":"string","internalType":"string"},{"name":"trainingDataset","type":"string","internalType":"string"},{"name":"url","type":"string","internalType":"string"}],"stateMutability":"view"},{"type":"function","name":"noteAnchors","inputs":[{"name":"","type":"string","internalType":"string"}],"outputs":[{"name":"base","type":"tuple","internalType":"struct AnchorRegistry.AnchorBase","components":[{"name":"artifactType","type":"uint8","internalType":"enum AnchorRegistry.ArtifactType"},{"name":"manifestHash","type":"string","internalType":"string"},{"name":"parentHash","type":"string","internalType":"string"},{"name":"descriptor","type":"string","internalType":"string"},{"name":"title","type":"string","internalType":"string"},{"name":"author","type":"string","internalType":"string"},{"name":"treeId","type":"string","internalType":"string"}]},{"name":"noteType","type":"string","internalType":"string"},{"name":"date","type":"string","internalType":"string"},{"name":"participants","type":"string","internalType":"string"},{"name":"url","type":"string","internalType":"string"}],"stateMutability":"view"},{"type":"function","name":"onChainAnchors","inputs":[{"name":"","type":"string","internalType":"string"}],"outputs":[{"name":"base","type":"tuple","internalType":"struct AnchorRegistry.AnchorBase","components":[{"name":"artifactType","type":"uint8","internalType":"enum AnchorRegistry.ArtifactType"},{"name":"manifestHash","type":"string","internalType":"string"},{"name":"parentHash","type":"string","internalType":"string"},{"name":"descriptor","type":"string","internalType":"string"},{"name":"title","type":"string","internalType":"string"},{"name":"author","type":"string","internalType":"string"},{"name":"treeId","type":"string","internalType":"string"}]},{"name":"chainId","type":"string","internalType":"string"},{"name":"assetType","type":"string","internalType":"string"},{"name":"contractAddress","type":"string","internalType":"string"},{"name":"txHash","type":"string","internalType":"string"},{"name":"tokenId","type":"string","internalType":"string"},{"name":"blockNumber","type":"string","internalType":"string"},{"name":"url","type":"string","internalType":"string"}],"stateMutability":"view"},{"type":"function","name":"operators","inputs":[{"name":"","type":"address","internalType":"address"}],"outputs":[{"name":"","type":"bool","internalType":"bool"}],"stateMutability":"view"},{"type":"function","name":"otherAnchors","inputs":[{"name":"","type":"string","internalType":"string"}],"outputs":[{"name":"base","type":"tuple","internalType":"struct AnchorRegistry.AnchorBase","components":[{"name":"artifactType","type":"uint8","internalType":"enum AnchorRegistry.ArtifactType"},{"name":"manifestHash","type":"string","internalType":"string"},{"name":"parentHash","type":"string","internalType":"string"},{"name":"descriptor","type":"string","internalType":"string"},{"name":"title","type":"string","internalType":"string"},{"name":"author","type":"string","internalType":"string"},{"name":"treeId","type":"string","internalType":"string"}]},{"name":"kind","type":"string","internalType":"string"},{"name":"platform","type":"string","internalType":"string"},{"name":"url","type":"string","internalType":"string"},{"name":"value","type":"string","internalType":"string"}],"stateMutability":"view"},{"type":"function","name":"owner","inputs":[],"outputs":[{"name":"","type":"address","internalType":"address"}],"stateMutability":"view"},{"type":"function","name":"pendingOwner","inputs":[],"outputs":[{"name":"","type":"address","internalType":"address"}],"stateMutability":"view"},{"type":"function","name":"postAnchors","inputs":[{"name":"","type":"string","internalType":"string"}],"outputs":[{"name":"base","type":"tuple","internalType":"struct AnchorRegistry.AnchorBase","components":[{"name":"artifactType","type":"uint8","internalType":"enum AnchorRegistry.ArtifactType"},{"name":"manifestHash","type":"string","internalType":"string"},{"name":"parentHash","type":"string","internalType":"string"},{"name":"descriptor","type":"string","internalType":"string"},{"name":"title","type":"string","internalType":"string"},{"name":"author","type":"string","internalType":"string"},{"name":"treeId","type":"string","internalType":"string"}]},{"name":"platform","type":"string","internalType":"string"},{"name":"postId","type":"string","internalType":"string"},{"name":"postDate","type":"string","internalType":"string"},{"name":"url","type":"string","internalType":"string"}],"stateMutability":"view"},{"type":"function","name":"proofAnchors","inputs":[{"name":"","type":"string","internalType":"string"}],"outputs":[{"name":"base","type":"tuple","internalType":"struct AnchorRegistry.AnchorBase","components":[{"name":"artifactType","type":"uint8","internalType":"enum AnchorRegistry.ArtifactType"},{"name":"manifestHash","type":"string","internalType":"string"},{"name":"parentHash","type":"string","internalType":"string"},{"name":"descriptor","type":"string","internalType":"string"},{"name":"title","type":"string","internalType":"string"},{"name":"author","type":"string","internalType":"string"},{"name":"treeId","type":"string","internalType":"string"}]},{"name":"proofType","type":"string","internalType":"string"},{"name":"proofSystem","type":"string","internalType":"string"},{"name":"circuitId","type":"string","internalType":"string"},{"name":"vkeyHash","type":"string","internalType":"string"},{"name":"auditFirm","type":"string","internalType":"string"},{"name":"auditScope","type":"string","internalType":"string"},{"name":"verifierUrl","type":"string","internalType":"string"},{"name":"reportUrl","type":"string","internalType":"string"},{"name":"proofHash","type":"string","internalType":"string"}],"stateMutability":"view"},{"type":"function","name":"proofOperators","inputs":[{"name":"","type":"address","internalType":"address"}],"outputs":[{"name":"","type":"bool","internalType":"bool"}],"stateMutability":"view"},{"type":"function","name":"receiptAnchors","inputs":[{"name":"","type":"string","internalType":"string"}],"outputs":[{"name":"base","type":"tuple","internalType":"struct AnchorRegistry.AnchorBase","components":[{"name":"artifactType","type":"uint8","internalType":"enum AnchorRegistry.ArtifactType"},{"name":"manifestHash","type":"string","internalType":"string"},{"name":"parentHash","type":"string","internalType":"string"},{"name":"descriptor","type":"string","internalType":"string"},{"name":"title","type":"string","internalType":"string"},{"name":"author","type":"string","internalType":"string"},{"name":"treeId","type":"string","internalType":"string"}]},{"name":"receiptType","type":"string","internalType":"string"},{"name":"merchant","type":"string","internalType":"string"},{"name":"amount","type":"string","internalType":"string"},{"name":"currency","type":"string","internalType":"string"},{"name":"orderId","type":"string","internalType":"string"},{"name":"platform","type":"string","internalType":"string"},{"name":"url","type":"string","internalType":"string"}],"stateMutability":"view"},{"type":"function","name":"recoveryAddress","inputs":[],"outputs":[{"name":"","type":"address","internalType":"address"}],"stateMutability":"view"},{"type":"function","name":"recoveryInitiatedAt","inputs":[],"outputs":[{"name":"","type":"uint256","internalType":"uint256"}],"stateMutability":"view"},{"type":"function","name":"recoveryLockoutUntil","inputs":[],"outputs":[{"name":"","type":"uint256","internalType":"uint256"}],"stateMutability":"view"},{"type":"function","name":"registerAccount","inputs":[{"name":"arId","type":"string","internalType":"string"},{"name":"base","type":"tuple","internalType":"struct AnchorRegistry.AnchorBase","components":[{"name":"artifactType","type":"uint8","internalType":"enum AnchorRegistry.ArtifactType"},{"name":"manifestHash","type":"string","internalType":"string"},{"name":"parentHash","type":"string","internalType":"string"},{"name":"descriptor","type":"string","internalType":"string"},{"name":"title","type":"string","internalType":"string"},{"name":"author","type":"string","internalType":"string"},{"name":"treeId","type":"string","internalType":"string"}]},{"name":"capacity","type":"uint256","internalType":"uint256"}],"outputs":[],"stateMutability":"nonpayable"},{"type":"function","name":"registerAffirmed","inputs":[{"name":"arId","type":"string","internalType":"string"},{"name":"base","type":"tuple","internalType":"struct AnchorRegistry.AnchorBase","components":[{"name":"artifactType","type":"uint8","internalType":"enum AnchorRegistry.ArtifactType"},{"name":"manifestHash","type":"string","internalType":"string"},{"name":"parentHash","type":"string","internalType":"string"},{"name":"descriptor","type":"string","internalType":"string"},{"name":"title","type":"string","internalType":"string"},{"name":"author","type":"string","internalType":"string"},{"name":"treeId","type":"string","internalType":"string"}]},{"name":"targetArId","type":"string","internalType":"string"},{"name":"affirmedBy","type":"string","internalType":"string"},{"name":"findingUrl","type":"string","internalType":"string"}],"outputs":[],"stateMutability":"nonpayable"},{"type":"function","name":"registerAgent","inputs":[{"name":"arId","type":"string","internalType":"string"},{"name":"base","type":"tuple","internalType":"struct AnchorRegistry.AnchorBase","components":[{"name":"artifactType","type":"uint8","internalType":"enum AnchorRegistry.ArtifactType"},{"name":"manifestHash","type":"string","internalType":"string"},{"name":"parentHash","type":"string","internalType":"string"},{"name":"descriptor","type":"string","internalType":"string"},{"name":"title","type":"string","internalType":"string"},{"name":"author","type":"string","internalType":"string"},{"name":"treeId","type":"string","internalType":"string"}]},{"name":"agentVersion","type":"string","internalType":"string"},{"name":"runtime","type":"string","internalType":"string"},{"name":"capabilities","type":"string","internalType":"string"},{"name":"url","type":"string","internalType":"string"}],"outputs":[],"stateMutability":"nonpayable"},{"type":"function","name":"registerCode","inputs":[{"name":"arId","type":"string","internalType":"string"},{"name":"base","type":"tuple","internalType":"struct AnchorRegistry.AnchorBase","components":[{"name":"artifactType","type":"uint8","internalType":"enum AnchorRegistry.ArtifactType"},{"name":"manifestHash","type":"string","internalType":"string"},{"name":"parentHash","type":"string","internalType":"string"},{"name":"descriptor","type":"string","internalType":"string"},{"name":"title","type":"string","internalType":"string"},{"name":"author","type":"string","internalType":"string"},{"name":"treeId","type":"string","internalType":"string"}]},{"name":"gitHash","type":"string","internalType":"string"},{"name":"license","type":"string","internalType":"string"},{"name":"language","type":"string","internalType":"string"},{"name":"version","type":"string","internalType":"string"},{"name":"url","type":"string","internalType":"string"}],"outputs":[],"stateMutability":"nonpayable"},{"type":"function","name":"registerData","inputs":[{"name":"arId","type":"string","internalType":"string"},{"name":"base","type":"tuple","internalType":"struct AnchorRegistry.AnchorBase","components":[{"name":"artifactType","type":"uint8","internalType":"enum AnchorRegistry.ArtifactType"},{"name":"manifestHash","type":"string","internalType":"string"},{"name":"parentHash","type":"string","internalType":"string"},{"name":"descriptor","type":"string","internalType":"string"},{"name":"title","type":"string","internalType":"string"},{"name":"author","type":"string","internalType":"string"},{"name":"treeId","type":"string","internalType":"string"}]},{"name":"dataVersion","type":"string","internalType":"string"},{"name":"format","type":"string","internalType":"string"},{"name":"rowCount","type":"string","internalType":"string"},{"name":"schemaUrl","type":"string","internalType":"string"},{"name":"url","type":"string","internalType":"string"}],"outputs":[],"stateMutability":"nonpayable"},{"type":"function","name":"registerEntity","inputs":[{"name":"arId","type":"string","internalType":"string"},{"name":"base","type":"tuple","internalType":"struct AnchorRegistry.AnchorBase","components":[{"name":"artifactType","type":"uint8","internalType":"enum AnchorRegistry.ArtifactType"},{"name":"manifestHash","type":"string","internalType":"string"},{"name":"parentHash","type":"string","internalType":"string"},{"name":"descriptor","type":"string","internalType":"string"},{"name":"title","type":"string","internalType":"string"},{"name":"author","type":"string","internalType":"string"},{"name":"treeId","type":"string","internalType":"string"}]},{"name":"entityType","type":"string","internalType":"string"},{"name":"entityDomain","type":"string","internalType":"string"},{"name":"verificationMethod","type":"string","internalType":"string"},{"name":"verificationProof","type":"string","internalType":"string"},{"name":"canonicalUrl","type":"string","internalType":"string"},{"name":"documentHash","type":"string","internalType":"string"}],"outputs":[],"stateMutability":"nonpayable"},{"type":"function","name":"registerEvent","inputs":[{"name":"arId","type":"string","internalType":"string"},{"name":"base","type":"tuple","internalType":"struct AnchorRegistry.AnchorBase","components":[{"name":"artifactType","type":"uint8","internalType":"enum AnchorRegistry.ArtifactType"},{"name":"manifestHash","type":"string","internalType":"string"},{"name":"parentHash","type":"string","internalType":"string"},{"name":"descriptor","type":"string","internalType":"string"},{"name":"title","type":"string","internalType":"string"},{"name":"author","type":"string","internalType":"string"},{"name":"treeId","type":"string","internalType":"string"}]},{"name":"executor","type":"string","internalType":"string"},{"name":"eventType","type":"string","internalType":"string"},{"name":"eventDate","type":"string","internalType":"string"},{"name":"location","type":"string","internalType":"string"},{"name":"orchestrator","type":"string","internalType":"string"},{"name":"url","type":"string","internalType":"string"}],"outputs":[],"stateMutability":"nonpayable"},{"type":"function","name":"registerLegal","inputs":[{"name":"arId","type":"string","internalType":"string"},{"name":"base","type":"tuple","internalType":"struct AnchorRegistry.AnchorBase","components":[{"name":"artifactType","type":"uint8","internalType":"enum AnchorRegistry.ArtifactType"},{"name":"manifestHash","type":"string","internalType":"string"},{"name":"parentHash","type":"string","internalType":"string"},{"name":"descriptor","type":"string","internalType":"string"},{"name":"title","type":"string","internalType":"string"},{"name":"author","type":"string","internalType":"string"},{"name":"treeId","type":"string","internalType":"string"}]},{"name":"docType","type":"string","internalType":"string"},{"name":"jurisdiction","type":"string","internalType":"string"},{"name":"parties","type":"string","internalType":"string"},{"name":"effectiveDate","type":"string","internalType":"string"},{"name":"url","type":"string","internalType":"string"}],"outputs":[],"stateMutability":"nonpayable"},{"type":"function","name":"registerMedia","inputs":[{"name":"arId","type":"string","internalType":"string"},{"name":"base","type":"tuple","internalType":"struct AnchorRegistry.AnchorBase","components":[{"name":"artifactType","type":"uint8","internalType":"enum AnchorRegistry.ArtifactType"},{"name":"manifestHash","type":"string","internalType":"string"},{"name":"parentHash","type":"string","internalType":"string"},{"name":"descriptor","type":"string","internalType":"string"},{"name":"title","type":"string","internalType":"string"},{"name":"author","type":"string","internalType":"string"},{"name":"treeId","type":"string","internalType":"string"}]},{"name":"mediaType","type":"string","internalType":"string"},{"name":"format","type":"string","internalType":"string"},{"name":"duration","type":"string","internalType":"string"},{"name":"isrc","type":"string","internalType":"string"},{"name":"url","type":"string","internalType":"string"}],"outputs":[],"stateMutability":"nonpayable"},{"type":"function","name":"registerModel","inputs":[{"name":"arId","type":"string","internalType":"string"},{"name":"base","type":"tuple","internalType":"struct AnchorRegistry.AnchorBase","components":[{"name":"artifactType","type":"uint8","internalType":"enum AnchorRegistry.ArtifactType"},{"name":"manifestHash","type":"string","internalType":"string"},{"name":"parentHash","type":"string","internalType":"string"},{"name":"descriptor","type":"string","internalType":"string"},{"name":"title","type":"string","internalType":"string"},{"name":"author","type":"string","internalType":"string"},{"name":"treeId","type":"string","internalType":"string"}]},{"name":"modelVersion","type":"string","internalType":"string"},{"name":"architecture","type":"string","internalType":"string"},{"name":"parameters","type":"string","internalType":"string"},{"name":"trainingDataset","type":"string","internalType":"string"},{"name":"url","type":"string","internalType":"string"}],"outputs":[],"stateMutability":"nonpayable"},{"type":"function","name":"registerNote","inputs":[{"name":"arId","type":"string","internalType":"string"},{"name":"base","type":"tuple","internalType":"struct AnchorRegistry.AnchorBase","components":[{"name":"artifactType","type":"uint8","internalType":"enum AnchorRegistry.ArtifactType"},{"name":"manifestHash","type":"string","internalType":"string"},{"name":"parentHash","type":"string","internalType":"string"},{"name":"descriptor","type":"string","internalType":"string"},{"name":"title","type":"string","internalType":"string"},{"name":"author","type":"string","internalType":"string"},{"name":"treeId","type":"string","internalType":"string"}]},{"name":"noteType","type":"string","internalType":"string"},{"name":"date","type":"string","internalType":"string"},{"name":"participants","type":"string","internalType":"string"},{"name":"url","type":"string","internalType":"string"}],"outputs":[],"stateMutability":"nonpayable"},{"type":"function","name":"registerOnChain","inputs":[{"name":"arId","type":"string","internalType":"string"},{"name":"base","type":"tuple","internalType":"struct AnchorRegistry.AnchorBase","components":[{"name":"artifactType","type":"uint8","internalType":"enum AnchorRegistry.ArtifactType"},{"name":"manifestHash","type":"string","internalType":"string"},{"name":"parentHash","type":"string","internalType":"string"},{"name":"descriptor","type":"string","internalType":"string"},{"name":"title","type":"string","internalType":"string"},{"name":"author","type":"string","internalType":"string"},{"name":"treeId","type":"string","internalType":"string"}]},{"name":"chainId","type":"string","internalType":"string"},{"name":"assetType","type":"string","internalType":"string"},{"name":"contractAddress","type":"string","internalType":"string"},{"name":"txHash","type":"string","internalType":"string"},{"name":"tokenId","type":"string","internalType":"string"},{"name":"blockNumber","type":"string","internalType":"string"},{"name":"url","type":"string","internalType":"string"}],"outputs":[],"stateMutability":"nonpayable"},{"type":"function","name":"registerOther","inputs":[{"name":"arId","type":"string","internalType":"string"},{"name":"base","type":"tuple","internalType":"struct AnchorRegistry.AnchorBase","components":[{"name":"artifactType","type":"uint8","internalType":"enum AnchorRegistry.ArtifactType"},{"name":"manifestHash","type":"string","internalType":"string"},{"name":"parentHash","type":"string","internalType":"string"},{"name":"descriptor","type":"string","internalType":"string"},{"name":"title","type":"string","internalType":"string"},{"name":"author","type":"string","internalType":"string"},{"name":"treeId","type":"string","internalType":"string"}]},{"name":"kind","type":"string","internalType":"string"},{"name":"platform","type":"string","internalType":"string"},{"name":"url","type":"string","internalType":"string"},{"name":"value","type":"string","internalType":"string"}],"outputs":[],"stateMutability":"nonpayable"},{"type":"function","name":"registerPost","inputs":[{"name":"arId","type":"string","internalType":"string"},{"name":"base","type":"tuple","internalType":"struct AnchorRegistry.AnchorBase","components":[{"name":"artifactType","type":"uint8","internalType":"enum AnchorRegistry.ArtifactType"},{"name":"manifestHash","type":"string","internalType":"string"},{"name":"parentHash","type":"string","internalType":"string"},{"name":"descriptor","type":"string","internalType":"string"},{"name":"title","type":"string","internalType":"string"},{"name":"author","type":"string","internalType":"string"},{"name":"treeId","type":"string","internalType":"string"}]},{"name":"platform","type":"string","internalType":"string"},{"name":"postId","type":"string","internalType":"string"},{"name":"postDate","type":"string","internalType":"string"},{"name":"url","type":"string","internalType":"string"}],"outputs":[],"stateMutability":"nonpayable"},{"type":"function","name":"registerProof","inputs":[{"name":"arId","type":"string","internalType":"string"},{"name":"base","type":"tuple","internalType":"struct AnchorRegistry.AnchorBase","components":[{"name":"artifactType","type":"uint8","internalType":"enum AnchorRegistry.ArtifactType"},{"name":"manifestHash","type":"string","internalType":"string"},{"name":"parentHash","type":"string","internalType":"string"},{"name":"descriptor","type":"string","internalType":"string"},{"name":"title","type":"string","internalType":"string"},{"name":"author","type":"string","internalType":"string"},{"name":"treeId","type":"string","internalType":"string"}]},{"name":"proofType","type":"string","internalType":"string"},{"name":"proofSystem","type":"string","internalType":"string"},{"name":"circuitId","type":"string","internalType":"string"},{"name":"vkeyHash","type":"string","internalType":"string"},{"name":"auditFirm","type":"string","internalType":"string"},{"name":"auditScope","type":"string","internalType":"string"},{"name":"verifierUrl","type":"string","internalType":"string"},{"name":"reportUrl","type":"string","internalType":"string"},{"name":"proofHash","type":"string","internalType":"string"}],"outputs":[],"stateMutability":"nonpayable"},{"type":"function","name":"registerReceipt","inputs":[{"name":"arId","type":"string","internalType":"string"},{"name":"base","type":"tuple","internalType":"struct AnchorRegistry.AnchorBase","components":[{"name":"artifactType","type":"uint8","internalType":"enum AnchorRegistry.ArtifactType"},{"name":"manifestHash","type":"string","internalType":"string"},{"name":"parentHash","type":"string","internalType":"string"},{"name":"descriptor","type":"string","internalType":"string"},{"name":"title","type":"string","internalType":"string"},{"name":"author","type":"string","internalType":"string"},{"name":"treeId","type":"string","internalType":"string"}]},{"name":"receiptType","type":"string","internalType":"string"},{"name":"merchant","type":"string","internalType":"string"},{"name":"amount","type":"string","internalType":"string"},{"name":"currency","type":"string","internalType":"string"},{"name":"orderId","type":"string","internalType":"string"},{"name":"platform","type":"string","internalType":"string"},{"name":"url","type":"string","internalType":"string"}],"outputs":[],"stateMutability":"nonpayable"},{"type":"function","name":"registerReport","inputs":[{"name":"arId","type":"string","internalType":"string"},{"name":"base","type":"tuple","internalType":"struct AnchorRegistry.AnchorBase","components":[{"name":"artifactType","type":"uint8","internalType":"enum AnchorRegistry.ArtifactType"},{"name":"manifestHash","type":"string","internalType":"string"},{"name":"parentHash","type":"string","internalType":"string"},{"name":"descriptor","type":"string","internalType":"string"},{"name":"title","type":"string","internalType":"string"},{"name":"author","type":"string","internalType":"string"},{"name":"treeId","type":"string","internalType":"string"}]},{"name":"reportType","type":"string","internalType":"string"},{"name":"client","type":"string","internalType":"string"},{"name":"engagement","type":"string","internalType":"string"},{"name":"version","type":"string","internalType":"string"},{"name":"authors","type":"string","internalType":"string"},{"name":"institution","type":"string","internalType":"string"},{"name":"url","type":"string","internalType":"string"}],"outputs":[],"stateMutability":"nonpayable"},{"type":"function","name":"registerResearch","inputs":[{"name":"arId","type":"string","internalType":"string"},{"name":"base","type":"tuple","internalType":"struct AnchorRegistry.AnchorBase","components":[{"name":"artifactType","type":"uint8","internalType":"enum AnchorRegistry.ArtifactType"},{"name":"manifestHash","type":"string","internalType":"string"},{"name":"parentHash","type":"string","internalType":"string"},{"name":"descriptor","type":"string","internalType":"string"},{"name":"title","type":"string","internalType":"string"},{"name":"author","type":"string","internalType":"string"},{"name":"treeId","type":"string","internalType":"string"}]},{"name":"doi","type":"string","internalType":"string"},{"name":"institution","type":"string","internalType":"string"},{"name":"coAuthors","type":"string","internalType":"string"},{"name":"url","type":"string","internalType":"string"}],"outputs":[],"stateMutability":"nonpayable"},{"type":"function","name":"registerRetraction","inputs":[{"name":"arId","type":"string","internalType":"string"},{"name":"base","type":"tuple","internalType":"struct AnchorRegistry.AnchorBase","components":[{"name":"artifactType","type":"uint8","internalType":"enum AnchorRegistry.ArtifactType"},{"name":"manifestHash","type":"string","internalType":"string"},{"name":"parentHash","type":"string","internalType":"string"},{"name":"descriptor","type":"string","internalType":"string"},{"name":"title","type":"string","internalType":"string"},{"name":"author","type":"string","internalType":"string"},{"name":"treeId","type":"string","internalType":"string"}]},{"name":"targetArId","type":"string","internalType":"string"},{"name":"reason","type":"string","internalType":"string"},{"name":"replacedBy","type":"string","internalType":"string"}],"outputs":[],"stateMutability":"nonpayable"},{"type":"function","name":"registerReview","inputs":[{"name":"arId","type":"string","internalType":"string"},{"name":"base","type":"tuple","internalType":"struct AnchorRegistry.AnchorBase","components":[{"name":"artifactType","type":"uint8","internalType":"enum AnchorRegistry.ArtifactType"},{"name":"manifestHash","type":"string","internalType":"string"},{"name":"parentHash","type":"string","internalType":"string"},{"name":"descriptor","type":"string","internalType":"string"},{"name":"title","type":"string","internalType":"string"},{"name":"author","type":"string","internalType":"string"},{"name":"treeId","type":"string","internalType":"string"}]},{"name":"targetArId","type":"string","internalType":"string"},{"name":"reviewType","type":"string","internalType":"string"},{"name":"evidenceUrl","type":"string","internalType":"string"}],"outputs":[],"stateMutability":"nonpayable"},{"type":"function","name":"registerText","inputs":[{"name":"arId","type":"string","internalType":"string"},{"name":"base","type":"tuple","internalType":"struct AnchorRegistry.AnchorBase","components":[{"name":"artifactType","type":"uint8","internalType":"enum AnchorRegistry.ArtifactType"},{"name":"manifestHash","type":"string","internalType":"string"},{"name":"parentHash","type":"string","internalType":"string"},{"name":"descriptor","type":"string","internalType":"string"},{"name":"title","type":"string","internalType":"string"},{"name":"author","type":"string","internalType":"string"},{"name":"treeId","type":"string","internalType":"string"}]},{"name":"isbn","type":"string","internalType":"string"},{"name":"publisher","type":"string","internalType":"string"},{"name":"language","type":"string","internalType":"string"},{"name":"url","type":"string","internalType":"string"}],"outputs":[],"stateMutability":"nonpayable"},{"type":"function","name":"registerVoid","inputs":[{"name":"arId","type":"string","internalType":"string"},{"name":"base","type":"tuple","internalType":"struct AnchorRegistry.AnchorBase","components":[{"name":"artifactType","type":"uint8","internalType":"enum AnchorRegistry.ArtifactType"},{"name":"manifestHash","type":"string","internalType":"string"},{"name":"parentHash","type":"string","internalType":"string"},{"name":"descriptor","type":"string","internalType":"string"},{"name":"title","type":"string","internalType":"string"},{"name":"author","type":"string","internalType":"string"},{"name":"treeId","type":"string","internalType":"string"}]},{"name":"targetArId","type":"string","internalType":"string"},{"name":"reviewArId","type":"string","internalType":"string"},{"name":"findingUrl","type":"string","internalType":"string"},{"name":"evidence","type":"string","internalType":"string"}],"outputs":[],"stateMutability":"nonpayable"},{"type":"function","name":"registered","inputs":[{"name":"","type":"string","internalType":"string"}],"outputs":[{"name":"","type":"bool","internalType":"bool"}],"stateMutability":"view"},{"type":"function","name":"removeEntityOperator","inputs":[{"name":"op","type":"address","internalType":"address"}],"outputs":[],"stateMutability":"nonpayable"},{"type":"function","name":"removeLegalOperator","inputs":[{"name":"op","type":"address","internalType":"address"}],"outputs":[],"stateMutability":"nonpayable"},{"type":"function","name":"removeOperator","inputs":[{"name":"op","type":"address","internalType":"address"}],"outputs":[],"stateMutability":"nonpayable"},{"type":"function","name":"removeProofOperator","inputs":[{"name":"op","type":"address","internalType":"address"}],"outputs":[],"stateMutability":"nonpayable"},{"type":"function","name":"reportAnchors","inputs":[{"name":"","type":"string","internalType":"string"}],"outputs":[{"name":"base","type":"tuple","internalType":"struct AnchorRegistry.AnchorBase","components":[{"name":"artifactType","type":"uint8","internalType":"enum AnchorRegistry.ArtifactType"},{"name":"manifestHash","type":"string","internalType":"string"},{"name":"parentHash","type":"string","internalType":"string"},{"name":"descriptor","type":"string","internalType":"string"},{"name":"title","type":"string","internalType":"string"},{"name":"author","type":"string","internalType":"string"},{"name":"treeId","type":"string","internalType":"string"}]},{"name":"reportType","type":"string","internalType":"string"},{"name":"client","type":"string","internalType":"string"},{"name":"engagement","type":"string","internalType":"string"},{"name":"version","type":"string","internalType":"string"},{"name":"authors","type":"string","internalType":"string"},{"name":"institution","type":"string","internalType":"string"},{"name":"url","type":"string","internalType":"string"}],"stateMutability":"view"},{"type":"function","name":"researchAnchors","inputs":[{"name":"","type":"string","internalType":"string"}],"outputs":[{"name":"base","type":"tuple","internalType":"struct AnchorRegistry.AnchorBase","components":[{"name":"artifactType","type":"uint8","internalType":"enum AnchorRegistry.ArtifactType"},{"name":"manifestHash","type":"string","internalType":"string"},{"name":"parentHash","type":"string","internalType":"string"},{"name":"descriptor","type":"string","internalType":"string"},{"name":"title","type":"string","internalType":"string"},{"name":"author","type":"string","internalType":"string"},{"name":"treeId","type":"string","internalType":"string"}]},{"name":"doi","type":"string","internalType":"string"},{"name":"institution","type":"string","internalType":"string"},{"name":"coAuthors","type":"string","internalType":"string"},{"name":"url","type":"string","internalType":"string"}],"stateMutability":"view"},{"type":"function","name":"retractionAnchors","inputs":[{"name":"","type":"string","internalType":"string"}],"outputs":[{"name":"base","type":"tuple","internalType":"struct AnchorRegistry.AnchorBase","components":[{"name":"artifactType","type":"uint8","internalType":"enum AnchorRegistry.ArtifactType"},{"name":"manifestHash","type":"string","internalType":"string"},{"name":"parentHash","type":"string","internalType":"string"},{"name":"descriptor","type":"string","internalType":"string"},{"name":"title","type":"string","internalType":"string"},{"name":"author","type":"string","internalType":"string"},{"name":"treeId","type":"string","internalType":"string"}]},{"name":"targetArId","type":"string","internalType":"string"},{"name":"reason","type":"string","internalType":"string"},{"name":"replacedBy","type":"string","internalType":"string"}],"stateMutability":"view"},{"type":"function","name":"reviewAnchors","inputs":[{"name":"","type":"string","internalType":"string"}],"outputs":[{"name":"base","type":"tuple","internalType":"struct AnchorRegistry.AnchorBase","components":[{"name":"artifactType","type":"uint8","internalType":"enum AnchorRegistry.ArtifactType"},{"name":"manifestHash","type":"string","internalType":"string"},{"name":"parentHash","type":"string","internalType":"string"},{"name":"descriptor","type":"string","internalType":"string"},{"name":"title","type":"string","internalType":"string"},{"name":"author","type":"string","internalType":"string"},{"name":"treeId","type":"string","internalType":"string"}]},{"name":"targetArId","type":"string","internalType":"string"},{"name":"reviewType","type":"string","internalType":"string"},{"name":"evidenceUrl","type":"string","internalType":"string"}],"stateMutability":"view"},{"type":"function","name":"setRecoveryAddress","inputs":[{"name":"_newRecovery","type":"address","internalType":"address"}],"outputs":[],"stateMutability":"nonpayable"},{"type":"function","name":"textAnchors","inputs":[{"name":"","type":"string","internalType":"string"}],"outputs":[{"name":"base","type":"tuple","internalType":"struct AnchorRegistry.AnchorBase","components":[{"name":"artifactType","type":"uint8","internalType":"enum AnchorRegistry.ArtifactType"},{"name":"manifestHash","type":"string","internalType":"string"},{"name":"parentHash","type":"string","internalType":"string"},{"name":"descriptor","type":"string","internalType":"string"},{"name":"title","type":"string","internalType":"string"},{"name":"author","type":"string","internalType":"string"},{"name":"treeId","type":"string","internalType":"string"}]},{"name":"isbn","type":"string","internalType":"string"},{"name":"publisher","type":"string","internalType":"string"},{"name":"language","type":"string","internalType":"string"},{"name":"url","type":"string","internalType":"string"}],"stateMutability":"view"},{"type":"function","name":"transferOwnership","inputs":[{"name":"newOwner","type":"address","internalType":"address"}],"outputs":[],"stateMutability":"nonpayable"},{"type":"function","name":"voidAnchors","inputs":[{"name":"","type":"string","internalType":"string"}],"outputs":[{"name":"base","type":"tuple","internalType":"struct AnchorRegistry.AnchorBase","components":[{"name":"artifactType","type":"uint8","internalType":"enum AnchorRegistry.ArtifactType"},{"name":"manifestHash","type":"string","internalType":"string"},{"name":"parentHash","type":"string","internalType":"string"},{"name":"descriptor","type":"string","internalType":"string"},{"name":"title","type":"string","internalType":"string"},{"name":"author","type":"string","internalType":"string"},{"name":"treeId","type":"string","internalType":"string"}]},{"name":"targetArId","type":"string","internalType":"string"},{"name":"reviewArId","type":"string","internalType":"string"},{"name":"findingUrl","type":"string","internalType":"string"},{"name":"evidence","type":"string","internalType":"string"}],"stateMutability":"view"},{"type":"event","name":"Affirmed","inputs":[{"name":"arId","type":"string","indexed":true,"internalType":"string"},{"name":"targetArId","type":"string","indexed":true,"internalType":"string"},{"name":"affirmedBy","type":"string","indexed":false,"internalType":"string"}],"anonymous":false},{"type":"event","name":"Anchored","inputs":[{"name":"arId","type":"string","indexed":true,"internalType":"string"},{"name":"registrant","type":"address","indexed":true,"internalType":"address"},{"name":"artifactType","type":"uint8","indexed":false,"internalType":"enum AnchorRegistry.ArtifactType"},{"name":"descriptor","type":"string","indexed":false,"internalType":"string"},{"name":"title","type":"string","indexed":false,"internalType":"string"},{"name":"author","type":"string","indexed":false,"internalType":"string"},{"name":"manifestHash","type":"string","indexed":false,"internalType":"string"},{"name":"parentHash","type":"string","indexed":false,"internalType":"string"},{"name":"treeId","type":"string","indexed":false,"internalType":"string"}],"anonymous":false},{"type":"event","name":"EntityOperatorAdded","inputs":[{"name":"operator","type":"address","indexed":true,"internalType":"address"}],"anonymous":false},{"type":"event","name":"EntityOperatorRemoved","inputs":[{"name":"operator","type":"address","indexed":true,"internalType":"address"}],"anonymous":false},{"type":"event","name":"LegalOperatorAdded","inputs":[{"name":"operator","type":"address","indexed":true,"internalType":"address"}],"anonymous":false},{"type":"event","name":"LegalOperatorRemoved","inputs":[{"name":"operator","type":"address","indexed":true,"internalType":"address"}],"anonymous":false},{"type":"event","name":"OperatorAdded","inputs":[{"name":"operator","type":"address","indexed":true,"internalType":"address"}],"anonymous":false},{"type":"event","name":"OperatorRemoved","inputs":[{"name":"operator","type":"address","indexed":true,"internalType":"address"}],"anonymous":false},{"type":"event","name":"OwnershipTransferred","inputs":[{"name":"previousOwner","type":"address","indexed":true,"internalType":"address"},{"name":"newOwner","type":"address","indexed":true,"internalType":"address"}],"anonymous":false},{"type":"event","name":"ProofOperatorAdded","inputs":[{"name":"operator","type":"address","indexed":true,"internalType":"address"}],"anonymous":false},{"type":"event","name":"ProofOperatorRemoved","inputs":[{"name":"operator","type":"address","indexed":true,"internalType":"address"}],"anonymous":false},{"type":"event","name":"RecoveryAddressUpdated","inputs":[{"name":"newRecoveryAddress","type":"address","indexed":true,"internalType":"address"}],"anonymous":false},{"type":"event","name":"RecoveryCancelled","inputs":[],"anonymous":false},{"type":"event","name":"RecoveryExecuted","inputs":[{"name":"newOwner","type":"address","indexed":true,"internalType":"address"}],"anonymous":false},{"type":"event","name":"RecoveryInitiated","inputs":[{"name":"recoveryAddress","type":"address","indexed":true,"internalType":"address"},{"name":"pendingOwner","type":"address","indexed":true,"internalType":"address"}],"anonymous":false},{"type":"event","name":"Retracted","inputs":[{"name":"arId","type":"string","indexed":true,"internalType":"string"},{"name":"targetArId","type":"string","indexed":true,"internalType":"string"},{"name":"replacedBy","type":"string","indexed":false,"internalType":"string"}],"anonymous":false},{"type":"event","name":"Reviewed","inputs":[{"name":"arId","type":"string","indexed":true,"internalType":"string"},{"name":"targetArId","type":"string","indexed":true,"internalType":"string"},{"name":"reviewType","type":"string","indexed":false,"internalType":"string"},{"name":"evidenceUrl","type":"string","indexed":false,"internalType":"string"}],"anonymous":false},{"type":"event","name":"Voided","inputs":[{"name":"arId","type":"string","indexed":true,"internalType":"string"},{"name":"targetArId","type":"string","indexed":true,"internalType":"string"},{"name":"reviewArId","type":"string","indexed":true,"internalType":"string"},{"name":"evidence","type":"string","indexed":false,"internalType":"string"}],"anonymous":false},{"type":"error","name":"AlreadyRegistered","inputs":[{"name":"arId","type":"string","internalType":"string"}]},{"type":"error","name":"EmptyArId","inputs":[]},{"type":"error","name":"EmptyManifestHash","inputs":[]},{"type":"error","name":"EmptyTargetArId","inputs":[]},{"type":"error","name":"InsufficientCapacity","inputs":[]},{"type":"error","name":"InvalidParent","inputs":[{"name":"parentHash","type":"string","internalType":"string"}]},{"type":"error","name":"InvalidTarget","inputs":[{"name":"targetArId","type":"string","internalType":"string"}]},{"type":"error","name":"NotEntityOperator","inputs":[]},{"type":"error","name":"NotLegalOperator","inputs":[]},{"type":"error","name":"NotOperator","inputs":[]},{"type":"error","name":"NotOwner","inputs":[]},{"type":"error","name":"NotProofOperator","inputs":[]},{"type":"error","name":"NotRecoveryAddress","inputs":[]},{"type":"error","name":"RecoveryDelayNotMet","inputs":[]},{"type":"error","name":"RecoveryLockedOut","inputs":[]},{"type":"error","name":"RecoveryNotInitiated","inputs":[]},{"type":"error","name":"ZeroAddress","inputs":[]}],"bytecode":{"object":"0x608034620000bd57601f620088d738819003918201601f19168301916001600160401b03831184841017620000c157808492602094604052833981010312620000bd57516001600160a01b03811690819003620000bd578015620000ab5760018060a01b031933815f5416175f556001541617600155604051335f7f8be0079c531659141344cd1fd0a4f28419497f9722a3daafe3b4186f6b6457e08180a36188019081620000d68239f35b60405163d92e233d60e01b8152600490fd5b5f80fd5b634e487b7160e01b5f52604160045260245ffdfe6102c0806040526004361015610013575f80fd5b5f3560e01c90816304fabff914613fac575080630ba234d614613f40578063132171b014613dc057806313e7c9d814613d7f578063144888ff14613d37578063165d33fe14613cef57806316aca54614613ca75780631cb655e714613c5f5780631dcc436514613c175780632072738114613bfa57806320c5a3e114613b23578063397c9a3a14613ab0578063402cef1b14613a6f57806345f65cfa146139fc57806346de8daa1461392557806347b45652146136d457806347be22fa1461390857806347deec0d146138c057806349efe5ae14613852578063517f4dcf1461380a57806353ddf3e2146136d9578063561ea99c146136d4578063573701f71461368c5780635bd47e10146136445780635d064b3a146135fc5780635d2d5c37146135ae57806361ee8fea146134ec57806362c772cc1461342a5780636437afa4146133bc57806364bea3341461334557806366e81e6514612bc45780636ae0dd9c14612b835780636b6797c914612b105780636ba60e7114612aa6578063710eb26c14612a7e578063717d1a8514612a36578063762d408d146129ee5780637d15e15d146129785780638a0d436f146129305780638da5cb5b146129095780638e9d6ab71461289257806396ad272d1461284a5780639786e9a3146127765780639870d7fe146127035780639b1595d0146126565780639bcc00741461260e5780639e565f4d1461254c578063a00c78ab146124d5578063a0d1c3841461245e578063ac8a584a146123f4578063af7f08e5146122c3578063b643fcb314612259578063b6e3a9dc146121f9578063b91ef084146121b8578063bcb145f8146120f6578063bdd5a58214612047578063c47e3d4714611f0b578063d58b91e014611e19578063d5ce9aad14611d78578063ddf841a914611d0e578063e0ac87b914611c84578063e22aebdf14611c0d578063e30c397814611be5578063e600a0a014611b42578063ecc8d0fc14611a95578063f2fde38b14611a16578063f5de2afb146118e5578063fb07c543146117d4578063fe264355146103f15763fe746eb21461031f575f80fd5b346103ed5761032d366148ce565b919996959092989798335f52600260205260ff60405f205416156103db576103d99a61039d610381976103b5976103916103d49b8f978f8f9961037781610388936103a99d618507565b6040519e8f614210565b3690614a8c565b8d52369161424e565b60208b0152369161424e565b6040880152369161424e565b6060850152369161424e565b6080820152604051848482376020818681016010815203019020617a7c565b618667565b005b604051631f0853c160e21b8152600490fd5b5f80fd5b346103ed57600319610160368201126103ed576004356001600160401b0381116103ed576104239036906004016140dd565b61016052610180526024356101408190526001600160401b03106103ed5760e09061014051360301126103ed576044356001600160401b0381116103ed5761046f9036906004016140dd565b906064356001600160401b0381116103ed5761048f9036906004016140dd565b6084356001600160401b0381116103ed576104ae9036906004016140dd565b610120919091529160a4356001600160401b0381116103ed576104d59036906004016140dd565b60e091909152936001600160401b0360c435116103ed576104fb3660c4356004016140dd565b9260e4356001600160401b0381116103ed5761051b9036906004016140dd565b90929091906001600160401b0361010435116103ed5761054136610104356004016140dd565b9097909690610124356001600160401b0381116103ed576105669036906004016140dd565b6080919091529a610144356001600160401b0381116103ed5761058d9036906004016140dd565b6101005260c052335f52600560205260ff60405f205416156117c2576105c0610140516004016101605161018051618507565b60405160a08190526001600160401b036101408201908111911117610d225761064261067c9b61063061068d9f976106539561062261066e9d6106619b61014060a051016040526106173661014051600401614a8c565b60a05152369161424e565b602060a0510152369161424e565b604060a051015236906101205161424e565b606060a0510152369060e05161424e565b608060a0510152369161424e565b60a080510152369161424e565b60c060a0510152369161424e565b60e060a0510152369060805161424e565b61010060a05101526106a5366101005160c05161424e565b61012060a051015260405161016051610180518237602081610160518101601881520301902060a05151805160168110156117ae5760ff80198454169116178255602081015191825160018060401b038111610d225761070860018301546142d2565b601f811161176a575b506020601f821160011461170057819293945f926116f5575b50508160011b915f199060031b1c19161760018201555b604082015180519092906001600160401b038111610d225761076660028401546142d2565b601f81116116b1575b506020601f821160011461164757819293945f9261163c575b50508160011b915f199060031b1c19161760028301555b606081015180519092906001600160401b038111610d22576107c460038301546142d2565b601f81116115f8575b506020601f821160011461158e57819293945f92611583575b50508160011b915f199060031b1c19161760038201555b608082015180519092906001600160401b038111610d225761082260048401546142d2565b601f811161153f575b506020601f82116001146114d557819293945f926114ca575b50508160011b915f199060031b1c19161760048301555b60a08101518051906001600160401b038211610d225761087e60058501546142d2565b601f8111611486575b50602090601f83116001146114175760c09392915f918361140c575b50508160011b915f199060031b1c19161760058401555b01518051906001600160401b038211610d225781906108dc60068501546142d2565b601f81116113bc575b50602090601f831160011461134e575f92611343575b50508160011b915f199060031b1c19161760068201555b60a051602001518051906001600160401b038211610d2257819061093960078501546142d2565b601f81116112f3575b50602090601f8311600114611285575f9261127a575b50508160011b915f199060031b1c19161760078201555b60a051604001518051906001600160401b038211610d2257819061099660088501546142d2565b601f811161122a575b50602090601f83116001146111bc575f926111b1575b50508160011b915f199060031b1c19161760088201555b60a051606001518051906001600160401b038211610d225781906109f360098501546142d2565b601f8111611161575b50602090601f83116001146110f3575f926110e8575b50508160011b915f199060031b1c19161760098201555b60a051608001518051906001600160401b038211610d22578190610a50600a8501546142d2565b601f8111611095575b50602090601f8311600114611027575f9261101c575b50508160011b915f199060031b1c191617600a8201555b60a0805101518051906001600160401b038211610d22578190610aac600b8501546142d2565b601f8111610fc9575b50602090601f8311600114610f5b575f92610f50575b50508160011b915f199060031b1c191617600b8201555b60a05160c001518051909190600c8201906001600160401b038111610d2257610b0b82546142d2565b601f8111610f0b575b506020601f8211600114610ea957819293945f92610e9e575b50508160011b915f199060031b1c19161790555b60a05160e001518051909190600d8201906001600160401b038111610d2257610b6a82546142d2565b601f8111610e59575b506020601f8211600114610df757819293945f92610dec575b50508160011b915f199060031b1c19161790555b60a051610100015180519190600e8201906001600160401b038411610d2257610bc982546142d2565b601f8111610da7575b50602090601f8511600114610d4157600f94915f9183610d36575b50508160011b915f199060031b1c19161790555b0161012060a051015190815160018060401b038111610d2257610c2482546142d2565b601f8111610cdd575b50602092601f8211600114610c7d57928192935f92610c72575b50508160011b915f199060031b1c19161790555b6103d9610140516004016101605161018051618667565b015190508380610c47565b601f19821693835f5260205f20915f5b868110610cc55750836001959610610cad575b505050811b019055610c5b565b01515f1960f88460031b161c19169055838080610ca0565b91926020600181928685015181550194019201610c8d565b825f5260205f20601f830160051c81019160208410610d18575b601f0160051c01905b818110610d0d5750610c2d565b5f8155600101610d00565b9091508190610cf7565b634e487b7160e01b5f52604160045260245ffd5b015190508580610bed565b90601f19851691835f5260205f20925f5b818110610d8f5750916001939187600f989410610d77575b505050811b019055610c01565b01515f1960f88460031b161c19169055858080610d6a565b92936020600181928786015181550195019301610d52565b825f5260205f20601f860160051c81019160208710610de2575b601f0160051c01905b818110610dd75750610bd2565b5f8155600101610dca565b9091508190610dc1565b015190508480610b8c565b601f19821690835f5260205f20915f5b818110610e4157509583600195969710610e29575b505050811b019055610ba0565b01515f1960f88460031b161c19169055848080610e1c565b9192602060018192868b015181550194019201610e07565b825f5260205f20601f830160051c81019160208410610e94575b601f0160051c01905b818110610e895750610b73565b5f8155600101610e7c565b9091508190610e73565b015190508480610b2d565b601f19821690835f5260205f20915f5b818110610ef357509583600195969710610edb575b505050811b019055610b41565b01515f1960f88460031b161c19169055848080610ece565b9192602060018192868b015181550194019201610eb9565b825f5260205f20601f830160051c81019160208410610f46575b601f0160051c01905b818110610f3b5750610b14565b5f8155600101610f2e565b9091508190610f25565b015190508380610acb565b9250600b84015f5260205f20905f935b601f1984168510610fae576001945083601f19811610610f96575b505050811b01600b820155610ae2565b01515f1960f88460031b161c19169055838080610f86565b81810151835560209485019460019093019290910190610f6b565b909150600b84015f5260205f20601f840160051c81019160208510611012575b90601f859493920160051c01905b8181106110045750610ab5565b5f8155849350600101610ff7565b9091508190610fe9565b015190508380610a6f565b9250600a84015f5260205f20905f935b601f198416851061107a576001945083601f19811610611062575b505050811b01600a820155610a86565b01515f1960f88460031b161c19169055838080611052565b81810151835560209485019460019093019290910190611037565b909150600a84015f5260205f20601f840160051c810191602085106110de575b90601f859493920160051c01905b8181106110d05750610a59565b5f81558493506001016110c3565b90915081906110b5565b015190508380610a12565b9250600984015f5260205f20905f935b601f1984168510611146576001945083601f1981161061112e575b505050811b016009820155610a29565b01515f1960f88460031b161c1916905583808061111e565b81810151835560209485019460019093019290910190611103565b909150600984015f5260205f20601f840160051c8101602085106111aa575b90849392915b601f830160051c8201811061119c5750506109fc565b5f8155859450600101611186565b5080611180565b0151905083806109b5565b9250600884015f5260205f20905f935b601f198416851061120f576001945083601f198116106111f7575b505050811b0160088201556109cc565b01515f1960f88460031b161c191690558380806111e7565b818101518355602094850194600190930192909101906111cc565b909150600884015f5260205f20601f840160051c810160208510611273575b90849392915b601f830160051c8201811061126557505061099f565b5f815585945060010161124f565b5080611249565b015190508380610958565b9250600784015f5260205f20905f935b601f19841685106112d8576001945083601f198116106112c0575b505050811b01600782015561096f565b01515f1960f88460031b161c191690558380806112b0565b81810151835560209485019460019093019290910190611295565b909150600784015f5260205f20601f840160051c81016020851061133c575b90849392915b601f830160051c8201811061132e575050610942565b5f8155859450600101611318565b5080611312565b0151905083806108fb565b9250600684015f5260205f20905f935b601f19841685106113a1576001945083601f19811610611389575b505050811b016006820155610912565b01515f1960f88460031b161c19169055838080611379565b8181015183556020948501946001909301929091019061135e565b909150600684015f5260205f20601f840160051c810160208510611405575b90849392915b601f830160051c820181106113f75750506108e5565b5f81558594506001016113e1565b50806113db565b0151905085806108a3565b90600585015f5260205f20915f5b601f198516811061146e575091839160019360c09695601f19811610611456575b505050811b0160058401556108ba565b01515f1960f88460031b161c19169055858080611446565b91926020600181928685015181550194019201611425565b600585015f5260205f20601f840160051c8101602085106114c3575b601f830160051c820181106114b8575050610887565b5f81556001016114a2565b50806114a2565b015190508480610844565b600484015f5260205f20905f5b601f19841681106115275750600193949583601f1981161061150f575b505050811b01600483015561085b565b01515f1960f88460031b161c191690558480806114ff565b9091602060018192858a0151815501930191016114e2565b600484015f5260205f20601f830160051c81016020841061157c575b601f830160051c8201811061157157505061082b565b5f815560010161155b565b508061155b565b0151905084806107e6565b600383015f5260205f20905f5b601f19841681106115e05750600193949583601f198116106115c8575b505050811b0160038201556107fd565b01515f1960f88460031b161c191690558480806115b8565b9091602060018192858a01518155019301910161159b565b600383015f5260205f20601f830160051c810160208410611635575b601f830160051c8201811061162a5750506107cd565b5f8155600101611614565b5080611614565b015190508480610788565b600284015f5260205f20905f5b601f19841681106116995750600193949583601f19811610611681575b505050811b01600283015561079f565b01515f1960f88460031b161c19169055848080611671565b9091602060018192858a015181550193019101611654565b600284015f5260205f20601f830160051c8101602084106116ee575b601f830160051c820181106116e357505061076f565b5f81556001016116cd565b50806116cd565b01519050848061072a565b600183015f5260205f20905f5b601f19841681106117525750600193949583601f1981161061173a575b505050811b016001820155610741565b01515f1960f88460031b161c1916905584808061172a565b9091602060018192858a01518155019301910161170d565b600183015f5260205f20601f830160051c8101602084106117a7575b601f830160051c8201811061179c575050610711565b5f8155600101611786565b5080611786565b634e487b7160e01b5f52602160045260245ffd5b60405163b601a68d60e01b8152600490fd5b346103ed576117e23661410a565b97919094969295335f52600260205260ff60405f205416156103db5761189e6118a59261186f7faf0c98c5c4879ef897a044cdac758c7bd233c9d4ac8cdbb360f44280e7b0047d99611835858989618507565b61183f898d618608565b6040519261184c846141a3565b6118563687614a8c565b8452611863368b8f61424e565b6020850152369161424e565b604082015261187f368c8a61424e565b6060820152604051868682376020818881016019815203019020614b67565b8383618667565b81604051928392833781015f81520390209381604051928392833781015f8152039020936118e0604051928392602084526020840191615515565b0390a3005b346103ed576118f336614706565b929b9499969798959a939c9f919e909d6101c0526101a0526101e0529a9b98999697949592939091335f52600260205260ff60405f205416156103db576101c0516101a051906101e0519161194792618507565b6040519d8e91611956836141d9565b366101c0519061196591614a8c565b835236906119729261424e565b906020015236906119829261424e565b60408c015236906119929261424e565b60608a015236906119a29261424e565b608088015236906119b29261424e565b60a086015236906119c29261424e565b60c084015236906119d29261424e565b60e08201526040516101a0516101e0518237806101a051810160128152036020019020906119ff916161a2565b6101c0516101a051906101e051916103d992618667565b346103ed5760203660031901126103ed576004356001600160a01b03818116918290036103ed575f54908116803303611a83578215611a715782905f805160206187ac8339815191525f80a36001600160a01b031916175f55005b60405163d92e233d60e01b8152600490fd5b6040516330cd747160e01b8152600490fd5b346103ed5760203660031901126103ed576004356001600160401b0381116103ed576020611aca611add923690600401614293565b81604051938285809451938492016142b1565b81016016815203019020611af0816143ac565b611b3e611aff6007840161430a565b92611b0c6008820161430a565b90611b196009820161430a565b611b31600b611b2a600a850161430a565b930161430a565b9260405196879687614551565b0390f35b346103ed5760203660031901126103ed576004356001600160401b0381116103ed576020611aca611b77923690600401614293565b81016017815203019020611b8a816143ac565b611b3e611b996007840161430a565b92611ba66008820161430a565b90611bb36009820161430a565b611bbf600a830161430a565b90611bd8600c611bd1600b860161430a565b940161430a565b936040519788978861497c565b346103ed575f3660031901126103ed576008546040516001600160a01b039091168152602090f35b346103ed57611c1b366148ce565b919996959092989798335f52600260205260ff60405f205416156103db576103d99a61039d61038197611c65976103916103d49b8f978f8f9961037781610388936103a99d618507565b608082015260405184848237602081868101601e815203019020617a7c565b346103ed5760203660031901126103ed576004356001600160401b0381116103ed576020611aca611cb9923690600401614293565b8101601b815203019020611ccc816143ac565b611b3e611cdb6007840161430a565b92611ce86008820161430a565b90611d01600a611cfa6009840161430a565b920161430a565b91604051958695866144f6565b346103ed5760203660031901126103ed576004356001600160a01b03818116918290036103ed575f54163303611a8357805f52600460205260405f2060ff1981541690557fb3995d3ad0a4cb17193137b6b470c2eda6bbf6d63f3d135f197fc4cdeedc27905f80a2005b346103ed5760203660031901126103ed576004356001600160a01b03818116918290036103ed5760015416803303611e07578115611a71576007544210611df557600880546001600160a01b03191683179055426006557fe7eb1bf44bc7e6084d5d89f19e76a2b46fed60ff3eb9e650f3db79a386391c615f80a3005b6040516333ca6ceb60e21b8152600490fd5b6040516320a6214d60e21b8152600490fd5b346103ed57611e27366145be565b989196939495929790999a9c9b9c335f52600460205260ff60405f20541615611ef9578d9b8f8d8f611e5892618507565b6040519c611e658e6141be565b36611e6f91614a8c565b8d523690611e7c9261424e565b60208c01523690611e8c9261424e565b60408a01523690611e9c9261424e565b60608801523690611eac9261424e565b60808601523690611ebc9261424e565b60a08401523690611ecc9261424e565b60c082015260405182858237808381016017815203602001902090611ef091615535565b6103d992618667565b60405163ebee8ba760e01b8152600490fd5b346103ed57611f19366148ce565b9991969798929095939498335f52600260205260ff60405f205416156103db5761189e89611fc6611ff5947f07c9fc4ac9266376cb17afdcee0f23f0f5abaf32dab736c7d891c595d39725bd9b611fba8f611f75888c8c618507565b611f7f8c87618608565b611f898d82618608565b611fad60405196611f9988614210565b611fa3368b614a8c565b88528d369161424e565b60208701528c369161424e565b6040850152369161424e565b6060820152611fd6368e8b61424e565b608082015260405186868237602081888101601b815203019020617a7c565b81604051928392833781015f81520390209481604051928392833781015f81520390209481604051928392833781015f815203902094612042604051928392602084526020840191615515565b0390a4005b346103ed5760203660031901126103ed576004356001600160401b0381116103ed576020611aca61207c923690600401614293565b8101601581520301902061208f816143ac565b611b3e61209e6007840161430a565b926120ab6008820161430a565b906120b86009820161430a565b6120c4600a830161430a565b6120d0600b840161430a565b916120e9600d6120e2600c870161430a565b950161430a565b94604051988998896149fa565b346103ed5761210436614805565b9691949392959097989a999a335f52600260205260ff60405f205416156103db576121308c8c8f618507565b6040519961213d8b6141f5565b612147368e614a8c565b8b5236906121549261424e565b60208a015236906121649261424e565b604088015236906121749261424e565b606086015236906121849261424e565b608084015236906121949261424e565b60a08201526040518285823780838101600c815203602001902090611ef091616f19565b346103ed5760203660031901126103ed576004356001600160a01b038116908190036103ed575f526003602052602060ff60405f2054166040519015158152f35b346103ed575f3660031901126103ed5760408051908101906001600160401b03821181831017610d2257611b3e91604052600e81526d61722d6f70657261746f722d763160901b6020820152604051918291602083526020830190614442565b346103ed5760203660031901126103ed576004356001600160a01b03818116918290036103ed575f54163303611a8357805f52600560205260405f2060ff1981541690557fc28840c72026297551adaf2f67ff2d6aca1b2c4ed12cf5023d94ba7076e75a095f80a2005b346103ed576122d136614706565b929b9499969798959a939c9f919e909d6102205261020052610240529a9b98999697949592939091335f52600260205260ff60405f205416156103db57610220516102005190610240519161232592618507565b6040519d8e91612334836141d9565b36610220519061234391614a8c565b835236906123509261424e565b906020015236906123609261424e565b60408c015236906123709261424e565b60608a015236906123809261424e565b608088015236906123909261424e565b60a086015236906123a09261424e565b60c084015236906123b09261424e565b60e0820152604051610200516102405182378061020051810160158152036020019020906123dd916161a2565b61022051610200519061024051916103d992618667565b346103ed5760203660031901126103ed576004356001600160a01b03818116918290036103ed575f54163303611a8357805f52600260205260405f2060ff1981541690557f80c0b871b97b595b16a7741c1b06fed0c6f6f558639f18ccbce50724325dc40d5f80a2005b346103ed5761246c366148ce565b919996959092989798335f52600260205260ff60405f205416156103db576103d99a61039d610381976124b6976103916103d49b8f978f8f9961037781610388936103a99d618507565b6080820152604051848482376020818681016013815203019020617a7c565b346103ed576124e3366148ce565b919996959092989798335f52600260205260ff60405f205416156103db576103d99a61039d6103819761252d976103916103d49b8f978f8f9961037781610388936103a99d618507565b608082015260405184848237602081868101600d815203019020617a7c565b346103ed5761255a36614805565b9691949392959097989a999a335f52600260205260ff60405f205416156103db576125868c8c8f618507565b604051996125938b6141f5565b61259d368e614a8c565b8b5236906125aa9261424e565b60208a015236906125ba9261424e565b604088015236906125ca9261424e565b606086015236906125da9261424e565b608084015236906125ea9261424e565b60a08201526040518285823780838101600e815203602001902090611ef091616f19565b346103ed5760203660031901126103ed576004356001600160401b0381116103ed576020611aca612643923690600401614293565b8101601281520301902061208f816143ac565b346103ed576126643661410a565b9597919796929496335f52600260205260ff60405f205416156103db5761189e886126e46118a5947fa62ae18c8132954544e02a502215888bdc7d7df53e52873d79a81f91544f2dba9a611fba8e6126bd888c8c618507565b6126c78c87618608565b6126d760405196611f99886141a3565b602087015236908d61424e565b606082015260405186868237602081888101601c815203019020614b67565b346103ed5760203660031901126103ed576004356001600160a01b03818116918290036103ed575f54163303611a83578015611a7157805f52600260205260405f20600160ff198254161790557fac6fa858e9350a46cec16539926e0fde25b7629f84b5a72bffaae4df888ae86d5f80a2005b346103ed5761278436614805565b9691949392959097989a999a335f52600360205260ff60405f20541615612838576127b08c8c8f618507565b604051996127bd8b6141f5565b6127c7368e614a8c565b8b5236906127d49261424e565b60208a015236906127e49261424e565b604088015236906127f49261424e565b606086015236906128049261424e565b608084015236906128149261424e565b60a082015260405182858237808381016016815203602001902090611ef091616f19565b604051633b4d583360e21b8152600490fd5b346103ed5760203660031901126103ed576004356001600160401b0381116103ed576020611aca61287f923690600401614293565b8101601181520301902061208f816143ac565b346103ed576128a0366148ce565b919996959092989798335f52600260205260ff60405f205416156103db576103d99a61039d610381976128ea976103916103d49b8f978f8f9961037781610388936103a99d618507565b608082015260405184848237602081868101600a815203019020617a7c565b346103ed575f3660031901126103ed575f546040516001600160a01b039091168152602090f35b346103ed5760203660031901126103ed576004356001600160401b0381116103ed576020611aca612965923690600401614293565b81016014815203019020611b8a816143ac565b346103ed5760203660031901126103ed576004356001600160401b0381116103ed576020611aca6129ad923690600401614293565b810160198152030190206129c0816143ac565b611b3e6129cf6007840161430a565b926129e16009611cfa6008840161430a565b90604051948594856146be565b346103ed5760203660031901126103ed576004356001600160401b0381116103ed576020611aca612a23923690600401614293565b8101600e815203019020611af0816143ac565b346103ed5760203660031901126103ed576004356001600160401b0381116103ed576020611aca612a6b923690600401614293565b8101600b815203019020611af0816143ac565b346103ed575f3660031901126103ed576001546040516001600160a01b039091168152602090f35b346103ed5760203660031901126103ed576004356001600160a01b03818116918290036103ed575f54163303611a8357805f52600360205260405f2060ff1981541690557f6b66d1bba82a11aca959b4321a690cd67c826fb136617127d12973beb6957b335f80a2005b346103ed5760203660031901126103ed576004356001600160a01b03818116918290036103ed575f54163303611a83578015611a7157805f52600560205260405f20600160ff198254161790557f5bfe4ffbe756ad2df32059678eca22cadff8ecb3440f958eae6ff7b2d436e1ba5f80a2005b346103ed5760203660031901126103ed576004356001600160a01b038116908190036103ed575f526004602052602060ff60405f2054166040519015158152f35b346103ed576003196060368201126103ed576001600160401b03906004358281116103ed57612bf79036906004016140dd565b906024938435938185116103ed5760e0908560040195360301126103ed5760443594335f526020916002835260ff60405f205416156103db57600a871061333357612c43868686618507565b60405192604084018481108382111761324157604052612c633688614a8c565b8452808401978852604051868682378181888101601d8152030190209351928351601681101561331f5760ff80198754169116178555600190818601908386015191825186811161330c5780612cb983546142d2565b94601f958681116132be575b50879086831160011461325f575f92613254575b50505f19600383901b1c191690851b1790555b600287016040870151805190878211613241578190612d0b84546142d2565b8681116131f3575b508790868311600114613194575f92613189575b50505f19600383901b1c191690851b1790555b6003938488016060880151805190888211613008578190612d5b84546142d2565b87811161313b575b5084908783116001146130dd575f926130d2575b50505f1982891b1c191690861b1790555b600488016080880151805190888211613008578190612da784546142d2565b878111613084575b508490878311600114613026575f9261301b575b50505f1982891b1c191690861b1790555b6005880160a0880151805190888211613008578190612df384546142d2565b878111612fba575b508490878311600114612f5c575f92612f51575b50505f1982891b1c191690861b1790555b60c060068901970151918251968711612f3e5750612e3e87546142d2565b838111612efb575b5080928611600114612e8b5750928480936103d99c9693600798965f95612e80575b50501b925f19911b1c19161790555b51910155618667565b015193508d80612e68565b9294939190601f198516875f52845f20945f905b828210612ee457505091859391600798966103d99e98969410612ecb575b50505050811b019055612e77565b01519060f8845f19921b161c191690558a808080612ebd565b808986988294978701518155019701940190612e9f565b875f52815f208480890160051c820192848a10612f35575b0160051c019085905b828110612f2a575050612e46565b5f8155018590612f1c565b92508192612f13565b634e487b7160e01b5f9081526041600452fd5b015190508f80612e0f565b90889350601f19831691855f52865f20925f5b88828210612fa45750508411612f8d575b505050811b019055612e20565b01515f19838b1b60f8161c191690558f8080612f80565b8385015186558c97909501949384019301612f6f565b909150835f52845f208780850160051c820192878610612fff575b918a91869594930160051c01915b828110612ff1575050612dfb565b5f81558594508a9101612fe3565b92508192612fd5565b84634e487b7160e01b5f5260416004525ffd5b015190508f80612dc3565b90889350601f19831691855f52865f20925f5b8882821061306e5750508411613057575b505050811b019055612dd4565b01515f19838b1b60f8161c191690558f808061304a565b8385015186558c97909501949384019301613039565b909150835f52845f208780850160051c8201928786106130c9575b918a91869594930160051c01915b8281106130bb575050612daf565b5f81558594508a91016130ad565b9250819261309f565b015190508f80612d77565b90889350601f19831691855f52865f20925f5b88828210613125575050841161310e575b505050811b019055612d88565b01515f19838b1b60f8161c191690558f8080613101565b8385015186558c979095019493840193016130f0565b909150835f52845f208780850160051c820192878610613180575b918a91869594930160051c01915b828110613172575050612d63565b5f81558594508a9101613164565b92508192613156565b015190508e80612d27565b90879350601f19831691855f52895f20925f5b8b8282106131dd57505084116131c5575b505050811b019055612d3a565b01515f1960f88460031b161c191690558e80806131b8565b8385015186558b979095019493840193016131a7565b909150835f52875f208680850160051c8201928a8610613238575b918991869594930160051c01915b82811061322a575050612d13565b5f815585945089910161321c565b9250819261320e565b83634e487b7160e01b5f5260416004525ffd5b015190508e80612cd9565b90879350601f19831691855f52895f20925f5b8b8282106132a85750508411613290575b505050811b019055612cec565b01515f1960f88460031b161c191690558e8080613283565b8385015186558b97909501949384019301613272565b909150835f52875f208680850160051c8201928a8610613303575b918991869594930160051c01915b8281106132f5575050612cc5565b5f81558594508991016132e7565b925081926132d9565b82634e487b7160e01b5f5260416004525ffd5b50634e487b7160e01b5f9081526021600452fd5b604051632e77ac1d60e11b8152600490fd5b346103ed57613353366148ce565b919996959092989798335f52600260205260ff60405f205416156103db576103d99a61039d6103819761339d976103916103d49b8f978f8f9961037781610388936103a99d618507565b608082015260405184848237602081868101600f815203019020617a7c565b346103ed5760203660031901126103ed576004356001600160401b0381116103ed576133f46020611aca613420933690600401614293565b8101601d8152030190206007613409826143ac565b910154604051928392604084526040840190614467565b9060208301520390f35b346103ed5761343836614805565b9691949392959097989a999a335f52600260205260ff60405f205416156103db576134648c8c8f618507565b604051996134718b6141f5565b61347b368e614a8c565b8b5236906134889261424e565b60208a015236906134989261424e565b604088015236906134a89261424e565b606086015236906134b89261424e565b608084015236906134c89261424e565b60a08201526040518285823780838101600b815203602001902090611ef091616f19565b346103ed576134fa36614805565b9691949392959097989a999a335f52600260205260ff60405f205416156103db576135268c8c8f618507565b604051996135338b6141f5565b61353d368e614a8c565b8b52369061354a9261424e565b60208a0152369061355a9261424e565b6040880152369061356a9261424e565b6060860152369061357a9261424e565b6080840152369061358a9261424e565b60a082015260405182858237808381016009815203602001902090611ef091616f19565b346103ed5760203660031901126103ed576004356001600160401b0381116103ed5760ff6135e66020611aca81943690600401614293565b8101601f81520301902054166040519015158152f35b346103ed5760203660031901126103ed576004356001600160401b0381116103ed576020611aca613631923690600401614293565b8101601a8152030190206129c0816143ac565b346103ed5760203660031901126103ed576004356001600160401b0381116103ed576020611aca613679923690600401614293565b8101601e815203019020611ccc816143ac565b346103ed5760203660031901126103ed576004356001600160401b0381116103ed576020611aca6136c1923690600401614293565b81016009815203019020611af0816143ac565b6146a1565b346103ed576136e736614706565b929b9499969798959a939c9f919e909d61028052610260526102a0529a9b98999697949592939091335f52600260205260ff60405f205416156103db576102805161026051906102a0519161373b92618507565b6040519d8e9161374a836141d9565b36610280519061375991614a8c565b835236906137669261424e565b906020015236906137769261424e565b60408c015236906137869261424e565b60608a015236906137969261424e565b608088015236906137a69261424e565b60a086015236906137b69261424e565b60c084015236906137c69261424e565b60e0820152604051610260516102a05182378061026051810160118152036020019020906137f3916161a2565b6102805161026051906102a051916103d992618667565b346103ed5760203660031901126103ed576004356001600160401b0381116103ed576020611aca61383f923690600401614293565b8101600f815203019020611ccc816143ac565b346103ed5760203660031901126103ed576004356001600160a01b03818116918290036103ed576001549081163303611e07578115611a71576001600160a01b03191681176001557f83c14e1947c5a639434d6195a6e9d85ab3471a5049c66e0aa46b71e2c0a06dde5f80a2005b346103ed5760203660031901126103ed576004356001600160401b0381116103ed576020611aca6138f5923690600401614293565b8101601c8152030190206129c0816143ac565b346103ed575f3660031901126103ed576020600754604051908152f35b346103ed57613933366145be565b989196939495929790999a9c9b9c335f52600260205260ff60405f205416156103db578d9b8f8d8f61396492618507565b6040519c6139718e6141be565b3661397b91614a8c565b8d5236906139889261424e565b60208c015236906139989261424e565b60408a015236906139a89261424e565b606088015236906139b89261424e565b608086015236906139c89261424e565b60a084015236906139d89261424e565b60c082015260405182858237808381016014815203602001902090611ef091615535565b346103ed5760203660031901126103ed576004356001600160a01b03818116918290036103ed575f54163303611a83578015611a7157805f52600360205260405f20600160ff198254161790557f6d52a43c5decf356b1093e9f3b6beb1eb8f9f3f333a8f13171e1d89c143c45755f80a2005b346103ed5760203660031901126103ed576004356001600160a01b038116908190036103ed575f526005602052602060ff60405f2054166040519015158152f35b346103ed5760203660031901126103ed576004356001600160a01b03818116918290036103ed575f54163303611a83578015611a7157805f52600460205260405f20600160ff198254161790557f65e52bd3fb1902d00941506c0a765dfad293c8c4d5851c7a4dc55ad5d60ff5e35f80a2005b346103ed575f3660031901126103ed576001546001600160a01b039081163303611e07576006548015613be85762093a808101809111613bd4574210613bc2575f54600854828116809383165f805160206187ac8339815191525f80a36001600160a01b031991821683175f908155911660085560068190557ffcd2de31341801b7fd80895c780aae50c1505fd674ff1b9b9764c56c633434d69080a2005b604051634b362d4f60e01b8152600490fd5b634e487b7160e01b5f52601160045260245ffd5b60405163078591a760e11b8152600490fd5b346103ed575f3660031901126103ed576020600654604051908152f35b346103ed5760203660031901126103ed576004356001600160401b0381116103ed576020611aca613c4c923690600401614293565b81016013815203019020611ccc816143ac565b346103ed5760203660031901126103ed576004356001600160401b0381116103ed576020611aca613c94923690600401614293565b81016010815203019020611ccc816143ac565b346103ed5760203660031901126103ed576004356001600160401b0381116103ed576020611aca613cdc923690600401614293565b8101600c815203019020611af0816143ac565b346103ed5760203660031901126103ed576004356001600160401b0381116103ed576020611aca613d24923690600401614293565b8101600a815203019020611ccc816143ac565b346103ed5760203660031901126103ed576004356001600160401b0381116103ed576020611aca613d6c923690600401614293565b8101600d815203019020611ccc816143ac565b346103ed5760203660031901126103ed576004356001600160a01b038116908190036103ed575f526002602052602060ff60405f2054166040519015158152f35b346103ed5760203660031901126103ed576004356001600160401b0381116103ed57613df0903690600401614293565b6040518181809351602081930191613e07926142b1565b810160188152036020019020613e1c816143ac565b613e286007830161430a565b91613e356008820161430a565b90613e426009820161430a565b613e4e600a830161430a565b613e5a600b840161430a565b613e66600c850161430a565b91613e73600d860161430a565b93613e80600e870161430a565b95600f01613e8d9061430a565b96604051998a99610140808c528b01613ea591614467565b8a810360208c0152613eb691614442565b89810360408b0152613ec791614442565b88810360608a0152613ed891614442565b8781036080890152613ee991614442565b86810360a0880152613efa91614442565b85810360c0870152613f0b91614442565b84810360e0860152613f1c91614442565b838103610100850152613f2e91614442565b828103610120840152611b3e91614442565b346103ed575f3660031901126103ed575f546001600160a01b03163303611a8357600880546001600160a01b03191690555f6006554262093a808101908110613bd4576007557fedd770ee01b7c0ef4f503125eafdc2725536cbf32342dffcaa300d95a7cafce35f80a1005b346103ed57613fba3661410a565b98979195909497969296335f52600260205260ff60405f205416156140ce575091816140858461189e8b6140668e61401b7f4c008f49c3178c1ce0fb3c86aed7d2e80aca376ed1476947ca5a220f45e9a5089e9d9c9a896118e09d9b618507565b6140258984618608565b61404960405193614035856141a3565b61403f3688614a8c565b85528a369161424e565b6020840152614059368d8f61424e565b604084015236908a61424e565b606082015260405186868237602081888101601a815203019020614b67565b81604051928392833781015f81520390209681604051928392833781015f8152039020966140c0604051958695604087526040870191615515565b918483036020860152615515565b631f0853c160e21b8152600490fd5b9181601f840112156103ed578235916001600160401b0383116103ed57602083818601950101116103ed57565b906003199060a0828401126103ed576001600160401b0390600480358381116103ed57856141399183016140dd565b95909594602435908582116103ed5760e09082840301126103ed578201936044358181116103ed578261416d9185016140dd565b949094936064358381116103ed57846141879183016140dd565b949094936084359081116103ed5761419f92016140dd565b9091565b608081019081106001600160401b03821117610d2257604052565b60e081019081106001600160401b03821117610d2257604052565b61010081019081106001600160401b03821117610d2257604052565b60c081019081106001600160401b03821117610d2257604052565b60a081019081106001600160401b03821117610d2257604052565b601f909101601f19168101906001600160401b03821190821017610d2257604052565b9192916001600160401b038211610d225760405191614277601f8201601f19166020018461422b565b8294818452818301116103ed578281602093845f960137010152565b9080601f830112156103ed578160206142ae9335910161424e565b90565b5f5b8381106142c25750505f910152565b81810151838201526020016142b3565b90600182811c92168015614300575b60208310146142ec57565b634e487b7160e01b5f52602260045260245ffd5b91607f16916142e1565b9060405191825f825461431c816142d2565b908184526020946001916001811690815f1461438a575060011461434c575b50505061434a9250038361422b565b565b5f90815285812095935091905b81831061437257505061434a93508201015f808061433b565b85548884018501529485019487945091830191614359565b9250505061434a94925060ff191682840152151560051b8201015f808061433b565b906040516143b9816141be565b809260ff8154169060168210156117ae5760066144309160c09385526143e16001820161430a565b60208601526143f26002820161430a565b60408601526144036003820161430a565b60608601526144146004820161430a565b60808601526144256005820161430a565b60a08601520161430a565b910152565b9060168210156117ae5752565b9060209161445b815180928185528580860191016142b1565b601f01601f1916010190565b6142ae91614476818351614435565b60c06144e56144d36144c16144af61449d602088015160e0602089015260e0880190614442565b60408801518782036040890152614442565b60608701518682036060880152614442565b60808601518582036080870152614442565b60a085015184820360a0860152614442565b9201519060c0818403910152614442565b93906142ae9593614527614543946145196145359460a08a5260a08a0190614467565b9088820360208a0152614442565b908682036040880152614442565b908482036060860152614442565b916080818403910152614442565b9491936145946145b0946145866142ae99976145786145a29660c08c5260c08c0190614467565b908a820360208c0152614442565b9088820360408a0152614442565b908682036060880152614442565b908482036080860152614442565b9160a0818403910152614442565b60031990610100818301126103ed576004906001600160401b0382358181116103ed57826145ed9185016140dd565b95909594602435908382116103ed5760e09082860301126103ed578401936044358381116103ed57846146219183016140dd565b949094936064358181116103ed578261463b9185016140dd565b949094936084358381116103ed57846146559183016140dd565b9490949360a4358181116103ed578261466f9185016140dd565b9490949360c4358381116103ed57846146899183016140dd565b9490949360e4359081116103ed5761419f92016140dd565b346103ed575f3660031901126103ed57602060405162093a808152f35b926146ea6142ae95936146dc6146f894608088526080880190614467565b908682036020880152614442565b908482036040860152614442565b916060818403910152614442565b9060031990610120828401126103ed576001600160401b0390600480358381116103ed57856147369183016140dd565b95909594602435908582116103ed5760e09082840301126103ed578201936044358181116103ed578261476a9185016140dd565b949094936064358381116103ed57846147849183016140dd565b949094936084358181116103ed578261479e9185016140dd565b9490949360a4358381116103ed57846147b89183016140dd565b9490949360c4358181116103ed57826147d29185016140dd565b9490949360e4358381116103ed57846147ec9183016140dd565b94909493610104359081116103ed5761419f92016140dd565b906003199060e0828401126103ed576001600160401b0390600480358381116103ed57856148349183016140dd565b95909594602435908582116103ed5760e09082840301126103ed578201936044358181116103ed57826148689185016140dd565b949094936064358381116103ed57846148829183016140dd565b949094936084358181116103ed578261489c9185016140dd565b9490949360a4358381116103ed57846148b69183016140dd565b9490949360c4359081116103ed5761419f92016140dd565b6003199060c0818301126103ed576004906001600160401b0382358181116103ed57826148fc9185016140dd565b95909594602435908382116103ed5760e09082860301126103ed578401936044358381116103ed57846149309183016140dd565b949094936064358181116103ed578261494a9185016140dd565b949094936084358381116103ed57846149649183016140dd565b9490949360a4359081116103ed5761419f92016140dd565b95926149ec946149c26149d0926149b46149de966149a66142ae9d9b9760e08e8181520190614467565b8c810360208e015290614442565b908a820360408c0152614442565b9088820360608a0152614442565b908682036080880152614442565b9084820360a0860152614442565b9160c0818403910152614442565b969394614a54614a7e96614a46614a7096614a388c6142ae9e9c98614a2a614a6299610100808552840190614467565b916020818403910152614442565b8c810360408e015290614442565b908a820360608c0152614442565b9088820360808a0152614442565b9086820360a0880152614442565b9084820360c0860152614442565b9160e0818403910152614442565b919060e0838203126103ed5760405190614aa5826141be565b8193803560168110156103ed5783526001600160401b039160208201358381116103ed5781614ad5918401614293565b602085015260408201358381116103ed5781614af2918401614293565b604085015260608201358381116103ed5781614b0f918401614293565b606085015260808201358381116103ed5781614b2c918401614293565b608085015260a08201358381116103ed5781614b49918401614293565b60a085015260c08201359283116103ed5760c0926144309201614293565b815190815160168110156117ae5760ff8019835416911617815560019182820191602090818301519182519460018060401b0395868111610d225780614bad83546142d2565b95601f968781116154c7575b508490878311600114615468575f9261545d575b50505f19600383901b1c191690881b1790555b600282016040850151805190878211610d22578190614bff84546142d2565b87811161540f575b5084908783116001146153b0575f926153a5575b50505f19600383901b1c191690881b1790555b6003938483016060820151805190888211610d22578190614c4f84546142d2565b888111615357575b5085908883116001146152f9575f926152ee575b50505f1982891b1c191690891b1790555b6004928381016080830151805190898211614fce578190614c9d84546142d2565b8981116152a0575b508690898311600114615239575f9261522e575b50505f19828a1b1c1916908a1b1790555b60059182820160a08201518051908a821161521b578190614ceb84546142d2565b8a81116151cf575b5087908a8311600114615168575f9261515d575b50505f19828b1b1c1916908b1b1790555b60c0015180516006830191898211614fce578190614d3684546142d2565b898111615111575b5086908983116001146150aa575f9261509f575b50505f19828a1b1c1916908a1b1790555b60078101838a0151805190898211614fce578190614d8184546142d2565b898111615053575b508690898311600114614fec575f92614fe1575b50505f19828a1b1c1916908a1b1790555b6008810160408a0151805190898211614fce57614dcb83546142d2565b888111614f8d575b508590888311600114614f1b57918060099492606096945f92614f10575b50505f19828c1b1c1916908c1b1790555b01980151928351968711614efd5750614e1b88546142d2565b90848211614ebc575b505080928511600114614e5a57509383949184925f95614e4f575b50501b925f19911b1c1916179055565b015193505f80614e3f565b92919084601f198116885f52855f20955f905b89838310614ea25750505010614e89575b50505050811b019055565b01519060f8845f19921b161c191690555f808080614e7e565b858701518955909701969485019488935090810190614e6d565b885f52825f209085808901821c830193858a10614ef4575b01901c019087905b828110614ee95750614e24565b5f8155018790614edc565b93508293614ed4565b604190634e487b7160e01b5f525260245ffd5b015190505f80614df1565b8b9291601f19831691855f52885f20925f5b8a828210614f6e5750509160609795939185600998969410614f57575b505050811b019055614e02565b01515f19838e1b60f8161c191690555f8080614f4a565b91929395968291958786015181550195019301908e9594939291614f2d565b835f52865f2089808501881c820192898610614fc5575b01871c01908c905b828110614fba575050614dd3565b5f8155018c90614fac565b92508192614fa4565b604187634e487b7160e01b5f525260245ffd5b015190505f80614d9d565b908c9350601f19831691855f52885f20925f5b8a828210615034575050841161501d575b505050811b019055614dae565b01515f19838c1b60f8161c191690555f8080615010565b91929395968291958786015181550195019301908e9594939291614fff565b909150835f52865f2089808501881c820192898610615096575b918e918695949301891c01915b828110615088575050614d89565b5f81558594508e910161507a565b9250819261506d565b015190505f80614d52565b908c9350601f19831691855f52885f20925f5b8a8282106150f257505084116150db575b505050811b019055614d63565b01515f19838c1b60f8161c191690555f80806150ce565b91929395968291958786015181550195019301908e95949392916150bd565b909150835f52865f2089808501881c820192898610615154575b918e918695949301891c01915b828110615146575050614d3e565b5f81558594508e9101615138565b9250819261512b565b015190505f80614d07565b908d9350601f19831691855f52895f20925f5b8b8282106151b05750508411615199575b505050811b019055614d18565b01515f19838d1b60f8161c191690555f808061518c565b91929395968291958786015181550195019301908f959493929161517b565b909150835f52875f208a808501891c8201928a8610615212575b918f9186959493018a1c01915b828110615204575050614cf3565b5f81558594508f91016151f6565b925081926151e9565b604188634e487b7160e01b5f525260245ffd5b015190505f80614cb9565b908c9350601f19831691855f52885f20925f5b8a828210615281575050841161526a575b505050811b019055614cca565b01515f19838c1b60f8161c191690555f808061525d565b91929395968291958786015181550195019301908e959493929161524c565b909150835f52865f208980850160051c8201928986106152e5575b918e91869594930160051c01915b8281106152d7575050614ca5565b5f81558594508e91016152c9565b925081926152bb565b015190505f80614c6b565b908b9350601f19831691855f52875f20925f5b89828210615341575050841161532a575b505050811b019055614c7c565b01515f19838b1b60f8161c191690555f808061531d565b8385015186558f9790950194938401930161530c565b909150835f52855f208880850160051c82019288861061539c575b918d91869594930160051c01915b82811061538e575050614c57565b5f81558594508d9101615380565b92508192615372565b015190505f80614c1b565b908a9350601f19831691855f52865f20925f5b888282106153f957505084116153e1575b505050811b019055614c2e565b01515f1960f88460031b161c191690555f80806153d4565b8385015186558e979095019493840193016153c3565b909150835f52845f208780850160051c820192878610615454575b918c91869594930160051c01915b828110615446575050614c07565b5f81558594508c9101615438565b9250819261542a565b015190505f80614bcd565b908a9350601f19831691855f52865f20925f5b888282106154b15750508411615499575b505050811b019055614be0565b01515f1960f88460031b161c191690555f808061548c565b8385015186558e9790950194938401930161547b565b909150835f52845f208780850160051c82019287861061550c575b918c91869594930160051c01915b8281106154fe575050614bb9565b5f81558594508c91016154f0565b925081926154e2565b908060209392818452848401375f828201840152601f01601f1916010190565b815190815160168110156117ae5760ff8019835416911617815560019182820191602090818301519182519460018060401b0395868111610d22578061557b83546142d2565b95601f96878111616154575b5084908783116001146160f5575f926160ea575b50505f19600383901b1c191690881b1790555b600282016040850151805190878211610d225781906155cd84546142d2565b87811161609c575b50849087831160011461603d575f92616032575b50505f19600383901b1c191690881b1790555b6003938483016060820151805190888211610d2257819061561d84546142d2565b888111615fe4575b508590888311600114615f86575f92615f7b575b50505f1982891b1c191690891b1790555b6004928381016080830151805190898211614fce57819061566b84546142d2565b898111615f2d575b508690898311600114615ec6575f92615ebb575b50505f19828a1b1c1916908a1b1790555b60059182820160a08201518051908a821161521b5781906156b984546142d2565b8a8111615e6f575b5087908a8311600114615e08575f92615dfd575b50505f19828b1b1c1916908b1b1790555b60c0015180516006830191898211614fce57819061570484546142d2565b898111615db1575b508690898311600114615d4a575f92615d3f575b50505f19828a1b1c1916908a1b1790555b60078101838a0151805190898211614fce57819061574f84546142d2565b898111615cf3575b508690898311600114615c8c575f92615c81575b50505f19828a1b1c1916908a1b1790555b6008810160408a0151805190898211614fce57819061579b84546142d2565b898111615c35575b508690898311600114615bce575f92615bc3575b50505f19828a1b1c1916908a1b1790555b6009810160608a0151805190898211614fce5781906157e784546142d2565b898111615b77575b508690898311600114615b10575f92615b05575b50505f19828a1b1c1916908a1b1790555b600a810160808a0151805190898211614fce57819061583384546142d2565b898111615ab9575b508690898311600114615a52575f92615a47575b50505f19828a1b1c1916908a1b1790555b600b810160a08a0151805190898211614fce5761587d83546142d2565b888111615a06575b508590888311600114615994579180600c949260c096945f92615989575b50505f19828c1b1c1916908c1b1790555b01980151928351968711614efd57506158cd88546142d2565b90848211615948575b50508092851160011461590057509383949184925f95614e4f5750501b925f19911b1c1916179055565b92919084601f198116885f52855f20955f905b8983831061592e5750505010614e895750505050811b019055565b858701518955909701969485019488935090810190615913565b885f52825f209085808901821c830193858a10615980575b01901c019087905b82811061597557506158d6565b5f8155018790615968565b93508293615960565b015190505f806158a3565b8b9291601f19831691855f52885f20925f5b8a8282106159e75750509160c09795939185600c989694106159d0575b505050811b0190556158b4565b01515f19838e1b60f8161c191690555f80806159c3565b91929395968291958786015181550195019301908e95949392916159a6565b835f52865f2089808501881c820192898610615a3e575b01871c01908c905b828110615a33575050615885565b5f8155018c90615a25565b92508192615a1d565b015190505f8061584f565b908c9350601f19831691855f52885f20925f5b8a828210615a9a5750508411615a83575b505050811b019055615860565b01515f19838c1b60f8161c191690555f8080615a76565b91929395968291958786015181550195019301908e9594939291615a65565b909150835f52865f2089808501881c820192898610615afc575b918e918695949301891c01915b828110615aee57505061583b565b5f81558594508e9101615ae0565b92508192615ad3565b015190505f80615803565b908c9350601f19831691855f52885f20925f5b8a828210615b585750508411615b41575b505050811b019055615814565b01515f19838c1b60f8161c191690555f8080615b34565b91929395968291958786015181550195019301908e9594939291615b23565b909150835f52865f2089808501881c820192898610615bba575b918e918695949301891c01915b828110615bac5750506157ef565b5f81558594508e9101615b9e565b92508192615b91565b015190505f806157b7565b908c9350601f19831691855f52885f20925f5b8a828210615c165750508411615bff575b505050811b0190556157c8565b01515f19838c1b60f8161c191690555f8080615bf2565b91929395968291958786015181550195019301908e9594939291615be1565b909150835f52865f2089808501881c820192898610615c78575b918e918695949301891c01915b828110615c6a5750506157a3565b5f81558594508e9101615c5c565b92508192615c4f565b015190505f8061576b565b908c9350601f19831691855f52885f20925f5b8a828210615cd45750508411615cbd575b505050811b01905561577c565b01515f19838c1b60f8161c191690555f8080615cb0565b91929395968291958786015181550195019301908e9594939291615c9f565b909150835f52865f2089808501881c820192898610615d36575b918e918695949301891c01915b828110615d28575050615757565b5f81558594508e9101615d1a565b92508192615d0d565b015190505f80615720565b908c9350601f19831691855f52885f20925f5b8a828210615d925750508411615d7b575b505050811b019055615731565b01515f19838c1b60f8161c191690555f8080615d6e565b91929395968291958786015181550195019301908e9594939291615d5d565b909150835f52865f2089808501881c820192898610615df4575b918e918695949301891c01915b828110615de657505061570c565b5f81558594508e9101615dd8565b92508192615dcb565b015190505f806156d5565b908d9350601f19831691855f52895f20925f5b8b828210615e505750508411615e39575b505050811b0190556156e6565b01515f19838d1b60f8161c191690555f8080615e2c565b91929395968291958786015181550195019301908f9594939291615e1b565b909150835f52875f208a808501891c8201928a8610615eb2575b918f9186959493018a1c01915b828110615ea45750506156c1565b5f81558594508f9101615e96565b92508192615e89565b015190505f80615687565b908c9350601f19831691855f52885f20925f5b8a828210615f0e5750508411615ef7575b505050811b019055615698565b01515f19838c1b60f8161c191690555f8080615eea565b91929395968291958786015181550195019301908e9594939291615ed9565b909150835f52865f208980850160051c820192898610615f72575b918e91869594930160051c01915b828110615f64575050615673565b5f81558594508e9101615f56565b92508192615f48565b015190505f80615639565b908b9350601f19831691855f52875f20925f5b89828210615fce5750508411615fb7575b505050811b01905561564a565b01515f19838b1b60f8161c191690555f8080615faa565b8385015186558f97909501949384019301615f99565b909150835f52855f208880850160051c820192888610616029575b918d91869594930160051c01915b82811061601b575050615625565b5f81558594508d910161600d565b92508192615fff565b015190505f806155e9565b908a9350601f19831691855f52865f20925f5b88828210616086575050841161606e575b505050811b0190556155fc565b01515f1960f88460031b161c191690555f8080616061565b8385015186558e97909501949384019301616050565b909150835f52845f208780850160051c8201928786106160e1575b918c91869594930160051c01915b8281106160d35750506155d5565b5f81558594508c91016160c5565b925081926160b7565b015190505f8061559b565b908a9350601f19831691855f52865f20925f5b8882821061613e5750508411616126575b505050811b0190556155ae565b01515f1960f88460031b161c191690555f8080616119565b8385015186558e97909501949384019301616108565b909150835f52845f208780850160051c820192878610616199575b918c91869594930160051c01915b82811061618b575050615587565b5f81558594508c910161617d565b9250819261616f565b815190815160168110156117ae5760ff8019835416911617815560019182820191602090818301519182519460018060401b0395868111610d2257806161e883546142d2565b95601f96878111616ecb575b508490878311600114616e6c575f92616e61575b50505f19600383901b1c191690881b1790555b600282016040850151805190878211610d2257819061623a84546142d2565b878111616e13575b508490878311600114616db4575f92616da9575b50505f19600383901b1c191690881b1790555b6003938483016060820151805190888211610d2257819061628a84546142d2565b888111616d5b575b508590888311600114616cfd575f92616cf2575b50505f1982891b1c191690891b1790555b6004928381016080830151805190898211614fce5781906162d884546142d2565b898111616ca4575b508690898311600114616c3d575f92616c32575b50505f19828a1b1c1916908a1b1790555b60059182820160a08201518051908a821161521b57819061632684546142d2565b8a8111616be6575b5087908a8311600114616b7f575f92616b74575b50505f19828b1b1c1916908b1b1790555b60c0015180516006830191898211614fce57819061637184546142d2565b898111616b28575b508690898311600114616ac1575f92616ab6575b50505f19828a1b1c1916908a1b1790555b60078101838a0151805190898211614fce5781906163bc84546142d2565b898111616a6a575b508690898311600114616a03575f926169f8575b50505f19828a1b1c1916908a1b1790555b6008810160408a0151805190898211614fce57819061640884546142d2565b8981116169ac575b508690898311600114616945575f9261693a575b50505f19828a1b1c1916908a1b1790555b6009810160608a0151805190898211614fce57819061645484546142d2565b8981116168ee575b508690898311600114616887575f9261687c575b50505f19828a1b1c1916908a1b1790555b600a810160808a0151805190898211614fce5781906164a084546142d2565b898111616830575b5086908983116001146167c9575f926167be575b50505f19828a1b1c1916908a1b1790555b600b810160a08a0151805190898211614fce5781906164ec84546142d2565b898111616772575b50869089831160011461670b575f92616700575b50505f19828a1b1c1916908a1b1790555b600c810160c08a0151805190898211614fce5761653683546142d2565b8881116166bf575b50859088831160011461664d579180600d949260e096945f92616642575b50505f19828c1b1c1916908c1b1790555b01980151928351968711614efd575061658688546142d2565b90848211616601575b5050809285116001146165b957509383949184925f95614e4f5750501b925f19911b1c1916179055565b92919084601f198116885f52855f20955f905b898383106165e75750505010614e895750505050811b019055565b8587015189559097019694850194889350908101906165cc565b885f52825f209085808901821c830193858a10616639575b01901c019087905b82811061662e575061658f565b5f8155018790616621565b93508293616619565b015190505f8061655c565b8b9291601f19831691855f52885f20925f5b8a8282106166a05750509160e09795939185600d98969410616689575b505050811b01905561656d565b01515f19838e1b60f8161c191690555f808061667c565b91929395968291958786015181550195019301908e959493929161665f565b835f52865f2089808501881c8201928986106166f7575b01871c01908c905b8281106166ec57505061653e565b5f8155018c906166de565b925081926166d6565b015190505f80616508565b908c9350601f19831691855f52885f20925f5b8a828210616753575050841161673c575b505050811b019055616519565b01515f19838c1b60f8161c191690555f808061672f565b91929395968291958786015181550195019301908e959493929161671e565b909150835f52865f2089808501881c8201928986106167b5575b918e918695949301891c01915b8281106167a75750506164f4565b5f81558594508e9101616799565b9250819261678c565b015190505f806164bc565b908c9350601f19831691855f52885f20925f5b8a82821061681157505084116167fa575b505050811b0190556164cd565b01515f19838c1b60f8161c191690555f80806167ed565b91929395968291958786015181550195019301908e95949392916167dc565b909150835f52865f2089808501881c820192898610616873575b918e918695949301891c01915b8281106168655750506164a8565b5f81558594508e9101616857565b9250819261684a565b015190505f80616470565b908c9350601f19831691855f52885f20925f5b8a8282106168cf57505084116168b8575b505050811b019055616481565b01515f19838c1b60f8161c191690555f80806168ab565b91929395968291958786015181550195019301908e959493929161689a565b909150835f52865f2089808501881c820192898610616931575b918e918695949301891c01915b82811061692357505061645c565b5f81558594508e9101616915565b92508192616908565b015190505f80616424565b908c9350601f19831691855f52885f20925f5b8a82821061698d5750508411616976575b505050811b019055616435565b01515f19838c1b60f8161c191690555f8080616969565b91929395968291958786015181550195019301908e9594939291616958565b909150835f52865f2089808501881c8201928986106169ef575b918e918695949301891c01915b8281106169e1575050616410565b5f81558594508e91016169d3565b925081926169c6565b015190505f806163d8565b908c9350601f19831691855f52885f20925f5b8a828210616a4b5750508411616a34575b505050811b0190556163e9565b01515f19838c1b60f8161c191690555f8080616a27565b91929395968291958786015181550195019301908e9594939291616a16565b909150835f52865f2089808501881c820192898610616aad575b918e918695949301891c01915b828110616a9f5750506163c4565b5f81558594508e9101616a91565b92508192616a84565b015190505f8061638d565b908c9350601f19831691855f52885f20925f5b8a828210616b095750508411616af2575b505050811b01905561639e565b01515f19838c1b60f8161c191690555f8080616ae5565b91929395968291958786015181550195019301908e9594939291616ad4565b909150835f52865f2089808501881c820192898610616b6b575b918e918695949301891c01915b828110616b5d575050616379565b5f81558594508e9101616b4f565b92508192616b42565b015190505f80616342565b908d9350601f19831691855f52895f20925f5b8b828210616bc75750508411616bb0575b505050811b019055616353565b01515f19838d1b60f8161c191690555f8080616ba3565b91929395968291958786015181550195019301908f9594939291616b92565b909150835f52875f208a808501891c8201928a8610616c29575b918f9186959493018a1c01915b828110616c1b57505061632e565b5f81558594508f9101616c0d565b92508192616c00565b015190505f806162f4565b908c9350601f19831691855f52885f20925f5b8a828210616c855750508411616c6e575b505050811b019055616305565b01515f19838c1b60f8161c191690555f8080616c61565b91929395968291958786015181550195019301908e9594939291616c50565b909150835f52865f208980850160051c820192898610616ce9575b918e91869594930160051c01915b828110616cdb5750506162e0565b5f81558594508e9101616ccd565b92508192616cbf565b015190505f806162a6565b908b9350601f19831691855f52875f20925f5b89828210616d455750508411616d2e575b505050811b0190556162b7565b01515f19838b1b60f8161c191690555f8080616d21565b8385015186558f97909501949384019301616d10565b909150835f52855f208880850160051c820192888610616da0575b918d91869594930160051c01915b828110616d92575050616292565b5f81558594508d9101616d84565b92508192616d76565b015190505f80616256565b908a9350601f19831691855f52865f20925f5b88828210616dfd5750508411616de5575b505050811b019055616269565b01515f1960f88460031b161c191690555f8080616dd8565b8385015186558e97909501949384019301616dc7565b909150835f52845f208780850160051c820192878610616e58575b918c91869594930160051c01915b828110616e4a575050616242565b5f81558594508c9101616e3c565b92508192616e2e565b015190505f80616208565b908a9350601f19831691855f52865f20925f5b88828210616eb55750508411616e9d575b505050811b01905561621b565b01515f1960f88460031b161c191690555f8080616e90565b8385015186558e97909501949384019301616e7f565b909150835f52845f208780850160051c820192878610616f10575b918c91869594930160051c01915b828110616f025750506161f4565b5f81558594508c9101616ef4565b92508192616ee6565b815190815160168110156117ae5760ff8019835416911617815560019182820191602090818301519182519460018060401b0395868111610d225780616f5f83546142d2565b95601f96878111617a2e575b5084908783116001146179cf575f926179c4575b50505f19600383901b1c191690881b1790555b600282016040850151805190878211610d22578190616fb184546142d2565b878111617976575b508490878311600114617917575f9261790c575b50505f19600383901b1c191690881b1790555b6003938483016060820151805190888211610d2257819061700184546142d2565b8881116178be575b508590888311600114617860575f92617855575b50505f1982891b1c191690891b1790555b6004928381016080830151805190898211614fce57819061704f84546142d2565b898111617807575b5086908983116001146177a0575f92617795575b50505f19828a1b1c1916908a1b1790555b60059182820160a08201518051908a821161521b57819061709d84546142d2565b8a8111617749575b5087908a83116001146176e2575f926176d7575b50505f19828b1b1c1916908b1b1790555b60c0015180516006830191898211614fce5781906170e884546142d2565b89811161768b575b508690898311600114617624575f92617619575b50505f19828a1b1c1916908a1b1790555b60078101838a0151805190898211614fce57819061713384546142d2565b8981116175cd575b508690898311600114617566575f9261755b575b50505f19828a1b1c1916908a1b1790555b6008810160408a0151805190898211614fce57819061717f84546142d2565b89811161750f575b5086908983116001146174a8575f9261749d575b50505f19828a1b1c1916908a1b1790555b6009810160608a0151805190898211614fce5781906171cb84546142d2565b898111617451575b5086908983116001146173ea575f926173df575b50505f19828a1b1c1916908a1b1790555b600a810160808a0151805190898211614fce5761721583546142d2565b88811161739e575b50859088831160011461732c579180600b949260a096945f92617321575b50505f19828c1b1c1916908c1b1790555b01980151928351968711614efd575061726588546142d2565b908482116172e0575b50508092851160011461729857509383949184925f95614e4f5750501b925f19911b1c1916179055565b92919084601f198116885f52855f20955f905b898383106172c65750505010614e895750505050811b019055565b8587015189559097019694850194889350908101906172ab565b885f52825f209085808901821c830193858a10617318575b01901c019087905b82811061730d575061726e565b5f8155018790617300565b935082936172f8565b015190505f8061723b565b8b9291601f19831691855f52885f20925f5b8a82821061737f5750509160a09795939185600b98969410617368575b505050811b01905561724c565b01515f19838e1b60f8161c191690555f808061735b565b91929395968291958786015181550195019301908e959493929161733e565b835f52865f2089808501881c8201928986106173d6575b01871c01908c905b8281106173cb57505061721d565b5f8155018c906173bd565b925081926173b5565b015190505f806171e7565b908c9350601f19831691855f52885f20925f5b8a828210617432575050841161741b575b505050811b0190556171f8565b01515f19838c1b60f8161c191690555f808061740e565b91929395968291958786015181550195019301908e95949392916173fd565b909150835f52865f2089808501881c820192898610617494575b918e918695949301891c01915b8281106174865750506171d3565b5f81558594508e9101617478565b9250819261746b565b015190505f8061719b565b908c9350601f19831691855f52885f20925f5b8a8282106174f057505084116174d9575b505050811b0190556171ac565b01515f19838c1b60f8161c191690555f80806174cc565b91929395968291958786015181550195019301908e95949392916174bb565b909150835f52865f2089808501881c820192898610617552575b918e918695949301891c01915b828110617544575050617187565b5f81558594508e9101617536565b92508192617529565b015190505f8061714f565b908c9350601f19831691855f52885f20925f5b8a8282106175ae5750508411617597575b505050811b019055617160565b01515f19838c1b60f8161c191690555f808061758a565b91929395968291958786015181550195019301908e9594939291617579565b909150835f52865f2089808501881c820192898610617610575b918e918695949301891c01915b82811061760257505061713b565b5f81558594508e91016175f4565b925081926175e7565b015190505f80617104565b908c9350601f19831691855f52885f20925f5b8a82821061766c5750508411617655575b505050811b019055617115565b01515f19838c1b60f8161c191690555f8080617648565b91929395968291958786015181550195019301908e9594939291617637565b909150835f52865f2089808501881c8201928986106176ce575b918e918695949301891c01915b8281106176c05750506170f0565b5f81558594508e91016176b2565b925081926176a5565b015190505f806170b9565b908d9350601f19831691855f52895f20925f5b8b82821061772a5750508411617713575b505050811b0190556170ca565b01515f19838d1b60f8161c191690555f8080617706565b91929395968291958786015181550195019301908f95949392916176f5565b909150835f52875f208a808501891c8201928a861061778c575b918f9186959493018a1c01915b82811061777e5750506170a5565b5f81558594508f9101617770565b92508192617763565b015190505f8061706b565b908c9350601f19831691855f52885f20925f5b8a8282106177e857505084116177d1575b505050811b01905561707c565b01515f19838c1b60f8161c191690555f80806177c4565b91929395968291958786015181550195019301908e95949392916177b3565b909150835f52865f208980850160051c82019289861061784c575b918e91869594930160051c01915b82811061783e575050617057565b5f81558594508e9101617830565b92508192617822565b015190505f8061701d565b908b9350601f19831691855f52875f20925f5b898282106178a85750508411617891575b505050811b01905561702e565b01515f19838b1b60f8161c191690555f8080617884565b8385015186558f97909501949384019301617873565b909150835f52855f208880850160051c820192888610617903575b918d91869594930160051c01915b8281106178f5575050617009565b5f81558594508d91016178e7565b925081926178d9565b015190505f80616fcd565b908a9350601f19831691855f52865f20925f5b888282106179605750508411617948575b505050811b019055616fe0565b01515f1960f88460031b161c191690555f808061793b565b8385015186558e9790950194938401930161792a565b909150835f52845f208780850160051c8201928786106179bb575b918c91869594930160051c01915b8281106179ad575050616fb9565b5f81558594508c910161799f565b92508192617991565b015190505f80616f7f565b908a9350601f19831691855f52865f20925f5b88828210617a185750508411617a00575b505050811b019055616f92565b01515f1960f88460031b161c191690555f80806179f3565b8385015186558e979095019493840193016179e2565b909150835f52845f208780850160051c820192878610617a73575b918c91869594930160051c01915b828110617a65575050616f6b565b5f81558594508c9101617a57565b92508192617a49565b815190815160168110156117ae5760ff8019835416911617815560019182820191602090818301519182519460018060401b0395868111610d225780617ac283546142d2565b95601f96878111618487575b508490878311600114618428575f9261841d575b50505f19600383901b1c191690881b1790555b600282016040850151805190878211610d22578190617b1484546142d2565b8781116183cf575b508490878311600114618370575f92618365575b50505f19600383901b1c191690881b1790555b6003938483016060820151805190888211610d22578190617b6484546142d2565b888111618317575b5085908883116001146182b9575f926182ae575b50505f1982891b1c191690891b1790555b6004928381016080830151805190898211614fce578190617bb284546142d2565b898111618260575b5086908983116001146181f9575f926181ee575b50505f19828a1b1c1916908a1b1790555b60059182820160a08201518051908a821161521b578190617c0084546142d2565b8a81116181a2575b5087908a831160011461813b575f92618130575b50505f19828b1b1c1916908b1b1790555b60c0015180516006830191898211614fce578190617c4b84546142d2565b8981116180e4575b50869089831160011461807d575f92618072575b50505f19828a1b1c1916908a1b1790555b60078101838a0151805190898211614fce578190617c9684546142d2565b898111618026575b508690898311600114617fbf575f92617fb4575b50505f19828a1b1c1916908a1b1790555b6008810160408a0151805190898211614fce578190617ce284546142d2565b898111617f68575b508690898311600114617f01575f92617ef6575b50505f19828a1b1c1916908a1b1790555b6009810160608a0151805190898211614fce57617d2c83546142d2565b888111617eb5575b508590888311600114617e43579180600a9492608096945f92617e38575b50505f19828c1b1c1916908c1b1790555b01980151928351968711614efd5750617d7c88546142d2565b90848211617df7575b505080928511600114617daf57509383949184925f95614e4f5750501b925f19911b1c1916179055565b92919084601f198116885f52855f20955f905b89838310617ddd5750505010614e895750505050811b019055565b858701518955909701969485019488935090810190617dc2565b885f52825f209085808901821c830193858a10617e2f575b01901c019087905b828110617e245750617d85565b5f8155018790617e17565b93508293617e0f565b015190505f80617d52565b8b9291601f19831691855f52885f20925f5b8a828210617e965750509160809795939185600a98969410617e7f575b505050811b019055617d63565b01515f19838e1b60f8161c191690555f8080617e72565b91929395968291958786015181550195019301908e9594939291617e55565b835f52865f2089808501881c820192898610617eed575b01871c01908c905b828110617ee2575050617d34565b5f8155018c90617ed4565b92508192617ecc565b015190505f80617cfe565b908c9350601f19831691855f52885f20925f5b8a828210617f495750508411617f32575b505050811b019055617d0f565b01515f19838c1b60f8161c191690555f8080617f25565b91929395968291958786015181550195019301908e9594939291617f14565b909150835f52865f2089808501881c820192898610617fab575b918e918695949301891c01915b828110617f9d575050617cea565b5f81558594508e9101617f8f565b92508192617f82565b015190505f80617cb2565b908c9350601f19831691855f52885f20925f5b8a8282106180075750508411617ff0575b505050811b019055617cc3565b01515f19838c1b60f8161c191690555f8080617fe3565b91929395968291958786015181550195019301908e9594939291617fd2565b909150835f52865f2089808501881c820192898610618069575b918e918695949301891c01915b82811061805b575050617c9e565b5f81558594508e910161804d565b92508192618040565b015190505f80617c67565b908c9350601f19831691855f52885f20925f5b8a8282106180c557505084116180ae575b505050811b019055617c78565b01515f19838c1b60f8161c191690555f80806180a1565b91929395968291958786015181550195019301908e9594939291618090565b909150835f52865f2089808501881c820192898610618127575b918e918695949301891c01915b828110618119575050617c53565b5f81558594508e910161810b565b925081926180fe565b015190505f80617c1c565b908d9350601f19831691855f52895f20925f5b8b828210618183575050841161816c575b505050811b019055617c2d565b01515f19838d1b60f8161c191690555f808061815f565b91929395968291958786015181550195019301908f959493929161814e565b909150835f52875f208a808501891c8201928a86106181e5575b918f9186959493018a1c01915b8281106181d7575050617c08565b5f81558594508f91016181c9565b925081926181bc565b015190505f80617bce565b908c9350601f19831691855f52885f20925f5b8a828210618241575050841161822a575b505050811b019055617bdf565b01515f19838c1b60f8161c191690555f808061821d565b91929395968291958786015181550195019301908e959493929161820c565b909150835f52865f208980850160051c8201928986106182a5575b918e91869594930160051c01915b828110618297575050617bba565b5f81558594508e9101618289565b9250819261827b565b015190505f80617b80565b908b9350601f19831691855f52875f20925f5b8982821061830157505084116182ea575b505050811b019055617b91565b01515f19838b1b60f8161c191690555f80806182dd565b8385015186558f979095019493840193016182cc565b909150835f52855f208880850160051c82019288861061835c575b918d91869594930160051c01915b82811061834e575050617b6c565b5f81558594508d9101618340565b92508192618332565b015190505f80617b30565b908a9350601f19831691855f52865f20925f5b888282106183b957505084116183a1575b505050811b019055617b43565b01515f1960f88460031b161c191690555f8080618394565b8385015186558e97909501949384019301618383565b909150835f52845f208780850160051c820192878610618414575b918c91869594930160051c01915b828110618406575050617b1c565b5f81558594508c91016183f8565b925081926183ea565b015190505f80617ae2565b908a9350601f19831691855f52865f20925f5b888282106184715750508411618459575b505050811b019055617af5565b01515f1960f88460031b161c191690555f808061844c565b8385015186558e9790950194938401930161843b565b909150835f52845f208780850160051c8201928786106184cc575b918c91869594930160051c01915b8281106184be575050617ace565b5f81558594508c91016184b0565b925081926184a2565b903590601e19813603018212156103ed57018035906001600160401b0382116103ed576020019181360383136103ed57565b9080156185f65761851b60208401846184d5565b9050156185e45760ff60405182848237602081848101601f81520301902054166185c0575050604081019061855082826184d5565b9050151580618594575b618562575050565b61856c92506184d5565b61859060405192839263805de86960e01b8452602060048501526024840191615515565b0390fd5b5060ff60206185a384846184d5565b91908260405193849283378101601f81520301902054161561855a565b61859060405192839263029e8f5f60e21b8452602060048501526024840191615515565b6040516346829b8560e01b8152600490fd5b604051630dd088e760e01b8152600490fd5b9080156186555760ff60405182848237602081848101601f815203019020541615618631575050565b61859060405192839263e3d1895f60e01b8452602060048501526024840191615515565b604051631a2f07d160e01b8152600490fd5b91909160405183828237602081858101601f815203019020600160ff19825416179055813560168110156103ed576186a260608401846184d5565b929093608081016186b390826184d5565b906186c160a08401846184d5565b906186cf60208601866184d5565b929093604087016186e090886184d5565b96909760c081016186f0916184d5565b9d909981604051928392833781015f81520390209b6040519b6187148d809d614435565b60208c0160e0905260e08c019061872a92615515565b908a820360408c015261873c92615515565b9088820360608a015261874e92615515565b90868203608088015261876092615515565b9084820360a086015261877292615515565b82810360c0840152339561878592615515565b037fb079e6ef5692cd4a65d77914ef3b91d011cbcd311ab2f185cb7681009e148add91a356fe8be0079c531659141344cd1fd0a4f28419497f9722a3daafe3b4186f6b6457e0a264697066735822122052d606ef7eb312f0d64f46e5c8991f0d0651c16da369f49d013f0bbcccd5a79f64736f6c63430008180033","linkReferences":{}},"methodIdentifiers":{"AR_TREE_ID()":"b6e3a9dc","RECOVERY_DELAY()":"47b45652","RECOVERY_LOCKOUT()":"561ea99c","accountAnchors(string)":"6437afa4","addEntityOperator(address)":"397c9a3a","addLegalOperator(address)":"45f65cfa","addOperator(address)":"9870d7fe","addProofOperator(address)":"6b6797c9","affirmedAnchors(string)":"47deec0d","agentAnchors(string)":"144888ff","cancelRecovery()":"0ba234d6","codeAnchors(string)":"573701f7","dataAnchors(string)":"717d1a85","entityAnchors(string)":"e600a0a0","entityOperators(address)":"6ae0dd9c","eventAnchors(string)":"8a0d436f","executeRecovery()":"20c5a3e1","initiateRecovery(address)":"d5ce9aad","legalAnchors(string)":"ecc8d0fc","legalOperators(address)":"b91ef084","mediaAnchors(string)":"762d408d","modelAnchors(string)":"16aca546","noteAnchors(string)":"1dcc4365","onChainAnchors(string)":"96ad272d","operators(address)":"13e7c9d8","otherAnchors(string)":"5bd47e10","owner()":"8da5cb5b","pendingOwner()":"e30c3978","postAnchors(string)":"1cb655e7","proofAnchors(string)":"132171b0","proofOperators(address)":"402cef1b","receiptAnchors(string)":"bdd5a582","recoveryAddress()":"710eb26c","recoveryInitiatedAt()":"20727381","recoveryLockoutUntil()":"47be22fa","registerAccount(string,(uint8,string,string,string,string,string,string),uint256)":"66e81e65","registerAffirmed(string,(uint8,string,string,string,string,string,string),string,string,string)":"9b1595d0","registerAgent(string,(uint8,string,string,string,string,string,string),string,string,string,string)":"a00c78ab","registerCode(string,(uint8,string,string,string,string,string,string),string,string,string,string,string)":"61ee8fea","registerData(string,(uint8,string,string,string,string,string,string),string,string,string,string,string)":"62c772cc","registerEntity(string,(uint8,string,string,string,string,string,string),string,string,string,string,string,string)":"d58b91e0","registerEvent(string,(uint8,string,string,string,string,string,string),string,string,string,string,string,string)":"46de8daa","registerLegal(string,(uint8,string,string,string,string,string,string),string,string,string,string,string)":"9786e9a3","registerMedia(string,(uint8,string,string,string,string,string,string),string,string,string,string,string)":"9e565f4d","registerModel(string,(uint8,string,string,string,string,string,string),string,string,string,string,string)":"bcb145f8","registerNote(string,(uint8,string,string,string,string,string,string),string,string,string,string)":"a0d1c384","registerOnChain(string,(uint8,string,string,string,string,string,string),string,string,string,string,string,string,string)":"53ddf3e2","registerOther(string,(uint8,string,string,string,string,string,string),string,string,string,string)":"e22aebdf","registerPost(string,(uint8,string,string,string,string,string,string),string,string,string,string)":"fe746eb2","registerProof(string,(uint8,string,string,string,string,string,string),string,string,string,string,string,string,string,string,string)":"fe264355","registerReceipt(string,(uint8,string,string,string,string,string,string),string,string,string,string,string,string,string)":"af7f08e5","registerReport(string,(uint8,string,string,string,string,string,string),string,string,string,string,string,string,string)":"f5de2afb","registerResearch(string,(uint8,string,string,string,string,string,string),string,string,string,string)":"8e9d6ab7","registerRetraction(string,(uint8,string,string,string,string,string,string),string,string,string)":"fb07c543","registerReview(string,(uint8,string,string,string,string,string,string),string,string,string)":"04fabff9","registerText(string,(uint8,string,string,string,string,string,string),string,string,string,string)":"64bea334","registerVoid(string,(uint8,string,string,string,string,string,string),string,string,string,string)":"c47e3d47","registered(string)":"5d2d5c37","removeEntityOperator(address)":"ddf841a9","removeLegalOperator(address)":"6ba60e71","removeOperator(address)":"ac8a584a","removeProofOperator(address)":"b643fcb3","reportAnchors(string)":"9bcc0074","researchAnchors(string)":"165d33fe","retractionAnchors(string)":"7d15e15d","reviewAnchors(string)":"5d064b3a","setRecoveryAddress(address)":"49efe5ae","textAnchors(string)":"517f4dcf","transferOwnership(address)":"f2fde38b","voidAnchors(string)":"e0ac87b9"},"id":19}